:020000040800F2
:10000000E8090020D93F0008393E0008413E0008B9
:10001000433E0008453E0008473E0008000000003F
:10002000000000000000000000000000493E000841
:100030004B3E0008000000004D3E00084F3E000807
:10004000F53F0008F93F0008FD3F000801400008A7
:1000500005400008094000080D4000081140000854
:1000600015400008194000081D4000085D3E0008CA
:10007000633E0008693E0008214000082540000852
:1000800029400008000000002D4000083140000811
:10009000354000086F3E0008753E000839400008F2
:1000A0003D400008414000087B3E000845400008F4
:1000B000494000084D4000085140000855400008E4
:1000C000594000085D400008614000086540000894
:1000D000694000086D400008813E0008714000083A
:1000E00075400008794000087D4000088140000804
:1000F00085400008894000088D400008000000008D
:100100000000000091400008000000009540000839
:1001100099400008000000009D400008A140000830
:10012000A5400008A9400008AD400008B140000803
:10013000B54000080000000000000000B9400008C1
:10014000BD400008C14000080000000000000000A1
:10015000000000000000000000000000000000009F
:10016000000000000000000000000000C540000882
:10017000C94000080000000000000000000000006E
:1001800000000000CD40000800000000000000005A
:10019000000000000000000000000000000000005F
:1001A0000000000000000000D1400008D540000819
:1001B000D9400008DD400008E140000800000000D0
:1001C00000000000E5400008000000000000000002
:1001D000E9400008ED40000838B5040015D004F1EE
:1001E00080056868002804D100202870204600F0AF
:1001F00031FE2420686020680168490849000160D8
:10020000204600F01BFA012801D1012032BDA06A6E
:10021000002802D0204600F06BFB2068416821F4E2
:10022000904141602068816821F02A018160206846
:10023000016841F0010101602046BDE8324000F054
:10024000BBBB70B50446134604F1800568682028DE
:1002500049D1002901D0180001D1012070BD2878B2
:10026000012840D001202870216504F15406338014
:1002700073800020E86021206860706A00281ED02A
:10028000DFF8AC13C162DFF8AC03716A0863DFF812
:10029000A803716A48630020716A8863206800F1CE
:1002A0002802216D706A00F0C0FE002807D01020DF
:1002B000E8600020287020206860012070BD402088
:1002C00021680862002028702068083050E8001F6C
:1002D00041F08001206800F1080242E80010002887
:1002E000F2D1002070BD022070BD30B4034603F18E
:1002F00080008468202C22D1002901D0140001D173
:1003000001201DE00478012C19D001240470002084
:10031000D8661868DFF81443A0420CD04068000289
:1003200009D5186850E8004F44F08064054645E858
:1003300000400028F5D1184630BC00F0DABB02209E
:1003400030BC7047F8B504462668F1693268B36876
:1003500040F60F00084004F15C050DD18F060BD567
:10036000970601D4DF0007D56969002900F05D8197
:100370002046BDE8F4400847002800F08C80DFF8F4
:10038000B408034204D1DFF8B0783A4200F0838029
:100390000F46FF0707D5D70505D5012737622E6B16
:1003A00046F001062E638E0709D51E46F60706D5D0
:1003B000022627683E622E6B46F004062E634E0727
:1003C00009D51E46F60706D5042627683E622E6B21
:1003D00046F002062E630E070AD5960601D40342A4
:1003E00006D0082026683062286B40F00800286399
:1003F000080509D5500107D54FF400602668306222
:10040000286B40F020002863286B002800F00D8145
:10041000880608D5900601D4D80004D5696900295A
:1004200001D020468847286B21688968490602D494
:1004300010F0280F29D0204600F0D0FB20688068FB
:1004400040061DD52068083050E8001F21F040010B
:10045000206800F1080242E800100028F2D1286A62
:1004600000280DD0DFF8D4178163286A00F059FE08
:10047000002800F0DA80286A816BBDE8F440084764
:100480002046BDE8F24000F047BF204600F044FFA0
:1004900000202863F1BD2869012840F09280C80639
:1004A00040F18F80D00640F18C80102030622068AF
:1004B000806840064ED5286A0068406880B20028EF
:1004C00000F0B3802988884280F2AF806880286A73
:1004D00000680068800634D4206850E8001F21F4CA
:1004E0008071024642E800100028F5D120680830EB
:1004F00050E8001F49084900206800F1080242E85E
:1005000000100028F2D12068083050E8001F21F0C8
:100510004001206800F1080242E800100028F2D1F2
:100520002020E86200202861206850E8001F21F0A8
:100530001001024642E800100028F5D1286A00F0B8
:10054000BAFD29886888091A89B22046BDE8F440B6
:1005500000F0E3BE28886988411A6888002864D0C2
:10056000084680B2002860D0206850E8002F22F4AE
:100570009072034643E800200028F5D12068083037
:1005800050E8002FDFF84C030240206800F1080318
:1005900043E800200028F1D12020E86200202861F3
:1005A0006861206850E8002F22F01002034643E8FB
:1005B00000200028F5D189B22046BDE8F44000F0C3
:1005C000ACBEC80209D5580207D54FF4801030627E
:1005D0002046BDE8F24000F0A1BE08060AD510068C
:1005E00001D4180206D5A96900291ED02046BDE80D
:1005F000F4400847480606D5500604D52046BDE815
:10060000F24000F0DBBB080206D5500004D52046BE
:10061000BDE8F24000F083BEC80106D5002A04D52B
:100620002046BDE8F24000F07BBEF1BD00800040F6
:10063000650C0008AB0C00085D0D0008F8B5044619
:10064000002521680A68DFF8FC050240A068024323
:100650002069024360690243E06902430A6021683D
:100660004A6822F44052E06802434A60A269236863
:10067000DFF8CC158B4201D0206A02439E68DFF878
:10068000C805064032439A602268D36A1B09606A33
:1006900050EA0313D3622068DFF8B02590420CD1F2
:1006A000DFF8AC25126802F00302032A15D8DFE850
:1006B00002F00248355E012210E0DFF898259042F2
:1006C0001BD1DFF88C25126812F00C024DD0042AE1
:1006D00037D0082A22D00C2A49D01022884240F074
:1006E0007F80002A06D0022A43D0042A44D0082A58
:1006F00045D047E001F022F946E0DFF85C25904262
:100700000ED1DFF84C25126812F030022DD0102ADD
:1007100017D0202A02D0302A29D0DEE70222DDE7D6
:10072000DFF8382590420ED1DFF82425126812F048
:10073000C0021AD0402A04D0802AEFD0C02A16D096
:10074000CBE70422CAE78842C7D1DFF80425126844
:1007500012F4406209D0B2F5806FF2D0B2F5006FAA
:10076000DCD0B2F5406F02D0B7E72A46B6E70822E0
:10077000B4E7DFF8EC0407E001F0A7F804E04FF479
:10078000004001E028460125002800F0988000BFC5
:1007900051A1626A31F81210B0FBF1F6304662687E
:1007A00002EB4201884202D31103814201D20125AA
:1007B00085E0002747EA166710464008002110EB45
:1007C00006207941002301F027F9A0F54071DFF8F8
:1007D0001026914202D22168C86070E001256EE0C7
:1007E000E069B0F5004F38D1082A15D8DFE802F0EB
:1007F00005080B140E141414110001F09FF80DE0FD
:1008000001F0A9F80AE0DFF8580407E001F05DF80C
:1008100004E04FF4004001E02846012500284ED0B6
:10082000D4F804102CA2636A32F81320B0FBF2F063
:100830000A46520802EB4002B2FBF1F04FF6F071AB
:10084000A0F110028A4206D20140C0F342000143E7
:100850002068C16033E0012531E0082A15D8DFE8BF
:1008600002F005080B140E141414110001F066F8C0
:100870000DE001F070F80AE0DFF8E40307E001F0B2
:1008800024F804E04FF4004001E028460125002848
:1008900015D0616810A2636A32F81320B0FBF2F041
:1008A00000EB5100B0FBF1F0A0F110014FF6F07237
:1008B000914203D280B22168C86000E0012504F1B2
:1008C000680001214180018000218160C1602846CB
:1008D000F2BD0000FEFFFFEF010002000400060071
:1008E00008000A000C0010002000400080000001F9
:1008F00090F82810C90706D50268536823F400331E
:10090000C16A0B43536090F82810890706D5026826
:10091000536823F48033016B0B43536090F8281025
:10092000490706D50268536823F48023416B0B43C3
:10093000536090F82810090706D50268536823F41D
:100940000043816B0B43536090F82810C90606D50D
:100950000268936823F48053C16B0B43936090F853
:100960002810890606D50268936823F40053016CA9
:100970000B43936090F82810490611D5026853681C
:1009800023F48013416C0B435360416CB1F5801F1D
:1009900006D10268536823F4C003816C0B43536093
:1009A00090F82810090606D501684A6822F400224A
:1009B000C06C02434A6070477CB5044604F1800570
:1009C0000020E86001F040F9064620680068000752
:1009D0000BD56FF07E400090334600224FF400119B
:1009E000204600F01BF800280FD12068006840075F
:1009F0000DD56FF07E400090334600224FF4800109
:100A0000204600F00BF8002801D0032076BD2020FE
:100A10006860A8600020E066287076BD2DE9F0418E
:100A200005460E4617469846069C2868C069304021
:100A3000B04201D1012000E000203946884255D162
:100A400014F1010FF1D001F0FFF8A0EB080084428F
:100A500001D3002C1FD1286850E8001F21F4D07169
:100A6000024642E800100028F5D12868083050E816
:100A7000001F49084900286800F1080242E80010F8
:100A80000028F2D105F18000202141608160002121
:100A9000017003202BE0286801684907C5D5C169AA
:100AA0000905C2D54FF400610162286850E8001FB3
:100AB00021F4D071024642E800100028F5D12868E0
:100AC000083050E8001F49084900286800F1080272
:100AD00042E800100028F2D105F180002021416099
:100AE0008160C16000210170032000E00020BDE8AA
:100AF000F08170B504461346A16504F15C063380AD
:100B000004F180050020E8602220A860306A0028F7
:100B10001ED00FF29D11C1620FF22920316A0863C5
:100B20000FF23920316A48630020316A8863A26D70
:100B3000206800F12401306A00F077FA002807D01D
:100B40001020E860002028702020A860012070BDDF
:100B5000002028702069002809D0206850E8001F74
:100B600041F48071024642E800100028F5D1206867
:100B7000083050E8001F41F00101206800F1080230
:100B800042E800100028F2D12068083050E8001F29
:100B900041F04001206800F1080242E800100028FE
:100BA000F2D1002070BD016851E8002F22F0C00290
:100BB0000B4643E800210029F5D10168083151E8CE
:100BC000002F22F40002016801F1080343E800212C
:100BD0000029F2D12021C0F884107047016851E843
:100BE000002F22F490720B4643E800210029F5D132
:100BF0000168083151E8002FDFF8E8110A40016868
:100C000001F1080343E800210029F1D1C16E012957
:100C100009D1016851E8002F22F010020B4643E889
:100C200000210029F5D12021C0F888100021C166DB
:100C3000016770470100001020010004AD0D00089D
:100C400000800040F369FFCFFFF4FF11003801403E
:100C5000881002400044004000480040004C004022
:100C60000024F4000146886A0968096889061AD4D4
:100C70000021A0F856100168083151E8002F22F039
:100C80008002016801F1080343E800210029F2D144
:100C9000016851E8002F42F040020B4643E8002172
:100CA0000029F5D1704700F0D5BF806A00F0D3BFAE
:100CB00018B4826A02F15C0100680068800634D4CE
:100CC00000204880106850E8003F23F480730446F9
:100CD00044E800300028F5D11068083050E8003FA3
:100CE0005B085B00106800F1080444E8003000284D
:100CF000F2D11068083050E8003F23F0400310683C
:100D000000F1080444E800300028F2D12020C86235
:100D10000869012809D1106850E8003F23F010034A
:100D2000044644E800300028F5D10869012804D1C0
:100D30000988104614BC00F0F0BA104612BC00F04E
:100D40008BBF0000806A00F15C010A69012A03D1AF
:100D50000988490800F0E1BA00F07FBF70B5846AE5
:100D600004F1840528686E6821688968090607D53A
:100D7000212805D10020A4F856002046FFF713FFD4
:100D800020688068400608D5222E06D1002004F194
:100D9000560108812046FFF721FFA86840F01000A7
:100DA000A8602046BDE8704000F0B6BA806A00F145
:100DB000560100220A810A8000F0AEBA016851E8AB
:100DC000002F22F040020B4643E800210029F5D114
:100DD0002021C0F884100021416700F03BBF0000D3
:100DE00000FD0F00FEFFFFEF10B55A4C5A4820607F
:100DF0004FF4E13060600020A060E06020610C20D2
:100E000060614FF44070A0610020E0612062606288
:100E1000A0622046FFF7E0F9002801D001F0A9F810
:100E20000021204601F0D2F8002801D001F0A1F8FD
:100E30000021204601F0EDF8002801D001F099F8DA
:100E4000204601F0A5F8002803D0BDE8104001F0CD
:100E500090B810BD78B597B004460022142101A8BF
:100E600001F026F90022442106A801F021F92068AA
:100E7000394988426CD1022006900020089006A8CB
:100E800001F034F9002801D001F073F83348C1684B
:100E900041F40031C160C16801F400310091009952
:100EA000016841F001010160006800F0010000905C
:100EB00000980F20019002200290002003900490DF
:100EC0000720059001A94FF0904001F043FA244D0E
:100ED000244E2E601A2068600020A860E860802000
:100EE000286100206861A8612020E8614FF48050EB
:100EF0002862284600F038F8002801D001F039F8BF
:100F0000E567AC6206F1140028661B2068661020B5
:100F1000A8660020E8668020286700206867A86728
:100F2000E867C5F8800005F1600000F01DF80028B2
:100F300001D001F01EF805F16000A067C5F88840F7
:100F400000221146262001F042FB262001F04EFB34
:100F500018B070BD74030020004400404C100240E3
:100F6000B40200200800024038B5040001D101207D
:100F700032BD216804F12405DFF8780381420BD2E9
:100F8000DFF8740341181420B1FBF0F080002862F0
:100F9000DFF86803E8610AE0DFF864034118142011
:100FA000B1FBF0F080002862DFF85803E86102200E
:100FB000687021680A686FF30E12A0680243E06847
:100FC00002432069024360690243A0690243E06969
:100FD0000243206A02430A60204600F062F9A068DA
:100FE000B0F5804F01D1002060602079696A086007
:100FF000E86AA96A4860606800280BD0052809D211
:10100000204600F068F90020296B0860A86B696B26
:10101000486003E0002028636863A8630020A8619B
:10102000012068700020287032BDF8B50446002504
:1010300004F124063078012801D10220F2BD0120FC
:1010400030707078012831D1022070702846B0616C
:10105000206807687F087F000760204600F000F9DD
:101060002168F0680028086803D040F00E0008608E
:1010700007E020F0040008602068016841F00A01E0
:101080000160706A0168C90303D5016841F4807189
:101090000160306B002803D0016841F48071016069
:1010A0002068016841F00101016002E028463070CB
:1010B00002252846F2BD10B4002100F12402537825
:1010C000022B03D004209061012123E003681C68F7
:1010D00024F00E041C60536A1C6824F480741C60A5
:1010E000006803685B085B000360012092F8203011
:1010F00003F01F039840D3695860D06A936A586020
:10110000106B002806D0036823F480730360906B93
:10111000536B58600120507000201070084610BCBE
:10112000704710B5002400F124025178022907D03D
:1011300004209061012050702046107001242BE0A3
:1011400001680B6823F00E030B6001680B685B08F5
:101150005B000B60516A0B6823F480730B60012104
:1011600092F8203003F01F039940D3695960D16A87
:10117000936A5960116B002906D00B6823F48073C1
:101180000B60916B536B59600121517021461170B6
:101190005169002900D08847204610BDF0B400F105
:1011A0002401CA6914680268156891F8206006F085
:1011B0001F06042303FA06F73C4214D06F0712D52A
:1011C0001468A40603D4146824F00404146091F88D
:1011D000202002F01F029340CA695360C9680029A9
:1011E0003CD0F0BC0847022303FA06F73C4218D073
:1011F000AF0716D51468A40605D4146824F00A04B1
:10120000146001224A7091F8202002F01F029340DE
:10121000CA69536000220A70896800291ED0F0BC98
:101220000847082303FA06F6344217D02B0715D5D2
:10123000136823F00E031360012291F8203003F0AD
:101240001F039A40CB695A6001228A614A700022CA
:101250000A700969002901D0F0BC0847F0BC70474A
:1012600030B4046DC56C6C60446D002C02D0C46D4C
:10127000856D6C60012490F8445005F01F05AC406A
:10128000056C6C600468636003688468102C03D18B
:101290009A600068C16002E099600068C26030BC7A
:1012A00070470168184A134B994200D3203201F06D
:1012B000FF0108391423B1FBF3F1436C9B0812EBD7
:1012C00083028264114AC264012201F01F0102FA02
:1012D00001F10165704701790D4A02EB8102426517
:1012E0000C4A82650122491E01F01F018A40C26535
:1012F0007047000008040240F8FFFDBF00000240F4
:10130000F8FBFDBF000402400008024080080240D4
:10131000FC08024040090240704770477047704720
:10132000704730B5016884684218416802EB510388
:10133000C90703D54C4401E0491C08D19A4218BFA3
:1013400012F9011B01D10C3030BD12F8015B0029EC
:1013500004F8015BF0D4491EF7D5EFE72DE9F84317
:10136000040000F0E281DFF870562078C00712D543
:10137000A86800F00C00E96801F003010C2801D115
:10138000032901D0082845D12868800303D5606867
:10139000002800F0CA812078800721D5A86800F0D5
:1013A0000C00E96801F003010C2801D1022901D0E9
:1013B000042866D12868400503D5E068002800F0BD
:1013C000B481686820F0FE40216940EA01606860ED
:1013D000DFF81006006801F019F9002840F0A58137
:1013E000DFF804662078000740F1848060690028F7
:1013F000706870D040F00100706000F025FC074676
:101400007068800776D400F01FFCC01B0328F7D358
:1014100003208DE16068B0F5803F04D1286840F476
:101420008030286012E0B0F5A02F286807D140F482
:1014300080202860286840F48030286006E020F48E
:1014400080302860286820F48020286060680028A8
:101450000BD000F0F9FB0646286880039BD400F00F
:10146000F3FB801B6528F7D3D2E700F0EDFB0646BF
:10147000286880038FD500F0E7FB801B6528F7D331
:10148000C6E7E0680028286816D040F4807028601D
:1014900000F0DAFB06462868400505D400F0D4FBCE
:1014A000801B0328F7D3B3E7686820F0FE4021696A
:1014B00040EA0160686093E720F48070286000F0E3
:1014C000C3FB0646286840058AD500F0BDFB801B9B
:1014D0000328F7D39CE740084000706000F0B4FB9D
:1014E00007467068800705D500F0AEFBC01B0328D7
:1014F000F7D38DE72078400768D50027A86DC00096
:1015000009D4A86D40F08050A865A86D00F0805007
:10151000009000980127DFF8D484D8F80000C005B7
:1015200013D4D8F8000040F48070C8F8000000F030
:101530008BFB8146D8F80000C00506D400F084FB80
:10154000A0EB09000328F5D362E7A068012804D1C5
:10155000306840F00100306011E00528306807D1A4
:1015600040F004003060306840F00100306006E078
:10157000400840003060306820F004003060A0680F
:1015800000280ED000F060FB80463068800717D43A
:1015900000F05AFBA0EB080041F289318842F4D3F5
:1015A00036E700F051FB80463068800708D500F030
:1015B0004BFBA0EB080041F289318842F4D327E7C6
:1015C000012F03D1A86D20F08050A86520788006F7
:1015D00021D5A0690028B0680ED040F00100B060AD
:1015E00000F032FB0746B068800714D400F02CFBF3
:1015F000C01B0328F7D30BE740084000B06000F0A1
:1016000023FB0746B068800705D500F01DFBC01B13
:101610000328F7D3FCE6E069002800F08880A96879
:1016200001F00C010C2955D00228286820F08070A8
:1016300028603AD100F008FB06462868800105D5ED
:1016400000F002FB801B0328F7D3E1E6E868DFF82F
:10165000A0130840216A0843616A491E40EA01104C
:10166000A16A40EA0120216B4908491E40EA415025
:10167000616B4908491E40EA4160E16A40EAC16085
:10168000E860286840F080702860E86840F080706A
:10169000E86000F0D9FA04462868800147D400F0D9
:1016A000D3FA001B0328F7D3B2E6E868800880006D
:1016B000E860E968DFF83C030140E96000F0C4FA43
:1016C00004462868800132D500F0BEFA001B0328CA
:1016D000F7D39DE6012828D0E86800F00301226ACC
:1016E000914222D100F0F001626A521EB1EB021F5A
:1016F0001BD100F4FE41A26AB1EB022F15D100F01C
:101700007841E26AB1EBC26F0FD100F4C001226BE5
:101710005208521EB1EB425F07D100F0C060616B0E
:101720004908491EB0EB416F01D0012000E00020C4
:10173000BDE8F2832DE9F843044688460027002CD3
:1017400061D0DFF8B452286800F00F00404509D29C
:101750002868000948EA00102860286800F00F0097
:10176000404550D1DFF870622078C0074DD56068E1
:1017700003281AD13068800145D500F00AF9DFF856
:101780007C12884223D3B06810F0F00F05D0207887
:1017900080071CD5A068002819D1B06820F0F0009F
:1017A00040F08000B060802711E00228306828D126
:1017B000800328D500F089F8DFF84012884206D36C
:1017C000B06820F0F00040F08000B0608027B16881
:1017D0008908606850EA8101B16000F035FA8146FD
:1017E000B06800F00C006168B0EB810F0DD000F024
:1017F0002BFAA0EB090041F289318842F0D3032093
:1018000061E04005D6D401205DE02068810715D550
:10181000400703D5B06840F4E060B060207800076E
:1018200005D5B06820F4605040F4E060B060B16865
:1018300021F0F001A0680143B16005E0802F03D1E1
:10184000B06820F0F000B060286800F00F0080451C
:1018500014D22868000948EA0010286000F0F4F962
:101860000746286800F00F00404507D000F0ECF96B
:10187000C01B41F289318842F3D3C0E7207840078A
:1018800005D5B16821F4E061E0680143B1602078DA
:10189000000706D5B06820F46050216940EAC10015
:1018A000B06000F012F85649B268C2F30312895CC6
:1018B00001F01F01C8404A4908604A480068BDE875
:1018C000F24300F0A3BEBDE8F2834E49086800F081
:1018D0000C00042801D141487047086800F00C0052
:1018E000082801D148487047086800F00C000C280F
:1018F0001FD14A6802F003024868C0F30310401C7D
:10190000032A07D1404AB2FBF0F24868C0F3062030
:10191000424306E0314AB2FBF0F24868C0F30620C9
:1019200042434868C0F34160401C4000B2FBF0F005
:101930007047002070472A480068704780B5FFF75D
:10194000FAFF32492F4A1268C2F30222895C01F081
:101950001F01C84002BD80B5FFF7EDFF2B49294AA2
:101960001268C2F3C222895C01F01F01C84002BDA7
:101970001948016841F400210160704710B5244CFA
:101980002068C00504D500F069FE4FF480706060E7
:1019900010BD20490A6802F003020868C0F3031072
:1019A000401C032A07D1184AB2FBF0F20868C0F3C2
:1019B0000620424306E0094AB2FBF0F20868C0F391
:1019C000062042430868C0F34160401C4000B2FB5F
:1019D000F0F0704700000000001002400024F40006
:1019E000B0010020A80100209010024000700040CB
:1019F0000C809F01FFFFEEFE0020024001B4C404F2
:101A0000643F00080810024000366E01E83F0008FD
:101A10001C1002400C100240BBBBE1B1B2F5803F8C
:101A200080F07E80022A1ED98C46B1FBF2F102FBC7
:101A300011C31B0443EA1043B3FBF2FC02FB1C334B
:101A400080B240EA0343B3FBF2F002FB103240EAFB
:101A50000C4000237047022A05D98446B0FBF2F0FF
:101A600002FB10C270474AB105D100F001024908DB
:101A70005FEA3000704700220023704700F0F0BD9D
:101A80000B000200002100207047904271EB030C14
:101A9000F6D3B3F5803F2FD2F0B5B3FA83F7B1FA9E
:101AA00081F4A7F10F0E3D1B5340CEF1200602FA40
:101AB0000EF2F3415340B5F10F0746D80F3C2C44CA
:101AC0004140C4F12006A040F1414140B1FBF3F692
:101AD00003FB1611A2FB0645001BA94102D2761E8C
:101AE0008018594180EA010221FA0EF362FA0EF2DF
:101AF00000215A403046F0BD30B4B1FBF3FC03FB8B
:101B00001C11A2FB0C45001BA94103D2ACF1010C36
:101B10008018594130BC02460B4660460021704790
:101B2000B2F1807F65D3F0B5B2FA82F7B1FA81F4F1
:101B3000C7F10F063D1B22FA06F307F1110EF24121
:101B400020355A40B5F10F07B8D94140C4F12006FD
:101B5000A040F1414140B1FBF3FC03FB1C11A2FB8F
:101B60000C45001BA94103D2BCF1010C801859415E
:101B70000F2F12D30F3FC90341EA5041B1FBF3F6D7
:101B800003FB1611A2FB0645D4EBC030A94102D2DB
:101B9000761E8018594146EACC3C07B34140C7F154
:101BA0002006B840F1414140B1FBF3F603FB1611AA
:101BB000A2FB0645001BA94102D2761E801859419E
:101BC00080EA010221FA0EF3C7F1200462FA0EF254
:101BD0000CFA07F05A402CFA04F13043F0BD80EAC9
:101BE000010221FA0EF3002162FA0EF260465A4019
:101BF000F0BD8C46B1FBF2F102FB11C31B0243EABC
:101C00001063B3FBF2FC02FB1C331B024CEA002006
:101C100043EA1063B3FBF2FC02FB1C331B024CEAE9
:101C2000002043EA1063B3FBF2FC02FB1C331B02EF
:101C30004CEA002043EA1063B3FBF2FC02FB1C32C7
:101C40004CEA00200023704701480068704700BF3D
:101C5000A40100207047704770477047704780B5F7
:101C600000F000FD00F011F800F018FD00F052FD4A
:101C700000F080FD00F0B6FD00F02AFFFFF7B4F899
:101C800000F03EF800F0D4F8FCE700B593B0002275
:101C9000382105A800F00CFA00221421684600F053
:101CA00007FA002000F0BAFF012005904FF48030C1
:101CB000069002200C9003200D9006200E905520D7
:101CC0000F90022010901190129005A8FFF746FB8C
:101CD000002801D000F04DF90F2000900320019062
:101CE000002002900390049004216846FFF722FD33
:101CF000002801D000F03DF9FFF73AFE13B000BD17
:101D00001CB572B6934C2046D4F8A8108847924868
:101D100001F020F84FF4807221692068FEF7E5FA9F
:101D2000002801D000F025F98C4C206801F0B4FAAD
:101D3000002801D000F01DF9626EA16E206801F04C
:101D400076FB002801D000F014F90020A060E060CC
:101D50004FF40020206100206061A061E0612062FA
:101D6000606262B6042001F019FD01241AE00A2025
:101D70000090002346F2600201212046C0B200F02C
:101D8000C0FD00200090034642F2010201212046DE
:101D9000C0B200F0B6FD601C714904EB4402D200F1
:101DA0008854641C032CE2DB8020BDE8164000F060
:101DB000F1BD10B52DED048B6A4C206A401C2062E9
:101DC00001F000FD41EC180B94ED049B53EC192B32
:101DD0000020654901F004FD53EC182B01F0D6FDFD
:101DE00005D8D4E9060101F0EBFDE0810EE051ECED
:101DF000190B01F0CBFD07D8D4E9060181F00041B1
:101E000001F0DEFDE08101E000202062606A401CFC
:101E10006062032809DB607A012806D12079002856
:101E200003D000F001FE00206062BDEC048B10BD09
:101E300038B5484D4B4CE078002805D04EA12846D7
:101E400001F005FE0020E0702846D5F8AC10884768
:101E5000A079002804D0607A00F09CFD0020A071D9
:101E6000E079002809D0A17A012000F0A5FDA17A2F
:101E7000022000F0A1FD0020E0716079002809D067
:101E80000B21012000F098FD0B21022000F094FDB1
:101E900000206071207A002807D0012000F014FE95
:101EA000022000F011FE002020722078022809DBB9
:101EB0002B4D284600F05AFD05F1180000F056FDA4
:101EC0000020207031BD38B50268106D400700D584
:101ED000FEE7224D286803689A423AD1AA6E114261
:101EE00037D0204C05F1580305F13002696E01F03E
:101EF00011FA002802D000F03CF821E0286B00F035
:101F00007F01491E617000F4F060A081B0F5C07FD0
:101F10000BD0B0F5B06F13D1C9B2114801EB41023B
:101F200000EBC200026990470AE02078401C207054
:101F3000C9B20B4801EB410200EBC2004269904775
:101F400040210A4801F061FAA070A078022800DD63
:101F5000FEE731BDF4000020940500202800002099
:101F600094000020000000200000E03F84040020D6
:101F70001FE772B6FEE7000041542B434F4E4D4120
:101F8000433D3730423846363937373639320D001F
:101F900010B400F180010A78012A01D1022013E077
:101FA00001220A7024224A600268136814686408D7
:101FB000640014600022426623F00053006803604E
:101FC000202048601046087010BC704770B5044669
:101FD00004F180052878012801D1022070BD01207C
:101FE0002870242068602068066802685208520041
:101FF00002602068826822F06042114381602046BE
:1020000000F02AF820680660202068600020287010
:1020100070BD70B5044604F180052878012801D10F
:10202000022070BD012028702420686020680668A6
:1020300002685208520002602068826822F06062E2
:1020400011438160204600F007F8206806602020D8
:1020500068600020287070BD30B400F16802416EE5
:10206000002903D101205080108016E000688168AB
:10207000490E01F007018068400F00BF0FF22803EE
:1020800007A4255CED00185C95FBF0F05080605CC7
:10209000C000595C90FBF1F0108030BC704700002C
:1020A0000101010307010000080402040801010105
:1020B00062F30F2262F31F4200B500BF1300964681
:1020C0009446103928BFA0E80C50FAD85FEA417C4A
:1020D00028BF0CC048BF40F8042BC90728BF20F810
:1020E000022B48BF00F8012B00BD00002DE9FC4782
:1020F000054600242646DFF850722868000369D59B
:10210000A046F86CC0000AD4F86C40F08050F86427
:10211000F86C00F08050009000984FF00108DFF854
:102120002C92D9F8000040F48070C9F80000FFF745
:102130008BFD8246D9F80000C00506D4FFF784FD68
:10214000A0EB0A000328F5D3032420003AD1DFF8DE
:102150000092D9F8000010F4407014D0296C884225
:1021600011D0D9F8000020F44070D9F8001041F4E3
:102170008031C9F80010D9F8001021F48031C9F875
:102180000010C9F80000C0070FD5FFF75DFD8246BB
:10219000D9F80000800708D4FFF756FDA0EB0A002D
:1021A00041F289318842F3D30324200008D1D9F8C1
:1021B000001021F44071286C0143C9F8001002E0BE
:1021C000264600E02646B8F1010F03D1F86C20F056
:1021D0008050F8642878C00705D5F96F89086868C9
:1021E00050EA8101F9672878800705D5F96F21F059
:1021F0000C01A8680143F9672878400705D5F96FF5
:1022000021F03001E8680143F9672878000705D517
:10221000F96F21F0C00128690143F9672878800629
:1022200005D5F96F21F4406168690143F9672878A1
:10223000400605D5F96F21F44051A8690143F967BB
:102240002878000605D5F96F21F44041E86901437B
:10225000F9672868C00505D5F96F21F44031286A6F
:102260000143F9672868800505D5F96F21F44021FD
:10227000686A0143F967286840050DD5F96F21F4B4
:102280004011A86A0143F967A86AB0F5801F03D11D
:10229000386840F480103860286800050DD5F96F63
:1022A00021F44001E86A0143F967E86AB0F5800F5C
:1022B00003D1386840F4801038602868C0040DD518
:1022C000F96F21F04071286B0143F967286BB0F179
:1022D000807F03D1386840F480103860286880041B
:1022E0000DD5F96F21F04061686B0143F967686BA8
:1022F000B0F1006F03D1386840F48010386028686E
:1023000040040DD5F96F21F04061A86B0143F967D6
:10231000A86BB0F1006F03D1386840F480103860CA
:10232000286800040DD5F96F21F04051E86B014396
:10233000F967E86BB0F1805F03D1386840F4803012
:1023400038603046BDE8F6870C100240007000404F
:1023500090100240F8B502460B4600242DE04FF0E5
:10236000060C05E0DFF88CC16245F8D14FF0050C92
:102370000CFA06FC4CEA070C45F821C05E498E6851
:10238000C5432E405F68FF0200D506438E60CE68CD
:102390002E405F68BF0200D50643CE604E682E40D7
:1023A0005F68BF0300D506434E600E682E405D682F
:1023B000ED0300D506430E60641C18680146E14039
:1023C00000F091800127A7403840F5D06100032537
:1023D0008D40ED435E6806F0030CBCF1010F03D0A5
:1023E00006F00306022E10D196682E40D3F80CC0DA
:1023F0000CFA01FC4CEA060696605668BE435F681C
:10240000C7F30017A7403E4356601E7906F0030647
:10241000032E05D0D6682E409F688F403E43D6607D
:102420001E7906F00306022E15D12646F60802EBA9
:1024300086073E6A4FEA840C0CF01C0C4FF00F0E1E
:102440000EFA0CFE26EA0E06D3F810E00EFA0CFC8B
:102450004CEA06063E6216682E401D7905F003051B
:1024600005FA01F10E431660596811F4403FA3D0FC
:1024700022490D6845F001050D60096801F0010170
:1024800000910099214689081D4D55F82170A6003C
:1024900006F00C064FF00F0C0CFA06FC27EA0C07AE
:1024A000B2F1904F02D14FF0000C61E7DFF854C059
:1024B000624502D14FF0010C5AE7DFF84CC062458B
:1024C00002D14FF0020C53E7DFF840C0624502D161
:1024D0004FF0030C4CE7DFF838C062457FF442AFA1
:1024E0004FF0040C44E7F1BD002A01D08161704730
:1024F00081627047001400480004014060100240EF
:10250000080001400004004800080048000C004892
:1025100000100048374A13684FF6FF010B400002D5
:1025200000F4E060184334490843106070473148B4
:102530000068C0F302207047010007D4012200F0B8
:102540001F018A402D49400941F8202070470901A8
:10255000020002D42A48815470472A4802F00F0230
:10256000104400F8041C704710B400F00700C0F1DC
:102570000703052B00D30423041D072C01D20020E0
:1025800000E0C01E012404FA03F35B1E19408140E1
:1025900004FA00F0401E1040084310BC704738B5E4
:1025A0000446641EB4F1807F0AD2174D6C600F217F
:1025B0004FF0FF30FFF7CBFF0020A8600720286016
:1025C000B4F1807F8041C043C00F32BDA2E770B537
:1025D00004460D461646FFF7AAFF32462946FFF786
:1025E000C3FF01462046BDE87040B0E7A4E7D6E748
:1025F000FFF7BEBC0CED00E00000FA0500E100E0D2
:1026000000E400E018ED00E010E000E070B50446E2
:102610000025104EB068002819D04FF47A71B1FB34
:10262000F0F00D490968B1FBF0F0FFF7E0FF00287A
:102630000BD1102C07D22A4621464FF0FF30FFF76E
:10264000C6FF746004E0012502E0012500E00125D9
:10265000284670BDA4010020B00100207047000092
:102660007047000010B500240B48016821F4806118
:102670000160016841F4807101600320FFF7A6FF4B
:102680000F20FFF7C3FF002801D0012401E001F073
:1026900051FA204610BD00000020024010B586B05F
:1026A0000022142101A8FFF703FD1848016841F03A
:1026B00020010160016801F020010091009901688A
:1026C00041F001010160016801F0010100910099F0
:1026D000016841F002010160006800F00200009012
:1026E00000980B4C00224FF480712046FFF7FCFE4F
:1026F0004FF480700190012002900020039004901C
:1027000001A92046FFF726FE06B010BD4C1002407E
:102710000004004880B51648016841F004010160DA
:10272000016801F0040100910099016841F0010184
:102730000160006800F0010000900098002211463E
:102740000B20FFF744FF0B20FFF750FF002211463C
:102750000C20FFF73CFF0C20FFF748FF002211463A
:102760000D20FFF734FF0D20BDE80240FFF73EBF0C
:102770004810024080B5184818490160A9214160FD
:102780000021816040F2E731C160002101614161B7
:10279000816100F0BBFA002803D0BDE80140FFF7DB
:1027A000E8BB01BD00680D49884200D0704780B584
:1027B0000B48016841F480210160006800F480202A
:1027C00000900098002211461A20FFF700FF1A20FF
:1027D000BDE80240FFF70ABF940500200048014011
:1027E0006010024010B586B0B14CB24820600020A5
:1027F0006060A060E0600120207400206074A0741C
:102800000A2060610120A0610E20E06102202062A8
:1028100001206062A062E06220631C2060630020EF
:10282000A063E063204600F02FFC002801D0FFF7F2
:10283000A0FB002000900190029001200390002056
:10284000049040F2FF7005906946204600F0F8FCC5
:10285000002801D0FFF78DFB06B010BD18B597B06A
:1028600004460022142101A8FFF722FC0022442183
:1028700006A8FFF71DFC20688E4988423FD14FF41F
:10288000805006904FF00070129006A8FFF72EFCC3
:10289000002801D0FFF76DFB8748C16841F0007147
:1028A000C160C16801F0007100910099016841F0B8
:1028B00001010160006800F00100009000984FF4F1
:1028C000C050019002200290012003900320049048
:1028D0000920059001A94FF09040FFF73BFD002231
:1028E00011461520FFF773FE1520FFF77FFE00222B
:1028F00011461620FFF76BFE1620FFF777FE18B083
:1029000010BD3CB4049D6D4C00F5C06060600129B1
:1029100004D0022908D004290ED01BE004F12800BD
:102920002F210170057118E004F128002B2101709E
:1029300005712D12457110E004F12800232101706A
:1029400005712946091241712946091481712D1614
:10295000C57102E0222084F8280004F128004270AA
:1029600012128270C370204636BC6BE05349027865
:1029700002F500724A6001F128028389137083898D
:102980001B0A5370C3899370B0F90E000012D07007
:10299000084657E070B50446484D05F12806002268
:1029A00008213046FFF784FB0020686034707070A7
:1029B0002846BDE8704045E080B50091002346F20E
:1029C00040020221FFF79DFF01BD491C01703C49F7
:1029D0000A784B7842EA0322428012B246F241035F
:1029E0009A4204D1CA78097942EA0122828070476A
:1029F000491C017046F24101418032490A784B7806
:102A000042EA032282808A78CB7842EA0322C2809B
:102A10000A794B7942EA03228B7942EA0342C97967
:102A200042EA01628260704710B5244C80206060E9
:102A30000022082104F12800FFF73AFB2046BDE8F8
:102A40001040FFE710B50446206800F0EAFC0028BB
:102A5000FAD004F12802211D206800F032FC002881
:102A600001D0FFF786FA20680068006DC00400D529
:102A7000FEE710BD38B5114C00F5C060606004F190
:102A800028054020287069700912A970EA70206832
:102A900000F0C7FC00280AD02A46211D206800F05B
:102AA00010FC002803D0BDE83140FFF762BA31BD09
:102AB00084040020006400404C10024028000020E4
:102AC0008100002080000020002246F24101D1E771
:102AD00010B54B4C4B4820604B4860600020A06014
:102AE0000120E060002020616061A061E06120625F
:102AF000204601F039F8002801D0FFF73AFA00210A
:102B0000204601F08BF8002801D0FFF732FA0021AF
:102B1000204601F0ADF8002803D0BDE81040FFF7D3
:102B200028BA10BD30B597B004460022142168467B
:102B3000FFF7BEFA0022442106A8FFF7B9FA206881
:102B4000304988425AD14020069000200C9006A8B7
:102B5000FFF7CCFA002801D0FFF70BFA2B4D2868BD
:102B600040F001002860286800F0010005900598F9
:102B7000286840F002002860286800F002000590F4
:102B800005984FF400400090122001900020029020
:102B900003900420049069464FF09040FFF7DAFB61
:102BA00080200090122001900020029003900420C9
:102BB000049069461648FFF7CDFBE86840F4001022
:102BC000E860E86800F4001005900598114D12487F
:102BD0002860102068600020A860E86080202861DC
:102BE00000206861A861E86128622846FEF7BCF908
:102BF000002801D0FFF7BDF9E563AC6217B030BD26
:102C00004805002000540040FBA7A0304C100240B3
:102C100000040048E804002030000240DFF8D8102B
:102C200000282BD1DFF8D4000A6802F4C062B2F5A4
:102C3000806F1ED1026822F480720260086820F45E
:102C4000C06040F400700860DFF8B4000268322011
:102C50004243DFF8B000B2FBF0F0401C00E0401E41
:102C60004A69520501D50028F9D1486940052ED49A
:102C70003AE0016821F48071016035E0B0F5007F31
:102C80002CD1DFF878000A6802F4C062B2F5806FD8
:102C90001FD1026842F480720260086820F4C060AC
:102CA00040F400700860DFF85800026832204243A8
:102CB000DFF85000B2FBF0F0401C00E0401E4A6913
:102CC000520501D50028F9D1486940050CD50320EB
:102CD0007047016841F48071016005E0086820F4E4
:102CE000C06040F4806008600020704706480168BA
:102CF00041F48041016070470070004080700040E6
:102D0000B001002040420F000870004038B50400B8
:102D100001D1012032BD04F13C056878002804D1BE
:102D2000002028702046FFF73DFD02206870211D1D
:102D3000206800F03FF901202873A870E87028711E
:102D40006871A871E87128726872A872E872687078
:102D5000002032BD90F83D10012901D001207047BC
:102D6000022180F83D100168CA6842F00102CA6081
:102D70000168DFF85400814212D0B1F1804F0FD0CA
:102D8000DFF8480081420BD0DFF84400814207D0D1
:102D9000DFF84000814203D0DFF83C0081420DD1D2
:102DA0008A68DFF838000240062A0BD0B2F5803F6F
:102DB00008D0086840F00100086003E0086840F0AF
:102DC0000100086000207047002C01400004004012
:102DD00000080040003401400040014007000100AD
:102DE00010B5044620680169890717D5C1688907AD
:102DF00014D56FF0020101610120207720688069FD
:102E000010F0030F204602D000F05AFF04E000F05B
:102E100058FF204600F056FF002020772068016907
:102E2000490717D5C168490714D56FF0040101613E
:102E3000022020772068806910F4407F204602D06D
:102E400000F03EFF04E000F03CFF204600F03AFFB7
:102E50000020207720680169090717D5C168090794
:102E600014D56FF008010161042020772068C06943
:102E700010F0030F204602D000F022FF04E000F023
:102E800020FF204600F01EFF002020772068016907
:102E9000C90617D5C168C90614D56FF010010161C4
:102EA000082020772068C06910F4407F204602D0B7
:102EB00000F006FF04E000F004FF204600F002FFEF
:102EC0000020207720680169C90708D5C168C907B3
:102ED00005D56FF0010101612046FEF7BFFE2068B5
:102EE0000169090608D5C168090605D56FF080019A
:102EF0000161204600F0E7FE20680169C90508D598
:102F0000C168090605D56FF480710161204600F0A3
:102F1000DBFE20680169490608D5C168490605D568
:102F20006FF040010161204600F0CFFE206801698A
:102F3000890608D5C168890605D56FF020010161B1
:102F4000204600F0C3FE20680169C90208D5C168A7
:102F5000C90205D56FF480110161204600F0B7FE6B
:102F600020680169890208D5C168890205D56FF416
:102F700000110161204600F0ABFE206801694902A2
:102F800008D5C168490205D56FF48001016120466A
:102F900000F09FFE2068016909020AD5C168090294
:102FA00007D56FF4000101612046BDE8104000F034
:102FB00091BE10BD10B40468DFF8B03098420ED056
:102FC000B0F1804F0BD0DFF8A820904207D0DFF897
:102FD000B420904203D0DFF89C20904203D124F02B
:102FE00070044A68144398421AD0B0F1804F17D049
:102FF000DFF87C20904213D0DFF8882090420FD079
:10300000DFF8702090420BD0DFF86C20904207D0A0
:10301000DFF86820904203D0DFF86420904203D1AB
:1030200024F44074CA68144324F080044A691443A9
:1030300004608A68C2620A68826298420FD0DFF830
:10304000342090420BD0DFF83020904207D0DFF8D8
:103050002C20904203D0DFF82820904201D109694A
:1030600001630121416110BC70470000002C014048
:103070000004004000340140004001400044014091
:10308000004801400008004070B5040001D1012053
:1030900070BD04F15C052878002804D10020687018
:1030A0002046FFF7DBFB2068816921F01001816178
:1030B000FEF7CAFD06462068816909070CD5FEF7B0
:1030C000C3FD801B0B28F6D3686840F001006860E0
:1030D00003202870012070BD816941F001018161E8
:1030E000FEF7B2FD064620688169C9070CD4FEF7D9
:1030F000ABFD801B0B28F6D3686840F001006860C8
:1031000003202870012070BD816941F002018161B6
:1031100020684949884202D16068484908602068AF
:10312000217C0129816903D121F04001816102E004
:1031300041F0400181612068617C0129816903D1EE
:1031400041F48041816102E021F480418161206885
:10315000A17C0129816903D121F48051816102E0C0
:1031600041F48051816121688A6922F44072A0682B
:1031700002438A612068816921F0A401816120688D
:10318000016921F010010161E068012805D1206882
:10319000816941F00401816119E0002817D021689C
:1031A0000228886910D040F0800088612068016999
:1031B00041F010010161E068032808D120688169AD
:1031C00041F02001816102E040F020008861A069A7
:1031D000401EE169491E090241EA4061206A401E21
:1031E00001436069401E41EA00412068C161A06856
:1031F000B0F5407F0FD1A06A401EE16A491E40EA47
:103200000120216B491E40EA0110616A491E40EA13
:1032100001402168C8602168D1F8C020E06B0243FA
:10322000C1F8C020204600F03FFA0020A065686089
:1032300001202870002070BD00640040006500403F
:1032400070B400F15C021378012B01D0022B1CD169
:103250008A6892074B684C690D69CE680968002935
:1032600009D142EAC66242EA05422243006C00EB01
:103270008300026007E02243406C00EBC30045EA94
:10328000467505604260002004E0506840F002008E
:103290005060012070BC704700F15C010A78012A7F
:1032A00009D102220A7000688269520852008261C4
:1032B000002048607047486840F0040048600120E2
:1032C000704738B5044604F15C000378022B1BD12B
:1032D0002368D3F8C450AD0205D5416841F40071AC
:1032E0004160012032BDD3F8C400C0F301452B4634
:1032F000204600F013FA012000FA05F52068C0F816
:10330000CC50A565002032BD416841F00801416004
:10331000012032BDF0B400F15C042578022D6DD19E
:1033200005689035402912D12E6816F00F0F05D18F
:10333000606840F480706060012064E02C68C4F331
:103340000125866C05EBC50406EBC40611E0AE68EA
:1033500016F00F0F05D1606840F4807060600120A6
:1033600051E0AC68C4F30125C66C05EBC50406EB5F
:10337000C406346814F080445460376803D1C7F33E
:103380008A44146002E027F060471760346804F054
:103390000054946056F8044B04F0004414613468FF
:1033A000A4B2D461346804F47024D460346804F4A2
:1033B00080145461346804F4001494613468C4F3D4
:1033C0000664146256F8044BE40F5462002402E0D1
:1033D000375D1F55641C0FF2B437D2F80CC04FEAAA
:1033E0001C4C17F80C70BC42F2D300689430402992
:1033F00001D1056000E08560002004E0606840F0D5
:10340000080060600120F0BC7047006890304029DF
:1034100003D1006800F00F007047806800F00F00D3
:1034200070470068D0F8C40000F00700704730B45F
:1034300000F15C031C78012C01D0022C66D10468D9
:10344000A36D11F0070F01D0DD071DD511F0380F66
:1034500001D09D0718D511F4E07F01D05D0713D589
:1034600011F4F05F01D01D070ED511F4604F01D0AB
:10347000DD0609D511F4403F01D09D0604D511F4B5
:103480007C0F05D05D0603D4E56D45F00105E565CB
:1034900011F0070F01D0DC071DD411F0380F01D057
:1034A0009C0718D411F4E07F01D05C0713D411F409
:1034B000F05F01D01C070ED411F4604F01D0DC0680
:1034C00009D411F4403F01D09C0604D411F47C0FC0
:1034D00006D05B0604D50368DC6D44F00204DC65AD
:1034E0000B0605D50368D3F8DC401443C3F8DC4071
:1034F000CB0505D50368D3F8E0402243C3F8E020AC
:103500000068426D11434165002004E0586840F0B6
:1035100002005860012030BC70472DE9F843814615
:10352000D9F800100C6D04F4E054486D04400D6DA2
:1035300005F00705486D05400E6D06F03806486D2C
:103540000640D1F8508008F47108486D00EA080878
:103550000F6D07F46027486D0740086D400607D5DA
:10356000486D400604D540200865484600F0B3FB8E
:10357000D9F80020106DC0050DD5506DC0050AD5D5
:1035800002F1D8000168806801404FF48070106536
:10359000484600F0A1FB002C06D0D9F800000465D5
:1035A0002146484600F099FB002D06D0D9F80000CE
:1035B000056529464846FEF786FC002E06D0D9F858
:1035C000000006653146484600F088FBD9F8000047
:1035D000016D890508D5416D890505D54FF4007148
:1035E0000165484600F07BFBD9F80020106D00060D
:1035F0000CD5506D000609D502F1D4000168806831
:10360000014080201065484600F06AFBD9F80000B0
:10361000016D890408D5416D890405D54FF4005129
:103620000165484600F05DFBD9F80000016D090412
:1036300008D5416D090405D54FF4004101654846A0
:1036400000F050FBD9F80000016D49040BD5416D25
:10365000490408D54FF480410165D9F8600040F075
:103660008000C9F86000002F06D0D9F80000076577
:103670003946484600F037FBB8F1000F09D0D9F8B9
:103680000000C0F85080D9F8600048EA0008C9F886
:103690006080D9F86000002804D04846BDE8F243B5
:1036A00000F022BBBDE8F18310B415490164026843
:1036B000D2F8803023F4F813446B43EA0443C2F891
:1036C0008030104A42640268D2F8803023F0706380
:1036D000846B43EA0463C2F880300B4A82640B4A6D
:1036E000C2640B4A02650B4A426502E00020086092
:1036F000091D09488142F9D310BC70470000000041
:1037000000A4004070A40040B0A4004088A5004080
:1037100060A6004078A6004050A7004070B40D6934
:103720008C6825430E684C68002C02D145EA86451A
:1037300002E0354345F080450C6ACE6946EA0466EE
:103740008C6926434C692643CC682643406D03EBC5
:10375000C30400EBC40005604660083000230DE0A0
:10376000D418E578A678360446EA0566657846EA10
:1037700005262478264340F8046B1B1D03A4CD685E
:103780002D0C645DA342EBD370BC704700010203B3
:1037900004050607080C10141820304038B50446FC
:1037A000FEF752FA054614F1010F02D00448806872
:1037B0000419FEF749FA401BA042FAD331BD00BFFD
:1037C000A401002050B1B0FA80F18840C91CC1F5B5
:1037D0008461090501EBD02140057047014670471F
:1037E00030B540F2FF7C1CEA11541DBF1CEA135592
:1037F000644565453FE0641981EA030C6FF35F534C
:103800000CF0004C43F48013C90241F0004141EA3E
:10381000505EC5021100A5FB020200284FF0000017
:10382000EEFB01204FF00001E3FB052118BF42F041
:103830000102401800214941E3FB0E01A4F5806418
:103840000D0302D292184041494154F1010470DD48
:10385000450872F1004250F1000051EB0451A1F50E
:10386000801102D441EA0C0130BD40F2FF7E4CEAE7
:103870000E51002030BD0CEA1355644518BF654554
:1038800081EA030C0CF0004C41D050EA410E1CBF01
:1038900052EA430E02E06146002030BD24422C442F
:1038A0001BD15FEA050EF6D0090302BF01460020D6
:1038B000AEF1140EB1FA81F5AEEB050401FA05FE86
:1038C0000C35C5F1200100FA05F5C8404EEA000E9E
:1038D0006FF35F5343F480139CE733F00043B3FA74
:1038E00083F504BFB2FA82FE75440B3D641BB5F14B
:1038F000200E2FBF02FA0EF3AB40C5F1200E22FAC4
:103900000EFE38BF43EA0E03AA40641C7CE750EA6F
:10391000410E14BF52EA430E6FF000014FF4001540
:1039200015EB430F8EBF194615EB410F9DE7B4D839
:1039300030BDD4F10104B4F120050FDAC4F1200543
:10394000520828BF42F0010210FA05FE01FA05F5FF
:103950007244E2BFE0402843E1400FE0352C9ADC9E
:10396000C5F1200452EA400220FA05F218BF42F0E5
:10397000010231FA05F0A1400A43002172F1004230
:1039800050F1000051EB0C0130BD000041EA030C86
:1039900050EA4C0C52EA0C0C4FF4001C09D307D02F
:1039A0001CEB410F9CBF1CEB430F994208BF904298
:1039B00070471CEB410FFBD88B4208BF8242704717
:1039C000C1F30A5340F21E42D31A0CDDCA0283F33C
:1039D000070342EA505242F00042DA4002EBE17241
:1039E00082EAE17070476FEAE17203F2E13008B1F8
:1039F00082F00040704700000A4603681968C969F0
:103A00004906FBD5C1681846FCF71BBC01464FF0C0
:103A1000FF304A6812685368C3F580734B618A6946
:103A2000934207D0086913461BB2C05C521C02F0D7
:103A3000FF028A6170470146486800684068C0F527
:103A4000807048618969401A00F0FF00704738B5FE
:103A500004460D46E06800F049F9284600F052F9A6
:103A6000014689B22046BDE83440C5E705490160FA
:103A70000549416005498160054901610549C16009
:103A80007047000074030020B402002014030020DB
:103A9000B40100200404002038B5044601E0401CB5
:103AA000E0832046FFF7C7FF002811D02046FFF72C
:103AB000ADFF04F12201E28B8854E08B014604F152
:103AC0002202525C0D2A01D04029E8DB0120207738
:103AD000207F00282DD000202084616E04F1220078
:103AE00000F02CF904F16801228C41F822000AE070
:103AF0006D1C2584616E002000F020F904F168013E
:103B0000ADB241F82500258C04F16800294650F833
:103B100021000028ECD1204600F036F90020E08397
:103B200020770246402104F12200BDE8384000F031
:103B30002DB931BD82B00B48816841F0010181602F
:103B4000816801F0010100910099016841F0805104
:103B50000160006800F080500090009802B0FFF70C
:103B6000C5B800BF5810024038B5040001D101208B
:103B700032BD04F140056878002804D10020287087
:103B80002046FEF7CFFF24206870206801684908AE
:103B900049000160606820F0706021680861206859
:103BA000816821F400418160A0682168E268012AEF
:103BB00003D140F40040886002E040F40440886093
:103BC000E068022803D14FF4006021684860206853
:103BD000416841F0007141F4004141602068C168D2
:103BE00021F40041C160216960690143A06941EA93
:103BF00000212068C160E169206A014320680160FA
:103C00002068016841F00101016000206860202007
:103C1000687000202063A87032BD000010B400F16D
:103C200040025378202B20D11378012B01D10220A0
:103C30001CE0012313702423537003681C6864087C
:103C400064001C6003681C6824F480541C600368D2
:103C50001C68214319600068016841F0010101609E
:103C6000202050700020107000E0022010BC70472F
:103C700010B400F140025378202B1ED11378012B91
:103C800001D102201AE0012313702423537003682A
:103C90001C68640864001C6003681C6824F4706479
:103CA00044EA01241C600068016841F001010160E0
:103CB000202050700020107000E0022010BC7047DF
:103CC000704770477047704770477047704770473C
:103CD000704770477047704770477047704770472C
:103CE0007047704770477047704700005FEA000CEC
:103CF00011F8012B00F8012B12B111F8012BF9E793
:103D00006046704700F10103810704D010F8011BE1
:103D1000820781B1FAD10268A2F10131914311F019
:103D2000803104BF50F8042FF6E709BAB1FA81F1E7
:103D300000EBD100401CC01A7047000038B50400E9
:103D40000D460BD02946204600F053F80444207855
:103D500048B90C4800210160002032BD09490C68B7
:103D6000002CEFD132BD2946204600F053F821182F
:103D7000087810B1002201F8012B024801602046AA
:103D800032BD00BFE00500207047000062F30F2243
:103D900062F31F42401810F0030308D0C91A1FD362
:103DA000DB0748BF00F8012D28BF20F8022D1300C3
:103DB00030B414461546103928BF20E93C00FAD823
:103DC000490728BF20E90C0048BF40F8042D8900AE
:103DD00028BF20F8022D48BF00F8012D30BC7047E5
:103DE000C91818BF00F8012DCB0728BF00F8012D16
:103DF000704770B4044600E0641C23783BB10D4664
:103E00002A7822B115F8016BB342F9D1F4E7201AF0
:103E100070BC704770B4044600E0641C23783BB16A
:103E20000D462A78002AF8D015F8016BB342F8D174
:103E3000201A70BC7047000080B5FDF79FFDFEE7BB
:103E4000FEE7FEE7FEE7FEE770477047704780B584
:103E5000FEF7CEFBBDE8014000F022B80A48FDF7AE
:103E60009DB90A48FDF79AB90948FDF797B909487D
:103E7000FFF753BB0748FFF750BB0748FEF7B0BF3B
:103E80000648FCF75FBA0000B402002014030020CB
:103E9000E80400208404002094050020740300201E
:103EA00002490A68886882180A607047A4010020E5
:103EB00030B4002512E050F8042BD30744BF4A4425
:103EC000521E091F042942F8045BFAD213468C07DC
:103ED00044BF15809B1CC90748BF1D7050F8041BC8
:103EE0000029E8D130BC704710B507497944183132
:103EF000064C7C44163404E00A68081D11448847C7
:103F00000146A142F8D110BD2C000000480000007D
:103F10004EF68851CEF20001086840F47000086047
:103F2000BFF34F8FBFF36F8F4FF00070E1EE100AB9
:103F3000704700007DFFFFFF30040000B401002047
:103F400000000000DFD3FFFFA8010000E400000034
:103F5000000000200248016841F4700101607047D0
:103F600088ED00E0000000000000000001020304F2
:103F70000607080900F00DF8002801D0FFF7B4FF8C
:103F8000AFF300800020AFF30080FDF768FE00F083
:103F900002F80120704700F001B8000007463846DB
:103FA00000F002F8FBE7000080B5AFF30080024AA2
:103FB00011001820ABBEFBE72600020005480146B1
:103FC00003B4684680F30988AFF30080FFF7A0FFD1
:103FD000FFF7D0FFA5EDF5FE0148804701480047F7
:103FE000553F0008BD3F0008000000000102030427
:103FF0002C0D0000FFF7FEBFFFF7FEBFFFF7FEBF6F
:10400000FFF7FEBFFFF7FEBFFFF7FEBFFFF7FEBFE4
:10401000FFF7FEBFFFF7FEBFFFF7FEBFFFF7FEBFD4
:10402000FFF7FEBFFFF7FEBFFFF7FEBFFFF7FEBFC4
:10403000FFF7FEBFFFF7FEBFFFF7FEBFFFF7FEBFB4
:10404000FFF7FEBFFFF7FEBFFFF7FEBFFFF7FEBFA4
:10405000FFF7FEBFFFF7FEBFFFF7FEBFFFF7FEBF94
:10406000FFF7FEBFFFF7FEBFFFF7FEBFFFF7FEBF84
:10407000FFF7FEBFFFF7FEBFFFF7FEBFFFF7FEBF74
:10408000FFF7FEBFFFF7FEBFFFF7FEBFFFF7FEBF64
:10409000FFF7FEBFFFF7FEBFFFF7FEBFFFF7FEBF54
:1040A000FFF7FEBFFFF7FEBFFFF7FEBFFFF7FEBF44
:1040B000FFF7FEBFFFF7FEBFFFF7FEBFFFF7FEBF34
:1040C000FFF7FEBFFFF7FEBFFFF7FEBFFFF7FEBF24
:1040D000FFF7FEBFFFF7FEBFFFF7FEBFFFF7FEBF14
:1040E000FFF7FEBFFFF7FEBFFFF7FEBFFFF7FEBF04
:1040F00002000001FA000080F50002409F40FA0033
:10410000015940F8000384040020A4000001FD00D0
:104110000040FD000001ED0007CB290008F1290057
:1041200008F00007CB290008F1290008F00007CBB0
:10413000290008F1290008F00007CB290008F1291F
:1041400000089C0003F03F0008C000076D3A00081B
:10415000993A0008FC000010FD000001FC00022458
:02416000F40069
:0400000508003FBDF3
:00000001FF
