:020000040800F2
:10000000A00D0020C99300084D91000855910008EB
:1000100057910008599100085B910008000000000A
:100020000000000000000000000000005D910008DA
:100030005F910008000000006191000863910008D2
:10004000E5930008E9930008ED930008F193000898
:100050007191000875910008F5930008F993000864
:10006000FD930008019400080594000877910008AA
:100070007D91000883910008899100080994000887
:100080000D94000800000000119400081594000869
:10009000199400088F910008959100089B91000821
:1000A0001D94000821940008259400082994000854
:1000B0002D9400083194000835940008A39100089D
:1000C000A9910008399400083D9400084194000863
:1000D0004594000849940008AF9100084D94000829
:1000E000D1910008519400085594000859940008D3
:1000F0005D94000861940008659400080000000009
:100100000000000069940008000000006D940008E1
:1001100071940008000000007594000879940008AC
:100120007D94000881940008859400088994000853
:100130008D94000800000000000000009194000869
:100140009594000899940008000000000000000049
:10015000000000000000000000000000000000009F
:100160000000000000000000000000009D94000856
:10017000A194000800000000000000000000000042
:1001800000000000D99100080000000000000000FD
:10019000000000000000000000000000000000005F
:1001A0000000000000000000A5940008A9940008C9
:1001B000AD940008B1940008B59400080000000058
:1001C00000000000B99400080000000000000000DA
:1001D000BD940008C194000810B586B0DFF80C4645
:1001E000DFF80C06206000206060A060E060012065
:1001F000207400206074A0740A2060610120A06156
:100200000E20E0610220206201206062A062E062B4
:1002100020631C2060630020A063E063204601F09F
:10022000BBFA002801D002F0B6FA0020009001903D
:100230000290012003900020049040F2FF7005908E
:100240006946204601F084FB002801D002F0A3FAA1
:1002500006B010BD18B597B004460022142101A8BD
:1002600002F0D2FA0022442106A802F0CDFA20685A
:10027000DFF87C15884240D14FF4805006904FF053
:100280000070129006A802F0E1FA002801D002F0F6
:1002900082FADFF86005C16841F00071C160C16891
:1002A00001F0007100910099016841F001010160C5
:1002B000006800F00100009000984FF4C0500190D9
:1002C0000220029001200390032004900920059051
:1002D00001A94FF0904002F0EDFB00220121152012
:1002E00002F033FD152002F03FFD0022012116200F
:1002F00002F02BFD162002F037FD18B010BD3CB403
:10030000049DDFF8F44400F5C060C4F8040101293D
:1003100004D0022908D004290ED01BE004F5947003
:100320002F210170057118E004F594702B210170E4
:1003300005712D12457110E004F5947023210170B0
:1003400005712946091241712946091481712D163A
:10035000C57102E0222084F8280104F594704270EF
:1003600012128270C37004F5807036BC27E118B495
:10037000DFF8841401F58272034603F500741460FB
:1003800001F59474052807D011EB831030F9260C81
:1003900020700012607009E090692070024612120D
:1003A000627002461214A2700016E07001F58070AF
:1003B00012BC04E170B50446DFF83C5405F59476B0
:1003C00000220821304602F01FFA0020C5F804017F
:1003D0003470707005F58070BDE87040EFE07CB55A
:1003E0000546DFF818440020606046F240060091A0
:1003F0000346324602212846FFF781FF17E094EDBD
:10040000010AF7EE000A30EE200A84ED010AD4ED6D
:10041000030AF8EE600AB4EE600AF1EE10FA06DBA9
:10042000DFF8DC03DFF8DC13016002F0B4F92078B8
:10043000002808D1DFF8C003294600EB811030F90D
:100440003E0CB042DBD173BD38B505460C460120E9
:10045000DFF8A8130870601C2870DFF8AC13487828
:100460008A7840EA0220688000B246F23F02801A91
:100470000AD0801E02D023381BD03BE0087949798E
:1004800040EA0120A88031BD95F8200005EB40002E
:100490000A79497942EA0122428495F82000401CF9
:1004A00085F82000C0B205283FD1002085F8200043
:1004B00031BD08794A7940EA02208A7940EA02404F
:1004C000C97940EA0160A860E96A401A02F05CFC60
:1004D000CE4ACF4B02F06AFC41EC100B85ED040BC9
:1004E000CC4A02EBC402D2E9002302F035FDC5E993
:1004F000040131BD08784F2802D10879286331BD45
:100500004B2805D10879497940EA0120286331BD9B
:1005100043280AD108794A7940EA02208A7940EAD8
:100520000240C97940EA0160286331BD38B505460B
:100530000C46601C287043F202206880B24908789B
:100540004A7840EA0220A8808878CA7840EA0220E7
:10055000E88008794A7940EA02208A7940EA024034
:10056000C97940EA0160A860E96A401A02F00CFC0F
:10057000A64AA74B02F01AFC41EC100B85ED040BC8
:10058000A44A02EBC402D2E9002302F0E5FCC5E96B
:100590000401A888C0F3C000401E8041C00F32BDD6
:1005A00010B5954C8020C4F804010022082104F500
:1005B000947002F029F904F58070BDE8104070B520
:1005C00005468E4C00202070606015E094ED010A15
:1005D000F7EE000A30EE200A84ED010AD4ED030A9A
:1005E000F8EE600AB4EE600AF1EE10FA04DB84481B
:1005F0008949016002F0CFF828680068006D800525
:10060000E4D47F4E7068A060321D0221201D02F0EC
:10061000C7FD0020606015E094ED010AF7EE000AC6
:1006200030EE200A84ED010AD4ED030AF8EE600AE8
:10063000B4EE600AF1EE10FA04DB4FF08140306056
:1006400002F0A9F8286801F074FA0028E4D0706874
:10065000A060321D0221201D02F0A2FD05F128023A
:10066000291D286801F0B5F9002803D065483060DD
:1006700002F091F828680068006DC00406D5DFF824
:10068000F80D3060BDE8704002F085B870BD18B458
:10069000DFF8C43D00F5C060C3F8040103F59470B1
:1006A00040240470417009128170C27003F580709B
:1006B00012BC84E72DE9F0410746504C00206060F1
:1006C00046F24108024641463846FFF7E0FF15E092
:1006D00094ED010AF7EE000A30EE200A84ED010ADB
:1006E000D4ED030AF8EE600AB4EE600AF1EE10FAF7
:1006F00004DB43484349016002F04DF83E48394667
:1007000010EB8115A5F13E062078002803D1B6F93B
:1007100000004045DCD13A484168A160021D022139
:10072000201D02F03DFD7088C0F3C000002821D0DC
:1007300046F23F08002241463846FFF7A8FF2078DE
:10074000002803D1B6F900004045F8D0B07F001D65
:10075000052190FBF1F101EB8101401A05EB40000E
:1007600030F81E0C48F21011884203D13846BDE81B
:10077000F04153E0BDE8F08170B505461F4C002004
:10078000606046F26406024631462846FFF77FFF66
:1007900015E094ED010AF7EE000A30EE200A84ED30
:1007A000010AD4ED030AF8EE600AB4EE600AF1EE35
:1007B00010FA04DB12481349016001F0ECFF2078C5
:1007C000002807D10C48294600EB811030F93E0C77
:1007D000B042DED10A484168A160021D0221201DFD
:1007E000BDE8704002F0DCBC0000000024090020DD
:1007F000006400404C10024000000020BC030020B8
:10080000240200200000A040580100205D8940F52E
:100810000F22493F780200200000404010B50446F6
:100820008021FFF7DCFD2046BDE8104042E70000D4
:100830002DE9F0472DED108B8EB0DFF8146C96ED9E
:10084000188BD6E90C0153EC182B02F0A7FDCDE96B
:100850000C01D6E90E2351EC180B02F0E1FCCDE9B6
:100860000A01D6E9100153EC182B02F097FDCDE9EF
:100870000801D6E9122351EC180B02F0D1FCCDE9A6
:10088000060180214FF0904002F0DEF9DFF8C41B32
:100890000870DFF8C47B01280DD10020014607F164
:1008A0001A0202E08301D152401C0428FADB0846F8
:1008B000B07000F0BFBDB078002804D102F0E0FDB8
:1008C000F0800120B070384690ED240B8DED040BC4
:1008D00097ED048B53EC182BDDE9040102F0A0FC2A
:1008E00041EC1A0B86ED14ABDFF8700B90ED100B9A
:1008F0008DED020B97ED149B53EC192BDDE90201F2
:1009000002F08EFC41EC1B0B86ED16BBF078422802
:1009100000F049824C2800F02481522840F02285C2
:1009200000200146C6E90601C6E90A01DDE9040125
:10093000DDE90C2302F0AAFD04D800200146C6E937
:1009400008018CE07078012805D0C0F08880032869
:100950005AD02DD383E053EC1A2BDFF8180CDFF8B4
:10096000181C02F023FA53EC1A2B02F01FFA04466B
:100970000D4653EC1A2BDFF8040CDFF8041C02F0D0
:1009800015FA22462B4602F04BFCDFF8F82BDFF875
:10099000F83B02F045FC53EC1A2B02F007FADFF8A3
:1009A000AC2CDFF8AC3C02F001FAC6E9080156E0D5
:1009B00053EC1A2BDFF89C0CDFF89C1C02F0F6F9C4
:1009C00053EC1A2B02F0F2F904460D4653EC1A2BA5
:1009D000DFF8880CDFF8881C02F0E8F922462B4685
:1009E00002F01EFC0022DFF87C3C02F019FC53EC04
:1009F0001A2B02F0DBF9DFF8542CDFF8543C02F03C
:100A0000D5F9C6E908012AE053EC1A2B0020DFF8DB
:100A1000581C02F0CBF953EC1A2B02F0C7F904462C
:100A20000D4653EC1A2B4FF06630DFF8401C02F0F5
:100A3000BDF922462B4602F0F3FBDFF8342CDFF839
:100A4000343C02F0EDFB53EC1A2B02F0AFF9DFF867
:100A5000FC2BDFF8FC3B02F0A9F9C6E9080151ECD8
:100A6000180BDDE9082302F011FD04D8002001462F
:100A7000C6E9040161E096ED089B9FEDA9AB3078D3
:100A8000012853EC182B2CD1DFF87C0CDFF87C1CF0
:100A900002F08CF953EC182B02F088F904460D464D
:100AA00053EC182BDFF8680CDFF8681C02F07EF9B5
:100AB00022462B4602F0B4FBDFF85C2CDFF85C3CEE
:100AC00002F0AEFB53EC182B02F070F953EC1A2B2A
:100AD00002F06CF953EC192B02F0A2FBC6E90401F9
:100AE0002BE0DFF83C0CDFF83C1C02F05FF953EC24
:100AF000182B02F05BF904460D4653EC182BDFF877
:100B0000280CDFF8281C02F051F922462B4602F08F
:100B100087FBDFF81C2CDFF81C3C02F081FB53EC58
:100B2000182B02F043F953EC1A2B02F03FF953EC67
:100B3000192B02F075FBC6E90401DFF8FC4BD6E97E
:100B40000823D4E9040102F031F9C6E90801D6E925
:100B50000423D4E9000102F029F9C6E9040100F0F8
:100B60000BBC00200146C6E90401C6E90801DDE925
:100B70000A01DDE9022302F089FC04D800200146C5
:100B8000C6E90A018CE07078012805D0C0F08880A1
:100B900003285AD02DD383E053EC1B2BDFF8D40964
:100BA000DFF8D41902F002F953EC1B2B02F0FEF827
:100BB00004460D4653EC1B2BDFF8C009DFF8C019C3
:100BC00002F0F4F822462B4602F02AFBDFF8B429A3
:100BD000DFF8B43902F024FB53EC1B2B02F0E6F8EB
:100BE000DFF8682ADFF8683A02F0E0F8C6E90A019F
:100BF00056E053EC1B2BDFF85C0ADFF85C1A02F0BE
:100C0000D5F853EC1B2B02F0D1F804460D4653ECFB
:100C10001B2BDFF8480ADFF8481A02F0C7F8224613
:100C20002B4602F0FDFA0022DFF8383A02F0F8FA1B
:100C300053EC1B2B02F0BAF8DFF8102ADFF8103A59
:100C400002F0B4F8C6E90A012AE053EC1B2B00209D
:100C5000DFF8141A02F0AAF853EC1B2B02F0A6F8E6
:100C600004460D4653EC1B2B4FF06630DFF8FC19A1
:100C700002F09CF822462B4602F0D2FADFF8F02967
:100C8000DFF8F03902F0CCFA53EC1B2B02F08EF8AF
:100C9000DFF8B829DFF8B83902F088F8C6E90A01A8
:100CA000DDE9060153EC192B02F0F0FB04D800201B
:100CB0000146C6E9060163E096ED0AAB9FED188B8D
:100CC0003078012830D1DFF8400ADFF8401A02F00E
:100CD0006DF853EC192B02F069F804460D4653ECFD
:100CE000192BDFF82C0ADFF82C1A02F05FF82246E5
:100CF0002B4602F095FADFF8202ADFF8203A02F0BE
:100D00008FFA53EC192B02F051F853EC182B02F028
:100D10004DF853EC1A2B02F083FAC6E906012FE0D6
:100D20003D7E6FD39F2D3040DFF8F409DFF8F419D2
:100D300002F03CF853EC192B02F038F804460D464B
:100D400053EC192BDFF8E009DFF8E01902F02EF878
:100D500022462B4602F064FADFF8D429DFF8D439B2
:100D600002F05EFA53EC192B02F020F853EC182B2A
:100D700002F01CF853EC1A2B02F052FAC6E90601F5
:100D8000DFF8B449D6E90A23D4E9060102F00EF8E7
:100D9000C6E90A01D6E90623D4E9020102F006F801
:100DA000C6E90601E8E27078012806D0C0F0638148
:100DB000032800F0EC8075D35DE1DFF88009D0E90D
:100DC0000023DFF87C09D0E9000101F0EFFF0446C1
:100DD0000D46DFF87009D0E90023DFF86C09D0E98F
:100DE000000101F0E3FF22462B4602F019FACDE99B
:100DF00000019FEDDDCB9FEDDEDB9FEDDFEB9FED97
:100E0000E0FB53EC1A2B51EC1E0B01F0CFFF53EC1F
:100E10001A2B01F0CBFF04460D4653EC1A2B51EC74
:100E20001D0B01F0C3FF22462B4602F0F9F953ECEB
:100E30001C2B02F0F5F9DDE9002301F0B7FF53ECBC
:100E40001A2B01F0B3FF53EC1F2B01F0AFFFC6E9E3
:100E5000080153EC1B2B51EC1E0B01F0A7FF53ECC8
:100E60001B2B01F0A3FF04460D4653EC1B2B51EC4A
:100E70001D0B01F09BFF22462B4602F0D1F953ECEB
:100E80001C2B02F0CDF9DDE9002301F08FFF53ECBC
:100E90001B2B01F08BFF53EC1F2B01F087FFC6E9E2
:100EA0000A01E8E0DFF89408D0E90023DFF89008B1
:100EB000D0E9000101F07AFF04460D46DFF884080E
:100EC000D0E90023DFF88008D0E9000101F06EFFCF
:100ED00022462B4602F0A4F9CDE900019FEDAACBF2
:100EE0009FEDABDB9FEDACEB9FEDA5FB53EC1A2B1D
:100EF00051EC1E0B01F05AFF53EC1A2B01F056FF78
:100F000004460D4653EC1A2B51EC1D0B01F04EFF1D
:100F100022462B4602F084F953EC1C2B02F080F998
:100F2000DDE9002301F042FF53EC1A2B01F03EFFF4
:100F300053EC1F2B01F03AFFC6E9080153EC1B2BC1
:100F400051EC1E0B01F032FF53EC1B2B01F02EFF76
:100F500004460D4653EC1B2B51EC1D0B01F026FFF4
:100F600022462B4602F05CF953EC1C2B02F058F998
:100F7000DDE9002301F01AFF53EC1B2B01F016FFF3
:100F800053EC1F2B01F012FFC6E90A0173E0DFF8F2
:100F9000AC07D0E90023DFF8A807D0E9000101F091
:100FA00005FF04460D46DFF89C07D0E90023DFF873
:100FB0009807D0E9000101F0F9FE22462B4602F025
:100FC0002FF9CDE900019FED6ECB9FEDE0DB9FEDAA
:100FD000E1EB9FEDE2FB53EC1A2B51EC1F0B01F000
:100FE000E5FE53EC1A2B01F0E1FE04460D4653ECEE
:100FF0001A2B51EC1E0B01F0D9FE22462B4602F0B3
:101000000FF953EC1D2B02F00BF9DDE9002301F081
:10101000CDFE53EC1A2B01F0C9FE53EC1C2B01F052
:10102000C5FEC6E9080153EC1B2B51EC1F0B01F068
:10103000BDFE53EC1B2B01F0B9FE04460D4653ECEC
:101040001B2B51EC1E0B01F0B1FE22462B4602F089
:10105000E7F853EC1D2B02F0E3F8DDE9002301F083
:10106000A5FE53EC1B2B01F0A1FE53EC1C2B01F051
:101070009DFEC6E90A013078012803D0022800F05D
:101080008F8009E153EC182BDFF8C006DFF8C0169B
:1010900001F08CFE53EC192B01F088FE41EC1A0B89
:1010A000DFF8B006D0E90023DFF8AC06D0E9000194
:1010B00001F07CFE04460D46DFF8A006D0E90023CF
:1010C000DFF88406D0E9000101F070FE22462B46CD
:1010D00002F0A6F841EC1B0B9FEDD9CB9FEDDADBBC
:1010E0009FEDE6EB53EC182B51EC1D0B01F05EFE6F
:1010F00053EC1A2B02F094F853EC1C2B02F090F8EE
:1011000053EC1B2B01F052FE53EC182B01F04EFE5A
:1011100053EC1E2B01F04AFED6E9082302F080F8BA
:10112000C6E9040153EC192B51EC1D0B01F03EFEF6
:1011300053EC1A2B02F074F853EC1C2B02F070F8ED
:1011400053EC1B2B01F032FE53EC192B01F02EFE59
:1011500053EC1E2B01F02AFED6E90A2302F060F8B8
:10116000C6E9060198E000BF091B9E5E29FB54C03A
:10117000CDCCCCCCCC1C42C023DBF97E6ABC344045
:1011800075931804564E20C054E3A59BC4C455C0A3
:101190000000000000003AC03FC6DCB5847C30404F
:1011A000DFF8B005D0E90023DFF8AC05D0E9000195
:1011B00001F0FCFD04460D46DFF8A005D0E9002350
:1011C000DFF88405D0E9000101F0F0FD22462B464E
:1011D00002F026F841EC1A0B9FEDA8BB9FEDA0CBC7
:1011E0009FEDA1DB9FEDA2EB53EC182B51EC1E0BF6
:1011F00001F0DCFD53EC182B01F0D8FD04460D4640
:1012000053EC182B51EC1D0B01F0D0FD22462B4660
:1012100002F006F853EC1C2B02F002F853EC1A2BE8
:1012200001F0C4FD53EC182B01F0C0FD53EC1B2B57
:1012300001F0BCFDD6E9082301F0F2FFC6E9040184
:1012400053EC192B51EC1E0B01F0B0FD53EC192B94
:1012500001F0ACFD04460D4653EC192B51EC1D0B6F
:1012600001F0A4FD22462B4601F0DAFF53EC1C2BC3
:1012700001F0D6FF53EC1A2B01F098FD53EC192B1B
:1012800001F094FD53EC1B2B01F090FDD6E90A23ED
:1012900001F0C6FFC6E90601DDE90401DDE90C2322
:1012A00002F0F4F804D800200146C6E9080109E07C
:1012B000D6E90823DFF88004D0E9040101F076FDC7
:1012C000C6E9080151EC180BDDE9082302F0DEF84D
:1012D00004D800200146C6E9040109E0D6E9042348
:1012E000DFF85404D0E9000101F060FDC6E9040113
:1012F000DDE90A01DDE9022302F0C8F804D8002084
:101300000146C6E90A0109E0D6E90A23DFF8280404
:10131000D0E9060101F04AFDC6E90A01DDE906014E
:1013200053EC192B02F0B2F804D800200146C6E9AC
:10133000060121E0D6E90623DFF8FC03D0E902012B
:1013400001F034FDC6E9060116E000BF9D8026C20B
:1013500086B352C0D712F241CFE637C05BD3BCE3AD
:1013600014DD2B4000200146C6E90401C6E9060150
:10137000C6E90801C6E90A01B07800282ED002F0BB
:101380007FF8F188401A3081B6F804A0B6F80890CA
:10139000D14523D24FF000081DE0484602F090F8F6
:1013A00006F1100202EBC802D2E9002301F0FEFCB4
:1013B00004460D46504602F083F802460B4620468E
:1013C000294601F0C9FD06F1100202EBC802C2E98C
:1013D000000108F10108B8F1040FDEDB002427E06A
:1013E00006F1100000EBC400D0E90001DFF8702323
:1013F00002EBC402D2E9002301F0AEFDDFF8642362
:10140000D2E9002301F0A8FD0022DFF85C3301F0EF
:10141000CDFCDFF8582302EBC402D2E9002301F02F
:10142000C5FC02F05BF807F11A01A2018852641CA6
:10143000042CD5DB0EB0BDEC108BBDE8F08700BFEF
:10144000F7065F984CAD4D40006F8104C58FE53FB6
:1014500070010020E6010020000000209000002024
:10146000098A1F63EE0A4A403CBD5296210E0D4088
:10147000A7E8482EFF611CC00000C0403D7E6FD32E
:101480009F2D30402DE9F84380214FF0904001F02E
:10149000DBFBB7490870B74C04F1C805B64EB74F2F
:1014A00001280CD1787801281CD028687060387821
:1014B000401E8041C00F38700120787012E07870B3
:1014C000D6F80480786802F024F83978002904D02E
:1014D00078608044C6F8048004E04042786080442C
:1014E000C6F80480B878002827D0D4E91401A44AAB
:1014F000A44B01F0CBFF1CD8F87800282DD09848D9
:10150000D0E902239E489F4901F050FC9E4A9F4B20
:1015100001F04CFC80468946E06E01F035FC424605
:101520004B4601F07DFE01F0D9FF30600020F870DD
:1015300013E030681E3030600FE0E16E30688142A9
:1015400007DBF878002808D0643931600020F87093
:1015500003E01E3830600120F870686A64387168F2
:10156000884200DA70603068E06570686861BDE8E4
:10157000F18300008716D9CEF70B5A40B81E85EBD1
:1015800051C066C0105839B4C85A7AC01CB501247D
:1015900051E02046C0B2FFF78DF80A2000900023EA
:1015A00046F2600201212046C0B2FEF7A8FE0020EC
:1015B000009003464FF4B05201212046C0B2FEF71E
:1015C0009EFE7348009001234FF4B0520421204640
:1015D000C0B2FEF794FE0120009000234FF4B052F9
:1015E00001462046C0B2FEF78AFE00200090034666
:1015F00042F2010201212046C0B2FEF780FE4FF404
:101600007A60009000234FF4C14204212046C0B20A
:10161000FEF775FE4AF2BC400090052343F201023A
:1016200004212046C0B2FEF76AFE00212046C0B267
:10163000FEF7D5FE641C052CABDB0A2001F06EFF23
:101640008020BDE81640FEF7B5BE00007593180473
:10165000564E20C03D0AD7A370B55440EC51B81E79
:10166000855360C000587BC00080514066065EC054
:1016700096B20C71AC7D77C030B43E4A91880B466F
:10168000C3F3C000002814D1B2F844402046C0F390
:10169000C00000280DD1B2F884502846C0F3C00025
:1016A000002806D1B2F8C4201046C0F3C0000028BC
:1016B00001D0002025E0A14209D1A94207D19142E1
:1016C00005D1AC4203D1944201D1954203D001200F
:1016D0003049087015E00846400A01D1022010E0A8
:1016E000C3F38010002801D003200AE001F00500B8
:1016F000052801D1052004E0C80701D5042000E039
:10170000062030BC704700007008556AF66651C06C
:101710007233DC80CF6F1B408D0B0742B2E18240F9
:101720002D431CEBE20E52C05C8FC2F5287C424078
:10173000F6285C8FC2918040F80100205002002002
:101740006802002040020020580200200B46257548
:10175000025A1BC04802002060020020380200200C
:10176000780200207002002000408F409802002084
:10177000E60100200000002088090020CC030020A2
:10178000A7E8482EFF21F93F6744696F305F944016
:1017900010007160DD01002070B5040001D101204E
:1017A00070BD04F15C052878002804D10020687021
:1017B0002046FEF74FFD2068816921F0100181610C
:1017C00001F05EFE06462068816909070CD501F02C
:1017D00057FE801B0B28F6D3686840F00100686054
:1017E00003202870012070BD816941F001018161F1
:1017F00001F046FE064620688169C9070CD401F055
:101800003FFE801B0B28F6D3686840F0010068603B
:1018100003202870012070BD816941F002018161BF
:1018200020684949884202D16068484908602068B8
:10183000217C0129816903D121F04001816102E00D
:1018400041F0400181612068617C0129816903D1F7
:1018500041F48041816102E021F48041816120688E
:10186000A17C0129816903D121F48051816102E0C9
:1018700041F48051816121688A6922F44072A06834
:1018800002438A612068816921F0A4018161206896
:10189000016921F010010161E068012805D120688B
:1018A000816941F00401816119E0002817D02168A5
:1018B0000228886910D040F08000886120680169A2
:1018C00041F010010161E068032808D120688169B6
:1018D00041F02001816102E040F020008861A069B0
:1018E000401EE169491E090241EA4061206A401E2A
:1018F00001436069401E41EA00412068C161A0685F
:10190000B0F5407F0FD1A06A401EE16A491E40EA4F
:101910000120216B491E40EA0110616A491E40EA1C
:1019200001402168C8602168D1F8C020E06B024303
:10193000C1F8C020204600F03FFA0020A065686092
:1019400001202870002070BD006400400065004048
:1019500070B400F15C021378012B01D0022B1CD172
:101960008A6892074B684C690D69CE68096800293E
:1019700009D142EAC66242EA05422243006C00EB0A
:101980008300026007E02243406C00EBC30045EA9D
:10199000467505604260002004E0506840F0020097
:1019A0005060012070BC704700F15C010A78012A88
:1019B00009D102220A7000688269520852008261CD
:1019C000002048607047486840F0040048600120EB
:1019D000704738B5044604F15C000378022B1BD134
:1019E0002368D3F8C450AD0205D5416841F40071B5
:1019F0004160012032BDD3F8C400C0F301452B463D
:101A0000204600F013FA012000FA05F52068C0F81E
:101A1000CC50A565002032BD416841F0080141600D
:101A2000012032BDF0B400F15C042578022D6DD1A7
:101A300005689035402912D12E6816F00F0F05D198
:101A4000606840F480706060012064E02C68C4F33A
:101A50000125866C05EBC50406EBC40611E0AE68F3
:101A600016F00F0F05D1606840F4807060600120AF
:101A700051E0AC68C4F30125C66C05EBC50406EB68
:101A8000C406346814F080445460376803D1C7F347
:101A90008A44146002E027F060471760346804F05D
:101AA0000054946056F8044B04F000441461346808
:101AB000A4B2D461346804F47024D460346804F4AB
:101AC00080145461346804F4001494613468C4F3DD
:101AD0000664146256F8044BE40F5462002402E0DA
:101AE000375D1F55641C0FF2B437D2F80CC04FEAB3
:101AF0001C4C17F80C70BC42F2D30068943040299B
:101B000001D1056000E08560002004E0606840F0DD
:101B1000080060600120F0BC7047006890304029E8
:101B200003D1006800F00F007047806800F00F00DC
:101B300070470068D0F8C40000F00700704730B468
:101B400000F15C031C78012C01D0022C66D10468E2
:101B5000A36D11F0070F01D0DD071DD511F0380F6F
:101B600001D09D0718D511F4E07F01D05D0713D592
:101B700011F4F05F01D01D070ED511F4604F01D0B4
:101B8000DD0609D511F4403F01D09D0604D511F4BE
:101B90007C0F05D05D0603D4E56D45F00105E565D4
:101BA00011F0070F01D0DC071DD411F0380F01D060
:101BB0009C0718D411F4E07F01D05C0713D411F412
:101BC000F05F01D01C070ED411F4604F01D0DC0689
:101BD00009D411F4403F01D09C0604D411F47C0FC9
:101BE00006D05B0604D50368DC6D44F00204DC65B6
:101BF0000B0605D50368D3F8DC401443C3F8DC407A
:101C0000CB0505D50368D3F8E0402243C3F8E020B4
:101C10000068426D11434165002004E0586840F0BF
:101C200002005860012030BC70472DE9F84381461E
:101C3000D9F800100C6D04F4E054486D04400D6DAB
:101C400005F00705486D05400E6D06F03806486D35
:101C50000640D1F8508008F47108486D00EA080881
:101C60000F6D07F46027486D0740086D400607D5E3
:101C7000486D400604D540200865484601F062FCE6
:101C8000D9F80020106DC0050DD5506DC0050AD5DE
:101C900002F1D8000168806801404FF4807010653F
:101CA000484601F050FC002C06D0D9F8000004652D
:101CB0002146484601F048FC002D06D0D9F8000026
:101CC00005652946484600F0A5FB002E06D0D9F848
:101CD000000006653146484601F037FCD9F800009F
:101CE000016D890508D5416D890505D54FF4007151
:101CF0000165484600F088FBD9F80020106D000609
:101D00000CD5506D000609D502F1D4000168806839
:101D1000014080201065484601F018FCD9F8000009
:101D2000016D890408D5416D890405D54FF4005132
:101D30000165484601F00BFCD9F80000016D09046B
:101D400008D5416D090405D54FF4004101654846A9
:101D500001F0FEFBD9F80000016D49040BD5416D7F
:101D6000490408D54FF480410165D9F8600040F07E
:101D70008000C9F86000002F06D0D9F80000076580
:101D80003946484601F0E5FBB8F1000F09D0D9F813
:101D90000000C0F85080D9F8600048EA0008C9F88F
:101DA0006080D9F86000002804D04846BDE8F243BE
:101DB00001F0D0BBBDE8F18310B41549016402689D
:101DC000D2F8803023F4F813446B43EA0443C2F89A
:101DD0008030104A42640268D2F8803023F0706389
:101DE000846B43EA0463C2F880300B4A82640B4A76
:101DF000C2640B4A02650B4A426502E0002008609B
:101E0000091D09488142F9D310BC70470000000049
:101E100000A4004070A40040B0A4004088A5004089
:101E200060A6004078A6004050A7004070B40D693D
:101E30008C6825430E684C68002C02D145EA864523
:101E400002E0354345F080450C6ACE6946EA0466F7
:101E50008C6926434C692643CC682643406D03EBCE
:101E6000C30400EBC40005604660083000230DE0A9
:101E7000D418E578A678360446EA0566657846EA19
:101E800005262478264340F8046B1B1D03A4CD6867
:101E90002D0C645DA342EBD370BC704700010203BC
:101EA00004050607080C10141820304080B501F016
:101EB00053FB00F00FF801F06BFB01F0B9FBFEF7EC
:101EC0008BF901F0EDFB01F0C5FC00F03EF800F0ED
:101ED0008CF9FCE700B593B00022382105A800F08A
:101EE00093FC00221421684600F08EFC002001F0D3
:101EF0007FFD012005904FF48030069002200C9069
:101F000003200D9006200E9055200F900220109077
:101F10001190129005A801F0E3FD002801D000F017
:101F20003AFC0F20009003200190002002900390C3
:101F300004900421684601F0BFFF002801D000F0A2
:101F40002AFC02F0D7F813B000BD10B572B6DFF866
:101F500070482046D4F8A81088474FF48072216951
:101F6000206802F0A4F9002801D000F014FCDFF88A
:101F700054482068FFF718FD002801D000F00BFC42
:101F80000022A16E2068FFF7DAFD002801D000F0E2
:101F900002FC07224FF42071DFF82C08FFF7CFFD79
:101FA000002801D000F0F7FB0020A060E0604FF4B3
:101FB0000020206100206061A061E0612062606219
:101FC00062B6FFF7E3FA00200AE001EB801189888E
:101FD000402904D0DFF8F417DFF8F427CA64401C66
:101FE000DFF8F0170428F0DB91F82000001D05222F
:101FF00090FBF2F202EB8202801A01EB4000012119
:10200000418480214FF0904000F01EFEDFF8BC17A5
:10201000887310BD38B52DED048B0446DFF8B85732
:102020000021A06E02F0ECFF85ED1A0A0021E06E9F
:1020300002F0E6FF85ED1B0A0021206F02F0E0FFB1
:1020400085ED1C0A0021606F02F0DAFFB0EE408AD5
:1020500085ED1D8A95ED1E9BA86E02F0E1FF53EC05
:10206000192B00F0A3FEC5E90201E86E02F0D8FFCB
:1020700053EC192B00F09AFEC5E90401286F02F019
:10208000CFFF53EC192B00F091FEC5E9080118EEC3
:10209000100A02F0C5FF53EC192B00F087FEC5E9CA
:1020A0000A01A06F03F080F8401E8041C043C00FBA
:1020B0002870BDEC048B31BD70B52DED028BDFF8BF
:1020C0000C47A06D401CA065606D401C6065FFF76B
:1020D000D3FA0328C0F28680606D062804D3FEF789
:1020E0005FFA002060657DE0607D04287AD1207D64
:1020F000062871D1207B00285DD0DFF8DC56DFF8A0
:10210000D466D6E90401D5E9042301F047F9C6E90C
:102110000401D6E91423D5E90A0101F081F8C6E9E2
:1021200014019FEDB78BD5E9022351EC180B01F098
:1021300077F803F03FF800EE100A03F06FF810EEA6
:10214000100A02F06DFFC4E90801D5E9022351EC41
:10215000180B01F065F803F02DF800EE100A03F0FB
:102160005DF810EE100A02F05BFFC4E90C01D5E93E
:10217000082351EC180B01F053F803F01BF800EEA4
:10218000100A03F04BF810EE100A02F049FFC4E900
:102190000A01D5E9082351EC180B01F041F803F0CE
:1021A00009F800EE100A03F039F810EE100A02F0F8
:1021B00037FFC4E90E01FEF73BFBFFF763F901258A
:1021C00004E02846C0B2FEF7D2F86D1C052DF8DBFE
:1021D00000206075207505E04FF07E50E06400201F
:1021E00060752075BDEC028B70BD2DE9F04188B0A3
:1021F000DFF8D84501F044F96064DFF8C45528469B
:10220000D5F8AC108847A06D142804D30120607065
:102210000020A06501E000206070607800285BD09D
:10222000DFF8B00500F1C40191F81CE00EF1040ED6
:1022300000F18402137F1B1D00F14406377F3F1D10
:1022400090F820C00CF1040C4FF005089EFBF8F844
:1022500008EB8808AEEB080E00EB4E0EBEF8E2E08D
:10226000CDF81CE04FF0050E93FBFEFE0EEB8E0E3C
:10227000A3EB0E0300EB4303B3F8A2300693052350
:1022800097FBF3F303EB8303FF1A00EB4703B3F869
:102290006230059305239CFBF3F303EB8303ACEB64
:1022A000030C00EB4C035B8C0493098803911188A9
:1022B00002913188019180880090E37CA27C0FF22A
:1022C0002851E86802F0F2FFE86803F00FF80146D1
:1022D00089B2284603F026F8E078002806D0A07CD2
:1022E000FEF768F80020E070012060712079002876
:1022F0000DD0012505E0E17C2846C0B2FEF76FF85D
:102300006D1C052DF7DB0020207101206071A07885
:1023100000280BD0012505E00B212846C0B2FEF7AE
:102320005EF86D1C052DF7DB0020A070E079002819
:102330000AD0012504E02846C0B2FEF71DFA6D1C44
:10234000052DF8DB0020E071207A00280CD0012553
:1023500004E02846C0B2FEF761FA6D1C052DF8DBDB
:102360000020207201206071A079002811D0012581
:102370000BE02846C0B2FEF7FFF9DFF8580400EB87
:1023800085103838016841626D1C052DF1DB002095
:10239000A071607A002808D0628BD2B2B4F94010E4
:1023A000207CFEF774F900206072A07A00280BD020
:1023B000A06C0090638BDBB2B4F94020617C207C80
:1023C000FDF79DFF0020A072607900280AD001254A
:1023D00004E02846C0B2FEF76DF96D1C052DF8DB50
:1023E00000206071E07A002801D000F0C4F801F00C
:1023F00047F8616C401AE07308B0BDE8F081000056
:1024000000000060FB21F9BFDFF8D0030178491C10
:102410000170704770B50268136D5B0701D5042326
:102420001365DFF8A0532C680068226890424BD1F6
:10243000A86E014248D0DFF8946305F1580305F116
:102440003002696E2046FFF7EDFA002805D04FF004
:102450008040F06400F09FF926E0286B00F07F01D7
:10246000491E317000F4F0603083B0F5C07F09D0B0
:10247000B0F5B06F18D1C9B2D64800EB8110426BED
:10248000904711E0707D401C7075307D08183075E4
:10249000C9B2D04800EB8110826B9047012803D06D
:1024A0000120B0708020B0744021C748FFF735FB91
:1024B000022809D305F1580305F13002696E286836
:1024C000FFF7B0FA0028F5D170BDF5E538B505463F
:1024D000BE4CA583B0F5007F15D14FF400714FF0CD
:1024E000904000F0B1FB00280DD1FFF7C5F8A075B2
:1024F000A07D022802D10120A07401E08020A074F8
:102500000120E07031BDB5F5806F33D14FF48061AB
:102510004FF0904000F098FB00282BD1E07D002880
:1025200011D10120A071E075AA4890F82010091D72
:10253000052291FBF2F202EB8202891A00EB4100C4
:102540000021418431BDFFF797F8A075A07D0328D5
:1025500002D10620E0740BE0042802D10F20E074C1
:1025600006E0052802D10020E07401E00020E074BC
:102570000120207131BD70B52DED0E8B82B0984CCD
:1025800004F18005974E0120019000950346A28931
:10259000A221304602F0AFFF002801D000F0FBF886
:1025A000304603F024F92028FAD1304603F022F90E
:1025B0000428E8D0032000F0B1FF06200190009429
:1025C0000123A289A221304603F030F8002801D06F
:1025D00000F0E1F8304603F00AF92028FAD130463D
:1025E00003F008F90428E8D0032000F097FF012049
:1025F000019000950346A289A621304602F07BFF98
:10260000002801D000F0C7F8304603F0F0F8202889
:10261000FAD1304603F0EEF80428E8D0032000F0A9
:102620007DFF06200190A01D00900123A289A62114
:10263000304602F0FBFF002801D000F0ACF8304635
:1026400003F0D5F82028FAD1304603F0D3F8042857
:10265000E7D0032000F062FF2078617840EA012093
:1026600000B200F091FB41EC180B94ED1C9B53EC75
:10267000182B51EC190B00F099FBC4E90401A07868
:10268000E17840EA012000B200F07EFB41EC1A0B39
:1026900053EC1A2B51EC190B00F088FBC4E906012E
:1026A0002079617940EA012000B200F06DFB41EC35
:1026B0001B0B53EC1B2B51EC190B00F077FBC4E9FF
:1026C0000801A079E17940EA012000B200F05CFB4A
:1026D00041EC1C0B53EC1C2B51EC190B00F066FB6E
:1026E000C4E90A01207A617A40EA012000B200F0D0
:1026F0004BFB41EC1D0B53EC1D2B51EC190B00F067
:1027000055FBC4E90C01A07AE17A40EA012000B24D
:1027100000F03AFB41EC1E0B53EC1E2B51EC190B55
:1027200000F044FBC4E90E0194ED1E9B2A4C53ECCF
:10273000182B51EC190B00F039FBC4E9020153ECE2
:102740001A2B51EC190B00F031FBC4E9040153ECD6
:102750001B2B51EC190B00F029FBC4E9060153ECCB
:102760001C2B51EC190B00F021FBC4E9080153ECC0
:102770001D2B51EC190B00F019FBC4E90A0153ECB5
:102780001E2B51EC190B00F011FBC4E90C0102B037
:10279000BDEC0E8B70BD38B50C4C012060738020F1
:1027A000A0740620E074012505E0E17C2846C0B253
:1027B000FDF715FE6D1C052DF7DB72B6FEE7000078
:1027C000340400200001002024090020D80100204A
:1027D0000000C04000000020B8020020980900203E
:1027E00038030020D80300200A25642C25642C25FA
:1027F000642C25642C25642C25642C25642C2564EC
:102800002C25642C25640D0062F30F2262F31F4215
:1028100000B500BF130096469446103928BFA0E8C3
:102820000C50FAD85FEA417C28BF0CC048BF40F882
:10283000042BC90728BF20F8022B48BF00F8012B42
:1028400000BD0268531C0360117070472DE9FC47FE
:10285000054600242646DFF850722868000369D533
:10286000A046F86CC0000AD4F86C40F08050F864C0
:10287000F86C00F08050009000984FF00108DFF8ED
:102880002C92D9F8000040F48070C9F8000000F0E4
:10289000F7FD8246D9F80000C00506D400F0F0FD2F
:1028A000A0EB0A000328F5D3032420003AD1DFF877
:1028B0000092D9F8000010F4407014D0296C8842BE
:1028C00011D0D9F8000020F44070D9F8001041F47C
:1028D0008031C9F80010D9F8001021F48031C9F80E
:1028E0000010C9F80000C0070FD500F0C9FD8246EE
:1028F000D9F80000800708D400F0C2FDA0EB0A0060
:1029000041F289318842F3D30324200008D1D9F859
:10291000001021F44071286C0143C9F8001002E056
:10292000264600E02646B8F1010F03D1F86C20F0EE
:102930008050F8642878C00705D5F96F8908686861
:1029400050EA8101F9672878800705D5F96F21F0F1
:102950000C01A8680143F9672878400705D5F96F8D
:1029600021F03001E8680143F9672878000705D5B0
:10297000F96F21F0C00128690143F96728788006C2
:1029800005D5F96F21F4406168690143F96728783A
:10299000400605D5F96F21F44051A8690143F96754
:1029A0002878000605D5F96F21F44041E869014314
:1029B000F9672868C00505D5F96F21F44031286A08
:1029C0000143F9672868800505D5F96F21F4402196
:1029D000686A0143F967286840050DD5F96F21F44D
:1029E0004011A86A0143F967A86AB0F5801F03D1B6
:1029F000386840F480103860286800050DD5F96FFC
:102A000021F44001E86A0143F967E86AB0F5800FF4
:102A100003D1386840F4801038602868C0040DD5B0
:102A2000F96F21F04071286B0143F967286BB0F111
:102A3000807F03D1386840F48010386028688004B3
:102A40000DD5F96F21F04061686B0143F967686B40
:102A5000B0F1006F03D1386840F480103860286806
:102A600040040DD5F96F21F04061A86B0143F9676F
:102A7000A86BB0F1006F03D1386840F48010386063
:102A8000286800040DD5F96F21F04051E86B01432F
:102A9000F967E86BB0F1805F03D1386840F48030AB
:102AA00038603046BDE8F6870C10024000700040E8
:102AB00090100240F8B502460B4600242DE04FF07E
:102AC000060C05E0DFF8A4C16245F8D14FF0050C13
:102AD0000CFA06FC4CEA070C45F821C064498E68E4
:102AE000C5432E405F68FF0200D506438E60CE6866
:102AF0002E405F68BF0200D50643CE604E682E4070
:102B00005F68BF0300D506434E600E682E405D68C7
:102B1000ED0300D506430E60641C18680146E140D1
:102B200000F091800127A7403840F5D061000325CF
:102B30008D40ED435E6806F0030CBCF1010F03D03D
:102B400006F00306022E10D196682E40D3F80CC072
:102B50000CFA01FC4CEA060696605668BE435F68B4
:102B6000C7F30017A7403E4356601E7906F00306E0
:102B7000032E05D0D6682E409F688F403E43D66016
:102B80001E7906F00306022E15D12646F60802EB42
:102B900086073E6A4FEA840C0CF01C0C4FF00F0EB7
:102BA0000EFA0CFE26EA0E06D3F810E00EFA0CFC24
:102BB0004CEA06063E6216682E401D7905F00305B4
:102BC00005FA01F10E431660596811F4403FA3D095
:102BD00028490D6845F001050D60096801F0010103
:102BE0000091009921468908234D55F82170A600CF
:102BF00006F00C064FF00F0C0CFA06FC27EA0C0747
:102C0000B2F1904F02D14FF0000C61E7DFF86CC0D9
:102C1000624502D14FF0010C5AE7DFF864C062450B
:102C200002D14FF0020C53E7DFF858C0624502D1E1
:102C30004FF0030C4CE7DFF850C062457FF442AF21
:102C40004FF0040C44E7F1BD006901400846401E06
:102C50008041C043C00F704701460C4A13680B42C5
:102C600002D01160FFF732BC70470000001400482A
:102C700000040140601002400800014000040048C8
:102C800000080048000C00480010004814040140EF
:102C9000374A13684FF6FF010B40000200F4E06072
:102CA0001843344908431060704731480068C0F346
:102CB00002207047010007D4012200F01F018A4062
:102CC0002D49400941F8202070470901020002D433
:102CD0002A48815470472A4802F00F02104400F835
:102CE000041C704710B400F00700C0F10703052B67
:102CF00000D30423041D072C01D2002000E0C01ED5
:102D0000012404FA03F35B1E1940814004FA00F029
:102D1000401E1040084310BC704738B50446641E7E
:102D2000B4F1807F0AD2174D6C600F214FF0FF3055
:102D3000FFF7CBFF0020A86007202860B4F1807F58
:102D40008041C043C00F32BDA2E770B504460D46B6
:102D50001646FFF7AAFF32462946FFF7C3FF014692
:102D60002046BDE87040B0E7A4E7D6E7FFF7ADBB6B
:102D70000CED00E00000FA0500E100E000E400E0F6
:102D800018ED00E010E000E010F0004160B148BF35
:102D90004042B0FA80F29040D21CC2F5846241EA0F
:102DA000025202EBD021400570472E0030B540F2B0
:102DB000FF7C1CEA11541DBF1CEA13556445654590
:102DC0003FE0641981EA030C6FF35F530CF0004C91
:102DD00043F48013C90241F0004141EA505EC5024C
:102DE0001100A5FB020200284FF00000EEFB0120BD
:102DF0004FF00001E3FB052118BF42F0010240182B
:102E000000214941E3FB0E01A4F580640D0302D2C9
:102E100092184041494154F1010470DD450872F1B6
:102E2000004250F1000051EB0451A1F5801102D491
:102E300041EA0C0130BD40F2FF7E4CEA0E51002009
:102E400030BD0CEA1355644518BF654581EA030C93
:102E50000CF0004C41D050EA410E1CBF52EA430E28
:102E600002E06146002030BD24422C441BD15FEAC1
:102E7000050EF6D0090302BF01460020AEF1140E84
:102E8000B1FA81F5AEEB050401FA05FE0C35C5F18A
:102E9000200100FA05F5C8404EEA000E6FF35F53BB
:102EA00043F480139CE733F00043B3FA83F504BF87
:102EB000B2FA82FE75440B3D641BB5F1200E2FBFA4
:102EC00002FA0EF3AB40C5F1200E22FA0EFE38BF17
:102ED00043EA0E03AA40641C7CE750EA410E14BF8B
:102EE00052EA430E6FF000014FF4001515EB430F4B
:102EF0008EBF194615EB410F9DE7B4D830BDD4F114
:102F00000104B4F120050FDAC4F12005520828BFEE
:102F100042F0010210FA05FE01FA05F57244E2BF23
:102F2000E0402843E1400FE0352C9ADCC5F1200455
:102F300052EA400220FA05F218BF42F0010231FACB
:102F400005F0A1400A43002172F1004250F1000057
:102F500051EB0C0130BD4300F0B540F2FF7581EA42
:102F6000030C0CF0004C15EA11541DBF15EA135761
:102F7000AC42AF42E5E0BC41C1F31301C3F313031C
:102F8000801A994143F4801304D2641E0018494109
:102F900080185941C90241EA5051B1FBF3F603FBD5
:102FA0001611A2FB0675D7EBC020A94102D2761EEE
:102FB00080185941C90241EA5051B1FBF3FE03FBAD
:102FC0001E11A2FB0E75D7EBC020A94103D2AEF1B2
:102FD000010E80185941890241EA9051760546EA6E
:102FE0008E2EB1FBF3F603FB1611A2FB0675D7EB91
:102FF0008020A94102D2761E80185941C90241EAB7
:1030000050514EEA060EB1FBF3F603FB1611A2FB7C
:103010000675D7EBC020A94102D2761E801859410F
:10302000C90241EA5051B1FBF3F703FB1711A2FBB0
:103030000735D3EBC020A94167F100070CBF004260
:1030400047F0010766F3D5274FEA1E31B80814F59B
:10305000806412DDBD0775F1004250EB0E5051EB5C
:10306000045111F5801F5CBF41EA0C01F0BD4CF02A
:103070007F6141F0E0410020F0BDBD076D0840EAEE
:103080000E5041F48011D4F10104B4F120060ADAA3
:10309000C4F120060200E04001FA06F3E1401843C3
:1030A000B24015430EE0342C13DCC6F1200445EA8F
:1030B00040056D0820FA06F2154321FA06F0A140FA
:1030C0000D43002175F1004250F1000051EB0C015D
:1030D000F0BD00205FEA0C01F0BDCFB992185B4152
:1030E000B3FA83F704BFB2FA82F6BF190B3FB7F108
:1030F00020062FBF02FA06F3BB40C7F1200622FAD2
:1031000006F638BF3343BA401CB1E419641E33E7F6
:103110007F4231F00041B1FA81F404BFB0FA80F689
:10312000A4190B3CB4F120062FBF00FA06F1A14010
:10313000C4F1200620FA06F638BF3143A0403C1BFC
:103140001AE7AC421ABF05EA1357AF4212E050EA41
:1031500041061CBF52EA4306BFE750EA410730462A
:1031600061461CBF41EA0551F0BD52EA430C08BF5D
:10317000C143F0BD00204FF4001616EB410F98BF7D
:1031800016EB430F08BF16EB410F24BFC14305E008
:1031900016EB430F0CBF61464CEA0551F0BD000031
:1031A0009FED1E0AB9B311F003030BD0D0ED000A56
:1031B000001DB4EE600AF1EE10FA48BFB0EE600AEE
:1031C0005B1EF3D1890826D0D0ED000AB4EE600A68
:1031D000F1EE10FA48BFB0EE600A90ED011AB4EEBD
:1031E000410AF1EE10FA48BFB0EE410AD0ED020AF2
:1031F000B4EE600AF1EE10FA48BFB0EE600A90ED4E
:10320000031A1030B4EE410AF1EE10FA48BFB0EEE6
:10321000410A491ED8D182ED000A7047FFFF7FFFA7
:1032200070B491EA030F4FF0004540F1BF806B404E
:10323000841A71EB030604D26E40001BB1411219CF
:1032400073414FF4001C1CEB410F34BF7CEB430671
:1032500083E00C0DA4EB1356362E00F37C80012E78
:1032600045EAC32341DC43EA525312BFD202920221
:103270005B08240545EAC12141EA5051D2EBC02048
:10328000994125D407D1B0FA80F610FA06F162D040
:103290000020203608E0B1FA81F6B140C6F12002E4
:1032A00020FA02F21143B0404FEAF474B4EB4654F2
:1032B00034F001064FEA74040AD8D6F50016760DEC
:1032C00004F00044F04061FA06F25040F1404840FA
:1032D000C00A40EA415021F0004128BF5FEA500592
:1032E00050F1000044EBD12135E0DB0A45EAC12171
:1032F000C90AB6F120050EDD42EA0242120CC5F100
:10330000200603FA06F6EB4042EA06056D429841B4
:1033100061F100010DE062FA06F5F240554063FAF2
:1033200006FC82EA0C02F3405A406D42904161EB88
:10333000030111F4801F05D1641E620502D06D00E7
:103340004041494121F48011430875F1004350F197
:10335000000041EB045170BC70471CEB410F15D2CB
:1033600023F0004352EA43060BD04FEA4C0CBCEB6F
:10337000410F04D80C0D661E342EB7DDEBE7801A22
:10338000994150EA410608BF0021E4E708BF1CEB61
:10339000430F28BF6FF00001DDE7000070B491EA31
:1033A000030F4FF000457FF543AF6B40841A71EB7C
:1033B000030603D2001BB141121973414FF4001CE4
:1033C0001CEB410F34BF7CEB430442E00C0DA4EB3B
:1033D0001356352E4FDC45EAC323DB0A45EAC121EB
:1033E000C912B6F120050DDD63FA05F6EB4086EA59
:1033F0000305124218BF45F00105C01851F1000144
:103400000CD213E062FA06F5F2405540F3415A40FF
:10341000B340F3405A408018594107D349085FEA46
:1034200030005FEA350528BF45F0010501F5801140
:10343000420875F1004250F1000041EB04514E008A
:1034400016F5001F70BC38BF70470020090D090534
:1034500070471CEB410F10D252EA43060BD0BCEB75
:10346000410F05D80C0DAB43661E342EB6DD02E0CD
:10347000AB438018594170BC704770BC7047000066
:1034800001480068704700BFE404002041EA030CD3
:1034900050EA4C0C52EA0C0C4FF4001C09D307D034
:1034A0001CEB410F9CBF1CEB430F994208BF90429D
:1034B00070471CEB410FFBD88B4208BF824270471C
:1034C00050B1B0FA80F18840C91CC1F5846109058A
:1034D00001EBD0214005704701467047C1F30A5304
:1034E00040F21E42D31A0CDDCA0283F3070342EAFC
:1034F000505242F00042DA4002EBE17282EAE1709F
:1035000070476FEAE17203F2E13008B182F00040E7
:103510007047002848BF40427047000038B5044655
:10352000FFF7AEFF054614F1010F02D00448806892
:103530000419FFF7A5FF401BA042FAD331BD00BF1D
:10354000E404002070477047704770477047704729
:10355000704770477047000010B500240B480168A1
:1035600021F480610160016841F4807101600320F1
:10357000FFF7EAFB204602F0DBFF002801D0012420
:1035800001E002F0FDFF204610BD000000200240D7
:1035900080B586B00022142101A8FFF735F9234831
:1035A000016841F020010160016801F020010091F3
:1035B0000099016841F001010160016801F0010119
:1035C00000910099016841F002010160006800F07B
:1035D00002000090009880200190002002900120BD
:1035E000039001A94FF09040FFF764FA4FF4C060D8
:1035F00001904FF4041002900120039001A94FF0B4
:103600009040FFF757FA002202211720FFF79DFB99
:103610001720FFF7A9FB002203212820FFF795FBC5
:103620002820FFF7A1FB07B000BD00BF4C100240EF
:1036300080B51A48016841F004010160016801F099
:10364000040100910099016841F0010101600068E6
:1036500000F0010000900098002203210B20FFF7EA
:1036600074FB0B20FFF780FB002203210C20FFF7E7
:103670006CFB0C20FFF778FB002204210D20FFF7E4
:1036800064FB0D20FFF770FB002204210E20FFF7E2
:103690005CFB0E20BDE80240FFF766BB481002400D
:1036A00010B5654C654860606548A0600020E0602A
:1036B0000120206100206061A061E0612062606201
:1036C000201D01F0BFFE002801D0FFF764F80021A3
:1036D000201D02F087FF002801D0FFF75CF80021D1
:1036E000201D02F0A9FF002803D0BDE81040FFF71D
:1036F00052B810BD78B597B0044600221421684630
:10370000FFF782F80022442106A8FFF77DF8206821
:103710004A49884240F08D804020069000200C905D
:1037200006A8FFF793F8002801D0FFF734F8454DBD
:10373000286840F001002860286800F0010005902A
:103740000598286840F002002860286800F0020010
:10375000059005984FF40040009012200190012040
:103760000290002003900420049069464FF090409E
:10377000FFF7A0F980200090122001900120029014
:10378000002003900420049069462F48FFF792F927
:10379000E86840F40010E860E86800F40010059064
:1037A00005982A4D2A4E2E60102068600020A860DF
:1037B000E8608020286100206861A861E8614FF41A
:1037C00000502862284602F05FFF002801D0FEF773
:1037D000E2FFE563AC6206F114002866112068661A
:1037E0001020A8660020E86680202867002068670F
:1037F000A867E867C5F8800005F1600002F044FFA3
:10380000002801D0FEF7C7FF05F16000A063C5F8EE
:103810008840002205211F20FFF797FA1F20FFF79D
:10382000A3FA002205212020FFF78FFA2020FFF7BE
:103830009BFA18B070BD0000D40300200054004073
:10384000641F70204C1002400004004894060020C1
:103850003000024010B5614C614820604FF4613087
:1038600060600020A060E06020610C2060610020AA
:10387000A061E06120626062A062204600F08EFCE0
:10388000002801D0FEF787FF0021204603F0F4F85E
:10389000002801D0FEF77FFF0021204603F00FF93A
:1038A000002801D0FEF777FF204603F0C7F8002874
:1038B00003D0BDE81040FEF76EBF10BD78B597B0DD
:1038C0000446002214216846FEF79EFF0022442190
:1038D00006A8FEF799FF2068414988427BD1022063
:1038E00006900020089006A8FEF7B0FF002801D03F
:1038F000FEF751FF3B48C16841F40031C160C16827
:1039000001F4003105910599016841F00101016060
:10391000006800F001000590059804200090022046
:103920000190002002900120039007200490694636
:103930004FF09040FFF7BEF8082000900220019061
:103940000120029003900720049069464FF09040B8
:10395000FFF7B0F8244D254E2E601A206860002035
:10396000A860E8608020286100206861A8612020AC
:10397000E8614FF480502862284602F085FE002856
:1039800001D0FEF708FFE567AC6206F11400286677
:103990001B2068661020A8660020E8668020286743
:1039A00000206867A867E867C5F8800005F1600037
:1039B00002F06AFE002801D0FEF7EDFE05F160007E
:1039C000A067C5F88840002204212620FFF7BDF932
:1039D0002620FFF7C9F918B070BD000014080020B8
:1039E000004400404C1002405407002008000240F0
:1039F000DFF8D81000282BD1DFF8D4000A6802F4D1
:103A0000C062B2F5806F1ED1026822F4807202603B
:103A1000086820F4C06040F400700860DFF8B4006B
:103A2000026832204243DFF8B000B2FBF0F0401CE5
:103A300000E0401E4A69520501D50028F9D14869C5
:103A400040052ED43AE0016821F48071016035E030
:103A5000B0F5007F2CD1DFF878000A6802F4C0626C
:103A6000B2F5806F1FD1026842F48072026008686C
:103A700020F4C06040F400700860DFF8580002686D
:103A800032204243DFF85000B2FBF0F0401C00E06F
:103A9000401E4A69520501D50028F9D14869400500
:103AA0000CD503207047016841F48071016005E086
:103AB000086820F4C06040F480600860002070470F
:103AC0000648016841F48041016070470070004081
:103AD000807000401005002040420F000870004038
:103AE0002DE9F843040000F0E281DFF870562078F9
:103AF000C00712D5A86800F00C00E96801F00301C6
:103B00000C2801D1032901D0082845D12868800359
:103B100003D56068002800F0CA812078800721D58D
:103B2000A86800F00C00E96801F003010C2801D13D
:103B3000022901D0042866D12868400503D5E06831
:103B4000002800F0B481686820F0FE40216940EA56
:103B500001606860DFF81006006802F0E9FC0028E8
:103B600040F0A581DFF804662078000740F18480EA
:103B700060690028706870D040F001007060FFF745
:103B80007FFC07467068800776D4FFF779FCC01B7E
:103B90000328F7D303208DE16068B0F5803F04D19E
:103BA000286840F48030286012E0B0F5A02F286823
:103BB00007D140F480202860286840F480302860D5
:103BC00006E020F480302860286820F480202860F7
:103BD000606800280BD0FFF753FC06462868800376
:103BE0009BD4FFF74DFC801B6528F7D3D2E7FFF786
:103BF00047FC0646286880038FD5FFF741FC801BF1
:103C00006528F7D3C6E7E0680028286816D040F496
:103C100080702860FFF734FC06462868400505D40C
:103C2000FFF72EFC801B0328F7D3B3E7686820F06A
:103C3000FE40216940EA0160686093E720F48070EB
:103C40002860FFF71DFC0646286840058AD5FFF767
:103C500017FC801B0328F7D39CE7400840007060E6
:103C6000FFF70EFC07467068800705D5FFF708FCD4
:103C7000C01B0328F7D38DE72078400768D50027BD
:103C8000A86DC00009D4A86D40F08050A865A86D4B
:103C900000F08050009000980127DFF8D484D8F815
:103CA0000000C00513D4D8F8000040F48070C8F8B4
:103CB0000000FFF7E5FB8146D8F80000C00506D4F8
:103CC000FFF7DEFBA0EB09000328F5D362E7A0684D
:103CD000012804D1306840F00100306011E005286F
:103CE000306807D140F004003060306840F00100D7
:103CF000306006E0400840003060306820F004008A
:103D00003060A06800280ED0FFF7BAFB804630680C
:103D1000800717D4FFF7B4FBA0EB080041F289310C
:103D20008842F4D336E7FFF7ABFB80463068800764
:103D300008D5FFF7A5FBA0EB080041F289318842C6
:103D4000F4D327E7012F03D1A86D20F08050A86598
:103D50002078800621D5A0690028B0680ED040F0F8
:103D60000100B060FFF78CFB0746B068800714D4F1
:103D7000FFF786FBC01B0328F7D30BE74008400082
:103D8000B060FFF77DFB0746B068800705D5FFF7F9
:103D900077FBC01B0328F7D3FCE6E069002800F09E
:103DA0008880A96801F00C010C2955D002282868E8
:103DB00020F0807028603AD1FFF762FB0646286841
:103DC000800105D5FFF75CFB801B0328F7D3E1E6F4
:103DD000E868DFF8A0130840216A0843616A491EB9
:103DE00040EA0110A16A40EA0120216B4908491EFE
:103DF00040EA4150616B4908491E40EA4160E16A6E
:103E000040EAC160E860286840F080702860E86897
:103E100040F08070E860FFF733FB044628688001BB
:103E200047D4FFF72DFB001B0328F7D3B2E6E86861
:103E300080088000E860E968DFF83C030140E96041
:103E4000FFF71EFB04462868800132D5FFF718FBF8
:103E5000001B0328F7D39DE6012828D0E86800F06E
:103E60000301226A914222D100F0F001626A521EDF
:103E7000B1EB021F1BD100F4FE41A26AB1EB022F8D
:103E800015D100F07841E26AB1EBC26F0FD100F4B6
:103E9000C001226B5208521EB1EB425F07D100F005
:103EA000C060616B4908491EB0EB416F01D0012031
:103EB00000E00020BDE8F2832DE9F843044688467F
:103EC0000027002C61D0DFF8B452286800F00F0002
:103ED000404509D22868000948EA0010286028688F
:103EE00000F00F00404550D1DFF870622078C00725
:103EF0004DD5606803281AD13068800145D500F09F
:103F00000AF9DFF87C12884223D3B06810F0F00F72
:103F100005D0207880071CD5A068002819D1B0688A
:103F200020F0F00040F08000B060802711E002280F
:103F3000306828D1800328D500F089F8DFF84012D6
:103F4000884206D3B06820F0F00040F08000B060F6
:103F50008027B1688908606850EA8101B160FFF785
:103F60008FFA8146B06800F00C006168B0EB810FF9
:103F70000DD0FFF785FAA0EB090041F289318842A4
:103F8000F0D3032061E04005D6D401205DE0206835
:103F9000810715D5400703D5B06840F4E060B060F4
:103FA0002078000705D5B06820F4605040F4E06048
:103FB000B060B16821F0F001A0680143B16005E094
:103FC000802F03D1B06820F0F000B060286800F0C6
:103FD0000F00804514D22868000948EA00102860C4
:103FE000FFF74EFA0746286800F00F00404507D05B
:103FF000FFF746FAC01B41F289318842F3D3C0E78C
:104000002078400705D5B16821F4E061E0680143FC
:10401000B1602078000706D5B06820F460502169AF
:1040200040EAC100B06000F012F85649B268C2F32D
:104030000312895C01F01F01C8404A4908604A48E0
:104040000068BDE8F24302F073BABDE8F2834E495E
:10405000086800F00C00042801D141487047086846
:1040600000F00C00082801D148487047086800F0AB
:104070000C000C281FD14A6802F003024868C0F304
:104080000310401C032A07D1404AB2FBF0F24868F3
:10409000C0F30620424306E0314AB2FBF0F2486822
:1040A000C0F3062042434868C0F34160401C400012
:1040B000B2FBF0F07047002070472A480068704754
:1040C00080B5FFF7FAFF32492F4A1268C2F3022285
:1040D000895C01F01F01C84002BD80B5FFF7EDFF0C
:1040E0002B49294A1268C2F3C222895C01F01F01E0
:1040F000C84002BD1948016841F4002101607047C1
:1041000010B5244C2068C00504D502F027FD4FF4FB
:104110008070606010BD20490A6802F003020868E0
:10412000C0F30310401C032A07D1184AB2FBF0F277
:104130000868C0F30620424306E0094AB2FBF0F2E9
:104140000868C0F3062042430868C0F34160401C81
:104150004000B2FBF0F07047000000000010024089
:104160000024F40010050020E80400209010024014
:10417000007000400C809F01FFFFEEFE0020024017
:1041800001B4C404689300080810024000366E01B0
:10419000D89300081C1002400C10024038B50400EF
:1041A00015D004F180056868002804D1002028702B
:1041B0002046FFF783FB24206860206801684908D7
:1041C00049000160204600F01BFA012801D10120BE
:1041D00032BDA06A002802D0204600F06BFB2068A8
:1041E000416821F4904141602068816821F02A01F2
:1041F00081602068016841F0010101602046BDE84E
:10420000324000F0BBBB70B50446134604F1800594
:104210006868202849D1002901D0180001D1012067
:1042200070BD2878012840D001202870216504F154
:104230005406338073800020E86021206860706A33
:1042400000281ED0DFF8AC13C162DFF8AC03716A3E
:104250000863DFF8A803716A48630020716A886305
:10426000206800F12802216D706A02F06EFA0028C1
:1042700007D01020E860002028702020686001200E
:1042800070BD402021680862002028702068083036
:1042900050E8001F41F08001206800F1080242E868
:1042A00000100028F2D1002070BD022070BD30B493
:1042B000034603F180008468202C22D1002901D01C
:1042C000140001D101201DE00478012C19D0012433
:1042D00004700020D8661868DFF81443A0420CD0A0
:1042E0004068000209D5186850E8004F44F0806427
:1042F000054645E800400028F5D1184630BC00F0DE
:10430000DABB022030BC7047F8B504462668F16974
:104310003268B36840F60F00084004F15C050DD127
:104320008F060BD5970601D4DF0007D569690029F0
:1043300000F05D812046BDE8F4400847002800F009
:104340008C80DFF8B408034204D1DFF8B0783A4239
:1043500000F083800F46FF0707D5D70505D5012755
:1043600037622E6B46F001062E638E0709D51E4676
:10437000F60706D5022627683E622E6B46F0040635
:104380002E634E0709D51E46F60706D50426276874
:104390003E622E6B46F002062E630E070AD5960685
:1043A00001D4034206D0082026683062286B40F012
:1043B00008002863080509D5500107D54FF40060AF
:1043C00026683062286B40F020002863286B0028A4
:1043D00000F00D81880608D5900601D4D80004D5D8
:1043E0006969002901D020468847286B21688968BF
:1043F000490602D410F0280F29D0204600F0D0FB47
:104400002068806840061DD52068083050E8001FED
:1044100021F04001206800F1080242E80010002865
:10442000F2D1286A00280DD0DFF8D4178163286AFA
:1044300002F007FA002800F0DA80286A816BBDE8F4
:10444000F44008472046BDE8F24002F088BB204611
:1044500002F085FB00202863F1BD2869012840F0A7
:104460009280C80640F18F80D00640F18C801020E9
:1044700030622068806840064ED5286A006840682F
:1044800080B2002800F0B3802988884280F2AF8093
:104490006880286A00680068800634D4206850E884
:1044A000001F21F48071024642E800100028F5D177
:1044B0002068083050E8001F49084900206800F1D2
:1044C000080242E800100028F2D12068083050E8C5
:1044D000001F21F04001206800F1080242E80010AE
:1044E0000028F2D12020E86200202861206850E8EE
:1044F000001F21F01001024642E800100028F5D10B
:10450000286A02F068F929886888091A89B2204661
:10451000BDE8F44002F024BB28886988411A688805
:10452000002864D0084680B2002860D0206850E897
:10453000002F22F49072034643E800200028F5D1B2
:104540002068083050E8002FDFF84C030240206854
:1045500000F1080343E800200028F1D12020E862A0
:10456000002028616861206850E8002F22F01002C6
:10457000034643E800200028F5D189B22046BDE873
:10458000F44002F0EDBAC80209D5580207D54FF43D
:10459000801030622046BDE8F24002F0E2BA080620
:1045A0000AD5100601D4180206D5A96900291ED023
:1045B0002046BDE8F4400847480606D5500604D515
:1045C0002046BDE8F24000F0DBBB080206D55000F3
:1045D00004D52046BDE8F24002F0C4BAC80106D5B1
:1045E000002A04D52046BDE8F24002F0BCBAF1BD75
:1045F00000800040294C00086F4C0008214D000845
:10460000F8B50446002521680A68DFF8FC05024079
:10461000A06802432069024360690243E0690243E3
:104620000A6021684A6822F44052E06802434A6006
:10463000A2692368DFF8CC158B4201D0206A0243BF
:104640009E68DFF8C805064032439A602268D36A44
:104650001B09606A50EA0313D3622068DFF8B025B3
:1046600090420CD1DFF8AC25126802F00302032A55
:1046700015D8DFE802F00248355E012210E0DFF8CD
:10468000982590421BD1DFF88C25126812F00C029D
:104690004DD0042A37D0082A22D00C2A49D0102223
:1046A000884240F07F80002A06D0022A43D0042AA4
:1046B00044D0082A45D047E0FFF702FD46E0DFF886
:1046C0005C2590420ED1DFF84C25126812F03002C2
:1046D0002DD0102A17D0202A02D0302A29D0DEE788
:1046E0000222DDE7DFF8382590420ED1DFF82425DD
:1046F000126812F0C0021AD0402A04D0802AEFD0EB
:10470000C02A16D0CBE70422CAE78842C7D1DFF817
:104710000425126812F4406209D0B2F5806FF2D01D
:10472000B2F5006FDCD0B2F5406F02D0B7E72A4691
:10473000B6E70822B4E7DFF8EC0407E0FFF787FCF0
:1047400004E04FF4004001E028460125002800F075
:10475000988000BF51A1626A31F81210B0FBF1F6E7
:104760003046626802EB4201884202D31103814263
:1047700001D2012585E0002747EA16671046400868
:10478000002110EB06207941002302F0EDF9A0F59D
:104790004071DFF81026914202D22168C86070E0B3
:1047A00001256EE0E069B0F5004F38D1082A15D830
:1047B000DFE802F005080B140E1414141100FFF7C3
:1047C0007FFC0DE0FFF789FC0AE0DFF8580407E002
:1047D000FFF73DFC04E04FF4004001E028460125CE
:1047E00000284ED0D4F804102CA2636A32F81320AB
:1047F000B0FBF2F00A46520802EB4002B2FBF1F0C5
:104800004FF6F071A0F110028A4206D20140C0F3C7
:10481000420001432068C16033E0012531E0082AED
:1048200015D8DFE802F005080B140E14141411005B
:10483000FFF746FC0DE0FFF750FC0AE0DFF8E40369
:1048400007E0FFF704FC04E04FF4004001E02846D5
:104850000125002815D0616810A2636A32F8132080
:10486000B0FBF2F000EB5100B0FBF1F0A0F1100151
:104870004FF6F072914203D280B22168C86000E026
:10488000012504F16800012141800180002181603F
:10489000C1602846F2BD0000FEFFFFEF01000200EC
:1048A0000400060008000A000C0010002000400070
:1048B0008000000190F82810C90706D502685368E7
:1048C00023F40033C16A0B43536090F82810890722
:1048D00006D50268536823F48033016B0B435360A1
:1048E00090F82810490706D50268536823F48023FE
:1048F000416B0B43536090F82810090706D50268F6
:10490000536823F40043816B0B43536090F82810E5
:10491000C90606D50268936823F48053C16B0B4324
:10492000936090F82810890606D50268936823F4EE
:104930000053016C0B43936090F82810490611D581
:104940000268536823F48013416C0B435360416C3D
:10495000B1F5801F06D10268536823F4C003816C4F
:104960000B43536090F82810090606D501684A6881
:1049700022F40022C06C02434A6070477CB50446B2
:1049800004F180050020E860FEF77AFD0646206805
:10499000006800070BD56FF07E4000903346002280
:1049A0004FF40011204600F01BF800280FD12068BA
:1049B000006840070DD56FF07E400090334600221E
:1049C0004FF48001204600F00BF8002801D00320AE
:1049D00076BD20206860A8600020E066287076BD63
:1049E0002DE9F04105460E4617469846069C286874
:1049F000C0693040B04201D1012000E000203946BA
:104A0000884255D114F1010FF1D0FEF739FDA0EB2A
:104A10000800844201D3002C1FD1286850E8001FF1
:104A200021F4D071024642E800100028F5D1286830
:104A3000083050E8001F49084900286800F10802C2
:104A400042E800100028F2D105F1800020214160E9
:104A500081600021017003202BE02868016849076C
:104A6000C5D5C1690905C2D54FF400610162286846
:104A700050E8001F21F4D071024642E800100028DF
:104A8000F5D12868083050E8001F49084900286817
:104A900000F1080242E800100028F2D105F1800080
:104AA000202141608160C16000210170032000E08D
:104AB0000020BDE8F08170B504461346A16504F1FD
:104AC0005C06338004F180050020E8602220A860A5
:104AD000306A00281ED00FF29D11C1620FF229200A
:104AE000316A08630FF23920316A48630020316A65
:104AF0008863A26D206800F12401306A01F025FE70
:104B0000002807D01020E860002028702020A8602E
:104B1000012070BD002028702069002809D020687D
:104B200050E8001F41F48071024642E8001000285E
:104B3000F5D12068083050E8001F41F001012068DD
:104B400000F1080242E800100028F2D12068083085
:104B500050E8001F41F04001206800F1080242E8DF
:104B600000100028F2D1002070BD016851E8002F2C
:104B700022F0C0020B4643E800210029F5D101686C
:104B8000083151E8002F22F40002016801F1080306
:104B900043E800210029F2D12021C0F88410704799
:104BA000016851E8002F22F490720B4643E800217F
:104BB0000029F5D10168083151E8002FDFF8E8112C
:104BC0000A40016801F1080343E800210029F1D1FE
:104BD000C16E012909D1016851E8002F22F01002AD
:104BE0000B4643E800210029F5D12021C0F88810A8
:104BF0000021C16601677047010000102001000418
:104C0000714D000800800040F369FFCFFFF4FF11F1
:104C10000038014088100240004400400048004035
:104C2000004C00400024F4000146886A09680968C5
:104C300089061AD40021A0F856100168083151E8FD
:104C4000002F22F08002016801F1080343E80021EF
:104C50000029F2D1016851E8002F42F040020B46D2
:104C600043E800210029F5D1704702F095B8806A29
:104C700002F093B818B4826A02F15C01006800681F
:104C8000800634D400204880106850E8003F23F4A8
:104C90008073044644E800300028F5D110680830DD
:104CA00050E8003F5B085B00106800F1080444E82E
:104CB00000300028F2D11068083050E8003F23F09F
:104CC0004003106800F1080444E800300028F2D1E5
:104CD0002020C8620869012809D1106850E8003F07
:104CE00023F01003044644E800300028F5D1086999
:104CF000012804D10988104614BC01F031BF1046C8
:104D000012BC02F04BB80000806A00F15C010A6935
:104D1000012A03D10988490801F022BF02F03FB8F7
:104D200070B5846A04F1840528686E682168896812
:104D3000090607D5212805D10020A4F856002046F1
:104D4000FFF713FF20688068400608D5222E06D1A1
:104D5000002004F1560108812046FFF721FFA868D2
:104D600040F01000A8602046BDE8704001F0F7BE9A
:104D7000806A00F1560100220A810A8001F0EFBE2C
:104D8000016851E8002F22F040020B4643E8002161
:104D90000029F5D12021C0F884100021416701F0DD
:104DA000FBBF000000FD0F00FEFFFFEF38B52DED4B
:104DB000028B040082B00D4600F0998010EE101AAC
:104DC0004A0000F0948048000016401C02D14902BD
:104DD00000F08D80002CB7EE008A3CD5644200BF05
:104DE00089A1052008E0E20744BFD1ED000A28EEC2
:104DF000208A6408091D401E002C18BF0028F2D12B
:104E0000684601F0CDFF009880EE080A01F0ECFF43
:104E100010EE101A4A0059D048000016401C01D16B
:104E2000490253D0002C51D0684601F0B9FF0098D8
:104E3000DFED6C0A20EE200A01F0D6FF10EE101A0A
:104E40004A0043D048000016401C01D149023DD021
:104E5000641EE9D13AE039DD6BA10520E20744BFC9
:104E6000D1ED000A28EE208A6410091D401E002C96
:104E700001DD0028F2D1684601F092FF009820EE93
:104E8000080A01F0B1FF10EE101A4A001ED04800C7
:104E90000016401C01D1490218D0002C16DD6846CE
:104EA00001F07EFF0098DFED500A20EE200A01F0AD
:104EB0009BFF10EE101A4A0008D048000016401C54
:104EC00001D1490202D0641E002CE8DC10EE101A59
:104ED0004A0005D048000016401C08D1490206D1FE
:104EE000AFF300801DB1286840F00100286002B0D7
:104EF000BDEC028B31BD00002DE9F14183B01D00F6
:104F00001CBF00202860039F8846164603A801F0B6
:104F1000CDFFC41020F00800012804F0010424D1C2
:104F2000009001AB03994246384602F051F810B99F
:104F30009FED2E0A15E09DED020A0128B8EEC00A89
:104F40000FDD03A9401EDFED2A0A51F8042BB0EE55
:104F5000401A00EE102AB8EEC00A401E01EE200AE8
:104F6000F3D101982946801928E0022829D101208F
:104F7000009001AB03994246384602F005F910B99A
:104F80009FED1A0A15E09DED020A0128B8EEC00A4D
:104F90000FDD03A9401EDFED170A51F8042BB0EE18
:104FA000401A00EE102AB8EEC00A401E01EE200A98
:104FB000F3D1019801F018FF29463046FFF7F6FEBD
:104FC0000AE0032808BF9FED0C0A05D004280CBF97
:104FD0009FED0A0A9FED050A0CB1B1EE400A04B03C
:104FE000BDE8F0811EB14F0AAEC59D7400000000FF
:104FF000286B6E4E0000804D0000807FFFFFFF7F1A
:105000000023002278E70000000020410000C84291
:1050100000401C4620BCBE4CCA1B0E5AAEC59D7437
:10502000C0F3C75181B1FF2906D0C110400721F05C
:10503000E04101F16051704741020CBF40F4E001D2
:105040006FF000410020704700F0004100020AD0DC
:10505000B0FA80FC00FA0CF001F16051A1EB0C51A8
:1050600001EBD021400570472DE9F84F84B00E4682
:1050700017460BB100221A600446A04601E008F171
:10508000010898F8000002F083F90028F7D198F899
:1050900000002D2816BF2B2818F8015B2B25002FA8
:1050A000019603D4012F01D0252F03DB002E55D00C
:1050B000346053E0002F0CDD102F04BF98F800007F
:1050C000302802BF98F8010040F02000782811D164
:1050D0000CE098F80000302818BF0A270AD198F889
:1050E000010040F02000782803D1102708F10208C1
:1050F00000E00827CDF80C8001E008F1010898F8DD
:1051000000003028F9D0064E7E4414364FF00009D6
:1051100006F12800CDF80880CA468DF800000BE0A3
:10512000444100009DF80010401ACA465FFA80FB17
:1051300007FB09B908F1010898F8000002F032F9FC
:1051400001463A4606F1280002F036F90028E9D176
:105150000399414504D1019800B10460002020E08A
:105160000299F05DA8EB0101081A002810D406DCB2
:10517000B9EB0B0103D3B1FBF7F0504508D0AFF307
:105180000080049808B1012101604FF0FF3903E06D
:105190002D2D08BFC9F10009019808B1C0F80080A1
:1051A000484605B0BDE8F08FFFE700230A22002142
:1051B0005AE7000001F000428B1AA3F16051B1F5EB
:1051C000801F0ADBB1F17F6F1FD242EAC102C1002A
:1051D00071F1004142EB507070470B15C3F10903A8
:1051E000212B10D2890241EA9051800201284941C5
:1051F00041F0004121FA03F0C3F12003994071F11D
:10520000004150417047100070476FF0000013EBF1
:10521000103F5CBF000E42EAC05070479FED1F1A5E
:10522000F5EE000A40EE010ABDEEE00AF5EE400A96
:1052300010EE100AF1EE10FA48BF401E00EE100A00
:10524000B8EEC00A30EEC00ADFED150A20EE200AE3
:10525000FDEEC00A10EE900A80B2B0F5007F04DBCC
:10526000DFED100A002030EE200A014600EE901A11
:10527000F8EE600A0C4970EE600A01EB8002B7EEAE
:10528000000A01EB800030EE600A92ED001AD0EDCA
:10529000011A20EE010A00EEA10A704783F9223EAE
:1052A00000000044000000C4CC8700080CB430B5F6
:1052B00083B00A4606A90291044600250194009590
:1052C00002AB01A9084878441E3002F0A1F8019A07
:1052D000157000284EBF04460198041B204603B0F9
:1052E00030BC5DF80CFB00BF5BD5FFFF00F1010394
:1052F000810704D010F8011B820781B1FAD102683E
:10530000A2F10131914311F0803104BF50F8042F14
:10531000F6E709BAB1FA81F100EBD100401CC01ADE
:10532000704700000A4603681968C9694906FBD539
:10533000C1681846FEF767BF01464FF0FF304A6864
:1053400012685368C3F580734B618A69934207D032
:10535000086913461BB2C05C521C02F0FF028A614E
:1053600070470146486800684068C0F58070486131
:105370008969401A00F0FF0070470649016006493C
:10538000416006498160064901610649C160704774
:10539000000000001408002054070020B40700207B
:1053A00094050020A408002038B5044601E0401C04
:1053B000E0832046FFF7D5FF002811D02046FFF7F5
:1053C000BBFF04F12201E28B8854E08B014604F11B
:1053D0002202525C0A2A01D04029E8DB0120207712
:1053E000207F00282DD000202084616E04F122004F
:1053F00002F0A6FF04F16801228C41F822000AE0C5
:105400006D1C2584616E002002F09AFF04F1680192
:10541000ADB241F82500258C04F16800294650F80A
:1054200021000028ECD12046FCF7F4FD0020E083A9
:1054300020770246402104F12200BDE8384002F006
:10544000A5BF31BD38B5040001D1012032BD04F142
:1054500040056878002804D1002028702046FEF717
:1054600049F92420687020680168490849000160F2
:10547000606820F07060216808612068816821F40C
:1054800000418160A0682168E268012A03D140F4EC
:105490000040886002E040F404408860E068022830
:1054A00003D14FF40060216848602068416841F0F2
:1054B000007141F4004141602068C16821F400415D
:1054C000C160216960690143A06941EA0021206847
:1054D000C160E169206A01432068016020680168B9
:1054E00041F0010101600020686020206870002008
:1054F0002063A87032BD2DE9FC4706460D46914653
:105500009A4606F140077878202840F08A800A9C65
:10551000002C04D0DDF82C804046002804D14FF444
:105520000070786001207DE030688069000478D4E4
:105530003878012875D001203870FDF7A1FF2121AE
:1055400079704021B970002179607462A6F82A80D0
:105550003549F16283497163718DB1F5807F04D360
:10556000FF2131854FF0807803E0718D31854FF058
:10557000007853464A46019019200090294630464B
:1055800000F0EDFA002803D000203870012049E037
:10559000B06B00282DD07449C1627448B16B486368
:1055A0000020B16B0863B16B8863338D306800F104
:1055B00028022146B06B01F0C8F8002825D1002050
:1055C00000904346328DD2B22946304600F032FF79
:1055D000718D308D091A7185002038701021304688
:1055E00000F03CFF3068016841F480410160002018
:1055F00018E0202078700020B870786840F08000B3
:1056000078600020387001200CE0202078700020A5
:10561000B870786840F01000786000203870012081
:1056200000E00220BDE8F6870000FFFF2DE9FC47FF
:1056300006460D4691469A4606F14007787820289E
:1056400040F08C800A9C002C04D0DDF82C80404671
:10565000002804D14FF40070786001207FE03068AA
:10566000806900047AD43878012877D00120387016
:10567000FDF706FF222179704021B9700021796081
:105680007462A6F82A80DFF8F010F1623549716380
:10569000718DB1F5807F04D3FF2131854FF0807883
:1056A00003E0718D31854FF0007853464A460190F2
:1056B000192000902946304600F08CFA002803D0CB
:1056C0000020387001204AE0F06B00282ED02849D5
:1056D000C1622648F16B48630020F16B0863F16BEF
:1056E0008863338D2246306800F12401F06B01F0AD
:1056F0002CF8002826D1DFF87C0000904346328D3C
:10570000D2B22946304600F095FE718D308D091ACF
:105710007185002038701021304600F09FFE3068FF
:10572000016841F400410160002018E020207870F9
:105730000020B870786840F08000786000203870F1
:1057400001200CE0202078700020B870786840F0CC
:105750001000786000203870012000E00220BDE8D1
:10576000F687000035590008956100085962000865
:10577000F5610008002400800000FFFF02689169C5
:105780001268436B002B00D01847704718B40268AA
:1057900091691268CB0509D5130607D5436C43F010
:1057A000010343644FF480730468E3614B0509D53A
:1057B000130607D5436C43F0080343644FF480633A
:1057C0000468E361890509D5110607D5416C41F0EC
:1057D000020141644FF400710268D161416C11F023
:1057E0000B0F02D014BC00F03DBC11BC704790F808
:1057F00041007047406C7047000000002DE9F04107
:1058000005460F469046EC6A05F1400630780128BF
:1058100001D102208CE001203070B80605D55FEA86
:10582000886002D5284600F04CFBF80636D55FEAC2
:10583000C86033D5688D00281FD17078282807D11B
:10584000B4F1007F04D13946284600F0DAFB6DE060
:10585000707829280DD1DFF8FC09844209D0102086
:105860002968C861284600F086FC284600F071FAD5
:105870005CE010202968C86158E010202968C861E0
:10588000706840F004007060002C02D0B4F1807F9A
:105890004CD17168284600F0E5FB47E078071DD53C
:1058A0005FEA48701AD5688D00280CD02868406AD5
:1058B000696A0870686A401C6862288D401E2885E5
:1058C000688D401E6885688D00282FD1DFF8840917
:1058D00084422BD0284600F03CFA27E0380707D551
:1058E0005FEA087004D53946284600F0ADF91DE09E
:1058F000B8071BD55FEA887018D5688D00280DD0D1
:10590000686A007829688862686A401C6862688DE5
:10591000401E6885288D401E288507E0B4F1807FF1
:1059200001D0002C02D1284600F013FA002030707C
:10593000BDE8F08138B5054605F14004207801281E
:1059400001D1022032BD01202070C80610D5D0063A
:105950000ED510202968C861606840F004006060BE
:105960002021284600F07AFD284600F004FC6CE077
:10597000080645D5500643D52868016821F0400146
:1059800001602968688D00282ED04968C1F309019B
:10599000688DB0F5807F04D3FF2028854FF0807399
:1059A0000AE0688D2885E86ADFF8A828904201D0CF
:1059B000EB6A01E04FF00073002000902A8DD2B214
:1059C000284600F037FD698D288D091A69852868F9
:1059D00061782229016803D141F40041016034E07B
:1059E00041F48041016030E04868800103D42846DA
:1059F00000F084F929E04021284600F033FB24E040
:105A000048061BD5500619D5688D002811D1286885
:105A10004168890119D4E96ADFF83828914204D134
:105A2000416841F4804141600FE0284600F066F98A
:105A30000BE04021284600F015FB06E0880604D55F
:105A4000900602D5284600F0C0F90020207032BD33
:105A50002DE9F843054688469146EC6A002605F193
:105A600040073878012801D1022076E00120387003
:105A70005FEA886005D55FEA896002D5284600F0B4
:105A800020FA5FEAC8605CD55FEAC96059D519F4AD
:105A9000404F52D0E86B002807D05FEA094104D597
:105AA00000684068002800D10126A86B002807D0B4
:105AB0005FEA494104D500684068002800D101260A
:105AC000012E1BD17878282807D1B4F1007F04D1AA
:105AD0004146284600F095FA3DE0787829282CD1F7
