:020000040800F2
:10000000200F0020096200085160000859600008B4
:100010005B6000085D6000085F6000080000000091
:100020000000000000000000000000006160000807
:100030006360000800000000656000086760000859
:1000400025620008296200082D620008316200085C
:1000500035620008396200083D620008416200080C
:1000600045620008496200084D620008756000089A
:100070007B6000088160000887600008516200080A
:100080005562000800000000596200085D62000827
:10009000616200088D6000089360000865620008D6
:1000A000696200086D6200089960000871620008CA
:1000B00075620008796200087D6200089F60000890
:1000C000A560000881620008856200088962000856
:1000D0008D62000891620008AB600008956200081C
:1000E000996200089D620008A1620008A5620008EC
:1000F000A9620008AD620008B162000800000000BB
:1001000000000000B562000800000000B9620008AD
:10011000BD62000800000000C1620008C56200085E
:10012000C9620008CD620008D1620008D5620008EB
:10013000D96200080000000000000000DD62000835
:10014000E1620008E5620008000000000000000015
:10015000000000000000000000000000000000009F
:10016000000000000000000000000000E96200083C
:10017000ED62000800000000000000000000000028
:1001800000000000F1620008000000000000000014
:10019000000000000000000000000000000000005F
:1001A0000000000000000000F5620008F96200088D
:1001B000FD620008016300080563000800000000FC
:1001C00000000000096300080000000000000000BB
:1001D0000D6300081163000838B5040001D1012047
:1001E00032BD04F140056878002804D10020287051
:1001F000204600F052FF24206870206801684908FA
:1002000049000160606820F0706021680861206822
:10021000816821F400418160A0682168E268012AB8
:1002200003D140F40040886002E040F4044088605C
:10023000E068022803D14FF400602168486020681C
:10024000416841F0007141F4004141602068C1689B
:1002500021F40041C160216960690143A06941EA5C
:1002600000212068C160E169206A014320680160C3
:100270002068016841F001010160002068602020D1
:10028000687000202063A87032BD2DE9F843044651
:1002900088461746994604F140067078202840F0B9
:1002A00099803078012800F095800120307000F0AE
:1002B000F1FF05460095192301224FF40041204625
:1002C00000F026FD002801D0012084E0212070707C
:1002D0001020B070002070606762A4F82A906063FC
:1002E000DFF8E003089F618DB1F5807F0AD3FF211D
:1002F000218500904FF080730A464146204600F069
:1003000055FE15E0628D228500904FF00073D2B249
:100310004146204600F04AFE0AE0FF2020850020EA
:1003200000904FF08073FF224146204600F03EFED1
:10033000608D00282A463946204633D000F016FD4D
:10034000002801D0012046E0606A007821688862B8
:10035000606A401C6062608D401E6085208D411E79
:100360002185608D0028E3D089B20029E0D1009575
:100370003B4600228021204600F0CAFC002801D024
:10038000012028E0608DB0F5807FC6D2628D228585
:10039000002000904FF00073D2B24146204600F09A
:1003A00005FEC5E700F00CFD01000DD120202268FC
:1003B000D06122685368DFF81403034053602020A3
:1003C00070700020B07030700846401E8041C043FD
:1003D000C00F00E00220BDE8F2832DE9F843064695
:1003E0000F461546994606F140046078202840F0F3
:1003F0009B802078012800F097800120207000F079
:1004000049FF8046CDF80080192301224FF40041B6
:10041000304600F07DFC002801D0012085E022203C
:1004200060701020A070002060607562A6F82A90AD
:100430007063DFF89402089D718DB1F5807F0AD357
:10044000FF21318500904FF080730A4639463046CF
:1004500000F0ACFD15E0728D328500904FF0007316
:10046000D2B23946304600F0A1FD0AE0FF203085C7
:10047000002000904FF08073FF223946304600F094
:1004800095FD708D002842462946304634D000F054
:10049000BFFC002801D0012047E03068406A716A43
:1004A0000870706A401C7062308D401E3085708DFF
:1004B000401E7085708D0028E3D0308D0028E0D17B
:1004C000CDF800802B4600228021304600F020FC31
:1004D000002801D0012028E0708DB0F5807FC5D2C2
:1004E000728D3285002000904FF00073D2B23946F1
:1004F000304600F05BFDC4E700F062FC01000DD166
:1005000020203268D06132685368DFF8C0010340B0
:100510005360202060700020A07020700846401EAC
:100520008041C043C00F00E00220BDE8F2832DE906
:10053000FE4F07460D4692469B4607F140067078EF
:10054000202840F0BB80DDF83080B8F1000F04D0E7
:10055000DDF834904846002804D14FF400707060F4
:100560000120ACE03078012800F0A8800120307034
:1005700000F090FE04460094192301224FF400413C
:10058000384600F0C5FB002801D0012097E05B460B
:100590005246212070704020B07000207060C7F873
:1005A0002480A7F82A90786301940E980090294639
:1005B000384600F065F9002803D000203070012093
:1005C0007DE0788DB0F5807F0DD3FF203885002049
:1005D00000904FF08073FF222946384600F0E6FC79
:1005E000DDF838800BE07A8D3A85002000904FF0DE
:1005F0000073D2B22946384600F0D8FCF0E7224614
:100600004146384600F0B2FB00282BD1786A0078CA
:1006100039688862786A401C7862788D401E7885D7
:10062000388D411E3985788D00282AD089B200295D
:1006300027D10094434600228021384600F068FB11
:10064000002811D1788DB0F5807F0FD3FF20388539
:10065000002000904FF08073FF222946384600F0BA
:10066000A5FC0EE001202AE0012028E07A8D3A85E1
:10067000002000904FF00073D2B22946384600F0B7
:1006800095FC788D0028BAD122464146384600F0C4
:1006900097FB01000CD120203A68D0613A6853687A
:1006A0000A4803405360202070700020B070307002
:1006B0000846401E8041C043C00F00E00220BDE854
:1006C000FE8F0000002000800024008000E800FE73
:1006D000026891691268436B002B00D0184770477D
:1006E00018B4026891691268CB0509D5130607D5BD
:1006F000436C43F0010343644FF480730468E36187
:100700004B0509D5130607D5436C43F00803436432
:100710004FF480630468E361890509D5110607D5A4
:10072000416C41F0020141644FF400710268D161F3
:10073000416C11F00B0F02D014BC00F043BA11BC95
:10074000704790F8410070472DE9F04105460F468B
:100750009046EC6A05F140063078012801D102206C
:100760008CE001203070B80605D55FEA886002D5BC
:10077000284600F056F9F80636D55FEAC86033D54A
:10078000688D00281FD17078282807D1B4F1007F28
:1007900004D13946284600F0E4F96DE07078292844
:1007A0000DD1DFF85005844209D010202968C861B6
:1007B000284600F090FA284600F0F7F85CE0102098
:1007C0002968C86158E010202968C861706840F045
:1007D00004007060002C02D0B4F1807F4CD17168AD
:1007E000284600F0EFF947E078071DD55FEA48702A
:1007F0001AD5688D00280CD02868406A696A08708C
:10080000686A401C6862288D401E2885688D401EDD
:100810006885688D00282FD1DFF8D80484422BD05A
:10082000284600F0C2F827E0380707D55FEA0870CD
:1008300004D53946284600F05EF81DE0B8071BD500
:100840005FEA887018D5688D00280DD0686A007836
:1008500029688862686A401C6862688D401E6885E5
:10086000288D401E288507E0B4F1807F01D0002C40
:1008700002D1284600F099F800203070BDE8F081E0
:100880002DE9FC41044617469846089D099EDFF86D
:10089000440700904FF080734246D2B2204600F0E9
:1008A00085FB32462946204600F060FA002801D038
:1008B00001201DE0B8F1010F0CD03846000A216874
:1008C000886232462946204600F050FA002801D0BE
:1008D00001200DE0FFB22068876200962B460022BF
:1008E0008021204600F014FA401E8041C043C00F12
:1008F000BDE8F68100002DE9F041044604F1400511
:100900002068697801F02801282948D18669360CC9
:1009100006F0010687693F0C07F0FE078268C2F304
:100920000902D0F80C8008F0FE08E068022828D1FF
:1009300007F006071046C00900F00600874212D1F2
:10094000A868401CA860A86802282CD10020A860D4
:1009500008202168C8610020287031462046BDE883
:10096000F04100F09DBC4FF40041204600F03AFBFE
:1009700000202870424631462046BDE8F04100F094
:100980008FBC4FF40041204600F02CFB0020287063
:100990003A4631462046BDE8F04100F081BC0821CE
:1009A000C16100202870BDE8F08138B50446206898
:1009B000006804F140050021A970410405D52068B4
:1009C000016821F48041016006E0000404D520683C
:1009D000016821F400410160687829280ED128209F
:1009E0006870212020630121204600F0FBFA0020DE
:1009F00028702046BDE8324000F053BC68782A28B1
:100A00000ED128206870222020630221204600F0A9
:100A1000E9FA002028702046BDE8324000F042BCD0
:100A200031BDF8B504460E4621680F6804F1400553
:100A300068782022CA61212801D0292807D148F2EC
:100A40000101204600F0CEFA212020630AE022288E
:100A500001D02A2806D148F20201204600F0C2FA4D
:100A6000222020632068416841F4004141602168F0
:100A70004A68DFF8640502404A60204600F02BF91E
:100A800078040BD52068016821F480410160A06BD7
:100A9000002810D00068406860850CE038040AD552
:100AA0002068016821F400410160E06B002802D059
:100AB000006840686085700710D526F0040620683D
:100AC000406A616A0870606A401C6062208D00287C
:100AD00004D0401E2085608D401E6085608D0028FA
:100AE00003D0686840F0040068600020A87060636C
:100AF000686800280BD06968204600F063F86878C1
:100B000028282DD131462046BDE8F44029E0794E11
:100B1000E06AB0420DD02046FFF747FFE662202092
:100B200068700020206328702046BDE8F24000F085
:100B3000BABB6878222809D1202068700020206381
:100B400028702046BDE8F24000F0ACBB2020687061
:100B50000020206328702046BDE8F24000F0A1BBD1
:100B6000F1BD38B504466348E0620020206304F11B
:100B70004005202068700020A8706063480712D5E7
:100B80002068406A616A0870606A401C6062208D5B
:100B9000002808D0401E2085608D401E6085686852
:100BA00040F00400686048F20301204600F01AFAA1
:100BB00010202168C861002028702046BDE832401E
:100BC00000F071BB38B5044604F140056878002296
:100BD000AA70484AE262002262856A68114369602D
:100BE000282803D0292801D02A2809D1032120460A
:100BF00000F0F8F928206870DFF8E00360630BE08C
:100C000048F20301204600F0EDF96878602801D031
:100C10002020687000206063216BA06B002820D02A
:100C2000112901D021291CD120680168490403D56C
:100C3000016821F480410160A06B00F0B1FC012843
:100C400033D00FF2B500A16B886300202870A06B31
:100C500000F007FC00282CD0A06B816BBDE834406D
:100C60000847E06B002820D0122901D022291CD18E
:100C700020680168090403D5016821F4004101607E
:100C8000E06B00F08DFC01280FD00FF26D00E16BDE
:100C9000886300202870E06B00F0E3FB002808D098
:100CA000E06B816BBDE8344008472046BDE8324028
:100CB00000E031BD00F130014A7C602A06D12022DB
:100CC0004A7400220A600A7400F0C8BC00220A605C
:100CD0000A7400F0C4BC01688A69920701D5002239
:100CE0008A6200688169C90703D4816941F0010102
:100CF000816170470000FFFF806A816B002901D08D
:100D000000228A63C16B002901D000228A63D1E7E7
:100D10002DE9F04105460E4617461C46DDF81880C1
:100D2000286880693040B04201D1012000E00020F5
:100D30003946884217D114F1010FF1D000F0AAFA18
:100D4000A0EB0800844201D3002CE9D105F140005A
:100D5000416841F0200141602021417000218170F3
:100D60000170012000E00020BDE8F08170B505466B
:100D70000C4616462868806980071FD432462146F3
:100D8000284600F091F8002801D0012070BD14F130
:100D9000010FEFD000F07EFA801B844201D3002CBB
:100DA000E8D105F14000416841F020014160202177
:100DB0004170002181700170012070BD002070BD64
:100DC00070B505460C4616462868806980061DD415
:100DD00032462146284600F067F8002807D100F087
:100DE00059FA801B844204D3002CEDD101E001208C
:100DF00070BD05F14000416841F0200141602021B3
:100E00004170002181700170012070BD002070BD13
:100E100070B505460C46164628688069400741D4DF
:100E200032462146284600F03FF800280BD12A68B8
:100E30009069800609D400F02DFA801B844225D3E6
:100E4000002CE9D122E0012070BD9069400702D555
:100E5000288D002826D105F140019069C00604D5EF
:100E60001020D0610420486001E00020486020206C
:100E70002A68D0612A68536857480340536020208D
:100E80004870002088700870012070BD05F1400096
:100E9000416841F020014160202141700021017032
:100EA000012070BD002070BD2DE9F04105460C46C3
:100EB00090460026286881693746C90643D5102127
:100EC000C16105F1400728688169890635D4310080
:100ED00033D114F1010FF6D000F0DCF9A0EB0800DB
:100EE000844201D3002CEED12868416801F480418E
:100EF000BA7883691B040BD5B1F5804F08D0202A3E
:100F000006D0416841F48041416000F0C3F9804659
:100F1000286880698006D6D400F0BCF9A0EB0800F0
:100F20001A28F5D3786840F0200078602020787087
:100F30000020B87038700126EAE7002E01D1202188
:100F4000C1610427012629688869C20505D547F0D3
:100F500001074FF48072CA610126410506D547F0AA
:100F600008074FF480612A68D1610126800506D503
:100F700047F002074FF400702968C861012630006D
:100F800011D02846FFF7A7FE29684A681248024098
:100F90004A6005F1400041680F43476020214170DD
:100FA0000021817001703046BDE8F08170B4039C6F
:100FB000006845680A4E46EA5456B543C1F3090134
:100FC00041EA02411943214321F000412943416094
:100FD00070BC70470020008000E800FE4907000850
:100FE000FF63FF030022CB0707D5422290F8413070
:100FF00003F02803282B00D0F2228B0709D542F0FA
:10100000440290F8413003F02803282B01D042F02D
:10101000B0020B0401D542F0B8020B46102B01D1EF
:1010200042F09002202B01D142F02002402901D150
:1010300042F040020068016821EA02020260704743
:1010400010B58D4C8D48E0608D48206100206061B6
:101050000120A0610020E06120626062A062E06285
:1010600004F10C00FFF7B8F8002801D000F081FE71
:10107000002104F10C0000F08BFE002801D000F0EC
:1010800078FE002104F10C0000F0ACFE002803D033
:10109000BDE8104000F06DBE10BDF0B597B004463D
:1010A00000221421684600F0C5FE0022442106A853
:1010B00000F0C0FE20687149884240F08D804020D9
:1010C000069000200C9006A800F0EEFE002801D04B
:1010D00000F04FFE6B4D286840F001002860286842
:1010E00000F0010005900598286840F00200286093
:1010F000286800F00200059005984FF40040009029
:1011000012200190012002900020039004200490FE
:1011100069464FF0904000F0FBFF802000901220C5
:101120000190012002900020039004200490694661
:10113000554800F0EDFFE86840F40010E860E8680A
:1011400000F4001005900598504D514E2E6010206F
:1011500068600020A860E860802028610020686145
:10116000A861E8614FF400572F62284600F09CF810
:10117000002801D000F0FDFDE563AC6206F114002B
:101180002866112068661020A8660020E866802086
:10119000286700206867A867E867C5F8807005F1D0
:1011A000600000F081F8002801D000F0E2FD05F1B8
:1011B0006000A063C5F88840002211461F2001F09E
:1011C000E4F81F2001F0F0F800221146202001F081
:1011D000DCF8202001F0E8F817B0F0BD1FB5264C70
:1011E00000220C21204600F025FEFF202070AA20BE
:1011F00060702220A0700120E07000202071642027
:10120000029005200190009401232222A02104F1E4
:101210000C00FFF78CF904F10C00FFF792FA20287C
:10122000F9D11FBD1CB5144C00220C21204600F042
:1012300001FE3D2020706420009001232246A02161
:1012400004F10C00FFF721F804F10C00FFF779FA24
:101250002028F9D164200090072304F15802A0212E
:1012600004F10C00FFF7B9F804F10C00FFF769FA7C
:101270002028F9D113BD000068060020005400406A
:10128000FBA7A0304C10024000040048740300206B
:101290003000024001480068704700BF640200202F
:1012A000704770477047704738B5040001D101207E
:1012B00032BD216804F12405DFF87C0381420BD2A2
:1012C000DFF8780341181420B1FBF0F080002862A9
:1012D000DFF86C03E8610AE0DFF8680341181420C6
:1012E000B1FBF0F080002862DFF85C03E8610220C7
:1012F000687021680A686FF30E12A0680243E06804
:1013000002432069024360690243A0690243E06925
:101310000243206A02430A60204600F065F9A06893
:10132000B0F5804F01D1002060602079696A0860C3
:10133000E86AA96A4860606800280BD0052809D2CD
:10134000204600F06BF90020296B0860A86B696BE0
:10135000486003E0002028636863A8630020A86158
:10136000012068700020287032BDF8B504460025C1
:1013700004F124063078012801D10220F2BD0120B9
:1013800030707078012831D1022070702846B06129
:10139000206807687F087F000760204600F003F997
:1013A0002168F0680028086803D040F00E0008604B
:1013B00007E020F0040008602068016841F00A019D
:1013C0000160706A0168C90303D5016841F4807146
:1013D0000160306B002803D0016841F48071016026
:1013E0002068016841F00101016002E02846307088
:1013F00002252846F2BD10B4002100F124025378E2
:10140000022B03D004209061012123E003681C68B3
:1014100024F00E041C60536A1C6824F480741C6061
:10142000006803685B085B000360012092F82030CD
:1014300003F01F039840D3695860D06A936A5860DC
:10144000106B002806D0036823F480730360906B50
:10145000536B58600120507000201070084610BC7B
:10146000704710B5002400F124025178022907D0FA
:1014700004209061012050702046107001242BE060
:1014800001680B6823F00E030B6001680B685B08B2
:101490005B000B60516A0B6823F480730B600121C1
:1014A00092F8203003F01F039940D3695960D16A44
:1014B000936A5960116B002906D00B6823F480737E
:1014C0000B60916B536B5960012151702146117073
:1014D0005169002900D08847204610BDF0B400F1C2
:1014E0002401CA6914680268156891F8206006F042
:1014F0001F06042303FA06F73C4214D06F0712D5E7
:101500001468A40603D4146824F00404146091F849
:10151000202002F01F029340CA695360C968002965
:101520003CD0F0BC0847022303FA06F73C4218D02F
:10153000AF0716D51468A40605D4146824F00A046D
:10154000146001224A7091F8202002F01F0293409B
:10155000CA69536000220A70896800291ED0F0BC55
:101560000847082303FA06F6344217D02B0715D58F
:10157000136823F00E031360012291F8203003F06A
:101580001F039A40CB695A6001228A614A70002287
:101590000A700969002901D0F0BC0847F0BC704707
:1015A00090F82500704730B4046DC56C6C60446DD4
:1015B000002C02D0C46D856D6C60012490F84450FD
:1015C00005F01F05AC40056C6C600468636003683F
:1015D0008468102C03D19A600068C16002E09960B1
:1015E0000068C26030BC70470168184A124B9942CB
:1015F00000D3203201F0FF0108391423B1FBF3F1CD
:10160000436C9B0812EB83028264114AC26401227C
:1016100001F01F0102FA01F10165704701790D4ADD
:1016200002EB810242650C4A82650122491E01F0EB
:101630001F018A40C265704708040240F8FFFDBFE1
:1016400000000240F8FBFDBF000402400008024019
:1016500080080240FC080240400902407047704781
:10166000704780B500F0B0FE00F011F800F0C8FE41
:1016700000F002FF00F038FF00F06EFFFFF7E0FC23
:1016800001F07CF900F03EF800F06CF9FCE700B5E1
:1016900093B00022382105A800F0CCFB00221421D1
:1016A000684600F0C7FB002001F028FA01200590F1
:1016B0004FF48030069002200C9003200D900620FD
:1016C0000E9055200F90022010901190129005A8B6
:1016D00001F08CFA002801D000F04BFB0F200090A5
:1016E000032001900020029003900490042168469A
:1016F00001F068FC002801D000F03BFB01F080FD08
:1017000013B000BD10B572B6DFF828462046D4F8F5
:10171000A8108847DFF8200601F0EAFD4FF4807238
:101720002169206802F007F8002801D000F021FBB1
:10173000DFF80846206802F085FE002801D000F09E
:1017400018FB0022A16E206802F047FF002801D09C
:1017500000F00FFB07224FF42071DFF8040602F0BF
:101760003CFF002801D000F004FB0020A060E060F6
:101770004FF40020206100206061A061E0612062E0
:10178000606262B6BDE8104001F0BCB8F8B52DED5E
:10179000068BDFF8AC65306B401C306303F0D4F887
:1017A00041EC180B96ED089B53EC192B0020DFF849
:1017B000941503F0D7F853EC182B03F0A9F905D8CA
:1017C000D6E90A0103F0BEF9B0810EE051EC190B25
:1017D00003F09EF907D8D6E90A0181F0004103F031
:1017E000B1F9B08101E000203063306B03F0ACF858
:1017F0004FF0C042DFF8503503F0B4F853EC192B2A
:1018000003F0BCF903F0DEFA00EE100A03F00EFB61
:1018100010EE100A03F050FBD6E90A2303F0A2F8F9
:1018200003F090F9B081DFF8247597ED0C0AD7ED3D
:101830000D0A30EE200A03F0F9FA10EE100A03F058
:101840003BFBD7E9162303F08DF8D7E9182303F003
:1018500089F803F0B7FAF86497ED0C0A03F0E6FA9A
:10186000B0EE408A97ED13AA1AEE100A03F024FB9B
:1018700004460D4618EE100A03F01EFBD7E91423A8
:1018800003F070F8D7E9182303F06CF822462B46D2
:1018900003F036FB03F096FA0AEE900AC7ED12AA9F
:1018A00097ED1A8BDFF8A8449FED2C9B97ED110A5A
:1018B0008AEE000A10EE100A03F0FEFA53EC182B21
:1018C00003F05CF953EC192B03F04CF8D7E91E2315
:1018D00003F048F803F036F9608697ED100A8AEEB7
:1018E000800A10EE100A03F0E7FA53EC182B03F00D
:1018F00045F953EC192B03F035F8D7E91C2303F015
:1019000031F803F01FF9E081786B03F0D5FA21F08C
:101910000041D6E9062303F0FBF801D800206086D9
:10192000386B03F0C9FA21F00041D6E9042303F033
:10193000EFF801D80020E081706B401C7063022832
:1019400009DD3879012806D1B878002803D000F0E5
:101950005EFF00207063BDEC068BF1BD000000004F
:1019600000408F402DE970432DED068B82B0DFF8EB
:10197000D0432078002807D00FF2FC31DFF8B40301
:1019800003F019FC00202070DFF8C053A078002875
:1019900004D0287900F0BAFE0020A070E07800287A
:1019A00009D06979012000F0C3FE6979022000F0B6
:1019B000BFFE0020E070607800280AD00B210120D3
:1019C00000F0B6FE0B21022000F0B2FE0020A8704D
:1019D00060702079002807D0012000F053FF02201A
:1019E00000F050FF002020712878022801DB012040
:1019F00000E00020A978014207D0012000F074FE29
:101A0000022000F071FE00202870A07A002807D084
:101A1000012000F063FF022000F060FF0020A072B0
:101A2000607900281CD0012000F054FF022000F053
:101A300051FF46F26400C64EB6F902108142FBD156
:101A4000B6F926108142F7D1B06803F027FCC5E94A
:101A50000401F06A03F022FCC5E906010020607170
:101A6000A079002807D0012000F034FF022000F008
:101A700031FF0020A071607A002800F0B8800120BA
:101A800000F028FF022000F025FF052003F018FCDD
:101A900046F26400AE4EB6F902108142FBD1B6F9AF
:101AA00026108142F7D195ED0C0AD5ED0D0A30EEE6
:101AB000200A03F0BBF910EE100A03F0FDF9D5E996
:101AC000162302F04FFFD5E9182302F04BFF03F075
:101AD00079F9E86495ED0C0A03F0A8F9B0EE408AB4
:101AE00095ED13AA1AEE100A03F0E6F9804689462E
:101AF00018EE100A03F0E0F9D5E9142302F032FFE2
:101B0000D5E9182302F02EFF42464B4603F0F8F9C0
:101B100003F058F90AEE900AC5ED12AA95ED1A8B5A
:101B20009FED909B95ED110A8AEE000A10EE100AC7
:101B300003F0C2F953EC182B03F020F853EC192BE7
:101B400002F010FFD5E91E2302F00CFF02F0FAFFAD
:101B5000708695ED100A8AEE800A10EE100A03F0E6
:101B6000ABF953EC182B03F009F853EC192B02F0E6
:101B7000F9FED5E91C2302F0F5FE02F0E3FFF08147
:101B8000686B03F099F921F00041D4E9062302F0D3
:101B9000BFFF01D800207086286B03F08DF921F07B
:101BA0000041D4E9042302F0B3FF01D80020F08102
:101BB00046F27105B6F93200009000232A46022150
:101BC000084600F05CFDB6F90E00009000232A469E
:101BD0000221012000F053FD052003F071FBB6F94E
:101BE0000200A842FBD1B6F92600A842F7D1E0795D
:101BF000002803D0FFF7F2FA0020E071207A0028D5
:101C000003D0FFF70FFB0020207202B0BDEC068B63
:101C1000BDE8708355480178491C01707047F8B5DC
:101C20000268136D5B0701D504231365434C2568D7
:101C300000682A6890426BD1A06E014268D0434E82
:101C400004F1580304F13002616E284602F038FCBA
:101C50000028206B09D03189884202D100203070E1
:101C600000E0308100F085F840E000F07F01491E7F
:101C7000717000F4F060F080B0F5C07F49D0B0F52D
:101C8000B06F33D1C9B22425314F15FB01F0384470
:101C9000C2699047707815FB00F57819B0F9020019
:101CA00046F26401884221D175782A4805EBC501C6
:101CB0008900405803F0F2FA06EBC502D2E904238A
:101CC00003F0DCF9244A254B02F04CFE03F07AF8CD
:101CD00000EE100A06EB8500D0ED100A80EE200A17
:101CE00006F1300000EB850080ED000A40211C4821
:101CF00002F061FCF070F078012809DD04F158036E
:101D000004F13002616E206802F0DAFB0028F5D1A0
:101D1000F1BD3078401C3070C9B20D4801EBC102F2
:101D200000EB8200026A90470128BDD00B20707141
:101D3000DCE70000B4010020CC060020B800002041
:101D4000800000200000E03FFB211940000000203F
:101D5000240100202C0100205D8940F50F22493F1D
:101D6000040600200000000000408F401F070020F4
:101D70000CE572B6FEE7000041542B434F4E4D4137
:101D8000433D3730423846363937373639320D0021
:101D900010B400F140025378202B20D11378012B8E
:101DA00001D102201CE00123137024235370036827
:101DB0001C68640864001C6003681C6824F4805478
:101DC0001C6003681C68214319600068016841F0C9
:101DD00001010160202050700020107000E00220FE
:101DE00010BC704710B400F140025378202B1ED174
:101DF0001378012B01D102201AE001231370242350
:101E0000537003681C68640864001C6003681C68E5
:101E100024F4706444EA01241C600068016841F005
:101E200001010160202050700020107000E00220AD
:101E300010BC704762F30F2262F31F4200B500BF6F
:101E4000130096469446103928BFA0E80C50FAD8E3
:101E50005FEA417C28BF0CC048BF40F8042BC9078B
:101E600028BF20F8022B48BF00F8012B00BD30B579
:101E7000016884684218416802EB5103C90703D521
:101E80004C4401E0491C08D19A4218BF12F9011BC9
:101E900001D10C3030BD12F8015B002904F8015B60
:101EA000F0D4491EF7D5EFE72DE9FC47054600249D
:101EB0002646DFF850722868000369D5A046F86C02
:101EC000C0000AD4F86C40F08050F864F86C00F060
:101ED0008050009000984FF00108DFF82C92D9F85C
:101EE000000040F48070C9F80000FFF7D3F9824683
:101EF000D9F80000C00506D4FFF7CCF9A0EB0A0022
:101F00000328F5D3032420003AD1DFF80092D9F852
:101F1000000010F4407014D0296C884211D0D9F818
:101F2000000020F44070D9F8001041F48031C9F865
:101F30000010D9F8001021F48031C9F80010C9F858
:101F40000000C0070FD5FFF7A5F98246D9F80000B9
:101F5000800708D4FFF79EF9A0EB0A0041F289310F
:101F60008842F3D30324200008D1D9F8001021F4CB
:101F70004071286C0143C9F8001002E0264600E0D9
:101F80002646B8F1010F03D1F86C20F08050F864B8
:101F90002878C00705D5F96F8908686850EA81017B
:101FA000F9672878800705D5F96F21F00C01A8683A
:101FB0000143F9672878400705D5F96F21F0300112
:101FC000E8680143F9672878000705D5F96F21F023
:101FD000C00128690143F9672878800605D5F96FA3
:101FE00021F4406168690143F9672878400605D506
:101FF000F96F21F44051A8690143F9672878000678
:1020000005D5F96F21F44041E8690143F967286873
:10201000C00505D5F96F21F44031286A0143F967FD
:102020002868800505D5F96F21F44021686A0143CD
:10203000F967286840050DD5F96F21F44011A86AA9
:102040000143F967A86AB0F5801F03D1386840F4EE
:1020500080103860286800050DD5F96F21F4400123
:10206000E86A0143F967E86AB0F5800F03D1386880
:1020700040F4801038602868C0040DD5F96F21F055
:102080004071286B0143F967286BB0F1807F03D161
:10209000386840F480103860286880040DD5F96FE6
:1020A00021F04061686B0143F967686BB0F1006F24
:1020B00003D1386840F480103860286840040DD59A
:1020C000F96F21F04061A86B0143F967A86BB0F18B
:1020D000006F03D1386840F480103860286800042D
:1020E0000DD5F96F21F04051E86B0143F967E86BBA
:1020F000B0F1805F03D1386840F4803038603046FA
:10210000BDE8F6870C1002400070004090100240BD
:10211000F8B502460B4600242DE04FF0060C05E012
:10212000DFF88CC16245F8D14FF0050C0CFA06FCC3
:102130004CEA070C45F821C05E498E68C5432E4025
:102140005F68FF0200D506438E60CE682E405F6850
:10215000BF0200D50643CE604E682E405F68BF03C5
:1021600000D506434E600E682E405D68ED0300D535
:1021700006430E60641C18680146E14000F091803F
:102180000127A7403840F5D0610003258D40ED437D
:102190005E6806F0030CBCF1010F03D006F00306E5
:1021A000022E10D196682E40D3F80CC00CFA01FC18
:1021B0004CEA060696605668BE435F68C7F3001790
:1021C000A7403E4356601E7906F00306032E05D055
:1021D000D6682E409F688F403E43D6601E7906F039
:1021E0000306022E15D12646F60802EB86073E6A44
:1021F0004FEA840C0CF01C0C4FF00F0E0EFA0CFE84
:1022000026EA0E06D3F810E00EFA0CFC4CEA06069D
:102210003E6216682E401D7905F0030505FA01F1AE
:102220000E431660596811F4403FA3D022490D684F
:1022300045F001050D60096801F001010091009968
:10224000214689081D4D55F82170A60006F00C06A0
:102250004FF00F0C0CFA06FC27EA0C07B2F1904F76
:1022600002D14FF0000C61E7DFF854C0624502D1A3
:102270004FF0010C5AE7DFF84CC0624502D14FF035
:10228000020C53E7DFF840C0624502D14FF0030C67
:102290004CE7DFF838C062457FF442AF4FF0040CE2
:1022A00044E7F1BD002A01D0816170478162704727
:1022B0000014004800040140601002400800014082
:1022C0000004004800080048000C004800100048C6
:1022D000374A13684FF6FF010B40000200F4E0603C
:1022E0001843344908431060704731480068C0F310
:1022F00002207047010007D4012200F01F018A402C
:102300002D49400941F8202070470901020002D4FC
:102310002A48815470472A4802F00F02104400F8FE
:10232000041C704710B400F00700C0F10703052B30
:1023300000D30423041D072C01D2002000E0C01E9E
:10234000012404FA03F35B1E1940814004FA00F0F3
:10235000401E1040084310BC704738B50446641E48
:10236000B4F1807F0AD2174D6C600F214FF0FF301F
:10237000FFF7CBFF0020A86007202860B4F1807F22
:102380008041C043C00F32BDA2E770B504460D4680
:102390001646FFF7AAFF32462946FFF7C3FF01465C
:1023A0002046BDE87040B0E7A4E7D6E7FFF7E0BC01
:1023B0000CED00E00000FA0500E100E000E400E0C0
:1023C00018ED00E010E000E010B500240B480168B3
:1023D00021F480610160016841F480710160032093
:1023E000FFF7D2FF0F2002F07FFF002801D0012469
:1023F00001E002F0A1FF204610BD000000200240D5
:1024000010B586B00022142101A8FFF713FD18486B
:10241000016841F020010160016801F02001009194
:102420000099016841F001010160016801F00101BA
:1024300000910099016841F002010160006800F01C
:102440000200009000980B4C00224FF4807120464F
:10245000FFF728FF4FF480700190012002900020C8
:102460000390049001A92046FFF752FE06B010BD6C
:102470004C1002400004004880B51A48016841F041
:1024800004010160016801F00401009100990168F4
:1024900041F001010160006800F001000090009827
:1024A000002211460B20FFF770FF0B20FFF77CFF87
:1024B000002211460C20FFF768FF0C20FFF774FF85
:1024C000002211460D20FFF760FF0D20FFF76CFF83
:1024D000002211460E20FFF758FF0E20BDE80240F3
:1024E000FFF762BF4810024080B5184818490160E4
:1024F000A92141600021816040F2E731C1600021E3
:1025000001614161816100F0CFFE002803D0BDE888
:102510000140FFF72EBC01BD00680D49884200D084
:10252000704780B50B48016841F480210160006864
:1025300000F4802000900098002211461A20FFF736
:1025400024FF1A20BDE80240FFF72EBFCC06002072
:10255000004801406010024010B586B0DFF8F84333
:10256000DFF8F803206000206060A060E0600120D8
:10257000207400206074A0740A2060610120A061B2
:102580000E20E0610220206201206062A062E06211
:1025900020631C2060630020A063E063204601F0FC
:1025A00049FE002801D0FFF7E4FB002000900190D5
:1025B0000290012003900020049040F2FF700590EB
:1025C0006946204601F012FF002801D0FFF7D1FB39
:1025D00006B010BD18B597B004460022142101A81A
:1025E000FFF728FC0022442106A8FFF723FC2068FF
:1025F000DFF86813884240D14FF4805006904FF0C6
:102600000070129006A8FFF74FFC002801D0FFF7DA
:10261000B0FBDFF84C03C16841F00071C160C168D4
:1026200001F0007100910099016841F00101016021
:10263000006800F00100009000984FF4C050019035
:1026400002200290012003900320049009200590AD
:1026500001A94FF09040FFF75BFD002211461520C5
:10266000FFF793FE1520FFF79FFE0022114616206C
:10267000FFF78BFE1620FFF797FE18B010BD3CB495
:10268000049DB84C00F5C0606060012904D00229A7
:1026900008D004290ED01BE004F128002F2101707E
:1026A000057118E004F128002B21017005712D122D
:1026B000457110E004F128002321017005712946BD
:1026C000091241712946091481712D16C57102E064
:1026D000222084F8280004F128004270121282702F
:1026E000C370204636BCA0E09E4900F500724A60E7
:1026F0009D4A00EBC00302EB830030F9160C01F198
:10270000280210700012507008468EE070B5044622
:10271000944D05F12806002208213046FFF78AFB78
:1027200000206860347070702846BDE870407CE01E
:1027300038B5054646F240040091002322460221A6
:10274000FFF79DFF8848294601EBC10200EB82009C
:1027500030F9220CA042F5D131BD10B4491C0170F2
:1027600082490A784B7842EA0322428012B246F24A
:102770003F03D21A0AD0921E02D0233A18D022E088
:10278000CA78097942EA012282801CE0784A1378EB
:10279000CC78097944EA0124194600EB410004820F
:1027A0005B1C1370DBB2052B0DD1002010700AE00A
:1027B000CA780B7942EA03224B7942EA03428979CB
:1027C00042EA0162826010BC7047491C017046F207
:1027D0004101418067490A784B7842EA03228280AE
:1027E0008A78CB7842EA0322C2800A794B7942EA9E
:1027F00003228B7942EA0342C97942EA016282608C
:102800008088C0F3C000401E8041C00F704710B5E3
:10281000544C802060600022082104F12800FFF75A
:1028200009FB2046BDE81040FFE710B504462068CC
:102830000068006D8005FAD4206801F0C8FE002809
:10284000FAD004F12802211D206801F010FE0028B2
:1028500001D0FFF78EFA20680068006DC00400D533
:10286000FEE710BD18B43F4B00F5C060586003F19F
:10287000280040240470417009128170C27018460B
:1028800012BCD2E770B5044646F241050022294643
:10289000FFF7E8FF3448214601EBC10200EB82005C
:1028A000A0F12206B6F90000A842F3D17088C0F367
:1028B000C00000280DD046F23F05002229462046E0
:1028C000FFF7D0FF2C4900E00880B6F90000A842CD
:1028D000FAD170BD002246F26401C3E71CB504467C
:1028E00000200090034641F2030201212046FFF739
:1028F000C6FE00212046FFF71BFF80212046BDE8D1
:102900001C4015E71CB50120FFF7BCFF0220FFF7B4
:10291000B9FF01241AE00A200090002346F2600269
:1029200001212046C0B2FFF7AAFE00200090034616
:1029300042F2010201212046C0B2FFF7A0FE601C56
:10294000094904EBC40292008854641C032CE2DBA6
:102950008020BDE81640D9E604060020006400404F
:102960004C100240B800002024010020110100207A
:102970001E070020100100201C07002010B55A4C33
:102980005A4820604FF4E13060600020A060E060B1
:1029900020610C2060614FF44070A0610020E06174
:1029A00020626062A062204600F03CFE002801D058
:1029B000FFF7DFF90021204602F0F6FC002801D0E5
:1029C000FFF7D7F90021204602F011FD002801D0C1
:1029D000FFF7CFF9204602F0C9FC002803D0BDE87C
:1029E0001040FFF7C6B910BD78B597B00446002275
:1029F000142101A8FFF71EFA0022442106A8FFF7C0
:102A000019FA2068394988426CD1022006900020CA
:102A1000089006A8FFF748FA002801D0FFF7A9F9A7
:102A20003348C16841F40031C160C16801F400312C
:102A300000910099016841F001010160006800F017
:102A40000100009000980F200190022002900020C9
:102A5000039004900720059001A94FF09040FFF7E4
:102A600057FB244D244E2E601A2068600020A86079
:102A7000E8608020286100206861A8612020E8616A
:102A80004FF4805028622846FEF70EFC002801D043
:102A9000FFF76FF9E567AC6206F1140028661B20AA
:102AA00068661020A8660020E8668020286700205D
:102AB0006867A867E867C5F8800005F16000FEF761
:102AC000F3FB002801D0FFF754F905F16000A0677F
:102AD000C5F88840002211462620FFF756FC262024
:102AE000FFF762FC18B070BDF40400200044004001
:102AF0004C1002403404002008000240DFF8D810D7
:102B000000282BD1DFF8D4000A6802F4C062B2F5C5
:102B1000806F1ED1026822F480720260086820F47F
:102B2000C06040F400700860DFF8B4000268322032
:102B30004243DFF8B000B2FBF0F0401C00E0401E62
:102B40004A69520501D50028F9D1486940052ED4BB
:102B50003AE0016821F48071016035E0B0F5007F52
:102B60002CD1DFF878000A6802F4C062B2F5806FF9
:102B70001FD1026842F480720260086820F4C060CD
:102B800040F400700860DFF85800026832204243C9
:102B9000DFF85000B2FBF0F0401C00E0401E4A6934
:102BA000520501D50028F9D1486940050CD503200C
:102BB0007047016841F48071016005E0086820F405
:102BC000C06040F4806008600020704706480168DB
:102BD00041F4804101607047007000408070004007
:102BE0007002002040420F00087000402DE9F843B9
:102BF000040000F0E281DFF870562078C00712D59B
:102C0000A86800F00C00E96801F003010C2801D16C
:102C1000032901D0082845D12868800303D56068BE
:102C2000002800F0CA812078800721D5A86800F02C
:102C30000C00E96801F003010C2801D1022901D040
:102C4000042866D12868400503D5E068002800F014
:102C5000B481686820F0FE40216940EA0160686044
:102C6000DFF81006006802F03FFB002840F0A58165
:102C7000DFF804662078000740F18480606900284E
:102C8000706870D040F001007060FEF703FB0746EB
:102C90007068800776D4FEF7FDFAC01B0328F7D3CF
:102CA00003208DE16068B0F5803F04D1286840F4CE
:102CB0008030286012E0B0F5A02F286807D140F4DA
:102CC00080202860286840F48030286006E020F4E6
:102CD00080302860286820F4802028606068002800
:102CE0000BD0FEF7D7FA0646286880039BD4FEF780
:102CF000D1FA801B6528F7D3D2E7FEF7CBFA064658
:102D0000286880038FD5FEF7C5FA801B6528F7D3A6
:102D1000C6E7E0680028286816D040F48070286074
:102D2000FEF7B8FA06462868400505D4FEF7B2FA61
:102D3000801B0328F7D3B3E7686820F0FE402169C1
:102D400040EA0160686093E720F480702860FEF735
:102D5000A1FA0646286840058AD5FEF79BFA801B33
:102D60000328F7D39CE7400840007060FEF792FA12
:102D700007467068800705D5FEF78CFAC01B03284C
:102D8000F7D38DE72078400768D50027A86DC000ED
:102D900009D4A86D40F08050A865A86D00F080505F
:102DA000009000980127DFF8D484D8F80000C0050F
:102DB00013D4D8F8000040F48070C8F80000FEF783
:102DC00069FA8146D8F80000C00506D4FEF762FA19
:102DD000A0EB09000328F5D362E7A068012804D11D
:102DE000306840F00100306011E00528306807D1FC
:102DF00040F004003060306840F00100306006E0D0
:102E0000400840003060306820F004003060A06866
:102E100000280ED0FEF73EFA80463068800717D4AF
:102E2000FEF738FAA0EB080041F289318842F4D36A
:102E300036E7FEF72FFA80463068800708D5FEF7A0
:102E400029FAA0EB080041F289318842F4D327E740
:102E5000012F03D1A86D20F08050A865207880064E
:102E600021D5A0690028B0680ED040F00100B06004
:102E7000FEF710FA0746B068800714D4FEF70AFA86
:102E8000C01B0328F7D30BE740084000B060FEF7F3
:102E900001FA0746B068800705D5FEF7FBF9C01BAD
:102EA0000328F7D3FCE6E069002800F08880A968D1
:102EB00001F00C010C2955D00228286820F0807000
:102EC00028603AD1FEF7E6F906462868800105D564
:102ED000FEF7E0F9801B0328F7D3E1E6E868DFF8A6
:102EE000A0130840216A0843616A491E40EA0110A4
:102EF000A16A40EA0120216B4908491E40EA41507D
:102F0000616B4908491E40EA4160E16A40EAC160DC
:102F1000E860286840F080702860E86840F08070C1
:102F2000E860FEF7B7F904462868800147D4FEF749
:102F3000B1F9001B0328F7D3B2E6E86880088000E7
:102F4000E860E968DFF83C030140E960FEF7A2F9B8
:102F500004462868800132D5FEF79CF9001B03283F
:102F6000F7D39DE6012828D0E86800F00301226A23
:102F7000914222D100F0F001626A521EB1EB021FB1
:102F80001BD100F4FE41A26AB1EB022F15D100F073
:102F90007841E26AB1EBC26F0FD100F4C001226B3D
:102FA0005208521EB1EB425F07D100F0C060616B66
:102FB0004908491EB0EB416F01D0012000E000201C
:102FC000BDE8F2832DE9F843044688460027002C2B
:102FD00061D0DFF8B452286800F00F00404509D2F4
:102FE0002868000948EA00102860286800F00F00EF
:102FF000404550D1DFF870622078C0074DD5606839
:1030000003281AD13068800145D500F00AF9DFF8AD
:103010007C12884223D3B06810F0F00F05D02078DE
:1030200080071CD5A068002819D1B06820F0F000F6
:1030300040F08000B060802711E00228306828D17D
:10304000800328D500F089F8DFF84012884206D3C3
:10305000B06820F0F00040F08000B0608027B168D8
:103060008908606850EA8101B160FEF713F9814672
:10307000B06800F00C006168B0EB810F0DD0FEF776
:1030800009F9A0EB090041F289318842F0D303200D
:1030900061E04005D6D401205DE02068810715D5A8
:1030A000400703D5B06840F4E060B06020780007C6
:1030B00005D5B06820F4605040F4E060B060B168BD
:1030C00021F0F001A0680143B16005E0802F03D139
:1030D000B06820F0F000B060286800F00F00804574
:1030E00014D22868000948EA00102860FEF7D2F8D8
:1030F0000746286800F00F00404507D0FEF7CAF8E1
:10310000C01B41F289318842F3D3C0E720784007E1
:1031100005D5B16821F4E061E0680143B160207831
:10312000000706D5B06820F46050216940EAC1006C
:10313000B06000F012F85649B268C2F30312895C1D
:1031400001F01F01C8404A4908604A480068BDE8CC
:10315000F24302F0C9B8BDE8F2834E49086800F0B6
:103160000C00042801D141487047086800F00C00A9
:10317000082801D148487047086800F00C000C2866
:103180001FD14A6802F003024868C0F30310401CD4
:10319000032A07D1404AB2FBF0F24868C0F3062088
:1031A000424306E0314AB2FBF0F24868C0F3062021
:1031B00042434868C0F34160401C4000B2FBF0F05D
:1031C0007047002070472A480068704780B5FFF7B5
:1031D000FAFF32492F4A1268C2F30222895C01F0D9
:1031E0001F01C84002BD80B5FFF7EDFF2B49294AFA
:1031F0001268C2F3C222895C01F01F01C84002BDFF
:103200001948016841F400210160704710B5244C51
:103210002068C00504D502F039F94FF48070606071
:1032200010BD20490A6802F003020868C0F30310C9
:10323000401C032A07D1184AB2FBF0F20868C0F319
:103240000620424306E0094AB2FBF0F20868C0F3E8
:10325000062042430868C0F34160401C4000B2FBB6
:10326000F0F0704700000000001002400024F4005D
:1032700070020020680200209010024000700040A0
:103280000C809F01FFFFEEFE0020024001B4C40449
:10329000946100080810024000366E0118620008B0
:1032A0001C1002400C10024038B5040001D101206E
:1032B00032BD04F13C056878002804D10020287054
:1032C0002046FFF729F902206870211D206800F0D0
:1032D0003FF901202873A870E87028716871A871FF
:1032E000E87128726872A872E8726870002032BDB6
:1032F00090F83D10012901D001207047022180F88B
:103300003D100168CA6842F00102CA600168DFF836
:103310005400814212D0B1F1804F0FD0DFF8480045
:1033200081420BD0DFF84400814207D0DFF8400033
:10333000814203D0DFF83C0081420DD18A68DFF87A
:1033400038000240062A0BD0B2F5803F08D008684A
:1033500040F00100086003E0086840F001000860E8
:1033600000207047002C014000040040000800408D
:1033700000340140004001400700010010B5044640
:1033800020680169890717D5C168890714D56FF0CE
:1033900002010161012020772068806910F0030F8D
:1033A000204602D002F073F804E002F071F82046E3
:1033B00002F06FF80020207720680169490717D5CF
:1033C000C168490714D56FF004010161022020771C
:1033D0002068806910F4407F204602D002F057F840
:1033E00004E002F055F8204602F053F80020207760
:1033F00020680169090717D5C168090714D56FF05E
:1034000008010161042020772068C06910F0030FD3
:10341000204602D002F03BF804E002F039F82046E2
:1034200002F037F80020207720680169C90617D517
:10343000C168C90614D56FF010010161082020771A
:103440002068C06910F4407F204602D002F01FF8C7
:1034500004E002F01DF8204602F01BF8002020775F
:1034600020680169C90708D5C168C90705D56FF08B
:10347000010101612046FEF7F3F8206801690906A1
:1034800008D5C168090605D56FF0800101612046A5
:1034900002F000F820680169C90508D5C16809066D
:1034A00005D56FF480710161204601F0F4FF2068BA
:1034B0000169490608D5C168490605D56FF0400184
:1034C0000161204601F0E8FF20680169890608D5FE
:1034D000C168890605D56FF020010161204601F021
:1034E000DCFF20680169C90208D5C168C90205D599
:1034F0006FF480110161204601F0D0FF206801695E
:10350000890208D5C168890205D56FF400110161EF
:10351000204601F0C4FF20680169490208D5C1684E
:10352000490205D56FF480010161204601F0B8FF22
:103530002068016909020AD5C168090207D56FF43C
:10354000000101612046BDE8104001F0AABF10BD96
:1035500010B40468DFF8B03098420ED0B0F1804F5C
:103560000BD0DFF8A820904207D0DFF8B4209042BB
:1035700003D0DFF89C20904203D124F070044A6805
:10358000144398421AD0B0F1804F17D0DFF87C2056
:10359000904213D0DFF8882090420FD0DFF87020DF
:1035A00090420BD0DFF86C20904207D0DFF8682003
:1035B000904203D0DFF86420904203D124F4407499
:1035C000CA68144324F080044A69144304608A687A
:1035D000C2620A68826298420FD0DFF834209042BB
:1035E0000BD0DFF83020904207D0DFF82C2090423B
:1035F00003D0DFF82820904201D10969016301213D
:10360000416110BC70470000002C014000040040E4
:1036100000340140004001400044014000480140A6
:103620000008004038B5040015D004F18005686832
:10363000002804D1002028702046FFF7D5F9242067
:10364000686020680168490849000160204600F070
:103650001BFA012801D1012032BDA06A002802D046
:10366000204600F06BFB2068416821F490414160E6
:103670002068816821F02A0181602068016841F09A
:10368000010101602046BDE8324000F0BBBB70B5CF
:103690000446134604F180056868202849D10029B2
:1036A00001D0180001D1012070BD2878012840D038
:1036B00001202870216504F15406338073800020B6
:1036C000E86021206860706A00281ED0DFF8AC1323
:1036D000C162DFF8AC03716A0863DFF8A803716A9E
:1036E00048630020716A8863206800F12802216D18
:1036F000706AFDF73AFE002807D01020E86000202D
:10370000287020206860012070BD40202168086278
:10371000002028702068083050E8001F41F0800128
:10372000206800F1080242E800100028F2D10020D1
:1037300070BD022070BD30B4034603F18000846880
:10374000202C22D1002901D0140001D101201DE03C
:103750000478012C19D0012404700020D866186860
:10376000DFF81443A0420CD04068000209D5186865
:1037700050E8004F44F08064054645E800400028CA
:10378000F5D1184630BC00F0DABB022030BC7047DF
:10379000F8B504462668F1693268B36840F60F0050
:1037A000084004F15C050DD18F060BD5970601D4B6
:1037B000DF0007D56969002900F05D812046BDE87A
:1037C000F4400847002800F08C80DFF8B40803427A
:1037D00004D1DFF8B0783A4200F083800F46FF074B
:1037E00007D5D70505D5012737622E6B46F00106B0
:1037F0002E638E0709D51E46F60706D502262768D2
:103800003E622E6B46F004062E634E0709D51E4617
:10381000F60706D5042627683E622E6B46F00206A0
:103820002E630E070AD5960601D4034206D008205F
:1038300026683062286B40F008002863080509D527
:10384000500107D54FF4006026683062286B40F0C5
:1038500020002863286B002800F00D81880608D519
:10386000900601D4D80004D56969002901D020460A
:103870008847286B21688968490602D410F0280F10
:1038800029D0204600F0D0FB2068806840061DD576
:103890002068083050E8001F21F04001206800F146
:1038A000080242E800100028F2D1286A00280DD052
:1038B000DFF8D4178163286AFDF7D3FD002800F0F4
:1038C000DA80286A816BBDE8F44008472046BDE8ED
:1038D000F24001F0E7BD204601F0E4FD002028633E
:1038E000F1BD2869012840F09280C80640F18F8020
:1038F000D00640F18C80102030622068806840063D
:103900004ED5286A0068406880B2002800F0B38075
:103910002988884280F2AF806880286A0068006841
:10392000800634D4206850E8001F21F480710246DC
:1039300042E800100028F5D12068083050E8001F48
:1039400049084900206800F1080242E800100028F8
:10395000F2D12068083050E8001F21F040012068B3
:1039600000F1080242E800100028F2D12020E862AD
:1039700000202861206850E8001F21F01001024655
:1039800042E800100028F5D1286AFDF734FD2988A7
:103990006888091A89B22046BDE8F44001F083BD69
:1039A00028886988411A6888002864D0084680B24F
:1039B000002860D0206850E8002F22F4907203465F
:1039C00043E800200028F5D12068083050E8002F97
:1039D000DFF84C030240206800F1080343E80020B0
:1039E0000028F1D12020E862002028616861206869
:1039F00050E8002F22F01002034643E80020002880
:103A0000F5D189B22046BDE8F44001F04CBDC802B2
:103A100009D5580207D54FF4801030622046BDE822
:103A2000F24001F041BD08060AD5100601D4180283
:103A300006D5A96900291ED02046BDE8F4400847F4
:103A4000480606D5500604D52046BDE8F24000F0F1
:103A5000DBBB080206D5500004D52046BDE8F24085
:103A600001F023BDC80106D5002A04D52046BDE8D3
:103A7000F24001F01BBDF1BD00800040B1400008E4
:103A8000F7400008A9410008F8B504460025216860
:103A90000A68DFF8FC050240A0680243206902437F
:103AA00060690243E06902430A6021684A6822F4BF
:103AB0004052E06802434A60A2692368DFF8CC15EF
:103AC0008B4201D0206A02439E68DFF8C805064099
:103AD00032439A602268D36A1B09606A50EA031372
:103AE000D3622068DFF8B02590420CD1DFF8AC2516
:103AF000126802F00302032A15D8DFE802F0024838
:103B0000355E012210E0DFF8982590421BD1DFF8E6
:103B10008C25126812F00C024DD0042A37D0082AE6
:103B200022D00C2A49D01022884240F07F80002AFF
:103B300006D0022A43D0042A44D0082A45D047E0C0
:103B4000FFF744FB46E0DFF85C2590420ED1DFF83A
:103B50004C25126812F030022DD0102A17D0202ADE
:103B600002D0302A29D0DEE70222DDE7DFF838254F
:103B700090420ED1DFF82425126812F0C0021AD04C
:103B8000402A04D0802AEFD0C02A16D0CBE70422E6
:103B9000CAE78842C7D1DFF80425126812F44062F0
:103BA00009D0B2F5806FF2D0B2F5006FDCD0B2F57B
:103BB000406F02D0B7E72A46B6E70822B4E7DFF83D
:103BC000EC0407E0FFF7C9FA04E04FF4004001E01D
:103BD00028460125002800F0988000BF51A1626AA4
:103BE00031F81210B0FBF1F63046626802EB420188
:103BF000884202D31103814201D2012585E00027CA
:103C000047EA166710464008002110EB062079416C
:103C1000002301F04DFCA0F54071DFF81026914221
:103C200002D22168C86070E001256EE0E069B0F55D
:103C3000004F38D1082A15D8DFE802F005080B1428
:103C40000E1414141100FFF7C1FA0DE0FFF7CBFAC0
:103C50000AE0DFF8580407E0FFF77FFA04E04FF4CA
:103C6000004001E02846012500284ED0D4F8041079
:103C70002CA2636A32F81320B0FBF2F00A46520815
:103C800002EB4002B2FBF1F04FF6F071A0F110022E
:103C90008A4206D20140C0F3420001432068C1605D
:103CA00033E0012531E0082A15D8DFE802F00508E5
:103CB0000B140E1414141100FFF788FA0DE0FFF72F
:103CC00092FA0AE0DFF8E40307E0FFF746FA04E0BF
:103CD0004FF4004001E028460125002815D0616816
:103CE00010A2636A32F81320B0FBF2F000EB51002F
:103CF000B0FBF1F0A0F110014FF6F072914203D247
:103D000080B22168C86000E0012504F1680001214B
:103D10004180018000218160C1602846F2BD000021
:103D2000FEFFFFEF010002000400060008000A0089
:103D30000C001000200040008000000190F82810C6
:103D4000C90706D50268536823F40033C16A0B43E0
:103D5000536090F82810890706D50268536823F449
:103D60008033016B0B43536090F82810490706D548
:103D70000268536823F48023416B0B43536090F82F
:103D80002810090706D50268536823F40043816BA5
:103D90000B43536090F82810C90606D50268936853
:103DA00023F48053C16B0B43936090F8281089066D
:103DB00006D50268936823F40053016C0B439360AB
:103DC00090F82810490611D50268536823F480132F
:103DD000416C0B435360416CB1F5801F06D1026802
:103DE000536823F4C003816C0B43536090F8281090
:103DF000090606D501684A6822F40022C06C024315
:103E00004A6070477CB5044604F180050020E860F4
:103E1000FDF740FA06462068006800070BD56FF0F2
:103E20007E400090334600224FF40011204600F0FF
:103E30001BF800280FD12068006840070DD56FF0EF
:103E40007E400090334600224FF48001204600F06F
:103E50000BF8002801D0032076BD20206860A86000
:103E60000020E066287076BD2DE9F04105460E463B
:103E700017469846069C2868C0693040B04201D178
:103E8000012000E000203946884255D114F1010F8D
:103E9000F1D0FDF7FFF9A0EB0800844201D3002C1C
:103EA0001FD1286850E8001F21F4D071024642E873
:103EB00000100028F5D12868083050E8001F490894
:103EC0004900286800F1080242E800100028F2D1F9
:103ED00005F18000202141608160002101700320F4
:103EE0002BE0286801684907C5D5C1690905C2D515
:103EF0004FF400610162286850E8001F21F4D0717E
:103F0000024642E800100028F5D12868083050E841
:103F1000001F49084900286800F1080242E8001023
:103F20000028F2D105F18000202141608160C1604C
:103F300000210170032000E00020BDE8F08170B591
:103F400004461346A16504F15C06338004F1800544
:103F50000020E8602220A860306A00281ED00FF2FE
:103F60009D11C1620FF22920316A08630FF23920D6
:103F7000316A48630020316A8863A26D206800F1CD
:103F80002401306AFDF7F1F9002807D01020E8601D
:103F9000002028702020A860012070BD002028701B
:103FA0002069002809D0206850E8001F41F4807182
:103FB000024642E800100028F5D12068083050E899
:103FC000001F41F00101206800F1080242E80010E2
:103FD0000028F2D12068083050E8001F41F040016D
:103FE000206800F1080242E800100028F2D1002009
:103FF00070BD016851E8002F22F0C0020B4643E873
:1040000000210029F5D10168083151E8002F22F480
:104010000002016801F1080343E800210029F2D100
:104020002021C0F884107047016851E8002F22F465
:1040300090720B4643E800210029F5D10168083150
:1040400051E8002FDFF8E8110A40016801F1080388
:1040500043E800210029F1D1C16E012909D101688D
:1040600051E8002F22F010020B4643E800210029FE
:10407000F5D12021C0F888100021C1660167704782
:104080000100001020010004F941000800800040F8
:10409000F369FFCFFFF4FF110038014088100240A0
:1040A0000044004000480040004C00400024F40060
:1040B0000146886A0968096889061AD40021A0F8AF
:1040C00056100168083151E8002F22F08002016883
:1040D00001F1080343E800210029F2D1016851E809
:1040E000002F42F040020B4643E800210029F5D1A1
:1040F000704701F0F5BA806A01F0F3BA18B4826A29
:1041000002F15C0100680068800634D40020488019
:10411000106850E8003F23F48073044644E8003000
:104120000028F5D11068083050E8003F5B085B00BC
:10413000106800F1080444E800300028F2D110684B
:10414000083050E8003F23F04003106800F10804F5
:1041500044E800300028F2D12020C8620869012814
:1041600009D1106850E8003F23F01003044644E8EA
:1041700000300028F5D10869012804D109881046CB
:1041800014BC01F090B9104612BC01F0ABBA0000AB
:10419000806A00F15C010A69012A03D10988490893
:1041A00001F081B901F09FBA70B5846A04F1840509
:1041B00028686E6821688968090607D5212805D115
:1041C0000020A4F856002046FFF713FF20688068FF
:1041D000400608D5222E06D1002004F156010881A0
:1041E0002046FFF721FFA86840F01000A860204695
:1041F000BDE8704001F056B9806A00F15601002216
:104200000A810A8001F04EB9016851E8002F22F0BE
:1042100040020B4643E800210029F5D12021C0F8D7
:1042200084100021416701F05BBA000000FD0F001F
:10423000FEFFFFEF70B5040001D1012070BD04F155
:104240005C052878002804D1002068702046FEF71D
:10425000C1F92068816921F010018161FDF71AF828
:1042600006462068816909070CD5FDF713F8801B05
:104270000B28F6D3686840F00100686003202870BE
:10428000012070BD816941F001018161FDF702F8F3
:10429000064620688169C9070CD4FCF7FBFF801B28
:1042A0000B28F6D3686840F001006860032028708E
:1042B000012070BD816941F0020181612068494996
:1042C000884202D16068484908602068217C012941
:1042D000816903D121F04001816102E041F0400198
:1042E00081612068617C0129816903D141F48041A9
:1042F000816102E021F4804181612068A17C012973
:10430000816903D121F48051816102E041F480513F
:10431000816121688A6922F44072A06802438A613F
:104320002068816921F0A40181612068016921F080
:1043300010010161E068012805D12068816941F020
:104340000401816119E0002817D0216802288869DA
:1043500010D040F0800088612068016941F01001B0
:104360000161E068032808D12068816941F02001DB
:10437000816102E040F020008861A069401EE1698F
:10438000491E090241EA4061206A401E01436069FA
:10439000401E41EA00412068C161A068B0F5407F3D
:1043A0000FD1A06A401EE16A491E40EA0120216B3C
:1043B000491E40EA0110616A491E40EA0140216835
:1043C000C8602168D1F8C020E06B0243C1F8C0206A
:1043D000204600F03FFA0020A065686001202870A8
:1043E000002070BD006400400065004070B400F122
:1043F0005C021378012B01D0022B1CD18A68920732
:104400004B684C690D69CE680968002909D142EAF8
:10441000C66242EA05422243006C00EB8300026060
:1044200007E02243406C00EBC30045EA4675056097
:104430004260002004E0506840F00200506001201B
:1044400070BC704700F15C010A78012A09D1022290
:104450000A70006882695208520082610020486038
:104460007047486840F0040048600120704738B544
:10447000044604F15C000378022B1BD12368D3F8B7
:10448000C450AD0205D5416841F40071416001207E
:1044900032BDD3F8C400C0F301452B46204600F0DE
:1044A00013FA012000FA05F52068C0F8CC50A56584
:1044B000002032BD416841F008014160012032BD59
:1044C000F0B400F15C042578022D6DD105689035BB
:1044D000402912D12E6816F00F0F05D1606840F404
:1044E00080706060012064E02C68C4F30125866C54
:1044F00005EBC50406EBC40611E0AE6816F00F0F1D
:1045000005D1606840F480706060012051E0AC68C3
:10451000C4F30125C66C05EBC50406EBC40634687C
:1045200014F080445460376803D1C7F38A441460A0
:1045300002E027F060471760346804F0005494608C
:1045400056F8044B04F0004414613468A4B2D461FA
:10455000346804F47024D460346804F48014546122
:10456000346804F4001494613468C4F3066414627B
:1045700056F8044BE40F5462002402E0375D1F55E7
:10458000641C0FF2B437D2F80CC04FEA1C4C17F879
:104590000C70BC42F2D300689430402901D1056010
:1045A00000E08560002004E0606840F00800606082
:1045B0000120F0BC704700689030402903D10068AA
:1045C00000F00F007047806800F00F00704700682F
:1045D000D0F8C40000F00700704730B400F15C036D
:1045E0001C78012C01D0022C66D10468A36D11F057
:1045F000070F01D0DD071DD511F0380F01D09D0741
:1046000018D511F4E07F01D05D0713D511F4F05FE8
:1046100001D01D070ED511F4604F01D0DD0609D57C
:1046200011F4403F01D09D0604D511F47C0F05D054
:104630005D0603D4E56D45F00105E56511F0070F52
:1046400001D0DC071DD411F0380F01D09C0718D41D
:1046500011F4E07F01D05C0713D411F4F05F01D0B6
:104660001C070ED411F4604F01D0DC0609D411F4FC
:10467000403F01D09C0604D411F47C0F06D05B06A9
:1046800004D50368DC6D44F00204DC650B0605D537
:104690000368D3F8DC401443C3F8DC40CB0505D5F0
:1046A0000368D3F8E0402243C3F8E0200068426D7D
:1046B00011434165002004E0586840F00200586052
:1046C000012030BC70472DE9F8438146D9F800102D
:1046D0000C6D04F4E054486D04400D6D05F00705C1
:1046E000486D05400E6D06F03806486D0640D1F85D
:1046F000508008F47108486D00EA08080F6D07F44F
:104700006027486D0740086D400607D5486D400694
:1047100004D540200865484600F0E6FFD9F800209F
:10472000106DC0050DD5506DC0050AD502F1D80039
:104730000168806801404FF480701065484600F0C1
:10474000D4FF002C06D0D9F8000004652146484665
:1047500000F0CCFF002D06D0D9F8000005652946F1
:104760004846FDF75CFA002E06D0D9F80000066531
:104770003146484600F0BBFFD9F80000016D8905BD
:1047800008D5416D890505D54FF40071016548468E
:10479000FDF740FAD9F80020106D00060CD5506DD9
:1047A000000609D502F1D40001688068014080202C
:1047B0001065484600F09CFFD9F80000016D89049F
:1047C00008D5416D890405D54FF40051016548466F
:1047D00000F08FFFD9F80000016D090408D5416D84
:1047E000090405D54FF400410165484600F082FFF9
:1047F000D9F80000016D49040BD5416D490408D575
:104800004FF480410165D9F8600040F08000C9F89C
:104810006000002F06D0D9F80000076539464846E9
:1048200000F069FFB8F1000F09D0D9F80000C0F816
:104830005080D9F8600048EA0008C9F86080D9F8CB
:104840006000002804D04846BDE8F24300F054BFA1
:10485000BDE8F18310B4154901640268D2F88030D4
:1048600023F4F813446B43EA0443C2F88030104A3F
:1048700042640268D2F8803023F07063846B43EAAC
:104880000463C2F880300B4A82640B4AC2640B4A4C
:1048900002650B4A426502E000200860091D0948D4
:1048A0008142F9D310BC70470000000000A4004012
:1048B00070A40040B0A4004088A5004060A600405D
:1048C00078A6004050A7004070B40D698C6825435D
:1048D0000E684C68002C02D145EA864502E035435B
:1048E00045F080450C6ACE6946EA04668C69264329
:1048F0004C692643CC682643406D03EBC30400EBB0
:10490000C40005604660083000230DE0D418E57847
:10491000A678360446EA0566657846EA05262478D0
:10492000264340F8046B1B1D03A4CD682D0C645D69
:10493000A342EBD370BC70470001020304050607D5
:10494000080C10141820304050B1B0FA80F18840A3
:10495000C91CC1F58461090501EBD02140057047F0
:104960000146704730B540F2FF7C1CEA11541DBF70
:104970001CEA1355644565453FE0641981EA030C60
:104980006FF35F530CF0004C43F48013C90241F005
:10499000004141EA505EC5021100A5FB0202002859
:1049A0004FF00000EEFB01204FF00001E3FB05217A
:1049B00018BF42F00102401800214941E3FB0E01FB
:1049C000A4F580640D0302D292184041494154F18C
:1049D000010470DD450872F1004250F1000051EB16
:1049E0000451A1F5801102D441EA0C0130BD40F21E
:1049F000FF7E4CEA0E51002030BD0CEA1355644591
:104A000018BF654581EA030C0CF0004C41D050EA18
:104A1000410E1CBF52EA430E02E06146002030BD49
:104A200024422C441BD15FEA050EF6D0090302BFD5
:104A300001460020AEF1140EB1FA81F5AEEB05048B
:104A400001FA05FE0C35C5F1200100FA05F5C84054
:104A50004EEA000E6FF35F5343F480139CE733F08C
:104A60000043B3FA83F504BFB2FA82FE75440B3DEE
:104A7000641BB5F1200E2FBF02FA0EF3AB40C5F157
:104A8000200E22FA0EFE38BF43EA0E03AA40641C31
:104A90007CE750EA410E14BF52EA430E6FF000016A
:104AA0004FF4001515EB430F8EBF194615EB410F60
:104AB0009DE7B4D830BDD4F10104B4F120050FDA7C
:104AC000C4F12005520828BF42F0010210FA05FE89
:104AD00001FA05F57244E2BFE0402843E1400FE0EF
:104AE000352C9ADCC5F1200452EA400220FA05F286
:104AF00018BF42F0010231FA05F0A1400A4300213B
:104B000072F1004250F1000051EB0C0130BD000089
:104B100041EA030C50EA4C0C52EA0C0C4FF4001C16
:104B200009D307D01CEB410F9CBF1CEB430F9942EC
:104B300008BF904270471CEB410FFBD88B4208BF67
:104B400082427047C1F30A5340F21E42D31A0CDD71
:104B5000CA0283F3070342EA505242F00042DA40AD
:104B600002EBE17282EAE17070476FEAE17203F2F0
:104B7000E13008B182F0004070470000F0B540F22B
:104B8000FF7581EA030C0CF0004C15EA11541DBFAF
:104B900015EA1357AC42AF42E5E0BC41C1F3130143
:104BA000C3F31303801A994143F4801304D2641EA3
:104BB0000018494180185941C90241EA5051B1FBDE
:104BC000F3F603FB1611A2FB0675D7EBC020A94133
:104BD00002D2761E80185941C90241EA5051B1FBF8
:104BE000F3FE03FB1E11A2FB0E75D7EBC020A941FB
:104BF00003D2AEF1010E80185941890241EA905169
:104C0000760546EA8E2EB1FBF3F603FB1611A2FBE6
:104C10000675D7EB8020A94102D2761E8018594133
:104C2000C90241EA50514EEA060EB1FBF3F603FB0E
:104C30001611A2FB0675D7EBC020A94102D2761E41
:104C400080185941C90241EA5051B1FBF3F703FB07
:104C50001711A2FB0735D3EBC020A94167F100076C
:104C60000CBF004247F0010766F3D5274FEA1E311B
:104C7000B80814F5806412DDBD0775F1004250EBF1
:104C80000E5051EB045111F5801F5CBF41EA0C013D
:104C9000F0BD4CF07F6141F0E0410020F0BDBD0768
:104CA0006D0840EA0E5041F48011D4F10104B4F1D2
:104CB00020060ADAC4F120060200E04001FA06F3F9
:104CC000E1401843B24015430EE0342C13DCC6F12A
:104CD000200445EA40056D0820FA06F2154321FA42
:104CE00006F0A1400D43002175F1004250F1000093
:104CF00051EB0C01F0BD00205FEA0C01F0BDCFB913
:104D000092185B41B3FA83F704BFB2FA82F6BF1977
:104D10000B3FB7F120062FBF02FA06F3BB40C7F1E5
:104D2000200622FA06F638BF3343BA401CB1E41914
:104D3000641E33E77F4231F00041B1FA81F404BFD1
:104D4000B0FA80F6A4190B3CB4F120062FBF00FA8C
:104D500006F1A140C4F1200620FA06F638BF31431F
:104D6000A0403C1B1AE7AC421ABF05EA1357AF42FA
:104D700012E050EA41061CBF52EA4306BFE750EA80
:104D80004107304661461CBF41EA0551F0BD52EA79
:104D9000430C08BFC143F0BD00204FF4001616EBD2
:104DA000410F98BF16EB430F08BF16EB410F24BF0E
:104DB000C14305E016EB430F0CBF61464CEA0551B9
:104DC000F0BD000001F000428B1AA3F16051B1F573
:104DD000801F0ADBB1F17F6F1FD242EAC102C1001E
:104DE00071F1004142EB507070470B15C3F109039C
:104DF000212B10D2890241EA9051800201284941B9
:104E000041F0004121FA03F0C3F12003994071F110
:104E1000004150417047100070476FF0000013EBE5
:104E2000103F5CBF000E42EAC0507047DFED1E0A23
:104E300020EE200AFDEEC00AB5EE400A10EE900A00
:104E4000F1EE10FA48BF401E00EE900AF8EEE00ABC
:104E500030EE600ADFED150A20EE200AFDEEC00AF2
:104E600010EE900A80B2B0F5007F04DBDFED100A8F
:104E7000002030EE200A014600EE901AF8EE600A9B
:104E80000C4970EE600A01EB8002B7EE000A01EBFC
:104E9000800030EE600A92ED001AD0ED011A20EE8B
:104EA000010A00EEA10A704783F9223E0000004487
:104EB000000000C44C580008C0F3C75181B1FF295D
:104EC00006D0C110400721F0E04101F16051704768
:104ED00041020CBF40F4E0016FF000410020704738
:104EE00000F0004100020AD0B0FA80FC00FA0CF099
:104EF00001F16051A1EB0C5101EBD021400570474D
:104F000070B491EA030F4FF0004540F1BF806B4051
:104F1000841A71EB030604D26E40001BB1411219D2
:104F200073414FF4001C1CEB410F34BF7CEB430674
:104F300083E00C0DA4EB1356362E00F37C80012E7B
:104F400045EAC32341DC43EA525312BFD202920224
:104F50005B08240545EAC12141EA5051D2EBC0204B
:104F6000994125D407D1B0FA80F610FA06F162D043
:104F70000020203608E0B1FA81F6B140C6F12002E7
:104F800020FA02F21143B0404FEAF474B4EB4654F5
:104F900034F001064FEA74040AD8D6F50016760DEF
:104FA00004F00044F04061FA06F25040F1404840FD
:104FB000C00A40EA415021F0004128BF5FEA500595
:104FC00050F1000044EBD12135E0DB0A45EAC12174
:104FD000C90AB6F120050EDD42EA0242120CC5F103
:104FE000200603FA06F6EB4042EA06056D429841B8
:104FF00061F100010DE062FA06F5F240554063FAF6
:1050000006FC82EA0C02F3405A406D42904161EB8B
:10501000030111F4801F05D1641E620502D06D00EA
:105020004041494121F48011430875F1004350F19A
:10503000000041EB045170BC70471CEB410F15D2CE
:1050400023F0004352EA43060BD04FEA4C0CBCEB72
:10505000410F04D80C0D661E342EB7DDEBE7801A25
:10506000994150EA410608BF0021E4E708BF1CEB64
:10507000430F28BF6FF00001DDE7000070B491EA34
:10508000030F4FF000457FF543AF6B40841A71EB7F
:10509000030603D2001BB141121973414FF4001CE7
:1050A0001CEB410F34BF7CEB430442E00C0DA4EB3E
:1050B0001356352E4FDC45EAC323DB0A45EAC121EE
:1050C000C912B6F120050DDD63FA05F6EB4086EA5C
:1050D0000305124218BF45F00105C01851F1000147
:1050E0000CD213E062FA06F5F2405540F3415A4003
:1050F000B340F3405A408018594107D349085FEA4A
:1051000030005FEA350528BF45F0010501F5801143
:10511000420875F1004250F1000041EB04514E008D
:1051200016F5001F70BC38BF70470020090D090537
:1051300070471CEB410F10D252EA43060BD0BCEB78
:10514000410F05D80C0DAB43661E342EB6DD02E0D0
:10515000AB438018594170BC704770BC7047000069
:105160000A4603681968C9694906FBD5C16818462B
:10517000FEF78DBA01464FF0FF304A681268536857
:10518000C3F580734B618A69934207D0086913465F
:105190001BB2C05C521C02F0FF028A6170470146DC
:1051A000486800684068C0F5807048618969401AA5
:1051B00000F0FF00704738B504460D46E06800F087
:1051C0009DFA284600F0A6FA014689B22046BDE8BD
:1051D0003440C5E7054901600549416005498160E2
:1051E000054901610549C16070470000F4040020D1
:1051F0003404002094040020740200208405002060
:1052000038B5044601E0401CE0832046FFF7C7FFA5
:10521000002811D02046FFF7ADFF04F12201E28BF8
:105220008854E08B014604F12202525C0D2A01D021
:105230004029E8DB01202077207F00282DD00020A6
:105240002084616E04F1220000F080FA04F168010C
:10525000228C41F822000AE06D1C2584616E00203A
:1052600000F074FA04F16801ADB241F82500258C14
:1052700004F16800294650F821000028ECD12046AE
:1052800000F08AFA0020E08320770246402104F1F2
:105290002200BDE8384000F081BA31BD10F0004175
:1052A00060B148BF4042B0FA80F29040D21CC2F5D3
:1052B000846241EA025202EBD021400570470000AF
:1052C00038B50446FBF7E6FF054614F1010F02D09E
:1052D000044880680419FBF7DDFF401BA042FAD3A5
:1052E00031BD00BF6402002070B504460025104E99
:1052F000B068002819D04FF47A71B1FBF0F00D4975
:105300000968B1FBF0F0FDF750F800280BD1102C24
:1053100007D22A4621464FF0FF30FDF736F8746079
:1053200004E0012502E0012500E00125284670BDCA
:10533000640200207002002082B00B48816841F0B6
:1053400001018160816801F001010091009901680B
:1053500041F080510160006800F08050009000989A
:1053600002B0FDF733BC00BF5810024010B400F18A
:1053700080010A78012A01D1022013E001220A707B
:1053800024224A6002681368146864086400146088
:105390000022426623F0005300680360202048602A
:1053A0001046087010BC704770B5044604F18005C3
:1053B0002878012801D1022070BD01202870242006
:1053C000686020680668026852085200026020681F
:1053D000826822F0604211438160204600F02AF882
:1053E00020680660202068600020287070BD70B5BD
:1053F000044604F180052878012801D1022070BDFF
:10540000012028702420686020680668026852081D
:10541000520002602068826822F06062114381605D
:10542000204600F007F82068066020206860002011
:10543000287070BD30B400F16802416E002903D1BC
:1054400001205080108016E000688168490E01F04C
:1054500007018068400F00BF0FF2280307A4255CF6
:10546000ED00185C95FBF0F05080605CC000595C6A
:1054700090FBF1F0108030BC704700000101010387
:105480000701000008040204080101017047704789
:105490007047704770477047704770477047704754
:1054A00070477047704770477047704770470000FB
:1054B000BBBBE1B1B2F5803F80F07E80022A1ED9ED
:1054C0008C46B1FBF2F102FB11C31B0443EA10430B
:1054D000B3FBF2FC02FB1C3380B240EA0343B3FB94
:1054E000F2F002FB103240EA0C4000237047022A1F
:1054F00005D98446B0FBF2F002FB10C270474AB1F6
:1055000005D100F0010249085FEA3000704700222F
:105510000023704700F076B90B0002000021002044
:105520007047904271EB030CF6D3B3F5803F2FD256
:10553000F0B5B3FA83F7B1FA81F4A7F10F0E3D1B72
:105540005340CEF1200602FA0EF2F3415340B5F17A
:105550000F0746D80F3C2C444140C4F12006A04020
:10556000F1414140B1FBF3F603FB1611A2FB0645E6
:10557000001BA94102D2761E8018594180EA01021F
:1055800021FA0EF362FA0EF200215A403046F0BDC5
:1055900030B4B1FBF3FC03FB1C11A2FB0C45001B58
:1055A000A94103D2ACF1010C8018594130BC02462C
:1055B0000B46604600217047B2F1807F65D3F0B59D
:1055C000B2FA82F7B1FA81F4C7F10F063D1B22FA55
:1055D00006F307F1110EF24120355A40B5F10F07DD
:1055E000B8D94140C4F12006A040F1414140B1FB8F
:1055F000F3FC03FB1C11A2FB0C45001BA94103D2C9
:10560000BCF1010C801859410F2F12D30F3FC90371
:1056100041EA5041B1FBF3F603FB1611A2FB06452C
:10562000D4EBC030A94102D2761E8018594146EA17
:10563000CC3C07B34140C7F12006B840F14141409E
:10564000B1FBF3F603FB1611A2FB0645001BA941B3
:1056500002D2761E8018594180EA010221FA0EF327
:10566000C7F1200462FA0EF20CFA07F05A402CFA45
:1056700004F13043F0BD80EA010221FA0EF300216B
:1056800062FA0EF260465A40F0BD8C46B1FBF2F170
:1056900002FB11C31B0243EA1063B3FBF2FC02FBE3
:1056A0001C331B024CEA002043EA1063B3FBF2FCFC
:1056B00002FB1C331B024CEA002043EA1063B3FBDD
:1056C000F2FC02FB1C331B024CEA002043EA10638D
:1056D000B3FBF2FC02FB1C324CEA002000237047B3
:1056E0007047704770477047704770477047704702
:1056F0007047704770477047704700005FEA000CC2
:1057000011F8012B00F8012B12B111F8012BF9E768
:105710006046704700F10103810704D010F8011BB7
:10572000820781B1FAD10268A2F10131914311F0EF
:10573000803104BF50F8042FF6E709BAB1FA81F1BD
:1057400000EBD100401CC01A7047000038B50400BF
:105750000D460BD02946204600F055F80444207829
:1057600048B90C4800210160002032BD09490C688D
:10577000002CEFD132BD2946204600F055F8211803
:10578000087810B1002201F8012B02480160204680
:1057900032BD00BF180700207047000062F30F22DF
:1057A00062F31F42401810F0030308D0C91A1FD338
:1057B000DB0748BF00F8012D28BF20F8022D130099
:1057C00030B414461546103928BF20E93C00FAD8F9
:1057D000490728BF20E90C0048BF40F8042D890084
:1057E00028BF20F8022D48BF00F8012D30BC7047BB
:1057F000C91818BF00F8012DCB0728BF00F8012DEC
:1058000070470000704770B4044600E0641C2378C1
:105810003BB10D462A7822B115F8016BB342F9D19C
:10582000F4E7201A70BC704770B4044600E0641CB2
:1058300023783BB10D462A78002AF8D015F8016B81
:10584000B342F8D1201A70BC70470000000000007D
:10585000920E493CB10AC93C2BC3163D2EFB483D74
:10586000752B7B3D04A9963D80B6AF3D36BDC83D46
:105870002FBCE13D73B2FA3D87CF093E8340163E0F
:10588000B5AB223EA2102F3ECF6E3B3EC2C5473E77
:105890000115543E135C603E7F9A6C3ECCCF783E3F
:1058A000C07D823E938E883E229A8E3E32A0943EE8
:1058B00086A09A3EE59AA03E128FA63ED47CAC3ECE
:1058C000EF63B23E2A44B83E491DBE3E15EFC33ECB
:1058D00053B9C93ECA7BCF3E4136D53E80E8DA3E59
:1058E0004F92E03E7533E63EBBCBEB3EEA5AF13ECB
:1058F000CBE0F63E275DFC3EE4E7003F3D9C033FE6
:10590000824B063F9BF5083F6B9A0B3FDA390E3FFF
:10591000CDD3103F2A68133FD9F6153FC07F183FFB
:10592000C6021B3FD17F1D3FCBF61F3F9967223F29
:1059300025D2243F5636273F1594293F4AEB2B3F6B
:10594000DE3B2E3FBB85303FC9C8323FF304353FB5
:10595000233A373F4268393F3B8F3B3FF9AE3D3FEB
:1059600067C73F3F70D8413F01E2433F03E4453FF3
:1059700065DE473F12D1493FF8BB4B3F029F4D3F89
:10598000207A4F3F3D4D513F4918533F31DB543F43
:10599000E595563F5348583F6AF2593F1A945B3F8A
:1059A000532D5D3F05BE5E3F2146603F97C5613F79
:1059B0005A3C633F59AA643F880F663FD86B673FE4
:1059C0003CBF683FA7096A3F0C4B6B3F5E836C3F4F
:1059D00093B26D3F9ED86E3F73F56F3F0809713FDC
:1059E0005213723F4714733FDD0B743F0BFA743F41
:1059F000C6DE753F07BA763FC58B773FF853783FD1
:105A00009812793F9DC7793F02737A3FBE147B3F5E
:105A1000CDAC7B3F283B7C3FC9BF7C3FAC3A7D3F50
:105A2000CCAB7D3F23137E3FB0707E3F6DC47E3F85
:105A3000580E7F3F6D4E7F3FAB847F3F0FB17F3F5E
:105A400097D37F3F43EC7F3F11FB7F3F0000803FB8
:105A500011FB7F3F43EC7F3F97D37F3F0FB17F3FE9
:105A6000AB847F3F6D4E7F3F580E7F3F6DC47E3FBE
:105A7000B0707E3F23137E3FCCAB7D3FAC3A7D3F81
:105A8000C9BF7C3F283B7C3FCDAC7B3FBE147B3FF6
:105A900002737A3F9DC7793F9812793FF853783F58
:105AA000C58B773F07BA763FC6DE753F0BFA743F6A
:105AB000DD0B743F4714733F5213723F0809713F67
:105AC00073F56F3F9ED86E3F93B26D3F5E836C3F20
:105AD0000C4B6B3FA7096A3F3CBF683FD86B673FE1
