:020000040800F2
:10000000180F00206D990008B1960008B9960008F5
:10001000BB960008BD960008BF96000800000000CF
:10002000000000000000000000000000C196000871
:10003000C396000800000000C5960008C796000897
:10004000899900088D9900089199000895990008F0
:10005000D5960008D9960008999900089D9900083E
:10006000A1990008A5990008A9990008DB96000845
:10007000E1960008E7960008ED960008AD990008A3
:10008000B199000800000000B5990008B99900086E
:10009000BD990008F3960008F9960008FF9600083D
:1000A000C1990008C5990008C9990008CD990008B0
:1000B000D1990008D5990008D99900080797000838
:1000C0000D970008DD990008E1990008E5990008FE
:1000D000E9990008ED99000813970008F1990008C4
:1000E00035970008F5990008F9990008FD9900086E
:1000F000019A0008059A0008099A0008000000000B
:10010000000000000D9A000800000000119A00088D
:10011000159A000800000000199A00081D9A0008AE
:10012000219A0008259A0008299A00082D9A0008AB
:10013000319A00080000000000000000359A000815
:10014000399A00083D9A00080000000000000000F5
:10015000000000000000000000000000000000009F
:10016000000000000000000000000000419A0008AC
:10017000459A000800000000000000000000000098
:10018000000000003D970008000000000000000093
:10019000000000000000000000000000000000005F
:1001A0000000000000000000499A00084D9A000875
:1001B000519A0008559A0008599A0008000000005A
:1001C000000000005D9A0008000000000000000030
:1001D000619A0008659A000810B586B0DFF81046ED
:1001E000DFF81006206000206060A060E060012061
:1001F000207400206074A0740A2060610120A06156
:100200000E20E0610220206201206062A062E062B4
:1002100020631C2060630020A063E063204601F09F
:100220006BFB002801D002F0EEFB00200090019053
:100230000290012003900020049040F2FF7005908E
:100240006946204601F034FC002801D002F0DBFBB7
:1002500006B010BD18B597B004460022142101A8BD
:1002600002F00AFC0022442106A802F005FC2068E6
:10027000DFF88015884240D14FF4805006904FF04F
:100280000070129006A802F019FC002801D002F0BC
:10029000BAFBDFF86405C16841F00071C160C16854
:1002A00001F0007100910099016841F001010160C5
:1002B000006800F00100009000984FF4C0500190D9
:1002C0000220029001200390032004900920059051
:1002D00001A94FF0904002F025FD002201211520D8
:1002E00002F06BFE152002F077FE0022012116209D
:1002F00002F063FE162002F06FFE18B010BD3CB491
:10030000049DDFF8F84400F5C060C4F80401012939
:1003100004D0022908D004290ED01BE004F5947003
:100320002F210170057118E004F594702B210170E4
:1003300005712D12457110E004F5947023210170B0
:1003400005712946091241712946091481712D163A
:10035000C57102E0222084F8280104F594704270EF
:1003600012128270C37004F5807036BC2BE118B491
:10037000DFF8881400F50072C1F8042101EB801247
:1003800001F59473DFF87844204410F8010C00283C
:1003900005D032F9260C1870001258700AE052F895
:1003A000240C1870024612125A70024612149A70E7
:1003B0000016D87001F5807012BC04E170B50446D7
:1003C000DFF8385405F5947600220821304602F013
:1003D00053FB0020C5F804013470707005F580707F
:1003E000BDE87040EFE07CB50546DFF8184400201A
:1003F000606046F2400600910346324602212846DC
:10040000FFF77DFF17E094ED010AF7EE000A30EEEA
:10041000200A84ED010AD4ED030AF8EE600AB4EE76
:10042000600AF1EE10FA06DBDFF8DC03DFF8DC131C
:10043000016002F0E8FA2078002808D1DFF8BC0358
:10044000294600EB811030F93E0CB042DBD173BD80
:1004500038B505460C460120DFF8A8130870601C6B
:100460002870DFF8AC1348788A7840EA0220688068
:1004700000B246F23F02801A0AD0801E02D0233812
:100480001BD03BE00879497940EA0120A88031BDC2
:1004900095F8200005EB40000A79497942EA0122EB
:1004A000428495F82000401C85F82000C0B2052841
:1004B0003FD1002085F8200031BD08794A7940EA13
:1004C00002208A7940EA0240C97940EA0160A860C6
:1004D000E96A401A02F090FDCE4ACF4B02F09EFD31
:1004E00041EC100B85ED040BCC4A02EBC402D2E9BF
:1004F000002302F069FEC5E9040131BD08784F28E8
:1005000002D10879286331BD4B2805D10879497992
:1005100040EA0120286331BD43280AD108794A798D
:1005200040EA02208A7940EA0240C97940EA016043
:10053000286331BD38B505460C46601C287046F26C
:1005400066006880B24908784A7840EA0220A880AC
:100550008878CA7840EA0220E88008794A7940EA37
:1005600002208A7940EA0240C97940EA0160A86025
:10057000E96A401A02F040FDA64AA74B02F04EFD80
:1005800041EC100B85ED040BA44A02EBC402D2E946
:10059000002302F019FEC5E90401A888C0F3C000D9
:1005A000401E8041C00F32BD10B5944C8020C4F86D
:1005B00004010022082104F5947002F05DFA04F5AC
:1005C0008070BDE8104070B505468E4C002020704C
:1005D000606015E094ED010AF7EE000A30EE200AA3
:1005E00084ED010AD4ED030AF8EE600AB4EE600A65
:1005F000F1EE10FA04DB84488949016002F003FA45
:1006000028680068006D8005E4D47F4E7068A060A3
:10061000321D0221201D02F0FBFE0020606015E06B
:1006200094ED010AF7EE000A30EE200A84ED010A8B
:10063000D4ED030AF8EE600AB4EE600AF1EE10FAA7
:1006400004DB4FF08140306002F0DDF9286801F0F2
:1006500020FB0028E4D07068A060321D0221201D1C
:1006600002F0D6FE05F12802291D286801F061FA82
:10067000002803D06548306002F0C5F9286800689A
:10068000006DC00405D567483060BDE8704002F0D9
:10069000BAB970BD18B4594B00F5C060C3F8040175
:1006A00003F5947040240470417009128170C27087
:1006B00003F5807012BC86E72DE9F0410746514CE6
:1006C0000020606046F24108024641463846FFF786
:1006D000E1FF15E094ED010AF7EE000A30EE200A82
:1006E00084ED010AD4ED030AF8EE600AB4EE600A64
:1006F000F1EE10FA04DB44484449016002F083F94A
:100700003E48394610EB8115A5F13E0620780028B9
:1007100003D1B6F900004045DCD13B484168A160F7
:10072000021D0221201D02F073FE7088C0F3C0007C
:10073000002821D046F23F08002241463846FFF704
:10074000A9FF2078002803D1B6F900004045F8D071
:10075000B07F001D052190FBF1F101EB8101401AF2
:1007600005EB400030F81E0C48F21011884203D10E
:100770003846BDE8F04157E0BDE8F08170B5054668
:10078000204C0020606046F264060246314628464E
:10079000FFF780FF15E094ED010AF7EE000A30EE56
:1007A000200A84ED010AD4ED030AF8EE600AB4EEE3
:1007B000600AF1EE10FA04DB13481449016002F0FC
:1007C00022F92078002807D10C48294600EB811037
:1007D00030F93E0CB042DED10B484168A160021DE9
:1007E0000221201DBDE8704002F012BE0000000092
:1007F00050090020006400404C100240000000201E
:10080000EC030020F0030020640200200000A04060
:10081000580100205D8940F50F22493FB8020020B1
:10082000000040400000C04010B504468021FFF7A2
:10083000DAFD2046BDE810403EE700002DE9F84F04
:100840002DED108B88B0DFF8A46E96ED1E8BD6E9E7
:100850000E0153EC182B02F0D9FECDE90601D6E9C2
:10086000102351EC180B02F013FECDE90401D6E978
:10087000120153EC182B02F0C9FECDE90201D6E9B2
:10088000142351EC180B02F003FE41EC180B8021ED
:100890004FF0904002F010FBDFF8541E0870B17862
:1008A000DFF8507E01280ED1002901D00020B07061
:1008B000F078002840F09C8602F01AFF3081012079
:1008C000F07000F095BE002906D102F011FF3081D2
:1008D0000120B0700020F07007F19004D7E90423E4
:1008E000D4E9000102F0D4FD41EC190B86ED169B12
:1008F000D7E91423D4E9100102F0CAFD41EC1A0B28
:1009000086ED18AB7078401E052800F28182DFE882
:1009100010F006005B00D0007101C6011B029FEDC4
:100920009FBB9FEDA0CB9FEDA1DB9FEDA2EB53EC16
:10093000192B51EC1D0B02F071FB53EC192B02F03B
:100940006DFB8046894653EC192B51EC1C0B02F0D1
:1009500065FB42464B4602F09BFD53EC1B2B02F01D
:1009600097FD53EC1E2B02F059FB53EC192B02F0B0
:1009700055FB81F00041C6E90A0153EC1A2B51ECFA
:100980001D0B02F04BFB53EC1A2B02F047FB804689
:10099000894653EC1A2B51EC1C0B02F03FFB4246EC
:1009A0004B4602F075FD53EC1B2B02F071FD53EC2E
:1009B0001E2B02F033FB53EC1A2B02F02FFB81F0BD
:1009C0000041C6E90C0123E2DFF82C0DD0E9002339
:1009D000DFF8280DD0E9000102F020FB80468946AF
:1009E000DFF81C0DD0E90001DFF8182DD2E9002353
:1009F00002F014FB42464B4602F04AFD41EC1B0B51
:100A00009FED6ECB9FED6FDB9FED70EB9FED71FB6C
:100A100053EC192B51EC1E0B02F000FB53EC192B7D
:100A200002F0FCFA8046894653EC192B51EC1D0B61
:100A300002F0F4FA42464B4602F02AFD53EC1C2B1E
:100A400002F026FD53EC1B2B02F0E8FA53EC192BB5
:100A500002F0E4FA53EC1F2B02F0E0FAC6E90A01B7
:100A600053EC1A2B51EC1E0B02F0D8FA53EC1A2B54
:100A700002F0D4FA8046894653EC1A2B51EC1D0B38
:100A800002F0CCFA42464B4602F002FD53EC1C2B1E
:100A900002F0FEFC53EC1B2B02F0C0FA53EC1A2BB5
:100AA00002F0BCFA53EC1F2B02F0B8FAC6E90C01B5
:100AB000AEE1DFF8440CD0E90023DFF8400CD0E9C8
:100AC000000102F0ABFA80468946DFF8340CD0E929
:100AD0000001DFF8302CD2E9002302F09FFA4246F1
:100AE0004B4602F0D5FC41EC1B0B9FED3ACB9FED42
:100AF0003BDB9FED3CEB9FED3DFB53EC192B51ECA9
:100B00001F0B02F08BFA53EC192B02F087FA804688
:100B1000894653EC192B51EC1E0B02F07FFA42462A
:100B20004B4602F0B5FC53EC1D2B02F0B1FC53EC2C
:100B30001B2B02F073FA53EC192B02F06FFA53ECF3
:100B40001C2B02F06BFAC6E90A0153EC1A2B51EC8C
:100B50001F0B02F063FA53EC1A2B02F05FFA804687
:100B6000894653EC1A2B51EC1E0B02F057FA424601
:100B70004B4602F08DFC53EC1D2B02F089FC53EC2C
:100B80001B2B02F04BFA53EC1A2B02F047FA53ECF2
:100B90001C2B02F043FAC6E90C0139E12ECA6C9015
:100BA00049C614C027DA5548F949D23FB8921D1BEF
:100BB0008178D73F0000000000408F4054E3A59BA0
:100BC000C4C455C00000000000003AC03FC6DCB5F8
:100BD000847C304075931804564E20C0C364AA60CC
:100BE000544262C07FD93D7958A843403BDF4F8DC6
:100BF000976EFE3F9FEDBBBB9FEDBCCB9FEDBDDB7A
:100C00009FEDBEEB53EC192B51EC1D0B02F006FAD5
:100C100053EC192B02F002FA8046894653EC192B4B
:100C200051EC1C0B02F0FAF942464B4602F030FC44
:100C300053EC1B2B02F02CFC53EC1E2B02F0EEF9B4
:100C400053EC192B02F0EAF981F00041C6E90A01E0
:100C500053EC1A2B51EC1D0B02F0E0F953EC1A2B5C
:100C600002F0DCF98046894653EC1A2B51EC1C0B40
:100C700002F0D4F942464B4602F00AFC53EC1B2B1F
:100C800002F006FC53EC1E2B02F0C8F953EC1A2BB1
:100C900002F0C4F981F00041C6E90C01B8E09FED13
:100CA000DABB9FEDDBCB9FEDDCDB9FED94EB53ECF0
:100CB000192B51EC1D0B02F0B1F953EC192B02F07A
:100CC000ADF98046894653EC192B51EC1C0B02F010
:100CD000A5F942464B4602F0DBFB53EC1B2B02F01E
:100CE000D7FB53EC1E2B02F099F953EC192B02F0B1
:100CF00095F981F00041C6E90A0153EC1A2B51EC39
:100D00001D0B02F08BF953EC1A2B02F087F9804689
:100D1000894653EC1A2B51EC1C0B02F07FF942462A
:100D20004B4602F0B5FB53EC1B2B02F0B1FB53EC2E
:100D30001E2B02F073F953EC1A2B02F06FF981F0BD
:100D40000041C6E90C0163E051EC190B02F0D6FC3E
:100D500000EE100A02F006FDB0EE40AA9FED679B80
:100D6000DFF8A0A9DFF89899DFF89089DFF88859B3
:100D7000D5E90023D8E9000102F050F9CDE90001DE
:100D8000D9E90023DAE9000102F048F9DDE900239E
:100D900002F07EFBCDE900011AEE100A02F028FDF8
:100DA000DDE9002302F03AF953EC192B02F036F991
:100DB000C6E90A01D6E9180102F0A0FC00EE100A0B
:100DC00002F0D0FCB0EE40AAD5E9000102460B4685
:100DD000D8E9000102F022F9CDE90001D9E90001CA
:100DE000DAE9002302F01AF9DDE9002302F050FBF2
:100DF000804689461AEE100A02F0FAFC42464B463B
:100E000002F00CF953EC192B02F008F9C6E90C01B9
:100E10003078401E052800F2E382DFE810F006007B
:100E2000730001019301F001750297ED04AB9FED92
:100E3000BD9B9FEDBEBB9FEDBFCB9FED30DB53EC69
:100E40001A2B51EC1C0B02F0E9F853EC1A2B02F0B0
:100E5000E5F88046894653EC1A2B51EC1B0B02F047
:100E6000DDF842464B4602F013FB53EC192B02F01F
:100E70000FFB53EC1D2B02F0D1F853EC1A2B02F0B0
:100E8000CDF8D6E90A2302F003FBC6E9060197ED87
:100E900014AB53EC1A2B51EC1C0B02F0BFF853ECC3
:100EA0001A2B02F0BBF88046894653EC1A2B51EC02
:100EB0001B0B02F0B3F842464B4602F0E9FA53EC42
:100EC000192B02F0E5FA53EC1D2B02F0A7F853ECB6
:100ED0001A2B02F0A3F8D6E90C2302F0D9FAC6E9DE
:100EE00008017DE21B118C834BC711C0F6EFFACCD1
:100EF000599FF7BF4E9D47C5FF1DEF3F0000000003
:100F000000408F40DFF80808D0E90023DFF8FC0735
:100F1000D0E9000102F082F880468946DFF8E80750
:100F2000D0E90001DFF8DC27D2E9002302F076F8EF
:100F300042464B4602F0ACFA41EC190B97ED04BB6C
:100F40009FEDDDAB9FEDDECB9FED7CDB9FEDDEEB20
:100F500053EC1B2B51EC1D0B02F060F853EC1B2BD8
:100F600002F05CF88046894653EC1B2B51EC1C0BBD
:100F700002F054F842464B4602F08AFA53EC1A2B20
:100F800002F086FA53EC192B02F048F853EC1B2BB5
:100F900002F044F853EC1E2B02F040F8D6E90A2385
:100FA00002F076FAC6E9060197ED14BB53EC1B2B51
:100FB00051EC1D0B02F032F853EC1B2B02F02EF813
:100FC0008046894653EC1B2B51EC1C0B02F026F893
:100FD00042464B4602F05CFA53EC1A2B02F058FAE8
:100FE00053EC192B02F01AF853EC1B2B02F016F8F5
:100FF00053EC1E2B02F012F8D6E90C2302F048FA4B
:10100000C6E90801ECE100BF2FA3586E693511C095
:101010001FF46C567DAEF1BFFB96395D1613E83FA9
:10102000DFF8EC06D0E90023DFF8E006D0E90001A4
:1010300001F0F4FF80468946DFF8CC06D0E90001D4
:10104000DFF8C026D2E9002301F0E8FF42464B4614
:1010500002F01EFA41EC190B97ED04BB9FED9AAB21
:101060009FED9BCB9FED9CDB9FED9DEB53EC1B2BF2
:1010700051EC1E0B01F0D2FF53EC1B2B01F0CEFF05
:101080008046894653EC1B2B51EC1D0B01F0C6FF2B
:1010900042464B4602F0FCF953EC1C2B02F0F8F9E7
:1010A00053EC192B01F0BAFF53EC1B2B01F0B6FFE8
:1010B00053EC1A2B01F0B2FFD6E90A2302F0E8F94B
:1010C000C6E9060197ED14BB53EC1B2B51EC1E0B2C
:1010D00001F0A4FF53EC1B2B01F0A0FF80468946D2
:1010E00053EC1B2B51EC1D0B01F098FF42464B4675
:1010F00002F0CEF953EC1C2B02F0CAF953EC192B79
:1011000001F08CFF53EC1B2B01F088FF53EC1A2BE2
:1011100001F084FFD6E90C2302F0BAF9C6E9080110
:101120005EE100BF26AAB706B6BA25406DCA15DE35
:10113000E522CEBF037D224F922EF3BFA7E8482EB3
:10114000FF611CC097ED04AB9FED679B9FED68BBF3
:101150009FED69CB9FED6ADB53EC1A2B51EC1C0B16
:1011600001F05CFF53EC1A2B01F058FF80468946D2
:1011700053EC1A2B51EC1B0B01F050FF42464B462F
:1011800002F086F953EC192B02F082F953EC1D2B77
:1011900001F044FF53EC1A2B01F040FFD6E90A237B
:1011A00002F076F9C6E9060197ED14AB53EC1A2B61
:1011B00051EC1C0B01F032FF53EC1A2B01F02EFF07
:1011C0008046894653EC1A2B51EC1B0B01F026FF8D
:1011D00042464B4602F05CF953EC192B02F058F9E9
:1011E00053EC1D2B01F01AFF53EC1A2B01F016FFE4
:1011F000D6E90C2302F04CF9C6E90801F0E097EDBE
:1012000004AB9FEDD79B9FEDD8BB9FEDD9CB9FED56
:101210003CDB53EC1A2B51EC1C0B01F0FFFE53ECA2
:101220001A2B01F0FBFE8046894653EC1A2B51EC39
:101230001B0B01F0F3FE42464B4602F029F953EC3A
:10124000192B02F025F953EC1D2B01F0E7FE53ECAE
:101250001A2B01F0E3FED6E90A2302F019F9C6E9D8
:10126000060197ED14AB53EC1A2B51EC1C0B01F05B
:10127000D5FE53EC1A2B01F0D1FE8046894653EC83
:101280001A2B51EC1B0B01F0C9FE42464B4602F0F3
:10129000FFF853EC192B02F0FBF853EC1D2B01F077
:1012A000BDFE53EC1A2B01F0B9FED6E90C2302F077
:1012B000EFF8C6E9080193E0098A1F63EE0A4A4085
:1012C0003CBD5296210E0D403D7E6FD39F2D304088
:1012D000AAF1D24D62504B4012A5BDC1172618404D
:1012E00011C7BAB88D8621C0CA32C4B12EB6234008
:1012F00099F04BFDBCA9B43F8481E7DEC325F3BF61
:101300000000000000408F40D7E9040102F0F6F928
:1013100000EE100A02F026FAB0EE40AADFF8E8A3C9
:10132000DFF8E883DFF8E8539FEDD79BDFF8D4B30D
:10133000D5E90023D8E9000101F070FECDE90001F4
:10134000DAE90023DBE9000101F068FEDDE90023B2
:1013500002F09EF8CDE900011AEE100A02F048FAF8
:10136000DDE9002301F05AFE53EC192B01F056FE83
:10137000D6E90A2302F08CF8C6E90601D7E9140180
:1013800002F0BCF900EE100A02F0ECF9B0EE40AA4F
:10139000D5E9000102460B46D8E9000101F03EFE06
:1013A00080468946DAE90001DBE9002301F036FED8
:1013B00042464B4602F06CF8804689461AEE100A07
:1013C00002F016FA42464B4601F028FE53EC192B68
:1013D00001F024FED6E90C2302F05AF8C6E9080110
:1013E0003079422862D04C2831D0522840F0C48055
:1013F00000200146C6E90801C6E90C01D4E9000154
:10140000DDE9062302F018FA03D800200146C6E9F8
:101410000A01D7E90401DDE9022302F00DFA03D83D
:1014200000200146C6E90601DFF8A044D6E90A23F8
:10143000D4E9040101F0F2FDC6E90A01D6E9062368
:10144000D4E9000101F0EAFDC6E906019EE00020B2
:101450000146C6E90601C6E90A01DDE90401D4E94D
:10146000102302F0E9F903D800200146C6E90C0177
:1014700051EC180BD7E9142302F0DEF903D8002051
:101480000146C6E90801DFF84444D6E90C23D4E953
:10149000060101F0C3FDC6E90C01D6E90823D4E931
:1014A000020101F0BBFDC6E908016FE0D4E90001CB
:1014B000DDE9062302F0C0F904D800200146C6E9A0
:1014C0000A0109E0D6E90A23DFF80004D0E90401A3
:1014D00001F0A4FDC6E90A01D7E90401DDE9022310
:1014E00002F0AAF904D800200146C6E9060109E085
:1014F000D6E90623DFF8D403D0E9000101F08EFD20
:10150000C6E90601DDE90401D4E9102302F094F9EB
:1015100004D800200146C6E90C0109E0D6E90C23F5
:10152000DFF8A803D0E9060101F078FDC6E90C0157
:1015300051EC180BD7E9142302F07EF904D80020EF
:101540000146C6E9080121E0D6E90823DFF87C035B
:10155000D0E9020101F062FDC6E9080116E000BF12
:101560009D11A5BDC1772340C53D963E7441E7BF9F
:1015700081423D7D047EE2BF00200146C6E90601AE
:10158000C6E90801C6E90A01C6E90C01B0780028DD
:101590002ED002F0ADF83189401A7081B6F806A05D
:1015A000B6F80A90D14523D24FF000081DE0484616
:1015B00002F05CF906F1180202EBC802D2E900233E
:1015C00001F02CFD04460D46504602F04FF902464C
:1015D0000B462046294601F0F7FD06F1180202EB02
:1015E000C802C2E9000108F10108B8F1030FDEDD0D
:1015F000F078002845D002F07BF83189401A7081DC
:10160000B6F806904FEA5909B6F80AA0CA4538D28A
:101610004FF0000832E048465146401A01F0ECFC19
:1016200006F1180202EBC802D2E9002301F0F6FC31
:1016300004460D46484602F019F902460B4620467C
:10164000294601F0C1FD41EC100B06F1180000EB3A
:10165000C80080ED000B51EC100BDFF87422DFF8AE
:10166000743202F011F907D206F1180000EBC8023B
:1016700000200146C2E9000108F10108B8F1030F9A
:10168000C9DD00242BE000BF0000000000408F40B7
:1016900006F1180000EBC400D0E90001DFF83822A1
:1016A00002EBC402D2E9002301F08EFDDFF82C2208
:1016B000D2E9002301F088FD0022DFF8243201F096
:1016C000ADFCDFF8202202EBC402D2E9002301F0D6
:1016D000A5FC02F0F3F807EB84114883641C032C8B
:1016E000D6DD08B0BDEC108BBDE8F18F7001002095
:1016F000FE01002000000020A8020020A00200201F
:101700008002002088020020780200209802002039
:10171000900200201CB5012489E0082000900023DD
:1017200001212046C0B2FEF7EAFD002000900346EA
:101730004FF4B05201212046C0B2FEF7E0FD6B48E5
:10174000009001234FF4B05204212046C0B2FEF7AE
:10175000D6FD0120009000234FF4B05201462046F0
:10176000C0B2FEF7CCFD40F6C4100090002346F254
:10177000650204212046C0B2FEF7C1FD31E02046DB
:10178000C0B2FEF799FF46F260025948204410F8B3
:10179000010C0028C1D00A2000900023012120461E
:1017A000C0B2FEF7ACFD0020009003464FF4B052EB
:1017B00001212046C0B2FEF7A2FD4E480090012351
:1017C0004FF4B05204212046C0B2FEF798FD01202C
:1017D000009000234FF4B05201462046C0B2FEF7FD
:1017E0008EFD00200090034642F2010201212046B6
:1017F000C0B2FEF784FD4FF4AF50009000234FF4C9
:10180000C14204212046C0B2FEF779FD4AF2BC4035
:101810000090052343F2010204212046C0B2FEF7E6
:101820006EFD00212046C0B2FEF7DDFD641C052CD4
:10183000A5DB322002F05EF88020BDE81640FEF7FE
:10184000BDBD30B4284A91880B46C3F3C0000028C0
:1018500014D1B2F844402046C0F3C00000280DD196
:10186000B2F884502846C0F3C000002806D1B2F870
:10187000C4201046C0F3C000002801D0002023E09F
:10188000A14209D1A94207D1914205D1AC4203D16D
:10189000944201D1954201D0012015E00846400A4A
:1018A00001D1022010E0C3F38010002801D00320F2
:1018B0000AE001F00500052801D1052004E0C80771
:1018C00001D5042000E0062030BC70471002002043
:1018D000FCA9F1D24D62503FB8020020B0020020B6
:1018E00000408F40D80200200000002020007A60D5
:1018F000EC0300201000716070B5040001D10120DC
:1019000070BD04F15C052878002804D100206870BF
:101910002046FEF79FFC2068816921F0100181615B
:1019200001F0E6FE06462068816909070CD501F042
:10193000DFFE801B0B28F6D3686840F0010068606A
:1019400003202870012070BD816941F0010181618F
:1019500001F0CEFE064620688169C9070CD401F06B
:10196000C7FE801B0B28F6D3686840F00100686052
:1019700003202870012070BD816941F0020181615E
:1019800020684949884202D1606848490860206857
:10199000217C0129816903D121F04001816102E0AC
:1019A00041F0400181612068617C0129816903D196
:1019B00041F48041816102E021F48041816120682D
:1019C000A17C0129816903D121F48051816102E068
:1019D00041F48051816121688A6922F44072A068D3
:1019E00002438A612068816921F0A4018161206835
:1019F000016921F010010161E068012805D120682A
:101A0000816941F00401816119E0002817D0216843
:101A10000228886910D040F0800088612068016940
:101A200041F010010161E068032808D12068816954
:101A300041F02001816102E040F020008861A0694E
:101A4000401EE169491E090241EA4061206A401EC8
:101A500001436069401E41EA00412068C161A068FD
:101A6000B0F5407F0FD1A06A401EE16A491E40EAEE
:101A70000120216B491E40EA0110616A491E40EABB
:101A800001402168C8602168D1F8C020E06B0243A2
:101A9000C1F8C020204600F03FFA0020A065686031
:101AA00001202870002070BD0064004000650040E7
:101AB00070B400F15C021378012B01D0022B1CD111
:101AC0008A6892074B684C690D69CE6809680029DD
:101AD00009D142EAC66242EA05422243006C00EBA9
:101AE0008300026007E02243406C00EBC30045EA3C
:101AF000467505604260002004E0506840F0020036
:101B00005060012070BC704700F15C010A78012A26
:101B100009D102220A70006882695208520082616B
:101B2000002048607047486840F004004860012089
:101B3000704738B5044604F15C000378022B1BD1D2
:101B40002368D3F8C450AD0205D5416841F4007153
:101B50004160012032BDD3F8C400C0F301452B46DB
:101B6000204600F013FA012000FA05F52068C0F8BD
:101B7000CC50A565002032BD416841F008014160AC
:101B8000012032BDF0B400F15C042578022D6DD146
:101B900005689035402912D12E6816F00F0F05D137
:101BA000606840F480706060012064E02C68C4F3D9
:101BB0000125866C05EBC50406EBC40611E0AE6892
:101BC00016F00F0F05D1606840F48070606001204E
:101BD00051E0AC68C4F30125C66C05EBC50406EB07
:101BE000C406346814F080445460376803D1C7F3E6
:101BF0008A44146002E027F060471760346804F0FC
:101C00000054946056F8044B04F0004414613468A6
:101C1000A4B2D461346804F47024D460346804F449
:101C200080145461346804F4001494613468C4F37B
:101C30000664146256F8044BE40F5462002402E078
:101C4000375D1F55641C0FF2B437D2F80CC04FEA51
:101C50001C4C17F80C70BC42F2D300689430402939
:101C600001D1056000E08560002004E0606840F07C
:101C7000080060600120F0BC704700689030402987
:101C800003D1006800F00F007047806800F00F007B
:101C900070470068D0F8C40000F00700704730B407
:101CA00000F15C031C78012C01D0022C66D1046881
:101CB000A36D11F0070F01D0DD071DD511F0380F0E
:101CC00001D09D0718D511F4E07F01D05D0713D531
:101CD00011F4F05F01D01D070ED511F4604F01D053
:101CE000DD0609D511F4403F01D09D0604D511F45D
:101CF0007C0F05D05D0603D4E56D45F00105E56573
:101D000011F0070F01D0DC071DD411F0380F01D0FE
:101D10009C0718D411F4E07F01D05C0713D411F4B0
:101D2000F05F01D01C070ED411F4604F01D0DC0627
:101D300009D411F4403F01D09C0604D411F47C0F67
:101D400006D05B0604D50368DC6D44F00204DC6554
:101D50000B0605D50368D3F8DC401443C3F8DC4018
:101D6000CB0505D50368D3F8E0402243C3F8E02053
:101D70000068426D11434165002004E0586840F05E
:101D800002005860012030BC70472DE9F8438146BD
:101D9000D9F800100C6D04F4E054486D04400D6D4A
:101DA00005F00705486D05400E6D06F03806486DD4
:101DB0000640D1F8508008F47108486D00EA080820
:101DC0000F6D07F46027486D0740086D400607D582
:101DD000486D400604D540200865484601F09EFD48
:101DE000D9F80020106DC0050DD5506DC0050AD57D
:101DF00002F1D8000168806801404FF480701065DE
:101E0000484601F08CFD002C06D0D9F8000004658E
:101E10002146484601F084FD002D06D0D9F8000087
:101E200005652946484600F02EFC002E06D0D9F85C
:101E3000000006653146484601F073FDD9F8000000
:101E4000016D890508D5416D890505D54FF40071EF
:101E50000165484600F011FCD9F80020106D00061D
:101E60000CD5506D000609D502F1D40001688068D8
:101E7000014080201065484601F054FDD9F800006B
:101E8000016D890408D5416D890405D54FF40051D1
:101E90000165484601F047FDD9F80000016D0904CD
:101EA00008D5416D090405D54FF400410165484648
:101EB00001F03AFDD9F80000016D49040BD5416DE0
:101EC000490408D54FF480410165D9F8600040F01D
:101ED0008000C9F86000002F06D0D9F8000007651F
:101EE0003946484601F021FDB8F1000F09D0D9F874
:101EF0000000C0F85080D9F8600048EA0008C9F82E
:101F00006080D9F86000002804D04846BDE8F2435C
:101F100001F00CBDBDE8F18310B4154901640268FD
:101F2000D2F8803023F4F813446B43EA0443C2F838
:101F30008030104A42640268D2F8803023F0706327
:101F4000846B43EA0463C2F880300B4A82640B4A14
:101F5000C2640B4A02650B4A426502E00020086039
:101F6000091D09488142F9D310BC704700000000E8
:101F700000A4004070A40040B0A4004088A5004028
:101F800060A6004078A6004050A7004070B40D69DC
:101F90008C6825430E684C68002C02D145EA8645C2
:101FA00002E0354345F080450C6ACE6946EA046696
:101FB0008C6926434C692643CC682643406D03EB6D
:101FC000C30400EBC40005604660083000230DE048
:101FD000D418E578A678360446EA0566657846EAB8
:101FE00005262478264340F8046B1B1D03A4CD6806
:101FF0002D0C645DA342EBD370BC7047000102035B
:1020000004050607080C10141820304080B501F0B4
:102010008FFC00F00FF801F0A7FC01F0F5FCFEF7D3
:10202000DBF801F029FD01F001FE00F03EF800F0C0
:1020300015FAFCE700B593B00022382105A800F09E
:102040001BFD00221421684600F016FD002001F05F
:10205000BBFE012005904FF48030069002200C90CA
:1020600003200D9006200E9055200F900220109016
:102070001190129005A801F01FFF002801D000F078
:10208000C2FC0F20009003200190002002900390DA
:1020900004900421684602F0FBF8002801D000F00B
:1020A000B2FC02F013FA13B000BD10B572B6DFF83F
:1020B00080492046D4F8A81088474FF480722169DF
:1020C000206802F0E0FA002801D000F09CFCDFF864
:1020D00064492068FFF718FD002801D000F093FC48
:1020E0000022A16E2068FFF7DAFD002801D000F081
:1020F0008AFC07224FF42071DFF83C09FFF7CFFD7F
:10210000002801D000F07FFC0020A060E0604FF4C8
:102110000020206100206061A061E06120626062B7
:1021200062B6FFF7F7FA00200AE001EB8011898818
:10213000402904D0DFF80419DFF804294A67401C5D
:10214000DFF800190428F0DB91F82000401D05227B
:1021500090FBF2F202EB8202801A01EB40000121B7
:10216000418480214FF0904000F0A6FEDFF8CC18AB
:10217000887310BD70B52DED048B0446DFF8BC5894
:102180000021A06E03F028F985ED100A0021E06E11
:1021900003F022F985ED110A0021206F03F01CF9EC
:1021A00085ED120A0021606F03F016F9B0EE408A47
:1021B00085ED138ADFF8906896ED1A9B286C01F084
:1021C00017FB53EC192B00F029FFC6E90201686CDC
:1021D00001F00EFB53EC192B00F020FFC6E90401BF
:1021E000A86C01F005FB53EC192B00F017FFC6E9B2
:1021F000080118EE100A01F0FBFA53EC192B00F05D
:102200000DFFC6E90A01A06F03F096F9401E804158
:10221000C043C00F3070BDEC048B70BD70B52DEDA8
:10222000028BDFF81848D4F88000401CC4F8800006
:10223000E06F401CE067FFF704FBA075A07D00285D
:1022400004D18020A0740020E07400E1022800F096
:10225000FE80E06F062806D3002060752075FEF72B
:10226000A3F90020E067607D042840F0F080207D25
:10227000062840F0E680E07A002800F0D38094ED54
:10228000120AB5EE400AF1EE10FA06D194ED130AE7
:10229000B5EE400AF1EE10FA66D0DFF8AC57DFF881
:1022A000A467D6E90401D5E9042301F0AFF9C6E932
:1022B0000401D6E91423D5E90A0101F0E9F8C6E9D9
:1022C00014019FED648BD5E9022351EC180B01F04A
:1022D000DFF801F013FA00EE100A03F033F910EE04
:1022E000100A01F085FAC4E90801D5E9022351EC8E
:1022F000180B01F0CDF801F001FA00EE100A03F01E
:1023000021F910EE100A01F073FAC4E90C01D5E9C5
:10231000082351EC180B01F0BBF801F0EFF900EEC7
:10232000100A03F00FF910EE100A01F061FAC4E987
:102330000A01D5E9082351EC180B01F0A9F801F0C6
:10234000DDF900EE100A03F0FDF810EE100A01F0BE
:102350004FFAC4E90E0195ED080B84ED140B95EDD1
:102360000A0B84ED160B5DE0DFF8DC56DFF8D4666F
:10237000D6E90401D5E9042301F048F9C6E90401CE
:10238000D6E91423D4E9160101F082F8C6E9140154
:102390009FED308BD5E9022351EC180B01F078F852
:1023A00001F0ACF900EE100A03F0CCF810EE100AC0
:1023B00001F01EFAC4E90801D5E9022351EC180B1B
:1023C00001F066F801F09AF900EE100A03F0BAF88D
:1023D00010EE100A01F00CFAC4E90C01D4E9142340
:1023E00051EC180B01F054F801F088F900EE100AD6
:1023F00003F0A8F810EE100A01F0FAF9C4E90A0196
:10240000D4E9142351EC180B01F042F801F076F9ED
:1024100000EE100A03F096F810EE100A01F0E8F949
:10242000C4E90E01FEF70AFA012504E02846C0B20D
:10243000FDF79DFF6D1C052DF8DB002060752075F4
:1024400005E04FF07E506067002060752075BDECA0
:10245000028B70BD00000060FB21F9BF2DE9F04147
:1024600088B0DFF8D84501F043F9E066DFF8C055E1
:102470002846D5F8AC108847D4F88000322805D318
:10248000012060700020C4F8800001E0002060702E
:102490006078002855D0DFF8AC0500F1C40191F850
:1024A0001CE000F18402137F00F14406377F90F8AE
:1024B00020C04FF005089EFBF8F808EB8808AEEB4B
:1024C000080E00EB4E0EBEF8E2E0CDF81CE04FF037
:1024D000050E93FBFEFE0EEB8E0EA3EB0E0300EB40
:1024E0004303B3F8A2300693052397FBF3F303EB02
:1024F0008303FF1A00EB4703B3F86230059305230B
:102500009CFBF3F303EB8303ACEB030C00EB4C03FA
:102510005B8C0493098803911188029131880191A1
:1025200080880090E37CA27C0FF22C51E86803F0D5
:1025300051F8E86803F06EF8014689B2284603F0C6
:1025400085F8E078002806D0A07CFDF737FF002052
:10255000E07001206071207900280DD0012505E090
:10256000E17C2846C0B2FDF73EFF6D1C052DF7DB70
:102570000020207101206071A07800280BD0012577
:1025800005E00B212846C0B2FDF72DFF6D1C052D7F
:10259000F7DB0020A070E07900280AD0012504E0D4
:1025A0002846C0B2FEF7EAF86D1C052DF8DB0020C6
:1025B000E071207A00280CD0012504E02846C0B242
:1025C000FEF732F96D1C052DF8DB0020207201208A
:1025D0006071A07900281AD00126DFF8685409E05C
:1025E0003046C0B2FEF7CAF805EB861038380168ED
:1025F0004162761C052EF3DB05F14400806A6066BB
:1026000005F1C400806A6438A0660020A071607A79
:10261000002808D0628BD2B2B4F96010207CFEF79B
:1026200039F800206072A07A00280BD0206F00904B
:10263000638BDBB2B4F96020617C207CFDF75FFE28
:102640000020A072607900280AD0012504E0284605
:10265000C0B2FEF731F86D1C052DF8DB002060716B
:10266000607B002801D000F0BEF801F041F8E16E77
:10267000401AE07308B0BDE8F081DFF8D0030178BC
:10268000491C0170704770B50268136D5B0701D576
:1026900004231365DFF89C532C680068226890427D
:1026A0004BD1A86E014248D0DFF8906305F1580382
:1026B00005F13002696E2046FFF764FA002805D064
:1026C0004FF08040706700F09EF926E0286B00F024
:1026D0007F01491E317000F4F0603083B0F5C07F97
:1026E00009D0B0F5B06F18D1C9B2D64800EB81104F
:1026F000426B904711E0707D401C7075307D08186A
:102700003075C9B2CF4800EB8110826B9047012829
:1027100003D00120B0708020B0744021C648FFF77C
:10272000ACFA022809D305F1580305F13002696EAD
:102730002868FFF727FA0028F5D170BD6EE510B5BF
:102740000446B0F5007F16D14FF400714FF0904071
:1027500000F0B2FB00280ED1B84CFFF772F8A0755C
:10276000A07D022802D10120A07401E08020A07485
:102770000120E07010BDB4F5806F33D14FF480615B
:102780004FF0904000F098FB00282BD1AB4CE07D3F
:10279000002810D10120A071E075AA4890F82010FF
:1027A000052291FBF2F202EB8202891A00EB410052
:1027B0000021418410BDFFF744F8A075A07D0328D7
:1027C00002D10620E0740BE0042802D10F20E0744F
:1027D00006E0052802D10020E07401E00020E0744A
:1027E0000120207110BD70B52DED0E8B82B0984C7C
:1027F00004F18005974E0120019000950346A289BF
:10280000A221304603F00BF8002801D000F0FBF8BD
:10281000304603F080F92028FAD1304603F07EF9E3
:102820000428E8D0032001F065F806200190009408
:102830000123A289A221304603F08CF8002801D0A0
:1028400000F0E1F8304603F066F92028FAD130466E
:1028500003F064F90428E8D0032001F04BF80120CC
:10286000019000950346A289A621304602F0D7FFC9
:10287000002801D000F0C7F8304603F04CF92028BA
:10288000FAD1304603F04AF90428E8D0032001F0D9
:1028900031F806200190A01D00900123A289A621F5
:1028A000304603F057F8002801D000F0ACF830466D
:1028B00003F031F92028FAD1304603F02FF904282B
:1028C000E7D0032001F016F82078617840EA012073
:1028D00000B200F091FB41EC180B94ED1C9B53EC03
:1028E000182B51EC190B00F099FBC4E90401A078F6
:1028F000E17840EA012000B200F07EFB41EC1A0BC7
:1029000053EC1A2B51EC190B00F088FBC4E90601BB
:102910002079617940EA012000B200F06DFB41ECC2
:102920001B0B53EC1B2B51EC190B00F077FBC4E98C
:102930000801A079E17940EA012000B200F05CFBD7
:1029400041EC1C0B53EC1C2B51EC190B00F066FBFB
:10295000C4E90A01207A617A40EA012000B200F05D
:102960004BFB41EC1D0B53EC1D2B51EC190B00F0F4
:1029700055FBC4E90C01A07AE17A40EA012000B2DB
:1029800000F03AFB41EC1E0B53EC1E2B51EC190BE3
:1029900000F044FBC4E90E0194ED1E9B2A4C53EC5D
:1029A000182B51EC190B00F039FBC4E9020153EC70
:1029B0001A2B51EC190B00F031FBC4E9040153EC64
:1029C0001B2B51EC190B00F029FBC4E9060153EC59
:1029D0001C2B51EC190B00F021FBC4E9080153EC4E
:1029E0001D2B51EC190B00F019FBC4E90A0153EC43
:1029F0001E2B51EC190B00F011FBC4E90C0102B0C5
:102A0000BDEC0E8B70BD38B50C4C012020738020BE
:102A1000A0740620E074012505E0E17C2846C0B2E0
:102A2000FDF7E1FC6D1C052DF7DB72B6FEE700003B
:102A3000600400200001002050090020F001002067
:102A40000000C04000000020F8020020F009002033
:102A500068030020040400200A25642C25642C252A
:102A6000642C25642C25642C25642C25642C256479
:102A70002C25642C25640D0062F30F2262F31F42A3
:102A800000B500BF130096469446103928BFA0E851
:102A90000C50FAD85FEA417C28BF0CC048BF40F810
:102AA000042BC90728BF20F8022B48BF00F8012BD0
:102AB00000BD0268531C0360117070472DE9FC478C
:102AC000054600242646DFF850722868000369D5C1
:102AD000A046F86CC0000AD4F86C40F08050F8644E
:102AE000F86C00F08050009000984FF00108DFF87B
:102AF0002C92D9F8000040F48070C9F8000000F072
:102B0000F7FD8246D9F80000C00506D400F0F0FDBC
:102B1000A0EB0A000328F5D3032420003AD1DFF804
:102B20000092D9F8000010F4407014D0296C88424B
:102B300011D0D9F8000020F44070D9F8001041F409
:102B40008031C9F80010D9F8001021F48031C9F89B
:102B50000010C9F80000C0070FD500F0C9FD82467B
:102B6000D9F80000800708D400F0C2FDA0EB0A00ED
:102B700041F289318842F3D30324200008D1D9F8E7
:102B8000001021F44071286C0143C9F8001002E0E4
:102B9000264600E02646B8F1010F03D1F86C20F07C
:102BA0008050F8642878C00705D5F96F89086868EF
:102BB00050EA8101F9672878800705D5F96F21F07F
:102BC0000C01A8680143F9672878400705D5F96F1B
:102BD00021F03001E8680143F9672878000705D53E
:102BE000F96F21F0C00128690143F9672878800650
:102BF00005D5F96F21F4406168690143F9672878C8
:102C0000400605D5F96F21F44051A8690143F967E1
:102C10002878000605D5F96F21F44041E8690143A1
:102C2000F9672868C00505D5F96F21F44031286A95
:102C30000143F9672868800505D5F96F21F4402123
:102C4000686A0143F967286840050DD5F96F21F4DA
:102C50004011A86A0143F967A86AB0F5801F03D143
:102C6000386840F480103860286800050DD5F96F89
:102C700021F44001E86A0143F967E86AB0F5800F82
:102C800003D1386840F4801038602868C0040DD53E
:102C9000F96F21F04071286B0143F967286BB0F19F
:102CA000807F03D1386840F4801038602868800441
:102CB0000DD5F96F21F04061686B0143F967686BCE
:102CC000B0F1006F03D1386840F480103860286894
:102CD00040040DD5F96F21F04061A86B0143F967FD
:102CE000A86BB0F1006F03D1386840F480103860F1
:102CF000286800040DD5F96F21F04051E86B0143BD
:102D0000F967E86BB0F1805F03D1386840F4803038
:102D100038603046BDE8F6870C1002400070004075
:102D200090100240F8B502460B4600242DE04FF00B
:102D3000060C05E0DFF8A4C16245F8D14FF0050CA0
:102D40000CFA06FC4CEA070C45F821C064498E6871
:102D5000C5432E405F68FF0200D506438E60CE68F3
:102D60002E405F68BF0200D50643CE604E682E40FD
:102D70005F68BF0300D506434E600E682E405D6855
:102D8000ED0300D506430E60641C18680146E1405F
:102D900000F091800127A7403840F5D0610003255D
:102DA0008D40ED435E6806F0030CBCF1010F03D0CB
:102DB00006F00306022E10D196682E40D3F80CC000
:102DC0000CFA01FC4CEA060696605668BE435F6842
:102DD000C7F30017A7403E4356601E7906F003066E
:102DE000032E05D0D6682E409F688F403E43D660A4
:102DF0001E7906F00306022E15D12646F60802EBD0
:102E000086073E6A4FEA840C0CF01C0C4FF00F0E44
:102E10000EFA0CFE26EA0E06D3F810E00EFA0CFCB1
:102E20004CEA06063E6216682E401D7905F0030541
:102E300005FA01F10E431660596811F4403FA3D022
:102E400028490D6845F001050D60096801F0010190
:102E50000091009921468908234D55F82170A6005C
:102E600006F00C064FF00F0C0CFA06FC27EA0C07D4
:102E7000B2F1904F02D14FF0000C61E7DFF86CC067
:102E8000624502D14FF0010C5AE7DFF864C0624599
:102E900002D14FF0020C53E7DFF858C0624502D16F
:102EA0004FF0030C4CE7DFF850C062457FF442AFAF
:102EB0004FF0040C44E7F1BD006901400846401E94
:102EC0008041C043C00F704701460C4A13680B4253
:102ED00002D01160FFF733BC7047000000140048B7
:102EE0000004014060100240080001400004004856
:102EF00000080048000C004800100048140401407D
:102F0000374A13684FF6FF010B40000200F4E060FF
:102F10001843344908431060704731480068C0F3D3
:102F200002207047010007D4012200F01F018A40EF
:102F30002D49400941F8202070470901020002D4C0
:102F40002A48815470472A4802F00F02104400F8C2
:102F5000041C704710B400F00700C0F10703052BF4
:102F600000D30423041D072C01D2002000E0C01E62
:102F7000012404FA03F35B1E1940814004FA00F0B7
:102F8000401E1040084310BC704738B50446641E0C
:102F9000B4F1807F0AD2174D6C600F214FF0FF30E3
:102FA000FFF7CBFF0020A86007202860B4F1807FE6
:102FB0008041C043C00F32BDA2E770B504460D4644
:102FC0001646FFF7AAFF32462946FFF7C3FF014620
:102FD0002046BDE87040B0E7A4E7D6E7FFF7AEBBF8
:102FE0000CED00E00000FA0500E100E000E400E084
:102FF00018ED00E010E000E010F0004160B148BFC3
:103000004042B0FA80F29040D21CC2F5846241EA9C
:10301000025202EBD021400570472E0030B540F23D
:10302000FF7C1CEA11541DBF1CEA1355644565451D
:103030003FE0641981EA030C6FF35F530CF0004C1E
:1030400043F48013C90241F0004141EA505EC502D9
:103050001100A5FB020200284FF00000EEFB01204A
:103060004FF00001E3FB052118BF42F001024018B8
:1030700000214941E3FB0E01A4F580640D0302D257
:1030800092184041494154F1010470DD450872F144
:10309000004250F1000051EB0451A1F5801102D41F
:1030A00041EA0C0130BD40F2FF7E4CEA0E51002097
:1030B00030BD0CEA1355644518BF654581EA030C21
:1030C0000CF0004C41D050EA410E1CBF52EA430EB6
:1030D00002E06146002030BD24422C441BD15FEA4F
:1030E000050EF6D0090302BF01460020AEF1140E12
:1030F000B1FA81F5AEEB050401FA05FE0C35C5F118
:10310000200100FA05F5C8404EEA000E6FF35F5348
:1031100043F480139CE733F00043B3FA83F504BF14
:10312000B2FA82FE75440B3D641BB5F1200E2FBF31
:1031300002FA0EF3AB40C5F1200E22FA0EFE38BFA4
:1031400043EA0E03AA40641C7CE750EA410E14BF18
:1031500052EA430E6FF000014FF4001515EB430FD8
:103160008EBF194615EB410F9DE7B4D830BDD4F1A1
:103170000104B4F120050FDAC4F12005520828BF7C
:1031800042F0010210FA05FE01FA05F57244E2BFB1
:10319000E0402843E1400FE0352C9ADCC5F12004E3
:1031A00052EA400220FA05F218BF42F0010231FA59
:1031B00005F0A1400A43002172F1004250F10000E5
:1031C00051EB0C0130BD4300F0B540F2FF7581EAD0
:1031D000030C0CF0004C15EA11541DBF15EA1357EF
:1031E000AC42AF42E5E0BC41C1F31301C3F31303AA
:1031F000801A994143F4801304D2641E0018494197
:1032000080185941C90241EA5051B1FBF3F603FB62
:103210001611A2FB0675D7EBC020A94102D2761E7B
:1032200080185941C90241EA5051B1FBF3FE03FB3A
:103230001E11A2FB0E75D7EBC020A94103D2AEF13F
:10324000010E80185941890241EA9051760546EAFB
:103250008E2EB1FBF3F603FB1611A2FB0675D7EB1E
:103260008020A94102D2761E80185941C90241EA44
:1032700050514EEA060EB1FBF3F603FB1611A2FB0A
:103280000675D7EBC020A94102D2761E801859419D
:10329000C90241EA5051B1FBF3F703FB1711A2FB3E
:1032A0000735D3EBC020A94167F100070CBF0042EE
:1032B00047F0010766F3D5274FEA1E31B80814F529
:1032C000806412DDBD0775F1004250EB0E5051EBEA
:1032D000045111F5801F5CBF41EA0C01F0BD4CF0B8
:1032E0007F6141F0E0410020F0BDBD076D0840EA7C
:1032F0000E5041F48011D4F10104B4F120060ADA31
:10330000C4F120060200E04001FA06F3E140184350
:10331000B24015430EE0342C13DCC6F1200445EA1C
:1033200040056D0820FA06F2154321FA06F0A14087
:103330000D43002175F1004250F1000051EB0C01EA
:10334000F0BD00205FEA0C01F0BDCFB992185B41DF
:10335000B3FA83F704BFB2FA82F6BF190B3FB7F195
:1033600020062FBF02FA06F3BB40C7F1200622FA5F
:1033700006F638BF3343BA401CB1E419641E33E784
:103380007F4231F00041B1FA81F404BFB0FA80F617
:10339000A4190B3CB4F120062FBF00FA06F1A1409E
:1033A000C4F1200620FA06F638BF3143A0403C1B8A
:1033B0001AE7AC421ABF05EA1357AF4212E050EACF
:1033C00041061CBF52EA4306BFE750EA41073046B8
:1033D00061461CBF41EA0551F0BD52EA430C08BFEB
:1033E000C143F0BD00204FF4001616EB410F98BF0B
:1033F00016EB430F08BF16EB410F24BFC14305E096
:1034000016EB430F0CBF61464CEA0551F0BD0000BE
:103410009FED1E0AB9B311F003030BD0D0ED000AE3
:10342000001DB4EE600AF1EE10FA48BFB0EE600A7B
:103430005B1EF3D1890826D0D0ED000AB4EE600AF5
:10344000F1EE10FA48BFB0EE600A90ED011AB4EE4A
:10345000410AF1EE10FA48BFB0EE410AD0ED020A7F
:10346000B4EE600AF1EE10FA48BFB0EE600A90EDDB
:10347000031A1030B4EE410AF1EE10FA48BFB0EE74
:10348000410A491ED8D182ED000A7047FFFF7FFF35
:1034900070B491EA030F4FF0004540F1BF806B40DC
:1034A000841A71EB030604D26E40001BB14112195D
:1034B00073414FF4001C1CEB410F34BF7CEB4306FF
:1034C00083E00C0DA4EB1356362E00F37C80012E06
:1034D00045EAC32341DC43EA525312BFD2029202AF
:1034E0005B08240545EAC12141EA5051D2EBC020D6
:1034F000994125D407D1B0FA80F610FA06F162D0CE
:103500000020203608E0B1FA81F6B140C6F1200271
:1035100020FA02F21143B0404FEAF474B4EB46547F
:1035200034F001064FEA74040AD8D6F50016760D79
:1035300004F00044F04061FA06F25040F140484087
:10354000C00A40EA415021F0004128BF5FEA50051F
:1035500050F1000044EBD12135E0DB0A45EAC121FE
:10356000C90AB6F120050EDD42EA0242120CC5F18D
:10357000200603FA06F6EB4042EA06056D42984142
:1035800061F100010DE062FA06F5F240554063FA80
:1035900006FC82EA0C02F3405A406D42904161EB16
:1035A000030111F4801F05D1641E620502D06D0075
:1035B0004041494121F48011430875F1004350F125
:1035C000000041EB045170BC70471CEB410F15D259
:1035D00023F0004352EA43060BD04FEA4C0CBCEBFD
:1035E000410F04D80C0D661E342EB7DDEBE7801AB0
:1035F000994150EA410608BF0021E4E708BF1CEBEF
:10360000430F28BF6FF00001DDE7000070B491EABE
:10361000030F4FF000457FF543AF6B40841A71EB09
:10362000030603D2001BB141121973414FF4001C71
:103630001CEB410F34BF7CEB430442E00C0DA4EBC8
:103640001356352E4FDC45EAC323DB0A45EAC12178
:10365000C912B6F120050DDD63FA05F6EB4086EAE6
:103660000305124218BF45F00105C01851F10001D1
:103670000CD213E062FA06F5F2405540F3415A408D
:10368000B340F3405A408018594107D349085FEAD4
:1036900030005FEA350528BF45F0010501F58011CE
:1036A000420875F1004250F1000041EB04514E0018
:1036B00016F5001F70BC38BF70470020090D0905C2
:1036C00070471CEB410F10D252EA43060BD0BCEB03
:1036D000410F05D80C0DAB43661E342EB6DD02E05B
:1036E000AB438018594170BC704770BC70470000F4
:1036F00001480068704700BF1005002001F000423B
:103700008B1AA3F16051B1F5801F0ADBB1F17F6F15
:103710001FD242EAC102C10071F1004142EB507078
:1037200070470B15C3F10903212B10D2890241EA1E
:10373000905180020128494141F0004121FA03F0F3
:10374000C3F12003994071F10041504170471000CE
:1037500070476FF0000013EB103F5CBF000E42EAB1
:10376000C0507047DFED1E0A20EE200AFDEEC00AB1
:10377000B5EE400A10EE900AF1EE10FA48BF401E76
:1037800000EE900AF8EEE00A30EE600ADFED150A6E
:1037900020EE200AFDEEC00A10EE900A80B2B0F5CD
:1037A000007F04DBDFED100A002030EE200A014626
:1037B00000EE901AF8EE600A0C4970EE600A01EB18
:1037C0008002B7EE000A01EB800030EE600A92ED55
:1037D000001AD0ED011A20EE010A00EEA10A70478E
:1037E00083F9223E00000044000000C4C08A0008A3
:1037F000C0F3C75181B1FF2906D0C110400721F0A5
:10380000E04101F16051704741020CBF40F4E0011A
:103810006FF000410020704700F0004100020AD024
:10382000B0FA80FC00FA0CF001F16051A1EB0C51F0
:1038300001EBD0214005704741EA030C50EA4C0CE3
:1038400052EA0C0C4FF4001C09D307D01CEB410FBB
:103850009CBF1CEB430F994208BF904270471CEB82
:10386000410FFBD88B4208BF8242704750B1B0FA7B
:1038700080F18840C91CC1F58461090501EBD021A4
:10388000400570470146704741EA030C50EA4C0C72
:1038900052EA0C0C4FF4001C09D307D01CEB410F6B
:1038A0009CBF1CEB430F8B4208BF824270471CEB4E
:1038B000430FFBD8994208BF90427047C1F30A53A7
:1038C00040F21E42D31A0CDDCA0283F3070342EA18
:1038D000505242F00042DA4002EBE17282EAE170BB
:1038E00070476FEAE17203F2E13008B182F0004004
:1038F0007047000038B50446FFF7FAFE054614F19C
:10390000010F02D0044880680419FFF7F1FE401B44
:10391000A042FAD331BD00BF1005002070477047A8
:103920007047704770477047704770477047000096
:1039300010B500240B48016821F480610160016822
:1039400041F4807101600320FFF736FB204602F04E
:1039500083FF002801D0012401E002F0A5FF2046EA
:1039600010BD00000020024080B586B00022142166
:1039700001A8FFF781F82348016841F020010160A8
:10398000016801F0200100910099016841F00101F6
:103990000160016801F0010100910099016841F0A6
:1039A00002010160006800F0020000900098802091
:1039B0000190002002900120039001A94FF0904057
:1039C000FFF7B0F94FF4C06001904FF4041002907B
:1039D0000120039001A94FF09040FFF7A3F90022C6
:1039E00003211720FFF7E9FA1720FFF7F5FA002265
:1039F00003212820FFF7E1FA2820FFF7EDFA07B0AE
:103A000000BD00BF4C10024080B51A48016841F06B
:103A100004010160016801F004010091009901684E
:103A200041F001010160006800F001000090009881
:103A3000002202210B20FFF7C0FA0B20FFF7CCFA7F
:103A4000002202210C20FFF7B8FA0C20FFF7C4FA7D
:103A5000002204210D20FFF7B0FA0D20FFF7BCFA79
:103A6000002204210E20FFF7A8FA0E20BDE8024034
:103A7000FFF7B2BA4810024010B5654C6548606067
:103A80006548A0600020E0600120206100206061A6
:103A9000A061E06120626062201D01F067FE0028E5
:103AA00001D0FEF7B0FF0021201D02F02FFF0028FB
:103AB00001D0FEF7A8FF0021201D02F051FF0028D1
:103AC00003D0BDE81040FEF79EBF10BD78B597B09B
:103AD0000446002214216846FEF7CEFF002244214E
:103AE00006A8FEF7C9FF20684A49884240F08D8049
:103AF0004020069000200C9006A8FEF7DFFF00286B
:103B000001D0FEF780FF454D286840F00100286095
:103B1000286800F0010005900598286840F0020030
:103B20002860286800F00200059005984FF40040D6
:103B300000901220019001200290002003900420A8
:103B4000049069464FF09040FFF7ECF88020009019
:103B50001220019001200290002003900420049084
:103B600069462F48FFF7DEF8E86840F40010E86087
:103B7000E86800F40010059005982A4D2A4E2E6042
:103B8000102068600020A860E86080202861002084
:103B90006861A861E8614FF400502862284602F08D
:103BA00007FF002801D0FEF72EFFE563AC6206F1A7
:103BB00014002866112068661020A8660020E866B8
:103BC0008020286700206867A867E867C5F880003C
:103BD00005F1600002F0ECFE002801D0FEF713FFB3
:103BE00005F16000A063C5F88840002205211F2070
:103BF000FFF7E3F91F20FFF7EFF90022052120204E
:103C0000FFF7DBF92020FFF7E7F918B070BD0000DF
:103C10000004002000540040641F70204C1002403B
:103C200000040048C00600203000024010B5614C7E
:103C3000614820604FF4613060600020A060E06067
:103C400020610C2060610020A061E0612062606260
:103C5000A062204600F08EFC002801D0FEF7D3FEC3
:103C60000021204603F09CF8002801D0FEF7CBFE8F
:103C70000021204603F0B7F8002801D0FEF7C3FE6C
:103C8000204603F06FF8002803D0BDE81040FEF78F
:103C9000BABE10BD78B597B004460022142168461C
:103CA000FEF7EAFE0022442106A8FEF7E5FE2068A2
:103CB000414988427BD1022006900020089006A846
:103CC000FEF7FCFE002801D0FEF79DFE3B48C168D0
:103CD00041F40031C160C16801F4003105910599DA
:103CE000016841F001010160006800F001000590E9
:103CF00005980420009002200190002002900120ED
:103D000003900720049069464FF09040FFF70AF8AF
:103D100008200090022001900120029003900720CB
:103D2000049069464FF09040FEF7FCFF244D254E6D
:103D30002E601A2068600020A860E860802028615A
:103D400000206861A8612020E8614FF4805028625B
:103D5000284602F02DFE002801D0FEF754FEE5674C
:103D6000AC6206F1140028661B2068661020A86665
:103D70000020E8668020286700206867A867E86759
:103D8000C5F8800005F1600002F012FE002801D0A5
:103D9000FEF739FE05F16000A067C5F888400022F3
:103DA00002212620FFF709F92620FFF715F918B0A0
:103DB00070BD000040080020004400404C1002404C
:103DC0008007002008000240DFF8D81000282BD11F
:103DD000DFF8D4000A6802F4C062B2F5806F1ED129
:103DE000026822F480720260086820F4C06040F427
:103DF00000700860DFF8B400026832204243DFF848
:103E0000B000B2FBF0F0401C00E0401E4A695205D1
:103E100001D50028F9D1486940052ED43AE001685F
:103E200021F48071016035E0B0F5007F2CD1DFF81E
:103E300078000A6802F4C062B2F5806F1FD1026890
:103E400042F480720260086820F4C06040F40070A0
:103E50000860DFF85800026832204243DFF8500063
:103E6000B2FBF0F0401C00E0401E4A69520501D54B
:103E70000028F9D1486940050CD503207047016836
:103E800041F48071016005E0086820F4C06040F4EE
:103E900080600860002070470648016841F4804156
:103EA0000160704700700040807000403C050020B9
:103EB00040420F00087000402DE9F843040000F074
:103EC000E281DFF870562078C00712D5A86800F0AC
:103ED0000C00E96801F003010C2801D1032901D08D
:103EE000082845D12868800303D56068002800F0C1
:103EF000CA812078800721D5A86800F00C00E96805
:103F000001F003010C2801D1022901D0042866D157
:103F10002868400503D5E068002800F0B48168688F
:103F200020F0FE40216940EA01606860DFF8100679
:103F3000006802F091FC002840F0A581DFF80466DB
:103F40002078000740F1848060690028706870D094
:103F500040F001007060FFF7CBFB074670688007F8
:103F600076D4FFF7C5FBC01B0328F7D303208DE1F0
:103F70006068B0F5803F04D1286840F48030286044
:103F800012E0B0F5A02F286807D140F48020286007
:103F9000286840F48030286006E020F480302860F3
:103FA000286820F480202860606800280BD0FFF784
:103FB0009FFB0646286880039BD4FFF799FB801B74
:103FC0006528F7D3D2E7FFF793FB064628688003FE
:103FD0008FD5FFF78DFB801B6528F7D3C6E7E06818
:103FE0000028286816D040F480702860FFF780FB16
:103FF00006462868400505D4FFF77AFB801B032896
:10400000F7D3B3E7686820F0FE40216940EA016019
:10401000686093E720F480702860FFF769FB06462C
:10402000286840058AD5FFF763FB801B0328F7D378
:104030009CE7400840007060FFF75AFB0746706835
:10404000800705D5FFF754FBC01B0328F7D38DE786
:104050002078400768D50027A86DC00009D4A86D56
:1040600040F08050A865A86D00F080500090009846
:104070000127DFF8D484D8F80000C00513D4D8F89D
:10408000000040F48070C8F80000FFF731FB814663
:10409000D8F80000C00506D4FFF72AFBA0EB090002
:1040A0000328F5D362E7A068012804D1306840F006
:1040B0000100306011E00528306807D140F00400AD
:1040C0003060306840F00100306006E04008400099
:1040D0003060306820F004003060A06800280ED006
:1040E000FFF706FB80463068800717D4FFF700FB18
:1040F000A0EB080041F289318842F4D336E7FFF79C
:10410000F7FA80463068800708D5FFF7F1FAA0EB90
:10411000080041F289318842F4D327E7012F03D107
:10412000A86D20F08050A8652078800621D5A06970
:104130000028B0680ED040F00100B060FFF7D8FA58
:104140000746B068800714D4FFF7D2FAC01B0328D3
:10415000F7D30BE740084000B060FFF7C9FA074605
:10416000B068800705D5FFF7C3FAC01B0328F7D353
:10417000FCE6E069002800F08880A96801F00C01E5
:104180000C2955D00228286820F0807028603AD188
:10419000FFF7AEFA06462868800105D5FFF7A8FAB2
:1041A000801B0328F7D3E1E6E868DFF8A013084096
:1041B000216A0843616A491E40EA0110A16A40EA87
:1041C0000120216B4908491E40EA4150616B4908B2
:1041D000491E40EA4160E16A40EAC160E86028683F
:1041E00040F080702860E86840F08070E860FFF779
:1041F0007FFA04462868800147D4FFF779FA001B4C
:104200000328F7D3B2E6E86880088000E860E96830
:10421000DFF83C030140E960FFF76AFA04462868CA
:10422000800132D5FFF764FA001B0328F7D39DE61F
:10423000012828D0E86800F00301226A914222D1C7
:1042400000F0F001626A521EB1EB021F1BD100F4B4
:10425000FE41A26AB1EB022F15D100F07841E26A6B
:10426000B1EBC26F0FD100F4C001226B5208521E95
:10427000B1EB425F07D100F0C060616B4908491E95
:10428000B0EB416F01D0012000E00020BDE8F283D7
:104290002DE9F843044688460027002C61D0DFF85A
:1042A000B452286800F00F00404509D22868000980
:1042B00048EA00102860286800F00F00404550D1FF
:1042C000DFF870622078C0074DD5606803281AD1E6
:1042D0003068800145D500F00AF9DFF87C12884289
:1042E00023D3B06810F0F00F05D0207880071CD5DC
:1042F000A068002819D1B06820F0F00040F08000DC
:10430000B060802711E00228306828D1800328D5CA
:1043100000F089F8DFF84012884206D3B06820F038
:10432000F00040F08000B0608027B16889086068C4
:1043300050EA8101B160FFF7DBF98146B06800F017
:104340000C006168B0EB810F0DD0FFF7D1F9A0EB45
:10435000090041F289318842F0D3032061E0400531
:10436000D6D401205DE02068810715D5400703D52C
:10437000B06840F4E060B0602078000705D5B06810
:1043800020F4605040F4E060B060B16821F0F001CA
:10439000A0680143B16005E0802F03D1B06820F030
:1043A000F000B060286800F00F00804514D2286843
:1043B000000948EA00102860FFF79AF907462868C4
:1043C00000F00F00404507D0FFF792F9C01B41F203
:1043D00089318842F3D3C0E72078400705D5B1681A
:1043E00021F4E061E0680143B1602078000706D560
:1043F000B06820F46050216940EAC100B06000F06C
:1044000012F85649B268C2F30312895C01F01F0129
:10441000C8404A4908604A480068BDE8F24302F0D3
:104420001BBABDE8F2834E49086800F00C0004286E
:1044300001D141487047086800F00C00082801D1FC
:1044400048487047086800F00C000C281FD14A68E3
:1044500002F003024868C0F30310401C032A07D18E
:10446000404AB2FBF0F24868C0F30620424306E03F
:10447000314AB2FBF0F24868C0F306204243486874
:10448000C0F34160401C4000B2FBF0F070470020D8
:1044900070472A480068704780B5FFF7FAFF324935
:1044A0002F4A1268C2F30222895C01F01F01C84042
:1044B00002BD80B5FFF7EDFF2B49294A1268C2F310
:1044C000C222895C01F01F01C84002BD1948016881
:1044D00041F400210160704710B5244C2068C005EC
:1044E00004D502F0CFFC4FF48070606010BD20490D
:1044F0000A6802F003020868C0F30310401C032A94
:1045000007D1184AB2FBF0F20868C0F30620424314
:1045100006E0094AB2FBF0F20868C0F30620424305
:104520000868C0F34160401C4000B2FBF0F07047E7
:1045300000000000001002400024F4003C050020B0
:104540001405002090100240007000400C809F0174
:10455000FFFFEEFE0020024001B4C404D098000822
:104560000810024000366E017C9900081C100240C1
:104570000C10024038B5040015D004F180056868BD
:10458000002804D1002028702046FFF783FB242058
:10459000686020680168490849000160204600F011
:1045A0001BFA012801D1012032BDA06A002802D0E7
:1045B000204600F06BFB2068416821F49041416087
:1045C0002068816821F02A0181602068016841F03B
:1045D000010101602046BDE8324000F0BBBB70B570
:1045E0000446134604F180056868202849D1002953
:1045F00001D0180001D1012070BD2878012840D0D9
:1046000001202870216504F1540633807380002056
:10461000E86021206860706A00281ED0DFF8AC13C3
:10462000C162DFF8AC03716A0863DFF8A803716A3E
:1046300048630020716A8863206800F12802216DB8
:10464000706A02F016FA002807D01020E8600020F7
:10465000287020206860012070BD40202168086219
:10466000002028702068083050E8001F41F08001C9
:10467000206800F1080242E800100028F2D1002072
:1046800070BD022070BD30B4034603F18000846821
:10469000202C22D1002901D0140001D101201DE0DD
:1046A0000478012C19D0012404700020D866186801
:1046B000DFF81443A0420CD04068000209D5186806
:1046C00050E8004F44F08064054645E8004000286B
:1046D000F5D1184630BC00F0DABB022030BC704780
:1046E000F8B504462668F1693268B36840F60F00F1
:1046F000084004F15C050DD18F060BD5970601D457
:10470000DF0007D56969002900F05D812046BDE81A
:10471000F4400847002800F08C80DFF8B40803421A
:1047200004D1DFF8B0783A4200F083800F46FF07EB
:1047300007D5D70505D5012737622E6B46F0010650
:104740002E638E0709D51E46F60706D50226276872
:104750003E622E6B46F004062E634E0709D51E46B8
:10476000F60706D5042627683E622E6B46F0020641
:104770002E630E070AD5960601D4034206D0082000
:1047800026683062286B40F008002863080509D5C8
:10479000500107D54FF4006026683062286B40F066
:1047A00020002863286B002800F00D81880608D5BA
:1047B000900601D4D80004D56969002901D02046AB
:1047C0008847286B21688968490602D410F0280FB1
:1047D00029D0204600F0D0FB2068806840061DD517
:1047E0002068083050E8001F21F04001206800F1E7
:1047F000080242E800100028F2D1286A00280DD0F3
:10480000DFF8D4178163286A02F0AFF9002800F0BE
:10481000DA80286A816BBDE8F44008472046BDE88D
:10482000F24002F030BB204602F02DFB002028634E
:10483000F1BD2869012840F09280C80640F18F80C0
:10484000D00640F18C8010203062206880684006DD
:104850004ED5286A0068406880B2002800F0B38016
:104860002988884280F2AF806880286A00680068E2
:10487000800634D4206850E8001F21F4807102467D
:1048800042E800100028F5D12068083050E8001FE9
:1048900049084900206800F1080242E80010002899
:1048A000F2D12068083050E8001F21F04001206854
:1048B00000F1080242E800100028F2D12020E8624E
:1048C00000202861206850E8001F21F010010246F6
:1048D00042E800100028F5D1286A02F010F9298872
:1048E0006888091A89B22046BDE8F44002F0CCBAC3
:1048F00028886988411A6888002864D0084680B2F0
:10490000002860D0206850E8002F22F490720346FF
:1049100043E800200028F5D12068083050E8002F37
:10492000DFF84C030240206800F1080343E8002050
:104930000028F1D12020E862002028616861206809
:1049400050E8002F22F01002034643E80020002820
:10495000F5D189B22046BDE8F44002F095BAC8020C
:1049600009D5580207D54FF4801030622046BDE8C3
:10497000F24002F08ABA08060AD5100601D41802DD
:1049800006D5A96900291ED02046BDE8F440084795
:10499000480606D5500604D52046BDE8F24000F092
:1049A000DBBB080206D5500004D52046BDE8F24026
:1049B00002F06CBAC80106D5002A04D52046BDE82D
:1049C000F24002F064BAF1BD0080004001500008DE
:1049D00047500008F9500008F8B504460025216842
:1049E0000A68DFF8FC050240A06802432069024320
:1049F00060690243E06902430A6021684A6822F460
:104A00004052E06802434A60A2692368DFF8CC158F
:104A10008B4201D0206A02439E68DFF8C805064039
:104A200032439A602268D36A1B09606A50EA031312
:104A3000D3622068DFF8B02590420CD1DFF8AC25B6
:104A4000126802F00302032A15D8DFE802F00248D8
:104A5000355E012210E0DFF8982590421BD1DFF887
:104A60008C25126812F00C024DD0042A37D0082A87
:104A700022D00C2A49D01022884240F07F80002AA0
:104A800006D0022A43D0042A44D0082A45D047E061
:104A9000FFF702FD46E0DFF85C2590420ED1DFF81B
:104AA0004C25126812F030022DD0102A17D0202A7F
:104AB00002D0302A29D0DEE70222DDE7DFF83825F0
:104AC00090420ED1DFF82425126812F0C0021AD0ED
:104AD000402A04D0802AEFD0C02A16D0CBE7042287
:104AE000CAE78842C7D1DFF80425126812F4406291
:104AF00009D0B2F5806FF2D0B2F5006FDCD0B2F51C
:104B0000406F02D0B7E72A46B6E70822B4E7DFF8DD
:104B1000EC0407E0FFF787FC04E04FF4004001E0FD
:104B200028460125002800F0988000BF51A1626A44
:104B300031F81210B0FBF1F63046626802EB420128
:104B4000884202D31103814201D2012585E000276A
:104B500047EA166710464008002110EB062079410D
:104B6000002302F095F9A0F54071DFF8102691427C
:104B700002D22168C86070E001256EE0E069B0F5FE
:104B8000004F38D1082A15D8DFE802F005080B14C9
:104B90000E1414141100FFF77FFC0DE0FFF789FCE1
:104BA0000AE0DFF8580407E0FFF73DFC04E04FF4AB
:104BB000004001E02846012500284ED0D4F804101A
:104BC0002CA2636A32F81320B0FBF2F00A465208B6
:104BD00002EB4002B2FBF1F04FF6F071A0F11002CF
:104BE0008A4206D20140C0F3420001432068C160FE
:104BF00033E0012531E0082A15D8DFE802F0050886
:104C00000B140E1414141100FFF746FC0DE0FFF70F
:104C100050FC0AE0DFF8E40307E0FFF704FC04E0DF
:104C20004FF4004001E028460125002815D06168B6
:104C300010A2636A32F81320B0FBF2F000EB5100CF
:104C4000B0FBF1F0A0F110014FF6F072914203D2E7
:104C500080B22168C86000E0012504F168000121EC
:104C60004180018000218160C1602846F2BD0000C2
:104C7000FEFFFFEF010002000400060008000A002A
:104C80000C001000200040008000000190F8281067
:104C9000C90706D50268536823F40033C16A0B4381
:104CA000536090F82810890706D50268536823F4EA
:104CB0008033016B0B43536090F82810490706D5E9
:104CC0000268536823F48023416B0B43536090F8D0
:104CD0002810090706D50268536823F40043816B46
:104CE0000B43536090F82810C90606D502689368F4
:104CF00023F48053C16B0B43936090F8281089060E
:104D000006D50268936823F40053016C0B4393604B
:104D100090F82810490611D50268536823F48013CF
:104D2000416C0B435360416CB1F5801F06D10268A2
:104D3000536823F4C003816C0B43536090F8281030
:104D4000090606D501684A6822F40022C06C0243B5
:104D50004A6070477CB5044604F180050020E86095
:104D6000FEF7C6FC06462068006800070BD56FF00A
:104D70007E400090334600224FF40011204600F0A0
:104D80001BF800280FD12068006840070DD56FF090
:104D90007E400090334600224FF48001204600F010
:104DA0000BF8002801D0032076BD20206860A860A1
:104DB0000020E066287076BD2DE9F04105460E46DC
:104DC00017469846069C2868C0693040B04201D119
:104DD000012000E000203946884255D114F1010F2E
:104DE000F1D0FEF785FCA0EB0800844201D3002C33
:104DF0001FD1286850E8001F21F4D071024642E814
:104E000000100028F5D12868083050E8001F490834
:104E10004900286800F1080242E800100028F2D199
:104E200005F1800020214160816000210170032094
:104E30002BE0286801684907C5D5C1690905C2D5B5
:104E40004FF400610162286850E8001F21F4D0711E
:104E5000024642E800100028F5D12868083050E8E2
:104E6000001F49084900286800F1080242E80010C4
:104E70000028F2D105F18000202141608160C160ED
:104E800000210170032000E00020BDE8F08170B532
:104E900004461346A16504F15C06338004F18005E5
:104EA0000020E8602220A860306A00281ED00FF29F
:104EB0009D11C1620FF22920316A08630FF2392077
:104EC000316A48630020316A8863A26D206800F16E
:104ED0002401306A01F0CDFD002807D01020E860E1
:104EE000002028702020A860012070BD00202870BC
:104EF0002069002809D0206850E8001F41F4807123
:104F0000024642E800100028F5D12068083050E839
:104F1000001F41F00101206800F1080242E8001082
:104F20000028F2D12068083050E8001F41F040010D
:104F3000206800F1080242E800100028F2D10020A9
:104F400070BD016851E8002F22F0C0020B4643E813
:104F500000210029F5D10168083151E8002F22F421
:104F60000002016801F1080343E800210029F2D1A1
:104F70002021C0F884107047016851E8002F22F406
:104F800090720B4643E800210029F5D101680831F1
:104F900051E8002FDFF8E8110A40016801F1080329
:104FA00043E800210029F1D1C16E012909D101682E
:104FB00051E8002F22F010020B4643E8002100299F
:104FC000F5D12021C0F888100021C1660167704723
:104FD0000100001020010004495100080080004039
:104FE000F369FFCFFFF4FF11003801408810024041
:104FF0000044004000480040004C00400024F40001
:105000000146886A0968096889061AD40021A0F84F
:1050100056100168083151E8002F22F08002016823
:1050200001F1080343E800210029F2D1016851E8A9
:10503000002F42F040020B4643E800210029F5D141
:10504000704702F03DB8806A02F03BB818B4826A3B
:1050500002F15C0100680068800634D400204880BA
:10506000106850E8003F23F48073044644E80030A1
:105070000028F5D11068083050E8003F5B085B005D
:10508000106800F1080444E800300028F2D11068EC
:10509000083050E8003F23F04003106800F1080496
:1050A00044E800300028F2D12020C86208690128B5
:1050B00009D1106850E8003F23F01003044644E88B
:1050C00000300028F5D10869012804D1098810466C
:1050D00014BC01F0D9BE104612BC01F0F3BF0000B1
:1050E000806A00F15C010A69012A03D10988490834
:1050F00001F0CABE01F0E7BF70B5846A04F184050F
:1051000028686E6821688968090607D5212805D1B5
:105110000020A4F856002046FFF713FF206880689F
:10512000400608D5222E06D1002004F15601088140
:105130002046FFF721FFA86840F01000A860204635
:10514000BDE8704001F09FBE806A00F15601002268
:105150000A810A8001F097BE016851E8002F22F011
:1051600040020B4643E800210029F5D12021C0F878
:1051700084100021416701F0A3BF000000FD0F0073
:10518000FEFFFFEF38B52DED028B040082B00D4617
:1051900000F0998010EE101A4A0000F09480480048
:1051A0000016401C02D1490200F08D80002CB7EEA1
:1051B000008A3CD5644200BF89A1052008E0E207CF
:1051C00044BFD1ED000A28EE208A6408091D401E64
:1051D000002C18BF0028F2D1684601F075FF009836
:1051E00080EE080A01F094FF10EE101A4A0059D020
:1051F00048000016401C01D1490253D0002C51D068
:10520000684601F061FF0098DFED6C0A20EE200A8D
:1052100001F07EFF10EE101A4A0043D0480000163D
:10522000401C01D149023DD0641EE9D13AE039DD8C
:105230006BA10520E20744BFD1ED000A28EE208AC9
:105240006410091D401E002C01DD0028F2D16846C3
:1052500001F03AFF009820EE080A01F059FF10EE25
:10526000101A4A001ED048000016401C01D1490205
:1052700018D0002C16DD684601F026FF0098DFEDFF
:10528000500A20EE200A01F043FF10EE101A4A00E7
:1052900008D048000016401C01D1490202D0641E0B
:1052A000002CE8DC10EE101A4A0005D04800001669
:1052B000401C08D1490206D1AFF300801DB1286817
:1052C00040F00100286002B0BDEC028B31BD00004F
:1052D0002DE9F14183B01D001CBF00202860039F11
:1052E0008846164603A801F075FFC41020F0080098
:1052F000012804F0010424D1009001AB0399424637
:10530000384601F0F9FF10B99FED2E0A15E09DED2A
:10531000020A0128B8EEC00A0FDD03A9401EDFED26
:105320002A0A51F8042BB0EE401A00EE102AB8EE0B
:10533000C00A401E01EE200AF3D1019829468019C7
:1053400028E0022829D10120009001AB03994246B0
:10535000384602F0ADF810B99FED1A0A15E09DED40
:10536000020A0128B8EEC00A0FDD03A9401EDFEDD6
:10537000170A51F8042BB0EE401A00EE102AB8EECE
:10538000C00A401E01EE200AF3D1019801F0C0FED0
:1053900029463046FFF7F6FE0AE0032808BF9FEDD6
:1053A0000C0A05D004280CBF9FED0A0A9FED050AE0
:1053B0000CB1B1EE400A04B0BDE8F0811EB14F0A55
:1053C000AEC59D7400000000286B6E4E0000804D3D
:1053D0000000807FFFFFFF7F0023002278E70000AE
:1053E000000020410000C84200401C4620BCBE4CCA
:1053F000CA1B0E5AAEC59D742DE9F84F84B00E46F7
:1054000017460BB100221A600446A04601E008F1DD
:10541000010898F8000002F04FF90028F7D198F839
:1054200000002D2816BF2B2818F8015B2B25002F14
:10543000019603D4012F01D0252F03DB002E55D078
:10544000346053E0002F0CDD102F04BF98F80000EB
:10545000302802BF98F8010040F02000782811D1D0
:105460000CE098F80000302818BF0A270AD198F8F5
:10547000010040F02000782803D1102708F102082D
:1054800000E00827CDF80C8001E008F1010898F849
:1054900000003028F9D0064E7E4414364FF0000943
:1054A00006F12800CDF80880CA468DF800000BE010
:1054B000184300009DF80010401ACA465FFA80FBAE
:1054C00007FB09B908F1010898F8000002F0FEF89E
:1054D00001463A4606F1280002F002F90028E9D117
:1054E0000399414504D1019800B10460002020E0F7
:1054F0000299F05DA8EB0101081A002810D406DC1F
:10550000B9EB0B0103D3B1FBF7F0504508D0AFF373
:105510000080049808B1012101604FF0FF3903E0D9
:105520002D2D08BFC9F10009019808B1C0F800800D
:10553000484605B0BDE8F08FFFE700230A220021AE
:105540005AE700009FED1F1AF5EE000A40EE010A2F
:10555000BDEEE00AF5EE400A10EE100AF1EE10FA88
:1055600048BF401E00EE100AB8EEC00A30EEC00A76
:10557000DFED150A20EE200AFDEEC00A10EE900ABB
:1055800080B2B0F5007F04DBDFED100A002030EEC2
:10559000200A014600EE901AF8EE600A0C4970EEFF
:1055A000600A01EB8002B7EE000A01EB800030EEEA
:1055B000600A92ED001AD0ED011A20EE010A00EE09
:1055C000A10A704783F9223E00000044000000C495
:1055D000C08A00080CB430B583B00A4606A902910F
:1055E000044600250194009502AB01A908487844BF
:1055F0001E3002F0A1F8019A157000284EBF044633
:105600000198041B204603B030BC5DF80CFB00BFC2
:10561000A3D4FFFF00F10103810704D010F8011BA0
:10562000820781B1FAD10268A2F10131914311F0F0
:10563000803104BF50F8042FF6E709BAB1FA81F1BE
:1056400000EBD100401CC01A704700000A460368F6
:105650001968C9694906FBD5C1681846FEF7BFBF7E
:1056600001464FF0FF304A6812685368C3F58073F3
:105670004B618A69934207D0086913461BB2C05C2C
:10568000521C02F0FF028A617047014648680068B8
:105690004068C0F5807048618969401A00F0FF00D9
:1056A0007047064901600649416006498160064924
:1056B00001610649C16070470000000040080020F9
:1056C00080070020E0070020C0050020D00800204F
:1056D00038B5044601E0401CE0832046FFF7D5FFC3
:1056E000002811D02046FFF7BBFF04F12201E28B16
:1056F0008854E08B014604F12202525C0A2A01D050
:105700004029E8DB01202077207F00282DD00020D1
:105710002084616E04F1220002F0A6FF04F168010A
:10572000228C41F822000AE06D1C2584616E002065
:1057300002F09AFF04F16801ADB241F82500258C12
:1057400004F16800294650F821000028ECD12046D9
:10575000FCF710FD0020E08320770246402104F191
:105760002200BDE8384002F0A5BF31BD38B50400C5
:1057700001D1012032BD04F140056878002804D130
:10578000002028702046FEF7A1F9242068702068C8
:105790000168490849000160606820F07060216874
:1057A00008612068816821F400418160A068216857
:1057B000E268012A03D140F40040886002E040F42E
:1057C00004408860E068022803D14FF4006021683B
:1057D00048602068416841F0007141F40041416037
:1057E0002068C16821F40041C160216960690143FA
:1057F000A06941EA00212068C160E169206A014393
:10580000206801602068016841F00101016000200A
:1058100068602020687000202063A87032BD2DE9E8
:10582000FC4706460D4691469A4606F140077878B1
:10583000202840F08A800A9C002C04D0DDF82C80BF
:105840004046002804D14FF40070786001207DE0CC
:1058500030688069000478D43878012875D0012038
:105860003870FDF745FF212179704021B970002182
:1058700079607462A6F82A803549F16283497163C0
:10588000718DB1F5807F04D3FF2131854FF0807891
:1058900003E0718D31854FF0007853464A46019000
:1058A000192000902946304600F0EDFA002803D078
:1058B00000203870012049E0B06B00282DD07449D9
:1058C000C1627448B16B48630020B16B0863B16B6F
:1058D0008863338D306800F128022146B06B01F0F7
:1058E000C8F8002825D1002000904346328DD2B25E
:1058F0002946304600F032FF718D308D091A7185CE
:10590000002038701021304600F03CFF30680168FC
:1059100041F480410160002018E0202078700020D0
:10592000B870786840F080007860002038700120FE
:105930000CE0202078700020B870786840F01000EB
:10594000786000203870012000E00220BDE8F68772
:105950000000FFFF2DE9FC4706460D4691469A469A
:1059600006F140077878202840F08C800A9C002CB3
:1059700004D0DDF82C804046002804D14FF400709C
:10598000786001207FE03068806900047AD438783C
:10599000012877D001203870FDF7AAFE2221797006
:1059A0004021B970002179607462A6F82A80DFF87E
:1059B000F010F16235497163718DB1F5807F04D3C8
:1059C000FF2131854FF0807803E0718D31854FF0F4
:1059D000007853464A4601901920009029463046E7
:1059E00000F08CFA002803D00020387001204AE033
:1059F000F06B00282ED02849C1622648F16B48631D
:105A00000020F16B0863F16B8863338D22463068A8
:105A100000F12401F06B01F02CF8002826D1DFF80A
:105A20007C0000904346328DD2B22946304600F0C9
:105A300095FE718D308D091A718500203870102106
:105A4000304600F09FFE3068016841F4004101607B
:105A5000002018E0202078700020B870786840F0AE
:105A6000800078600020387001200CE020207870E1
:105A70000020B870786840F010007860002038701E
:105A8000012000E00220BDE8F68700005D5C000810
:105A9000BD640008816500081D65000800240080C1
:105AA0000000FFFF026891691268436B002B00D071
:105AB0001847704718B4026891691268CB0509D578
:105AC000130607D5436C43F0010343644FF480731E
:105AD0000468E3614B0509D5130607D5436C43F011
