:020000040800F2
:10000000480A0020ED5600086155000869550008AF
:100010006B5500086D5500086F5500080000000082
:100020000000000000000000000000007155000802
:10003000735500080000000075550008775500084A
:10004000095700080D5700081157000815570008F8
:10005000195700081D5700082157000825570008A8
:10006000295700082D57000831570008855500080A
:100070008B55000835570008395700083D570008D0
:100080004157000800000000455700084957000884
:100090004D57000891550008975500085157000822
:1000A00055570008595700085D5700086157000868
:1000B00065570008695700086D5700087157000818
:1000C00075570008795700087D57000881570008C8
:1000D00085570008895700089D5500088D5700086E
:1000E0009157000895570008995700089D57000838
:1000F000A1570008A5570008A957000800000000F4
:1001000000000000AD57000800000000B1570008D3
:10011000B557000800000000B9570008BD57000897
:10012000C1570008C5570008C9570008CD57000837
:10013000D15700080000000000000000D55700085B
:10014000D9570008DD57000800000000000000003B
:10015000000000000000000000000000000000009F
:10016000000000000000000000000000E15700084F
:10017000E55700080000000000000000000000003B
:1001800000000000E9570008000000000000000027
:10019000000000000000000000000000000000005F
:1001A0000000000000000000ED570008F1570008B3
:1001B000F5570008F9570008FD5700080000000037
:1001C00000000000015800080000000000000000CE
:1001D000055800080958000838B5040015D004F186
:1001E00080056868002804D100202870204600F0AF
:1001F00031FE2420686020680168490849000160D8
:10020000204600F01BFA012801D1012032BDA06A6E
:10021000002802D0204600F06BFB2068416821F4E2
:10022000904141602068816821F02A018160206846
:10023000016841F0010101602046BDE8324000F054
:10024000BBBB70B50446134604F1800568682028DE
:1002500049D1002901D0180001D1012070BD2878B2
:10026000012840D001202870216504F15406338014
:1002700073800020E86021206860706A00281ED02A
:10028000DFF8AC13C162DFF8AC03716A0863DFF812
:10029000A803716A48630020716A8863206800F1CE
:1002A0002802216D706A00F0C0FE002807D01020DF
:1002B000E8600020287020206860012070BD402088
:1002C00021680862002028702068083050E8001F6C
:1002D00041F08001206800F1080242E80010002887
:1002E000F2D1002070BD022070BD30B4034603F18E
:1002F00080008468202C22D1002901D0140001D173
:1003000001201DE00478012C19D001240470002084
:10031000D8661868DFF81443A0420CD04068000289
:1003200009D5186850E8004F44F08064054645E858
:1003300000400028F5D1184630BC00F0DABB02209E
:1003400030BC7047F8B504462668F1693268B36876
:1003500040F60F00084004F15C050DD18F060BD567
:10036000970601D4DF0007D56969002900F05D8197
:100370002046BDE8F4400847002800F08C80DFF8F4
:10038000B408034204D1DFF8B0783A4200F0838029
:100390000F46FF0707D5D70505D5012737622E6B16
:1003A00046F001062E638E0709D51E46F60706D5D0
:1003B000022627683E622E6B46F004062E634E0727
:1003C00009D51E46F60706D5042627683E622E6B21
:1003D00046F002062E630E070AD5960601D40342A4
:1003E00006D0082026683062286B40F00800286399
:1003F000080509D5500107D54FF400602668306222
:10040000286B40F020002863286B002800F00D8145
:10041000880608D5900601D4D80004D5696900295A
:1004200001D020468847286B21688968490602D494
:1004300010F0280F29D0204600F0D0FB20688068FB
:1004400040061DD52068083050E8001F21F040010B
:10045000206800F1080242E800100028F2D1286A62
:1004600000280DD0DFF8D4178163286A00F059FE08
:10047000002800F0DA80286A816BBDE8F440084764
:100480002046BDE8F24000F047BF204600F044FFA0
:1004900000202863F1BD2869012840F09280C80639
:1004A00040F18F80D00640F18C80102030622068AF
:1004B000806840064ED5286A0068406880B20028EF
:1004C00000F0B3802988884280F2AF806880286A73
:1004D00000680068800634D4206850E8001F21F4CA
:1004E0008071024642E800100028F5D120680830EB
:1004F00050E8001F49084900206800F1080242E85E
:1005000000100028F2D12068083050E8001F21F0C8
:100510004001206800F1080242E800100028F2D1F2
:100520002020E86200202861206850E8001F21F0A8
:100530001001024642E800100028F5D1286A00F0B8
:10054000BAFD29886888091A89B22046BDE8F440B6
:1005500000F0E3BE28886988411A6888002864D0C2
:10056000084680B2002860D0206850E8002F22F4AE
:100570009072034643E800200028F5D12068083037
:1005800050E8002FDFF84C030240206800F1080318
:1005900043E800200028F1D12020E86200202861F3
:1005A0006861206850E8002F22F01002034643E8FB
:1005B00000200028F5D189B22046BDE8F44000F0C3
:1005C000ACBEC80209D5580207D54FF4801030627E
:1005D0002046BDE8F24000F0A1BE08060AD510068C
:1005E00001D4180206D5A96900291ED02046BDE80D
:1005F000F4400847480606D5500604D52046BDE815
:10060000F24000F0DBBB080206D5500004D52046BE
:10061000BDE8F24000F083BEC80106D5002A04D52B
:100620002046BDE8F24000F07BBEF1BD00800040F6
:10063000650C0008AB0C00085D0D0008F8B5044619
:10064000002521680A68DFF8FC050240A068024323
:100650002069024360690243E06902430A6021683D
:100660004A6822F44052E06802434A60A269236863
:10067000DFF8CC158B4201D0206A02439E68DFF878
:10068000C805064032439A602268D36A1B09606A33
:1006900050EA0313D3622068DFF8B02590420CD1F2
:1006A000DFF8AC25126802F00302032A15D8DFE850
:1006B00002F00248355E012210E0DFF898259042F2
:1006C0001BD1DFF88C25126812F00C024DD0042AE1
:1006D00037D0082A22D00C2A49D01022884240F074
:1006E0007F80002A06D0022A43D0042A44D0082A58
:1006F00045D047E001F022F946E0DFF85C25904262
:100700000ED1DFF84C25126812F030022DD0102ADD
:1007100017D0202A02D0302A29D0DEE70222DDE7D6
:10072000DFF8382590420ED1DFF82425126812F048
:10073000C0021AD0402A04D0802AEFD0C02A16D096
:10074000CBE70422CAE78842C7D1DFF80425126844
:1007500012F4406209D0B2F5806FF2D0B2F5006FAA
:10076000DCD0B2F5406F02D0B7E72A46B6E70822E0
:10077000B4E7DFF8EC0407E001F0A7F804E04FF479
:10078000004001E028460125002800F0988000BFC5
:1007900051A1626A31F81210B0FBF1F6304662687E
:1007A00002EB4201884202D31103814201D20125AA
:1007B00085E0002747EA166710464008002110EB45
:1007C00006207941002301F027F9A0F54071DFF8F8
:1007D0001026914202D22168C86070E001256EE0C7
:1007E000E069B0F5004F38D1082A15D8DFE802F0EB
:1007F00005080B140E141414110001F09FF80DE0FD
:1008000001F0A9F80AE0DFF8580407E001F05DF80C
:1008100004E04FF4004001E02846012500284ED0B6
:10082000D4F804102CA2636A32F81320B0FBF2F063
:100830000A46520802EB4002B2FBF1F04FF6F071AB
:10084000A0F110028A4206D20140C0F342000143E7
:100850002068C16033E0012531E0082A15D8DFE8BF
:1008600002F005080B140E141414110001F066F8C0
:100870000DE001F070F80AE0DFF8E40307E001F0B2
:1008800024F804E04FF4004001E028460125002848
:1008900015D0616810A2636A32F81320B0FBF2F041
:1008A00000EB5100B0FBF1F0A0F110014FF6F07237
:1008B000914203D280B22168C86000E0012504F1B2
:1008C000680001214180018000218160C1602846CB
:1008D000F2BD0000FEFFFFEF010002000400060071
:1008E00008000A000C0010002000400080000001F9
:1008F00090F82810C90706D50268536823F400331E
:10090000C16A0B43536090F82810890706D5026826
:10091000536823F48033016B0B43536090F8281025
:10092000490706D50268536823F48023416B0B43C3
:10093000536090F82810090706D50268536823F41D
:100940000043816B0B43536090F82810C90606D50D
:100950000268936823F48053C16B0B43936090F853
:100960002810890606D50268936823F40053016CA9
:100970000B43936090F82810490611D5026853681C
:1009800023F48013416C0B435360416CB1F5801F1D
:1009900006D10268536823F4C003816C0B43536093
:1009A00090F82810090606D501684A6822F400224A
:1009B000C06C02434A6070477CB5044604F1800570
:1009C0000020E86001F040F9064620680068000752
:1009D0000BD56FF07E400090334600224FF400119B
:1009E000204600F01BF800280FD12068006840075F
:1009F0000DD56FF07E400090334600224FF4800109
:100A0000204600F00BF8002801D0032076BD2020FE
:100A10006860A8600020E066287076BD2DE9F0418E
:100A200005460E4617469846069C2868C069304021
:100A3000B04201D1012000E000203946884255D162
:100A400014F1010FF1D001F0FFF8A0EB080084428F
:100A500001D3002C1FD1286850E8001F21F4D07169
:100A6000024642E800100028F5D12868083050E816
:100A7000001F49084900286800F1080242E80010F8
:100A80000028F2D105F18000202141608160002121
:100A9000017003202BE0286801684907C5D5C169AA
:100AA0000905C2D54FF400610162286850E8001FB3
:100AB00021F4D071024642E800100028F5D12868E0
:100AC000083050E8001F49084900286800F1080272
:100AD00042E800100028F2D105F180002021416099
:100AE0008160C16000210170032000E00020BDE8AA
:100AF000F08170B504461346A16504F15C063380AD
:100B000004F180050020E8602220A860306A0028F7
:100B10001ED00FF29D11C1620FF22920316A0863C5
:100B20000FF23920316A48630020316A8863A26D70
:100B3000206800F12401306A00F077FA002807D01D
:100B40001020E860002028702020A860012070BDDF
:100B5000002028702069002809D0206850E8001F74
:100B600041F48071024642E800100028F5D1206867
:100B7000083050E8001F41F00101206800F1080230
:100B800042E800100028F2D12068083050E8001F29
:100B900041F04001206800F1080242E800100028FE
:100BA000F2D1002070BD016851E8002F22F0C00290
:100BB0000B4643E800210029F5D10168083151E8CE
:100BC000002F22F40002016801F1080343E800212C
:100BD0000029F2D12021C0F884107047016851E843
:100BE000002F22F490720B4643E800210029F5D132
:100BF0000168083151E8002FDFF8E8110A40016868
:100C000001F1080343E800210029F1D1C16E012957
:100C100009D1016851E8002F22F010020B4643E889
:100C200000210029F5D12021C0F888100021C166DB
:100C3000016770470100001020010004AD0D00089D
:100C400000800040F369FFCFFFF4FF11003801403E
:100C5000881002400044004000480040004C004022
:100C60000024F4000146886A0968096889061AD4D4
:100C70000021A0F856100168083151E8002F22F039
:100C80008002016801F1080343E800210029F2D144
:100C9000016851E8002F42F040020B4643E8002172
:100CA0000029F5D1704700F0D5BF806A00F0D3BFAE
:100CB00018B4826A02F15C0100680068800634D4CE
:100CC00000204880106850E8003F23F480730446F9
:100CD00044E800300028F5D11068083050E8003FA3
:100CE0005B085B00106800F1080444E8003000284D
:100CF000F2D11068083050E8003F23F0400310683C
:100D000000F1080444E800300028F2D12020C86235
:100D10000869012809D1106850E8003F23F010034A
:100D2000044644E800300028F5D10869012804D1C0
:100D30000988104614BC00F0F0BA104612BC00F04E
:100D40008BBF0000806A00F15C010A69012A03D1AF
:100D50000988490800F0E1BA00F07FBF70B5846AE5
:100D600004F1840528686E6821688968090607D53A
:100D7000212805D10020A4F856002046FFF713FFD4
:100D800020688068400608D5222E06D1002004F194
:100D9000560108812046FFF721FFA86840F01000A7
:100DA000A8602046BDE8704000F0B6BA806A00F145
:100DB000560100220A810A8000F0AEBA016851E8AB
:100DC000002F22F040020B4643E800210029F5D114
:100DD0002021C0F884100021416700F03BBF0000D3
:100DE00000FD0F00FEFFFFEF10B55A4C5A4820607F
:100DF0004FF4E13060600020A060E06020610C20D2
:100E000060614FF44070A0610020E0612062606288
:100E1000A0622046FFF7E0F9002801D001F0CDFAEA
:100E20000021204601F0F6FA002801D001F0C5FAB1
:100E30000021204601F011FB002801D001F0BDFA8D
:100E4000204601F0C9FA002803D0BDE8104001F0A7
:100E5000B4BA10BD78B597B004460022142101A899
:100E600001F04AFB0022442106A801F045FB20685E
:100E7000394988426CD1022006900020089006A8CB
:100E800001F058FB002801D001F097FA3348C168FF
:100E900041F40031C160C16801F400310091009952
:100EA000016841F001010160006800F0010000905C
:100EB00000980F20019002200290002003900490DF
:100EC0000720059001A94FF0904001F067FC244DE8
:100ED000244E2E601A2068600020A860E860802000
:100EE000286100206861A8612020E8614FF48050EB
:100EF0002862284600F038F8002801D001F05DFA99
:100F0000E567AC6206F1140028661B2068661020B5
:100F1000A8660020E8668020286700206867A86728
:100F2000E867C5F8800005F1600000F01DF80028B2
:100F300001D001F042FA05F16000A067C5F88840D1
:100F400000220A21262001F068FD262001F074FD10
:100F500018B070BDC8040020004400404C1002408E
:100F6000080400200800024038B5040001D1012027
:100F700032BD216804F12405DFF8780381420BD2E9
:100F8000DFF8740341181420B1FBF0F080002862F0
:100F9000DFF86803E8610AE0DFF864034118142011
:100FA000B1FBF0F080002862DFF85803E86102200E
:100FB000687021680A686FF30E12A0680243E06847
:100FC00002432069024360690243A0690243E06969
:100FD0000243206A02430A60204600F062F9A068DA
:100FE000B0F5804F01D1002060602079696A086007
:100FF000E86AA96A4860606800280BD0052809D211
:10100000204600F068F90020296B0860A86B696B26
:10101000486003E0002028636863A8630020A8619B
:10102000012068700020287032BDF8B50446002504
:1010300004F124063078012801D10220F2BD0120FC
:1010400030707078012831D1022070702846B0616C
:10105000206807687F087F000760204600F000F9DD
:101060002168F0680028086803D040F00E0008608E
:1010700007E020F0040008602068016841F00A01E0
:101080000160706A0168C90303D5016841F4807189
:101090000160306B002803D0016841F48071016069
:1010A0002068016841F00101016002E028463070CB
:1010B00002252846F2BD10B4002100F12402537825
:1010C000022B03D004209061012123E003681C68F7
:1010D00024F00E041C60536A1C6824F480741C60A5
:1010E000006803685B085B000360012092F8203011
:1010F00003F01F039840D3695860D06A936A586020
:10110000106B002806D0036823F480730360906B93
:10111000536B58600120507000201070084610BCBE
:10112000704710B5002400F124025178022907D03D
:1011300004209061012050702046107001242BE0A3
:1011400001680B6823F00E030B6001680B685B08F5
:101150005B000B60516A0B6823F480730B60012104
:1011600092F8203003F01F039940D3695960D16A87
:10117000936A5960116B002906D00B6823F48073C1
:101180000B60916B536B59600121517021461170B6
:101190005169002900D08847204610BDF0B400F105
:1011A0002401CA6914680268156891F8206006F085
:1011B0001F06042303FA06F73C4214D06F0712D52A
:1011C0001468A40603D4146824F00404146091F88D
:1011D000202002F01F029340CA695360C9680029A9
:1011E0003CD0F0BC0847022303FA06F73C4218D073
:1011F000AF0716D51468A40605D4146824F00A04B1
:10120000146001224A7091F8202002F01F029340DE
:10121000CA69536000220A70896800291ED0F0BC98
:101220000847082303FA06F6344217D02B0715D5D2
:10123000136823F00E031360012291F8203003F0AD
:101240001F039A40CB695A6001228A614A700022CA
:101250000A700969002901D0F0BC0847F0BC70474A
:1012600030B4046DC56C6C60446D002C02D0C46D4C
:10127000856D6C60012490F8445005F01F05AC406A
:10128000056C6C600468636003688468102C03D18B
:101290009A600068C16002E099600068C26030BC7A
:1012A00070470168184A134B994200D3203201F06D
:1012B000FF0108391423B1FBF3F1436C9B0812EBD7
:1012C00083028264114AC264012201F01F0102FA02
:1012D00001F10165704701790D4A02EB8102426517
:1012E0000C4A82650122491E01F01F018A40C26535
:1012F0007047000008040240F8FFFDBF00000240F4
:10130000F8FBFDBF000402400008024080080240D4
:10131000FC08024040090240704770477047704720
:10132000704730B5016884684218416802EB510388
:10133000C90703D54C4401E0491C08D19A4218BFA3
:1013400012F9011B01D10C3030BD12F8015B0029EC
:1013500004F8015BF0D4491EF7D5EFE72DE9F84317
:10136000040000F0E281DFF870562078C00712D543
:10137000A86800F00C00E96801F003010C2801D115
:10138000032901D0082845D12868800303D5606867
:10139000002800F0CA812078800721D5A86800F0D5
:1013A0000C00E96801F003010C2801D1022901D0E9
:1013B000042866D12868400503D5E068002800F0BD
:1013C000B481686820F0FE40216940EA01606860ED
:1013D000DFF81006006801F03FFB002840F0A5810F
:1013E000DFF804662078000740F1848060690028F7
:1013F000706870D040F00100706000F025FC074676
:101400007068800776D400F01FFCC01B0328F7D358
:1014100003208DE16068B0F5803F04D1286840F476
:101420008030286012E0B0F5A02F286807D140F482
:1014300080202860286840F48030286006E020F48E
:1014400080302860286820F48020286060680028A8
:101450000BD000F0F9FB0646286880039BD400F00F
:10146000F3FB801B6528F7D3D2E700F0EDFB0646BF
:10147000286880038FD500F0E7FB801B6528F7D331
:10148000C6E7E0680028286816D040F4807028601D
:1014900000F0DAFB06462868400505D400F0D4FBCE
:1014A000801B0328F7D3B3E7686820F0FE4021696A
:1014B00040EA0160686093E720F48070286000F0E3
:1014C000C3FB0646286840058AD500F0BDFB801B9B
:1014D0000328F7D39CE740084000706000F0B4FB9D
:1014E00007467068800705D500F0AEFBC01B0328D7
:1014F000F7D38DE72078400768D50027A86DC00096
:1015000009D4A86D40F08050A865A86D00F0805007
:10151000009000980127DFF8D484D8F80000C005B7
:1015200013D4D8F8000040F48070C8F8000000F030
:101530008BFB8146D8F80000C00506D400F084FB80
:10154000A0EB09000328F5D362E7A068012804D1C5
:10155000306840F00100306011E00528306807D1A4
:1015600040F004003060306840F00100306006E078
:10157000400840003060306820F004003060A0680F
:1015800000280ED000F060FB80463068800717D43A
:1015900000F05AFBA0EB080041F289318842F4D3F5
:1015A00036E700F051FB80463068800708D500F030
:1015B0004BFBA0EB080041F289318842F4D327E7C6
:1015C000012F03D1A86D20F08050A86520788006F7
:1015D00021D5A0690028B0680ED040F00100B060AD
:1015E00000F032FB0746B068800714D400F02CFBF3
:1015F000C01B0328F7D30BE740084000B06000F0A1
:1016000023FB0746B068800705D500F01DFBC01B13
:101610000328F7D3FCE6E069002800F08880A96879
:1016200001F00C010C2955D00228286820F08070A8
:1016300028603AD100F008FB06462868800105D5ED
:1016400000F002FB801B0328F7D3E1E6E868DFF82F
:10165000A0130840216A0843616A491E40EA01104C
:10166000A16A40EA0120216B4908491E40EA415025
:10167000616B4908491E40EA4160E16A40EAC16085
:10168000E860286840F080702860E86840F080706A
:10169000E86000F0D9FA04462868800147D400F0D9
:1016A000D3FA001B0328F7D3B2E6E868800880006D
:1016B000E860E968DFF83C030140E96000F0C4FA43
:1016C00004462868800132D500F0BEFA001B0328CA
:1016D000F7D39DE6012828D0E86800F00301226ACC
:1016E000914222D100F0F001626A521EB1EB021F5A
:1016F0001BD100F4FE41A26AB1EB022F15D100F01C
:101700007841E26AB1EBC26F0FD100F4C001226BE5
:101710005208521EB1EB425F07D100F0C060616B0E
:101720004908491EB0EB416F01D0012000E00020C4
:10173000BDE8F2832DE9F843044688460027002CD3
:1017400061D0DFF8B452286800F00F00404509D29C
:101750002868000948EA00102860286800F00F0097
:10176000404550D1DFF870622078C0074DD56068E1
:1017700003281AD13068800145D500F00AF9DFF856
:101780007C12884223D3B06810F0F00F05D0207887
:1017900080071CD5A068002819D1B06820F0F0009F
:1017A00040F08000B060802711E00228306828D126
:1017B000800328D500F089F8DFF84012884206D36C
:1017C000B06820F0F00040F08000B0608027B16881
:1017D0008908606850EA8101B16000F035FA8146FD
:1017E000B06800F00C006168B0EB810F0DD000F024
:1017F0002BFAA0EB090041F289318842F0D3032093
:1018000061E04005D6D401205DE02068810715D550
:10181000400703D5B06840F4E060B060207800076E
:1018200005D5B06820F4605040F4E060B060B16865
:1018300021F0F001A0680143B16005E0802F03D1E1
:10184000B06820F0F000B060286800F00F0080451C
:1018500014D22868000948EA0010286000F0F4F962
:101860000746286800F00F00404507D000F0ECF96B
:10187000C01B41F289318842F3D3C0E7207840078A
:1018800005D5B16821F4E061E0680143B1602078DA
:10189000000706D5B06820F46050216940EAC10015
:1018A000B06000F012F85649B268C2F30312895CC6
:1018B00001F01F01C8404A4908604A480068BDE875
:1018C000F24301F0C9B8BDE8F2834E49086800F060
:1018D0000C00042801D141487047086800F00C0052
:1018E000082801D148487047086800F00C000C280F
:1018F0001FD14A6802F003024868C0F30310401C7D
:10190000032A07D1404AB2FBF0F24868C0F3062030
:10191000424306E0314AB2FBF0F24868C0F30620C9
:1019200042434868C0F34160401C4000B2FBF0F005
:101930007047002070472A480068704780B5FFF75D
:10194000FAFF32492F4A1268C2F30222895C01F081
:101950001F01C84002BD80B5FFF7EDFF2B49294AA2
:101960001268C2F3C222895C01F01F01C84002BDA7
:101970001948016841F400210160704710B5244CFA
:101980002068C00504D501F08FF84FF480706060C6
:1019900010BD20490A6802F003020868C0F3031072
:1019A000401C032A07D1184AB2FBF0F20868C0F3C2
:1019B0000620424306E0094AB2FBF0F20868C0F391
:1019C000062042430868C0F34160401C4000B2FB5F
:1019D000F0F0704700000000001002400024F40006
:1019E00004030020FC020020901002400070004020
:1019F0000C809F01FFFFEEFE0020024001B4C404F2
:101A0000785600080810024000366E01FC560008A7
:101A10001C1002400C100240BBBBE1B1B2F5803F8C
:101A200080F07E80022A1ED98C46B1FBF2F102FBC7
:101A300011C31B0443EA1043B3FBF2FC02FB1C334B
:101A400080B240EA0343B3FBF2F002FB103240EAFB
:101A50000C4000237047022A05D98446B0FBF2F0FF
:101A600002FB10C270474AB105D100F001024908DB
:101A70005FEA3000704700220023704701F016B87B
:101A80000B000200002100207047904271EB030C14
:101A9000F6D3B3F5803F2FD2F0B5B3FA83F7B1FA9E
:101AA00081F4A7F10F0E3D1B5340CEF1200602FA40
:101AB0000EF2F3415340B5F10F0746D80F3C2C44CA
:101AC0004140C4F12006A040F1414140B1FBF3F692
:101AD00003FB1611A2FB0645001BA94102D2761E8C
:101AE0008018594180EA010221FA0EF362FA0EF2DF
:101AF00000215A403046F0BD30B4B1FBF3FC03FB8B
:101B00001C11A2FB0C45001BA94103D2ACF1010C36
:101B10008018594130BC02460B4660460021704790
:101B2000B2F1807F65D3F0B5B2FA82F7B1FA81F4F1
:101B3000C7F10F063D1B22FA06F307F1110EF24121
:101B400020355A40B5F10F07B8D94140C4F12006FD
:101B5000A040F1414140B1FBF3FC03FB1C11A2FB8F
:101B60000C45001BA94103D2BCF1010C801859415E
:101B70000F2F12D30F3FC90341EA5041B1FBF3F6D7
:101B800003FB1611A2FB0645D4EBC030A94102D2DB
:101B9000761E8018594146EACC3C07B34140C7F154
:101BA0002006B840F1414140B1FBF3F603FB1611AA
:101BB000A2FB0645001BA94102D2761E801859419E
:101BC00080EA010221FA0EF3C7F1200462FA0EF254
:101BD0000CFA07F05A402CFA04F13043F0BD80EAC9
:101BE000010221FA0EF3002162FA0EF260465A4019
:101BF000F0BD8C46B1FBF2F102FB11C31B0243EABC
:101C00001063B3FBF2FC02FB1C331B024CEA002006
:101C100043EA1063B3FBF2FC02FB1C331B024CEAE9
:101C2000002043EA1063B3FBF2FC02FB1C331B02EF
:101C30004CEA002043EA1063B3FBF2FC02FB1C32C7
:101C40004CEA00200023704701480068704700BF3D
:101C5000F8020020704770477047704780B500F069
:101C600027FF00F00FF800F03FFF00F071FF00F0D9
:101C700097FF01F0A7F9FFF7B7F800F03EF800F082
:101C800083F9FCE700B593B00022382105A800F0E5
:101C900033FC00221421684600F02EFC002001F0E5
:101CA000DBFA012005904FF48030069002200C9062
:101CB00003200D9006200E9055200F9002201090CA
:101CC0001190129005A8FFF749FB002801D000F001
:101CD00074FB0F20009003200190002002900390DD
:101CE000049004216846FFF725FD002801D000F08C
:101CF00064FBFFF73DFE13B000BD10B572B6DFF810
:101D00007C462046D4F8A81088474FF48072216999
:101D10002068FEF7EAFA002801D000F04EFBDFF859
:101D20006046206801F018FC002801D000F045FB57
:101D30000022A16E206801F0DAFC002801D000F03A
:101D40003CFB07224FF42071DFF8380601F0CFFC8E
:101D5000002801D000F031FB0020A060E0604FF4CB
:101D60000020206100206061A061E061206260626B
:101D700062B601F0EBF80121DFF80C0600F0D8FDA7
:101D8000DFF81416C87010BDF8B52DED068BDFF81E
:101D9000FC65306B401C306301F060FE41EC180BB9
:101DA00096ED089B53EC192B0020DFF8E41501F0A9
:101DB00063FE53EC182B01F035FF05D8D6E90A0174
:101DC00001F04AFFB0810EE051EC190B01F02AFF3F
:101DD00007D8D6E90A0181F0004101F03DFFB0814A
:101DE00001E000203063306B01F038FE4FF0C0425C
:101DF000DFF8A03501F040FE53EC192B01F048FF4D
:101E000002F06AF800EE100A02F09AF810EE100ADA
:101E100002F0DCF8D6E90A2301F02EFE01F01CFFE7
:101E2000B081DFF8747597ED100AD7ED110A30EE26
:101E3000200A02F085F810EE100A02F0C7F8D7E980
:101E40001A2301F019FED7E91C2301F015FE02F058
:101E500043F8F86597ED100A02F072F8B0EE408A88
:101E600097ED17AA1AEE100A02F0B0F804460D46D4
:101E700018EE100A02F0AAF8D7E9182301F0FCFDC9
:101E8000D7E91C2301F0F8FD22462B4602F0C2F8E8
:101E900002F022F80AEE900AC7ED16AA97ED1E8B03
:101EA000DFF8F8449FED369B97ED150A8AEE000A9D
:101EB00010EE100A02F08AF853EC182B01F0E8FE3D
:101EC00053EC192B01F0D8FDD6E9062301F0D4FD1F
:101ED00001F0C2FE608697ED140A8AEE800A10EEC9
:101EE000100A02F073F853EC182B01F0D1FE53ECFA
:101EF000192B01F0C1FDD6E9042301F0BDFD01F06D
:101F0000ABFEE081786C02F061F821F00041D7E986
:101F10000E2301F087FE01D800206086386C02F0A5
:101F200055F821F00041D7E90C2301F07BFE01D8E0
:101F30000020E0810121DFF8500400F0F9FCF87086
:101F400001280BD10020014604F10E0204E000EB51
:101F5000C0039B00D152401C0128F8DDB06B401C2F
:101F6000B0630A2809DB7879012806D1B8780028FF
:101F700003D000F070FF0020B063BDEC068BF1BD14
:101F80000000000000408F402DE970432DED068BCE
:101F900082B0DFF8F843FFF757FE6063207800282F
:101FA00007D00FF21C41DFF8D40302F08EF90020B5
:101FB0002070DFF8E453A078002804D0687900F09E
:101FC000C9FE0020A070E078002809D0A97901207E
:101FD00000F0D2FEA979022000F0CEFE0020E070D1
:101FE000607800280AD00B21012000F0C5FE0B21EB
:101FF000022000F0C1FE0020A87060702079002847
:1020000007D0012000F062FF022000F05FFF0020F7
:1020100020712878022801DB012000E00020A97847
:10202000014207D0012000F083FE022000F080FE74
:1020300000202870A07A002807D0012000F072FF4D
:10204000022000F06FFF0020A072607900281CD0F1
:10205000012000F063FF022000F060FF46F2640000
:10206000CE4EB6F902108142FBD1B6F9261081425C
:10207000F7D1B06802F09CF9C5E90401F06A02F0FA
:1020800097F9C5E9060100206071A079002807D002
:10209000012000F043FF022000F040FF0020A0716B
:1020A000607A002800F0CB80012000F037FF02208A
:1020B00000F034FF052002F08DF946F26400B74EBF
:1020C000B6F902108142FBD1B6F926108142F7D150
:1020D00095ED100AD5ED110A30EE200A01F030FF1F
:1020E00010EE100A01F072FFD5E91A2301F0C4FCCA
:1020F000D5E91C2301F0C0FC01F0EEFEE86595ED8A
:10210000100A01F01DFFB0EE408A95ED17AA1AEEF5
:10211000100A01F05BFF8046894618EE100A01F0B4
:1021200055FFD5E9182301F0A7FCD5E91C2301F0E0
:10213000A3FC42464B4601F06DFF01F0CDFE0AEED6
:10214000900AC5ED16AA95ED1E8B9FED959B95ED1A
:10215000150A8AEE000A10EE100A01F037FF53EC60
:10216000182B01F095FD53EC192B01F085FCD4E9F7
:10217000062301F081FC01F06FFD708695ED140AD5
:102180008AEE800A10EE100A01F020FF53EC182BA3
:1021900001F07EFD53EC192B01F06EFCD4E9042311
:1021A00001F06AFC01F058FDF081686C01F00EFF4F
:1021B00021F00041D5E90E2301F034FD01D80020C3
:1021C0007086286C01F002FF21F00041D5E90C2354
:1021D00001F028FD01D80020F08101216A4800F0BB
:1021E000A7FBE87001280BD10020014606F10E0282
:1021F00004E000EBC0039B00D152401C0228F8DB36
:1022000046F27105B6F93200009000232A460221F9
:10221000084600F058FDB6F90E00009000232A464B
:102220000221012000F04FFD052002F0D3F8B6F99D
:102230000200A842FBD1B6F92600A842F7D1207AC5
:10224000002801D000F05EFFFFF7FEFC616B401A32
:10225000E07102B0BDEC068BBDE870835548017893
:10226000491C01707047F8B50268136D5B0701D512
:1022700004231365424C256800682A6890426BD19C
:10228000A06E014268D0444E04F1580304F13002BC
:10229000616E284601F09EF90028206B09D07189F3
:1022A000884202D10020307000E0708100F085F893
:1022B00040E000F07F01491E717000F4F060308151
:1022C000B0F5C07F49D0B0F5B06F33D1C9B2242585
:1022D000324F15FB01F03844C2699047707815FB06
:1022E00000F57819B0F9020046F26401884221D164
:1022F00075782D4805EBC5018900405802F058F863
:1023000006EBC502D2E9042301F042FF274A284B1D
:1023100001F0B2FB01F0E0FD00EE100A06F1500002
:1023200000EB8500D0ED000A80EE200A06EB850068
:1023300080ED100A4021134801F0C7F9307130795F
:10234000012809DD04F1580304F13002616E2068B0
:1023500001F040F90028F5D1F1BD3078401C307013
:10236000C9B20E4801EBC10200EB8200026A90473D
:102370000128BDD00B20B071DCE70000480200202E
:102380004C010020D8050020000400481001002066
:102390000000E03FFB21194090000020B801002020
:1023A0000000000000408F40C00100205D8940F522
:1023B0000F22493F43060020E6E472B6FEE7000024
:1023C00041542B434F4E4D41433D37304238463602
:1023D0003937373639320D0010B400F180010A78F0
:1023E000012A01D1022013E001220A7024224A604E
:1023F000026813681468640864001460002242666E
:1024000023F00053006803602020486010460870E5
:1024100010BC704770B5044604F180052878012887
:1024200001D1022070BD012028702420686020683E
:10243000066802685208520002602068826822F032
:10244000604211438160204600F02AF8206806604F
:10245000202068600020287070BD70B5044604F12B
:1024600080052878012801D1022070BD0120287044
:1024700024206860206806680268520852000260E2
:102480002068826822F0606211438160204600F07B
:1024900007F820680660202068600020287070BD62
:1024A00030B400F16802416E002903D10120508050
:1024B000108016E000688168490E01F0070180680D
:1024C000400F00BF0FF2280307A4255CED00185C45
:1024D00095FBF0F05080605CC000595C90FBF1F01F
:1024E000108030BC704700000101010307010000AB
:1024F000080402040801010162F30F2262F31F4283
:1025000000B500BF130096469446103928BFA0E8D6
:102510000C50FAD85FEA417C28BF0CC048BF40F895
:10252000042BC90728BF20F8022B48BF00F8012B55
:1025300000BD00002DE9FC47054600242646DFF8D3
:1025400050722868000369D5A046F86CC0000AD410
:10255000F86C40F08050F864F86C00F08050009007
:1025600000984FF00108DFF82C92D9F8000040F4F1
:102570008070C9F80000FFF767FB8246D9F80000B9
:10258000C00506D4FFF760FBA0EB0A000328F5D3D3
:10259000032420003AD1DFF80092D9F8000010F4AB
:1025A000407014D0296C884211D0D9F8000020F472
:1025B0004070D9F8001041F48031C9F80010D9F802
:1025C000001021F48031C9F80010C9F80000C007DC
:1025D0000FD5FFF739FB8246D9F80000800708D4F1
:1025E000FFF732FBA0EB0A0041F289318842F3D3B6
:1025F0000324200008D1D9F8001021F44071286C80
:102600000143C9F8001002E0264600E02646B8F172
:10261000010F03D1F86C20F08050F8642878C007CF
:1026200005D5F96F8908686850EA8101F96728784B
:10263000800705D5F96F21F00C01A8680143F967FF
:102640002878400705D5F96F21F03001E86801438B
:10265000F9672878000705D5F96F21F0C0012869CE
:102660000143F9672878800605D5F96F21F44061A8
:1026700068690143F9672878400605D5F96F21F4A8
:102680004051A8690143F9672878000605D5F96F1C
:1026900021F44041E8690143F9672868C00505D580
:1026A000F96F21F44031286A0143F96728688005F1
:1026B00005D5F96F21F44021686A0143F96728685C
:1026C00040050DD5F96F21F44011A86A0143F9675F
:1026D000A86AB0F5801F03D1386840F480103860D4
:1026E000286800050DD5F96F21F44001E86A01431F
:1026F000F967E86AB0F5800F03D1386840F48010BC
:1027000038602868C0040DD5F96F21F04071286B3E
:102710000143F967286BB0F1807F03D1386840F43A
:1027200080103860286880040DD5F96F21F0406171
:10273000686B0143F967686BB0F1006F03D13868CB
:1027400040F480103860286840040DD5F96F21F0FE
:102750004061A86B0143F967A86BB0F1006F03D12A
:10276000386840F480103860286800040DD5F96F8F
:1027700021F04051E86B0143F967E86BB0F1805FED
:1027800003D1386840F4803038603046BDE8F687C1
:102790000C1002400070004090100240F8B5024654
:1027A0000B4600242DE04FF0060C05E0DFF890C149
:1027B0006245F8D14FF0050C0CFA06FC4CEA070C08
:1027C00045F821C05F498E68C5432E405F68FF020F
:1027D00000D506438E60CE682E405F68BF0200D5EC
:1027E0000643CE604E682E405F68BF0300D50643A7
:1027F0004E600E682E405D68ED0300D506430E6006
:10280000641C18680146E14000F091800127A74050
:102810003840F5D0610003258D40ED435E6806F039
:10282000030CBCF1010F03D006F00306022E10D1F9
:1028300096682E40D3F80CC00CFA01FC4CEA060650
:1028400096605668BE435F68C7F30017A7403E43D3
:1028500056601E7906F00306032E05D0D6682E407A
:102860009F688F403E43D6601E7906F00306022E15
:1028700015D12646F60802EB86073E6A4FEA840C1D
:102880000CF01C0C4FF00F0E0EFA0CFE26EA0E0692
:10289000D3F810E00EFA0CFC4CEA06063E6216680D
:1028A0002E401D7905F0030505FA01F10E4316606F
:1028B000596811F4403FA3D023490D6845F0010544
:1028C0000D60096801F00101009100992146890815
:1028D0001E4D55F82170A60006F00C064FF00F0CA7
:1028E0000CFA06FC27EA0C07B2F1904F02D14FF028
:1028F000000C61E7DFF858C0624502D14FF0010CCF
:102900005AE7DFF850C0624502D14FF0020C53E79E
:10291000DFF844C0624502D14FF0030C4CE7DFF80A
:102920003CC062457FF442AF4FF0040C44E7F1BD78
:10293000006901400846401E8041C043C00F7047F7
:1029400000140048000401406010024008000140EB
:102950000004004800080048000C0048001000482F
:10296000374A13684FF6FF010B40000200F4E060A5
:102970001843344908431060704731480068C0F379
:1029800002207047010007D4012200F01F018A4095
:102990002D49400941F8202070470901020002D466
:1029A0002A48815470472A4802F00F02104400F868
:1029B000041C704710B400F00700C0F10703052B9A
:1029C00000D30423041D072C01D2002000E0C01E08
:1029D000012404FA03F35B1E1940814004FA00F05D
:1029E000401E1040084310BC704738B50446641EB2
:1029F000B4F1807F0AD2174D6C600F214FF0FF3089
:102A0000FFF7CBFF0020A86007202860B4F1807F8B
:102A10008041C043C00F32BDA2E770B504460D46E9
:102A20001646FFF7AAFF32462946FFF7C3FF0146C5
:102A30002046BDE87040B0E7A4E7D6E7FFF7BCBC8E
:102A40000CED00E00000FA0500E100E000E400E029
:102A500018ED00E010E000E070B504460025104ECF
:102A6000B068002819D04FF47A71B1FBF0F00D492D
:102A70000968B1FBF0F0FFF7E0FF00280BD1102C44
:102A800007D22A4621464FF0FF30FFF7C6FF746099
:102A900004E0012502E0012500E00125284670BD83
:102AA000F802002004030020704700007047000077
:102AB00010B500240B48016821F4806101600168B1
:102AC00041F4807101600320FFF7A6FF2046FFF765
:102AD000C3FF002801D0012401E001F08FFC204653
:102AE00010BD00000020024080B586B000221421F5
:102AF00001A8FFF701FD1448016841F020010160C1
:102B0000016801F0200100910099016841F0010184
:102B10000160016801F0010100910099016841F034
:102B200002010160006800F002000090009801209E
:102B30000190002002900120039001A90348FFF7B3
:102B40002DFE07B000BD00BF4C100240000400483D
:102B500080B51248016841F004010160016801F08C
:102B6000040100910099016841F0010101600068D1
:102B700000F0010000900098002211460B20FFF7A2
:102B80004CFF0B20FFF758FF002211460C20FFF7E7
:102B900044FF0C20BDE80240FFF74EBF4810024042
:102BA00010B586B0DFF8F843DFF8F80320600020A6
:102BB0006060A060E0600120207400206074A07458
:102BC0000A2060610120A0610E20E06102202062E5
:102BD00001206062A062E06220631C20606300202C
:102BE000A063E063204600F0AFFB002801D0FFF7B0
:102BF000E4FB00200090019002900120039000204F
:102C0000049040F2FF7005906946204600F078FC81
:102C1000002801D0FFF7D1FB06B010BD18B597B062
:102C200004460022142101A8FFF766FC002244217B
:102C300006A8FFF761FC2068DFF86813884240D1DE
:102C40004FF4805006904FF00070129006A8FFF7E6
:102C500071FC002801D0FFF7B0FBDFF84C03C1681E
:102C600041F00071C160C16801F0007100910099EC
:102C7000016841F001010160006800F0010000906E
:102C800000984FF4C0500190022002900120039060
:102C9000032004900920059001A94FF09040FFF710
:102CA0007DFD002201211520FFF7B7FE1520FFF75B
:102CB000C3FE002201211620FFF7AFFE1620FFF70A
:102CC000BBFE18B010BD3CB4049DB84C00F5C0600C
:102CD0006060012904D0022908D004290ED01BE02D
:102CE00004F128002F210170057118E004F128007B
:102CF0002B21017005712D12457110E004F128009F
:102D000023210170057129460912417129460914D0
:102D100081712D16C57102E0222084F8280004F18B
:102D20002800427012128270C370204636BCA0E0A8
:102D30009E4900F500724A609D4A00EBC00302EB19
:102D4000830030F9160C01F1280210700012507047
:102D500008468EE070B50446944D05F12806002221
:102D600008213046FFF7C8FB00206860347070709F
:102D70002846BDE870407CE038B5054646F2400480
:102D80000091002322460221FFF79DFF8848294633
:102D900001EBC10200EB820030F9220CA042F5D118
:102DA00031BD10B4491C017082490A784B7842EA5F
:102DB0000322428012B246F23F03D21A0AD0921E78
:102DC00002D0233A18D022E0CA78097942EA0122D7
:102DD00082801CE0784A1378CC78097944EA01248F
:102DE000194600EB410004825B1C1370DBB2052B1B
:102DF0000DD1002010700AE0CA780B7942EA032254
:102E00004B7942EA0342897942EA0162826010BC4E
:102E10007047491C017046F24101418067490A78B8
:102E20004B7842EA032282808A78CB7842EA0322F6
:102E3000C2800A794B7942EA03228B7942EA034243
:102E4000C97942EA016282608088C0F3C000401EF6
:102E50008041C00F704710B5544C80206060002244
:102E6000082104F12800FFF747FB2046BDE8104089
:102E7000FFE710B5044620680068006D8005FAD4AD
:102E8000206800F02EFC0028FAD004F12802211D51
:102E9000206800F076FB002801D0FFF78EFA20684A
:102EA0000068006DC00400D5FEE710BD18B43F4BAC
:102EB00000F5C060586003F12800402404704170A0
:102EC00009128170C270184612BCD2E770B5044670
:102ED00046F2410500222946FFF7E8FF3448214623
:102EE00001EBC10200EB8200A0F12206B6F900005E
:102EF000A842F3D17088C0F3C00000280DD046F27C
:102F00003F05002229462046FFF7D0FF2C4900E06C
:102F10000880B6F90000A842FAD170BD002246F23E
:102F20006401C3E71CB5044600200090034641F24B
:102F3000030201212046FFF7C6FE00212046FFF7CD
:102F40001BFF80212046BDE81C4015E71CB5012071
:102F5000FFF7BCFF0220FFF7B9FF01241AE00A20A7
:102F60000090002346F2600201212046C0B2FFF724
:102F7000AAFE00200090034642F2010201212046F1
:102F8000C0B2FFF7A0FE601C094904EBC402920026
:102F90008854641C032CE2DB8020BDE81640D9E68F
:102FA000D8050020006400404C1002404C01002075
:102FB000B8010020A501002042060020A401002045
:102FC0004006002010B59F4C9F4820619F486061DB
:102FD0000020A0610120E061002020626062A06208
:102FE000E062206304F1100001F022FA002801D011
:102FF000FFF7E3F9002104F1100001F0ADFD002816
:1030000001D0FFF7DAF9002104F1100001F0CEFD44
:10301000002803D0BDE81040FFF7CFB910BD18B5A8
:1030200097B00446002214216846FFF765FA002293
:10303000442106A8FFF760FA2068834988425FD1DF
:103040004020069000200C9006A8FFF773FA002895
:1030500001D0FFF7B2F97E4C606940F00100606179
:10306000606900F0010005900598606940F0020079
:103070006061606900F00200059005984FF400401F
:103080000090122001900120029000200390042063
:10309000049069464FF09040FFF780FB802000903D
:1030A000122001900120029000200390042004903F
:1030B00069466848FFF772FB206840F48000206092
:1030C000C82001F087F9206820F480002060206A81
:1030D00040F400102062206A00F40010059005986A
:1030E000002211461F20FFF798FC1F20FFF7A4FCC9
:1030F000002211462020FFF790FC2020FFF79CFCC7
:1031000018B010BD38B52DED028B84B04D4C04F1D4
:103110008005E08902900120019000950346A28974
:10312000A22104F1100001F0DCF9022001F052F9B3
:10313000E08902900620019000940123A289A22137
:1031400004F1100001F097FA022001F043F9E08940
:1031500002900120019000950346A289A02104F16C
:10316000100001F0BEF9022001F034F9E08902906C
:1031700006200190A01D00900123A289A02104F146
:10318000100001F078FA022001F024F994ED1E8B72
:103190002078617840EA012000B201F009F953EC8F
:1031A000182B00F075FD00F097FEE065A078E1783F
:1031B00040EA012000B201F0FBF853EC182B00F0BC
:1031C00067FD00F089FE20662079617940EA0120E0
:1031D00000B201F0EDF853EC182B00F059FD00F0AF
:1031E0007BFE6066A079E17940EA012000B201F03F
:1031F000DFF853EC182B00F04BFD00F06DFEA066DD
:10320000207A617A40EA012000B201F0D1F853EC53
:10321000182B00F03DFD00F05FFEE066A07AE17A39
:1032200040EA012000B201F0C3F853EC182B00F083
:103230002FFD00F051FE206704B0BDEC028B31BDC4
:103240000000000000000020005400409B2D801072
:103250003810024000040048DFF8D81000282BD1B5
:10326000DFF8D4000A6802F4C062B2F5806F1ED1A4
:10327000026822F480720260086820F4C06040F4A2
:1032800000700860DFF8B400026832204243DFF8C3
:10329000B000B2FBF0F0401C00E0401E4A6952054D
:1032A00001D50028F9D1486940052ED43AE00168DB
:1032B00021F48071016035E0B0F5007F2CD1DFF89A
:1032C00078000A6802F4C062B2F5806F1FD102680C
:1032D00042F480720260086820F4C06040F400701C
:1032E0000860DFF85800026832204243DFF85000DF
:1032F000B2FBF0F0401C00E0401E4A69520501D5C7
:103300000028F9D1486940050CD5032070470168B1
:1033100041F48071016005E0086820F4C06040F469
:1033200080600860002070470648016841F48041D1
:10333000016070470070004080700040040300206E
:1033400040420F000870004070B5040001D1012018
:1033500070BD04F15C052878002804D10020687055
:103360002046FFF75BFC2068816921F01001816134
:10337000FEF76AFC06462068816909070CD5FEF74E
:1033800063FC801B0B28F6D3686840F0010068607E
:1033900003202870012070BD816941F00101816125
:1033A000FEF752FC064620688169C9070CD4FEF777
:1033B0004BFC801B0B28F6D3686840F00100686066
:1033C00003202870012070BD816941F002018161F4
:1033D00020684949884202D16068484908602068ED
:1033E000217C0129816903D121F04001816102E042
:1033F00041F0400181612068617C0129816903D12C
:1034000041F48041816102E021F4804181612068C2
:10341000A17C0129816903D121F48051816102E0FD
:1034200041F48051816121688A6922F44072A06868
:1034300002438A612068816921F0A40181612068CA
:10344000016921F010010161E068012805D12068BF
:10345000816941F00401816119E0002817D02168D9
:103460000228886910D040F08000886120680169D6
:1034700041F010010161E068032808D120688169EA
:1034800041F02001816102E040F020008861A069E4
:10349000401EE169491E090241EA4061206A401E5E
:1034A00001436069401E41EA00412068C161A06893
:1034B000B0F5407F0FD1A06A401EE16A491E40EA84
:1034C0000120216B491E40EA0110616A491E40EA51
:1034D00001402168C8602168D1F8C020E06B024338
:1034E000C1F8C020204600F03FFA0020A0656860C7
:1034F00001202870002070BD00640040006500407D
:1035000070B400F15C021378012B01D0022B1CD1A6
:103510008A6892074B684C690D69CE680968002972
:1035200009D142EAC66242EA05422243006C00EB3E
:103530008300026007E02243406C00EBC30045EAD1
:10354000467505604260002004E0506840F00200CB
:103550005060012070BC704700F15C010A78012ABC
:1035600009D102220A700068826952085200826101
:10357000002048607047486840F00400486001201F
:10358000704738B5044604F15C000378022B1BD168
:103590002368D3F8C450AD0205D5416841F40071E9
:1035A0004160012032BDD3F8C400C0F301452B4671
:1035B000204600F013FA012000FA05F52068C0F853
:1035C000CC50A565002032BD416841F00801416042
:1035D000012032BDF0B400F15C042578022D6DD1DC
:1035E00005689035402912D12E6816F00F0F05D1CD
:1035F000606840F480706060012064E02C68C4F36F
:103600000125866C05EBC50406EBC40611E0AE6827
:1036100016F00F0F05D1606840F4807060600120E3
:1036200051E0AC68C4F30125C66C05EBC50406EB9C
:10363000C406346814F080445460376803D1C7F37B
:103640008A44146002E027F060471760346804F091
:103650000054946056F8044B04F00044146134683C
:10366000A4B2D461346804F47024D460346804F4DF
:1036700080145461346804F4001494613468C4F311
:103680000664146256F8044BE40F5462002402E00E
:10369000375D1F55641C0FF2B437D2F80CC04FEAE7
:1036A0001C4C17F80C70BC42F2D3006894304029CF
:1036B00001D1056000E08560002004E0606840F012
:1036C000080060600120F0BC70470068903040291D
:1036D00003D1006800F00F007047806800F00F0011
:1036E00070470068D0F8C40000F00700704730B49D
:1036F00000F15C031C78012C01D0022C66D1046817
:10370000A36D11F0070F01D0DD071DD511F0380FA3
:1037100001D09D0718D511F4E07F01D05D0713D5C6
:1037200011F4F05F01D01D070ED511F4604F01D0E8
:10373000DD0609D511F4403F01D09D0604D511F4F2
:103740007C0F05D05D0603D4E56D45F00105E56508
:1037500011F0070F01D0DC071DD411F0380F01D094
:103760009C0718D411F4E07F01D05C0713D411F446
:10377000F05F01D01C070ED411F4604F01D0DC06BD
:1037800009D411F4403F01D09C0604D411F47C0FFD
:1037900006D05B0604D50368DC6D44F00204DC65EA
:1037A0000B0605D50368D3F8DC401443C3F8DC40AE
:1037B000CB0505D50368D3F8E0402243C3F8E020E9
:1037C0000068426D11434165002004E0586840F0F4
:1037D00002005860012030BC70472DE9F843814653
:1037E000D9F800100C6D04F4E054486D04400D6DE0
:1037F00005F00705486D05400E6D06F03806486D6A
:103800000640D1F8508008F47108486D00EA0808B5
:103810000F6D07F46027486D0740086D400607D517
:10382000486D400604D540200865484601F0E6F999
:10383000D9F80020106DC0050DD5506DC0050AD512
:1038400002F1D8000168806801404FF48070106573
:10385000484601F0D4F9002C06D0D9F800000465E0
:103860002146484601F0CCF9002D06D0D9F80000D9
:10387000056529464846FEF7F6FC002E06D0D9F825
:10388000000006653146484601F0BBF9D9F8000052
:10389000016D890508D5416D890505D54FF4007185
:1038A00001654846FEF7DAFCD9F80020106D0006E5
:1038B0000CD5506D000609D502F1D400016880686E
:1038C000014080201065484601F09CF9D9F80000BD
:1038D000016D890408D5416D890405D54FF4005167
:1038E0000165484601F08FF9D9F80000016D09041F
:1038F00008D5416D090405D54FF4004101654846DE
:1039000001F082F9D9F80000016D49040BD5416D31
:10391000490408D54FF480410165D9F8600040F0B2
:103920008000C9F86000002F06D0D9F800000765B4
:103930003946484601F069F9B8F1000F09D0D9F8C5
:103940000000C0F85080D9F8600048EA0008C9F8C3
:103950006080D9F86000002804D04846BDE8F243F2
:1039600001F054B9BDE8F18310B41549016402684F
:10397000D2F8803023F4F813446B43EA0443C2F8CE
:103980008030104A42640268D2F8803023F07063BD
:10399000846B43EA0463C2F880300B4A82640B4AAA
:1039A000C2640B4A02650B4A426502E000200860CF
:1039B000091D09488142F9D310BC7047000000007E
:1039C00000A4004070A40040B0A4004088A50040BE
:1039D00060A6004078A6004050A7004070B40D6972
:1039E0008C6825430E684C68002C02D145EA864558
:1039F00002E0354345F080450C6ACE6946EA04662C
:103A00008C6926434C692643CC682643406D03EB02
:103A1000C30400EBC40005604660083000230DE0DD
:103A2000D418E578A678360446EA0566657846EA4D
:103A300005262478264340F8046B1B1D03A4CD689B
:103A40002D0C645DA342EBD370BC704700010203F0
:103A500004050607080C10141820304050B1B0FAC5
:103A600080F18840C91CC1F58461090501EBD021B2
:103A7000400570470146704730B540F2FF7C1CEAB4
:103A800011541DBF1CEA1355644565453FE0641998
:103A900081EA030C6FF35F530CF0004C43F4801386
:103AA000C90241F0004141EA505EC5021100A5FB88
:103AB000020200284FF00000EEFB01204FF0000151
:103AC000E3FB052118BF42F00102401800214941E3
:103AD000E3FB0E01A4F580640D0302D2921840416D
:103AE000494154F1010470DD450872F1004250F182
:103AF000000051EB0451A1F5801102D441EA0C0100
:103B000030BD40F2FF7E4CEA0E51002030BD0CEA81
:103B10001355644518BF654581EA030C0CF0004C51
:103B200041D050EA410E1CBF52EA430E02E061460A
:103B3000002030BD24422C441BD15FEA050EF6D094
:103B4000090302BF01460020AEF1140EB1FA81F55F
:103B5000AEEB050401FA05FE0C35C5F1200100FAB3
:103B600005F5C8404EEA000E6FF35F5343F480132F
:103B70009CE733F00043B3FA83F504BFB2FA82FE48
:103B800075440B3D641BB5F1200E2FBF02FA0EF3F6
:103B9000AB40C5F1200E22FA0EFE38BF43EA0E03F9
:103BA000AA40641C7CE750EA410E14BF52EA430E5F
:103BB0006FF000014FF4001515EB430F8EBF19464F
:103BC00015EB410F9DE7B4D830BDD4F10104B4F139
:103BD00020050FDAC4F12005520828BF42F0010287
:103BE00010FA05FE01FA05F57244E2BFE0402843F1
:103BF000E1400FE0352C9ADCC5F1200452EA400286
:103C000020FA05F218BF42F0010231FA05F0A14096
:103C10000A43002172F1004250F1000051EB0C0107
:103C200030BD000041EA030C50EA4C0C52EA0C0C87
:103C30004FF4001C09D307D01CEB410F9CBF1CEBB9
:103C4000430F994208BF904270471CEB410FFBD8CD
:103C50008B4208BF82427047C1F30A5340F21E42B2
:103C6000D31A0CDDCA0283F3070342EA505242F032
:103C70000042DA4002EBE17282EAE17070476FEADB
:103C8000E17203F2E13008B182F0004070470000B9
:103C9000F0B540F2FF7581EA030C0CF0004C15EA18
:103CA00011541DBF15EA1357AC42AF42E5E0BC41C9
:103CB000C1F31301C3F31303801A994143F4801332
:103CC00004D2641E0018494180185941C90241EAD2
:103CD0005051B1FBF3F603FB1611A2FB0675D7EBAF
:103CE000C020A94102D2761E80185941C90241EA7A
:103CF0005051B1FBF3FE03FB1E11A2FB0E75D7EB77
:103D0000C020A94103D2AEF1010E801859418902A9
:103D100041EA9051760546EA8E2EB1FBF3F603FB9D
:103D20001611A2FB0675D7EB8020A94102D2761EA0
:103D300080185941C90241EA50514EEA060EB1FBC2
:103D4000F3F603FB1611A2FB0675D7EBC020A941C1
:103D500002D2761E80185941C90241EA5051B1FB86
:103D6000F3F703FB1711A2FB0735D3EBC020A941E2
:103D700067F100070CBF004247F0010766F3D52743
:103D80004FEA1E31B80814F5806412DDBD0775F1E5
:103D9000004250EB0E5051EB045111F5801F5CBFF7
:103DA00041EA0C01F0BD4CF07F6141F0E0410020A0
:103DB000F0BDBD076D0840EA0E5041F48011D4F10A
:103DC0000104B4F120060ADAC4F120060200E04042
:103DD00001FA06F3E1401843B24015430EE0342CDB
:103DE00013DCC6F1200445EA40056D0820FA06F20E
:103DF000154321FA06F0A1400D43002175F1004260
:103E000050F1000051EB0C01F0BD00205FEA0C0105
:103E1000F0BDCFB992185B41B3FA83F704BFB2FA91
:103E200082F6BF190B3FB7F120062FBF02FA06F347
:103E3000BB40C7F1200622FA06F638BF3343BA402A
:103E40001CB1E419641E33E77F4231F00041B1FA3E
:103E500081F404BFB0FA80F6A4190B3CB4F120063B
:103E60002FBF00FA06F1A140C4F1200620FA06F6A1
:103E700038BF3143A0403C1B1AE7AC421ABF05EAE9
:103E80001357AF4212E050EA41061CBF52EA430604
:103E9000BFE750EA4107304661461CBF41EA055181
:103EA000F0BD52EA430C08BFC143F0BD00204FF4FF
:103EB000001616EB410F98BF16EB430F08BF16EB29
:103EC000410F24BFC14305E016EB430F0CBF614611
:103ED0004CEA0551F0BD000001F000428B1AA3F13D
:103EE0006051B1F5801F0ADBB1F17F6F1FD242EA4A
:103EF000C102C10071F1004142EB507070470B15D7
:103F0000C3F10903212B10D2890241EA90518002AA
:103F10000128494141F0004121FA03F0C3F1200397
:103F2000994071F1004150417047100070476FF0A7
:103F3000000013EB103F5CBF000E42EAC050704718
:103F4000DFED1E0A20EE200AFDEEC00AB5EE400AA3
:103F500010EE900AF1EE10FA48BF401E00EE900AF3
:103F6000F8EEE00A30EE600ADFED150A20EE200AD6
:103F7000FDEEC00A10EE900A80B2B0F5007F04DBBF
:103F8000DFED100A002030EE200A014600EE901A04
:103F9000F8EE600A0C4970EE600A01EB8002B7EEA1
:103FA000000A01EB800030EE600A92ED001AD0EDBD
:103FB000011A20EE010A00EEA10A704783F9223EA1
:103FC00000000044000000C45C4D0008C0F3C7516D
:103FD00081B1FF2906D0C110400721F0E04101F175
:103FE0006051704741020CBF40F4E0016FF00041A6
:103FF0000020704700F0004100020AD0B0FA80FCB7
:1040000000FA0CF001F16051A1EB0C5101EBD02151
:104010004005704770B491EA030F4FF0004540F13E
:10402000BF806B40841A71EB030604D26E40001B04
:10403000B141121973414FF4001C1CEB410F34BF06
:104040007CEB430683E00C0DA4EB1356362E00F3F5
:104050007C80012E45EAC32341DC43EA525312BF60
:10406000D20292025B08240545EAC12141EA50517F
:10407000D2EBC020994125D407D1B0FA80F610FACE
:1040800006F162D00020203608E0B1FA81F6B14096
:10409000C6F1200220FA02F21143B0404FEAF47454
:1040A000B4EB465434F001064FEA74040AD8D6F54E
:1040B0000016760D04F00044F04061FA06F250401C
:1040C000F1404840C00A40EA415021F0004128BF79
:1040D0005FEA500550F1000044EBD12135E0DB0AE6
:1040E00045EAC121C90AB6F120050EDD42EA0242C5
:1040F000120CC5F1200603FA06F6EB4042EA06056B
:104100006D42984161F100010DE062FA06F5F2405E
:10411000554063FA06FC82EA0C02F3405A406D42B5
:10412000904161EB030111F4801F05D1641E62050B
:1041300002D06D004041494121F48011430875F1DE
:10414000004350F1000041EB045170BC70471CEB80
:10415000410F15D223F0004352EA43060BD04FEA39
:104160004C0CBCEB410F04D80C0D661E342EB7DD91
:10417000EBE7801A994150EA410608BF0021E4E7C5
:1041800008BF1CEB430F28BF6FF00001DDE7000004
:1041900070B491EA030F4FF000457FF543AF6B40D9
:1041A000841A71EB030603D2001BB141121973414B
:1041B0004FF4001C1CEB410F34BF7CEB430442E086
:1041C0000C0DA4EB1356352E4FDC45EAC323DB0A56
:1041D00045EAC121C912B6F120050DDD63FA05F6E5
:1041E000EB4086EA0305124218BF45F00105C018EE
:1041F00051F100010CD213E062FA06F5F24055408D
:10420000F3415A40B340F3405A408018594107D314
:1042100049085FEA30005FEA350528BF45F001052F
:1042200001F58011420875F1004250F1000041EBA8
:1042300004514E0016F5001F70BC38BF70470020B7
:10424000090D090570471CEB410F10D252EA4306D5
:104250000BD0BCEB410F05D80C0DAB43661E342EC2
:10426000B6DD02E0AB438018594170BC704770BCAA
:10427000704700000A4603681968C9694906FBD5FA
:10428000C1681846FBF7DDBF01464FF0FF304A68B2
:1042900012685368C3F580734B618A69934207D0F3
:1042A000086913461BB2C05C521C02F0FF028A610F
:1042B00070470146486800684068C0F580704861F2
:1042C0008969401A00F0FF00704738B504460D4672
:1042D000E06800F09DFC284600F0A6FC014689B28B
:1042E0002046BDE83440C5E7054901600549416005
:1042F00005498160054901610549C16070470000B9
:10430000C8040020080400206804002008030020DE
:104310005805002038B5044601E0401CE0832046E3
:10432000FFF7C7FF002811D02046FFF7ADFF04F1CB
:104330002201E28B8854E08B014604F12202525C98
:104340000D2A01D04029E8DB01202077207F0028BA
:104350002DD000202084616E04F1220000F080FC4A
:1043600004F16801228C41F822000AE06D1C2584CA
:10437000616E002000F074FC04F16801ADB241F8F8
:104380002500258C04F16800294650F821000028FA
:10439000ECD1204600F08AFC0020E0832077024622
:1043A000402104F12200BDE8384000F081BC31BD5D
:1043B00010F0004160B148BF4042B0FA80F2904036
:1043C000D21CC2F5846241EA025202EBD0214005C0
:1043D0007047000038B50446FDF736FC054614F179
:1043E000010F02D0044880680419FDF72DFC401B22
:1043F000A042FAD331BD00BFF802002082B00B48C2
:10440000816841F001018160816801F00101009142
:104410000099016841F080510160006800F080500F
:104420000090009802B0FEF77FBF00BF5810024016
:1044300038B5040001D1012032BD04F1400568788F
:10444000002804D1002028702046FEF7E8FD242033
:10445000687020680168490849000160606820F0C0
:104460007060216808612068816821F400418160E2
:10447000A0682168E268012A03D140F40040886006
:1044800002E040F404408860E068022803D14FF461
:104490000060216848602068416841F0007141F483
:1044A000004141602068C16821F40041C160216978
:1044B00060690143A06941EA00212068C160E169A7
:1044C000206A0143206801602068016841F0010111
:1044D0000160002068602020687000202063A870C0
:1044E00032BD2DE9FE4F07460D4692469B4607F129
:1044F00040067078202840F0BB80DDF83080B8F1AD
:10450000000F04D0DDF834904846002804D14FF461
:10451000007070600120ACE03078012800F0A880C5
:1045200001203070FDF790FB04460094192301220E
:104530004FF40041384600F0F3F9002801D0012083
:1045400097E05B465246212070704020B0700020FA
:104550007060C7F82480A7F82A90786301940E98B9
:1045600000902946384600F057F9002803D0002073
:10457000307001207DE0788DB0F5807F0DD3FF2075
:104580003885002000904FF08073FF22294638467E
:1045900000F0C8FADDF838800BE07A8D3A8500200B
:1045A00000904FF00073D2B22946384600F0BAFAB4
:1045B000F0E722464146384600F0E0F900282BD1CA
:1045C000786A007839688862786A401C7862788DE9
:1045D000401E7885388D411E3985788D00282AD077
:1045E00089B2002927D10094434600228021384611
:1045F00000F096F9002811D1788DB0F5807F0FD3A7
:10460000FF203885002000904FF08073FF2229465C
:10461000384600F087FA0EE001202AE0012028E069
:104620007A8D3A85002000904FF00073D2B229466F
:10463000384600F077FA788D0028BAD122464146F4
:10464000384600F0C5F901000CD120203A68D0614D
:104650003A6853686E480340536020207070002011
:10466000B07030700846401E8041C043C00F00E06B
:104670000220BDE8FE8F2DE9FE4F05460E4692460C
:104680009B4605F140046078202840F0BD800C9FD7
:10469000002F04D0DDF834904846002804D14FF4B0
:1046A000007060600120B0E02078012800F0AC804C
:1046B00001202070FDF7C8FA8046CDF8008019234C
:1046C00001224FF40041284600F02AF9002801D0C9
:1046D00001209AE05B465246222060704020A07084
:1046E000002060606F62A5F82A906863CDF80480AE
:1046F0000E9800903146284600F0C9F8002803D0F3
:1047000000202070012080E0DFF80801698DB1F5FC
:10471000807F0BD3FF21298500904FF080730A46DC
:104720003146284600F0FEF90E9F0AE06A8D2A8580
:1047300000904FF00073D2B23146284600F0F2F9F3
:10474000F2E7CDF800803B4600220421284600F025
:10475000E7F800282CD12868406A696A0870686AFE
:10476000401C6862288D401E2885688D401E688523
:10477000688D00282BD0288D002828D1CDF8008006
:104780003B4600228021284600F0CAF8002811D1BB
:10479000688DB0F5807F0FD3FF2028850020009022
:1047A0004FF08073FF223146284600F0BBF90EE03F
:1047B00001202AE0012028E06A8D2A85002000904F
:1047C0004FF00073D2B23146284600F0ABF9688D45
:1047D0000028B6D142463946284600F0F9F80100D3
:1047E0000CD120202A68D0612A6853680848034009
:1047F0005360202060700020A07020700846401E8A
:104800008041C043C00F00E00220BDE8FE8F0000E1
:1048100000E800FE002400802DE9FC410446174614
:104820009846089D099EDFF8240300904FF080739E
:104830004246D2B2204600F075F93246294620465B
:1048400000F09CF8002801D001201DE0B8F1010F14
:104850000CD03846000A2168886232462946204634
:1048600000F08CF8002801D001200DE0FFB2206894
:10487000876200962B4600228021204600F050F8E7
:10488000401E8041C043C00FBDE8F68100002DE905
:10489000FC41044617469846089D099EDFF8AC0285
:1048A000009000234246D2B2204600F03BF9324647
:1048B0002946204600F062F8002801D001201DE0C2
:1048C000B8F1010F0CD03846000A216888623246E0
:1048D0002946204600F052F8002801D001200DE0C2
:1048E000FFB22068876200962B46002240212046B6
:1048F00000F016F8401E8041C043C00FBDE8F681AD
:10490000000001688A69920701D500228A62006866
:104910008169C90703D4816941F001018161704750
:104920002DE9F04105460E4617461C46DDF8188075
:10493000286880693040B04201D1012000E00020A9
:104940003946884217D114F1010FF1D0FDF77CF9F7
:10495000A0EB0800844201D3002CE9D105F140000E
:10496000416841F0200141602021417000218170A7
:104970000170012000E00020BDE8F08170B505461F
:104980000C4616462868806980071FD432462146A7
:10499000284600F045F8002801D0012070BD14F130
:1049A000010FEFD0FDF750F9801B844201D3002C9A
:1049B000E8D105F14000416841F02001416020212B
:1049C0004170002181700170012070BD002070BD18
:1049D00070B505460C4616462868806980061DD4C9
:1049E00032462146284600F01BF8002807D1FDF783
:1049F0002BF9801B844204D3002CEDD101E001206F
:104A000070BD05F14000416841F020014160202166
:104A10004170002181700170012070BD002070BDC7
:104A20002DE9F04105460C4690460026286881692C
:104A30003746C90643D51021C16105F140072868F2
:104A40008169890635D4310033D114F1010FF6D0D4
:104A5000FDF7FAF8A0EB0800844201D3002CEED158
:104A60002868416801F48041BA7883691B040BD53A
:104A7000B1F5804F08D0202A06D0416841F480412A
:104A80004160FDF7E1F88046286880698006D6D449
:104A9000FDF7DAF8A0EB08001A28F5D3786840F0A3
:104AA00020007860202078700020B87038700126CF
:104AB000EAE7002E01D12021C161042701262968DF
:104AC0008869C20505D547F001074FF48072CA61B5
:104AD0000126410506D547F008074FF480612A6892
:104AE000D1610126800506D547F002074FF400701A
:104AF0002968C8610126300011D02846FFF701FF60
:104B000029684A68124802404A6005F1400041683D
:104B10000F434760202141700021817001703046B1
:104B2000BDE8F08170B4039C00684568094E46EA10
:104B30005456B543C1F3090141EA024119432143E7
:104B400021F000412943416070BC70470020008083
:104B500000E800FEFF63FF0310B400F14002537849
:104B6000202B20D11378012B01D102201CE001233E
:104B700013702423537003681C68640864001C606D
:104B800003681C6824F480541C6003681C6821437B
:104B900019600068016841F0010101602020507037
:104BA0000020107000E0022010BC704710B400F12B
:104BB00040025378202B1ED11378012B01D1022003
:104BC0001AE0012313702423537003681C686408DF
:104BD00064001C6003681C6824F4706444EA0124C7
:104BE0001C600068016841F00101016020205070E4
:104BF0000020107000E0022010BC70477047704722
:104C000070477047704770477047704770470000A3
:104C10005FEA000C11F8012B00F8012B12B111F81A
:104C2000012BF9E76046704700F10103810704D0CA
:104C300010F8011B820781B1FAD10268A2F101319B
:104C4000914311F0803104BF50F8042FF6E709BA00
:104C5000B1FA81F100EBD100401CC01A704700008E
:104C600038B504000D460BD02946204600F053F815
:104C70000444207848B90C4800210160002032BD6E
:104C800009490C68002CEFD132BD2946204600F0BE
:104C900053F82118087810B1002201F8012B0248BE
:104CA0000160204632BD00BF3C0600207047000076
:104CB00062F30F2262F31F42401810F0030308D082
:104CC000C91A1FD3DB0748BF00F8012D28BF20F801
:104CD000022D130030B414461546103928BF20E9C0
:104CE0003C00FAD8490728BF20E90C0048BF40F82B
:104CF000042D890028BF20F8022D48BF00F8012D9F
:104D000030BC7047C91818BF00F8012DCB0728BF69
:104D100000F8012D704770B4044600E0641C23784D
:104D20003BB10D462A7822B115F8016BB342F9D197
:104D3000F4E7201A70BC704770B4044600E0641CAD
:104D400023783BB10D462A78002AF8D015F8016B7C
:104D5000B342F8D1201A70BC704700000000000078
:104D6000920E493CB10AC93C2BC3163D2EFB483D6F
:104D7000752B7B3D04A9963D80B6AF3D36BDC83D41
:104D80002FBCE13D73B2FA3D87CF093E8340163E0A
:104D9000B5AB223EA2102F3ECF6E3B3EC2C5473E72
:104DA0000115543E135C603E7F9A6C3ECCCF783E3A
:104DB000C07D823E938E883E229A8E3E32A0943EE3
:104DC00086A09A3EE59AA03E128FA63ED47CAC3EC9
:104DD000EF63B23E2A44B83E491DBE3E15EFC33EC6
:104DE00053B9C93ECA7BCF3E4136D53E80E8DA3E54
:104DF0004F92E03E7533E63EBBCBEB3EEA5AF13EC6
:104E0000CBE0F63E275DFC3EE4E7003F3D9C033FE0
:104E1000824B063F9BF5083F6B9A0B3FDA390E3FFA
:104E2000CDD3103F2A68133FD9F6153FC07F183FF6
:104E3000C6021B3FD17F1D3FCBF61F3F9967223F24
:104E400025D2243F5636273F1594293F4AEB2B3F66
:104E5000DE3B2E3FBB85303FC9C8323FF304353FB0
:104E6000233A373F4268393F3B8F3B3FF9AE3D3FE6
:104E700067C73F3F70D8413F01E2433F03E4453FEE
:104E800065DE473F12D1493FF8BB4B3F029F4D3F84
:104E9000207A4F3F3D4D513F4918533F31DB543F3E
:104EA000E595563F5348583F6AF2593F1A945B3F85
:104EB000532D5D3F05BE5E3F2146603F97C5613F74
:104EC0005A3C633F59AA643F880F663FD86B673FDF
:104ED0003CBF683FA7096A3F0C4B6B3F5E836C3F4A
:104EE00093B26D3F9ED86E3F73F56F3F0809713FD7
:104EF0005213723F4714733FDD0B743F0BFA743F3C
:104F0000C6DE753F07BA763FC58B773FF853783FCB
:104F10009812793F9DC7793F02737A3FBE147B3F59
:104F2000CDAC7B3F283B7C3FC9BF7C3FAC3A7D3F4B
:104F3000CCAB7D3F23137E3FB0707E3F6DC47E3F80
:104F4000580E7F3F6D4E7F3FAB847F3F0FB17F3F59
:104F500097D37F3F43EC7F3F11FB7F3F0000803FB3
:104F600011FB7F3F43EC7F3F97D37F3F0FB17F3FE4
:104F7000AB847F3F6D4E7F3F580E7F3F6DC47E3FB9
:104F8000B0707E3F23137E3FCCAB7D3FAC3A7D3F7C
:104F9000C9BF7C3F283B7C3FCDAC7B3FBE147B3FF1
:104FA00002737A3F9DC7793F9812793FF853783F53
:104FB000C58B773F07BA763FC6DE753F0BFA743F65
:104FC000DD0B743F4714733F5213723F0809713F62
:104FD00073F56F3F9ED86E3F93B26D3F5E836C3F1B
:104FE0000C4B6B3FA7096A3F3CBF683FD86B673FDC
:104FF000880F663F59AA643F5A3C633F97C5613F9B
:105000002146603F05BE5E3F532D5D3F1A945B3FD6
:105010006AF2593F5348583FE595563F31DB543FBC
:105020004918533F3D4D513F207A4F3F029F4D3F1E
:10503000F8BB4B3F12D1493F65DE473F03E4453F94
:1050400001E2433F70D8413F67C73F3FF9AE3D3F64
:105050003B8F3B3F4268393F233A373FF304353FAC
:10506000C9C8323FBB85303FDE3B2E3F4AEB2B3F6A
:105070001594293F5636273F25D2243F9967223F72
:10508000CBF61F3FD17F1D3FC6021B3FC07F183F9D
:10509000D9F6153F2A68133FCDD3103FDA390E3FBA
:1050A0006B9A0B3F9BF5083F824B063F3D9C033FAD
:1050B000E4E7003F275DFC3ECBE0F63EEA5AF13ED6
:1050C000BBCBEB3E7533E63E4F92E03E80E8DA3EE6
:1050D0004136D53ECA7BCF3E53B9C93E15EFC33EDC
:1050E000491DBE3E2A44B83EEF63B23ED47CAC3E7E
:1050F000128FA63EE59AA03E86A09A3E32A0943E2C
:10510000229A8E3E938E883EC07D823ECCCF783EE2
:105110007F9A6C3E135C603E0115543EC2C5473E0B
:10512000CF6E3B3EA2102F3EB5AB223E8340163ED3
:1051300087CF093E73B2FA3D2FBCE13D36BDC83D75
:1051400080B6AF3D04A9963D752B7B3D2EFB483DB7
:105150002BC3163DB10AC93C920E493C0000000029
:10516000920E49BCB10AC9BC2BC316BD2EFB48BD6B
:10517000752B7BBD04A996BD80B6AFBD36BDC8BD3D
:105180002FBCE1BD73B2FABD87CF09BE834016BE06
:10519000B5AB22BEA2102FBECF6E3BBEC2C547BE6E
:1051A000011554BE135C60BE7F9A6CBECCCF78BE36
:1051B000C07D82BE938E88BE229A8EBE32A094BEDF
:1051C00086A09ABEE59AA0BE128FA6BED47CACBEC5
:1051D000EF63B2BE2A44B8BE491DBEBE15EFC3BEC2
:1051E00053B9C9BECA7BCFBE4136D5BE80E8DABE50
:1051F0004F92E0BE7533E6BEBBCBEBBEEA5AF1BEC2
:10520000CBE0F6BE275DFCBEE4E700BF3D9C03BFDC
:10521000824B06BF9BF508BF6B9A0BBFDA390EBFF6
:10522000CDD310BF2A6813BFD9F615BFC07F18BFF2
:10523000C6021BBFD17F1DBFCBF61FBF996722BF20
:1052400025D224BF563627BF159429BF4AEB2BBF62
:10525000DE3B2EBFBB8530BFC9C832BFF30435BFAC
:10526000233A37BF426839BF3B8F3BBFF9AE3DBFE2
:1052700067C73FBF70D841BF01E243BF03E445BFEA
:1052800065DE47BF12D149BFF8BB4BBF029F4DBF80
:10529000207A4FBF3D4D51BF491853BF31DB54BF3A
:1052A000E59556BF534858BF6AF259BF1A945BBF81
:1052B000532D5DBF05BE5EBF214660BF97C561BF70
:1052C0005A3C63BF59AA64BF880F66BFD86B67BFDB
:1052D0003CBF68BFA7096ABF0C4B6BBF5E836CBF46
:1052E00093B26DBF9ED86EBF73F56FBF080971BFD3
:1052F000521372BF471473BFDD0B74BF0BFA74BF38
:10530000C6DE75BF07BA76BFC58B77BFF85378BFC7
:10531000981279BF9DC779BF02737ABFBE147BBF55
:10532000CDAC7BBF283B7CBFC9BF7CBFAC3A7DBF47
:10533000CCAB7DBF23137EBFB0707EBF6DC47EBF7C
:10534000580E7FBF6D4E7FBFAB847FBF0FB17FBF55
:1053500097D37FBF43EC7FBF11FB7FBF000080BFAF
:1053600011FB7FBF43EC7FBF97D37FBF0FB17FBFE0
:10537000AB847FBF6D4E7FBF580E7FBF6DC47EBFB5
:10538000B0707EBF23137EBFCCAB7DBFAC3A7DBF78
:10539000C9BF7CBF283B7CBFCDAC7BBFBE147BBFED
:1053A00002737ABF9DC779BF981279BFF85378BF4F
:1053B000C58B77BF07BA76BFC6DE75BF0BFA74BF61
:1053C000DD0B74BF471473BF521372BF080971BF5E
:1053D00073F56FBF9ED86EBF93B26DBF5E836CBF17
:1053E0000C4B6BBFA7096ABF3CBF68BFD86B67BFD8
:1053F000880F66BF59AA64BF5A3C63BF97C561BF97
:10540000214660BF05BE5EBF532D5DBF1A945BBFD2
:105410006AF259BF534858BFE59556BF31DB54BFB8
:10542000491853BF3D4D51BF207A4FBF029F4DBF1A
:10543000F8BB4BBF12D149BF65DE47BF03E445BF90
:1054400001E243BF70D841BF67C73FBFF9AE3DBF60
:105450003B8F3BBF426839BF233A37BFF30435BFA8
:10546000C9C832BFBB8530BFDE3B2EBF4AEB2BBF66
:10547000159429BF563627BF25D224BF996722BF6E
:10548000CBF61FBFD17F1DBFC6021BBFC07F18BF99
:10549000D9F615BF2A6813BFCDD310BFDA390EBFB6
:1054A0006B9A0BBF9BF508BF824B06BF3D9C03BFA9
:1054B000E4E700BF275DFCBECBE0F6BEEA5AF1BED2
:1054C000BBCBEBBE7533E6BE4F92E0BE80E8DABEE2
:1054D0004136D5BECA7BCFBE53B9C9BE15EFC3BED8
:1054E000491DBEBE2A44B8BEEF63B2BED47CACBE7A
:1054F000128FA6BEE59AA0BE86A09ABE32A094BE28
:10550000229A8EBE938E88BEC07D82BECCCF78BEDE
:105510007F9A6CBE135C60BE011554BEC2C547BE07
:10552000CF6E3BBEA2102FBEB5AB22BE834016BECF
:1055300087CF09BE73B2FABD2FBCE1BD36BDC8BD71
:1055400080B6AFBD04A996BD752B7BBD2EFB48BDB3
:105550002BC316BDB10AC9BC920E49BC0000008025
:1055600080B5FCF70BFAFEE7FEE7FEE7FEE7FEE795
:1055700070477047704780B5FDF760FABDE801409D
:1055800000F018B80748FBF709BE0748FBF706BE4E
:105590000648FEF722B90548FEF71FB90448FAF796
:1055A000D1BE00000804002068040020D8050020B7
:1055B000C804002002490A68886882180A60704797
:1055C000F802002030B4002512E050F8042BD30775
:1055D00044BF4A44521E091F042942F8045BFAD210
:1055E00013468C0744BF15809B1CC90748BF1D701C
:1055F00050F8041B0029E8D130BC704710B50749AA
:1056000079441831064C7C44163404E00A68081DBD
:10561000114488470146A142F8D110BD2C0000007A
:10562000480000004EF68851CEF20001086840F4B0
:1056300070000860BFF34F8FBFF36F8F4FF00070A3
:10564000E1EE100A704700007DFFFFFF3C03000001
:105650000803002000000000CBBCFFFFB0010000E9
:1056600082010000000000200248016841F470013E
:105670000160704788ED00E00000000000000000BD
:10568000010203040607080900F00DF8002801D004
:10569000FFF7B4FFAFF300800020AFF30080FCF70A
:1056A000DDFA00F002F80120704700F001B80000B8
:1056B0000746384600F002F8FBE7000080B5AFF37C
:1056C0000080024A11001820ABBEFBE72600020052
:1056D0000548014603B4684680F30988AFF30080AB
:1056E000FFF7A0FFFFF7D0FFA5EDF5FE01488047CB
:1056F0000148004769560008D15600080000000024
:10570000010203042C0D0000FFF7FEBFFFF7FEBFF0
:10571000FFF7FEBFFFF7FEBFFFF7FEBFFFF7FEBFBD
:10572000FFF7FEBFFFF7FEBFFFF7FEBFFFF7FEBFAD
:10573000FFF7FEBFFFF7FEBFFFF7FEBFFFF7FEBF9D
:10574000FFF7FEBFFFF7FEBFFFF7FEBFFFF7FEBF8D
:10575000FFF7FEBFFFF7FEBFFFF7FEBFFFF7FEBF7D
:10576000FFF7FEBFFFF7FEBFFFF7FEBFFFF7FEBF6D
:10577000FFF7FEBFFFF7FEBFFFF7FEBFFFF7FEBF5D
:10578000FFF7FEBFFFF7FEBFFFF7FEBFFFF7FEBF4D
:10579000FFF7FEBFFFF7FEBFFFF7FEBFFFF7FEBF3D
:1057A000FFF7FEBFFFF7FEBFFFF7FEBFFFF7FEBF2D
:1057B000FFF7FEBFFFF7FEBFFFF7FEBFFFF7FEBF1D
:1057C000FFF7FEBFFFF7FEBFFFF7FEBFFFF7FEBF0D
:1057D000FFF7FEBFFFF7FEBFFFF7FEBFFFF7FEBFFD
:1057E000FFF7FEBFFFF7FEBFFFF7FEBFFFF7FEBFED
:1057F000FFF7FEBFFFF7FEBFFFF7FEBFFFF7FEBFDD
:10580000FFF7FEBFFFF7FEBFFFF7FEBFF400023D4C
:105810000014920002C06640EC00010180D6000F27
:105820003F575BB1BFECFB3F107A36AB3E57F63FBC
:10583000EF0006C0C142AE474342F800009AFC990F
:105840000AE97C40BC96900F7A586C40FA00093403
:1058500040FED478E926C16340EA0001F03FFA0037
:1058600001F03FFB0002409F40FA00014940F40074
:1058700003D8050020A4000001FD000040FD000049
:1058800001E10007A32D0008132E0008E40007A380
:105890002D0008132E0008E40007A32D0008132E86
:1058A0000008E40007A32D0008132E00089C000345
:1058B00004570008C00007E942000815430008FC2F
:0D58C000000010FD000001FC000224F400B7
:04000005080056D1C8
:00000001FF
