:020000040800F2
:10000000F80F0020198B00085D880008658800083B
:1000100067880008698800086B88000800000000F5
:100020000000000000000000000000006D880008D3
:100030006F880008000000007188000873880008BD
:10004000358B0008398B00083D8B0008418B000878
:100050008188000885880008458B0008498B0008C6
:100060004D8B0008518B0008558B000887880008CD
:100070008D8800089388000899880008598B00082B
:100080005D8B000800000000618B0008658B000894
:10009000698B00089F880008A5880008AB880008C5
:1000A0006D8B0008718B0008758B0008798B000838
:1000B0007D8B0008818B0008858B0008B3880008C1
:1000C000B9880008898B00088D8B0008918B000887
:1000D000958B0008998B0008BF8800089D8B00084D
:1000E000E1880008A18B0008A58B0008A98B0008F7
:1000F000AD8B0008B18B0008B58B00080000000034
:1001000000000000B98B000800000000BD8B000853
:10011000C18B000800000000C58B0008C98B0008D7
:10012000CD8B0008D18B0008D58B0008D98B000837
:10013000DD8B00080000000000000000E18B0008DB
:10014000E58B0008E98B00080000000000000000BB
:10015000000000000000000000000000000000009F
:10016000000000000000000000000000ED8B00080F
:10017000F18B0008000000000000000000000000FB
:1001800000000000E98800080000000000000000F6
:10019000000000000000000000000000000000005F
:1001A0000000000000000000F58B0008F98B00083B
:1001B000FD8B0008018C0008058C00080000000081
:1001C00000000000098C0008000000000000000092
:1001D0000D8C0008118C000838B5040001D10120F5
:1001E00032BD04F140056878002804D10020287051
:1001F000204601F091F824206870206801684908C1
:1002000049000160606820F0706021680861206822
:10021000816821F400418160A0682168E268012AB8
:1002200003D140F40040886002E040F4044088605C
:10023000E068022803D14FF400602168486020681C
:10024000416841F0007141F4004141602068C1689B
:1002500021F40041C160216960690143A06941EA5C
:1002600000212068C160E169206A014320680160C3
:100270002068016841F001010160002068602020D1
:10028000687000202063A87032BD2DE9FC47064647
:100290000D4691469A4606F140077878202840F0AE
:1002A0008A800A9C002C04D0DDF82C80404600286F
:1002B00004D14FF40070786001207DE030688069DF
:1002C000000478D43878012875D00120387001F006
:1002D000D3F8212179704021B970002179607462CE
:1002E000A6F82A803549F16283497163718DB1F5B1
:1002F000807F04D3FF2131854FF0807803E0718D3A
:1003000031854FF0007853464A46019019200090FD
:100310002946304600F0EDFA002803D0002038705E
:10032000012049E0B06B00282DD07449C1627448A7
:10033000B16B48630020B16B0863B16B8863338D88
:10034000306800F128022146B06B01F0FCF800286B
:1003500025D1002000904346328DD2B22946304646
:1003600000F032FF718D308D091A718500203870D0
:100370001021304600F03CFF3068016841F48041B4
:100380000160002018E0202078700020B8707868A4
:1003900040F0800078600020387001200CE02020C0
:1003A00078700020B870786840F010007860002005
:1003B0003870012000E00220BDE8F6870000FFFF52
:1003C0002DE9FC4706460D4691469A4606F1400740
:1003D0007878202840F08C800A9C002C04D0DDF82E
:1003E0002C804046002804D14FF400707860012032
:1003F0007FE03068806900047AD43878012877D0AB
:100400000120387001F038F8222179704021B9704C
:10041000002179607462A6F82A80DFF8F010F1629A
:1004200035497163718DB1F5807F04D3FF2131852A
:100430004FF0807803E0718D31854FF0007853469E
:100440004A460190192000902946304600F08CFA67
:10045000002803D00020387001204AE0F06B00280B
:100460002ED02849C1622648F16B48630020F16B09
:100470000863F16B8863338D2246306800F12401F4
:10048000F06B01F060F8002826D1DFF87C000090C6
:100490004346328DD2B22946304600F095FE718D2A
:1004A000308D091A7185002038701021304600F017
:1004B0009FFE3068016841F400410160002018E0AF
:1004C000202078700020B870786840F08000786054
:1004D0000020387001200CE0202078700020B870D7
:1004E000786840F01000786000203870012000E04B
:1004F0000220BDE8F6870000C9060008290F0008A1
:10050000ED0F0008890F0008002400800000FFFFA5
:10051000026891691268436B002B00D0184770473E
:1005200018B4026891691268CB0509D5130607D57E
:10053000436C43F0010343644FF480730468E36148
:100540004B0509D5130607D5436C43F008034364F4
:100550004FF480630468E361890509D5110607D566
:10056000416C41F0020141644FF400710268D161B5
:10057000416C11F00B0F02D014BC00F03DBC11BC5B
:10058000704790F841007047406C704700000000D1
:100590002DE9F04105460F469046EC6A05F140060C
:1005A0003078012801D102208CE001203070B8069B
:1005B00005D55FEA886002D5284600F04CFBF806B6
:1005C00036D55FEAC86033D5688D00281FD17078B2
:1005D000282807D1B4F1007F04D13946284600F01D
:1005E000DAFB6DE0707829280DD1DFF8FC09844230
:1005F00009D010202968C861284600F086FC2846EA
:1006000000F071FA5CE010202968C86158E0102001
:100610002968C861706840F004007060002C02D046
:10062000B4F1807F4CD17168284600F0E5FB47E0CB
:1006300078071DD55FEA48701AD5688D00280CD060
:100640002868406A696A0870686A401C6862288D78
:10065000401E2885688D401E6885688D00282FD132
:10066000DFF8840984422BD0284600F03CFA27E0CA
:10067000380707D55FEA087004D53946284600F0E8
:10068000ADF91DE0B8071BD55FEA887018D5688DF5
:1006900000280DD0686A007829688862686A401C62
:1006A0006862688D401E6885288D401E288507E099
:1006B000B4F1807F01D0002C02D1284600F013FA5B
:1006C00000203070BDE8F08138B5054605F14004E2
:1006D0002078012801D1022032BD01202070C806F7
:1006E00010D5D0060ED510202968C861606840F08A
:1006F000040060602021284600F07AFD284600F0C2
:1007000004FC6CE0080645D5500643D5286801680E
:1007100021F0400101602968688D00282ED04968C9
:10072000C1F30901688DB0F5807F04D3FF202885CF
:100730004FF080730AE0688D2885E86ADFF8A82802
:10074000904201D0EB6A01E04FF00073002000906E
:100750002A8DD2B2284600F037FD698D288D091AFE
:100760006985286861782229016803D141F4004134
:10077000016034E041F48041016030E0486880016C
:1007800003D4284600F084F929E04021284600F0EF
:1007900033FB24E048061BD5500619D5688D002888
:1007A00011D128684168890119D4E96ADFF838282D
:1007B000914204D1416841F4804141600FE02846F4
:1007C00000F066F90BE04021284600F015FB06E03A
:1007D000880604D5900602D5284600F0C0F900200E
:1007E000207032BD2DE9F843054688469146EC6AF3
:1007F000002605F140073878012801D1022076E073
:10080000012038705FEA886005D55FEA896002D50B
:10081000284600F020FA5FEAC8605CD55FEAC9604C
:1008200059D519F4404F52D0E86B002807D05FEA41
:10083000094104D500684068002800D10126A86B52
:10084000002807D05FEA494104D5006840680028C5
:1008500000D10126012E1BD17878282807D1B4F1C8
:10086000007F04D14146284600F095FA3DE07878B3
:1008700029282CD1DFF87007844228D0102029685D
:10088000C861284600F041FB284600F02CF92CE016
:1008900010202968C861786840F004007860787892
:1008A000002C02D0B4F1807F1FD1212801D029284B
:1008B00002D12120286305E0222801D02A2801D175
:1008C000222028637968284600F096FA0DE010206F
:1008D0002968C86109E05FEA087006D55FEA097017
:1008E00003D54146284600F079F800203870BDE86D
:1008F000F2832DE9FC41044617469846089D099E5F
:10090000DFF84C0900904FF080734246D2B2204687
:1009100000F05AFC32462946204600F0A9FB002888
:1009200001D001201DE0B8F1010F0CD03846000ABB
:100930002168886232462946204600F099FB00284B
:1009400001D001200DE0FFB22068876200962B469F
:1009500000228021204600F05DFB401E8041C04304
:10096000C00FBDE8F68100002DE9FC4104461746A2
:100970009846089D099EDFF8D8080090002342465B
:10098000D2B2204600F020FC32462946204600F034
:100990006FFB002801D001201DE0B8F1010F0CD041
:1009A0003846000A2168886232462946204600F00F
:1009B0005FFB002801D001200DE0FFB220688762B4
:1009C00000962B4600224021204600F023FB401ECB
:1009D0008041C043C00FBDE8F68100002DE9F04121
:1009E000044604F140052068697801F028012829AF
:1009F00048D18669360C06F0010687693F0C07F07E
:100A0000FE078268C2F30902D0F80C8008F0FE08E5
:100A1000E068022828D107F006071046C00900F058
:100A20000600874212D1A868401CA860A868022866
:100A30002CD10020A86008202168C86100202870FF
:100A400031462046BDE8F04100F0F6BE4FF40041CB
:100A5000204600F009FC002028704246314620461E
:100A6000BDE8F04100F0E8BE4FF40041204600F040
:100A7000FBFB002028703A4631462046BDE8F04195
:100A800000F0DABE0821C16100202870BDE8F081C5
:100A900038B5044604F140050020A8706878212884
:100AA00010D1202068701120206300206063012194
:100AB000204600F0D9FB002028702046BDE83240D7
:100AC00000F0BBBE2020687012202063002060630D
:100AD0000221204600F0C8FB002028702046BDE817
:100AE000324000F0ABBE38B504462068006804F11F
:100AF00040050021A970410405D52068016821F452
:100B00008041016006E0000404D52068016821F4FA
:100B100000410160687829280ED1282068702120C2
:100B200020630121204600F09FFB00202870204612
:100B3000BDE8324000F083BE68782A280ED1282014
:100B40006870222020630221204600F08DFB0020E7
:100B500028702046BDE8324000F072BE31BD7CB541
:100B600004460D4620202168C86104F140067078D3
:100B7000212806D10121204600F076FB11202063B8
:100B800008E07078222805D10221204600F06CFB95
:100B90001220206321684A68DFF8B80602404A60E4
:100BA00000206063DFF84004E062E80606D510200C
:100BB0002168C861706840F0040070607078602837
:100BC00006D1680704D52068406AC0B2009000983A
:100BD000204600F09AF970687178602901D00028E9
:100BE00004D071682046BDE87C4005E1707821287A
:100BF00016D12020707000202063B078402807D1E3
:100C00000020B07030702046BDE8764000F019BE7C
:100C10000020B07030702046BDE8764000F00DBE78
:100C20007078222816D12020707000202063B078C0
:100C3000402807D10020B07030702046BDE87640D3
:100C400000F000BE0020B07030702046BDE8764055
:100C500000F0F4BD73BDF8B504460E4621680F6878
:100C600004F1400568782022CA61212801D0292892
:100C700007D148F20101204600F0F6FA2120206356
:100C80000AE0222801D02A2806D148F20201204693
:100C900000F0EAFA222020632068416841F4004114
:100CA000416021684A68DFF8AC0502404A6020468E
:100CB00000F02BF978040BD52068016821F48041FD
:100CC0000160A06B002810D00068406860850CE0CF
:100CD00038040AD52068016821F400410160E06B06
:100CE000002802D0006840686085700710D526F0A3
:100CF00004062068406A616A0870606A401C60628D
:100D0000208D002804D0401E2085608D401E608507
:100D1000608D002803D0686840F0040068600020FF
:100D2000A8706063686800280BD06968204600F0EE
:100D300063F8687828282DD131462046BDE8F44074
:100D400029E0A94EE06AB0420DD02046FFF7CBFE65
:100D5000E662202068700020206328702046BDE8ED
:100D6000F24000F070BD6878222809D12020687018
:100D70000020206328702046BDE8F24000F060BDEE
:100D8000202068700020206328702046BDE8F240D3
:100D900000F055BDF1BD38B504469348E06200202F
:100DA000206304F14005202068700020A870606373
:100DB000480712D52068406A616A0870606A401C62
:100DC0006062208D002808D0401E2085608D401E66
:100DD0006085686840F00400686048F203012046BE
:100DE00000F042FA10202168C861002028702046D7
:100DF000BDE8324000F027BD38B5044604F1400597
:100E000068780022AA70784AE262002262856A68E5
:100E100011436960282803D0292801D02A2809D144
:100E20000321204600F020FA28206870DFF828040B
:100E300060630BE048F20301204600F015FA687881
:100E4000602801D02020687000206063216BA06BB7
:100E5000002820D0112901D021291CD12068016847
:100E6000490403D5016821F480410160A06B00F0C2
:100E700085FC012833D00FF28510A16B8863002018
:100E80002870A06B00F0DBFB00282CD0A06B816BDE
:100E9000BDE834400847E06B002820D0122901D07B
:100EA00022291CD120680168090403D5016821F4B6
:100EB00000410160E06B00F061FC01280FD00FF2EF
:100EC0003D10E16B886300202870E06B00F0B7FBF9
:100ED000002808D0E06B816BBDE83440084720460D
:100EE000BDE8324000E031BD00F130014A7C602AAB
:100EF00006D120224A7400220A600A7400F0A4BCC1
:100F000000220A600A7400F0A0BC01688A69920796
:100F100001D500228A6200688169C90703D481690A
:100F200041F001018161704710B5846A2068016851
:100F300021F480410160608D002804D120212046E9
:100F4000BDE8104054E1606A218D08446062608D04
:100F5000B0F5807F02D3FF20208501E0608D2085E1
:100F6000238D206800F12802616AA06B00F0EBFA83
:100F7000002804D010212046BDE810403CE7402165
:100F80002046BDE8104033E110B5846A206801684E
:100F900021F400410160608D002804D12021204609
:100FA000BDE8104024E1606A218D08446062608DD4
:100FB000B0F5807F02D3FF20208501E0608D208581
:100FC000238D626A206800F12401E06B00F0BBFA17
:100FD000002804D010212046BDE810400CE7402135
:100FE0002046BDE8104003E10000FFFF806A016871
:100FF0004A6842F400424A601021FDE6806A816B33
:10100000002901D000228A63C16B002901D000228F
:101010008A6369E72DE9F04105460E4617461C46EE
:10102000DDF81880286880693040B04201D1012085
:1010300000E000203946884217D114F1010FF1D0A9
:1010400000F01AFAA0EB0800844201D3002CE9D189
:1010500005F14000416841F02001416020214170CC
:10106000002181700170012000E00020BDE8F081C6
:1010700070B505460C4616462868806980071FD45F
:1010800032462146284600F01DF8002801D00120F4
:1010900070BD14F1010FEFD000F0EEF9801B844217
:1010A00001D3002CE8D105F14000416841F0200156
:1010B000416020214170002181700170012070BDCC
:1010C000002070BD2DE9F04105460C4690460026F3
:1010D000286881693746C90643D51021C16105F1E9
:1010E000400728688169890635D4310033D114F16D
:1010F000010FF6D000F0C0F9A0EB0800844201D344
:10110000002CEED12868416801F48041BA788369E7
:101110001B040BD5B1F5804F08D0202A06D04168BA
:1011200041F48041416000F0A7F980462868806959
:101130008006D6D400F0A0F9A0EB08001A28F5D359
:10114000786840F020007860202078700020B87027
:1011500038700126EAE7002E01D12021C161042761
:10116000012629688869C20505D547F001074FF4B3
:101170008072CA610126410506D547F008074FF481
:1011800080612A68D1610126800506D547F00207F3
:101190004FF400702968C8610126300011D028463C
:1011A000FFF7B3FE29684A682A4802404A6005F101
:1011B000400041680F434760202141700021817049
:1011C00001703046BDE8F08170B4039C006845684A
:1011D000224E46EA5456B543C1F3090141EA0241A1
:1011E0001943214321F000412943416070BC7047FD
:1011F00030B40022436B1C46194DAC4202D0194C4E
:10120000A34210D10B0400D5B8220B46102B01D1FC
:1012100042F09002202B01D142F06002402911D10E
:1012200042F040020EE00B0400D5B822CB0701D5F6
:1012300042F0F2028B0701D542F0F402202901D1DD
:1012400042F02002006801680A43026030BC704727
:101250000020008000E800FE91050008FF63FF0306
:10126000C9060008E50700080022CB0707D542227F
:1012700090F8413003F02803282B00D0F2228B078E
:1012800009D542F0440290F8413003F02803282B9E
:1012900001D042F0B0020B0401D542F0B8020B4677
:1012A000102B01D142F09002202B01D142F02002FC
:1012B000402901D142F040020068016821EA02029F
:1012C0000260704710B5654C654860606548A06075
:1012D0000020E0600120206100206061A061E061E9
:1012E00020626062201DFEF777FF002801D000F029
:1012F000B0FF0021201D00F0E5FF002801D000F024
:10130000A8FF0021201D01F007F8002803D0BDE848
:10131000104000F09EBF10BD78B597B00446002283
:101320001421684601F020F80022442106A801F0AB
:101330001BF820684A49884240F08D804020069082
:1013400000200C9006A801F031F8002801D000F030
:1013500080FF454D286840F001002860286800F0B3
:10136000010005900598286840F002002860286870
:1013700000F00200059005984FF400400090122004
:1013800001900120029000200390042004906946FF
:101390004FF0904001F03EF9802000901220019023
:1013A00001200290002003900420049069462F48F9
:1013B00001F030F9E86840F40010E860E86800F4F3
:1013C0000010059005982A4D2A4E2E601020686066
:1013D0000020A860E8608020286100206861A86182
:1013E000E8614FF400502862284600F04BF80028CE
:1013F00001D000F02EFFE563AC6206F11400286610
:10140000112068661020A8660020E8668020286702
:1014100000206867A867E867C5F8800005F16000EC
:1014200000F030F8002801D000F013FF05F1600053
:10143000A063C5F88840002205211F2001F035FA7D
:101440001F2001F041FA00220521202001F02DFA91
:10145000202001F039FA18B070BD0000E003002030
:1014600000540040641F70204C10024000040048EB
:10147000A00600203000024001480068704700BF0D
:10148000F004002038B5040001D1012032BD2168EC
:1014900004F12405DFF87C0381420BD2DFF87803E6
:1014A00041181420B1FBF0F080002862DFF86C03D3
:1014B000E8610AE0DFF8680341181420B1FBF0F09E
:1014C00080002862DFF85C03E86102206870216810
:1014D0000A686FF30E12A0680243E06802432069B5
:1014E000024360690243A0690243E0690243206A43
:1014F00002430A60204600F065F9A068B0F5804F0D
:1015000001D1002060602079696A0860E86AA96AF0
:101510004860606800280BD0052809D2204600F0FA
:101520006BF90020296B0860A86B696B486003E0C9
:10153000002028636863A8630020A8610120687008
:101540000020287032BDF8B50446002504F12406B9
:101550003078012801D10220F2BD0120307070786E
:10156000012831D1022070702846B06120680768D8
:101570007F087F000760204600F003F92168F068CB
:101580000028086803D040F00E00086007E020F053
:10159000040008602068016841F00A010160706A77
:1015A0000168C90303D5016841F480710160306BA3
:1015B000002803D0016841F480710160206801684F
:1015C00041F00101016002E0284630700225284602
:1015D000F2BD10B4002100F124025378022B03D095
:1015E00004209061012123E003681C6824F00E04AC
:1015F0001C60536A1C6824F480741C6000680368D3
:101600005B085B000360012092F8203003F01F03A9
:101610009840D3695860D06A936A5860106B00286C
:1016200006D0036823F480730360906B536B58609B
:101630000120507000201070084610BC704710B593
:10164000002400F124025178022907D0042090617F
:10165000012050702046107001242BE001680B68B7
:1016600023F00E030B6001680B685B085B000B60E6
:10167000516A0B6823F480730B60012192F82030CB
:1016800003F01F039940D3695960D16A936A596086
:10169000116B002906D00B6823F480730B60916BEB
:1016A000536B596001215170214611705169002915
:1016B00000D08847204610BDF0B400F12401CA696B
:1016C00014680268156891F8206006F01F0604236C
:1016D00003FA06F73C4214D06F0712D51468A4062B
:1016E00003D4146824F00404146091F8202002F05C
:1016F0001F029340CA695360C96800293CD0F0BCFE
:101700000847022303FA06F73C4218D0AF0716D564
:101710001468A40605D4146824F00A041460012295
:101720004A7091F8202002F01F029340CA6953606A
:1017300000220A70896800291ED0F0BC08470823DF
:1017400003FA06F6344217D02B0715D5136823F099
:101750000E031360012291F8203003F01F039A401A
:10176000CB695A6001228A614A7000220A700969B5
:10177000002901D0F0BC0847F0BC704790F8250064
:10178000704730B4046DC56C6C60446D002C02D0A1
:10179000C46D856D6C60012490F8445005F01F0500
:1017A000AC40056C6C600468636003688468102C4E
:1017B00003D19A600068C16002E099600068C2606D
:1017C00030BC70470168184A124B994200D320324E
:1017D00001F0FF0108391423B1FBF3F1436C9B08BE
:1017E00012EB83028264114AC264012201F01F01DC
:1017F00002FA01F10165704701790D4A02EB81029D
:1018000042650C4A82650122491E01F01F018A408F
:10181000C265704708040240F8FFFDBF00000240A7
:10182000F8FBFDBF000402400008024080080240AF
:10183000FC080240400902407047704770477047FB
:1018400070477047704770477047704780B501F028
:101850004BF800F00FF801F063F801F0B1F801F077
:10186000E7F8FFF72FFD01F087FD00F03EF800F0EC
:1018700015FAFCE700B593B00022382105A800F066
:1018800073FD00221421684600F06EFD002001F077
:1018900041FE012005904FF48030069002200C900C
:1018A00003200D9006200E9055200F9002201090DE
:1018B0001190129005A801F0A5FE002801D000F0BB
:1018C000C8FC0F200090032001900020029003909C
:1018D00004900421684602F081F8002801D000F04D
:1018E000B8FC02F099F913B000BD10B572B6DFF87C
:1018F0008C492046D4F8A81088474FF4807221699B
:10190000206802F066FA002801D000F0A2FCDFF89F
:101910007049206803F0E4F8002801D000F099FC39
:101920000022A16E206803F0A6F9002801D000F083
:1019300090FC07224FF42071DFF8480903F09BF96F
:10194000002801D000F085FC0020A060E0604FF48A
:101950000020206100206061A061E061206260627F
:1019600062B601F01FFC00200AE001EB80118988BB
:10197000402904D0DFF81019DFF810294A67401C0D
:10198000DFF80C190428F0DB91F82000401D052237
:1019900090FBF2F202EB8202801A01EB400001217F
:1019A000418480214FF0904000F0FEFEDFF8D8180F
:1019B000887310BD70B52DED048B0446DFF8C85850
:1019C0000021A06E03F038FC85ED100A0021E06EC6
:1019D00003F032FC85ED110A0021206F03F02CFC8E
:1019E00085ED120A0021606F03F026FCB0EE408AFC
:1019F00085ED138ADFF89C6896ED1A9B286C03F03E
:101A00002BFC53EC192B03F04BFCC6E90201686C6C
:101A100003F022FC53EC192B03F042FCC6E904014D
:101A2000A86C03F019FC53EC192B03F039FCC6E940
:101A3000080118EE100A03F00FFC53EC192B03F009
:101A40002FFCC6E90A01A06F03F0A0FD401E8041F3
:101A5000C043C00F3070BDEC048B70BD70B52DED70
:101A6000028BDFF82448D4F88000401CC4F88000C2
:101A7000E06F401CE06701F023FCA075A07D00280A
:101A800004D18020A0740020E07400E1022800F05E
:101A9000FE80E06F062806D300206075207501F0F7
:101AA000B8F90020E067607D042840F0F080207DD8
:101AB000062840F0E680E07A002800F0D38094ED1C
:101AC000120AB5EE400AF1EE10FA06D194ED130AAF
:101AD000B5EE400AF1EE10FA66D0DFF8B857DFF83D
:101AE000B067D6E90401D5E9042303F013FEC6E983
:101AF0000401D6E91423D5E90A0103F04DFDC6E936
:101B000014019FED648BD5E9022351EC180B03F00F
:101B100043FD03F071FE00EE100A03F0A1FE10EE8B
:101B2000100A03F099FBC4E90801D5E9022351EC3E
:101B3000180B03F031FD03F05FFE00EE100A03F016
:101B40008FFE10EE100A03F087FBC4E90C01D5E903
:101B5000082351EC180B03F01FFD03F04DFE00EEBF
:101B6000100A03F07DFE10EE100A03F075FBC4E9C5
:101B70000A01D5E9082351EC180B03F00DFD03F021
:101B80003BFE00EE100A03F06BFE10EE100A03F0AD
:101B900063FBC4E90E0195ED080B84ED140B95ED84
:101BA0000A0B84ED160B5DE0DFF8E856DFF8E0661F
:101BB000D6E90401D5E9042303F0ACFDC6E904012C
:101BC000D6E91423D4E9160103F0E6FCC6E91401B2
:101BD0009FED308BD5E9022351EC180B03F0DCFCB0
:101BE00003F00AFE00EE100A03F03AFE10EE100AAF
:101BF00003F032FBC4E90801D5E9022351EC180BCC
:101C000003F0CAFC03F0F8FD00EE100A03F028FE12
:101C100010EE100A03F020FBC4E90C01D4E91423F0
:101C200051EC180B03F0B8FC03F0E6FD00EE100ACF
:101C300003F016FE10EE100A03F00EFBC4E90A01D1
:101C4000D4E9142351EC180B03F0A6FC03F0D4FDE7
:101C500000EE100A03F004FE10EE100A03F0FCFA86
:101C6000C4E90E0101F02EFA012504E02846C0B2B5
:101C700000F0A9FF6D1C052DF8DB002060752075B4
:101C800005E04FF07E506067002060752075BDEC68
:101C9000028B70BD00000060FB21F9BF2DE9F0410F
:101CA00088B0DFF8E445FFF7E7FBE066DFF8CC55E6
:101CB0002846D5F8AC108847D4F88000322805D3E0
:101CC000012060700020C4F8800001E000206070F6
:101CD000607800285BD0DFF8B80500F1C40191F806
:101CE0001CE00EF1040E00F18402137F1B1D00F1B5
:101CF0004406377F3F1D90F820C00CF1040C4FF0D4
:101D000005089EFBF8F808EB8808AEEB080E00EB20
:101D10004E0EBEF8E2E0CDF81CE04FF0050E93FB4E
:101D2000FEFE0EEB8E0EA3EB0E0300EB4303B3F8A7
:101D3000A2300693052397FBF3F303EB8303FF1A0B
:101D400000EB4703B3F86230059305239CFBF3F3E4
:101D500003EB8303ACEB030C00EB4C035B8C0493B1
:101D6000098803911188029131880191808800903F
:101D7000E37CA27C0FF22C51E86803F0B9FDE8681F
:101D800003F0D6FD014689B2284603F0EDFDE07868
:101D9000002806D0A07C00F03DFF0020E07001206C
:101DA0006071207900280DD0012505E0E17C2846EE
:101DB000C0B200F044FF6D1C052DF7DB0020207140
:101DC00001206071A07800280BD0012505E00B21CF
:101DD0002846C0B200F033FF6D1C052DF7DB002054
:101DE000A070E07900280AD0012504E02846C0B29E
:101DF00001F0FBF86D1C052DF8DB0020E071207A66
:101E000000280CD0012504E02846C0B201F025F9D5
:101E10006D1C052DF8DB0020207201206071A07977
:101E200000281AD00126DFF8685409E03046C0B215
:101E300001F0DBF805EB8610383801684162761C4A
:101E4000052EF3DB05F14400806A606605F1C400ED
:101E5000806A6438A0660020A071607A002808D0EB
:101E6000628BD2B2B4F96010207C01F04AF80020F5
:101E70006072A07A00280BD0206F0090638BDBB2D9
:101E8000B4F96020617C207C00F065FE0020A07227
:101E9000607900280AD0012504E02846C0B201F08C
:101EA00042F86D1C052DF8DB00206071607B002876
:101EB00001D000F0BEF8FFF7DFFAE16E401AE073E0
:101EC00008B0BDE8F081DFF8D0030178491C01704B
:101ED000704770B50268136D5B0701D50423136565
:101EE000DFF89C532C680068226890424BD1A86EA2
:101EF000014248D0DFF8906305F1580305F1300244
:101F0000696E204602F02AFE002805D04FF080407E
:101F1000706700F09EF926E0286B00F07F01491EF3
:101F2000317000F4F0603083B0F5C07F09D0B0F5B7
:101F3000B06F18D1C9B2D64800EB8110426B904700
:101F400011E0707D401C7075307D08183075C9B285
:101F5000CF4800EB8110826B9047012803D001200D
:101F6000B0708020B0744021C64802F072FE022892
:101F700009D305F1580305F13002696E286802F0B3
:101F8000EDFD0028F5D170BD68E510B50446B0F54B
:101F9000007F16D14FF400714FF0904000F004FC28
:101FA00000280ED1B84C01F08BF9A075A07D022855
:101FB00002D10120A07401E08020A0740120E07013
:101FC00010BDB4F5806F33D14FF480614FF0904075
:101FD00000F0EAFB00282BD1AB4CE07D002810D1AB
:101FE0000120A071E075AA4890F82010052291FB0D
:101FF000F2F202EB8202891A00EB410000214184D7
:1020000010BD01F05DF9A075A07D032802D1062066
:10201000E0740BE0042802D10F20E07406E00528EC
:1020200002D10020E07401E00020E0740120207162
:1020300010BD70B52DED0E8B82B0984C04F180056B
:10204000974E0120019000950346A289A2213046B7
:10205000FEF71BF9002801D000F0FBF83046FEF730
:1020600090FA2028FAD13046FEF78EFA0428E8D0FC
:10207000032003F009FD0620019000940123A289AA
:10208000A2213046FEF79CF9002801D000F0E1F8CB
:102090003046FEF776FA2028FAD13046FEF774FA79
:1020A0000428E8D0032003F0EFFC01200190009504
:1020B0000346A289A6213046FEF7E7F8002801D0A2
:1020C00000F0C7F83046FEF75CFA2028FAD1304617
:1020D000FEF75AFA0428E8D0032003F0D5FC0620C6
:1020E0000190A01D00900123A289A6213046FEF791
:1020F00067F9002801D000F0ACF83046FEF741FA4D
:102100002028FAD13046FEF73FFA0428E7D0032012
:1021100003F0BAFC2078617840EA012000B203F0B5
:10212000C7FC41EC180B94ED1C9B53EC182B51ECA5
:10213000190B03F0B5F8C4E90401A078E17840EA8E
:10214000012000B203F0B4FC41EC1A0B53EC1A2B43
:1021500051EC190B03F0A4F8C4E906012079617968
:1021600040EA012000B203F0A3FC41EC1B0B53EC4E
:102170001B2B51EC190B03F093F8C4E90801A0796B
:10218000E17940EA012000B203F092FC41EC1C0B23
:1021900053EC1C2B51EC190B03F082F8C4E90A0133
:1021A000207A617A40EA012000B203F081FC41EC20
:1021B0001D0B53EC1D2B51EC190B03F071F8C4E906
:1021C0000C01A07AE17A40EA012000B203F070FC31
:1021D00041EC1E0B53EC1E2B51EC190B03F060F875
:1021E000C4E90E0194ED1E9B2A4C53EC182B51ECC4
:1021F000190B03F055F8C4E9020153EC1A2B51EC0A
:10220000190B03F04DF8C4E9040153EC1B2B51ECFE
:10221000190B03F045F8C4E9060153EC1C2B51ECF3
:10222000190B03F03DF8C4E9080153EC1D2B51ECE8
:10223000190B03F035F8C4E90A0153EC1E2B51ECDD
:10224000190B03F02DF8C4E90C0102B0BDEC0E8BA4
:1022500070BD38B50C4C012020738020A07406207E
:10226000E074012505E0E17C2846C0B200F0E7FCFF
:102270006D1C052DF7DB72B6FEE700004004002060
:102280000001002030090020080200200000C040AA
:1022900000000020D8020020D009002048030020C0
:1022A000E40300200A25642C25642C25642C256475
:1022B0002C25642C25642C25642C25642C25642C69
:1022C00025640D0010B400F140025378202B20D17A
:1022D0001378012B01D102201CE001231370242369
:1022E000537003681C68640864001C6003681C6801
:1022F00024F480541C6003681C6821431960006842
:10230000016841F001010160202050700020107030
:1023100000E0022010BC704710B400F14002537876
:10232000202B1ED11378012B01D102201AE00123AA
:1023300013702423537003681C68640864001C60D5
:1023400003681C6824F4706444EA01241C6000687B
:10235000016841F0010101602020507000201070E0
:1023600000E0022010BC704762F30F2262F31F42AC
:1023700000B500BF130096469446103928BFA0E868
:102380000C50FAD85FEA417C28BF0CC048BF40F827
:10239000042BC90728BF20F8022B48BF00F8012BE7
:1023A00000BD0268531C0360117070472DE9FC47A3
:1023B000054600242646DFF850722868000369D5D8
:1023C000A046F86CC0000AD4F86C40F08050F86465
:1023D000F86C00F08050009000984FF00108DFF892
:1023E0002C92D9F8000040F48070C9F80000FFF783
:1023F00043F88246D9F80000C00506D4FFF73CF840
:10240000A0EB0A000328F5D3032420003AD1DFF81B
:102410000092D9F8000010F4407014D0296C884262
:1024200011D0D9F8000020F44070D9F8001041F420
:102430008031C9F80010D9F8001021F48031C9F8B2
:102440000010C9F80000C0070FD5FFF715F8824645
:10245000D9F80000800708D4FFF70EF8A0EB0A00B7
:1024600041F289318842F3D30324200008D1D9F8FE
:10247000001021F44071286C0143C9F8001002E0FB
:10248000264600E02646B8F1010F03D1F86C20F093
:102490008050F8642878C00705D5F96F8908686806
:1024A00050EA8101F9672878800705D5F96F21F096
:1024B0000C01A8680143F9672878400705D5F96F32
:1024C00021F03001E8680143F9672878000705D555
:1024D000F96F21F0C00128690143F9672878800667
:1024E00005D5F96F21F4406168690143F9672878DF
:1024F000400605D5F96F21F44051A8690143F967F9
:102500002878000605D5F96F21F44041E8690143B8
:10251000F9672868C00505D5F96F21F44031286AAC
:102520000143F9672868800505D5F96F21F440213A
:10253000686A0143F967286840050DD5F96F21F4F1
:102540004011A86A0143F967A86AB0F5801F03D15A
:10255000386840F480103860286800050DD5F96FA0
:1025600021F44001E86A0143F967E86AB0F5800F99
:1025700003D1386840F4801038602868C0040DD555
:10258000F96F21F04071286B0143F967286BB0F1B6
:10259000807F03D1386840F4801038602868800458
:1025A0000DD5F96F21F04061686B0143F967686BE5
:1025B000B0F1006F03D1386840F4801038602868AB
:1025C00040040DD5F96F21F04061A86B0143F96714
:1025D000A86BB0F1006F03D1386840F48010386008
:1025E000286800040DD5F96F21F04051E86B0143D4
:1025F000F967E86BB0F1805F03D1386840F4803050
:1026000038603046BDE8F6870C100240007000408C
:1026100090100240F8B502460B4600242DE04FF022
:10262000060C05E0DFF8A4C16245F8D14FF0050CB7
:102630000CFA06FC4CEA070C45F821C064498E6888
:10264000C5432E405F68FF0200D506438E60CE680A
:102650002E405F68BF0200D50643CE604E682E4014
:102660005F68BF0300D506434E600E682E405D686C
:10267000ED0300D506430E60641C18680146E14076
:1026800000F091800127A7403840F5D06100032574
:102690008D40ED435E6806F0030CBCF1010F03D0E2
:1026A00006F00306022E10D196682E40D3F80CC017
:1026B0000CFA01FC4CEA060696605668BE435F6859
:1026C000C7F30017A7403E4356601E7906F0030685
:1026D000032E05D0D6682E409F688F403E43D660BB
:1026E0001E7906F00306022E15D12646F60802EBE7
:1026F00086073E6A4FEA840C0CF01C0C4FF00F0E5C
:102700000EFA0CFE26EA0E06D3F810E00EFA0CFCC8
:102710004CEA06063E6216682E401D7905F0030558
:1027200005FA01F10E431660596811F4403FA3D039
:1027300028490D6845F001050D60096801F00101A7
:102740000091009921468908234D55F82170A60073
:1027500006F00C064FF00F0C0CFA06FC27EA0C07EB
:10276000B2F1904F02D14FF0000C61E7DFF86CC07E
:10277000624502D14FF0010C5AE7DFF864C06245B0
:1027800002D14FF0020C53E7DFF858C0624502D186
:102790004FF0030C4CE7DFF850C062457FF442AFC6
:1027A0004FF0040C44E7F1BD006901400846401EAB
:1027B0008041C043C00F704701460C4A13680B426A
:1027C00002D01160FFF7E1BB704700000014004821
:1027D000000401406010024008000140000400486D
:1027E00000080048000C0048001000481404014094
:1027F000374A13684FF6FF010B40000200F4E06017
:102800001843344908431060704731480068C0F3EA
:1028100002207047010007D4012200F01F018A4006
:102820002D49400941F8202070470901020002D4D7
:102830002A48815470472A4802F00F02104400F8D9
:10284000041C704710B400F00700C0F10703052B0B
:1028500000D30423041D072C01D2002000E0C01E79
:10286000012404FA03F35B1E1940814004FA00F0CE
:10287000401E1040084310BC704738B50446641E23
:10288000B4F1807F0AD2174D6C600F214FF0FF30FA
:10289000FFF7CBFF0020A86007202860B4F1807FFD
:1028A0008041C043C00F32BDA2E770B504460D465B
:1028B0001646FFF7AAFF32462946FFF7C3FF014637
:1028C0002046BDE87040B0E7A4E7D6E7FFF75CBB61
:1028D0000CED00E00000FA0500E100E000E400E09B
:1028E00018ED00E010E000E010B500240B4801688E
:1028F00021F480610160016841F48071016003206E
:10290000FFF7D2FF204603F0E5F8002801D00124AC
:1029100001E003F007F9204610BD0000002002404E
:1029200080B586B00022142101A8FFF71DFD2348C1
:10293000016841F020010160016801F0200100916F
:102940000099016841F001010160016801F0010195
:1029500000910099016841F002010160006800F0F7
:102960000200009000988020019000200290012039
:10297000039001A94FF09040FFF74CFE4FF4C06068
:1029800001904FF4041002900120039001A94FF030
:102990009040FFF73FFE002203211720FFF785FF3D
:1029A0001720FFF791FF002203212820FFF77DFF6A
:1029B0002820FFF789FF07B000BD00BF4C10024080
:1029C00080B51A48016841F004010160016801F016
:1029D000040100910099016841F001010160006863
:1029E00000F0010000900098002202210B20FFF768
:1029F0005CFF0B20FFF768FF002202210C20FFF78D
:102A000054FF0C20FFF760FF002204210D20FFF788
:102A10004CFF0D20FFF758FF002204210E20FFF786
:102A200044FF0E20BDE80240FFF74EBF48100240B1
:102A300010B586B0DFF85446DFF854062060002059
:102A40006060A060E0600120207400206074A074C9
:102A50000A2060610120A0610E20E0610220206256
:102A600001206062A062E06220631C20606300209D
:102A7000A063E063204601F02BFF002801D0FFF7A0
:102A8000E8FB0020009001900290012003900020BC
:102A9000049040F2FF7005906946204601F0F4FF73
:102AA000002801D0FFF7D5FB06B010BD18B597B0D0
:102AB00004460022142101A8FFF756FC00224421FD
:102AC00006A8FFF751FC2068DFF8C415884240D102
:102AD0004FF4805006904FF00070129006A8FFF758
:102AE00065FC002801D0FFF7B4FBDFF8A805C1683A
:102AF00041F00071C160C16801F00071009100995E
:102B0000016841F001010160006800F001000090DF
:102B100000984FF4C05001900220029001200390D1
:102B2000032004900920059001A94FF09040FFF781
:102B300071FD002201211520FFF7B7FE1520FFF7D8
:102B4000C3FE002201211620FFF7AFFE1620FFF77B
:102B5000BBFE18B010BD3CB4049DDFF83C4500F549
:102B6000C060C4F80401012904D0022908D0042956
:102B70000ED01BE004F594702F210170057118E050
:102B800004F594702B21017005712D12457110E030
:102B900004F59470232101700571294609124171D1
:102BA0002946091481712D16C57102E0222084F88E
:102BB000280104F59470427012128270C37004F5FB
:102BC000807036BC34E118B4DFF8CC1400F5007224
:102BD000C1F8042101EB801201F59473DFF8BC44C5
:102BE000204410F8010C002805D032F9260C18708A
:102BF000001258700AE052F8240C187002461212A3
:102C00005A70024612149A700016D87001F580703E
:102C100012BC0DE170B50446DFF87C5405F59476DE
:102C2000002208213046FFF79FFB0020C5F8040171
:102C30003470707005F58070BDE87040F8E07CB5C8
:102C40000646DFF85C440020606046F240050091D3
:102C500003462A4602213046FFF77DFFDFF838049D
:102C600000EB861636F93E0C46F26601884218D112
:102C700073BD94ED010AF7EE000A30EE200A84EDF0
:102C8000010AD4ED030AF8EE600AB4EE600AF1EE30
:102C900010FA06DBDFF80C04DFF80C140160FFF714
:102CA000D8FA2078002803D136F93E0CA842E0D1AA
:102CB00073BD38B505460C460120DFF8E4130870F3
:102CC000601C2870DFF8E41348788A7840EA022014
:102CD000688000B246F23F02801A0AD0801E02D0FD
:102CE00023381BD03EE00879497940EA0120A880CA
:102CF00031BD95F8200005EB40000A79497942EA98
:102D00000122428495F82000401C85F82000C0B2C2
:102D1000052842D1002085F8200031BD08794A7984
:102D200040EA02208A7940EA0240C97940EA01601B
:102D3000A860E96A401A02F0BBFEDFF87423DFF8EE
:102D4000743302F0ADFA41EC100B85ED040BDFF8A3
:102D50006C2302EBC402D2E9002302F015FFC5E99F
:102D6000040131BD08784F2802D10879286331BDAC
:102D70004B2805D10879497940EA0120286331BD03
:102D800043280AD108794A7940EA02208A7940EA40
:102D90000240C97940EA0160286331BD38B5054673
:102DA0000C46601C287046F266006880BF490878AF
:102DB0004A7840EA0220A8808878CA7840EA02204F
:102DC000E88008794A7940EA02208A7940EA02409C
:102DD000C97940EA0160A860E96A401A02F068FE19
:102DE000B34AB44B02F05CFA41EC100B85ED040BD6
:102DF000DFF8C82202EBC402D2E9002302F0C4FECD
:102E0000C5E90401A888C0F3C000401E8041C00F7E
:102E100032BD10B5A04C8020C4F804010022082166
:102E200004F59470FFF7A0FA04F58070BDE8104037
:102E300070B505469A4C00202070606016E094ED55
:102E4000010AF7EE000A30EE200A84ED010AD4ED03
:102E5000030AF8EE600AB4EE600AF1EE10FA05DB40
:102E60009048DFF854120160FFF7F3F92868006812
:102E7000006D8005E3D48B4E7068A060321D022186
:102E8000201D02F0A5FF0020606015E094ED010A0E
:102E9000F7EE000A30EE200A84ED010AD4ED030AB1
:102EA000F8EE600AB4EE600AF1EE10FA04DB4FF0BF
:102EB00081403060FFF7CDF9286801F0D6FE002888
:102EC000E4D07068A060321D0221201D02F080FF56
:102ED00005F12802291D286801F017FE002803D0FB
:102EE00071483060FFF7B5F928680068006DC004CC
:102EF00006D5DFF8CC013060BDE87040FFF7A9B916
:102F000070BD18B4644B00F5C060C3F8040103F54C
:102F1000947040240470417009128170C27003F5EE
:102F2000807012BC84E72DE9F04107465C4C00201C
:102F3000606046F24108024641463846FFF7E1FF2D
:102F400015E094ED010AF7EE000A30EE200A84ED58
:102F5000010AD4ED030AF8EE600AB4EE600AF1EE5D
:102F600010FA04DB4F4850490160FFF772F94A48F4
:102F7000394610EB8115A5F13E062078002803D1D3
:102F8000B6F900004045DCD146484168A160021D09
:102F90000221201D02F01CFF7088C0F3C000002831
:102FA00021D046F23F08002241463846FFF7A9FFEC
:102FB00020780028FCD0B6F900004045F8D1B07F59
:102FC000001D052190FBF1F101EB8101401A05EB99
:102FD000400030F81E0C48F21011884203D13846E8
:102FE000BDE8F04139E0BDE8F08170B505462C4CF4
:102FF0000020606046F26406024631462846FFF72C
:1030000080FF15E094ED010AF7EE000A30EE200A89
:1030100084ED010AD4ED030AF8EE600AB4EE600A0A
:10302000F1EE10FA04DB1F481F490160FFF711F9A8
:103030002078002807D11848294600EB811030F984
:103040003E0CB042DED117484168A160021D02214A
:10305000201DBDE8704002F0BBBE10B504468021C3
:10306000FFF7EDFD2046FFF75EFF0D4800780028D2
:10307000FBD00948214600EB811030F93E0C46F2A6
:1030800041018842F1D110BD00000000300900204C
:10309000006400404C10024000000020CC030020DF
:1030A000D00300207C0200200000A0405801002036
:1030B0005D8940F50F22493F000040409802002002
:1030C0000000C04038B52DED028B80214FF09040BC
:1030D000FFF76AFBDFF8E0110870DFF8D82193787A
:1030E000012813D1012B55D0DFF8D00100F1DC010C
:1030F0000B690B6001219170DFF864120022134606
:10310000C1E9002311464830418243E0DFF84C42D8
:103110002168DFF84C52984202D09070296139E062
:103120002869091A084602F0C3FC21F00041D5E9DC
:10313000022302F08DFE2BD2D5E90023DFF8140222
:10314000DFF8201202F028FA41EC100B85ED000B9D
:103150009FED128BDFF8F421D2E9022302F014FD77
:10316000DFF8EC21D2E9002302F00EFD53EC182B1E
:1031700002F096F8DFF8E021D2E9022302F090F89D
:1031800053EC182B02F08CF802F07CFE608201E018
:1031900000206082BDEC028B31BD00000000000009
:1031A00000408F401CB501247AE0082000900023E5
:1031B00001212046C0B2FFF7CEFC0020009003465C
:1031C0004FF4B05201212046C0B2FFF7C4FC66485C
:1031D000009001234FF4B05204212046C0B2FFF703
:1031E000BAFC0120009000234FF4B0520146204663
:1031F000C0B2FFF7B0FC40F6C4100090002346F2C6
:10320000650204212046C0B2FFF7A5FC642002F04D
:103210003BFC34E02046C0B2FFF785FE46F2600278
:103220005248204410F8010C0028BED00A2000901B
:10323000002301212046C0B2FFF78DFC0020009042
:1032400003464FF4B05201212046C0B2FFF783FC81
:103250004748009001234FF4B05204212046C0B2E9
:10326000FFF779FC0120009000234FF4B052014693
:103270002046C0B2FFF76FFC642002F005FC4AF262
:10328000BC400090052343F2010204212046C0B255
:10329000FFF761FC00212046C0B2FFF7D0FC641CA0
:1032A000052CB7DB642002F0EFFB8020BDE8164060
:1032B000FFF7B0BC700100201602002000000020C3
:1032C00030B42C4A91880B46C3F3C000002814D1B7
:1032D000B2F844402046C0F3C00000280DD1B2F837
:1032E00084502846C0F3C000002806D1B2F8C4209C
:1032F0001046C0F3C000002801D0002023E0A14206
:1033000009D1A94207D1914205D1AC4203D19442DF
:1033100001D1954201D0012015E00846400A01D1B3
:10332000022010E0C3F38010002801D003200AE03F
:1033300001F00500052801D1052004E0C80701D5EA
:10334000042000E0062030BC7047000098020020F6
:1033500090020020FCA9F1D2B80200204800002011
:10336000F00100204D62403F20007A60CC03002035
:10337000100071600000002010B5614C61482060B1
:103380004FF4613060600020A060E06020610C209C
:1033900060610020A061E06120626062A06220465E
:1033A00000F08EFC002801D0FEF753FF00212046DC
:1033B00002F0A2FD002801D0FEF74BFF00212046BD
:1033C00002F0BDFD002801D0FEF743FF204602F0C9
:1033D00075FD002803D0BDE81040FEF73ABF10BDD0
:1033E00078B597B00446002214216846FEF7BCFF6A
:1033F0000022442106A8FEF7B7FF20684149884211
:103400007BD1022006900020089006A8FEF7CEFF90
:10341000002801D0FEF71DFF3B48C16841F4003190
:10342000C160C16801F4003105910599016841F05E
:1034300001010160006800F001000590059804207A
:1034400000900220019000200290012003900720AC
:10345000049069464FF09040FFF7DCF80820009098
:1034600002200190012002900390072004906946F9
:103470004FF09040FFF7CEF8244D254E2E601A20D5
:1034800068600020A860E8608020286100206861F2
:10349000A8612020E8614FF4805028622846FDF79B
:1034A000F1FF002801D0FEF7D4FEE567AC6206F11B
:1034B000140028661B2068661020A8660020E866B5
:1034C0008020286700206867A867E867C5F8800043
:1034D00005F16000FDF7D6FF002801D0FEF7B9FE28
:1034E00005F16000A067C5F888400022022126206F
:1034F000FFF7DBF92620FFF7E7F918B070BD0000F1
:1035000020080020004400404C10024060070020CA
:1035100008000240DFF8D81000282BD1DFF8D400D3
:103520000A6802F4C062B2F5806F1ED1026822F40C
:1035300080720260086820F4C06040F40070086087
:10354000DFF8B400026832204243DFF8B000B2FB7B
:10355000F0F0401C00E0401E4A69520501D50028E9
:10356000F9D1486940052ED43AE0016821F4807110
:10357000016035E0B0F5007F2CD1DFF878000A68F3
:1035800002F4C062B2F5806F1FD1026842F480720B
:103590000260086820F4C06040F400700860DFF842
:1035A0005800026832204243DFF85000B2FBF0F0CE
:1035B000401C00E0401E4A69520501D50028F9D19F
:1035C000486940050CD503207047016841F48071BB
:1035D000016005E0086820F4C06040F48060086085
:1035E000002070470648016841F48041016070473F
:1035F00000700040807000401C05002040420F0019
:10360000087000402DE9F843040000F0E281DFF883
:1036100070562078C00712D5A86800F00C00E96841
:1036200001F003010C2801D1032901D0082845D15C
:103630002868800303D56068002800F0CA812078DC
:10364000800721D5A86800F00C00E96801F00301AB
:103650000C2801D1022901D0042866D12868400530
:1036600003D5E068002800F0B481686820F0FE40CF
:10367000216940EA01606860DFF81006006802F026
:1036800029FA002840F0A581DFF8046620780007B9
:1036900040F1848060690028706870D040F00100BB
:1036A0007060FDF7E9FE07467068800776D4FDF785
:1036B000E3FEC01B0328F7D303208DE16068B0F55B
:1036C000803F04D1286840F48030286012E0B0F5D3
:1036D000A02F286807D140F480202860286840F493
:1036E0008030286006E020F480302860286820F4CC
:1036F00080202860606800280BD0FDF7BDFE0646DC
:10370000286880039BD4FDF7B7FE801B6528F7D39C
:10371000D2E7FDF7B1FE0646286880038FD5FDF796
:10372000ABFE801B6528F7D3C6E7E0680028286851
:1037300016D040F480702860FDF79EFE064628688B
:10374000400505D4FDF798FE801B0328F7D3B3E7A7
:10375000686820F0FE40216940EA0160686093E7F4
:1037600020F480702860FDF787FE06462868400533
:103770008AD5FDF781FE801B0328F7D39CE740081C
:1037800040007060FDF778FE07467068800705D539
:10379000FDF772FEC01B0328F7D38DE720784007A2
:1037A00068D50027A86DC00009D4A86D40F08050EE
:1037B000A865A86D00F08050009000980127DFF800
:1037C000D484D8F80000C00513D4D8F8000040F421
:1037D0008070C8F80000FDF74FFE8146D8F8000061
:1037E000C00506D4FDF748FEA0EB09000328F5D379
:1037F00062E7A068012804D1306840F00100306021
:1038000011E00528306807D140F0040030603068CE
:1038100040F00100306006E0400840003060306851
:1038200020F004003060A06800280ED0FDF724FED0
:1038300080463068800717D4FDF71EFEA0EB080015
:1038400041F289318842F4D336E7FDF715FE804610
:103850003068800708D5FDF70FFEA0EB080041F2A5
:1038600089318842F4D327E7012F03D1A86D20F0D6
:103870008050A8652078800621D5A0690028B0680E
:103880000ED040F00100B060FDF7F6FD0746B068CD
:10389000800714D4FDF7F0FDC01B0328F7D30BE716
:1038A00040084000B060FDF7E7FD0746B0688007BC
:1038B00005D5FDF7E1FDC01B0328F7D3FCE6E06961
:1038C000002800F08880A96801F00C010C2955D06F
:1038D0000228286820F0807028603AD1FDF7CCFDDE
:1038E00006462868800105D5FDF7C6FD801B032824
:1038F000F7D3E1E6E868DFF8A0130840216A08433F
:10390000616A491E40EA0110A16A40EA0120216B68
:103910004908491E40EA4150616B4908491E40EA86
:103920004160E16A40EAC160E860286840F0807068
:103930002860E86840F08070E860FDF79DFD04466F
:103940002868800147D4FDF797FD001B0328F7D3B3
:10395000B2E6E86880088000E860E968DFF83C03C8
:103960000140E960FDF788FD04462868800132D5F2
:10397000FDF782FD001B0328F7D39DE6012828D020
:10398000E86800F00301226A914222D100F0F001C0
:10399000626A521EB1EB021F1BD100F4FE41A26A03
:1039A000B1EB022F15D100F07841E26AB1EBC26FA2
:1039B0000FD100F4C001226B5208521EB1EB425FDE
:1039C00007D100F0C060616B4908491EB0EB416F40
:1039D00001D0012000E00020BDE8F2832DE9F8438A
:1039E000044688460027002C61D0DFF8B4522868CE
:1039F00000F00F00404509D22868000948EA00108D
:103A00002860286800F00F00404550D1DFF8706250
:103A10002078C0074DD5606803281AD1306880012E
:103A200045D500F00AF9DFF87C12884223D3B0684C
:103A300010F0F00F05D0207880071CD5A068002872
:103A400019D1B06820F0F00040F08000B06080270D
:103A500011E00228306828D1800328D500F089F8C9
:103A6000DFF84012884206D3B06820F0F00040F042
:103A70008000B0608027B1688908606850EA8101E1
:103A8000B160FDF7F9FC8146B06800F00C00616898
:103A9000B0EB810F0DD0FDF7EFFCA0EB090041F278
:103AA00089318842F0D3032061E04005D6D401205B
:103AB0005DE02068810715D5400703D5B06840F464
:103AC000E060B0602078000705D5B06820F4605051
:103AD00040F4E060B060B16821F0F001A0680143FB
:103AE000B16005E0802F03D1B06820F0F000B06035
:103AF000286800F00F00804514D22868000948EAC1
:103B000000102860FDF7B8FC0746286800F00F0099
:103B1000404507D0FDF7B0FCC01B41F28931884217
:103B2000F3D3C0E72078400705D5B16821F4E06100
:103B3000E0680143B1602078000706D5B06820F442
:103B40006050216940EAC100B06000F012F85649A7
:103B5000B268C2F30312895C01F01F01C8404A49F0
:103B600008604A480068BDE8F24301F0B3BFBDE811
:103B7000F2834E49086800F00C00042801D1414846
:103B80007047086800F00C00082801D148487047C9
:103B9000086800F00C000C281FD14A6802F00302EC
:103BA0004868C0F30310401C032A07D1404AB2FB07
:103BB000F0F24868C0F30620424306E0314AB2FB07
:103BC000F0F24868C0F3062042434868C0F3416001
:103BD000401C4000B2FBF0F07047002070472A48BC
:103BE0000068704780B5FFF7FAFF32492F4A126824
:103BF000C2F30222895C01F01F01C84002BD80B5FA
:103C0000FFF7EDFF2B49294A1268C2F3C222895CF3
:103C100001F01F01C84002BD1948016841F40021AC
:103C20000160704710B5244C2068C00504D502F02F
:103C3000D5F94FF48070606010BD20490A6802F029
:103C400003020868C0F30310401C032A07D1184A76
:103C5000B2FBF0F20868C0F30620424306E0094ACE
:103C6000B2FBF0F20868C0F3062042430868C0F3D4
:103C70004160401C4000B2FBF0F0704700000000C3
:103C8000001002400024F4001C050020F404002071
:103C900090100240007000400C809F01FFFFEEFE7C
:103CA0000020024001B4C4047C8A000808100240CD
:103CB00000366E01288B00081C1002400C100240D8
:103CC00038B5040015D004F180056868002804D1D7
:103CD000002028702046FFF783FB242068602068BE
:103CE0000168490849000160204600F01BFA0128DC
:103CF00001D1012032BDA06A002802D0204600F088
:103D00006BFB2068416821F4904141602068816824
:103D100021F02A0181602068016841F00101016001
:103D20002046BDE8324000F0BBBB70B504461346E8
:103D300004F180056868202849D1002901D01800C5
:103D400001D1012070BD2878012840D001202870C1
:103D5000216504F15406338073800020E86021203F
:103D60006860706A00281ED0DFF8AC13C162DFF80B
:103D7000AC03716A0863DFF8A803716A4863002026
:103D8000716A8863206800F12802216D706AFDF76E
:103D9000DAFB002807D01020E860002028702020DF
:103DA0006860012070BD40202168086200202870F2
:103DB0002068083050E8001F41F08001206800F1C1
:103DC000080242E800100028F2D1002070BD022055
:103DD00070BD30B4034603F180008468202C22D1EA
:103DE000002901D0140001D101201DE00478012C2C
:103DF00019D0012404700020D8661868DFF8144335
:103E0000A0420CD04068000209D5186850E8004F65
:103E100044F08064054645E800400028F5D1184686
:103E200030BC00F0DABB022030BC7047F8B5044665
:103E30002668F1693268B36840F60F00084004F163
:103E40005C050DD18F060BD5970601D4DF0007D591
:103E50006969002900F05D812046BDE8F44008470B
:103E6000002800F08C80DFF8B408034204D1DFF8AA
:103E7000B0783A4200F083800F46FF0707D5D70598
:103E800005D5012737622E6B46F001062E638E079B
:103E900009D51E46F60706D5022627683E622E6B18
:103EA00046F004062E634E0709D51E46F60706D5D2
:103EB000042627683E622E6B46F002062E630E072C
:103EC0000AD5960601D4034206D00820266830623F
:103ED000286B40F008002863080509D5500107D574
:103EE0004FF4006026683062286B40F020002863A1
:103EF000286B002800F00D81880608D5900601D4B3
:103F0000D80004D56969002901D020468847286B6C
:103F100021688968490602D410F0280F29D020466C
:103F200000F0D0FB2068806840061DD5206808306E
:103F300050E8001F21F04001206800F1080242E82B
:103F400000100028F2D1286A00280DD0DFF8D4171D
:103F50008163286AFDF773FB002800F0DA80286A85
:103F6000816BBDE8F44008472046BDE8F24002F00E
:103F700036B8204602F033F800202863F1BD2869E6
:103F8000012840F09280C80640F18F80D00640F1B1
:103F90008C80102030622068806840064ED5286AE8
:103FA0000068406880B2002800F0B3802988884209
:103FB00080F2AF806880286A00680068800634D488
:103FC000206850E8001F21F48071024642E800108A
:103FD0000028F5D12068083050E8001F4908490042
:103FE000206800F1080242E800100028F2D12068A1
:103FF000083050E8001F21F04001206800F108025D
:1040000042E800100028F2D12020E8620020286158
:10401000206850E8001F21F01001024642E800101D
:104020000028F5D1286AFDF7D4FA29886888091A8A
:1040300089B22046BDE8F44001F0D2BF28886988E3
:10404000411A6888002864D0084680B2002860D0F1
:10405000206850E8002F22F49072034643E80020C5
:104060000028F5D12068083050E8002FDFF84C0315
:104070000240206800F1080343E800200028F1D145
:104080002020E862002028616861206850E8002F45
:1040900022F01002034643E800200028F5D189B23F
:1040A0002046BDE8F44001F09BBFC80209D5580284
:1040B00007D54FF4801030622046BDE8F24001F091
:1040C00090BF08060AD5100601D4180206D5A969C2
:1040D00000291ED02046BDE8F4400847480606D512
:1040E000500604D52046BDE8F24000F0DBBB0802D4
:1040F00006D5500004D52046BDE8F24001F072BF5D
:10410000C80106D5002A04D52046BDE8F24001F0DA
:104110006ABFF1BD008000404D470008934700088A
:1041200045480008F8B50446002521680A68DFF80C
:10413000FC050240A0680243206902436069024313
:10414000E06902430A6021684A6822F44052E0684C
:1041500002434A60A2692368DFF8CC158B4201D084
:10416000206A02439E68DFF8C805064032439A6021
:104170002268D36A1B09606A50EA0313D36220687D
:10418000DFF8B02590420CD1DFF8AC25126802F0C0
:104190000302032A15D8DFE802F00248355E012247
:1041A00010E0DFF8982590421BD1DFF88C251268CB
:1041B00012F00C024DD0042A37D0082A22D00C2A43
:1041C00049D01022884240F07F80002A06D0022A7F
:1041D00043D0042A44D0082A45D047E0FFF702FD27
:1041E00046E0DFF85C2590420ED1DFF84C251268DE
:1041F00012F030022DD0102A17D0202A02D0302AF7
:1042000029D0DEE70222DDE7DFF8382590420ED123
:10421000DFF82425126812F0C0021AD0402A04D018
:10422000802AEFD0C02A16D0CBE70422CAE7884202
:10423000C7D1DFF80425126812F4406209D0B2F544
:10424000806FF2D0B2F5006FDCD0B2F5406F02D0D3
:10425000B7E72A46B6E70822B4E7DFF8EC0407E040
:10426000FFF787FC04E04FF4004001E028460125F9
:10427000002800F0988000BF51A1626A31F8121046
:10428000B0FBF1F63046626802EB4201884202D38D
:104290001103814201D2012585E0002747EA166714
:1042A00010464008002110EB06207941002301F060
:1042B0009BFEA0F54071DFF81026914202D22168E2
:1042C000C86070E001256EE0E069B0F5004F38D1BC
:1042D000082A15D8DFE802F005080B140E14141490
:1042E0001100FFF77FFC0DE0FFF789FC0AE0DFF823
:1042F000580407E0FFF73DFC04E04FF4004001E004
:104300002846012500284ED0D4F804102CA2636A58
:1043100032F81320B0FBF2F00A46520802EB4002DA
:10432000B2FBF1F04FF6F071A0F110028A4206D212
:104330000140C0F3420001432068C16033E0012521
:1043400031E0082A15D8DFE802F005080B140E1436
:1043500014141100FFF746FC0DE0FFF750FC0AE0D3
:10436000DFF8E40307E0FFF704FC04E04FF400404B
:1043700001E028460125002815D0616810A2636A73
:1043800032F81320B0FBF2F000EB5100B0FBF1F07B
:10439000A0F110014FF6F072914203D280B2216871
:1043A000C86000E0012504F168000121418001801E
:1043B00000218160C1602846F2BD0000FEFFFFEFD2
:1043C000010002000400060008000A000C001000B2
:1043D000200040008000000190F82810C90706D591
:1043E0000268536823F40033C16A0B43536090F8AA
:1043F0002810890706D50268536823F48033016BBF
:104400000B43536090F82810490706D5026853689B
:1044100023F48023416B0B43536090F82810090765
:1044200006D50268536823F40043816B0B43536045
:1044300090F82810C90606D50268936823F48053C3
:10444000C16B0B43936090F82810890606D502686B
:10445000936823F40053016C0B43936090F8281089
:10446000490611D50268536823F48013416C0B434D
:104470005360416CB1F5801F06D10268536823F484
:10448000C003816C0B43536090F82810090606D5D1
:1044900001684A6822F40022C06C02434A607047F7
:1044A0007CB5044604F180050020E860FCF7E4FFD9
:1044B00006462068006800070BD56FF07E4000902C
:1044C000334600224FF40011204600F01BF800286C
:1044D0000FD12068006840070DD56FF07E40009036
:1044E000334600224FF48001204600F00BF80028EC
:1044F00001D0032076BD20206860A8600020E0661F
:10450000287076BD2DE9F04105460E4617469846BF
:10451000069C2868C0693040B04201D1012000E00B
:1045200000203946884255D114F1010FF1D0FCF733
:10453000A3FFA0EB0800844201D3002C1FD1286800
:1045400050E8001F21F4D071024642E80010002814
:10455000F5D12868083050E8001F4908490028684C
:1045600000F1080242E800100028F2D105F18000B5
:104570002021416081600021017003202BE0286828
:1045800001684907C5D5C1690905C2D54FF4006165
:104590000162286850E8001F21F4D071024642E809
:1045A00000100028F5D12868083050E8001F49089D
:1045B0004900286800F1080242E800100028F2D102
:1045C00005F18000202141608160C16000210170FF
:1045D000032000E00020BDE8F08170B504461346DA
:1045E000A16504F15C06338004F180050020E860D9
:1045F0002220A860306A00281ED00FF29D11C162EF
:104600000FF22920316A08630FF23920316A4863BA
:104610000020316A8863A26D206800F12401306AAD
:10462000FCF791FF002807D01020E86000202870D8
:104630002020A860012070BD00202870206900287B
:1046400009D0206850E8001F41F48071024642E81A
:1046500000100028F5D12068083050E8001F41F014
:104660000101206800F1080242E800100028F2D1A0
:104670002068083050E8001F41F04001206800F138
:10468000080242E800100028F2D1002070BD016845
:1046900051E8002F22F0C0020B4643E80021002918
:1046A000F5D10168083151E8002F22F400020168B9
:1046B00001F1080343E800210029F2D12021C0F8CC
:1046C00084107047016851E8002F22F490720B4665
:1046D00043E800210029F5D10168083151E8002F95
:1046E000DFF8E8110A40016801F1080343E80021FE
:1046F0000029F1D1C16E012909D1016851E8002FCB
:1047000022F010020B4643E800210029F5D12021B8
:10471000C0F888100021C1660167704701000010D1
:10472000200100049548000800800040F369FFCF95
:10473000FFF4FF110038014088100240004400409F
:1047400000480040004C00400024F4000146886A04
:104750000968096889061AD40021A0F85610016872
:10476000083151E8002F22F08002016801F10803AE
:1047700043E800210029F2D1016851E8002F42F0FE
:1047800040020B4643E800210029F5D1704701F0B3
:1047900043BD806A01F041BD18B4826A02F15C0138
:1047A00000680068800634D400204880106850E813
:1047B000003F23F48073044644E800300028F5D11C
:1047C0001068083050E8003F5B085B00106800F19B
:1047D000080444E800300028F2D11068083050E89E
:1047E000003F23F04003106800F1080444E8003063
:1047F0000028F2D12020C8620869012809D1106878
:1048000050E8003F23F01003044644E8003000283D
:10481000F5D10869012804D10988104614BC01F0BB
:10482000DFBB104612BC01F0F9BC0000806A00F149
:104830005C010A69012A03D10988490801F0D0BB4B
:1048400001F0EDBC70B5846A04F1840528686E68D7
:1048500021688968090607D5212805D10020A4F818
:1048600056002046FFF713FF20688068400608D5F1
:10487000222E06D1002004F1560108812046FFF7C0
:1048800021FFA86840F01000A8602046BDE87040F5
:1048900001F0A5BB806A00F1560100220A810A805E
:1048A00001F09DBB016851E8002F22F040020B4649
:1048B00043E800210029F5D12021C0F8841000210F
:1048C000416701F0A9BC000000FD0F00FEFFFFEFF3
:1048D00070B5040001D1012070BD04F15C05287899
:1048E000002804D1002068702046FEF7DFF8206819
:1048F000816921F010018161FCF7BEFD0646206848
:10490000816909070CD5FCF7B7FD801B0B28F6D38E
:10491000686840F00100686003202870012070BDC5
:10492000816941F001018161FCF7A6FD064620681E
:104930008169C9070CD4FCF79FFD801B0B28F6D3B7
:10494000686840F00100686003202870012070BD95
:10495000816941F00201816120684949884202D1A0
:104960006068484908602068217C0129816903D179
:1049700021F04001816102E041F040018161206845
:10498000617C0129816903D141F48041816102E0A8
:1049900021F4804181612068A17C0129816903D1D2
:1049A00021F48051816102E041F4805181612168EC
:1049B0008A6922F44072A06802438A612068816992
:1049C00021F0A40181612068016921F010010161D9
:1049D000E068012805D12068816941F00401816106
:1049E00019E0002817D021680228886910D040F00B
:1049F000800088612068016941F010010161E06870
:104A0000032808D12068816941F02001816102E01A
:104A100040F020008861A069401EE169491E09023A
:104A200041EA4061206A401E01436069401E41EA3C
:104A300000412068C161A068B0F5407F0FD1A06A35
:104A4000401EE16A491E40EA0120216B491E40EAEE
:104A50000110616A491E40EA01402168C86021686E
:104A6000D1F8C020E06B0243C1F8C020204600F01E
:104A70003FFA0020A065686001202870002070BD0A
:104A8000006400400065004070B400F15C021378DF
:104A9000012B01D0022B1CD18A6892074B684C690C
:104AA0000D69CE680968002909D142EAC66242EA66
:104AB00005422243006C00EB8300026007E02243C2
:104AC000406C00EBC30045EA46750560426000207B
:104AD00004E0506840F002005060012070BC704754
:104AE00000F15C010A78012A09D102220A700068EB
:104AF000826952085200826100204860704748680D
:104B000040F0040048600120704738B5044604F1C5
:104B10005C000378022B1BD12368D3F8C450AD028C
:104B200005D5416841F400714160012032BDD3F8E0
:104B3000C400C0F301452B46204600F013FA0120C3
:104B400000FA05F52068C0F8CC50A565002032BDFC
:104B5000416841F008014160012032BDF0B400F12C
:104B60005C042578022D6DD105689035402912D15D
:104B70002E6816F00F0F05D1606840F480706060F9
:104B8000012064E02C68C4F30125866C05EBC504A4
:104B900006EBC40611E0AE6816F00F0F05D1606891
:104BA00040F480706060012051E0AC68C4F30125DE
:104BB000C66C05EBC50406EBC406346814F08044EB
:104BC0005460376803D1C7F38A44146002E027F0C9
:104BD00060471760346804F00054946056F8044B42
:104BE00004F0004414613468A4B2D461346804F45D
:104BF0007024D460346804F480145461346804F47C
:104C0000001494613468C4F30664146256F8044BCB
:104C1000E40F5462002402E0375D1F55641C0FF25C
:104C2000B437D2F80CC04FEA1C4C17F80C70BC42D9
:104C3000F2D300689430402901D1056000E085601E
:104C4000002004E0606840F0080060600120F0BCD3
:104C5000704700689030402903D1006800F00F00D1
:104C60007047806800F00F0070470068D0F8C400FB
:104C700000F00700704730B400F15C031C78012C91
:104C800001D0022C66D10468A36D11F0070F01D08A
:104C9000DD071DD511F0380F01D09D0718D511F48F
:104CA000E07F01D05D0713D511F4F05F01D01D073F
:104CB0000ED511F4604F01D0DD0609D511F4403F47
:104CC00001D09D0604D511F47C0F05D05D0603D4F8
:104CD000E56D45F00105E56511F0070F01D0DC0732
:104CE0001DD411F0380F01D09C0718D411F4E07FC7
:104CF00001D05C0713D411F4F05F01D01C070ED46F
:104D000011F4604F01D0DC0609D411F4403F01D00A
:104D10009C0604D411F47C0F06D05B0604D503680E
:104D2000DC6D44F00204DC650B0605D50368D3F89E
:104D3000DC401443C3F8DC40CB0505D50368D3F849
:104D4000E0402243C3F8E0200068426D1143416512
:104D5000002004E0586840F002005860012030BC98
:104D600070472DE9F8438146D9F800100C6D04F422
:104D7000E054486D04400D6D05F00705486D054091
:104D80000E6D06F03806486D0640D1F8508008F4E4
:104D90007108486D00EA08080F6D07F46027486D38
:104DA0000740086D400607D5486D400604D54020F1
:104DB0000865484601F034FAD9F80020106DC005A6
:104DC0000DD5506DC0050AD502F1D8000168806884
:104DD00001404FF480701065484601F022FA002C23
:104DE00006D0D9F8000004652146484601F01AFAB9
:104DF000002D06D0D9F80000056529464846FDF784
:104E000068F8002E06D0D9F80000066531464846FD
:104E100001F009FAD9F80000016D890508D5416D46
:104E2000890505D54FF4007101654846FDF74BF83B
:104E3000D9F80020106D00060CD5506D000609D57C
:104E400002F1D40001688068014080201065484666
:104E500001F0EAF9D9F80000016D890408D5416D27
:104E6000890405D54FF400510165484601F0DDF98C
:104E7000D9F80000016D090408D5416D090405D574
:104E80004FF400410165484601F0D0F9D9F800001F
:104E9000016D49040BD5416D490408D54FF480419B
:104EA0000165D9F8600040F08000C9F86000002F6B
:104EB00006D0D9F8000007653946484601F0B7F931
:104EC000B8F1000F09D0D9F80000C0F85080D9F827
:104ED000600048EA0008C9F86080D9F8600000283E
:104EE00004D04846BDE8F24301F0A2B9BDE8F18321
:104EF00010B4154901640268D2F8803023F4F81325
:104F0000446B43EA0443C2F88030104A42640268AA
:104F1000D2F8803023F07063846B43EA0463C2F8F4
:104F200080300B4A82640B4AC2640B4A02650B4A0A
:104F3000426502E000200860091D09488142F9D35A
:104F400010BC70470000000000A4004070A40040A6
:104F5000B0A4004088A5004060A6004078A60040AC
:104F600050A7004070B40D698C6825430E684C68EA
:104F7000002C02D145EA864502E0354345F08045E4
:104F80000C6ACE6946EA04668C6926434C6926435E
:104F9000CC682643406D03EBC30400EBC4000560FE
:104FA0004660083000230DE0D418E578A678360472
:104FB00046EA0566657846EA05262478264340F8E1
:104FC000046B1B1D03A4CD682D0C645DA342EBD3C1
:104FD00070BC70470001020304050607080C10149A
:104FE0001820304038B52DED028B040082B00D46FC
:104FF00000F0998010EE101A4A0000F094804800EA
:105000000016401C02D1490200F08D80002CB7EE42
:10501000008A3CD5644200BF89A1052008E0E20770
:1050200044BFD1ED000A28EE208A6408091D401E05
:10503000002C18BF0028F2D1684601F0FBF8009858
:1050400080EE080A01F01AF910EE101A4A0059D041
:1050500048000016401C01D1490253D0002C51D009
:10506000684601F0E7F80098DFED6C0A20EE200AB0
:1050700001F004F910EE101A4A0043D0480000165F
:10508000401C01D149023DD0641EE9D13AE039DD2E
:105090006BA10520E20744BFD1ED000A28EE208A6B
:1050A0006410091D401E002C01DD0028F2D1684665
:1050B00001F0C0F8009820EE080A01F0DFF810EEC9
:1050C000101A4A001ED048000016401C01D14902A7
:1050D00018D0002C16DD684601F0ACF80098DFED22
:1050E000500A20EE200A01F0C9F810EE101A4A000A
:1050F00008D048000016401C01D1490202D0641EAD
:10510000002CE8DC10EE101A4A0005D0480000160A
:10511000401C08D1490206D1AFF300801DB12868B8
:1051200040F00100286002B0BDEC028B31BD0000F0
:105130002DE9F14183B01D001CBF00202860039FB2
:105140008846164603A801F0FBF8C41020F00800BA
:10515000012804F0010424D1009001AB03994246D8
:10516000384601F07FF910B99FED2E0A15E09DED4C
:10517000020A0128B8EEC00A0FDD03A9401EDFEDC8
:105180002A0A51F8042BB0EE401A00EE102AB8EEAD
:10519000C00A401E01EE200AF3D101982946801969
:1051A00028E0022829D10120009001AB0399424652
:1051B000384601F033FA10B99FED1A0A15E09DED5B
:1051C000020A0128B8EEC00A0FDD03A9401EDFED78
:1051D000170A51F8042BB0EE401A00EE102AB8EE70
:1051E000C00A401E01EE200AF3D1019801F046F8F2
:1051F00029463046FFF7F6FE0AE0032808BF9FED78
:105200000C0A05D004280CBF9FED0A0A9FED050A81
:105210000CB1B1EE400A04B0BDE8F0811EB14F0AF6
:10522000AEC59D7400000000286B6E4E0000804DDE
:105230000000807FFFFFFF7F0023002278E700004F
:10524000000020410000C84200401C4620BCBE4C6B
:10525000CA1B0E5AAEC59D74C0F3C75181B1FF2958
:1052600006D0C110400721F0E04101F160517047C4
:1052700041020CBF40F4E0016FF000410020704794
:1052800000F0004100020AD0B0FA80FC00FA0CF0F5
:1052900001F16051A1EB0C5101EBD02140057047A9
:1052A00030B540F2FF7C1CEA11541DBF1CEA1355B7
:1052B000644565453FE0641981EA030C6FF35F5371
:1052C0000CF0004C43F48013C90241F0004141EA64
:1052D000505EC5021100A5FB020200284FF000003D
:1052E000EEFB01204FF00001E3FB052118BF42F067
:1052F0000102401800214941E3FB0E01A4F580643E
:105300000D0302D292184041494154F1010470DD6D
:10531000450872F1004250F1000051EB0451A1F533
:10532000801102D441EA0C0130BD40F2FF7E4CEA0C
:105330000E51002030BD0CEA1355644518BF654579
:1053400081EA030C0CF0004C41D050EA410E1CBF26
:1053500052EA430E02E06146002030BD24422C4454
:105360001BD15FEA050EF6D0090302BF01460020FB
:10537000AEF1140EB1FA81F5AEEB050401FA05FEAB
:105380000C35C5F1200100FA05F5C8404EEA000EC3
:105390006FF35F5343F480139CE733F00043B3FA99
:1053A00083F504BFB2FA82FE75440B3D641BB5F170
:1053B000200E2FBF02FA0EF3AB40C5F1200E22FAE9
:1053C0000EFE38BF43EA0E03AA40641C7CE750EA95
:1053D000410E14BF52EA430E6FF000014FF4001566
:1053E00015EB430F8EBF194615EB410F9DE7B4D85F
:1053F00030BDD4F10104B4F120050FDAC4F1200569
:10540000520828BF42F0010210FA05FE01FA05F524
:105410007244E2BFE0402843E1400FE0352C9ADCC3
:10542000C5F1200452EA400220FA05F218BF42F00A
:10543000010231FA05F0A1400A43002172F1004255
:1054400050F1000051EB0C0130BD2E002DE9F84F5A
:1054500084B00E4617460BB100221A600446A046DF
:1054600001E008F1010898F8000001F0DBF90028DC
:10547000F7D198F800002D2816BF2B2818F8015BEB
:105480002B25002F019603D4012F01D0252F03DBFC
:10549000002E55D0346053E0002F0CDD102F04BFD8
:1054A00098F80000302802BF98F8010040F0200072
:1054B000782811D10CE098F80000302818BF0A278E
:1054C0000AD198F8010040F02000782803D1102775
:1054D00008F1020800E00827CDF80C8001E008F18F
:1054E000010898F800003028F9D0064E7E441436A2
:1054F0004FF0000906F12800CDF80880CA468DF863
:1055000000000BE0703400009DF80010401ACA46FD
:105510005FFA80FB07FB09B908F1010898F8000061
:1055200001F08AF901463A4606F1280001F08EF9A9
:105530000028E9D10399414504D1019800B10460E4
:10554000002020E00299F05DA8EB0101081A002874
:1055500010D406DCB9EB0B0103D3B1FBF7F05045D7
:1055600008D0AFF30080049808B1012101604FF02A
:10557000FF3903E02D2D08BFC9F10009019808B1DA
:10558000C0F80080484605B0BDE8F08FFFE7002373
:105590000A2200215AE7000070B491EA030F4FF08D
:1055A000004540F1BF806B40841A71EB030604D2C2
:1055B0006E40001BB141121973414FF4001C1CEBEB
:1055C000410F34BF7CEB430683E00C0DA4EB135674
:1055D000362E00F37C80012E45EAC32341DC43EAEA
:1055E000525312BFD20292025B08240545EAC12140
:1055F00041EA5051D2EBC020994125D407D1B0FAED
:1056000080F610FA06F162D00020203608E0B1FAE8
:1056100081F6B140C6F1200220FA02F21143B040F7
:105620004FEAF474B4EB465434F001064FEA7404C4
:105630000AD8D6F50016760D04F00044F04061FA61
:1056400006F25040F1404840C00A40EA415021F083
:10565000004128BF5FEA500550F1000044EBD12122
:1056600035E0DB0A45EAC121C90AB6F120050EDDA5
:1056700042EA0242120CC5F1200603FA06F6EB409C
:1056800042EA06056D42984161F100010DE062FABF
:1056900006F5F240554063FA06FC82EA0C02F3403C
:1056A0005A406D42904161EB030111F4801F05D116
:1056B000641E620502D06D004041494121F4801111
:1056C000430875F1004350F1000041EB045170BCF8
:1056D00070471CEB410F15D223F0004352EA4306FA
:1056E0000BD04FEA4C0CBCEB410F04D80C0D661EDE
:1056F000342EB7DDEBE7801A994150EA410608BF26
:105700000021E4E708BF1CEB430F28BF6FF0000146
:10571000DDE7000070B491EA030F4FF000457FF51C
:1057200043AF6B40841A71EB030603D2001BB141F7
:10573000121973414FF4001C1CEB410F34BF7CEB7A
:10574000430442E00C0DA4EB1356352E4FDC45EA22
:10575000C323DB0A45EAC121C912B6F120050DDDDC
:1057600063FA05F6EB4086EA0305124218BF45F0DE
:105770000105C01851F100010CD213E062FA06F5E0
:10578000F2405540F3415A40B340F3405A4080182C
:10579000594107D349085FEA30005FEA350528BF61
:1057A00045F0010501F58011420875F1004250F104
:1057B000000041EB04514E0016F5001F70BC38BFCD
:1057C00070470020090D090570471CEB410F10D2EE
:1057D00052EA43060BD0BCEB410F05D80C0DAB438E
:1057E000661E342EB6DD02E0AB438018594170BC12
:1057F000704770BC7047430001F000428B1AA3F160
:105800006051B1F5801F0ADBB1F17F6F1FD242EA10
:10581000C102C10071F1004142EB507070470B159D
:10582000C3F10903212B10D2890241EA9051800271
:105830000128494141F0004121FA03F0C3F120035E
:10584000994071F1004150417047100070476FF06E
:10585000000013EB103F5CBF000E42EAC0507047DF
:105860009FED1F1AF5EE000A40EE010ABDEEE00AB8
:10587000F5EE400A10EE100AF1EE10FA48BF401E95
:1058800000EE100AB8EEC00A30EEC00ADFED150ACD
:1058900020EE200AFDEEC00A10EE900A80B2B0F5AC
:1058A000007F04DBDFED100A002030EE200A014605
:1058B00000EE901AF8EE600A0C4970EE600A01EBF7
:1058C0008002B7EE000A01EB800030EE600A92ED34
:1058D000001AD0ED011A20EE010A00EEA10A70476D
:1058E00083F9223E00000044000000C46C7C0008E4
:1058F0000CB430B583B00A4606A9029104460025CF
:105900000194009502AB01A9084878441E3000F0CC
:10591000C9FF019A157000284EBF04460198041B68
:10592000204603B030BC5DF80CFB00BF77CAFFFF18
:1059300000F10103810704D010F8011B820781B137
:10594000FAD10268A2F10131914311F0803104BF14
:1059500050F8042FF6E709BAB1FA81F100EBD10053
:10596000401CC01A704700000A4603681968C969DC
:105970004906FBD5C1681846FEF7D7B901464FF076
:10598000FF304A6812685368C3F580734B618A69B7
:10599000934207D0086913461BB2C05C521C02F048
:1059A000FF028A6170470146486800684068C0F598
:1059B000807048618969401A00F0FF00704706490D
:1059C0000160064941600649816006490161064956
:1059D000C160704700000000200800206007002020
:1059E000C0070020A0050020B008002038B50446FC
:1059F00001E0401CE0832046FFF7D5FF002811D0CE
:105A00002046FFF7BBFF04F12201E28B8854E08BB4
:105A1000014604F12202525C0A2A01D04029E8DB47
:105A200001202077207F00282DD000202084616E67
:105A300004F1220001F0CEFE04F16801228C41F84D
:105A400022000AE06D1C2584616E002001F0C2FE78
:105A500004F16801ADB241F82500258C04F168001D
:105A6000294650F821000028ECD12046FBF7A2FF80
:105A70000020E08320770246402104F12200BDE8A7
:105A8000384001F0CDBE31BD38B50446FBF7F4FC1B
:105A9000054614F1010F02D0044880680419FBF791
:105AA000EBFC401BA042FAD331BD00BFF004002044
:105AB00010F0004160B148BF4042B0FA80F290401F
:105AC000D21CC2F5846241EA025202EBD0214005A9
:105AD0007047000070B504460025104EB0680028DD
