:020000040800F2
:10000000D00C002019710008E96E0008F16E00089C
:10001000F36E0008F56E0008F76E0008000000009F
:10002000000000000000000000000000F96E000861
:10003000FB6E000800000000FD6E0008FF6E000867
:1000400035710008397100083D71000841710008E0
:100050000D6F0008116F0008457100084971000814
:100060004D7100085171000855710008136F0008A8
:10007000196F00081F6F0008256F000859710008EC
:100080005D710008000000006171000865710008E2
:10009000697100082B6F0008316F00086D7100084E
:1000A0007171000875710008797100087D71000890
:1000B000817100088571000889710008376F000898
:1000C0003D6F00088D71000891710008957100085E
:1000D000997100089D710008436F0008A171000824
:1000E000A5710008A9710008AD710008B171000880
:1000F000B5710008B9710008BD710008000000006A
:1001000000000000C171000800000000C571000877
:10011000C971000800000000CD710008D17100080D
:10012000D5710008D9710008DD710008E17100087F
:10013000E57100080000000000000000E9710008FF
:10014000ED710008F17100080000000000000000DF
:10015000000000000000000000000000000000009F
:10016000000000000000000000000000F571000821
:10017000F97100080000000000000000000000000D
:1001800000000000656F0008000000000000000093
:10019000000000000000000000000000000000005F
:1001A0000000000000000000FD710008017200085E
:1001B00005720008097200080D72000800000000B6
:1001C00000000000117200080000000000000000A4
:1001D000157200081972000810B586B0DFF8E845FE
:1001E000DFF8E805206000206060A060E06001208A
:1001F000207400206074A0740A2060610120A06156
:100200000E20E0610220206201206062A062E062B4
:1002100020631C2060630020A063E063204601F09F
:100220009DF9002801D002F067F8002000900190AD
:100230000290012003900020049040F2FF7005908E
:100240006946204601F066FA002801D002F054F811
:1002500006B010BD18B597B004460022142101A8BD
:1002600002F076F80022442106A802F071F8206816
:10027000DFF85815884240D14FF4805006904FF077
:100280000070129006A802F081F8002801D002F058
:1002900033F8DFF83C05C16841F00071C160C16806
:1002A00001F0007100910099016841F001010160C5
:1002B000006800F00100009000984FF4C0500190D9
:1002C0000220029001200390032004900920059051
:1002D00001A94FF0904002F08DF900220121152074
:1002E00002F0C7FA152002F0D3FA002201211620ED
:1002F00002F0BFFA162002F0CBFA18B010BD3CB4E1
:10030000049DDFF8D04400F5C060C4F80401012961
:1003100004D0022908D004290ED01BE004F5947003
:100320002F210170057118E004F594702B210170E4
:1003300005712D12457110E004F5947023210170B0
:1003400005712946091241712946091481712D163A
:10035000C57102E0222084F8280104F594704270EF
:1003600012128270C37004F5807036BC29E118B493
:10037000DFF8601401F58272034603F5007414601F
:1003800001F59474052807D011EB831030F9260C81
:1003900020700012607009E090692070024612120D
:1003A000627002461214A2700016E07001F58070AF
:1003B00012BC06E170B50446DFF8185405F59476D2
:1003C00000220821304601F0C3FF0020C5F80401D7
:1003D0003470707005F58070BDE87040F1E07CB558
:1003E0000546DFF8F4430020606046F240060091C5
:1003F0000346324602212846FFF781FF17E094EDBD
:10040000010AF7EE000A30EE200A84ED010AD4ED6D
:10041000030AF8EE600AB4EE600AF1EE10FA06DBA9
:10042000DFF8B803DFF8B813016001F065FF20784A
:10043000002808D1DFF89C03294600EB811030F931
:100440003E0CB042DBD173BD38B505460C460120E9
:10045000DFF884130870601C2870DFF88813487870
:100460008A7840EA0220688000B246F23F02801A91
:100470000AD0801E02D023381BD03CE0087949798D
:1004800040EA0120A88031BD95F8200005EB40002E
:100490000A79497942EA0122428495F82000401CF9
:1004A00085F82000C0B2052840D1002085F8200042
:1004B00031BD08794A7940EA02208A7940EA02404F
:1004C000C97940EA0160A860E96A401A02F0F0F9CF
:1004D000C54AC64B02F0FEF941EC100B85ED040B4A
:1004E000DFF8FC2D02EBC402D2E9002302F0C8FAC7
:1004F000C5E9040131BD08784F2802D10879286385
:1005000031BD4B2805D10879497940EA012028639B
:1005100031BD43280AD108794A7940EA02208A7914
:1005200040EA0240C97940EA0160286331BD38B52C
:1005300005460C46601C287043F202206880A949D9
:1005400008784A7840EA0220A8808878CA7840EA89
:100550000220E88008794A7940EA02208A7940EA54
:100560000240C97940EA0160A860E96A401A02F0D5
:100570009FF99D4A9D4B02F0ADF941EC100B85EDC2
:10058000040BDFF85C2D02EBC402D2E9002302F079
:1005900077FAC5E90401A888C0F3C000401E804175
:1005A000C00F32BD10B58B4C8020C4F8040100226E
:1005B000082104F5947001F0CBFE04F58070BDE8CD
:1005C000104070B50546844C00202070606015E036
:1005D00094ED010AF7EE000A30EE200A84ED010ADC
:1005E000D4ED030AF8EE600AB4EE600AF1EE10FAF8
:1005F00004DB7A487E49016001F07EFE28680068CD
:10060000006D8005E4D4754E7068A060321D022133
:10061000201D02F059FB0AE04FF07E506060E06858
:10062000022804D24FF08140306001F065FE286856
:1006300001F061F90028EFD07068A060321D02213E
:10064000201D02F041FB05F12802291D286801F058
:10065000A2F8002803D06248306001F04DFE2868FF
:100660000068006DC00400D5FEE770BD18B4594B9A
:1006700000F5C060C3F8040103F5947040240470D1
:10068000417009128170C27003F5807012BC98E746
:100690002DE9F0410746504C0020606046F24108C9
:1006A000024641463846FFF7E1FF15E094ED010AA6
:1006B000F7EE000A30EE200A84ED010AD4ED030AB9
:1006C000F8EE600AB4EE600AF1EE10FA04DB43487B
:1006D0004349016001F010FE3E48394610EB811598
:1006E000A5F13E062078002803D1B6F90000404568
:1006F000DCD13A484168A160021D0221201D02F0B0
:10070000E3FA7088C0F3C000002821D046F23F0809
:10071000002241463846FFF7A9FF2078002803D180
:10072000B6F900004045F8D0B07F001D052190FBD0
:10073000F1F101EB8101401A05EB400030F81E0C8D
:1007400048F21011884203D13846BDE8F04151E02B
:10075000BDE8F08170B505461F4C0020606046F290
:100760006406024631462846FFF780FF15E094ED07
:10077000010AF7EE000A30EE200A84ED010AD4EDFA
:10078000030AF8EE600AB4EE600AF1EE10FA04DB38
:1007900012481349016001F0AFFD2078002807D10D
:1007A0000C48294600EB811030F93E0CB042DED1F6
:1007B0000A484168A160021D0221201DBDE8704069
:1007C00002F082BA00000000F4070020006400403C
:1007D0004C10024000000020140300203C020020C6
:1007E0000000A040580100205D8940F50F22493FDC
:1007F0000000404010B504468021FFF7F0FD204680
:10080000BDE8104044E700002DE9F0472DED108BC6
:100810008CB0DFF8D86B96ED188BD6E90C0153EC51
:10082000182B02F04FFBCDE90A01D6E90E2351EC5B
:10083000180B02F089FACDE90801D6E9100153EC52
:10084000182B02F03FFBCDE90601D6E9122351EC4B
:10085000180B02F079FACDE904010121DFF8500C00
:1008600001F092FFDFF84C1C0870DFF84C7C012887
:100870000DD10020014607F11A0202E08301D15296
:10088000401C0428FADB0846B07000F00FBDB078B9
:10089000002804D102F088FBF0800120B0703846B7
:1008A00090ED240B8DED020B97ED048B53EC182B80
:1008B000DDE9020102F048FA41EC1A0B86ED14ABB7
:1008C000DFF8F80B90ED100B8DED000B97ED149BFE
:1008D00053EC192BDDE9000102F036FA41EC1B0B59
:1008E00086ED16BBF078422800F049824C2800F0D3
:1008F0002381522840F0768400200146C6E9060193
:10090000C6E90A01DDE90201DDE90A2302F052FB32
:1009100004D800200146C6E908018CE0707801285F
:1009200005D0C0F0888003285AD02DD383E053EC43
:100930001A2BDFF88C0BDFF88C1B01F0CBFF53EC8C
:100940001A2B01F0C7FF04460D4653EC1A2BDFF8B3
:10095000780BDFF8781B01F0BDFF22462B4602F032
:10096000F3F9DFF86C2BDFF86C3B02F0EDF953EC98
:100970001A2B01F0AFFFDFF8602BDFF8603B01F0CE
:10098000A9FFC6E9080156E053EC1A2BDFF8500B1B
:10099000DFF8501B01F09EFF53EC1A2B01F09AFF79
:1009A00004460D4653EC1A2BDFF83C0BDFF83C1BDA
:1009B00001F090FF22462B4602F0C6F90022DFF834
:1009C000303B02F0C1F953EC1A2B01F083FFDFF842
:1009D000082BDFF8083B01F07DFFC6E908012AE09B
:1009E00053EC1A2B0020DFF80C1B01F073FF53ECC3
:1009F0001A2B01F06FFF04460D4653EC1A2B4FF0F3
:100A00006630DFF8F41A01F065FF22462B4602F04B
:100A10009BF9DFF8E82ADFF8E83A02F095F953ECA1
:100A20001A2B01F057FFDFF8B02ADFF8B03A01F0D7
:100A300051FFC6E9080151EC180BDDE9062302F06D
:100A4000B9FA04D800200146C6E9040161E096ED38
:100A5000089B9FEDA9AB3078012853EC182B2CD1C3
:100A6000DFF8A00ADFF8A01A01F034FF53EC182BCE
:100A700001F030FF04460D4653EC182BDFF88C0ACA
:100A8000DFF88C1A01F026FF22462B4602F05CF9B3
:100A9000DFF8802ADFF8803A02F056F953EC182B81
:100AA00001F018FF53EC1A2B01F014FF53EC192B33
:100AB00002F04AF9C6E904012BE0DFF8600ADFF82A
:100AC000601A01F007FF53EC182B01F003FF0446F6
:100AD0000D4653EC182BDFF84C0ADFF84C1A01F0E6
:100AE000F9FE22462B4602F02FF9DFF8402ADFF804
:100AF000403A02F029F953EC182B01F0EBFE53ECCD
:100B00001A2B01F0E7FE53EC192B02F01DF9C6E990
:100B10000401DFF8204AD6E90823D4E9040101F0F2
:100B2000D9FEC6E90801D6E90423D4E9000101F0A1
:100B3000D1FEC6E904015FE300200146C6E90401D5
:100B4000C6E90801DDE90801DDE9002302F032FA17
:100B500004D800200146C6E90A018CE0707801281B
:100B600005D0C0F0888003285AD02DD383E053EC01
:100B70001B2BDFF84C09DFF84C1901F0ABFE53ECEE
:100B80001B2B01F0A7FE04460D4653EC1B2BDFF890
:100B90003809DFF8381901F09DFE22462B4602F095
:100BA000D3F8DFF82C29DFF82C3902F0CDF853EC1C
:100BB0001B2B01F08FFEDFF82029DFF8203901F030
:100BC00089FEC6E90A0156E053EC1B2BDFF8100939
:100BD000DFF8101901F07EFE53EC1B2B01F07AFEBA
:100BE00004460D4653EC1B2BDFF8FC08DFF8FC181D
:100BF00001F070FE22462B4602F0A6F80022DFF834
:100C0000F03802F0A1F853EC1B2B01F063FEDFF883
:100C1000C828DFF8C83801F05DFEC6E90A012AE0FD
:100C200053EC1B2B0020DFF8CC1801F053FE53ECE3
:100C30001B2B01F04FFE04460D4653EC1B2B4FF0CF
:100C40006630DFF8B41801F045FE22462B4602F06C
:100C50007BF8DFF8A828DFF8A83802F075F853EC25
:100C60001B2B01F037FEDFF87028DFF8703801F039
:100C700031FEC6E90A01DDE9040153EC192B02F04B
:100C800099F904D800200146C6E9060164E096ED12
:100C90000AAB9FED198B3078012831D1DFF8640859
:100CA000DFF8641801F016FE53EC192B01F012FE68
:100CB00004460D4653EC192BDFF85008DFF85018A6
:100CC00001F008FE22462B4602F03EF8DFF84428E9
:100CD000DFF8443802F038F853EC192B01F0FAFD34
:100CE00053EC182B01F0F6FD53EC1A2B02F02CF804
:100CF000C6E9060130E000BF3D7E6FD39F2D304036
:100D0000DFF81808DFF8181801F0E4FD53EC192B90
:100D100001F0E0FD04460D4653EC192BDFF8040802
:100D2000DFF8041801F0D6FD22462B4602F00CF83D
:100D3000DFF8F827DFF8F83702F006F853EC192B44
:100D400001F0C8FD53EC182B01F0C4FD53EC1A2B35
:100D500001F0FAFFC6E90601DFF8D847D6E90A2311
:100D6000D4E9060101F0B6FDC6E90A01D6E9062379
:100D7000D4E9020101F0AEFDC6E906013CE270785B
:100D8000012806D0C0F0F780032800F0A48051D3DA
:100D9000F1E09FEDDACB9FEDDBDB9FEDDCEB9FED30
:100DA000DDFB53EC1A2B51EC1E0B01F093FD53ECC1
:100DB0001A2B01F08FFD04460D4653EC1A2B51EC13
:100DC0001D0B01F087FD22462B4601F0BDFF53ECC1
:100DD0001C2B01F0B9FF53EC1A2B01F07BFD53ECF7
:100DE0001F2B01F077FDC6E9080153EC1B2B51ECDA
:100DF0001E0B01F06FFD53EC1B2B01F06BFD044645
:100E00000D4653EC1B2B51EC1D0B01F063FD2246EC
:100E10002B4601F099FF53EC1C2B01F095FF53EC8E
:100E20001B2B01F057FD53EC1F2B01F053FDC6E9BE
:100E30000A01A0E09FEDB9CB9FEDBADB9FEDBBEBC4
:100E40009FEDB4FB53EC1A2B51EC1E0B01F042FD4D
:100E500053EC1A2B01F03EFD04460D4653EC1A2BC1
:100E600051EC1D0B01F036FD22462B4601F06CFFC4
:100E700053EC1C2B01F068FF53EC1A2B01F02AFDF8
:100E800053EC1F2B01F026FDC6E9080153EC1B2B88
:100E900051EC1E0B01F01EFD53EC1B2B01F01AFD53
:100EA00004460D4653EC1B2B51EC1D0B01F012FDBB
:100EB00022462B4601F048FF53EC1C2B01F044FF67
:100EC00053EC1B2B01F006FD53EC1F2B01F002FD30
:100ED000C6E90A014FE09FED8FCB9FED96DB9FEDBA
:100EE00097EB9FED98FB53EC1A2B51EC1F0B01F085
:100EF000F1FC53EC1A2B01F0EDFC04460D4653ECCB
:100F00001A2B51EC1E0B01F0E5FC22462B4601F09A
:100F10001BFF53EC1D2B01F017FF53EC1A2B01F0B4
:100F2000D9FC53EC1C2B01F0D5FCC6E9080153ECAD
:100F30001B2B51EC1F0B01F0CDFC53EC1B2B01F0D4
:100F4000C9FC04460D4653EC1B2B51EC1E0B01F063
:100F5000C1FC22462B4601F0F7FE53EC1D2B01F09D
:100F6000F3FE53EC1B2B01F0B5FC53EC1C2B01F0F2
:100F7000B1FCC6E90A013078012802D0022859D014
:100F8000B0E09FEDD3AB9FEDD4BB9FEDD6DB9FEDE3
:100F9000D7CB53EC182B51EC1D0B01F09BFC53EC01
:100FA000182B01F097FC04460D4653EC182B51EC1E
:100FB0001B0B01F08FFC22462B4601F0C5FE53ECC3
:100FC0001A2B01F0C1FE53EC182B01F083FC53ECFB
:100FD0001C2B01F07FFCD6E9082301F0B5FEC6E921
:100FE000040153EC192B51EC1D0B01F073FC53EC75
:100FF000192B01F06FFC04460D4653EC192B51ECF4
:101000001B0B01F067FC22462B4601F09DFE53ECC2
:101010001A2B01F099FE53EC192B01F05BFC53ECF9
:101020001C2B01F057FCD6E90A2301F08DFEC6E91E
:10103000060157E09FEDADAB9FED9FBB9FEDA0CBB1
:101040009FEDA1DB53EC182B51EC1D0B01F042FC82
:1010500053EC182B01F03EFC04460D4653EC182BC4
:1010600051EC1C0B01F036FC22462B4601F06CFEC5
:1010700053EC1B2B01F068FE53EC182B01F02AFCFB
:1010800053EC1A2B01F026FCD6E9082301F05CFE94
:10109000C6E9040153EC192B51EC1D0B01F01AFCAD
:1010A00053EC192B01F016FC04460D4653EC192B9A
:1010B00051EC1C0B01F00EFC22462B4601F044FEC5
:1010C00053EC1B2B01F040FE53EC192B01F002FCFA
:1010D00053EC1A2B01F0FEFBD6E90A2301F034FE93
:1010E000C6E90601DDE90201DDE90A2301F062FF3C
:1010F0002CD800200146C6E9080131E0105839B467
:10110000C85A7AC0B81E85EB51C066C08716D9CEC2
:10111000F70B5A4075931804564E20C0000000008B
:1011200000587BC0EC51B81E855360C03D0AD7A360
:1011300070B5544096B20C71AC7D77C06666666639
:1011400066065EC00000000000805140D6E908231A
:10115000DFF8E003D0E9040101F0BCFBC6E90801B7
:1011600051EC180BDDE9062301F024FF04D8002020
:101170000146C6E9040109E0D6E90423DFF8B40317
:10118000D0E9000101F0A6FBC6E90401DDE9080190
:10119000DDE9002301F00EFF04D800200146C6E976
:1011A0000A0109E0D6E90A23DFF88803D0E906013D
:1011B00001F090FBC6E90A01DDE9040153EC192BAB
:1011C00001F0F8FE04D800200146C6E9060113E04C
:1011D000D6E90623D748D0E9020101F07BFBC6E936
:1011E000060109E000200146C6E90401C6E906013E
:1011F000C6E90801C6E90A01B07800282ED001F03E
:10120000D3FEF188401A3081B6F804A0B6F80890F1
:10121000D14523D24FF000081DE0484601F0E4FE1E
:1012200006F1100202EBC802D2E9002301F052FBE2
:1012300004460D46504601F0D7FE02460B462046B6
:10124000294601F01DFC06F1100202EBC802C2E9BA
:10125000000108F10108B8F1040FDEDB002423E0EF
:1012600006F1100000EBC400D0E900011C4A02EBBB
:10127000C402D2E9002301F003FCAF4AD2E9002303
:1012800001F0FEFB0022AD4B01F024FBAC4A02EB67
:10129000C402D2E9002301F01DFB01F0B3FE07F107
:1012A0001A01A2018852641C042CD9DB0CB0BDECDD
:1012B000108BBDE8F0870000F6285C8FC29180405B
:1012C0005C8FC2F5287C42402D431CEBE20E52C0DD
:1012D0008D0B0742B2E182407233DC80CF6F1B403E
:1012E000500200207008556AF66651C03D7E6FD3EB
:1012F0009F2D30402DE9F8432DED028B01216C48E4
:1013000001F042FA6B4908706B4C04F1C8058D4E30
:101310008D4F01280CD1787801281CD02868706086
:101320003878401E8041C00F38700120787012E07C
:101330007870D6F80480386901F07FFE397800298A
:1013400004D038618044C6F8048004E0404238612B
:101350008044C6F80480B878002829D097ED028B25
:10136000D4E9140153EC182B01F024FE1CD8F878B2
:1013700000282DD051EC180B744AD2E9022301F059
:10138000A9FA734A734B01F0A5FA80468946E06ECC
:1013900001F08EFA42464B4601F0D6FC01F032FED7
:1013A00030600020F87013E030681E3030600FE0CD
:1013B000E16E3068814207DBF878002808D0643994
:1013C00031600020F87003E01E3830600120F870B2
:1013D000686A64387168884200DA70603068E06575
:1013E00070686861BDEC028BBDE8F183700100207C
:1013F0001CB5012451E02046C0B2FFF749F90A208C
:101400000090002346F2600201212046C0B2FEF7A0
:1014100076FF0020009003464FF4B0520121204691
:10142000C0B2FEF76CFF4C48009001234FF4B0525D
:1014300004212046C0B2FEF762FF01200090002385
:101440004FF4B05201462046C0B2FEF758FF0020CC
:101450000090034642F2010201212046C0B2FEF78D
:101460004EFF4FF47A60009000234FF4C1420421F4
:101470002046C0B2FEF743FF4AF2BC40009005236D
:1014800043F2010204212046C0B2FEF738FF0021DA
:101490002046C0B2FEF7A3FF641C052CABDB0A207C
:1014A00001F0D0FD8020BDE81640FEF783BF0000AC
:1014B00000040048FE0100200000002090000020F1
:1014C0008716D9CEF70B5A40B81E85EB51C066C0BF
:1014D000105839B4C85A7AC075931804564E20C0B3
:1014E0003D0AD7A370B55440EC51B81E855360C077
:1014F00000587BC00080514066065EC096B20C71F9
:10150000AC7D77C07008556AF66651C07233DC80D6
:10151000CF6F1B408D0B0742B2E182402D431CEB85
:10152000E20E52C05C8FC2F5287C4240F6285C8FE8
:10153000C2918040100200204802002000408F40ED
:1015400070020020C0080020D801002050020020B6
:101550006744696F305F94401000716070B504009B
:1015600001D1012070BD04F15C052878002804D168
:10157000002068702046FEF76DFE2068816921F02A
:101580001001816101F010FD06462068816909079C
:101590000CD501F009FD801B0B28F6D3686840F0DC
:1015A0000100686003202870012070BD816941F04E
:1015B0000101816101F0F8FC064620688169C907D4
:1015C0000CD401F0F1FC801B0B28F6D3686840F0C6
:1015D0000100686003202870012070BD816941F01E
:1015E0000201816120684949884202D16068484906
:1015F00008602068217C0129816903D121F0400124
:10160000816102E041F0400181612068617C012933
:10161000816903D141F48041816102E021F480417C
:1016200081612068A17C0129816903D121F4805165
:10163000816102E041F48051816121688A6922F46C
:101640004072A06802438A612068816921F0A40188
:1016500081612068016921F010010161E0680128C1
:1016600005D12068816941F00401816119E00028F9
:1016700017D021680228886910D040F08000886166
:101680002068016941F010010161E068032808D178
:101690002068816941F02001816102E040F0200072
:1016A0008861A069401EE169491E090241EA406162
:1016B000206A401E01436069401E41EA00412068E3
:1016C000C161A068B0F5407F0FD1A06A401EE16AF9
:1016D000491E40EA0120216B491E40EA0110616A5F
:1016E000491E40EA01402168C8602168D1F8C02045
:1016F000E06B0243C1F8C020204600F03FFA002012
:10170000A065686001202870002070BD0064004062
:101710000065004070B400F15C021378012B01D029
:10172000022B1CD18A6892074B684C690D69CE6800
:101730000968002909D142EAC66242EA0542224309
:10174000006C00EB8300026007E02243406C00EB7A
:10175000C30045EA467505604260002004E0506819
:1017600040F002005060012070BC704700F15C0145
:101770000A78012A09D102220A7000688269520897
:1017800052008261002048607047486840F00400C1
:1017900048600120704738B5044604F15C000378C6
:1017A000022B1BD12368D3F8C450AD0205D5416884
:1017B00041F400714160012032BDD3F8C400C0F390
:1017C00001452B46204600F013FA012000FA05F5EA
:1017D0002068C0F8CC50A565002032BD416841F0BA
:1017E00008014160012032BDF0B400F15C042578AD
:1017F000022D6DD105689035402912D12E6816F062
:101800000F0F05D1606840F480706060012064E0D3
:101810002C68C4F30125866C05EBC50406EBC406F1
:1018200011E0AE6816F00F0F05D1606840F48070CB
:101830006060012051E0AC68C4F30125C66C05EB83
:10184000C50406EBC406346814F08044546037685D
:1018500003D1C7F38A44146002E027F060471760A1
:10186000346804F00054946056F8044B04F00044CB
:1018700014613468A4B2D461346804F47024D46070
:10188000346804F480145461346804F400149461DE
:101890003468C4F30664146256F8044BE40F5462CF
:1018A000002402E0375D1F55641C0FF2B437D2F8F4
:1018B0000CC04FEA1C4C17F80C70BC42F2D3006805
:1018C0009430402901D1056000E08560002004E0EB
:1018D000606840F0080060600120F0BC704700685C
:1018E0009030402903D1006800F00F0070478068F5
:1018F00000F00F0070470068D0F8C40000F0070047
:10190000704730B400F15C031C78012C01D0022C2C
:1019100066D10468A36D11F0070F01D0DD071DD556
:1019200011F0380F01D09D0718D511F4E07F01D0D8
:101930005D0713D511F4F05F01D01D070ED511F42A
:10194000604F01D0DD0609D511F4403F01D09D065E
:1019500004D511F47C0F05D05D0603D4E56D45F088
:101960000105E56511F0070F01D0DC071DD411F06A
:10197000380F01D09C0718D411F4E07F01D05C0728
:1019800013D411F4F05F01D01C070ED411F4604F92
:1019900001D0DC0609D411F4403F01D09C0604D4E8
:1019A00011F47C0F06D05B0604D50368DC6D44F0AF
:1019B0000204DC650B0605D50368D3F8DC4014434C
:1019C000C3F8DC40CB0505D50368D3F8E0402243DB
:1019D000C3F8E0200068426D11434165002004E037
:1019E000586840F002005860012030BC70472DE973
:1019F000F8438146D9F800100C6D04F4E054486DAA
:101A000004400D6D05F00705486D05400E6D06F0AC
:101A10003806486D0640D1F8508008F47108486DCA
:101A200000EA08080F6D07F46027486D0740086D4D
:101A3000400607D5486D400604D540200865484655
:101A400001F014FBD9F80020106DC0050DD5506DC4
:101A5000C0050AD502F1D8000168806801404FF442
:101A600080701065484601F002FB002C06D0D9F8C2
:101A7000000004652146484601F0FAFA002D06D020
:101A8000D9F8000005652946484600F0CEFA002E38
:101A900006D0D9F8000006653146484601F0E9FA5B
:101AA000D9F80000016D890508D5416D890505D576
:101AB0004FF400710165484600F0B2FAD9F80020F1
:101AC000106D00060CD5506D000609D502F1D4004A
:101AD00001688068014080201065484601F0CAFA1C
:101AE000D9F80000016D890408D5416D890405D538
:101AF0004FF400510165484601F0BDFAD9F80000E5
:101B0000016D090408D5416D090405D54FF4004164
:101B10000165484601F0B0FAD9F80000016D4904AA
:101B20000BD5416D490408D54FF480410165D9F8C2
:101B3000600040F08000C9F86000002F06D0D9F89E
:101B4000000007653946484601F097FAB8F1000FE2
:101B500009D0D9F80000C0F85080D9F8600048EAF0
:101B60000008C9F86080D9F86000002804D0484611
:101B7000BDE8F24301F082BABDE8F18310B4154923
:101B800001640268D2F8803023F4F813446B43EA0E
:101B90000443C2F88030104A42640268D2F88030B0
:101BA00023F07063846B43EA0463C2F880300B4A0D
:101BB00082640B4AC2640B4A02650B4A426502E02A
:101BC00000200860091D09488142F9D310BC704704
:101BD0000000000000A4004070A40040B0A4004039
:101BE00088A5004060A6004078A6004050A70040AD
:101BF00070B40D698C6825430E684C68002C02D1C6
:101C000045EA864502E0354345F080450C6ACE69D9
:101C100046EA04668C6926434C692643CC68264311
:101C2000406D03EBC30400EBC40005604660083060
:101C300000230DE0D418E578A678360446EA056658
:101C4000657846EA05262478264340F8046B1B1D78
:101C500003A4CD682D0C645DA342EBD370BC704728
:101C60000001020304050607080C10141820304078
:101C700080B501F005FA00F00FF801F01DFA01F04F
:101C80004FFAFEF7A9FA01F083FA01F05BFB00F0CE
:101C90003EF800F01EF9FCE700B593B000223821B1
:101CA00005A800F055FB00221421684600F050FB07
:101CB000002001F017FC012005904FF480300690C1
:101CC00002200C9003200D9006200E9055200F90BE
:101CD000022010901190129005A801F07BFC0028C2
:101CE00001D000F009FB0F2000900320019000209C
:101CF0000290039004900421684601F057FE0028EA
:101D000001D000F0F9FA01F06FFF13B000BD10B57B
:101D100072B6DFF810462046D4F8A81088474FF472
:101D200080722169206802F03CF8002801D000F0A0
:101D3000E3FADFF8F4452068FFF718FD002801D02A
:101D400000F0DAFA0022A16E2068FFF7DAFD002821
:101D500001D000F0D1FA07224FF42071DFF8CC0552
:101D6000FFF7CFFD002801D000F0C6FA0020A060E8
:101D7000E0604FF40020206100206061A061E0611C
:101D80002062606262B6FFF733FB00200CE0DFF8F0
:101D9000A01501EB80118988402904D0DFF8941543
:101DA000DFF89425CA64401C0428F0DB0121DFF829
:101DB0008C0500F0E9FCDFF87C15887310BD70B568
:101DC000DFF86C55B5F8C400400A00F08180DFF8F8
:101DD0006445A07C01287BD1606D401C60650528AE
:101DE00004DBFEF7DFFB0020606570BD607D04282A
:101DF0006ED1207D062865D1207B002851D0DFF8E8
:101E00004065D5E90423D6E9020100F09DFFC5E94C
:101E10000401D5E91401D6E9082301F053F8C5E916
:101E20001401D6E9000102F03BFD00EE100A02F0B9
:101E30006BFDB1EE400A10EE100A02F0ADFDC4E9F0
:101E40000801D6E9000102F02BFD00EE100A02F0B5
:101E50005BFDB1EE400A10EE100A02F09DFDC4E9F0
:101E60000C01D6E9060102F01BFD00EE100A02F09B
:101E70004BFDB1EE400A10EE100A02F08DFDC4E9F0
:101E80000A01D6E9060102F00BFD00EE100A02F08D
:101E90003BFDB1EE400A10EE100A02F07DFDC4E9F0
:101EA0000E01FEF7B1FCFFF725FA012504E02846F4
:101EB000C0B2FEF75CFA6D1C052DF8DB00206075E2
:101EC000207570BD4FF07E50E06400206075207575
:101ED00070BD38B5DFF85C4401F066F86064DFF887
:101EE00044542846D5F8AC1088476078002806D0BE
:101EF000A07CE96808700221284602F071FDE078B4
:101F0000002806D0A07CFEF755FA0020E0700120E2
:101F10006071207900280DD0012505E0E17C28467C
:101F2000C0B2FEF75CFA6D1C052DF7DB00202071B6
:101F300001206071A07800280BD0012505E00B215D
:101F40002846C0B2FEF74BFA6D1C052DF7DB0020CA
:101F5000A070E07900280AD0012504E02846C0B22C
:101F6000FEF7F8FB6D1C052DF8DB0020E071207AF0
:101F700000280CD0012504E02846C0B2FEF73AFC48
:101F80006D1C052DF8DB0020207201206071A07906
:101F9000002811D001250BE02846C0B2FEF7DAFB7D
:101FA000DFF88C0300EB85103838016841626D1C46
:101FB000052DF1DB0020A071607A002808D0228B6B
:101FC000D2B2B4F94010207CFEF750FB00206072C2
:101FD000A07A00280BD0A06C0090238BDBB2B4F960
:101FE0004020617C207CFEF78AF90020A072607995
:101FF00000280AD0012504E02846C0B2FEF748FBBD
:102000006D1C052DF8DB00206071E07A002801D0FE
:1020100000F065F800F0C8FF616C401AE07331BD54
:10202000C8480178491C0170704770B50268136D8B
:102030005B0701D504231365BB4D2C68006822683B
:1020400090424AD1A86E014247D0BA4E05F15803DA
:1020500005F13002696E2046FFF7C6FB002805D067
:102060004FF08040F06400F047F926E0286B00F064
:102070007F01491E317000F4F060F082B0F5C07F3E
:1020800009D0B0F5B06F18D1C9B2A94800EB8110E2
:10209000426B904711E0707D401C7075307D0818D0
:1020A0003075C9B2A24800EB8110826B90470128BD
:1020B00003D00120B0708020B07440219B48FFF70E
:1020C0000EFC022809D305F1580305F13002696EB0
:1020D0002868FFF789FB0028F5D170BD6FE670B561
:1020E0002DED0E8B82B0984C04F18005974E0120A7
:1020F000019000950346A289A221304602F057FDC7
:10210000002801D000F0F8F8304602F0CCFE20287C
:10211000FAD1304602F0CAFE0428E8D0012000F0CF
:1021200091FF0620019000940123A289A22130464C
:1021300002F0D8FD002801D000F0DEF8304602F0B1
:10214000B2FE2028FAD1304602F0B0FE0428E8D0D2
:10215000012000F077FF0120019000950346A2893D
:10216000A621304602F023FD002801D000F0C4F87B
:10217000304602F098FE2028FAD1304602F096FE52
:102180000428E8D0012000F05DFF06200190A01D8A
:1021900000900123A289A621304602F0A3FD002869
:1021A00001D000F0A9F8304602F07DFE2028FAD1D7
:1021B000304602F07BFE0428E7D02078617840EAC0
:1021C000012000B200F074FB41EC180B94ED1C9B55
:1021D00053EC182B51EC190B00F07CFBC4E9040103
:1021E000A078E17840EA012000B200F061FB41EC08
:1021F0001A0B53EC1A2B51EC190B00F06BFBC4E9D2
:1022000006012079617940EA012000B200F050FB1C
:1022100041EC1B0B53EC1B2B51EC190B00F05AFB40
:10222000C4E90801A079E17940EA012000B200F098
:102230003FFB41EC1C0B53EC1C2B51EC190B00F039
:1022400049FBC4E90A01207A617A40EA012000B220
:1022500000F02EFB41EC1D0B53EC1D2B51EC190B28
:1022600000F038FBC4E90C01A07AE17A40EA0120D1
:1022700000B200F01DFB41EC1E0B53EC1E2B51EC89
:10228000190B00F027FBC4E90E0194ED1E9B2C4CAA
:1022900053EC182B51EC190B00F01CFBC4E90001A6
:1022A00053EC1A2B51EC190B00F014FBC4E902019A
:1022B00053EC1B2B51EC190B00F00CFBC4E904018F
:1022C00053EC1C2B51EC190B00F004FBC4E9060184
:1022D00053EC1D2B51EC190B00F0FCFAC4E908017A
:1022E00053EC1E2B51EC190B00F0F4FAC4E90A016F
:1022F00002B0BDEC0E8B70BD38B50E4C0120607382
:102300008020A0740620E074012505E0E17C2846C9
:10231000C0B2FEF764F86D1C052DF7DB72B6FEE760
:10232000000000008403002000010020F4070020CA
:1023300000000020F00100200000C0400004004820
:1023400060080020C8080020900200202803002018
:1023500062F30F2262F31F4200B500BF13009646DE
:102360009446103928BFA0E80C50FAD85FEA417CA7
:1023700028BF0CC048BF40F8042BC90728BF20F86D
:10238000022B48BF00F8012B00BD00002DE9FC47DF
:10239000054600242646DFF850722868000369D5F8
:1023A000A046F86CC0000AD4F86C40F08050F86485
:1023B000F86C00F08050009000984FF00108DFF8B2
:1023C0002C92D9F8000040F48070C9F8000000F0A9
:1023D000EBFD8246D9F80000C00506D400F0E4FD0C
:1023E000A0EB0A000328F5D3032420003AD1DFF83C
:1023F0000092D9F8000010F4407014D0296C884283
:1024000011D0D9F8000020F44070D9F8001041F440
:102410008031C9F80010D9F8001021F48031C9F8D2
:102420000010C9F80000C0070FD500F0BDFD8246BE
:10243000D9F80000800708D400F0B6FDA0EB0A0030
:1024400041F289318842F3D30324200008D1D9F81E
:10245000001021F44071286C0143C9F8001002E01B
:10246000264600E02646B8F1010F03D1F86C20F0B3
:102470008050F8642878C00705D5F96F8908686826
:1024800050EA8101F9672878800705D5F96F21F0B6
:102490000C01A8680143F9672878400705D5F96F52
:1024A00021F03001E8680143F9672878000705D575
:1024B000F96F21F0C00128690143F9672878800687
:1024C00005D5F96F21F4406168690143F9672878FF
:1024D000400605D5F96F21F44051A8690143F96719
:1024E0002878000605D5F96F21F44041E8690143D9
:1024F000F9672868C00505D5F96F21F44031286ACD
:102500000143F9672868800505D5F96F21F440215A
:10251000686A0143F967286840050DD5F96F21F411
:102520004011A86A0143F967A86AB0F5801F03D17A
:10253000386840F480103860286800050DD5F96FC0
:1025400021F44001E86A0143F967E86AB0F5800FB9
:1025500003D1386840F4801038602868C0040DD575
:10256000F96F21F04071286B0143F967286BB0F1D6
:10257000807F03D1386840F4801038602868800478
:102580000DD5F96F21F04061686B0143F967686B05
:10259000B0F1006F03D1386840F4801038602868CB
:1025A00040040DD5F96F21F04061A86B0143F96734
:1025B000A86BB0F1006F03D1386840F48010386028
:1025C000286800040DD5F96F21F04051E86B0143F4
:1025D000F967E86BB0F1805F03D1386840F4803070
:1025E00038603046BDE8F6870C10024000700040AD
:1025F00090100240F8B502460B4600242DE04FF043
:10260000060C05E0DFF890C16245F8D14FF0050CEB
:102610000CFA06FC4CEA070C45F821C05F498E68AD
:10262000C5432E405F68FF0200D506438E60CE682A
:102630002E405F68BF0200D50643CE604E682E4034
:102640005F68BF0300D506434E600E682E405D688C
:10265000ED0300D506430E60641C18680146E14096
:1026600000F091800127A7403840F5D06100032594
:102670008D40ED435E6806F0030CBCF1010F03D002
:1026800006F00306022E10D196682E40D3F80CC037
:102690000CFA01FC4CEA060696605668BE435F6879
:1026A000C7F30017A7403E4356601E7906F00306A5
:1026B000032E05D0D6682E409F688F403E43D660DB
:1026C0001E7906F00306022E15D12646F60802EB07
:1026D00086073E6A4FEA840C0CF01C0C4FF00F0E7C
:1026E0000EFA0CFE26EA0E06D3F810E00EFA0CFCE9
:1026F0004CEA06063E6216682E401D7905F0030579
:1027000005FA01F10E431660596811F4403FA3D059
:1027100023490D6845F001050D60096801F00101CC
:1027200000910099214689081E4D55F82170A60098
:1027300006F00C064FF00F0C0CFA06FC27EA0C070B
:10274000B2F1904F02D14FF0000C61E7DFF858C0B2
:10275000624502D14FF0010C5AE7DFF850C06245E4
:1027600002D14FF0020C53E7DFF844C0624502D1BA
:102770004FF0030C4CE7DFF83CC062457FF442AFFA
:102780004FF0040C44E7F1BD006901400846401ECB
:102790008041C043C00F704700140048000401404E
:1027A0006010024008000140000400480008004892
:1027B000000C004800100048374A13684FF6FF012C
:1027C0000B40000200F4E0601843344908431060F5
:1027D000704731480068C0F302207047010007D4F9
:1027E000012200F01F018A402D49400941F82020B4
:1027F00070470901020002D42A48815470472A48D0
:1028000002F00F02104400F8041C704710B400F0EE
:102810000700C0F10703052B00D30423041D072C78
:1028200001D2002000E0C01E012404FA03F35B1E65
:102830001940814004FA00F0401E1040084310BCCB
:10284000704738B50446641EB4F1807F0AD2174D34
:102850006C600F214FF0FF30FFF7CBFF0020A86026
:1028600007202860B4F1807F8041C043C00F32BD93
:10287000A2E770B504460D461646FFF7AAFF32469A
:102880002946FFF7C3FF01462046BDE87040B0E788
:10289000A4E7D6E7FFF722BC0CED00E00000FA0544
:1028A00000E100E000E400E018ED00E010E000E0EE
:1028B00010F0004160B148BF4042B0FA80F2904051
:1028C000D21CC2F5846241EA025202EBD0214005DB
:1028D0007047000030B540F2FF7C1CEA11541DBF68
:1028E0001CEA1355644565453FE0641981EA030C11
:1028F0006FF35F530CF0004C43F48013C90241F0B6
:10290000004141EA505EC5021100A5FB0202002809
:102910004FF00000EEFB01204FF00001E3FB05212A
:1029200018BF42F00102401800214941E3FB0E01AB
:10293000A4F580640D0302D292184041494154F13C
:10294000010470DD450872F1004250F1000051EBC6
:102950000451A1F5801102D441EA0C0130BD40F2CE
:10296000FF7E4CEA0E51002030BD0CEA1355644541
:1029700018BF654581EA030C0CF0004C41D050EAC9
:10298000410E1CBF52EA430E02E06146002030BDFA
:1029900024422C441BD15FEA050EF6D0090302BF86
:1029A00001460020AEF1140EB1FA81F5AEEB05043C
:1029B00001FA05FE0C35C5F1200100FA05F5C84005
:1029C0004EEA000E6FF35F5343F480139CE733F03D
:1029D0000043B3FA83F504BFB2FA82FE75440B3D9F
:1029E000641BB5F1200E2FBF02FA0EF3AB40C5F108
:1029F000200E22FA0EFE38BF43EA0E03AA40641CE2
:102A00007CE750EA410E14BF52EA430E6FF000011A
:102A10004FF4001515EB430F8EBF194615EB410F10
:102A20009DE7B4D830BDD4F10104B4F120050FDA2C
:102A3000C4F12005520828BF42F0010210FA05FE39
:102A400001FA05F57244E2BFE0402843E1400FE09F
:102A5000352C9ADCC5F1200452EA400220FA05F236
:102A600018BF42F0010231FA05F0A1400A430021EB
:102A700072F1004250F1000051EB0C0130BD00003A
:102A8000F0B540F2FF7581EA030C0CF0004C15EA3A
:102A900011541DBF15EA1357AC42AF42E5E0BC41EB
:102AA000C1F31301C3F31303801A994143F4801354
:102AB00004D2641E0018494180185941C90241EAF4
:102AC0005051B1FBF3F603FB1611A2FB0675D7EBD1
:102AD000C020A94102D2761E80185941C90241EA9C
:102AE0005051B1FBF3FE03FB1E11A2FB0E75D7EB99
:102AF000C020A94103D2AEF1010E801859418902CC
:102B000041EA9051760546EA8E2EB1FBF3F603FBBF
:102B10001611A2FB0675D7EB8020A94102D2761EC2
:102B200080185941C90241EA50514EEA060EB1FBE4
:102B3000F3F603FB1611A2FB0675D7EBC020A941E3
:102B400002D2761E80185941C90241EA5051B1FBA8
:102B5000F3F703FB1711A2FB0735D3EBC020A94104
:102B600067F100070CBF004247F0010766F3D52765
:102B70004FEA1E31B80814F5806412DDBD0775F107
:102B8000004250EB0E5051EB045111F5801F5CBF19
:102B900041EA0C01F0BD4CF07F6141F0E0410020C2
:102BA000F0BDBD076D0840EA0E5041F48011D4F12C
:102BB0000104B4F120060ADAC4F120060200E04064
:102BC00001FA06F3E1401843B24015430EE0342CFD
:102BD00013DCC6F1200445EA40056D0820FA06F230
:102BE000154321FA06F0A1400D43002175F1004282
:102BF00050F1000051EB0C01F0BD00205FEA0C0128
:102C0000F0BDCFB992185B41B3FA83F704BFB2FAB3
:102C100082F6BF190B3FB7F120062FBF02FA06F369
:102C2000BB40C7F1200622FA06F638BF3343BA404C
:102C30001CB1E419641E33E77F4231F00041B1FA60
:102C400081F404BFB0FA80F6A4190B3CB4F120065D
:102C50002FBF00FA06F1A140C4F1200620FA06F6C3
:102C600038BF3143A0403C1B1AE7AC421ABF05EA0B
:102C70001357AF4212E050EA41061CBF52EA430626
:102C8000BFE750EA4107304661461CBF41EA0551A3
:102C9000F0BD52EA430C08BFC143F0BD00204FF421
:102CA000001616EB410F98BF16EB430F08BF16EB4B
:102CB000410F24BFC14305E016EB430F0CBF614633
:102CC0004CEA0551F0BD00009FED1E0AB9B311F0AA
:102CD00003030BD0D0ED000A001DB4EE600AF1EE44
:102CE00010FA48BFB0EE600A5B1EF3D1890826D007
:102CF000D0ED000AB4EE600AF1EE10FA48BFB0EE73
:102D0000600A90ED011AB4EE410AF1EE10FA48BFE4
:102D1000B0EE410AD0ED020AB4EE600AF1EE10FA0C
:102D200048BFB0EE600A90ED031A1030B4EE410ACD
:102D3000F1EE10FA48BFB0EE410A491ED8D182ED3B
:102D4000000A7047FFFF7FFF70B491EA030F4FF056
:102D5000004540F1BF806B40841A71EB030604D23A
:102D60006E40001BB141121973414FF4001C1CEB63
:102D7000410F34BF7CEB430683E00C0DA4EB1356EC
:102D8000362E00F37C80012E45EAC32341DC43EA62
:102D9000525312BFD20292025B08240545EAC121B8
:102DA00041EA5051D2EBC020994125D407D1B0FA65
:102DB00080F610FA06F162D00020203608E0B1FA61
:102DC00081F6B140C6F1200220FA02F21143B04070
:102DD0004FEAF474B4EB465434F001064FEA74043D
:102DE0000AD8D6F50016760D04F00044F04061FADA
:102DF00006F25040F1404840C00A40EA415021F0FC
:102E0000004128BF5FEA500550F1000044EBD1219A
:102E100035E0DB0A45EAC121C90AB6F120050EDD1D
:102E200042EA0242120CC5F1200603FA06F6EB4014
:102E300042EA06056D42984161F100010DE062FA37
:102E400006F5F240554063FA06FC82EA0C02F340B4
:102E50005A406D42904161EB030111F4801F05D18E
:102E6000641E620502D06D004041494121F4801189
:102E7000430875F1004350F1000041EB045170BC70
:102E800070471CEB410F15D223F0004352EA430672
:102E90000BD04FEA4C0CBCEB410F04D80C0D661E56
:102EA000342EB7DDEBE7801A994150EA410608BF9E
:102EB0000021E4E708BF1CEB430F28BF6FF00001BF
:102EC000DDE7000070B491EA030F4FF000457FF595
:102ED00043AF6B40841A71EB030603D2001BB14170
:102EE000121973414FF4001C1CEB410F34BF7CEBF3
:102EF000430442E00C0DA4EB1356352E4FDC45EA9B
:102F0000C323DB0A45EAC121C912B6F120050DDD54
:102F100063FA05F6EB4086EA0305124218BF45F056
:102F20000105C01851F100010CD213E062FA06F558
:102F3000F2405540F3415A40B340F3405A408018A4
:102F4000594107D349085FEA30005FEA350528BFD9
:102F500045F0010501F58011420875F1004250F17C
:102F6000000041EB04514E0016F5001F70BC38BF45
:102F700070470020090D090570471CEB410F10D266
:102F800052EA43060BD0BCEB410F05D80C0DAB4306
:102F9000661E342EB6DD02E0AB438018594170BC8A
:102FA000704770BC7047000001480068704700BF60
:102FB0003404002041EA030C50EA4C0C52EA0C0C99
:102FC0004FF4001C09D307D01CEB410F9CBF1CEB36
:102FD000430F994208BF904270471CEB410FFBD84A
:102FE0008B4208BF8242704750B1B0FA80F18840EE
:102FF000C91CC1F58461090501EBD021400570476A
:1030000001467047C1F30A5340F21E42D31A0CDD49
:10301000CA0283F3070342EA505242F00042DA4008
:1030200002EBE17282EAE17070476FEAE17203F24B
:10303000E13008B182F000407047002848BF4042AC
:103040007047000038B50446FFF7AEFF054614F19F
:10305000010F02D0044880680419FFF7A5FF401B48
:10306000A042FAD331BD00BF34040020704770473E
:10307000704770477047704770477047704700004F
:1030800010B500240B48016821F4806101600168DB
:1030900041F4807101600320FFF7EAFB204602F053
:1030A000A3FD002801D0012401E002F0C5FD204667
:1030B00010BD00000020024080B586B0002214211F
:1030C00001A8FFF745F91448016841F020010160AB
:1030D000016801F0200100910099016841F00101AF
:1030E0000160016801F0010100910099016841F05F
:1030F00002010160006800F00200009000980120C9
:103100000190002002900120039001A90348FFF7DD
:1031100071FA07B000BD00BF4C1002400004004827
:1031200080B51A48016841F004010160016801F0AE
:10313000040100910099016841F0010101600068FB
:1031400000F0010000900098002204210B20FFF7FE
:1031500090FB0B20FFF79CFB002204210C20FFF7C3
:1031600088FB0C20FFF794FB002211460D20FFF78F
:1031700080FB0D20FFF78CFB002211460E20FFF78D
:1031800078FB0E20BDE80240FFF782BB48100240EA
:1031900010B5654C654860606548A0600020E0603F
:1031A0000120206100206061A061E0612062606216
:1031B000201D01F0A3FC002801D0FFF79DF800219D
:1031C000201D02F06BFD002801D0FFF795F80021CB
:1031D000201D02F08DFD002803D0BDE81040FFF750
:1031E0008BB810BD78B597B004460022142168460C
:1031F000FFF7AEF80022442106A8FFF7A9F82068DF
:103200004A49884240F08D804020069000200C9072
:1032100006A8FFF7BBF8002801D0FFF76DF8454D71
:10322000286840F001002860286800F0010005903F
:103230000598286840F002002860286800F0020025
:10324000059005984FF40040009012200190012055
:103250000290002003900420049069464FF09040B3
:10326000FFF7C8F980200090122001900120029001
:10327000002003900420049069462F48FFF7BAF914
:10328000E86840F40010E860E86800F40010059079
:1032900005982A4D2A4E2E60102068600020A860F4
:1032A000E8608020286100206861A861E8614FF42F
:1032B00000502862284602F043FD002801D0FFF7A5
:1032C0001BF8E563AC6206F11400286611206866FD
:1032D0001020A8660020E866802028670020686724
:1032E000A867E867C5F8800005F1600002F028FDD6
:1032F000002801D0FFF700F805F16000A063C5F8D1
:103300008840002211461F20FFF7B3FA1F20FFF765
:10331000BFFA002211462020FFF7ABFA2020FFF76A
:10332000B7FA18B070BD000024030020005400401C
:10333000641F70204C100240000400486405002007
:103340003000024010B5624C624820604FF4E1301A
:1033500060600020A060E06020610C2060614FF49C
:103360004070A0610020E06120626062A06220469F
:1033700000F08EFC002801D0FEF7BEFF00212046A1
:1033800002F0D6FE002801D0FEF7B6FF002120464D
:1033900002F0F1FE002801D0FEF7AEFF204602F059
:1033A000A9FE002803D0BDE81040FEF7A5BF10BD60
:1033B00078B597B00446002214216846FEF7C8FF8E
:1033C0000022442106A8FEF7C3FF20684149884235
:1033D0007BD1022006900020089006A8FEF7D6FFB9
:1033E000002801D0FEF788FF3B48C16841F4003156
:1033F000C160C16801F4003105910599016841F08F
:1034000001010160006800F00100059005980720A7
:103410000090022001900020029003900720049069
:1034200069464FF09040FFF7E5F808200090022031
:10343000019001200290002003900720049069462B
:103440004FF09040FFF7D6F8244D254E2E601A20FD
:1034500068600020A860E860802028610020686122
:10346000A8612020E8614FF480502862284602F0CD
:1034700067FC002801D0FEF73FFFE567AC6206F16C
:10348000140028661B2068661020A8660020E866E5
:103490008020286700206867A867E867C5F8800073
:1034A00005F1600002F04CFC002801D0FEF724FF7B
:1034B00005F16000A067C5F8884000220A21262097
:1034C000FFF7D7F92620FFF7E3F918B070BD000029
:1034D000E4060020004400404C1002402406002076
:1034E00008000240DFF8D81000282BD1DFF8D40004
:1034F0000A6802F4C062B2F5806F1ED1026822F43D
:1035000080720260086820F4C06040F400700860B7
:10351000DFF8B400026832204243DFF8B000B2FBAB
:10352000F0F0401C00E0401E4A69520501D5002819
:10353000F9D1486940052ED43AE0016821F4807140
:10354000016035E0B0F5007F2CD1DFF878000A6823
:1035500002F4C062B2F5806F1FD1026842F480723B
:103560000260086820F4C06040F400700860DFF872
:103570005800026832204243DFF85000B2FBF0F0FE
:10358000401C00E0401E4A69520501D50028F9D1CF
:10359000486940050CD503207047016841F48071EB
:1035A000016005E0086820F4C06040F480600860B5
:1035B000002070470648016841F48041016070476F
:1035C00000700040807000406004002040420F0006
:1035D000087000402DE9F843040000F0E281DFF8B4
:1035E00070562078C00712D5A86800F00C00E96872
:1035F00001F003010C2801D1032901D0082845D18D
:103600002868800303D56068002800F0CA8120780C
:10361000800721D5A86800F00C00E96801F00301DB
:103620000C2801D1022901D0042866D12868400560
:1036300003D5E068002800F0B481686820F0FE40FF
:10364000216940EA01606860DFF81006006802F056
:10365000CBFA002840F0A581DFF804662078000747
:1036600040F1848060690028706870D040F00100EB
:103670007060FFF799FC07467068800776D4FFF703
:1036800093FCC01B0328F7D303208DE16068B0F5DD
:10369000803F04D1286840F48030286012E0B0F503
:1036A000A02F286807D140F480202860286840F4C3
:1036B0008030286006E020F480302860286820F4FC
:1036C00080202860606800280BD0FFF76DFC06465C
:1036D000286880039BD4FFF767FC801B6528F7D31D
:1036E000D2E7FFF761FC0646286880038FD5FFF715
:1036F0005BFC801B6528F7D3C6E7E06800282868D4
:1037000016D040F480702860FFF74EFC064628680B
:10371000400505D4FFF748FC801B0328F7D3B3E727
:10372000686820F0FE40216940EA0160686093E724
:1037300020F480702860FFF737FC064628684005B3
:103740008AD5FFF731FC801B0328F7D39CE740089C
:1037500040007060FFF728FC07467068800705D5B9
:10376000FFF722FCC01B0328F7D38DE72078400722
:1037700068D50027A86DC00009D4A86D40F080501E
:10378000A865A86D00F08050009000980127DFF830
:10379000D484D8F80000C00513D4D8F8000040F451
:1037A0008070C8F80000FFF7FFFB8146D8F80000E2
:1037B000C00506D4FFF7F8FBA0EB09000328F5D3FA
:1037C00062E7A068012804D1306840F00100306051
:1037D00011E00528306807D140F0040030603068FF
:1037E00040F00100306006E0400840003060306882
:1037F00020F004003060A06800280ED0FFF7D4FB52
:1038000080463068800717D4FFF7CEFBA0EB080096
:1038100041F289318842F4D336E7FFF7C5FB804691
:103820003068800708D5FFF7BFFBA0EB080041F226
:1038300089318842F4D327E7012F03D1A86D20F006
:103840008050A8652078800621D5A0690028B0683E
:103850000ED040F00100B060FFF7A6FB0746B0684D
:10386000800714D4FFF7A0FBC01B0328F7D30BE796
:1038700040084000B060FFF797FB0746B06880073C
:1038800005D5FFF791FBC01B0328F7D3FCE6E069E1
:10389000002800F08880A96801F00C010C2955D09F
:1038A0000228286820F0807028603AD1FFF77CFB5E
:1038B00006462868800105D5FFF776FB801B0328A4
:1038C000F7D3E1E6E868DFF8A0130840216A08436F
:1038D000616A491E40EA0110A16A40EA0120216B99
:1038E0004908491E40EA4150616B4908491E40EAB7
:1038F0004160E16A40EAC160E860286840F0807099
:103900002860E86840F08070E860FFF74DFB0446EF
:103910002868800147D4FFF747FB001B0328F7D333
:10392000B2E6E86880088000E860E968DFF83C03F8
:103930000140E960FFF738FB04462868800132D572
:10394000FFF732FB001B0328F7D39DE6012828D0A0
:10395000E86800F00301226A914222D100F0F001F0
:10396000626A521EB1EB021F1BD100F4FE41A26A33
:10397000B1EB022F15D100F07841E26AB1EBC26FD2
:103980000FD100F4C001226B5208521EB1EB425F0E
:1039900007D100F0C060616B4908491EB0EB416F70
:1039A00001D0012000E00020BDE8F2832DE9F843BA
:1039B000044688460027002C61D0DFF8B4522868FE
:1039C00000F00F00404509D22868000948EA0010BD
:1039D0002860286800F00F00404550D1DFF8706281
:1039E0002078C0074DD5606803281AD1306880015F
:1039F00045D500F00AF9DFF87C12884223D3B0687D
:103A000010F0F00F05D0207880071CD5A0680028A2
:103A100019D1B06820F0F00040F08000B06080273D
:103A200011E00228306828D1800328D500F089F8F9
:103A3000DFF84012884206D3B06820F0F00040F072
:103A40008000B0608027B1688908606850EA810111
:103A5000B160FFF7A9FA8146B06800F00C00616818
:103A6000B0EB810F0DD0FFF79FFAA0EB090041F2F8
:103A700089318842F0D3032061E04005D6D401208B
:103A80005DE02068810715D5400703D5B06840F494
:103A9000E060B0602078000705D5B06820F4605081
:103AA00040F4E060B060B16821F0F001A06801432B
:103AB000B16005E0802F03D1B06820F0F000B06065
:103AC000286800F00F00804514D22868000948EAF1
:103AD00000102860FFF768FA0746286800F00F001A
:103AE000404507D0FFF760FAC01B41F28931884298
:103AF000F3D3C0E72078400705D5B16821F4E06131
:103B0000E0680143B1602078000706D5B06820F472
:103B10006050216940EAC100B06000F012F85649D7
:103B2000B268C2F30312895C01F01F01C8404A4920
:103B300008604A480068BDE8F24302F055B8BDE8A5
:103B4000F2834E49086800F00C00042801D1414876
:103B50007047086800F00C00082801D148487047F9
:103B6000086800F00C000C281FD14A6802F003021C
:103B70004868C0F30310401C032A07D1404AB2FB37
:103B8000F0F24868C0F30620424306E0314AB2FB37
:103B9000F0F24868C0F3062042434868C0F3416031
:103BA000401C4000B2FBF0F07047002070472A48EC
:103BB0000068704780B5FFF7FAFF32492F4A126854
:103BC000C2F30222895C01F01F01C84002BD80B52A
:103BD000FFF7EDFF2B49294A1268C2F3C222895C24
:103BE00001F01F01C84002BD1948016841F40021DD
:103BF0000160704710B5244C2068C00504D502F060
:103C000009FB4FF48070606010BD20490A6802F023
:103C100003020868C0F30310401C032A07D1184AA6
:103C2000B2FBF0F20868C0F30620424306E0094AFE
:103C3000B2FBF0F20868C0F3062042430868C0F304
:103C40004160401C4000B2FBF0F0704700000000F3
:103C5000001002400024F40060040020380400201A
:103C600090100240007000400C809F01FFFFEEFEAC
:103C70000020024001B4C404A470000808100240EF
:103C800000366E01287100081C1002400C10024022
:103C900038B5040015D004F180056868002804D107
:103CA000002028702046FFF783FB242068602068EE
:103CB0000168490849000160204600F01BFA01280C
:103CC00001D1012032BDA06A002802D0204600F0B8
:103CD0006BFB2068416821F4904141602068816855
:103CE00021F02A0181602068016841F00101016032
:103CF0002046BDE8324000F0BBBB70B50446134619
:103D000004F180056868202849D1002901D01800F5
:103D100001D1012070BD2878012840D001202870F1
:103D2000216504F15406338073800020E86021206F
:103D30006860706A00281ED0DFF8AC13C162DFF83B
:103D4000AC03716A0863DFF8A803716A4863002056
:103D5000716A8863206800F12802216D706A02F0A0
:103D600050F8002807D01020E8600020287020209C
:103D70006860012070BD4020216808620020287022
:103D80002068083050E8001F41F08001206800F1F1
:103D9000080242E800100028F2D1002070BD022085
:103DA00070BD30B4034603F180008468202C22D11A
:103DB000002901D0140001D101201DE00478012C5C
:103DC00019D0012404700020D8661868DFF8144365
:103DD000A0420CD04068000209D5186850E8004F96
:103DE00044F08064054645E800400028F5D11846B7
:103DF00030BC00F0DABB022030BC7047F8B5044696
:103E00002668F1693268B36840F60F00084004F193
:103E10005C050DD18F060BD5970601D4DF0007D5C1
:103E20006969002900F05D812046BDE8F44008473B
:103E3000002800F08C80DFF8B408034204D1DFF8DA
:103E4000B0783A4200F083800F46FF0707D5D705C8
:103E500005D5012737622E6B46F001062E638E07CB
:103E600009D51E46F60706D5022627683E622E6B48
:103E700046F004062E634E0709D51E46F60706D502
:103E8000042627683E622E6B46F002062E630E075C
:103E90000AD5960601D4034206D00820266830626F
:103EA000286B40F008002863080509D5500107D5A4
:103EB0004FF4006026683062286B40F020002863D1
:103EC000286B002800F00D81880608D5900601D4E3
:103ED000D80004D56969002901D020468847286B9D
:103EE00021688968490602D410F0280F29D020469D
:103EF00000F0D0FB2068806840061DD5206808309F
:103F000050E8001F21F04001206800F1080242E85B
:103F100000100028F2D1286A00280DD0DFF8D4174D
:103F20008163286A01F0E9FF002800F0DA80286A3E
:103F3000816BBDE8F44008472046BDE8F24002F03E
:103F40006AB9204602F067F900202863F1BD2869AC
:103F5000012840F09280C80640F18F80D00640F1E1
:103F60008C80102030622068806840064ED5286A18
:103F70000068406880B2002800F0B3802988884239
:103F800080F2AF806880286A00680068800634D4B8
:103F9000206850E8001F21F48071024642E80010BA
:103FA0000028F5D12068083050E8001F4908490072
:103FB000206800F1080242E800100028F2D12068D1
:103FC000083050E8001F21F04001206800F108028D
:103FD00042E800100028F2D12020E8620020286189
:103FE000206850E8001F21F01001024642E800104E
:103FF0000028F5D1286A01F04AFF29886888091A43
:1040000089B22046BDE8F44002F006B928886988E4
:10401000411A6888002864D0084680B2002860D021
:10402000206850E8002F22F49072034643E80020F5
:104030000028F5D12068083050E8002FDFF84C0345
:104040000240206800F1080343E800200028F1D175
:104050002020E862002028616861206850E8002F75
:1040600022F01002034643E800200028F5D189B26F
:104070002046BDE8F44002F0CFB8C80209D5580286
:1040800007D54FF4801030622046BDE8F24002F0C0
:10409000C4B808060AD5100601D4180206D5A969C5
:1040A00000291ED02046BDE8F4400847480606D542
:1040B000500604D52046BDE8F24000F0DBBB080204
:1040C00006D5500004D52046BDE8F24002F0A6B85F
:1040D000C80106D5002A04D52046BDE8F24002F00A
:1040E0009EB8F1BD008000401D47000863470008EE
:1040F00015480008F8B50446002521680A68DFF86D
:10410000FC050240A0680243206902436069024343
:10411000E06902430A6021684A6822F44052E0687C
:1041200002434A60A2692368DFF8CC158B4201D0B4
:10413000206A02439E68DFF8C805064032439A6051
:104140002268D36A1B09606A50EA0313D3622068AD
:10415000DFF8B02590420CD1DFF8AC25126802F0F0
:104160000302032A15D8DFE802F00248355E012277
:1041700010E0DFF8982590421BD1DFF88C251268FB
:1041800012F00C024DD0042A37D0082A22D00C2A73
:1041900049D01022884240F07F80002A06D0022AAF
:1041A00043D0042A44D0082A45D047E0FFF702FD57
:1041B00046E0DFF85C2590420ED1DFF84C2512680E
:1041C00012F030022DD0102A17D0202A02D0302A27
:1041D00029D0DEE70222DDE7DFF8382590420ED154
:1041E000DFF82425126812F0C0021AD0402A04D049
:1041F000802AEFD0C02A16D0CBE70422CAE7884233
:10420000C7D1DFF80425126812F4406209D0B2F574
:10421000806FF2D0B2F5006FDCD0B2F5406F02D003
:10422000B7E72A46B6E70822B4E7DFF8EC0407E070
:10423000FFF787FC04E04FF4004001E02846012529
:10424000002800F0988000BF51A1626A31F8121076
:10425000B0FBF1F63046626802EB4201884202D3BD
:104260001103814201D2012585E0002747EA166744
:1042700010464008002110EB06207941002301F090
:10428000CFFFA0F54071DFF81026914202D22168DD
:10429000C86070E001256EE0E069B0F5004F38D1EC
:1042A000082A15D8DFE802F005080B140E141414C0
:1042B0001100FFF77FFC0DE0FFF789FC0AE0DFF853
:1042C000580407E0FFF73DFC04E04FF4004001E034
:1042D0002846012500284ED0D4F804102CA2636A89
:1042E00032F81320B0FBF2F00A46520802EB40020B
:1042F000B2FBF1F04FF6F071A0F110028A4206D243
:104300000140C0F3420001432068C16033E0012551
:1043100031E0082A15D8DFE802F005080B140E1466
:1043200014141100FFF746FC0DE0FFF750FC0AE003
:10433000DFF8E40307E0FFF704FC04E04FF400407B
:1043400001E028460125002815D0616810A2636AA3
:1043500032F81320B0FBF2F000EB5100B0FBF1F0AB
:10436000A0F110014FF6F072914203D280B22168A1
:10437000C86000E0012504F168000121418001804E
:1043800000218160C1602846F2BD0000FEFFFFEF02
:10439000010002000400060008000A000C001000E2
:1043A000200040008000000190F82810C90706D5C1
:1043B0000268536823F40033C16A0B43536090F8DA
:1043C0002810890706D50268536823F48033016BEF
:1043D0000B43536090F82810490706D502685368CC
:1043E00023F48023416B0B43536090F82810090796
:1043F00006D50268536823F40043816B0B43536076
:1044000090F82810C90606D50268936823F48053F3
:10441000C16B0B43936090F82810890606D502689B
:10442000936823F40053016C0B43936090F82810B9
:10443000490611D50268536823F48013416C0B437D
:104440005360416CB1F5801F06D10268536823F4B4
:10445000C003816C0B43536090F82810090606D501
:1044600001684A6822F40022C06C02434A60704727
:104470007CB5044604F180050020E860FEF794FD59
:1044800006462068006800070BD56FF07E4000905C
:10449000334600224FF40011204600F01BF800289C
:1044A0000FD12068006840070DD56FF07E40009066
:1044B000334600224FF48001204600F00BF800281C
:1044C00001D0032076BD20206860A8600020E0664F
:1044D000287076BD2DE9F04105460E4617469846F0
:1044E000069C2868C0693040B04201D1012000E03C
:1044F00000203946884255D114F1010FF1D0FEF762
:1045000053FDA0EB0800844201D3002C1FD1286882
:1045100050E8001F21F4D071024642E80010002844
:10452000F5D12868083050E8001F4908490028687C
:1045300000F1080242E800100028F2D105F18000E5
:104540002021416081600021017003202BE0286858
:1045500001684907C5D5C1690905C2D54FF4006195
:104560000162286850E8001F21F4D071024642E839
:1045700000100028F5D12868083050E8001F4908CD
:104580004900286800F1080242E800100028F2D132
:1045900005F18000202141608160C160002101702F
:1045A000032000E00020BDE8F08170B5044613460A
:1045B000A16504F15C06338004F180050020E86009
:1045C0002220A860306A00281ED00FF29D11C1621F
:1045D0000FF22920316A08630FF23920316A4863EB
:1045E0000020316A8863A26D206800F12401306ADE
:1045F00001F007FC002807D01020E8600020287098
:104600002020A860012070BD0020287020690028AB
:1046100009D0206850E8001F41F48071024642E84A
:1046200000100028F5D12068083050E8001F41F044
:104630000101206800F1080242E800100028F2D1D0
:104640002068083050E8001F41F04001206800F168
:10465000080242E800100028F2D1002070BD016875
:1046600051E8002F22F0C0020B4643E80021002948
:10467000F5D10168083151E8002F22F400020168E9
:1046800001F1080343E800210029F2D12021C0F8FC
:1046900084107047016851E8002F22F490720B4695
:1046A00043E800210029F5D10168083151E8002FC5
:1046B000DFF8E8110A40016801F1080343E800212E
:1046C0000029F1D1C16E012909D1016851E8002FFB
:1046D00022F010020B4643E800210029F5D12021E9
:1046E000C0F888100021C166016770470100001002
:1046F000200100046548000800800040F369FFCFF6
:10470000FFF4FF11003801408810024000440040CF
:1047100000480040004C00400024F4000146886A34
:104720000968096889061AD40021A0F856100168A2
:10473000083151E8002F22F08002016801F10803DE
:1047400043E800210029F2D1016851E8002F42F02E
:1047500040020B4643E800210029F5D1704701F0E3
:1047600077BE806A01F075BE18B4826A02F15C01FE
:1047700000680068800634D400204880106850E843
:10478000003F23F48073044644E800300028F5D14C
:104790001068083050E8003F5B085B00106800F1CB
:1047A000080444E800300028F2D11068083050E8CE
:1047B000003F23F04003106800F1080444E8003093
:1047C0000028F2D12020C8620869012809D11068A8
:1047D00050E8003F23F01003044644E8003000286E
:1047E000F5D10869012804D10988104614BC01F0EC
:1047F00013BD104612BC01F02DBE0000806A00F10E
:104800005C010A69012A03D10988490801F004BD45
:1048100001F021BE70B5846A04F1840528686E68D1
:1048200021688968090607D5212805D10020A4F848
:1048300056002046FFF713FF20688068400608D521
:10484000222E06D1002004F1560108812046FFF7F0
:1048500021FFA86840F01000A8602046BDE8704025
:1048600001F0D9BC806A00F1560100220A810A8059
:1048700001F0D1BC016851E8002F22F040020B4644
:1048800043E800210029F5D12021C0F8841000213F
:10489000416701F0DDBD000000FD0F00FEFFFFEFEE
:1048A00001F000428B1AA3F16051B1F5801F0ADBC1
:1048B000B1F17F6F1FD242EAC102C10071F1004124
:1048C00042EB507070470B15C3F10903212B10D236
:1048D000890241EA905180020128494141F000419A
:1048E00021FA03F0C3F12003994071F100415041D6
:1048F0007047100070476FF0000013EB103F5CBF73
:10490000000E42EAC05070479FED1F1AF5EE000AF4
:1049100040EE010ABDEEE00AF5EE400A10EE100A84
:10492000F1EE10FA48BF401E00EE100AB8EEC00AC1
:1049300030EEC00ADFED150A20EE200AFDEEC00AB7
:1049400010EE900A80B2B0F5007F04DBDFED100AB4
:10495000002030EE200A014600EE901AF8EE600AC0
:104960000C4970EE600A01EB8002B7EE000A01EB21
:10497000800030EE600A92ED001AD0ED011A20EEB0
:10498000010A00EEA10A704783F9223E00000044AC
:10499000000000C468650008C0F3C75181B1FF2959
:1049A00006D0C110400721F0E04101F1605170478D
:1049B00041020CBF40F4E0016FF00041002070475D
:1049C00000F0004100020AD0B0FA80FC00FA0CF0BE
:1049D00001F16051A1EB0C5101EBD0214005704772
:1049E0000A4603681968C9694906FBD5C1681846B3
:1049F000FFF783B901464FF0FF304A6812685368E9
:104A0000C3F580734B618A69934207D008691346E6
:104A10001BB2C05C521C02F0FF028A617047014663
:104A2000486800684068C0F5807048618969401A2C
:104A300000F0FF00704706490160064941600649E1
:104A40008160064901610649C160704700000000AD
:104A5000E4060020240600208406002064040020D0
:104A60007407002038B5044601E0401CE08320466E
:104A7000FFF7D5FF002811D02046FFF7BBFF04F158
:104A80002201E28B8854E08B014604F12202525C41
:104A90000D2A01D04029E8DB01202077207F002863
:104AA0002AD000202084616E04F1220001F0D4FCA1
:104AB00004F16801228C41F822000AE06D1C258473
:104AC000616E002001F0C8FC04F16801ADB241F84C
:104AD0002500258C04F16800294650F821000028A3
:104AE000ECD10020E08320770246402104F122002F
:104AF000BDE8384001F0D6BC31BD000038B5040037
:104B000001D1012032BD04F140056878002804D1AC
:104B1000002028702046FEF765FB2420687020687E
:104B20000168490849000160606820F070602168F0
:104B300008612068816821F400418160A0682168D3
:104B4000E268012A03D140F40040886002E040F4AA
:104B500004408860E068022803D14FF400602168B7
:104B600048602068416841F0007141F400414160B3
:104B70002068C16821F40041C16021696069014376
:104B8000A06941EA00212068C160E169206A01430F
:104B9000206801602068016841F001010160002087
:104BA00068602020687000202063A87032BD2DE965
:104BB000FC4706460D4691469A4606F1400778782E
:104BC000202840F08A800A9C002C04D0DDF82C803C
:104BD0004046002804D14FF40070786001207DE049
:104BE00030688069000478D43878012875D00120B5
:104BF0003870FEF7D9F9212179704021B970002170
:104C000079607462A6F82A803549F162834971633C
:104C1000718DB1F5807F04D3FF2131854FF080780D
:104C200003E0718D31854FF0007853464A4601907C
:104C3000192000902946304600F0EDFA002803D0F4
:104C400000203870012049E0B06B00282DD0744955
:104C5000C1627448B16B48630020B16B0863B16BEB
:104C60008863338D306800F128022146B06B01F073
:104C7000C8F8002825D1002000904346328DD2B2DA
:104C80002946304600F032FF718D308D091A71854A
:104C9000002038701021304600F03CFF3068016879
:104CA00041F480410160002018E02020787000204D
:104CB000B870786840F0800078600020387001207B
:104CC0000CE0202078700020B870786840F0100068
:104CD000786000203870012000E00220BDE8F687EF
:104CE0000000FFFF2DE9FC4706460D4691469A4617
:104CF00006F140077878202840F08C800A9C002C30
:104D000004D0DDF82C804046002804D14FF4007018
:104D1000786001207FE03068806900047AD43878B8
:104D2000012877D001203870FEF73EF922217970F2
:104D30004021B970002179607462A6F82A80DFF8FA
:104D4000F010F16235497163718DB1F5807F04D344
:104D5000FF2131854FF0807803E0718D31854FF070
:104D6000007853464A460190192000902946304663
:104D700000F08CFA002803D00020387001204AE0AF
:104D8000F06B00282ED02849C1622648F16B486399
:104D90000020F16B0863F16B8863338D2246306825
:104DA00000F12401F06B01F02CF8002826D1DFF887
:104DB0007C0000904346328DD2B22946304600F046
:104DC00095FE718D308D091A718500203870102183
:104DD000304600F09FFE3068016841F400410160F8
:104DE000002018E0202078700020B870786840F02B
:104DF000800078600020387001200CE0202078705E
:104E00000020B870786840F010007860002038709A
:104E1000012000E00220BDE8F6870000ED4F000809
:104E20004D58000811590008AD58000800240080B2
:104E30000000FFFF026891691268436B002B00D0ED
:104E40001847704718B4026891691268CB0509D5F4
:104E5000130607D5436C43F0010343644FF480739A
:104E60000468E3614B0509D5130607D5436C43F08D
:104E7000080343644FF480630468E361890509D53E
:104E8000110607D5416C41F0020141644FF40071F5
:104E90000268D161416C11F00B0F02D014BC00F01C
:104EA0003DBC11BC704790F841007047406C7047A2
:104EB000000000002DE9F04105460F469046EC6ADF
:104EC00005F140063078012801D102208CE0012054
:104ED0003070B80605D55FEA886002D5284600F034
:104EE0004CFBF80636D55FEAC86033D5688D0028DC
:104EF0001FD17078282807D1B4F1007F04D139463A
:104F0000284600F0DAFB6DE0707829280DD1DFF833
:104F1000FC09844209D010202968C861284600F0A5
:104F200086FC284600F071FA5CE010202968C86110
:104F300058E010202968C861706840F00400706073
:104F4000002C02D0B4F1807F4CD17168284600F06B
:104F5000E5FB47E078071DD55FEA48701AD5688DF4
:104F600000280CD02868406A696A0870686A401C8A
:104F70006862288D401E2885688D401E6885688D72
:104F800000282FD1DFF8840984422BD0284600F076
:104F90003CFA27E0380707D55FEA087004D53946A0
:104FA000284600F0ADF91DE0B8071BD55FEA887010
:104FB00018D5688D00280DD0686A00782968886245
:104FC000686A401C6862688D401E6885288D401E96
:104FD000288507E0B4F1807F01D0002C02D128465B
:104FE00000F013FA00203070BDE8F08138B50546B6
:104FF00005F140042078012801D1022032BD0120B2
:105000002070C80610D5D0060ED510202968C861BA
:10501000606840F0040060602021284600F07AFDBE
:10502000284600F004FC6CE0080645D5500643D540
:105030002868016821F0400101602968688D002816
:105040002ED04968C1F30901688DB0F5807F04D383
:10505000FF2028854FF080730AE0688D2885E86A74
:10506000DFF8A828904201D0EB6A01E04FF000730E
:10507000002000902A8DD2B2284600F037FD698DBD
:10508000288D091A6985286861782229016803D169
:1050900041F40041016034E041F48041016030E0BE
:1050A0004868800103D4284600F084F929E04021B3
:1050B000284600F033FB24E048061BD5500619D5DE
:1050C000688D002811D128684168890119D4E96ADE
:1050D000DFF83828914204D1416841F480414160B1
:1050E0000FE0284600F066F90BE04021284600F06A
:1050F00015FB06E0880604D5900602D5284600F088
:10510000C0F90020207032BD2DE9F84305468846DD
:105110009146EC6A002605F140073878012801D154
:10512000022076E0012038705FEA886005D55FEAEA
:10513000896002D5284600F020FA5FEAC8605CD595
:105140005FEAC96059D519F4404F52D0E86B002886
:1051500007D05FEA094104D500684068002800D103
:105160000126A86B002807D05FEA494104D50068F2
:105170004068002800D10126012E1BD1787828280C
:1051800007D1B4F1007F04D14146284600F095FADA
:105190003DE0787829282CD1DFF87007844228D0A8
:1051A00010202968C861284600F041FB284600F01D
:1051B0002CF92CE010202968C861786840F00400C0
:1051C00078607878002C02D0B4F1807F1FD121283C
:1051D00001D0292802D12120286305E0222801D00E
:1051E0002A2801D1222028637968284600F096FAFF
:1051F0000DE010202968C86109E05FEA087006D553
:105200005FEA097003D54146284600F079F800208E
:105210003870BDE8F2832DE9FC41044617469846F4
:10522000089D099EDFF84C0900904FF080734246BC
:10523000D2B2204600F05AFC32462946204600F001
:10524000A9FB002801D001201DE0B8F1010F0CD00E
:105250003846000A2168886232462946204600F016
:1052600099FB002801D001200DE0FFB22068876281
:1052700000962B4600228021204600F05DFB401E58
:105280008041C043C00FBDE8F68100002DE9FC411C
:10529000044617469846089D099EDFF8D8080090F6
:1052A00000234246D2B2204600F020FC3246294676
:1052B000204600F06FFB002801D001201DE0B8F16E
:1052C000010F0CD03846000A216888623246294610
:1052D000204600F05FFB002801D001200DE0FFB266
:1052E0002068876200962B4600224021204600F06D
:1052F00023FB401E8041C043C00FBDE8F681000083
:105300002DE9F041044604F140052068697801F078
:105310002801282948D18669360C06F001068769DC
:105320003F0C07F0FE078268C2F30902D0F80C8038
:1053300008F0FE08E068022828D107F006071046AA
:10534000C00900F00600874212D1A868401CA8607E
:10535000A86802282CD10020A86008202168C86114
:105360000020287031462046BDE8F04101F0CDB85C
:105370004FF40041204600F009FC0020287042460E
:1053800031462046BDE8F04101F0BFB84FF400417E
:10539000204600F0FBFB002028703A4631462046AC
:1053A000BDE8F04101F0B1B80821C16100202870CA
:1053B000BDE8F08138B5044604F140050020A8702E
:1053C0006878212810D120206870112020630020E7
:1053D00060630121204600F0D9FB002028702046A0
:1053E000BDE8324001F092B820206870122020639E
:1053F000002060630221204600F0C8FB00202870D6
:105400002046BDE8324001F082B838B50446206835
:10541000006804F140050021A970410405D5206809
:10542000016821F48041016006E0000404D5206891
:10543000016821F400410160687829280ED12820F4
:105440006870212020630121204600F09FFB00208E
:1054500028702046BDE8324001F05AB868782A2802
:105460000ED128206870222020630221204600F0FF
:105470008DFB002028702046BDE8324001F049B87D
:1054800031BD7CB504460D4620202168C86104F179
:1054900040067078212806D10121204600F076FBD5
:1054A0001120206308E07078222805D102212046CF
:1054B00000F06CFB1220206321684A68DFF8B80610
:1054C00002404A6000206063DFF84004E062E806C2
:1054D00006D510202168C861706840F00400706033
:1054E0007078602806D1680704D52068406AC0B289
:1054F00000900098204600F09AF970687178602951
:1055000001D0002804D071682046BDE87C4005E148
:105510007078212816D12020707000202063B07888
:10552000402807D10020B07030702046BDE876409A
:1055300000F0F0BF0020B07030702046BDE876402B
:1055400000F0E4BF7078222816D12020707000206F
:105550002063B078402807D10020B070307020461A
:10556000BDE8764000F0D7BF0020B0703070204614
:10557000BDE8764000F0CBBF73BDF8B504460E46DB
:1055800021680F6804F1400568782022CA6121284B
:1055900001D0292807D148F20101204600F0F6FA8F
:1055A000212020630AE0222801D02A2806D148F2CF
:1055B0000201204600F0EAFA2220206320684168B8
:1055C00041F40041416021684A68DFF8AC050240BF
:1055D0004A60204600F02BF978040BD5206801685A
:1055E00021F480410160A06B002810D00068406861
:1055F00060850CE038040AD52068016821F4004178
:105600000160E06B002802D0006840686085700788
:1056100010D526F004062068406A616A0870606A46
:10562000401C6062208D002804D0401E2085608DC3
:10563000401E6085608D002803D0686840F004003B
:1056400068600020A8706063686800280BD06968F3
:10565000204600F063F8687828282DD1314620468E
:10566000BDE8F44029E0A94EE06AB0420DD02046E2
:10567000FFF7CBFEE66220206870002020632870D0
:105680002046BDE8F24000F047BF6878222809D1E3
:10569000202068700020206328702046BDE8F2407A
:1056A00000F037BF2020687000202063287020465B
:1056B000BDE8F24000F02CBFF1BD38B50446934878
:1056C000E0620020206304F1400520206870002083
:1056D000A8706063480712D52068406A616A087044
:1056E000606A401C6062208D002808D0401E208522
:1056F000608D401E6085686840F00400686048F274
:105700000301204600F042FA10202168C861002001
:1057100028702046BDE8324000F0FEBE38B5044691
:1057200004F1400568780022AA70784AE2620022FB
:1057300062856A6811436960282803D0292801D04E
:105740002A2809D10321204600F020FA2820687079
:10575000DFF8280460630BE048F20301204600F004
:1057600015FA6878602801D02020687000206063F6
:10577000216BA06B002820D0112901D021291CD138
:1057800020680168490403D5016821F48041016063
:10579000A06B00F051FC012833D00FF28510A16BF3
:1057A000886300202870A06B00F0A7FB00282CD095
:1057B000A06B816BBDE834400847E06B002820D027
:1057C000122901D022291CD120680168090403D5BF
:1057D000016821F400410160E06B00F02DFC01281C
:1057E0000FD00FF23D10E16B886300202870E06B52
:1057F00000F083FB002808D0E06B816BBDE83440EB
:1058000008472046BDE8324000E031BD00F13001DC
:105810004A7C602A06D120224A7400220A600A7457
:1058200000F07BBE00220A600A7400F077BE0168B7
:105830008A69920701D500228A6200688169C907D6
:1058400003D4816941F001018161704710B5846A18
:105850002068016821F480410160608D002804D136
:1058600020212046BDE8104054E1606A218D0844A3
:105870006062608DB0F5807F02D3FF20208501E05B
:10588000608D2085238D206800F12802616AA06B5D
:1058900000F0B7FA002804D010212046BDE81040DF
:1058A0003CE740212046BDE8104033E110B5846A52
:1058B0002068016821F400410160608D002804D156
:1058C00020212046BDE8104024E1606A218D084473
:1058D0006062608DB0F5807F02D3FF20208501E0FB
:1058E000608D2085238D626A206800F12401E06BC1
:1058F00000F087FA002804D010212046BDE81040AF
:105900000CE740212046BDE8104003E10000FFFF06
:10591000806A01684A6842F400424A601021FDE64C
:10592000806A816B002901D000228A63C16B002943
:1059300001D000228A6369E72DE9F04105460E4651
:1059400017461C46DDF81880286880693040B04250
:1059500001D1012000E000203946884217D114F11E
:10596000010FF1D0FDF720FBA0EB0800844201D32A
:10597000002CE9D105F14000416841F0200141606F
:1059800020214170002181700170012000E0002081
:10599000BDE8F08170B505460C461646286880695A
:1059A00080071FD432462146284600F01DF8002803
:1059B00001D0012070BD14F1010FEFD0FDF7F4FA12
:1059C000801B844201D3002CE8D105F140004168DE
:1059D00041F020014160202141700021817001705F
:1059E000012070BD002070BD2DE9F04105460C4638
:1059F00090460026286881693746C90643D510219C
:105A0000C16105F1400728688169890635D43100F4
:105A100033D114F1010FF6D0FDF7C6FAA0EB080060
:105A2000844201D3002CEED12868416801F4804102
:105A3000BA7883691B040BD5B1F5804F08D0202AB2
:105A400006D0416841F480414160FDF7ADFA8046DF
:105A5000286880698006D6D4FDF7A6FAA0EB080076
:105A60001A28F5D3786840F02000786020207870FC
:105A70000020B87038700126EAE7002E01D12021FD
:105A8000C1610427012629688869C20505D547F048
:105A900001074FF48072CA610126410506D547F01F
:105AA00008074FF480612A68D1610126800506D578
:105AB00047F002074FF400702968C86101263000E2
:105AC00011D02846FFF7B3FE29684A682A480240E9
:105AD0004A6005F1400041680F4347602021417052
