:020000040800F2
:10000000280B0020315B0008955900089D59000815
:100010009F590008A1590008A359000800000000DA
:10002000000000000000000000000000A5590008CA
:10003000A759000800000000A9590008AB590008A2
:100040004D5B0008515B0008555B0008595B0008D8
:100050005D5B0008615B0008655B0008695B000888
:100060006D5B0008715B0008755B0008B9590008FA
:10007000BF590008795B00087D5B0008815B0008C0
:10008000855B000800000000895B00088D5B0008AC
:10009000915B0008C5590008CB590008955B000822
:1000A000995B00089D5B0008A15B0008A55B000848
:1000B000A95B0008AD5B0008B15B0008D1590008DE
:1000C000D7590008B55B0008B95B0008BD5B0008A4
:1000D000C15B0008C55B0008DD590008C95B00086A
:1000E000CD5B0008D15B0008D55B0008D95B000838
:1000F000DD5B0008E15B0008E55B00080000000034
:1001000000000000E95B000800000000ED5B000853
:10011000F15B000800000000F55B0008F95B0008D7
:10012000FD5B0008015C0008055C0008095C000834
:100130000D5C00080000000000000000115C0008D9
:10014000155C0008195C00080000000000000000B9
:10015000000000000000000000000000000000009F
:100160000000000000000000000000001D5C00080E
:10017000215C0008000000000000000000000000FA
:1001800000000000255C00080000000000000000E6
:10019000000000000000000000000000000000005F
:1001A0000000000000000000295C00082D5C000831
:1001B000315C0008355C0008395C00080000000074
:1001C000000000003D5C000800000000000000008E
:1001D000415C0008455C000838B5040001D10120ED
:1001E00032BD04F140056878002804D10020287051
:1001F000204600F0B8FE2420687020680168490895
:1002000049000160606820F0706021680861206822
:10021000816821F400418160A0682168E268012AB8
:1002200003D140F40040886002E040F4044088605C
:10023000E068022803D14FF400602168486020681C
:10024000416841F0007141F4004141602068C1689B
:1002500021F40041C160216960690143A06941EA5C
:1002600000212068C160E169206A014320680160C3
:100270002068016841F001010160002068602020D1
:10028000687000202063A87032BD2DE9FE4F07463C
:100290000D4692469B4607F140067078202840F0B4
:1002A000BB80DDF83080B8F1000F04D0DDF8349069
:1002B0004846002804D14FF4007070600120ACE083
:1002C0003078012800F0A8800120307001F074F827
:1002D00004460094192301224FF40041384600F0EF
:1002E000C9FC002801D0012097E05B46524621203E
:1002F00070704020B07000207060C7F82480A7F8AC
:100300002A90786301940E9800902946384600F0B0
:100310002FFA002803D00020307001207DE0788D76
:10032000B0F5807F0DD3FF203885002000904FF07E
:100330008073FF222946384600F09EFDDDF83880A4
:100340000BE07A8D3A85002000904FF00073D2B216
:100350002946384600F090FDF0E7224641463846EF
:1003600000F0B6FC00282BD1786A007839688862E2
:10037000786A401C7862788D401E7885388D411EE1
:100380003985788D00282AD089B2002927D1009498
:10039000434600228021384600F06CFC002811D131
:1003A000788DB0F5807F0FD3FF2038850020009036
:1003B0004FF08073FF222946384600F05DFD0EE0C5
:1003C00001202AE0012028E07A8D3A850020009063
:1003D0004FF00073D2B22946384600F04DFD788DBB
:1003E0000028BAD122464146384600F09BFC010065
:1003F0000CD120203A68D0613A6853686E480340B7
:100400005360202070700020B07030700846401E8D
:100410008041C043C00F00E00220BDE8FE8F2DE9FF
:10042000FE4F05460E4692469B4605F14004607815
:10043000202840F0BD800C9F002F04D0DDF83490C0
:100440004846002804D14FF4007060600120B0E0FD
:100450002078012800F0AC800120207000F0ACFF73
:100460008046CDF80080192301224FF40041284630
:1004700000F000FC002801D001209AE05B465246C3
:10048000222060704020A070002060606F62A5F89C
:100490002A906863CDF804800E9800903146284673
:1004A00000F0A1F9002803D000202070012080E096
:1004B000DFF80801698DB1F5807F0BD3FF21298515
:1004C00000904FF080730A463146284600F0D4FC75
:1004D0000E9F0AE06A8D2A8500904FF00073D2B219
:1004E0003146284600F0C8FCF2E7CDF800803B46D4
:1004F00000220421284600F0BDFB00282CD12868EA
:10050000406A696A0870686A401C6862288D401EEB
:100510002885688D401E6885688D00282BD0288D21
:10052000002828D1CDF800803B46002280212846B3
:1005300000F0A0FB002811D1688DB0F5807F0FD3AB
:10054000FF202885002000904FF08073FF22314665
:10055000284600F091FC0EE001202AE0012028E06E
:100560006A8D2A85002000904FF00073D2B2314688
:10057000284600F081FC688D0028B6D142463946F5
:10058000284600F0CFFB01000CD120202A68D06162
:100590002A68536808480340536020206070002098
:1005A000A07020700846401E8041C043C00F00E08C
:1005B0000220BDE8FE8F000000E800FE002400805D
:1005C000026891691268436B002B00D0184770478E
:1005D00018B4026891691268CB0509D5130607D5CE
:1005E000436C43F0010343644FF480730468E36198
:1005F0004B0509D5130607D5436C43F00803436444
:100600004FF480630468E361890509D5110607D5B5
:10061000416C41F0020141644FF400710268D16104
:10062000416C11F00B0F02D014BC00F07DBA11BC6C
:10063000704790F8410070472DE9F04105460F469C
:100640009046EC6A05F140063078012801D102207D
:100650008CE001203070B80605D55FEA886002D5CD
:10066000284600F090F9F80636D55FEAC86033D521
:10067000688D00281FD17078282807D1B4F1007F39
:1006800004D13946284600F01EFA6DE0707829281A
:100690000DD1DFF8C405844209D010202968C86153
:1006A000284600F0CAFA284600F031F95CE0102034
:1006B0002968C86158E010202968C861706840F056
:1006C00004007060002C02D0B4F1807F4CD17168BE
:1006D000284600F029FA47E078071DD55FEA487000
:1006E0001AD5688D00280CD02868406A696A08709D
:1006F000686A401C6862288D401E2885688D401EEF
:100700006885688D00282FD1DFF84C0584422BD0F6
:10071000284600F0FCF827E0380707D55FEA0870A4
:1007200004D53946284600F098F81DE0B8071BD5D7
:100730005FEA887018D5688D00280DD0686A007847
:1007400029688862686A401C6862688D401E6885F6
:10075000288D401E288507E0B4F1807F01D0002C51
:1007600002D1284600F0D3F800203070BDE8F081B7
:100770002DE9FC41044617469846089D099EDFF87E
:10078000200700904FF080734246D2B2204600F01E
:1007900073FB32462946204600F09AFA002801D021
:1007A00001201DE0B8F1010F0CD03846000A216885
:1007B000886232462946204600F08AFA002801D095
:1007C00001200DE0FFB22068876200962B460022D0
:1007D0008021204600F04EFA401E8041C043C00FE9
:1007E000BDE8F68100002DE9FC4104461746984615
:1007F000089D099EDFF8A806009000234246D2B269
:10080000204600F039FB32462946204600F060FAC7
:10081000002801D001201DE0B8F1010F0CD03846AE
:10082000000A2168886232462946204600F050FAC4
:10083000002801D001200DE0FFB2206887620096F9
:100840002B4600224021204600F014FA401E804131
:10085000C043C00FBDE8F68100002DE9F041044619
:1008600004F140052068697801F02801282948D161
:100870008669360C06F0010687693F0C07F0FE0713
:100880008268C2F30902D0F80C8008F0FE08E06824
:10089000022828D107F006071046C00900F006001C
:1008A000874212D1A868401CA860A86802282CD1F1
:1008B0000020A86008202168C86100202870314607
:1008C0002046BDE8F04100F07DBD4FF400412046D8
:1008D00000F0EEFA00202870424631462046BDE87E
:1008E000F04100F06FBD4FF40041204600F0E0FA07
:1008F000002028703A4631462046BDE8F04100F01D
:1009000061BD0821C16100202870BDE8F08138B5C3
:1009100004462068006804F140050021A9704104E4
:1009200005D52068016821F48041016006E00004DB
:1009300004D52068016821F4004101606878292805
:100940000ED128206870212020630121204600F06C
:10095000AFFA002028702046BDE8324000F033BDD9
:1009600068782A280ED1282068702220206302216E
:10097000204600F09DFA002028702046BDE8324055
:1009800000F022BD31BDF8B504460E4621680F685F
:1009900004F1400568782022CA61212801D0292865
:1009A00007D148F20101204600F082FA212020639D
:1009B0000AE0222801D02A2806D148F20201204666
:1009C00000F076FA222020632068416841F400415B
:1009D000416021684A68DFF8CC0402404A60204642
:1009E00000F02BF978040BD52068016821F48041D0
:1009F0000160A06B002810D00068406860850CE0A2
:100A000038040AD52068016821F400410160E06BD8
:100A1000002802D0006840686085700710D526F075
:100A200004062068406A616A0870606A401C60625F
:100A3000208D002804D0401E2085608D401E6085DA
:100A4000608D002803D0686840F0040068600020D2
:100A5000A8706063686800280BD06968204600F0C1
:100A600063F8687828282DD131462046BDE8F44047
:100A700029E0794EE06AB0420DD02046FFF747FFEB
:100A8000E662202068700020206328702046BDE8C0
:100A9000F24000F09ABC6878222809D120206870C2
:100AA0000020206328702046BDE8F24000F08CBC96
:100AB000202068700020206328702046BDE8F240A6
:100AC00000F081BCF1BD38B504466348E062002007
:100AD000206304F14005202068700020A870606346
:100AE000480712D52068406A616A0870606A401C35
:100AF0006062208D002808D0401E2085608D401E39
:100B00006085686840F00400686048F20301204690
:100B100000F0CEF910202168C8610020287020461E
:100B2000BDE8324000F051BC38B5044604F1400540
:100B300068780022AA70484AE262002262856A68E8
:100B400011436960282803D0292801D02A2809D117
:100B50000321204600F0ACF928206870DFF8480334
:100B600060630BE048F20301204600F0A1F96878C9
:100B7000602801D02020687000206063216BA06B8A
:100B8000002820D0112901D021291CD1206801681A
:100B9000490403D5016821F480410160A06B00F095
:100BA00091FD012833D00FF2B500A16B88630020BE
:100BB0002870A06B00F0E7FC00282CD0A06B816BA4
:100BC000BDE834400847E06B002820D0122901D04E
:100BD00022291CD120680168090403D5016821F489
:100BE00000410160E06B00F06DFD01280FD00FF2B5
:100BF0006D00E16B886300202870E06B00F0C3FC9F
:100C0000002808D0E06B816BBDE8344008472046DF
:100C1000BDE8324000E031BD00F130014A7C602A7D
:100C200006D120224A7400220A600A7400F0A8BD8E
:100C300000220A600A7400F083BF01688A69920783
:100C400001D500228A6200688169C90703D48169DD
:100C500041F00101816170470000FFFF806A816BF4
:100C6000002901D000228A63C16B002901D0002233
:100C70008A63D1E72DE9F04105460E4617461C462A
:100C8000DDF81880286880693040B04201D1012029
:100C900000E000203946884217D114F1010FF1D04D
:100CA00000F08AFBA0EB0800844201D3002CE9D1BC
:100CB00005F14000416841F0200141602021417070
:100CC000002181700170012000E00020BDE8F0816A
:100CD00070B505460C4616462868806980071FD403
:100CE00032462146284600F045F8002801D0012070
:100CF00070BD14F1010FEFD000F05EFB801B844249
:100D000001D3002CE8D105F14000416841F02001F9
:100D1000416020214170002181700170012070BD6F
:100D2000002070BD70B505460C46164628688069DF
:100D300080061DD432462146284600F01BF80028C4
:100D400007D100F039FB801B844204D3002CEDD185
:100D500001E0012070BD05F14000416841F0200133
:100D6000416020214170002181700170012070BD1F
:100D7000002070BD2DE9F04105460C469046002646
:100D8000286881693746C90643D51021C16105F13C
:100D9000400728688169890635D4310033D114F1C0
:100DA000010FF6D000F008FBA0EB0800844201D34D
:100DB000002CEED12868416801F48041BA7883693B
:100DC0001B040BD5B1F5804F08D0202A06D041680E
:100DD00041F48041416000F0EFFA80462868806964
:100DE0008006D6D400F0E8FAA0EB08001A28F5D364
:100DF000786840F020007860202078700020B8707B
:100E000038700126EAE7002E01D12021C1610427B4
:100E1000012629688869C20505D547F001074FF406
:100E20008072CA610126410506D547F008074FF4D4
:100E300080612A68D1610126800506D547F0020746
:100E40004FF400702968C8610126300011D028468F
:100E5000FFF7F3FE29684A68124802404A6005F12C
:100E6000400041680F43476020214170002181709C
:100E700001703046BDE8F08170B4039C006845689D
:100E80000A4E46EA5456B543C1F3090141EA02410C
:100E90001943214321F000412943416070BC704750
:100EA0000020008000E800FE39060008FF63FF0311
:100EB0000022CB0707D5422290F8413003F02803E7
:100EC000282B00D0F2228B0709D542F0440290F87B
:100ED000413003F02803282B01D042F0B0020B046C
:100EE00001D542F0B8020B46102B01D142F090021E
:100EF000202B01D142F02002402901D142F04002D2
:100F00000068016821EA02020260704710B5DFF84C
:100F10009044DFF890042060DFF88C0460600020CB
:100F2000A0600120E060002020616061A061E061BC
:100F300020622046FFF750F9002801D000F001FEA2
:100F40000021204600F02EFE002801D000F0F9FD1F
:100F50000021204600F050FE002803D0BDE81040DC
:100F600000F0EFBD10BD18B597B004460022142163
:100F7000684600F069FE0022442106A800F064FEE5
:100F80002068DFF82014884256D1402006900020C7
:100F90000C9006A800F076FE002801D000F0D1FDEC
:100FA000DFF80844206840F001002060206800F06D
:100FB000010005900598206840F00200206020683C
:100FC00000F00200059005984FF4004000901220B8
:100FD00001900120029000200390042004906946B3
:100FE0004FF0904000F082FF80200090122001908E
:100FF0000120029000200390042004906946DFF84D
:10100000B00300F073FFE06840F40010E060E068B7
:1010100000F4001005900598002202211F2001F025
:10102000A4F81F2001F0B0F800220221202001F0D6
:101030009CF8202001F0A8F818B010BD38B52DEDAF
:10104000028B84B0D64DDB4C608B02900120019066
:1010500004F1580000900123228BA2212846FFF7BB
:1010600014F92846FFF7E5FA2428FAD02846FFF7B6
:10107000E0FA2228FAD02846FFF7DBFA2128FAD036
:101080002846FFF7D6FA2028FAD1012001F08CF883
:10109000608B02900620019000940123228BA221F4
:1010A0002846FFF7BCF9608B02900120019004F103
:1010B000580000900123228BA4212846FFF7E5F871
:1010C000012001F071F82846FFF7B3FA2428FAD07E
:1010D0002846FFF7AEFA2228FAD02846FFF7A9FAE9
:1010E0002128FAD02846FFF7A4FA2028FAD1608BED
:1010F000029006200190A01D00900123228BA421C4
:101100002846FFF78CF92846FFF793FA2428FAD0EF
:101110002846FFF78EFA2228FAD02846FFF789FAE8
:101120002128FAD02846FFF784FA2028FAD1608BCC
:1011300002900120019004F1580000900123228BBD
:10114000A6212846FFF7A1F8012001F02DF8284636
:10115000FFF76FFA2428FAD02846FFF76AFA222808
:10116000FAD02846FFF765FA2128FAD02846FFF77B
:1011700060FA2028FAD1608B02900620019004F1D9
:101180000C0000900123228BA6212846FFF747F987
:101190002846FFF74EFA2428FAD02846FFF749FAE6
:1011A0002228FAD02846FFF744FA2128FAD0284608
:1011B000FFF73FFA2028FAD1608B029001200190BE
:1011C00004F1580000900123228BA8212846FFF744
:1011D0005CF8012000F0E8FF2846FFF72AFA2428EF
:1011E000FAD02846FFF725FA2228FAD02846FFF73A
:1011F00020FA2128FAD02846FFF71BFA2028FAD136
:10120000608B02900620019004F1120000900123EF
:10121000228BA8212846FFF702F92846FFF709FA92
:101220002428FAD02846FFF704FA2228FAD02846C4
:10123000FFF7FFF92128FAD02846FFF7FAF920280E
:10124000FAD194ED148B2078617840EA012000B245
:1012500000F0BEFF53EC182B00F0CCFF01F0EEF8CD
:10126000E061A078E17840EA012000B200F0B0FF30
:1012700053EC182B00F0BEFF01F0E0F8206220795B
:10128000617940EA012000B200F0A2FF53EC182B74
:1012900000F0B0FF01F0D2F86062A079E17940EA95
:1012A000012000B200F094FF53EC182B00F0A2FFD5
:1012B00001F0C4F8A062207A617A40EA012000B20D
:1012C00000F086FF53EC182B00F094FF01F0B6F805
:1012D000E062A07AE17A40EA012000B200F078FFF3
:1012E00053EC182B00F086FF01F0A8F82063207B58
:1012F000617B40EA012000B200F06AFF53EC182B3A
:1013000000F078FF01F09AF86063A07BE17B40EA8F
:10131000012000B200F05CFF53EC182B00F06AFFD4
:1013200001F08CF8A063207C617C40EA012000B2CF
:1013300000F04EFF53EC182B00F05CFF01F07EF83C
:10134000E063A07CE17C40EA012000B200F040FFB5
:1013500053EC182B00F04EFF01F070F82064207D54
:10136000617D40EA012000B200F032FF53EC182BFF
:1013700000F040FF01F062F86064A07DE17D40EA8A
:10138000012000B200F024FF53EC182B00F032FFD4
:1013900001F054F8A06404B0BDEC028B31BD000034
:1013A000CC060020005400409B2D80104C100240C1
:1013B00000040048E801002001480068704700BFB1
:1013C00088030020704770477047704738B50400A5
:1013D00001D1012032BD216804F12405DFF87C032E
:1013E00081420BD2DFF8780341181420B1FBF0F0F2
:1013F00080002862DFF86C03E8610AE0DFF8680328
:1014000041181420B1FBF0F080002862DFF85C0383
:10141000E8610220687021680A686FF30E12A06804
:101420000243E06802432069024360690243A06905
:101430000243E0690243206A02430A60204600F04A
:1014400065F9A068B0F5804F01D100206060207977
:10145000696A0860E86AA96A4860606800280BD079
:10146000052809D2204600F06BF90020296B08609E
:10147000A86B696B486003E0002028636863A86379
:101480000020A861012068700020287032BDF8B5E6
:101490000446002504F124063078012801D10220F9
:1014A000F2BD012030707078012831D102207070B7
:1014B0002846B061206807687F087F0007602046E3
:1014C00000F003F92168F0680028086803D040F0B4
:1014D0000E00086007E020F0040008602068016842
:1014E00041F00A010160706A0168C90303D501680F
:1014F00041F480710160306B002803D0016841F431
:10150000807101602068016841F00101016002E022
:101510002846307002252846F2BD10B4002100F1A3
:1015200024025378022B03D004209061012123E090
:1015300003681C6824F00E041C60536A1C6824F4C1
:1015400080741C60006803685B085B000360012016
:1015500092F8203003F01F039840D3695860D06A96
:10156000936A5860106B002806D0036823F48073D8
:101570000360906B536B5860012050700020107016
:10158000084610BC704710B5002400F124025178C1
:10159000022907D00420906101205070204610706D
:1015A00001242BE001680B6823F00E030B60016837
:1015B0000B685B085B000B60516A0B6823F4807357
:1015C0000B60012192F8203003F01F039940D3698A
:1015D0005960D16A936A5960116B002906D00B6873
:1015E00023F480730B60916B536B59600121517030
:1015F000214611705169002900D08847204610BD4E
:10160000F0B400F12401CA6914680268156891F801
:10161000206006F01F06042303FA06F73C4214D0AC
:101620006F0712D51468A40603D4146824F00404C8
:10163000146091F8202002F01F029340CA695360A1
:10164000C96800293CD0F0BC0847022303FA06F71A
:101650003C4218D0AF0716D51468A40605D4146808
:1016600024F00A04146001224A7091F8202002F04C
:101670001F029340CA69536000220A7089680029DA
:101680001ED0F0BC0847082303FA06F6344217D0F0
:101690002B0715D5136823F00E031360012291F870
:1016A000203003F01F039A40CB695A6001228A61FF
:1016B0004A7000220A700969002901D0F0BC08476D
:1016C000F0BC704790F82500704730B4046DC56CCD
:1016D0006C60446D002C02D0C46D856D6C6001247B
:1016E00090F8445005F01F05AC40056C6C60046830
:1016F000636003688468102C03D19A600068C1603D
:1017000002E099600068C26030BC70470168184A06
:10171000124B994200D3203201F0FF010839142303
:10172000B1FBF3F1436C9B0812EB83028264114A14
:10173000C264012201F01F0102FA01F10165704744
:1017400001790D4A02EB810242650C4A8265012251
:10175000491E01F01F018A40C2657047080402401B
:10176000F8FFFDBF00000240F8FBFDBF000402408F
:101770000008024080080240FC0802404009024084
:101780007047000080B500F08DFE00F00FF800F00B
:10179000A5FE00F0D7FE00F0FDFEFFF7B7FB01F05D
:1017A000CDFC00F03EF800F0A7F8FCE700B593B0E0
:1017B0000022382105A800F047FA002214216846CB
:1017C00000F042FA002001F089FD012005904FF45D
:1017D0008030069002200C9003200D9006200E9081
:1017E00055200F90022010901190129005A801F042
:1017F000EDFD002801D000F0A4F90F200090032097
:10180000019000200290039004900421684601F0AA
:10181000C9FF002801D000F094F902F0E1F813B0FC
:1018200000BD10B572B6DFF844432046D4F8A810C6
:1018300088474FF480722169206802F0AEF90028D1
:1018400001D000F07EF9DFF82843206803F02CF87F
:10185000002801D000F075F90022A16E206803F085
:10186000EEF8002801D000F06CF907224FF4207147
:10187000DFF8000303F0E3F8002801D000F061F97D
:101880000020A060E0604FF4002020610020606133
:10189000A061E0612062606262B601F083FB00201B
:1018A0000CE0DFF8D412C0EBC00201EBC201898862
:1018B000402902D0B149B24A4A62401C0428F0DBF8
:1018C0000121B04800F0DCFBAC49487310BD10B5F5
:1018D000AA4CE06A401CE06205280BDBA648B0F881
:1018E000AC00400A06D0607C012803D101F025F845
:1018F0000020E06210BD000038B5A04CFFF75CFD91
:10190000E0616078002805D0A0A1984803F079FA3A
:1019100000206070E078002806D0607C00F02AFF8C
:101920000020E07001206071207900280DD0012591
:1019300005E0A17C2846C0B200F031FF6D1C052DEA
:10194000F7DB0020207101206071A07800280BD007
:10195000012505E00B212846C0B200F020FF6D1CD8
:10196000052DF7DB0020A070E07900280AD00125C2
:1019700004E02846C0B201F0C6F86D1C052DF8DB66
:101980000020E071207A00280CD0012504E02846D0
:10199000C0B201F0F7F86D1C052DF8DB00202072B5
:1019A00001206071A079002812D001250CE02846A2
:1019B000C0B201F0A8F87048C5EBC50100EBC1004A
:1019C0003038016841626D1C052DF0DB0020A071EC
:1019D000607A002808D0228BD2B2B4F91A10E07BCA
:1019E00001F015F800206072A07A00280BD0206A60
:1019F0000090238BDBB2B4F91A20217CE07B00F04D
:101A00005CFE0020A072607C01281CD1207D04288F
:101A100019D1E07C062810D101F0BEF801F042FA9D
:101A2000012504E02846C0B200F07FFE6D1C052DA4
:101A3000F8DB00202075E07405E04FF07E50606216
:101A400000202075E074E07A002801D0FFF7F6FA54
:101A5000607900280AD0012504E02846C0B200F0D1
:101A6000E9FF6D1C052DF8DB00206071FFF7A4FC79
:101A7000E169401AA07331BD43480178491C0170E7
:101A8000704770B50268136D5B0701D504231365B9
:101A9000374D2C680068226890424FD1A86E0142F1
:101AA0004CD0364E05F1580305F13002696E2046E0
:101AB00002F038FF002805D04FF08040706200F03F
:101AC00040F82BE0286B00F07F01491E317000F4D4
:101AD000F060F082B0F5C07F0CD0B0F5B06F1DD1D2
:101AE000C9B2C1EBC100C200234B981830339A58D9
:101AF000904713E0307D401C3075F07C0818F0747E
:101B0000C9B21D48C1EBC10200EBC200426B904755
:101B1000012803D00120B070802070744021154846
:101B200002F07BFF022809D305F1580305F13002CA
:101B3000696E286802F0F6FE0028F5D170BDC6E691
:101B4000704738B50D4C012020738020607406204A
:101B5000A074012505E0A17C2846C0B200F01FFE5C
:101B60006D1C052DF7DB72B6FEE70000D8020020E1
:101B7000E00000206806002000000020A8020020ED
:101B80000000C040000400482407002041542B43BB
:101B90004F4E4D41433D3730423846363937373660
:101BA00039320D0010B400F140025378202B20D1BF
:101BB0001378012B01D102201CE001231370242390
:101BC000537003681C68640864001C6003681C6828
:101BD00024F480541C6003681C6821431960006869
:101BE000016841F001010160202050700020107058
:101BF00000E0022010BC704710B400F1400253789E
:101C0000202B1ED11378012B01D102201AE00123D1
:101C100013702423537003681C68640864001C60FC
:101C200003681C6824F4706444EA01241C600068A2
:101C3000016841F001010160202050700020107007
:101C400000E0022010BC704762F30F2262F31F42D3
:101C500000B500BF130096469446103928BFA0E88F
:101C60000C50FAD85FEA417C28BF0CC048BF40F84E
:101C7000042BC90728BF20F8022B48BF00F8012B0E
:101C800000BD00002DE9FC47054600242646DFF88C
:101C900050722868000369D5A046F86CC0000AD4C9
:101CA000F86C40F08050F864F86C00F080500090C0
:101CB00000984FF00108DFF82C92D9F8000040F4AA
:101CC0008070C9F80000FFF777FB8246D9F8000062
:101CD000C00506D4FFF770FBA0EB0A000328F5D37C
:101CE000032420003AD1DFF80092D9F8000010F464
:101CF000407014D0296C884211D0D9F8000020F42B
:101D00004070D9F8001041F48031C9F80010D9F8BA
:101D1000001021F48031C9F80010C9F80000C00794
:101D20000FD5FFF749FB8246D9F80000800708D499
:101D3000FFF742FBA0EB0A0041F289318842F3D35E
:101D40000324200008D1D9F8001021F44071286C38
:101D50000143C9F8001002E0264600E02646B8F12B
:101D6000010F03D1F86C20F08050F8642878C00788
:101D700005D5F96F8908686850EA8101F967287804
:101D8000800705D5F96F21F00C01A8680143F967B8
:101D90002878400705D5F96F21F03001E868014344
:101DA000F9672878000705D5F96F21F0C001286987
:101DB0000143F9672878800605D5F96F21F4406161
:101DC00068690143F9672878400605D5F96F21F461
:101DD0004051A8690143F9672878000605D5F96FD5
:101DE00021F44041E8690143F9672868C00505D539
:101DF000F96F21F44031286A0143F96728688005AA
:101E000005D5F96F21F44021686A0143F967286814
:101E100040050DD5F96F21F44011A86A0143F96717
:101E2000A86AB0F5801F03D1386840F4801038608C
:101E3000286800050DD5F96F21F44001E86A0143D7
:101E4000F967E86AB0F5800F03D1386840F4801074
:101E500038602868C0040DD5F96F21F04071286BF7
:101E60000143F967286BB0F1807F03D1386840F4F3
:101E700080103860286880040DD5F96F21F040612A
:101E8000686B0143F967686BB0F1006F03D1386884
:101E900040F480103860286840040DD5F96F21F0B7
:101EA0004061A86B0143F967A86BB0F1006F03D1E3
:101EB000386840F480103860286800040DD5F96F48
:101EC00021F04051E86B0143F967E86BB0F1805FA6
:101ED00003D1386840F4803038603046BDE8F6877A
:101EE0000C1002400070004090100240F8B502460D
:101EF0000B4600242DE04FF0060C05E0DFF890C102
:101F00006245F8D14FF0050C0CFA06FC4CEA070CC0
:101F100045F821C05F498E68C5432E405F68FF02C7
:101F200000D506438E60CE682E405F68BF0200D5A4
:101F30000643CE604E682E405F68BF0300D506435F
:101F40004E600E682E405D68ED0300D506430E60BE
:101F5000641C18680146E14000F091800127A74009
:101F60003840F5D0610003258D40ED435E6806F0F2
:101F7000030CBCF1010F03D006F00306022E10D1B2
:101F800096682E40D3F80CC00CFA01FC4CEA060609
:101F900096605668BE435F68C7F30017A7403E438C
:101FA00056601E7906F00306032E05D0D6682E4033
:101FB0009F688F403E43D6601E7906F00306022ECE
:101FC00015D12646F60802EB86073E6A4FEA840CD6
:101FD0000CF01C0C4FF00F0E0EFA0CFE26EA0E064B
:101FE000D3F810E00EFA0CFC4CEA06063E621668C6
:101FF0002E401D7905F0030505FA01F10E43166028
:10200000596811F4403FA3D023490D6845F00105FC
:102010000D60096801F001010091009921468908CD
:102020001E4D55F82170A60006F00C064FF00F0C5F
:102030000CFA06FC27EA0C07B2F1904F02D14FF0E0
:10204000000C61E7DFF858C0624502D14FF0010C87
:102050005AE7DFF850C0624502D14FF0020C53E757
:10206000DFF844C0624502D14FF0030C4CE7DFF8C3
:102070003CC062457FF442AF4FF0040C44E7F1BD31
:10208000006901400846401E8041C043C00F7047B0
:1020900000140048000401406010024008000140A4
:1020A0000004004800080048000C004800100048E8
:1020B000374A13684FF6FF010B40000200F4E0605E
:1020C0001843344908431060704731480068C0F332
:1020D00002207047010007D4012200F01F018A404E
:1020E0002D49400941F8202070470901020002D41F
:1020F0002A48815470472A4802F00F02104400F821
:10210000041C704710B400F00700C0F10703052B52
:1021100000D30423041D072C01D2002000E0C01EC0
:10212000012404FA03F35B1E1940814004FA00F015
:10213000401E1040084310BC704738B50446641E6A
:10214000B4F1807F0AD2174D6C600F214FF0FF3041
:10215000FFF7CBFF0020A86007202860B4F1807F44
:102160008041C043C00F32BDA2E770B504460D46A2
:102170001646FFF7AAFF32462946FFF7C3FF01467E
:102180002046BDE87040B0E7A4E7D6E7FFF7D7BC2C
:102190000CED00E00000FA0500E100E000E400E0E2
:1021A00018ED00E010E000E038B50446FFF704F950
:1021B000054614F1010F02D0044880680419FFF7A6
:1021C000FBF8401BA042FAD331BD00BF88030020BA
:1021D00010F0004160B148BF4042B0FA80F2904038
:1021E000D21CC2F5846241EA025202EBD0214005C2
:1021F00070470000F0B540F2FF7581EA030C0CF067
:10220000004C15EA11541DBF15EA1357AC42AF42FA
:10221000E5E0BC41C1F31301C3F31303801A9941F4
:1022200043F4801304D2641E0018494180185941B8
:10223000C90241EA5051B1FBF3F603FB1611A2FBB0
:102240000675D7EBC020A94102D2761E80185941ED
:10225000C90241EA5051B1FBF3FE03FB1E11A2FB80
:102260000E75D7EBC020A94103D2AEF1010E801844
:102270005941890241EA9051760546EA8E2EB1FB1A
:10228000F3F603FB1611A2FB0675D7EB8020A941DC
:1022900002D2761E80185941C90241EA50514EEAD5
:1022A000060EB1FBF3F603FB1611A2FB0675D7EB86
:1022B000C020A94102D2761E80185941C90241EAC4
:1022C0005051B1FBF3F703FB1711A2FB0735D3EB1A
:1022D000C020A94167F100070CBF004247F0010789
:1022E00066F3D5274FEA1E31B80814F5806412DD75
:1022F000BD0775F1004250EB0E5051EB045111F542
:10230000801F5CBF41EA0C01F0BD4CF07F6141F0E1
:10231000E0410020F0BDBD076D0840EA0E5041F4D9
:102320008011D4F10104B4F120060ADAC4F12006C8
:102330000200E04001FA06F3E1401843B2401543C1
:102340000EE0342C13DCC6F1200445EA40056D088C
:1023500020FA06F2154321FA06F0A1400D430021B0
:1023600075F1004250F1000051EB0C01F0BD00206E
:102370005FEA0C01F0BDCFB992185B41B3FA83F765
:1023800004BFB2FA82F6BF190B3FB7F120062FBF88
:1023900002FA06F3BB40C7F1200622FA06F638BF60
:1023A0003343BA401CB1E419641E33E77F4231F075
:1023B0000041B1FA81F404BFB0FA80F6A4190B3CD5
:1023C000B4F120062FBF00FA06F1A140C4F12006A7
:1023D00020FA06F638BF3143A0403C1B1AE7AC4256
:1023E0001ABF05EA1357AF4212E050EA41061CBF7C
:1023F00052EA4306BFE750EA4107304661461CBF38
:1024000041EA0551F0BD52EA430C08BFC143F0BD9B
:1024100000204FF4001616EB410F98BF16EB430F48
:1024200008BF16EB410F24BFC14305E016EB430F75
:102430000CBF61464CEA0551F0BD000001F00042BE
:102440008B1AA3F16051B1F5801F0ADBB1F17F6FE8
:102450001FD242EAC102C10071F1004142EB50704B
:1024600070470B15C3F10903212B10D2890241EAF1
:10247000905180020128494141F0004121FA03F0C6
:10248000C3F12003994071F10041504170471000A1
:1024900070476FF0000013EB103F5CBF000E42EA84
:1024A000C050704710B500240B48016821F48061CA
:1024B0000160016841F4807101600320FFF754FE60
:1024C000204602F00FFD002801D0012401E002F0B7
:1024D00031FD204610BD00000020024080B586B0CE
:1024E0000022142101A8FFF7AFFB1448016841F056
:1024F00020010160016801F020010091009901684C
:1025000041F001010160016801F0010100910099B1
:10251000016841F002010160006800F002000090D3
:10252000009801200190002002900120039001A951
:102530000348FFF7DBFC07B000BD00BF4C100240B2
:102540000004004880B51248016841F004010160B0
:10255000016801F0040100910099016841F0010156
:102560000160006800F00100009000980022114610
:102570000B20FFF7FAFD0B20FFF706FE00221146A5
:102580000C20FFF7F2FD0C20BDE80240FFF7FCBD78
:102590004810024010B586B0DFF8C84ADFF8C80A14
:1025A000206000206060A060E060012020740020B6
:1025B0006074A0740A2060610120A0610E20E061B7
:1025C0000220206201206062A062E06220631C2081
:1025D00060630020A063E063204602F05DF80028FD
:1025E00001D0FFF7AEFA0020009001900290012088
:1025F00003900020049040F2FF7005906946204649
:1026000002F026F9002801D0FFF79BFA06B010BDB2
:1026100018B597B004460022142101A8FFF714FB57
:102620000022442106A8FFF70FFB2068DFF8381AC4
:10263000884240D14FF4805006904FF000701290C5
:1026400006A8FFF71FFB002801D0FFF77AFADFF892
:102650001C0AC16841F00071C160C16801F00071DD
:1026600000910099016841F001010160006800F0EB
:102670000100009000984FF4C05001900220029099
:1026800001200390032004900920059001A94FF038
:102690009040FFF72BFC002211461520FFF765FD47
:1026A0001520FFF771FD002211461620FFF75DFD92
:1026B0001620FFF769FD18B010BD3CB4049DDFF88B
:1026C000B04900F5C060C4F8E400012904D0022933
:1026D00008D004290ED01BE004F584702F2101706E
:1026E000057118E004F584702B21017005712D121D
:1026F000457110E004F584702321017005712946AD
:10270000091241712946091481712D16C57102E023
:10271000222084F8080104F584704270121282703D
:10272000C37004F1E00036BC17E118B4DFF84019BB
:1027300001F1E402034603F50074146001F58474AA
:10274000052809D0C3EBC30001EBC00030F91E0C13
:1027500020700012607009E0906920700246121229
:10276000627002461214A2700016E07001F1E000DF
:1027700012BCF2E070B50446DFF8F45805F5847633
:10278000002208213046FFF75FFA0020C5F8E40078
:102790003470707005F1E000BDE87040DDE07CB59C
:1027A0000546DFF8D0480020606046F24006009100
:1027B0000346324602212846FFF77FFF17E094EDDB
:1027C000010AF7EE000A30EE200A84ED010AD4ED8A
:1027D000030AF8EE600AB4EE600AF1EE10FA06DBC6
:1027E000DFF89408DFF894180160FFF7AAF9207861
:1027F00000280AD1DFF878082946C1EBC10200EBB6
:10280000C20030F9360CB042D9D173BD38B5054697
:102810000C460120DFF85C180870601C2870DFF897
:10282000601808784A7840EA0220688000B246F2D0
:102830003F02801A0AD0801E02D023381BD031BD3F
:10284000C878097940EA0120A88031BD95F82000B8
:1028500005EB4000CA78097942EA0122428495F8E2
:102860002000401C85F82000C0B2052826D1002099
:1028700085F8200031BDC8780A7940EA02204A79FB
:1028800040EA0240897940EA0160A860E96A401A9A
:10289000FFF79EFCDFF8EC27DFF8EC3702F064FB73
:1028A00041EC100B85ED040BDFF8E02702EBC402CE
:1028B000D2E90023FFF79EFCC5E9040131BD38B51C
:1028C00005460C46601C287041F201606880DFF804
:1028D000C01708784A7840EA0220A8808878CA7829
:1028E00040EA0220E88008794A7940EA02208A79A1
:1028F00040EA0240C97940EA0160A860E96A401AEA
:10290000FFF766FCDFF87C27DFF87C3702F02CFB52
:1029100041EC100B85ED040BDFF8702702EBC402CD
:10292000D2E90023FFF766FCC5E90401A888C0F3DB
:10293000C000401E8041C00F32BD10B5DFF83047E7
:102940008020C4F8E4000022082104F58470FFF719
:102950007BF904F1E000BDE8104070B50546DFF8F2
:10296000144700202070606017E094ED010AF7EE34
:10297000000A30EE200A84ED010AD4ED030AF8EED5
:10298000600AB4EE600AF1EE10FA06DBDFF8E80642
:10299000DFF800170160FFF7D4F828680068006DC1
:1029A0008005E2D4DFF8D0667068A060321D022195
:1029B000201D02F0AFFB0AE04FF07E506060E0683F
:1029C000022804D24FF081403060FFF7BAF828683F
:1029D00002F02FF80028EFD07068A060321D0221AD
:1029E000201D02F097FB05F12802291D286801F03F
:1029F00070FF002804D0DFF884063060FFF7A1F8EC
:102A000028680068006DC00400D5FEE770BD18B4EA
:102A1000DFF85C3600F5C060C3F8E40003F58470AD
:102A200040240470417009128170C27003F1E0000B
:102A300012BC92E72DE9F0410746DFF83846002046
:102A4000606046F24108024641463846FFF7DFFF24
:102A500017E094ED010AF7EE000A30EE200A84ED4B
:102A6000010AD4ED030AF8EE600AB4EE600AF1EE52
:102A700010FA06DBDFF80006DFF800160160FFF74A
:102A800060F8DFF8EC053946C1EBC10210EBC20576
:102A9000A5F136062078002803D1B6F9000040459C
:102AA000D7D1DFF8D4054168A160021D0221201DA5
:102AB00002F030FB7088C0F3C000002821D046F23D
:102AC0003F08002241463846FFF7A1FF2078002842
:102AD00003D1B6F900004045F8D0B07F001D0521B4
:102AE00090FBF1F101EB8101401A05EB400030F859
:102AF000160C48F21011884203D13846BDE8F04167
:102B000040E0BDE8F08170B50546DFF8684500207B
:102B1000606046F26406024631462846FFF777FFBA
:102B200017E094ED010AF7EE000A30EE200A84ED7A
:102B3000010AD4ED030AF8EE600AB4EE600AF1EE81
:102B400010FA06DBDFF83005DFF830150160FEF71C
:102B5000F8FF207800280AD1DFF814052946C1EBD8
:102B6000C10200EBC20030F9360CB042D9D1DFF817
:102B700008054168A160021D0221201DBDE87040CA
:102B800002F0C8BA10B504468021FFF708FE2046BF
:102B9000BDE810404EE70000F8B52DED0A8BDFF8D8
:102BA000F84494ED1E9BD4E9142351EC190B02F068
:102BB000F1FA41EC180BD4E9182351EC190B02F08F
:102BC000E9FA41EC190B0121DFF8D004FFF758FABC
:102BD000DFF8CC14087001280CD100200146DFF882
:102BE000C424042880F25B81C0EBC003DB00D15217
:102BF000401CF6E7DFF8785405F18006D5E9042398
:102C0000D6E9000102F0C6FAC4E91A0196ED0EAB4E
:102C100095ED12BB53EC1B2B51EC1A0B02F0BAFAD8
:102C200041EC1C0B84ED1CCB20784C2840F00D812E
:102C300000200146C4E90201C4E9060151EC180B69
:102C400053EC1A2B02F0CEFB04D800200146C4E955
:102C500008018AE06078012805D0C0F0868003284A
:102C60005AD02DD381E053EC1C2BDFF83C04DFF865
:102C70003C1402F079F953EC1C2B02F075F906466E
:102C80000F4653EC1C2BDFF82804DFF8281402F061
:102C90006BF932463B4602F07DFADFF81C24DFF880
:102CA0001C3402F077FA53EC1C2B02F05DF9DFF8CC
:102CB0001024DFF8103402F057F9C4E9080154E099
:102CC00053EC1C2BDFF80004DFF8001402F04CF981
:102CD00053EC1C2B02F048F906460F4653EC1C2B14
:102CE000DFF8EC03DFF8EC1302F03EF932463B4626
:102CF00002F050FA0022DFF8E03302F04BFA53EC16
:102D00001C2B02F031F9DFF8B823DFF8B83302F0FA
:102D10002BF9C4E9080128E053EC1C2B0020DFF854
:102D2000BC1302F021F953EC1C2B02F01DF90646EE
:102D30000F4653EC1C2B4FF06630DFF8A41302F063
:102D400013F932463B4602F025FADFF89823DFF804
:102D5000983302F01FFA53EC1C2B02F005F9D84A05
:102D6000D84B02F001F9C4E90801D4E90823D4E9F9
:102D7000100102F0F9F841EC180B84ED088B51ECCE
:102D8000190B53EC1B2B02F02DFB04D8002001463D
:102D9000C4E9040151E09FED819B6078012826D1B0
:102DA000D248D34902F0E0F853EC1B2B02F0DCF8D8
:102DB00006460F4653EC1B2BCE48CF4902F0D4F801
:102DC00032463B4602F0E6F9CC4ACD4B02F0E2F93E
:102DD00053EC1B2B02F0C8F853EC192B02F0C4F88B
:102DE00053EC182B02F0D6F9C4E9040125E0C548DC
:102DF000C54902F0B9F853EC1B2B02F0B5F80646B2
:102E00000F4653EC1B2BC148C14902F0ADF83246C6
:102E10003B4602F0BFF9BF4ABF4B02F0BBF953EC8F
:102E20001B2B02F0A1F853EC192B02F09DF853EC88
:102E3000182B02F0AFF9C4E90401D4E90423D4E962
:102E40000C0102F091F8C4E90401002625E004F128
:102E5000080000EBC600D0E900018C4A02EBC60274
:102E6000D2E90023FFF7C6F9AC4AD2E90023FFF705
:102E7000C1F90022AA4B02F077F8AA4A02EBC60277
:102E8000D2E9002302F070F802F0C6FA05F11A0147
:102E9000C6EBC602D2008852761C042ED7DBBDECEE
:102EA0000A8BF1BD2DE9F8432DED028B01217B4802
:102EB000FFF7E6F87A4908706D4C04F1B0059A4EB8
:102EC0009A4F01280CD1787801281CD028687060AE
:102ED0003878401E8041C00F38700120787012E0B1
:102EE0007870D6F80480386902F0B1FA3978002990
:102EF00004D038618044C6F8048004E04042386160
:102F00008044C6F80480B878002829D097ED028B59
:102F1000D4E9120153EC182B02F064FA1CD8F878AB
:102F200000282DD051EC180B584AD2E9022302F0A8
:102F30001BF87F4A7F4B02F017F880468946606E87
:102F4000FFF746F942464B4602F024F902F064FAD4
:102F500030600020F87013E030681E3030600FE001
:102F6000616E3068814207DBF878002808D0643948
:102F700031600020F87003E01E3830600120F870E6
:102F8000686A64387168884200DA70603068606529
:102F900070686861BDEC028BBDE8F1833D7E6FD344
:102FA0009F2D30401CB5012451E02046C0B2FFF7F0
:102FB00041FD0A200090002346F2600201212046D4
:102FC000C0B2FFF77AFB0020009003464FF4B052E6
:102FD00001212046C0B2FFF770FB57480090012343
:102FE0004FF4B05204212046C0B2FFF766FB012027
:102FF000009000234FF4B05201462046C0B2FFF7C4
:103000005CFB00200090034642F2010201212046B1
:10301000C0B2FFF752FB40F6B830009000234FF4E7
:10302000C14204212046C0B2FFF747FB4AF2BC4030
:103030000090052343F2010204212046C0B2FFF7AD
:103040003CFB00212046C0B2FFF7A9FB641C052C05
:10305000ABDB0A20FFF7A8F88020BDE81640FFF799
:1030600089BB000068060020006400404C1002404C
:103070000000002098020020CC0200200000A040A8
:10308000390100205D8940F50F22493F5802002098
:10309000380100200000404050010020000400489A
:1030A000B50200201A0000208716D9CEF70B5A402F
:1030B000B81E85EB51C066C0105839B4C85A7AC0E2
:1030C00075931804564E20C03D0AD7A370B55440DE
:1030D000EC51B81E855360C000587BC00080514041
:1030E00066065EC096B20C71AC7D77C07008556AFA
:1030F000F66651C07233DC80CF6F1B408D0B0742E8
:10310000B2E182402D431CEBE20E52C05C8FC2F54F
:10311000287C4240F6285C8FC291804050020020FB
:1031200000408F407802002018070020D0010020C6
:103130006744696F305F94401000716010B5624C55
:10314000624820604FF4E13060600020A060E060E1
:1031500020610C2060614FF44070A0610020E061AC
:1031600020626062A062204600F08EFC002801D040
:10317000FEF7E7FC0021204602F08CF9002801D080
:10318000FEF7DFFC0021204602F0A7F9002801D05D
:10319000FEF7D7FC204602F05FF9002803D0BDE817
:1031A0001040FEF7CEBC10BD78B597B004460022A3
:1031B00014216846FEF748FD0022442106A8FEF7C8
:1031C00043FD2068414988427BD1022006900020BF
:1031D000089006A8FEF756FD002801D0FEF7B1FCC6
:1031E0003B48C16841F40031C160C16801F400315D
:1031F00005910599016841F001010160006800F046
:103200000100059005980720009002200190002001
:10321000029003900720049069464FF09040FEF71B
:1032200065FE0820009002200190012002900020FD
:1032300003900720049069464FF09040FEF756FE39
:10324000244D254E2E601A2068600020A860E8609A
:103250008020286100206861A8612020E8614FF487
:10326000805028622846FEF7B1F8002801D0FEF70A
:1032700068FCE567AC6206F1140028661B206866EE
:103280001020A8660020E866802028670020686774
:10329000A867E867C5F8800005F16000FEF796F8BA
:1032A000002801D0FEF74DFC05F16000A067C5F8CD
:1032B000884000220A212620FEF757FF2620FEF72D
:1032C00063FF18B070BD00005805002000440040A6
:1032D0004C1002409804002008000240DFF8D8108B
:1032E00000282BD1DFF8D4000A6802F4C062B2F5DE
:1032F000806F1ED1026822F480720260086820F498
:10330000C06040F400700860DFF8B400026832204A
:103310004243DFF8B000B2FBF0F0401C00E0401E7A
:103320004A69520501D50028F9D1486940052ED4D3
:103330003AE0016821F48071016035E0B0F5007F6A
:103340002CD1DFF878000A6802F4C062B2F5806F11
:103350001FD1026842F480720260086820F4C060E5
:1033600040F400700860DFF85800026832204243E1
:10337000DFF85000B2FBF0F0401C00E0401E4A694C
:10338000520501D50028F9D1486940050CD5032024
:103390007047016841F48071016005E0086820F41D
:1033A000C06040F4806008600020704706480168F3
:1033B00041F480410160704700700040807000401F
:1033C0009403002040420F00087000402DE9F843AC
:1033D000040000F0E281DFF870562078C00712D5B3
:1033E000A86800F00C00E96801F003010C2801D185
:1033F000032901D0082845D12868800303D56068D7
:10340000002800F0CA812078800721D5A86800F044
:103410000C00E96801F003010C2801D1022901D058
:10342000042866D12868400503D5E068002800F02C
:10343000B481686820F0FE40216940EA016068605C
:10344000DFF81006006801F04DFD002840F0A5816E
:10345000DFF804662078000740F184806069002866
:10346000706870D040F001007060FDF7A5FF07465E
:103470007068800776D4FDF79FFFC01B0328F7D341
:1034800003208DE16068B0F5803F04D1286840F4E6
:103490008030286012E0B0F5A02F286807D140F4F2
:1034A00080202860286840F48030286006E020F4FE
:1034B00080302860286820F4802028606068002818
:1034C0000BD0FDF779FF0646286880039BD4FDF7F3
:1034D00073FF801B6528F7D3D2E7FDF76DFF064623
:1034E000286880038FD5FDF767FF801B6528F7D319
:1034F000C6E7E0680028286816D040F4807028608D
:10350000FDF75AFF06462868400505D4FDF754FF2D
:10351000801B0328F7D3B3E7686820F0FE402169D9
:1035200040EA0160686093E720F480702860FDF74E
:1035300043FF0646286840058AD5FDF73DFF801BFE
:103540000328F7D39CE7400840007060FDF734FF84
:1035500007467068800705D5FDF72EFFC01B0328BE
:10356000F7D38DE72078400768D50027A86DC00005
:1035700009D4A86D40F08050A865A86D00F0805077
:10358000009000980127DFF8D484D8F80000C00527
:1035900013D4D8F8000040F48070C8F80000FDF79C
:1035A0000BFF8146D8F80000C00506D4FDF704FFE4
:1035B000A0EB09000328F5D362E7A068012804D135
:1035C000306840F00100306011E00528306807D114
:1035D00040F004003060306840F00100306006E0E8
:1035E000400840003060306820F004003060A0687F
:1035F00000280ED0FDF7E0FE80463068800717D423
:10360000FDF7DAFEA0EB080041F289318842F4D3DD
:1036100036E7FDF7D1FE80463068800708D5FDF714
:10362000CBFEA0EB080041F289318842F4D327E7B2
:10363000012F03D1A86D20F08050A8652078800666
:1036400021D5A0690028B0680ED040F00100B0601C
:10365000FDF7B2FE0746B068800714D4FDF7ACFE54
:10366000C01B0328F7D30BE740084000B060FDF70C
:10367000A3FE0746B068800705D5FDF79DFEC01B79
:103680000328F7D3FCE6E069002800F08880A968E9
:1036900001F00C010C2955D00228286820F0807018
:1036A00028603AD1FDF788FE06462868800105D5D6
:1036B000FDF782FE801B0328F7D3E1E6E868DFF818
:1036C000A0130840216A0843616A491E40EA0110BC
:1036D000A16A40EA0120216B4908491E40EA415095
:1036E000616B4908491E40EA4160E16A40EAC160F5
:1036F000E860286840F080702860E86840F08070DA
:10370000E860FDF759FE04462868800147D4FDF7BC
:1037100053FE001B0328F7D3B2E6E8688008800058
:10372000E860E968DFF83C030140E960FDF744FE2A
:1037300004462868800132D5FDF73EFE001B0328B1
:10374000F7D39DE6012828D0E86800F00301226A3B
:10375000914222D100F0F001626A521EB1EB021FC9
:103760001BD100F4FE41A26AB1EB022F15D100F08B
:103770007841E26AB1EBC26F0FD100F4C001226B55
:103780005208521EB1EB425F07D100F0C060616B7E
:103790004908491EB0EB416F01D0012000E0002034
:1037A000BDE8F2832DE9F843044688460027002C43
:1037B00061D0DFF8B452286800F00F00404509D20C
:1037C0002868000948EA00102860286800F00F0007
:1037D000404550D1DFF870622078C0074DD5606851
:1037E00003281AD13068800145D500F00AF9DFF8C6
:1037F0007C12884223D3B06810F0F00F05D02078F7
:1038000080071CD5A068002819D1B06820F0F0000E
:1038100040F08000B060802711E00228306828D195
:10382000800328D500F089F8DFF84012884206D3DB
:10383000B06820F0F00040F08000B0608027B168F0
:103840008908606850EA8101B160FDF7B5FD8146E5
:10385000B06800F00C006168B0EB810F0DD0FDF78F
:10386000ABFDA0EB090041F289318842F0D303207F
:1038700061E04005D6D401205DE02068810715D5C0
:10388000400703D5B06840F4E060B06020780007DE
:1038900005D5B06820F4605040F4E060B060B168D5
:1038A00021F0F001A0680143B16005E0802F03D151
:1038B000B06820F0F000B060286800F00F0080458C
:1038C00014D22868000948EA00102860FDF774FD4A
:1038D0000746286800F00F00404507D0FDF76CFD53
:1038E000C01B41F289318842F3D3C0E720784007FA
:1038F00005D5B16821F4E061E0680143B16020784A
:10390000000706D5B06820F46050216940EAC10084
:10391000B06000F012F85649B268C2F30312895C35
:1039200001F01F01C8404A4908604A480068BDE8E4
:10393000F24301F0D7BABDE8F2834E49086800F0BF
:103940000C00042801D141487047086800F00C00C1
:10395000082801D148487047086800F00C000C287E
:103960001FD14A6802F003024868C0F30310401CEC
:10397000032A07D1404AB2FBF0F24868C0F30620A0
:10398000424306E0314AB2FBF0F24868C0F3062039
:1039900042434868C0F34160401C4000B2FBF0F075
:1039A0007047002070472A480068704780B5FFF7CD
:1039B000FAFF32492F4A1268C2F30222895C01F0F1
:1039C0001F01C84002BD80B5FFF7EDFF2B49294A12
:1039D0001268C2F3C222895C01F01F01C84002BD17
:1039E0001948016841F400210160704710B5244C6A
:1039F0002068C00504D501F0BFFD4FF48070606001
:103A000010BD20490A6802F003020868C0F30310E1
:103A1000401C032A07D1184AB2FBF0F20868C0F331
:103A20000620424306E0094AB2FBF0F20868C0F300
:103A3000062042430868C0F34160401C4000B2FBCE
:103A4000F0F0704700000000001002400024F40075
:103A5000940300208C03002090100240007000406E
:103A60000C809F01FFFFEEFE0020024001B4C40461
:103A7000BC5A00080810024000366E01405B000886
:103A80001C1002400C10024038B5040015D004F19F
:103A900080056868002804D1002028702046FFF7C0
:103AA00083FB2420686020680168490849000160A0
:103AB000204600F01BFA012801D1012032BDA06A86
:103AC000002802D0204600F06BFB2068416821F4FA
:103AD000904141602068816821F02A01816020685E
:103AE000016841F0010101602046BDE8324000F06C
:103AF000BBBB70B50446134604F1800568682028F6
:103B000049D1002901D0180001D1012070BD2878C9
:103B1000012840D001202870216504F1540633802B
:103B200073800020E86021206860706A00281ED041
:103B3000DFF8AC13C162DFF8AC03716A0863DFF829
:103B4000A803716A48630020716A8863206800F1E5
:103B50002802216D706AFDF79AFC002807D010201A
:103B6000E8600020287020206860012070BD40209F
:103B700021680862002028702068083050E8001F83
:103B800041F08001206800F1080242E8001000289E
:103B9000F2D1002070BD022070BD30B4034603F1A5
:103BA00080008468202C22D1002901D0140001D18A
:103BB00001201DE00478012C19D00124047000209C
:103BC000D8661868DFF81443A0420CD040680002A1
:103BD00009D5186850E8004F44F08064054645E870
:103BE00000400028F5D1184630BC00F0DABB0220B6
:103BF00030BC7047F8B504462668F1693268B3688E
:103C000040F60F00084004F15C050DD18F060BD57E
:103C1000970601D4DF0007D56969002900F05D81AE
:103C20002046BDE8F4400847002800F08C80DFF80B
:103C3000B408034204D1DFF8B0783A4200F0838040
:103C40000F46FF0707D5D70505D5012737622E6B2D
:103C500046F001062E638E0709D51E46F60706D5E7
:103C6000022627683E622E6B46F004062E634E073E
:103C700009D51E46F60706D5042627683E622E6B38
:103C800046F002062E630E070AD5960601D40342BB
:103C900006D0082026683062286B40F008002863B0
:103CA000080509D5500107D54FF400602668306239
:103CB000286B40F020002863286B002800F00D815D
:103CC000880608D5900601D4D80004D56969002972
:103CD00001D020468847286B21688968490602D4AC
:103CE00010F0280F29D0204600F0D0FB2068806813
:103CF00040061DD52068083050E8001F21F0400123
:103D0000206800F1080242E800100028F2D1286A79
:103D100000280DD0DFF8D4178163286AFDF733FC43
:103D2000002800F0DA80286A816BBDE8F44008477B
:103D30002046BDE8F24001F020BC204601F01DFC09
:103D400000202863F1BD2869012840F09280C80650
:103D500040F18F80D00640F18C80102030622068C6
:103D6000806840064ED5286A0068406880B2002806
:103D700000F0B3802988884280F2AF806880286A8A
:103D800000680068800634D4206850E8001F21F4E1
:103D90008071024642E800100028F5D12068083002
:103DA00050E8001F49084900206800F1080242E875
:103DB00000100028F2D12068083050E8001F21F0E0
:103DC0004001206800F1080242E800100028F2D10A
:103DD0002020E86200202861206850E8001F21F0C0
:103DE0001001024642E800100028F5D1286AFDF7CC
:103DF00094FB29886888091A89B22046BDE8F440F6
:103E000001F0BCBB28886988411A6888002864D002
:103E1000084680B2002860D0206850E8002F22F4C5
:103E20009072034643E800200028F5D1206808304E
:103E300050E8002FDFF84C030240206800F108032F
:103E400043E800200028F1D12020E862002028610A
:103E50006861206850E8002F22F01002034643E812
:103E600000200028F5D189B22046BDE8F44001F0D9
:103E700085BBC80209D5580207D54FF480103062BF
:103E80002046BDE8F24001F07ABB08060AD51006CC
:103E900001D4180206D5A96900291ED02046BDE824
:103EA000F4400847480606D5500604D52046BDE82C
:103EB000F24000F0DBBB080206D5500004D52046D6
:103EC000BDE8F24001F05CBBC80106D5002A04D56C
:103ED0002046BDE8F24001F054BBF1BD0080004037
:103EE000154500085B4500080D460008F8B5044676
:103EF000002521680A68DFF8FC050240A06802433B
:103F00002069024360690243E06902430A60216854
:103F10004A6822F44052E06802434A60A26923687A
:103F2000DFF8CC158B4201D0206A02439E68DFF88F
:103F3000C805064032439A602268D36A1B09606A4A
:103F400050EA0313D3622068DFF8B02590420CD109
:103F5000DFF8AC25126802F00302032A15D8DFE867
:103F600002F00248355E012210E0DFF89825904209
:103F70001BD1DFF88C25126812F00C024DD0042AF8
:103F800037D0082A22D00C2A49D01022884240F08B
:103F90007F80002A06D0022A43D0042A44D0082A6F
:103FA00045D047E0FFF702FD46E0DFF85C25904290
:103FB0000ED1DFF84C25126812F030022DD0102AF5
:103FC00017D0202A02D0302A29D0DEE70222DDE7EE
:103FD000DFF8382590420ED1DFF82425126812F060
:103FE000C0021AD0402A04D0802AEFD0C02A16D0AE
:103FF000CBE70422CAE78842C7D1DFF8042512685C
:1040000012F4406209D0B2F5806FF2D0B2F5006FC1
:10401000DCD0B2F5406F02D0B7E72A46B6E70822F7
:10402000B4E7DFF8EC0407E0FFF787FC04E04FF4A7
:10403000004001E028460125002800F0988000BFDC
:1040400051A1626A31F81210B0FBF1F63046626895
:1040500002EB4201884202D31103814201D20125C1
:1040600085E0002747EA166710464008002110EB5C
:1040700006207941002301F085FAA0F54071DFF8B0
:104080001026914202D22168C86070E001256EE0DE
:10409000E069B0F5004F38D1082A15D8DFE802F002
:1040A00005080B140E1414141100FFF77FFC0DE02B
:1040B000FFF789FC0AE0DFF8580407E0FFF73DFC52
:1040C00004E04FF4004001E02846012500284ED0CE
:1040D000D4F804102CA2636A32F81320B0FBF2F07B
:1040E0000A46520802EB4002B2FBF1F04FF6F071C3
:1040F000A0F110028A4206D20140C0F342000143FF
:104100002068C16033E0012531E0082A15D8DFE8D6
:1041100002F005080B140E1414141100FFF746FCEE
:104120000DE0FFF750FC0AE0DFF8E40307E0FFF7DB
:1041300004FC04E04FF4004001E02846012500287B
:1041400015D0616810A2636A32F81320B0FBF2F058
:1041500000EB5100B0FBF1F0A0F110014FF6F0724E
:10416000914203D280B22168C86000E0012504F1C9
:10417000680001214180018000218160C1602846E2
:10418000F2BD0000FEFFFFEF010002000400060088
:1041900008000A000C001000200040008000000110
:1041A00090F82810C90706D50268536823F4003335
:1041B000C16A0B43536090F82810890706D502683E
:1041C000536823F48033016B0B43536090F828103D
:1041D000490706D50268536823F48023416B0B43DB
:1041E000536090F82810090706D50268536823F435
:1041F0000043816B0B43536090F82810C90606D525
:104200000268936823F48053C16B0B43936090F86A
:104210002810890606D50268936823F40053016CC0
:104220000B43936090F82810490611D50268536833
:1042300023F48013416C0B435360416CB1F5801F34
:1042400006D10268536823F4C003816C0B435360AA
:1042500090F82810090606D501684A6822F4002261
:10426000C06C02434A6070477CB5044604F1800587
:104270000020E860FDF7A0F8064620680068000707
:104280000BD56FF07E400090334600224FF40011B2
:10429000204600F01BF800280FD120680068400776
:1042A0000DD56FF07E400090334600224FF4800120
:1042B000204600F00BF8002801D0032076BD202016
:1042C0006860A8600020E066287076BD2DE9F041A6
:1042D00005460E4617469846069C2868C069304039
:1042E000B04201D1012000E000203946884255D17A
:1042F00014F1010FF1D0FDF75FF8A0EB0800844244
:1043000001D3002C1FD1286850E8001F21F4D07180
:10431000024642E800100028F5D12868083050E82D
:10432000001F49084900286800F1080242E800100F
:104330000028F2D105F18000202141608160002138
:10434000017003202BE0286801684907C5D5C169C1
:104350000905C2D54FF400610162286850E8001FCA
:1043600021F4D071024642E800100028F5D12868F7
:10437000083050E8001F49084900286800F1080289
:1043800042E800100028F2D105F1800020214160B0
:104390008160C16000210170032000E00020BDE8C1
:1043A000F08170B504461346A16504F15C063380C4
:1043B00004F180050020E8602220A860306A00280F
:1043C0001ED00FF29D11C1620FF22920316A0863DD
:1043D0000FF23920316A48630020316A8863A26D88
:1043E000206800F12401306AFDF751F8002807D059
:1043F0001020E860002028702020A860012070BDF7
:10440000002028702069002809D0206850E8001F8B
:1044100041F48071024642E800100028F5D120687E
:10442000083050E8001F41F00101206800F1080247
:1044300042E800100028F2D12068083050E8001F40
:1044400041F04001206800F1080242E80010002815
:10445000F2D1002070BD016851E8002F22F0C002A7
:104460000B4643E800210029F5D10168083151E8E5
:10447000002F22F40002016801F1080343E8002143
:104480000029F2D12021C0F884107047016851E85A
:10449000002F22F490720B4643E800210029F5D149
:1044A0000168083151E8002FDFF8E8110A4001687F
:1044B00001F1080343E800210029F1D1C16E01296F
:1044C00009D1016851E8002F22F010020B4643E8A1
:1044D00000210029F5D12021C0F888100021C166F3
:1044E0000167704701000010200100045D460008CC
:1044F00000800040F369FFCFFFF4FF110038014056
:10450000881002400044004000480040004C004039
:104510000024F4000146886A0968096889061AD4EB
:104520000021A0F856100168083151E8002F22F050
:104530008002016801F1080343E800210029F2D15B
:10454000016851E8002F42F040020B4643E8002189
:104550000029F5D1704701F02DB9806A01F02BB91F
:1045600018B4826A02F15C0100680068800634D4E5
:1045700000204880106850E8003F23F48073044610
:1045800044E800300028F5D11068083050E8003FBA
:104590005B085B00106800F1080444E80030002864
:1045A000F2D11068083050E8003F23F04003106853
:1045B00000F1080444E800300028F2D12020C8624D
:1045C0000869012809D1106850E8003F23F0100362
:1045D000044644E800300028F5D10869012804D1D8
:1045E0000988104614BC00F0C9BF104612BC01F087
:1045F000E3B80000806A00F15C010A69012A03D176
:104600000988490800F0BABF01F0D7B870B5846ACC
:1046100004F1840528686E6821688968090607D551
:10462000212805D10020A4F856002046FFF713FFEB
:1046300020688068400608D5222E06D1002004F1AB
:10464000560108812046FFF721FFA86840F01000BE
:10465000A8602046BDE8704000F08FBF806A00F17E
:10466000560100220A810A8000F087BF016851E8E4
:10467000002F22F040020B4643E800210029F5D12B
:104680002021C0F884100021416701F093B8000098
:1046900000FD0F00FEFFFFEF70B5040001D1012007
:1046A00070BD04F15C052878002804D100206870F2
:1046B0002046FDF7ADFF2068816921F0100181617E
:1046C000FCF77AFE06462068816909070CD5FCF7DD
:1046D00073FE801B0B28F6D3686840F00100686009
:1046E00003202870012070BD816941F001018161C2
:1046F000FCF762FE064620688169C9070CD4FCF706
:104700005BFE801B0B28F6D3686840F001006860F0
:1047100003202870012070BD816941F00201816190
:1047200020684949884202D1606848490860206889
:10473000217C0129816903D121F04001816102E0DE
:1047400041F0400181612068617C0129816903D1C8
:1047500041F48041816102E021F48041816120685F
:10476000A17C0129816903D121F48051816102E09A
:1047700041F48051816121688A6922F44072A06805
:1047800002438A612068816921F0A4018161206867
:10479000016921F010010161E068012805D120685C
:1047A000816941F00401816119E0002817D0216876
:1047B0000228886910D040F0800088612068016973
:1047C00041F010010161E068032808D12068816987
:1047D00041F02001816102E040F020008861A06981
:1047E000401EE169491E090241EA4061206A401EFB
:1047F00001436069401E41EA00412068C161A06830
:10480000B0F5407F0FD1A06A401EE16A491E40EA20
:104810000120216B491E40EA0110616A491E40EAED
:1048200001402168C8602168D1F8C020E06B0243D4
:10483000C1F8C020204600F03FFA0020A065686063
:1048400001202870002070BD006400400065004019
:1048500070B400F15C021378012B01D0022B1CD143
:104860008A6892074B684C690D69CE68096800290F
:1048700009D142EAC66242EA05422243006C00EBDB
:104880008300026007E02243406C00EBC30045EA6E
:10489000467505604260002004E0506840F0020068
:1048A0005060012070BC704700F15C010A78012A59
:1048B00009D102220A70006882695208520082619E
:1048C000002048607047486840F0040048600120BC
:1048D000704738B5044604F15C000378022B1BD105
:1048E0002368D3F8C450AD0205D5416841F4007186
:1048F0004160012032BDD3F8C400C0F301452B460E
:10490000204600F013FA012000FA05F52068C0F8EF
:10491000CC50A565002032BD416841F008014160DE
:10492000012032BDF0B400F15C042578022D6DD178
:1049300005689035402912D12E6816F00F0F05D169
:10494000606840F480706060012064E02C68C4F30B
:104950000125866C05EBC50406EBC40611E0AE68C4
:1049600016F00F0F05D1606840F480706060012080
:1049700051E0AC68C4F30125C66C05EBC50406EB39
:10498000C406346814F080445460376803D1C7F318
:104990008A44146002E027F060471760346804F02E
:1049A0000054946056F8044B04F0004414613468D9
:1049B000A4B2D461346804F47024D460346804F47C
:1049C00080145461346804F4001494613468C4F3AE
:1049D0000664146256F8044BE40F5462002402E0AB
:1049E000375D1F55641C0FF2B437D2F80CC04FEA84
:1049F0001C4C17F80C70BC42F2D30068943040296C
:104A000001D1056000E08560002004E0606840F0AE
:104A1000080060600120F0BC7047006890304029B9
:104A200003D1006800F00F007047806800F00F00AD
:104A300070470068D0F8C40000F00700704730B439
:104A400000F15C031C78012C01D0022C66D10468B3
:104A5000A36D11F0070F01D0DD071DD511F0380F40
:104A600001D09D0718D511F4E07F01D05D0713D563
:104A700011F4F05F01D01D070ED511F4604F01D085
:104A8000DD0609D511F4403F01D09D0604D511F48F
:104A90007C0F05D05D0603D4E56D45F00105E565A5
:104AA00011F0070F01D0DC071DD411F0380F01D031
:104AB0009C0718D411F4E07F01D05C0713D411F4E3
:104AC000F05F01D01C070ED411F4604F01D0DC065A
:104AD00009D411F4403F01D09C0604D411F47C0F9A
:104AE00006D05B0604D50368DC6D44F00204DC6587
:104AF0000B0605D50368D3F8DC401443C3F8DC404B
:104B0000CB0505D50368D3F8E0402243C3F8E02085
:104B10000068426D11434165002004E0586840F090
:104B200002005860012030BC70472DE9F8438146EF
:104B3000D9F800100C6D04F4E054486D04400D6D7C
:104B400005F00705486D05400E6D06F03806486D06
:104B50000640D1F8508008F47108486D00EA080852
:104B60000F6D07F46027486D0740086D400607D5B4
:104B7000486D400604D540200865484600F01EFEFA
:104B8000D9F80020106DC0050DD5506DC0050AD5AF
:104B900002F1D8000168806801404FF48070106510
:104BA000484600F00CFE002C06D0D9F80000046541
:104BB0002146484600F004FE002D06D0D9F800003A
:104BC000056529464846FCF75CFF002E06D0D9F85B
:104BD000000006653146484600F0F3FDD9F80000B4
:104BE000016D890508D5416D890505D54FF4007122
:104BF00001654846FCF740FFD9F80020106D00061B
:104C00000CD5506D000609D502F1D400016880680A
:104C1000014080201065484600F0D4FDD9F800001E
:104C2000016D890408D5416D890405D54FF4005103
:104C30000165484600F0C7FDD9F80000016D090480
:104C400008D5416D090405D54FF40041016548467A
:104C500000F0BAFDD9F80000016D49040BD5416D93
:104C6000490408D54FF480410165D9F8600040F04F
:104C70008000C9F86000002F06D0D9F80000076551
:104C80003946484600F0A1FDB8F1000F09D0D9F827
:104C90000000C0F85080D9F8600048EA0008C9F860
:104CA0006080D9F86000002804D04846BDE8F2438F
:104CB00000F08CBDBDE8F18310B4154901640268B1
:104CC000D2F8803023F4F813446B43EA0443C2F86B
:104CD0008030104A42640268D2F8803023F070635A
:104CE000846B43EA0463C2F880300B4A82640B4A47
:104CF000C2640B4A02650B4A426502E0002008606C
:104D0000091D09488142F9D310BC7047000000001A
:104D100000A4004070A40040B0A4004088A500405A
:104D200060A6004078A6004050A7004070B40D690E
:104D30008C6825430E684C68002C02D145EA8645F4
:104D400002E0354345F080450C6ACE6946EA0466C8
:104D50008C6926434C692643CC682643406D03EB9F
:104D6000C30400EBC40005604660083000230DE07A
:104D7000D418E578A678360446EA0566657846EAEA
:104D800005262478264340F8046B1B1D03A4CD6838
:104D90002D0C645DA342EBD370BC7047000102038D
:104DA00004050607080C1014182030400A46036852
:104DB0001968C9694906FBD5C1681846FEF799BE4E
:104DC00001464FF0FF304A6812685368C3F580739C
:104DD0004B618A69934207D0086913461BB2C05CD5
:104DE000521C02F0FF028A61704701464868006861
:104DF0004068C0F5807048618969401A00F0FF0082
:104E0000704738B504460D46E06800F0E1FC2846DE
:104E100000F0EAFC014689B22046BDE83440C5E70F
:104E20000549016005494160054981600549016105
:104E30000549C16070470000580500209804002013
:104E4000F804002098030020E805002038B5044647
:104E500001E0401CE0832046FFF7C7FF002811D087
:104E60002046FFF7ADFF04F12201E28B8854E08B6E
:104E7000014604F12202525C0D2A01D04029E8DBF0
:104E800001202077207F00282AD000202084616E16
:104E900004F1220000F0C4FC04F16801228C41F806
:104EA00022000AE06D1C2584616E002000F0B8FC31
:104EB00004F16801ADB241F82500258C04F16800C9
:104EC000294650F821000028ECD10020E08320770B
:104ED0000246402104F12200BDE8384000F0C6BC83
:104EE00031BD000070B504460025104EB0680028A2
:104EF00019D04FF47A71B1FBF0F00D490968B1FB9C
:104F0000F0F0FDF742F900280BD1102C07D22A4609
:104F100021464FF0FF30FDF728F9746004E00125C9
:104F200002E0012500E00125284670BD880300202D
:104F30009403002082B00B48816841F00101816038
:104F4000816801F0010100910099016841F08051F0
:104F50000160006800F080500090009802B0FEF7F9
:104F600025BA00BF5810024030B540F2FF7C1CEA61
:104F700011541DBF1CEA1355644565453FE0641993
:104F800081EA030C6FF35F530CF0004C43F4801381
:104F9000C90241F0004141EA505EC5021100A5FB83
:104FA000020200284FF00000EEFB01204FF000014C
:104FB000E3FB052118BF42F00102401800214941DE
:104FC000E3FB0E01A4F580640D0302D29218404168
:104FD000494154F1010470DD450872F1004250F17D
:104FE000000051EB0451A1F5801102D441EA0C01FB
:104FF00030BD40F2FF7E4CEA0E51002030BD0CEA7D
:105000001355644518BF654581EA030C0CF0004C4C
:1050100041D050EA410E1CBF52EA430E02E0614605
:10502000002030BD24422C441BD15FEA050EF6D08F
:10503000090302BF01460020AEF1140EB1FA81F55A
:10504000AEEB050401FA05FE0C35C5F1200100FAAE
:1050500005F5C8404EEA000E6FF35F5343F480132A
:105060009CE733F00043B3FA83F504BFB2FA82FE43
:1050700075440B3D641BB5F1200E2FBF02FA0EF3F1
:10508000AB40C5F1200E22FA0EFE38BF43EA0E03F4
:10509000AA40641C7CE750EA410E14BF52EA430E5A
:1050A0006FF000014FF4001515EB430F8EBF19464A
:1050B00015EB410F9DE7B4D830BDD4F10104B4F134
:1050C00020050FDAC4F12005520828BF42F0010282
:1050D00010FA05FE01FA05F57244E2BFE0402843EC
:1050E000E1400FE0352C9ADCC5F1200452EA400281
:1050F00020FA05F218BF42F0010231FA05F0A14092
:105100000A43002172F1004250F1000051EB0C0102
:1051100030BD00009FED1E0AB9B311F003030BD0A0
:10512000D0ED000A001DB4EE600AF1EE10FA48BF9F
:10513000B0EE600A5B1EF3D1890826D0D0ED000ADC
:10514000B4EE600AF1EE10FA48BFB0EE600A90EDDE
:10515000011AB4EE410AF1EE10FA48BFB0EE410A6E
:10516000D0ED020AB4EE600AF1EE10FA48BFB0EEDC
:10517000600A90ED031A1030B4EE410AF1EE10FA15
:1051800048BFB0EE410A491ED8D182ED000A7047EF
:10519000FFFF7FFF70B491EA030F4FF0004540F12D
:1051A000B7806B40841A71EB030604D26E40001B7B
:1051B000B141121973414FF4001C1CEB410F34BF75
:1051C0007CEB430683E00C0DA4EB1356362E00F364
:1051D0007C80012E45EAC32341DC43EA525312BFCF
:1051E000D20292025B08240545EAC12141EA5051EE
:1051F000D2EBC020994125D407D1B0FA80F610FA3D
:1052000006F162D00020203608E0B1FA81F6B14004
:10521000C6F1200220FA02F21143B0404FEAF474C2
:10522000B4EB465434F001064FEA74040AD8D6F5BC
:105230000016760D04F00044F04061FA06F250408A
:10524000F1404840C00A40EA415021F0004128BFE7
:105250005FEA500550F1000044EBD12135E0DB0A54
:1052600045EAC121C90AB6F120050EDD42EA024233
:10527000120CC5F1200603FA06F6EB4042EA0605D9
:105280006D42984161F100010DE062FA06F5F240CD
:10529000554063FA06FC82EA0C02F3405A406D4224
:1052A000904161EB030111F4801F05D1641E62057A
:1052B00002D06D004041494121F48011430875F14D
:1052C000004350F1000041EB045170BC70471CEBEF
:1052D000410F15D223F0004352EA43060BD04FEAA8
:1052E0004C0CBCEB410F04D80C0D661E342EB7DD00
:1052F000EBE7801A994150EA410608BF0021E4E734
:1053000008BF1CEB430F28BF6FF00001DDE7000072
:10531000841A71EB030603D2001BB14112197341C9
:105320004FF4001C1CEB410F34BF7CEB430442E004
:105330000C0DA4EB1356352E4FDC45EAC323DB0AD4
:1053400045EAC121C912B6F120050DDD63FA05F663
:10535000EB4086EA0305124218BF45F00105C0186C
:1053600051F100010CD213E062FA06F5F24055400B
:10537000F3415A40B340F3405A408018594107D393
:1053800049085FEA30005FEA350528BF45F00105AE
:1053900001F58011420875F1004250F1000041EB27
:1053A00004514E0016F5001F70BC38BF7047002036
:1053B000090D090570471CEB410F10D252EA430654
:1053C0000BD0BCEB410F05D80C0DAB43661E342E41
:1053D000B6DD02E0AB438018594170BC704770BC29
:1053E0007047000041EA030C50EA4C0C52EA0C0CE6
:1053F0004FF4001C09D307D01CEB410F9CBF1CEBE2
:10540000430F994208BF904270471CEB410FFBD8F5
:105410008B4208BF82427047C1F30A5340F21E42DA
:10542000D31A0CDDCA0283F3070342EA505242F05A
:105430000042DA4002EBE17282EAE17070476FEA03
:10544000E17203F2E13008B182F0004070470028B9
:1054500048BF40427047000010B400F180010A7854
:10546000012A01D1022013E001220A7024224A609D
:1054700002681368146864086400146000224266BD
:1054800023F0005300680360202048601046087035
:1054900010BC704770B5044604F1800528780128D7
:1054A00001D1022070BD012028702420686020688E
:1054B000066802685208520002602068826822F082
:1054C000604211438160204600F02AF8206806609F
:1054D000202068600020287070BD70B5044604F17B
:1054E00080052878012801D1022070BD0120287094
:1054F0002420686020680668026852085200026032
:105500002068826822F0606211438160204600F0CA
:1055100007F820680660202068600020287070BDB1
:1055200030B400F16802416E002903D1012050809F
:10553000108016E000688168490E01F0070180685C
:10554000400F00BF0FF2280307A4255CED00185C94
:1055500095FBF0F05080605CC000595C90FBF1F06E
:10556000108030BC704700000101010307010000FA
:105570000804020408010101704770477047704732
:1055800070477047BBBBE1B1B2F5803F80F07E80D1
:10559000022A1ED98C46B1FBF2F102FB11C31B0497
:1055A00043EA1043B3FBF2FC02FB1C3380B240EA37
:1055B0000343B3FBF2F002FB103240EA0C4000233D
:1055C0007047022A05D98446B0FBF2F002FB10C2F4
:1055D00070474AB105D100F0010249085FEA300086
:1055E000704700220023704700F074B90B000200DE
:1055F000002100207047904271EB030CF6D3B3F505
:10560000803F2FD2F0B5B3FA83F7B1FA81F4A7F156
:105610000F0E3D1B5340CEF1200602FA0EF2F3416D
:105620005340B5F10F0746D80F3C2C444140C4F11C
:105630002006A040F1414140B1FBF3F603FB1611F7
:10564000A2FB0645001BA94102D2761E80185941D3
:1056500080EA010221FA0EF362FA0EF200215A40AA
:105660003046F0BD30B4B1FBF3FC03FB1C11A2FBD0
:105670000C45001BA94103D2ACF1010C8018594123
:1056800030BC02460B46604600217047B2F1807F75
:1056900065D3F0B5B2FA82F7B1FA81F4C7F10F061B
:1056A0003D1B22FA06F307F1110EF24120355A4054
:1056B000B5F10F07B8D94140C4F12006A040F1412F
:1056C0004140B1FBF3FC03FB1C11A2FB0C45001B8A
:1056D000A94103D2BCF1010C801859410F2F12D3FC
:1056E0000F3FC90341EA5041B1FBF3F603FB16112A
:1056F000A2FB0645D4EBC030A94102D2761E801829
:10570000594146EACC3C07B34140C7F12006B840B6
:10571000F1414140B1FBF3F603FB1611A2FB064534
:10572000001BA94102D2761E8018594180EA01026D
:1057300021FA0EF3C7F1200462FA0EF20CFA07F018
:105740005A402CFA04F13043F0BD80EA010221FAFC
:105750000EF3002162FA0EF260465A40F0BD8C460C
:10576000B1FBF2F102FB11C31B0243EA1063B3FB6E
:10577000F2FC02FB1C331B024CEA002043EA1063DC
:10578000B3FBF2FC02FB1C331B024CEA002043EA91
:105790001063B3FBF2FC02FB1C331B024CEA00203B
:1057A00043EA1063B3FBF2FC02FB1C324CEA00201C
:1057B00000237047704770477047704770477047C5
:1057C00070477047704770477047704770470000D8
:1057D0005FEA000C11F8012B00F8012B12B111F84F
:1057E000012BF9E76046704700F10103810704D0FF
:1057F00010F8011B820781B1FAD10268A2F10131D0
:10580000914311F0803104BF50F8042FF6E709BA34
:10581000B1FA81F100EBD100401CC01A70470000C2
:1058200038B504000D460BD02946204600F053F849
:105830000444207848B90C4800210160002032BDA2
:1058400009490C68002CEFD132BD2946204600F0F2
:1058500053F82118087810B1002201F8012B0248F2
:105860000160204632BD00BF2007002062F30F22F6
:1058700062F31F42401810F0030308D0C91A1FD367
:10588000DB0748BF00F8012D28BF20F8022D1300C8
:1058900030B414461546103928BF20E93C00FAD828
:1058A000490728BF20E90C0048BF40F8042D8900B3
:1058B00028BF20F8022D48BF00F8012D30BC7047EA
:1058C000C91818BF00F8012DCB0728BF00F8012D1B
:1058D00070470000704770B4044600E0641C2378F1
:1058E0003BB10D462A7822B115F8016BB342F9D1CC
:1058F000F4E7201A70BC704770B4044600E0641CE2
:1059000023783BB10D462A78002AF8D015F8016BB0
:10591000B342F8D1201A70BC7047F0B40246106848
:1059200095681318506803EB5004C0071CD54D440C
:105930001AE013F8017B05F8017B491EF9D198B1F3
:1059400013F8011BC6F38106032E08BF13F8016B81
:1059500001EB06214942801C294405D011F8016B56
:1059600005F8016B401EF9D1A3420ED013F8016B6C
:1059700016F0030104BF13F8011BC91C30090F28DE
:10598000DBD113F8010B0F30D7E7F0BC02F10C00AC
:105990007047000080B5FEF729F8FEE7FEE7FEE756
:1059A000FEE7FEE770477047704780B5FCF7EEFBF7
:1059B000BDE8014000F020B80A48FBF721BE0A48C4
:1059C000FBF71EBE0948FFF7B0B80848FFF7ADB8AF
:1059D0000748FAF7F5BD0648FAF7FABD0548FEF79D
:1059E00009B9000098040020F8040020680600208F
:1059F000CC0600205805002002490A6888688218F1
:105A00000A6070478803002030B4002512E050F887
:105A1000042BD30744BF4A44521E091F042942F8ED
:105A2000045BFAD213468C0744BF15809B1CC90740
:105A300048BF1D7050F8041B0029E8D130BC7047E6
:105A400010B5074979441831064C7C44163404E0FB
:105A50000A68081D114488470146A142F8D110BDCB
:105A60002C000000480000004EF68851CEF20001E4
:105A7000086840F470000860BFF34F8FBFF36F8F6A
:105A80004FF00070E1EE100A704700007DFFFFFF4D
:105A90009003000098030020000000007FFEFFFF3D
:105AA000A801000078010000000000200248016801
:105AB00041F470010160704788ED00E000000000D3
:105AC00000000000010203040607080900F00DF8B9
:105AD000002801D0FFF7B4FFAFF300800020AFF340
