:020000040800F2
:10000000F8080020C9500008494F0008514F000867
:10001000534F0008554F0008574F000800000000DC
:10002000000000000000000000000000594F000820
:100030005B4F0008000000005D4F00085F4F0008A4
:10004000E5500008E9500008ED500008F1500008A4
:10005000F5500008F9500008FD5000080151000853
:1000600005510008095100080D5100086D4F0008A6
:10007000734F00081151000815510008195100086C
:100080001D51000800000000215100082551000802
:1000900029510008794F00087F4F00082D510008B2
:1000A0003151000835510008854F000839510008CA
:1000B0003D510008415100084551000849510008D0
:1000C0004D51000851510008555100085951000880
:1000D0005D510008615100088B4F00086551000810
:1000E000695100086D5100087151000875510008F0
:1000F000795100087D51000881510008000000007E
:10010000000000008551000800000000895100082F
:100110008D51000800000000915100089551000821
:10012000995100089D510008A1510008A5510008EF
:10013000A95100080000000000000000AD510008B7
:10014000B1510008B5510008000000000000000097
:10015000000000000000000000000000000000009F
:10016000000000000000000000000000B95100087D
:10017000BD51000800000000000000000000000069
:1001800000000000C1510008000000000000000055
:10019000000000000000000000000000000000005F
:1001A0000000000000000000C5510008C95100080F
:1001B000CD510008D1510008D551000800000000C1
:1001C00000000000D95100080000000000000000FD
:1001D000DD510008E15100082DE9F14FB0B0924621
:1001E00004910DF142013A9A2B9199464A700020F0
:1001F0000AE01AF8011B0498309A904700280490EE
:1002000000F06B860D98401C0D909AF8000050B1DC
:100210002528EED1002100220791089209910A9227
:100220000B910C9204E00D9800F059BE41F00101D1
:100230001AF8010F2028F9D023280CD02B2804D03D
:100240002D2805D0302809D00BE041F00201EFE75E
:1002500041F00401ECE741F00801E9E741F0100149
:10026000E6E72A280FD1D9F8002052F8040BC9F884
:10027000002000280F9003D540420F9041F0040168
:100280000AF1010A14E00F92DFF8583C0AE00F98D7
:10029000984205DA00EB800402EB4402303A0F92F8
:1002A0000AF1010A9AF80020A2F130000A28EED3E0
:1002B0009AF800002E2803D04FF0FF320E9229E06A
:1002C0001AF8010F2A2809D1D9F8000050F8042B98
:1002D000C9F800000E920AF1010A1BE02D280CBF9C
:1002E0000AF1010A002000220E92DFF8F84B0BE021
:1002F00040B90E9AA24205DA02EB820503EB4503F0
:10030000303B0E930AF1010A9AF80030A3F1300253
:100310000A2AEDD3ADF840100FF6CC309AF8001051
:1003200000F00EFF08B11AF8010B8DF842009DF89D
:100330004200682805D19AF8000068280CD1622193
:1003400006E06C2804BF9AF800006C2804D17121E3
:100350008DF842100AF1010A12A806901AF801BBA2
:10036000BBF125012CD01C3900F0D781091F0229CF
:1003700040F2D381133900F0E284093900F0CD81D5
:10038000891E00F07785491E00F02485491E022948
:1003900040F2C381091F00F01D85491F00F0328122
:1003A000491E00F0CC84491E00F0D880C91E0DD033
:1003B000891E00F0C484C91E00F0C18400F065BD30
:1003C00025238DF84830012100F06ABDD9F80000DE
:1003D00050F8044BC9F80000002C059440F0AB80A5
:1003E0002B994878002800F0A1804FF0FF340FF6D9
:1003F000003000F0B5FE201A40F06F8500F051BDCE
:1004000001236A4602A9304600F042FE002840F06F
:1004100064856D1EF4D13096079D12AF75B1309E84
:1004200017F8012B02A9304600F022FE002801D463
:100430006D1EF5D10028309640F04F850A9D302082
:10044000002D8DF800000CDD309E01236A4602A9C4
:10045000304600F01DFE002840F03F856D1EF4D1AF
:100460003096059F089D75B1309E17F8012B02A9A3
:10047000304600F0FDFD002801D46D1EF5D10028A6
:10048000309640F02A850B9D3020002D8DF800001D
:100490000CDD309E01236A4602A9304600F0F8FDCB
:1004A000002840F01A856D1EF4D130960598089901
:1004B000099D471875B1309E17F8012B02A93046E7
:1004C00000F0D6FD002801D46D1EF5D1002830962D
:1004D00040F003850C9D3020002D8DF800000CDDD0
:1004E000309E01236A4602A9304600F0D1FD002863
:1004F00040F0F3846D1EF4D130969DF84000410722
:100500007FF583AE2020002C8DF800007FF77DAEB4
:10051000309D01236A4602A9284600F0B9FD002853
:1005200040F0DB84641EF4D130956EE60FF6C030E7
:10053000059000F0B6BC0E9D002D04D5204600F0BD
:100540002FFE044607E02A46204600F045FE00281C
:1005500014BF041B2C46089400F0A3BCD9F800106B
:1005600051F8040BC9F8001020F00004002121F01C
:10057000FF3512ABCDE902450593DDE9022306996B
:100580003C2413B90AB90E98A8B102F00F05303512
:10059000641EEEB23A2E08DA120942EA03721B090F
:1005A0000D5508BF002A02D105E02735F4E705986C
:1005B0000D19A842E9D308190590C4F13C020E9820
:1005C000089282420ADABDF84010821A4FF6EF70A4
:1005D00001400A92ADF8401000F063BC002840F1E1
:1005E00060849DF8400000F01400102840F0598409
:1005F0000F9B07990A985B1A1B1A9A1A002A40F354
:1006000050849AE32B99487820B14FF0FF340FF6CD
:10061000B020EEE69DF84200622860D0682817D02E
:100620006A283FD06C2806D0712847D074282CD077
:100630007A281DD062E0D9F8001051F8040BC9F8EF
:100640000010002866D14FF0FF340FF68C20D0E662
:10065000D9F8001051F8040BC9F8001020B94FF078
:10066000FF340FF67420C4E60D99018000F019BC28
:10067000D9F8001051F8040BC9F80010002849D12E
:100680004FF0FF340FF65020B3E6D9F8001051F8C0
:10069000040BC9F8001000283CD14FF0FF340FF6CE
:1006A0003820A6E6D9F8001051F8040BC9F800105C
:1006B00080B94FF0FF340FF620209AE6D9F80010E9
:1006C00051F8040BC9F8001020B94FF0FF340FF6B1
:1006D00008208EE60D9AD317C0E90023E1E3D9F88C
:1006E000001051F8040BC9F8001020B94FF0FF3486
:1006F0000FF6E4107DE60D990170D2E3D9F80010F1
:1007000051F8040BC9F8001020B94FF0FF340FF670
:10071000C8106EE60D990160C3E3D9F80020D21D20
:1007200022F00702C9F80020D2E900010832C9F816
:100730000020CDE90201C80F02D007982D210AE060
:10074000BDF84000810702D507982B2103E0C007C0
:1007500005D50798202112AA1154401C079012A811
:100760000799DDE9024543184BF020006128059305
:1007700021AE0BD00E98002802D506200E9005E081
:1007800001BF4BF02000672801210E91DDE9020135
:1007900048004015401C0A460DD109030BD0ABF1AF
:1007A000610703201A2F089002D20FF648110DE0BE
:1007B0000FF644110AE070B912030CD1ABF16107D6
:1007C00003201A2F08901CD30FF634110322184669
:1007D00000F02EFD65E3DDE902016A4600F07CFDD4
:1007E000CDE902014BF02000612811D1059830219C
:1007F0000170821CBBF1610F05920CBF782158215A
:1008000002E00FF6F801E1E741700798801C0790BD
:10081000DDE9020120F0000231F0004308BF002AA8
:1008200002D10025002445E14BF02008B8F1610F0A
:1008300040F095800E98002847BF21210191401C6F
:100840000190019F7F1C2046294600220023DDE9FC
:10085000024500F079FD00998DF8842038BF85F0BD
:100860000045091F002F00910DF1850034DD06467B
:10087000204629460022002300F080FD2BD21C22B6
:1008800000F096FD04460D4600F030FEFF1F002FDD
:10089000804609DD00F046FE02460B46204629460A
:1008A00000F008FF04460D46F01D0721B8F1000FC7
:1008B0000CDD491E5EBF08F00F0200F8012D4FEA63
:1008C0002818F3D502E0002200F8012D491EFAD5C0
:1008D000C61D002FCCDC30460DF18501401A019970
:1008E00005468842C8BF0D46002D0DF185062FD460
:1008F000854206DA0DF18500415D0829A8BF0F2069
:1009000000DA0020294621AA0A4400E06D1E12F8F0
:100910000139491E8342F9D00F2804D10DF1850019
:10092000425C521C4254002904D50098001D21AE9F
:100930006D1C0090681E0BD431180A783032D3B287
:100940003A2BA4BF5A443A3A401E01F80129F4D583
:100950000E98002840F1AD80691E0E91A9E0009923
:10096000DFF8FC2647F29750414391FBF2F20092E8
:1009700025F00045C2F10702002A04DD2046294681
:1009800000F04AFB0BE052420020DFF8D81600F0DE
:1009900043FB02460B462046294600F0FDFE044676
:1009A000B8F1660F0E9806BF009F0A3706273F185A
:1009B000142FC8BF142730208DF884000D460DF188
:1009C000850000E03046002F35DD064620462946EA
:1009D00001F006F801460A4606F1080304200A263B
:1009E000B2FBF6F606EB860EA2EB4E02303203F8AF
:1009F000012C0A22B6FBF2F202EB820EA6EB4E06A7
:100A00003036401E03F8026DE9D1083F002F03F194
:100A10000806D7DD084600F0F5FF02460B462046E3
:100A2000294600F047FE0022DFF83C3600F0F8FFD0
:100A300004460D46CAE70DF18501401A0DF1850601
:100A400004E00099491E401E0091761C317830293F
:100A5000F7D0B8F1660F02D10099491C04E0B8F153
:100A6000650F0CBF012100210E9D4D19A842B8BF92
:100A7000451E002D1DD4854204DA705D3428C8BFA0
:100A8000392000DC30202946721E531800E06D1E0C
:100A900013F80149491E8442F9D0392802D1705C0B
:100AA000401C7054002904D50098401C16466D1C4B
:100AB0000090009C01F08AF8406A0778DDF83880E1
:100AC00028B2002802DC01250FF238664BF0200026
:100AD000662808BF641C16D0672846D120B210F1E2
:100AE000040F48DB404546DA9DF84000641C0107CE
:100AF00003D428B24045D8BF804620B2B8EB0008E6
:100B000048BF4FF000080FFA84FBBBF1000F00F361
:100B1000B5800898411C0891302205990A54B8F113
:100B2000000F03DC9DF84000010704D50898411C24
:100B3000089105990F5418EB0B0FB8BFC8F10004CA
:100B400024B260420B90A0442AB29045B8BF4546FB
:100B5000059B08982DB209952A463146184400F0A5
:100B600067FBA8EB05000C90D2E0BBF1610F17D139
:100B70004FF0700B19E028B2404504DA9DF84010A0
:100B80000A0758BF8046B8F1010848BF4FF0000877
:100B9000BBF1670F14BF4FF0450B4FF0650B04E03E
:100BA000BBF1410F08BF4FF0500B0898411C089152
:100BB000B8F1000F059916F8012B0A5403DC9DF8D3
:100BC000400001071AD50898411C0891B8F1000FA0
:100BD00005990F5412DD6D1E28B280450598089BBB
:100BE000B8BF45462AB23146184400F021FB0899A7
:100BF0002DB269180891A8EB05000B90059808998B
:100C0000084421B2002980F800B003D42B2242709E
:100C1000821C04E02D2242700C46821C644200219A
:100C20002CAB20460AE004460A2094FBF0F000EBCF
:100C30008005A4EB450403F8014B491C00B20028D1
:100C4000F1DC012906DC4BF02000652804BF3020D0
:100C500002F8010B00292CAB08D1302002F8010B5F
:100C600006E0491E585C303002F8010B0029F8DC20
:100C7000059908980844121A099249E028B221B24D
:100C800088421CDA0598089B2AB23146184400F0C5
:100C9000CFFA08992DB269180891ABEB0500B8F1AD
:100CA000000F0B9003DC9DF84000020704D5059867
:100CB00047540999491C0991CDF8308028E00598DE
:100CC000089B22B23146184400F0B2FA08982D1B56
:100CD0005844B8F1000F089003DC9DF840100A0753
:100CE00003D5411C089105990F5428B280450598F9
:100CF000089BB8BF45462AB206EB0B01184400F02A
:100D000097FA08982DB228180890A8EB05000B90C8
:100D10009DF8400000F01400102840F0C280079AAF
:100D200008990B988A18099982180C988A188218C1
:100D30000F98824280F2B580821A0A92B1E09DF843
:100D40004200622808D068280ED06A2814D06C2887
:100D50001FD0712810D01CE0D9F8001051F8040BF6
:100D6000C9F80010C0B21AE0D9F8001051F8040B0D
:100D7000C9F8001080B212E0D9F80020D21D22F08C
:100D80000702C9F80020D2E900010832C9F80020A2
:100D900006E0D9F8001051F8040BC9F80010002142
:100DA000CDE902019DF8400001075AD5DDE9022393
:100DB000002B08BF002A54D04BF02000782850D1D7
:100DC000079812A930220A54401C431C079301F8CB
:100DD00000B046E09DF84200622808D068280ED096
:100DE0006A2814D06C281FD0712810D01CE0D9F8C4
:100DF000001051F8040BC9F8001040B21AE0D9F8FD
:100E0000001051F8040BC9F8001000B212E0D9F834
:100E10000020D21D22F00702C9F80020D2E900010B
:100E20000832C9F8002006E0D9F8001051F8040B88
:100E3000C9F80010C117CDE90201002902D50798B1
:100E40002D210AE0BDF84000810702D507982B212B
:100E500003E0C00705D50798202112AA1154401CB1
:100E6000079012A807990144059102A8594600F07D
:100E70004DF816E001200790D9F8000050F8041B47
:100E8000C9F800008DF848100BE025210122BBF1C4
:100E9000000F8DF84810079203D08DF849B0022159
:100EA00007910F9A07980A990C9C121A0898521ADF
:100EB0000B99121A0998521A121A9DF84000141B25
:100EC00041073FF5A9AA2020002C8DF800007FF7EC
:100ED000A3AA309E2546FFF793BA4FF0FF3031B0FA
:100EE000BDE8F08FCBCCCC0C686A6C747A4C0000F7
:100EF0007072696E74665F733A2062616420257354
:100F000020617267756D656E740000002DE9FC4309
:100F100004466F29256908BF082605D041F0200046
:100F2000782814BF0A2610263C27D4E90023642918
:100F300018BF69299046994605D1002B03D5D8F1F1
:100F4000000869EB4909B9F1000F08BFB8F1000FBB
:100F50000CD1206B50B9082E3AD194F83800010713
:100F600036D530203B2785F83B0031E08DF8001066
:100F7000404649463246F31700F02CFE3032D0B2DC
:100F80007F1E3A2801970EDAEA5540464946324616
:100F9000F31700F01FFE80465FEA010908BFB8F1B1
:100FA000000F05D108E09DF800001218513AEBE758
:100FB000E068E9198842DBD3082E09D194F838009B
:100FC000010705D5E85D302802D07F1E3020E855A6
:100FD000C7F13C02A261E919E160206B824208DAA4
:100FE000821A22624FF6EF70218F01402187BDE8FF
:100FF000F38300280ED594F8380000F01400102870
:1010000008D1636B6169206A5B1A1B1A9A1A002A5D
:10101000C8BF2262BDE8F3832DE9D04306460F46E0
:1010200014464FF00008DFF8449012E0E00707D5BF
:1010300042464B463046394600F0F2FC06460F4623
:101040004046494642464B4600F0EAFC6410804662
:101050008946002CEAD130463946BDE8D0830000ED
:10106000A08601000000F03F84D797410000244093
:1010700010B503460C461146A0689847A06020B101
:10108000E06A401CE062002010BD4FF0FF3010BD50
:10109000F8B505460E4617461C4600205CB117F809
:1010A000011BB068A847B06030B1F06A401CF06224
:1010B0000020641EF3D1F2BD4FF0FF30F2BD0000FE
:1010C0007072696E74665F733A20256E206469736E
:1010D000616C6C6F776564007072696E74663A203B
:1010E00062616420256E20617267756D656E7400A3
:1010F000000000006E616E004E414E00696E660099
:10110000494E4600300030B5016884684218416895
:1011100002EB5103C90703D54C4401E0491C08D137
:101120009A4218BF12F9011B01D10C3030BD12F8E0
:10113000015B002904F8015BF0D4491EF7D5EFE705
:10114000C9B202788A421AB11CBF10F8012FF9E720
:1011500018BF002070470268531C0360117070476D
:1011600080B500B906A005490B681BB122220021F9
:10117000984701E000F046FE222002BDF004002066
:10118000636F6E73747261696E742068616E646CF3
:1011900065723A20626164206D65737361676500F2
:1011A00000F10103810704D010F8011B820781B10F
:1011B000FAD10268A2F10131914311F0803104BFEC
:1011C00050F8042FF6E709BAB1FA81F100EBD1002B
:1011D000401CC01A70472E00C9B2830706D0521EA9
:1011E00022D310F8013B9942F7D11FE0083A13D3FC
:1011F00002F1040241EA012141EA014150F8043BB5
:10120000121F21BF4B40A3F1013C2CEA030C1CF040
:10121000803FF3D0C9B2001F083210F8013B521EC4
:1012200028BF91EA030FF8D818BF0120401E70476D
:1012300062B38B0708D0521E11F8013B00F8013B46
:1012400000F024808B07F6D1830740F0208000BF98
:10125000103A07D330B4B1E83810103AA0E838108B
:10126000F9D230BC530724BFB1E80810A0E8081039
:1012700044BF51F8043B40F8043BD20724BF31F887
:10128000022B20F8022B44BF0B7803707047121F0B
:1012900017D35B0009D151F8043B20F8023B1B0C2B
:1012A000121F20F8023BF6D20BE051F8043B00F885
:1012B000013B1B0A20F8023B1B0C121F00F8013BEC
:1012C000F3D238BF121D521E24BF11F8013B00F8A3
:1012D000013BF8D87047000010B5144600F002F842
:1012E000226010BDC1F30A5343B14A0012F5001F3A
:1012F00028D2A3F2FE32A1EB0251704750EA410C12
:1013000020D001F0004C31EA0C01B1FA81F204BFA7
:10131000B0FA80F3D2180B3AB2F120032CBF00FAD6
:1013200003F1914041EA0C013EBFC2F1200C20FACA
:101330000CF319439040524240F2FD33D21A01EBB4
:10134000035170470022704741EA030C50EA4C0CED
:1013500052EA0C0C4FF4001C09D307D01CEB410FD0
:101360009CBF1CEB430F8B4208BF824270471CEBB3
:10137000430FFBD8994208BF9042704741EA030CE3
:1013800050EA4C0C52EA0C0C4FF4001C09D307D065
:101390001CEB410F9CBF1CEB430F994208BF9042CE
:1013A00070471CEB410FFBD88B4208BF824270474D
:1013B000124254D440F2FF7C1CEA11530FD0634513
:1013C00031D09B1863453CBF01EB0251704701F0DF
:1013D000004141EA0C510020AFF30080704750EA11
:1013E000410320D001F0004C91EA0C011CD0B1FA6D
:1013F00081F30B3B9A420DD9D21A994051EA0C0164
:10140000C3F1200C20FA0CFC61449840531C40F2BC
:10141000FF7CD7E7914041EA0C01C2F1200C20FA91
:101420000CF3194390407047B0FA80F31533202B2A
:10143000E0D3202AEED3203A203B9A4209D9D21A8F
:1014400000FA03F141EA0C010020531C40F2FF7C3A
:10145000B8E700FA02F141EA0C010020704752425D
:1014600040F2FF7C1CEA11530DD06345DBD0B2EB98
:10147000030C3CBFA1EB025170470CF1010221EAC1
:10148000035141F4801150EA410CCCD001F0004CE2
:10149000352A27DC30B481EA0C01B2F1200309DAE5
:1014A000C2F12003044601FA03F5D0402843D1409D
:1014B0009C400CE0C3F12002450020FA03F418BF61
:1014C00044F0010421FA03F091400C43002174F12F
:1014D000004550F1000051EB0C01244230BC7FF478
:1014E0007BAF70476146002076E70000C1F30A53E6
:1014F00040F21E42D31A0CDDCA0283F3070342EA0C
:10150000505242F00042DA4002EBE17282EAE170AE
:1015100070476FEAE17203F2E13008B182F00040F7
:101520007047000010F0004160B148BF4042B0FA7F
:1015300080F29040D21CC2F5846241EA025202EB72
:10154000D021400570470000841A71EB030604D2D5
:101550006E40001BB141121973414FF4001C1CEB8B
:10156000410F34BF7CEB430683E00C0DA4EB135614
:10157000362E00F37C80012E45EAC32341DC43EA8A
:10158000525312BFD20292025B08240545EAC121E0
:1015900041EA5051D2EBC020994125D407D1B0FA8D
:1015A00080F610FA06F162D00020203608E0B1FA89
:1015B00081F6B140C6F1200220FA02F21143B04098
:1015C0004FEAF474B4EB465434F001064FEA740465
:1015D0000AD8D6F50016760D04F00044F04061FA02
:1015E00006F25040F1404840C00A40EA415021F024
:1015F000004128BF5FEA500550F1000044EBD121C3
:1016000035E0DB0A45EAC121C90AB6F120050EDD45
:1016100042EA0242120CC5F1200603FA06F6EB403C
:1016200042EA06056D42984161F100010DE062FA5F
:1016300006F5F240554063FA06FC82EA0C02F340DC
:101640005A406D42904161EB030111F4801F05D1B6
:10165000641E620502D06D004041494121F48011B1
:10166000430875F1004350F1000041EB045170BC98
:1016700070471CEB410F15D223F0004352EA43069A
:101680000BD04FEA4C0CBCEB410F04D80C0D661E7E
:10169000342EB7DDEBE7801A994150EA410608BFC6
:1016A0000021E4E708BF1CEB430F28BF6FF00001E7
:1016B000DDE7000070B491EA030F4FF000457FF5BD
:1016C00043AF6B40841A71EB030603D2001BB14198
:1016D000121973414FF4001C1CEB410F34BF7CEB1B
:1016E000430442E00C0DA4EB1356352E4FDC45EAC3
:1016F000C323DB0A45EAC121C912B6F120050DDD7D
:1017000063FA05F6EB4086EA0305124218BF45F07E
:101710000105C01851F100010CD213E062FA06F580
:10172000F2405540F3415A40B340F3405A408018CC
:10173000594107D349085FEA30005FEA350528BF01
:1017400045F0010501F58011420875F1004250F1A4
:10175000000041EB04514E0016F5001F70BC38BF6D
:1017600070470020090D090570471CEB410F10D28E
:1017700052EA43060BD0BCEB410F05D80C0DAB432E
:10178000661E342EB6DD02E0AB438018594170BCB2
:10179000704770BC70470000F0B540F2FF7581EAF9
:1017A000030C0CF0004C15EA11541DBF15EA135739
:1017B000AC42AF42E5E0BC41C1F31301C3F31303F4
:1017C000801A994143F4801304D2641E00184941E1
:1017D00080185941C90241EA5051B1FBF3F603FBAD
:1017E0001611A2FB0675D7EBC020A94102D2761EC6
:1017F00080185941C90241EA5051B1FBF3FE03FB85
:101800001E11A2FB0E75D7EBC020A94103D2AEF189
:10181000010E80185941890241EA9051760546EA45
:101820008E2EB1FBF3F603FB1611A2FB0675D7EB68
:101830008020A94102D2761E80185941C90241EA8E
:1018400050514EEA060EB1FBF3F603FB1611A2FB54
:101850000675D7EBC020A94102D2761E80185941E7
:10186000C90241EA5051B1FBF3F703FB1711A2FB88
:101870000735D3EBC020A94167F100070CBF004238
:1018800047F0010766F3D5274FEA1E31B80814F573
:10189000806412DDBD0775F1004250EB0E5051EB34
:1018A000045111F5801F5CBF41EA0C01F0BD4CF002
:1018B0007F6141F0E0410020F0BDBD076D0840EAC6
:1018C0000E5041F48011D4F10104B4F120060ADA7B
:1018D000C4F120060200E04001FA06F3E14018439B
:1018E000B24015430EE0342C13DCC6F1200445EA67
:1018F00040056D0820FA06F2154321FA06F0A140D2
:101900000D43002175F1004250F1000051EB0C0134
:10191000F0BD00205FEA0C01F0BDCFB992185B4129
:10192000B3FA83F704BFB2FA82F6BF190B3FB7F1DF
:1019300020062FBF02FA06F3BB40C7F1200622FAA9
:1019400006F638BF3343BA401CB1E419641E33E7CE
:101950007F4231F00041B1FA81F404BFB0FA80F661
:10196000A4190B3CB4F120062FBF00FA06F1A140E8
:10197000C4F1200620FA06F638BF3143A0403C1BD4
:101980001AE7AC421ABF05EA1357AF4212E050EA19
:1019900041061CBF52EA4306BFE750EA4107304602
:1019A00061461CBF41EA0551F0BD52EA430C08BF35
:1019B000C143F0BD00204FF4001616EB410F98BF55
:1019C00016EB430F08BF16EB410F24BFC14305E0E0
:1019D00016EB430F0CBF61464CEA0551F0BD000009
:1019E000400D40F21E4C40EAC120BCEB115C40F0BF
:1019F000004003D48CF30701C84070476FEAE170E0
:101A00007047000050B1B0FA80F18840C91CC1F5A0
:101A10008461090501EBD0214005704701467047FC
:101A200030B540F2FF7C1CEA11541DBF1CEA13556F
:101A3000644565453FE0641981EA030C6FF35F5329
:101A40000CF0004C43F48013C90241F0004141EA1C
:101A5000505EC5021100A5FB020200284FF00000F5
:101A6000EEFB01204FF00001E3FB052118BF42F01F
:101A70000102401800214941E3FB0E01A4F58064F6
:101A80000D0302D292184041494154F1010470DD26
:101A9000450872F1004250F1000051EB0451A1F5EC
:101AA000801102D441EA0C0130BD40F2FF7E4CEAC5
:101AB0000E51002030BD0CEA1355644518BF654532
:101AC00081EA030C0CF0004C41D050EA410E1CBFDF
:101AD00052EA430E02E06146002030BD24422C440D
:101AE0001BD15FEA050EF6D0090302BF01460020B4
:101AF000AEF1140EB1FA81F5AEEB050401FA05FE64
:101B00000C35C5F1200100FA05F5C8404EEA000E7B
:101B10006FF35F5343F480139CE733F00043B3FA51
:101B200083F504BFB2FA82FE75440B3D641BB5F128
:101B3000200E2FBF02FA0EF3AB40C5F1200E22FAA1
:101B40000EFE38BF43EA0E03AA40641C7CE750EA4D
:101B5000410E14BF52EA430E6FF000014FF400151E
:101B600015EB430F8EBF194615EB410F9DE7B4D817
:101B700030BDD4F10104B4F120050FDAC4F1200521
:101B8000520828BF42F0010210FA05FE01FA05F5DD
:101B90007244E2BFE0402843E1400FE0352C9ADC7C
:101BA000C5F1200452EA400220FA05F218BF42F0C3
:101BB000010231FA05F0A1400A43002172F100420E
:101BC00050F1000051EB0C0130BD0000004870479F
:101BD0002C010020BBBBE1B1B2F5803F80F07E80DC
:101BE000022A1ED98C46B1FBF2F102FB11C31B0481
:101BF00043EA1043B3FBF2FC02FB1C3380B240EA21
:101C00000343B3FBF2F002FB103240EA0C40002326
:101C10007047022A05D98446B0FBF2F002FB10C2DD
:101C200070474AB105D100F0010249085FEA30006F
:101C3000704700220023704700F0E8B80B00020054
:101C4000002100207047904271EB030CF6D3B3F5EE
:101C5000803F2FD2F0B5B3FA83F7B1FA81F4A7F140
:101C60000F0E3D1B5340CEF1200602FA0EF2F34157
:101C70005340B5F10F0746D80F3C2C444140C4F106
:101C80002006A040F1414140B1FBF3F603FB1611E1
:101C9000A2FB0645001BA94102D2761E80185941BD
:101CA00080EA010221FA0EF362FA0EF200215A4094
:101CB0003046F0BD30B4B1FBF3FC03FB1C11A2FBBA
:101CC0000C45001BA94103D2ACF1010C801859410D
:101CD00030BC02460B46604600217047B2F1807F5F
:101CE00065D3F0B5B2FA82F7B1FA81F4C7F10F0605
:101CF0003D1B22FA06F307F1110EF24120355A403E
:101D0000B5F10F07B8D94140C4F12006A040F14118
:101D10004140B1FBF3FC03FB1C11A2FB0C45001B73
:101D2000A94103D2BCF1010C801859410F2F12D3E5
:101D30000F3FC90341EA5041B1FBF3F603FB161113
:101D4000A2FB0645D4EBC030A94102D2761E801812
:101D5000594146EACC3C07B34140C7F12006B840A0
:101D6000F1414140B1FBF3F603FB1611A2FB06451E
:101D7000001BA94102D2761E8018594180EA010257
:101D800021FA0EF3C7F1200462FA0EF20CFA07F002
:101D90005A402CFA04F13043F0BD80EA010221FAE6
:101DA0000EF3002162FA0EF260465A40F0BD8C46F6
:101DB000B1FBF2F102FB11C31B0243EA1063B3FB58
:101DC000F2FC02FB1C331B024CEA002043EA1063C6
:101DD000B3FBF2FC02FB1C331B024CEA002043EA7B
:101DE0001063B3FBF2FC02FB1C331B024CEA002025
:101DF00043EA1063B3FBF2FC02FB1C324CEA002006
:101E000000237047012000F003B800007047000075
:101E100080B5AFF30080024A11001820ABBEFBE78B
:101E20002600020038B5040015D004F1800568686A
:101E3000002804D100202870204600F02FFE242026
:101E4000686020680168490849000160204600F088
:101E50001BFA012801D1012032BDA06A002802D05E
:101E6000204600F06BFB2068416821F490414160FE
:101E70002068816821F02A0181602068016841F0B2
:101E8000010101602046BDE8324000F0BBBB70B5E7
:101E90000446134604F180056868202849D10029CA
:101EA00001D0180001D1012070BD2878012840D050
:101EB00001202870216504F15406338073800020CE
:101EC000E86021206860706A00281ED0DFF8AC133B
:101ED000C162DFF8AC03716A0863DFF8A803716AB6
:101EE00048630020716A8863206800F12802216D30
:101EF000706A00F0CCFE002807D01020E8600020B7
:101F0000287020206860012070BD40202168086290
:101F1000002028702068083050E8001F41F0800140
:101F2000206800F1080242E800100028F2D10020E9
:101F300070BD022070BD30B4034603F18000846898
:101F4000202C22D1002901D0140001D101201DE054
:101F50000478012C19D0012404700020D866186878
:101F6000DFF81443A0420CD04068000209D518687D
:101F700050E8004F44F08064054645E800400028E2
:101F8000F5D1184630BC00F0DABB022030BC7047F7
:101F9000F8B504462668F1693268B36840F60F0068
:101FA000084004F15C050DD18F060BD5970601D4CE
:101FB000DF0007D56969002900F05D812046BDE892
:101FC000F4400847002800F08C80DFF8B408034292
:101FD00004D1DFF8B0783A4200F083800F46FF0763
:101FE00007D5D70505D5012737622E6B46F00106C8
:101FF0002E638E0709D51E46F60706D502262768EA
:102000003E622E6B46F004062E634E0709D51E462F
:10201000F60706D5042627683E622E6B46F00206B8
:102020002E630E070AD5960601D4034206D0082077
:1020300026683062286B40F008002863080509D53F
:10204000500107D54FF4006026683062286B40F0DD
:1020500020002863286B002800F00D81880608D531
:10206000900601D4D80004D56969002901D0204622
:102070008847286B21688968490602D410F0280F28
:1020800029D0204600F0D0FB2068806840061DD58E
:102090002068083050E8001F21F04001206800F15E
:1020A000080242E800100028F2D1286A00280DD06A
:1020B000DFF8D4178163286A00F065FE002800F07D
:1020C000DA80286A816BBDE8F44008472046BDE805
:1020D000F24000F053BF204600F050FF002028637C
:1020E000F1BD2869012840F09280C80640F18F8038
:1020F000D00640F18C801020306220688068400655
:102100004ED5286A0068406880B2002800F0B3808D
:102110002988884280F2AF806880286A0068006859
:10212000800634D4206850E8001F21F480710246F4
:1021300042E800100028F5D12068083050E8001F60
:1021400049084900206800F1080242E80010002810
:10215000F2D12068083050E8001F21F040012068CB
:1021600000F1080242E800100028F2D12020E862C5
:1021700000202861206850E8001F21F0100102466D
:1021800042E800100028F5D1286A00F0C6FD298831
:102190006888091A89B22046BDE8F44000F0EFBE15
:1021A00028886988411A6888002864D0084680B267
:1021B000002860D0206850E8002F22F49072034677
:1021C00043E800200028F5D12068083050E8002FAF
:1021D000DFF84C030240206800F1080343E80020C8
:1021E0000028F1D12020E862002028616861206881
:1021F00050E8002F22F01002034643E80020002898
:10220000F5D189B22046BDE8F44000F0B8BEC8025E
:1022100009D5580207D54FF4801030622046BDE83A
:10222000F24000F0ADBE08060AD5100601D418022F
:1022300006D5A96900291ED02046BDE8F44008470C
:10224000480606D5500604D52046BDE8F24000F009
:10225000DBBB080206D5500004D52046BDE8F2409D
:1022600000F08FBEC80106D5002A04D52046BDE87F
:10227000F24000F087BEF1BD00800040B1280008A8
:10228000F7280008A9290008F8B5044600252168A8
:102290000A68DFF8FC050240A06802432069024397
:1022A00060690243E06902430A6021684A6822F4D7
:1022B0004052E06802434A60A2692368DFF8CC1507
:1022C0008B4201D0206A02439E68DFF8C8050640B1
:1022D00032439A602268D36A1B09606A50EA03138A
:1022E000D3622068DFF8B02590420CD1DFF8AC252E
:1022F000126802F00302032A15D8DFE802F0024850
:10230000355E012210E0DFF8982590421BD1DFF8FE
:102310008C25126812F00C024DD0042A37D0082AFE
:1023200022D00C2A49D01022884240F07F80002A17
:1023300006D0022A43D0042A44D0082A45D047E0D8
:1023400001F012F946E0DFF85C2590420ED1DFF88B
:102350004C25126812F030022DD0102A17D0202AF6
:1023600002D0302A29D0DEE70222DDE7DFF8382567
:1023700090420ED1DFF82425126812F0C0021AD064
:10238000402A04D0802AEFD0C02A16D0CBE70422FE
:10239000CAE78842C7D1DFF80425126812F4406208
:1023A00009D0B2F5806FF2D0B2F5006FDCD0B2F593
:1023B000406F02D0B7E72A46B6E70822B4E7DFF855
:1023C000EC0407E001F097F804E04FF4004001E06E
:1023D00028460125002800F0988000BF51A1626ABC
:1023E00031F81210B0FBF1F63046626802EB4201A0
:1023F000884202D31103814201D2012585E00027E2
:1024000047EA166710464008002110EB0620794184
:102410000023FFF7DFFBA0F54071DFF810269142A3
:1024200002D22168C86070E001256EE0E069B0F575
:10243000004F38D1082A15D8DFE802F005080B1440
:102440000E141414110001F08FF80DE001F099F84A
:102450000AE0DFF8580407E001F04DF804E04FF41B
:10246000004001E02846012500284ED0D4F8041091
:102470002CA2636A32F81320B0FBF2F00A4652082D
:1024800002EB4002B2FBF1F04FF6F071A0F1100246
:102490008A4206D20140C0F3420001432068C16075
:1024A00033E0012531E0082A15D8DFE802F00508FD
:1024B0000B140E141414110001F056F80DE001F085
:1024C00060F80AE0DFF8E40307E001F014F804E044
:1024D0004FF4004001E028460125002815D061682E
:1024E00010A2636A32F81320B0FBF2F000EB510047
:1024F000B0FBF1F0A0F110014FF6F072914203D25F
:1025000080B22168C86000E0012504F16800012163
:102510004180018000218160C1602846F2BD000039
:10252000FEFFFFEF010002000400060008000A00A1
:102530000C001000200040008000000190F82810DE
:10254000C90706D50268536823F40033C16A0B43F8
:10255000536090F82810890706D50268536823F461
:102560008033016B0B43536090F82810490706D560
:102570000268536823F48023416B0B43536090F847
:102580002810090706D50268536823F40043816BBD
:102590000B43536090F82810C90606D5026893686B
:1025A00023F48053C16B0B43936090F82810890685
:1025B00006D50268936823F40053016C0B439360C3
:1025C00090F82810490611D50268536823F4801347
:1025D000416C0B435360416CB1F5801F06D102681A
:1025E000536823F4C003816C0B43536090F82810A8
:1025F000090606D501684A6822F40022C06C02432D
:102600004A6070477CB5044604F180050020E8600C
:1026100001F018F806462068006800070BD56FF037
:102620007E400090334600224FF40011204600F017
:102630001BF800280FD12068006840070DD56FF007
:102640007E400090334600224FF48001204600F087
:102650000BF8002801D0032076BD20206860A86018
:102660000020E066287076BD2DE9F04105460E4653
:1026700017469846069C2868C0693040B04201D190
:10268000012000E000203946884255D114F1010FA5
:10269000F1D000F0D7FFA0EB0800844201D3002C5A
:1026A0001FD1286850E8001F21F4D071024642E88B
:1026B00000100028F5D12868083050E8001F4908AC
:1026C0004900286800F1080242E800100028F2D111
:1026D00005F180002021416081600021017003200C
:1026E0002BE0286801684907C5D5C1690905C2D52D
:1026F0004FF400610162286850E8001F21F4D07196
:10270000024642E800100028F5D12868083050E859
:10271000001F49084900286800F1080242E800103B
:102720000028F2D105F18000202141608160C16064
:1027300000210170032000E00020BDE8F08170B5A9
:1027400004461346A16504F15C06338004F180055C
:102750000020E8602220A860306A00281ED00FF216
:102760009D11C1620FF22920316A08630FF23920EE
:10277000316A48630020316A8863A26D206800F1E5
:102780002401306A00F083FA002807D01020E860A6
:10279000002028702020A860012070BD0020287033
:1027A0002069002809D0206850E8001F41F480719A
:1027B000024642E800100028F5D12068083050E8B1
:1027C000001F41F00101206800F1080242E80010FA
:1027D0000028F2D12068083050E8001F41F0400185
:1027E000206800F1080242E800100028F2D1002021
:1027F00070BD016851E8002F22F0C0020B4643E88B
:1028000000210029F5D10168083151E8002F22F498
:102810000002016801F1080343E800210029F2D118
:102820002021C0F884107047016851E8002F22F47D
:1028300090720B4643E800210029F5D10168083168
:1028400051E8002FDFF8E8110A40016801F10803A0
:1028500043E800210029F1D1C16E012909D10168A5
:1028600051E8002F22F010020B4643E80021002916
:10287000F5D12021C0F888100021C166016770479A
:102880000100001020010004F92900080080004028
:10289000F369FFCFFFF4FF110038014088100240B8
:1028A0000044004000480040004C00400024F40078
:1028B0000146886A0968096889061AD40021A0F8C7
:1028C00056100168083151E8002F22F0800201689B
:1028D00001F1080343E800210029F2D1016851E821
:1028E000002F42F040020B4643E800210029F5D1B9
:1028F000704700F0ADBE806A00F0ABBE18B4826ACB
:1029000002F15C0100680068800634D40020488031
:10291000106850E8003F23F48073044644E8003018
:102920000028F5D11068083050E8003F5B085B00D4
:10293000106800F1080444E800300028F2D1106863
:10294000083050E8003F23F04003106800F108040D
:1029500044E800300028F2D12020C862086901282C
:1029600009D1106850E8003F23F01003044644E802
:1029700000300028F5D10869012804D109881046E3
:1029800014BC00F0FCBA104612BC00F063BE00009C
:10299000806A00F15C010A69012A03D109884908AB
:1029A00000F0EDBA00F057BE70B5846A04F18405FA
:1029B00028686E6821688968090607D5212805D12D
:1029C0000020A4F856002046FFF713FF2068806817
:1029D000400608D5222E06D1002004F156010881B8
:1029E0002046FFF721FFA86840F01000A8602046AD
:1029F000BDE8704000F0C2BA806A00F156010022C2
:102A00000A810A8000F0BABA016851E8002F22F06A
:102A100040020B4643E800210029F5D12021C0F8EF
:102A200084100021416700F013BE000000FD0F007C
:102A3000FEFFFFEF10B5604C604820604FF4E130BE
:102A400060600020A060E06020610C2060610020D8
:102A5000A061E06120626062A0622046FFF7E2F9B7
:102A6000002801D000F0CFFE0021204600F0F4FE47
:102A7000002801D000F0C7FE0021204600F00FFF23
:102A8000002801D000F0BFFE204600F0C7FE00285D
:102A900003D0BDE8104000F0B6BE10BD78B597B0C9
:102AA000044600221421684600F048FF0022442119
:102AB00006A800F043FF2068404988427AD10220EE
:102AC00006900020089006A800F056FF002801D0CC
:102AD00000F099FE3A48C16841F40031C160C16814
:102AE00001F4003105910599016841F0010101608F
:102AF000006800F001000590059804200090022075
:102B000001900020029003900720049069464FF046
:102B1000904001F065F8082000900220019001200B
:102B20000290002003900720049069464FF09040E7
:102B300001F056F8234D244E2E601A2068600020C4
:102B4000A860E8608020286100206861A8612020DA
:102B5000E86100202862284600F038F8002801D0FB
:102B600000F051FEE567AC6206F1140028661B20F8
:102B700068661020A8660020E8668020286700208C
:102B80006867A867E867C5F8800005F1600000F095
:102B90001DF8002801D000F036FE05F16000A067A6
:102BA000C5F8884000221146262001F056F926205B
:102BB00001F062F918B070BD240300200044004009
:102BC0004C100240640200200800024038B50400A6
:102BD00001D1012032BD216804F12405DFF878031A
:102BE00081420BD2DFF8740341181420B1FBF0F0DE
:102BF00080002862DFF86803E8610AE0DFF8640318
:102C000041181420B1FBF0F080002862DFF858036F
:102C1000E8610220687021680A686FF30E12A068EC
:102C20000243E06802432069024360690243A069ED
:102C30000243E0690243206A02430A60204600F032
:102C400062F9A068B0F5804F01D100206060207962
:102C5000696A0860E86AA96A4860606800280BD061
:102C6000052809D2204600F068F90020296B086089
:102C7000A86B696B486003E0002028636863A86361
:102C80000020A861012068700020287032BDF8B5CE
:102C90000446002504F124063078012801D10220E1
:102CA000F2BD012030707078012831D1022070709F
:102CB0002846B061206807687F087F0007602046CB
:102CC00000F000F92168F0680028086803D040F09F
:102CD0000E00086007E020F004000860206801682A
:102CE00041F00A010160706A0168C90303D50168F7
:102CF00041F480710160306B002803D0016841F419
:102D0000807101602068016841F00101016002E00A
:102D10002846307002252846F2BD10B4002100F18B
:102D200024025378022B03D004209061012123E078
:102D300003681C6824F00E041C60536A1C6824F4A9
:102D400080741C60006803685B085B0003600120FE
:102D500092F8203003F01F039840D3695860D06A7E
:102D6000936A5860106B002806D0036823F48073C0
:102D70000360906B536B58600120507000201070FE
:102D8000084610BC704710B5002400F124025178A9
:102D9000022907D004209061012050702046107055
:102DA00001242BE001680B6823F00E030B6001681F
:102DB0000B685B085B000B60516A0B6823F480733F
:102DC0000B60012192F8203003F01F039940D36972
:102DD0005960D16A936A5960116B002906D00B685B
:102DE00023F480730B60916B536B59600121517018
:102DF000214611705169002900D08847204610BD36
:102E0000F0B400F12401CA6914680268156891F8E9
:102E1000206006F01F06042303FA06F73C4214D094
:102E20006F0712D51468A40603D4146824F00404B0
:102E3000146091F8202002F01F029340CA69536089
:102E4000C96800293CD0F0BC0847022303FA06F702
:102E50003C4218D0AF0716D51468A40605D41468F0
:102E600024F00A04146001224A7091F8202002F034
:102E70001F029340CA69536000220A7089680029C2
:102E80001ED0F0BC0847082303FA06F6344217D0D8
:102E90002B0715D5136823F00E031360012291F858
:102EA000203003F01F039A40CB695A6001228A61E7
:102EB0004A7000220A700969002901D0F0BC084755
:102EC000F0BC704730B4046DC56C6C60446D002C70
:102ED00002D0C46D856D6C60012490F8445005F0FB
:102EE0001F05AC40056C6C6004686360036884680F
:102EF000102C03D19A600068C16002E099600068FC
:102F0000C26030BC70470168184A134B994200D325
:102F1000203201F0FF0108391423B1FBF3F1436CB7
:102F20009B0812EB83028264114AC264012201F001
:102F30001F0102FA01F10165704701790D4A02EBA8
:102F4000810242650C4A82650122491E01F01F017F
:102F50008A40C2657047000008040240F8FFFDBFC8
:102F600000000240F8FBFDBF0004024000080240E0
:102F700080080240FC080240400902407047704748
:102F800070477047704700002DE9F843040000F0D7
:102F9000E281DFF870562078C00712D5A86800F0EB
:102FA0000C00E96801F003010C2801D1032901D0CC
:102FB000082845D12868800303D56068002800F000
:102FC000CA812078800721D5A86800F00C00E96844
:102FD00001F003010C2801D1022901D0042866D197
:102FE0002868400503D5E068002800F0B4816868CF
:102FF00020F0FE40216940EA01606860DFF81006B9
:10300000006800F049FF002840F0A581DFF8046661
:103010002078000740F1848060690028706870D0D3
:1030200040F00100706000F00DFB074670688007FB
:1030300076D400F007FBC01B0328F7D303208DE1F3
:103040006068B0F5803F04D1286840F48030286083
:1030500012E0B0F5A02F286807D140F48020286046
:10306000286840F48030286006E020F48030286032
:10307000286820F480202860606800280BD000F0C9
:10308000E1FA0646286880039BD400F0DBFA801B37
:103090006528F7D3D2E700F0D5FA06462868800302
:1030A0008FD500F0CFFA801B6528F7D3C6E7E0681C
:1030B0000028286816D040F48070286000F0C2FA1A
:1030C00006462868400505D400F0BCFA801B03289A
:1030D000F7D3B3E7686820F0FE40216940EA016059
:1030E000686093E720F48070286000F0ABFA064631
:1030F000286840058AD500F0A5FA801B0328F7D37D
:103100009CE740084000706000F09CFA0746706839
:10311000800705D500F096FAC01B0328F7D38DE78A
:103120002078400768D50027A86DC00009D4A86D95
:1031300040F08050A865A86D00F080500090009885
:103140000127DFF8D484D8F80000C00513D4D8F8DC
:10315000000040F48070C8F8000000F073FA814667
:10316000D8F80000C00506D400F06CFAA0EB090006
:103170000328F5D362E7A068012804D1306840F045
:103180000100306011E00528306807D140F00400EC
:103190003060306840F00100306006E040084000D8
:1031A0003060306820F004003060A06800280ED045
:1031B00000F048FA80463068800717D400F042FAE1
:1031C000A0EB080041F289318842F4D336E700F0E1
:1031D00039FA80463068800708D500F033FAA0EB52
:1031E000080041F289318842F4D327E7012F03D147
:1031F000A86D20F08050A8652078800621D5A069B0
:103200000028B0680ED040F00100B06000F01AFA5B
:103210000746B068800714D400F014FAC01B0328D6
:10322000F7D30BE740084000B06000F00BFA074608
:10323000B068800705D500F005FAC01B0328F7D356
:10324000FCE6E069002800F08880A96801F00C0124
:103250000C2955D00228286820F0807028603AD1C7
:1032600000F0F0F906462868800105D500F0EAF97B
:10327000801B0328F7D3E1E6E868DFF8A0130840D5
:10328000216A0843616A491E40EA0110A16A40EAC6
:103290000120216B4908491E40EA4150616B4908F1
:1032A000491E40EA4160E16A40EAC160E86028687E
:1032B00040F080702860E86840F08070E86000F0BE
:1032C000C1F904462868800147D400F0BBF9001B0F
:1032D0000328F7D3B2E6E86880088000E860E96870
:1032E000DFF83C030140E96000F0ACF904462868CF
:1032F000800132D500F0A6F9001B0328F7D39DE624
:10330000012828D0E86800F00301226A914222D106
:1033100000F0F001626A521EB1EB021F1BD100F4F3
:10332000FE41A26AB1EB022F15D100F07841E26AAA
:10333000B1EBC26F0FD100F4C001226B5208521ED4
:10334000B1EB425F07D100F0C060616B4908491ED4
:10335000B0EB416F01D0012000E00020BDE8F28316
:103360002DE9F843044688460027002C61D0DFF899
:10337000B452286800F00F00404509D228680009BF
:1033800048EA00102860286800F00F00404550D13E
:10339000DFF870622078C0074DD5606803281AD125
:1033A0003068800145D500F00AF9DFF87C128842C8
:1033B00023D3B06810F0F00F05D0207880071CD51B
:1033C000A068002819D1B06820F0F00040F080001B
:1033D000B060802711E00228306828D1800328D50A
:1033E00000F089F8DFF84012884206D3B06820F078
:1033F000F00040F08000B0608027B1688908606804
:1034000050EA8101B16000F01DF98146B06800F01A
:103410000C006168B0EB810F0DD000F013F9A0EB48
:10342000090041F289318842F0D3032061E0400570
:10343000D6D401205DE02068810715D5400703D56B
:10344000B06840F4E060B0602078000705D5B0684F
:1034500020F4605040F4E060B060B16821F0F00109
:10346000A0680143B16005E0802F03D1B06820F06F
:10347000F000B060286800F00F00804514D2286882
:10348000000948EA0010286000F0DCF807462868C8
:1034900000F00F00404507D000F0D4F8C01B41F207
:1034A00089318842F3D3C0E72078400705D5B16859
:1034B00021F4E061E0680143B1602078000706D59F
:1034C000B06820F46050216940EAC100B06000F0AB
:1034D00012F85649B268C2F30312895C01F01F0169
:1034E000C8404A4908604A480068BDE8F24300F015
:1034F000D3BCBDE8F2834E49086800F00C000428F4
:1035000001D141487047086800F00C00082801D13B
:1035100048487047086800F00C000C281FD14A6822
:1035200002F003024868C0F30310401C032A07D1CD
:10353000404AB2FBF0F24868C0F30620424306E07E
:10354000314AB2FBF0F24868C0F3062042434868B3
:10355000C0F34160401C4000B2FBF0F07047002017
:1035600070472A480068704780B5FFF7FAFF324974
:103570002F4A1268C2F30222895C01F01F01C84081
:1035800002BD80B5FFF7EDFF2B49294A1268C2F34F
:10359000C222895C01F01F01C84002BD19480168C0
:1035A00041F400210160704710B5244C2068C0052B
:1035B00004D500F099FC4FF48070606010BD204984
:1035C0000A6802F003020868C0F30310401C032AD3
:1035D00007D1184AB2FBF0F20868C0F30620424354
:1035E00006E0094AB2FBF0F20868C0F30620424345
:1035F0000868C0F34160401C4000B2FBF0F0704727
:1036000000000000001002400024F4002801002007
:103610002001002090100240007000400C809F01AB
:10362000FFFFEEFE0020024001B4C4046850000811
:103630000810024000366E01D85000081C100240ED
:103640000C10024001480068704700BF1C010020B8
:103650007047704770477047704780B500F046FC70
:1036600000F00FF800F05EFC00F098FC00F0BEFCEB
:1036700000F0F4FCFFF7DEF900F03EF800F09DF8F2
:10368000FCE700B593B00022382105A800F056F9F8
:1036900000221421684600F051F9002000F070FD6E
:1036A000012005904FF48030069002200C900320FA
:1036B0000D9006200E9055200F9002201090119032
:1036C000129005A8FFF760FC002801D000F09BF8DD
:1036D0000F2000900320019000200290039004909E
:1036E00004216846FFF73CFE002801D000F08BF86B
:1036F000FFF754FF13B000BD10B572B63E4C204624
:10370000D4F8A81088474FF4807221692068FEF72A
:1037100012FC002801D000F076F8384C206800F048
:10372000AFFE002801D000F06EF8626EA16E206836
:1037300000F065FF002801D000F065F80020A060CF
:10374000E0604FF40020206100206061A061E06132
:103750002062606262B610BD70B5294C6068401C82
:103760006060B0F5FA7F27DB00206060224D234EB9
:1037700096F828201FA1E86801F0F8F8E868FDF73E
:103780000FFD014689B2284601F010F9306800F0BB
:1037900030FF002810D0207800280DD006F1280234
:1037A000311D306800F081FE002803D017A12846A3
:1037B00001F027F90020207070BD0F48D0F8AC1040
:1037C000084738B50D4D2C680068226890420FD12B
:1037D000A86E01420CD005F1580305F13002696E64
:1037E000204600F08BFE002802D0BDE831400AE000
:1037F00031BD000025640A006C000020000000209C
:10380000E4040020A8E772B6FEE7000043414E2022
:103810007478206661756C740000000010B400F1CB
:1038200080010A78012A01D1022013E001220A70E6
:1038300024224A60026813681468640864001460F3
:103840000022426623F00053006803602020486095
:103850001046087010BC704770B5044604F180052E
:103860002878012801D1022070BD01202870242071
:10387000686020680668026852085200026020688A
:10388000826822F0604211438160204600F02AF8ED
:1038900020680660202068600020287070BD70B528
:1038A000044604F180052878012801D1022070BD6A
:1038B0000120287024206860206806680268520889
:1038C000520002602068826822F0606211438160C9
:1038D000204600F007F8206806602020686000207D
:1038E000287070BD30B400F16802416E002903D128
:1038F00001205080108016E000688168490E01F0B8
:1039000007018068400F00BF0FF2280307A4255C61
:10391000ED00185C95FBF0F05080605CC000595CD5
:1039200090FBF1F0108030BC7047000001010103F2
:1039300007010000080402040801010162F30F22DC
:1039400062F31F4200B500BF13009646944610393B
:1039500028BFA0E80C50FAD85FEA417C28BF0CC011
:1039600048BF40F8042BC90728BF20F8022B48BFE6
:1039700000F8012B00BD00002DE9FC47054600249E
:103980002646DFF850722868000369D5A046F86C17
:10399000C0000AD4F86C40F08050F864F86C00F075
:1039A0008050009000984FF00108DFF82C92D9F871
:1039B000000040F48070C9F80000FFF743FE824623
:1039C000D9F80000C00506D4FFF73CFEA0EB0A00C2
:1039D0000328F5D3032420003AD1DFF80092D9F868
:1039E000000010F4407014D0296C884211D0D9F82E
:1039F000000020F44070D9F8001041F48031C9F87B
:103A00000010D9F8001021F48031C9F80010C9F86D
:103A10000000C0070FD5FFF715FE8246D9F8000059
:103A2000800708D4FFF70EFEA0EB0A0041F28931AF
:103A30008842F3D30324200008D1D9F8001021F4E0
:103A40004071286C0143C9F8001002E0264600E0EE
:103A50002646B8F1010F03D1F86C20F08050F864CD
:103A60002878C00705D5F96F8908686850EA810190
:103A7000F9672878800705D5F96F21F00C01A8684F
:103A80000143F9672878400705D5F96F21F0300127
:103A9000E8680143F9672878000705D5F96F21F038
:103AA000C00128690143F9672878800605D5F96FB8
:103AB00021F4406168690143F9672878400605D51B
:103AC000F96F21F44051A8690143F967287800068D
:103AD00005D5F96F21F44041E8690143F967286889
:103AE000C00505D5F96F21F44031286A0143F96713
:103AF0002868800505D5F96F21F44021686A0143E3
:103B0000F967286840050DD5F96F21F44011A86ABE
:103B10000143F967A86AB0F5801F03D1386840F403
:103B200080103860286800050DD5F96F21F4400138
:103B3000E86A0143F967E86AB0F5800F03D1386895
:103B400040F4801038602868C0040DD5F96F21F06A
:103B50004071286B0143F967286BB0F1807F03D176
:103B6000386840F480103860286880040DD5F96FFB
:103B700021F04061686B0143F967686BB0F1006F39
:103B800003D1386840F480103860286840040DD5AF
:103B9000F96F21F04061A86B0143F967A86BB0F1A0
:103BA000006F03D1386840F4801038602868000442
:103BB0000DD5F96F21F04051E86B0143F967E86BCF
:103BC000B0F1805F03D1386840F48030386030460F
:103BD000BDE8F6870C1002400070004090100240D3
:103BE000F8B502460B4600242DE04FF0060C05E028
:103BF000DFF88CC16245F8D14FF0050C0CFA06FCD9
:103C00004CEA070C45F821C05E498E68C5432E403A
:103C10005F68FF0200D506438E60CE682E405F6865
:103C2000BF0200D50643CE604E682E405F68BF03DA
:103C300000D506434E600E682E405D68ED0300D54A
:103C400006430E60641C18680146E14000F0918054
:103C50000127A7403840F5D0610003258D40ED4392
:103C60005E6806F0030CBCF1010F03D006F00306FA
:103C7000022E10D196682E40D3F80CC00CFA01FC2D
:103C80004CEA060696605668BE435F68C7F30017A5
:103C9000A7403E4356601E7906F00306032E05D06A
:103CA000D6682E409F688F403E43D6601E7906F04E
:103CB0000306022E15D12646F60802EB86073E6A59
:103CC0004FEA840C0CF01C0C4FF00F0E0EFA0CFE99
:103CD00026EA0E06D3F810E00EFA0CFC4CEA0606B3
:103CE0003E6216682E401D7905F0030505FA01F1C4
:103CF0000E431660596811F4403FA3D022490D6865
:103D000045F001050D60096801F00101009100997D
:103D1000214689081D4D55F82170A60006F00C06B5
:103D20004FF00F0C0CFA06FC27EA0C07B2F1904F8B
:103D300002D14FF0000C61E7DFF854C0624502D1B8
:103D40004FF0010C5AE7DFF84CC0624502D14FF04A
:103D5000020C53E7DFF840C0624502D14FF0030C7C
:103D60004CE7DFF838C062457FF442AF4FF0040CF7
:103D700044E7F1BD002A01D081617047816270473C
:103D80000014004800040140601002400800014097
:103D90000004004800080048000C004800100048DB
:103DA000374A13684FF6FF010B40000200F4E06051
:103DB0001843344908431060704731480068C0F325
:103DC00002207047010007D4012200F01F018A4041
:103DD0002D49400941F8202070470901020002D412
:103DE0002A48815470472A4802F00F02104400F814
:103DF000041C704710B400F00700C0F10703052B46
:103E000000D30423041D072C01D2002000E0C01EB3
:103E1000012404FA03F35B1E1940814004FA00F008
:103E2000401E1040084310BC704738B50446641E5D
:103E3000B4F1807F0AD2174D6C600F214FF0FF3034
:103E4000FFF7CBFF0020A86007202860B4F1807F37
:103E50008041C043C00F32BDA2E770B504460D4695
:103E60001646FFF7AAFF32462946FFF7C3FF014671
:103E70002046BDE87040B0E7A4E7D6E7FFF7C2BC34
:103E80000CED00E00000FA0500E100E000E400E0D5
:103E900018ED00E010E000E070B504460025104E7B
:103EA000B068002819D04FF47A71B1FBF0F00D49D9
:103EB0000968B1FBF0F0FFF7E0FF00280BD1102CF0
:103EC00007D22A4621464FF0FF30FFF7C6FF746045
:103ED00004E0012502E0012500E00125284670BD2F
:103EE0001C010020280100207047000010B50024AC
:103EF0000B48016821F480610160016841F4807120
:103F000001600320FFF7A8FF0F20FFF7C5FF00287F
:103F100001D0012401E000F0E7FD204610BD0000C3
:103F20000020024010B586B00022142101A8FFF73E
:103F300005FD1848016841F020010160016801F0A9
:103F4000200100910099016841F0010101600168C0
:103F500001F0010100910099016841F00201016046
:103F6000006800F00200009000980B4C00224FF413
:103F700080712046FFF7FEFE4FF480700190012013
:103F8000029000200390049001A92046FFF728FE2C
:103F900006B010BD4C1002400004004880B5124825
:103FA000016841F004010160016801F00401009121
:103FB0000099016841F001010160006800F0010012
:103FC00000900098002211460B20FFF746FF0B20BF
:103FD000FFF752FF002211460C20FFF73EFF0C2096
:103FE000BDE80240FFF748BF4810024080B51848BE
:103FF00018490160A92141600021816040F2E73148
:10400000C160002101614161816100F087FD0028EC
:1040100003D0BDE80140FFF7F6BB01BD00680D49C4
:10402000884200D0704780B50B48016841F4802178
:104030000160006800F48020009000980022114682
:104040001A20FFF70AFF1A20BDE80240FFF714BF4D
:1040500098040020004801406010024010B586B06E
:10406000444C4548206000206060A060E0602082F1
:10407000A0740A2060610120A0610E20E06102208E
:10408000206201206062A062E06220631C20606305
:104090000020A063E063204600F0EAF8002801D089
:1040A000FFF7B1FB002000900190029001200390E7
:1040B0000020049040F2FF7005906946204600F011
:1040C000B3F9002801D0FFF79EFB06B010BD18B56C
:1040D00097B004460022142101A8FFF72FFC00220C
:1040E000442106A8FFF72AFC2068234988423FD1D3
:1040F0004FF4805006904FF00070129006A8FFF722
:104100003BFC002801D0FFF77EFB1C48C16841F052
:104110000071C160C16801F00071009100990168EF
:1041200041F001010160006800F00100009000987A
:104130004FF4C05001900220029001200390032010
:1041400004900920059001A94FF09040FFF748FD29
:10415000002211461520FFF780FE1520FFF78CFE88
:10416000002211461620FFF778FE1620FFF784FE86
:1041700018B010BD34040020006400404C10024010
:10418000DFF8D81000282BD1DFF8D4000A6802F439
:10419000C062B2F5806F1ED1026822F480720260A4
:1041A000086820F4C06040F400700860DFF8B400D4
:1041B000026832204243DFF8B000B2FBF0F0401C4E
:1041C00000E0401E4A69520501D50028F9D148692E
:1041D00040052ED43AE0016821F48071016035E099
:1041E000B0F5007F2CD1DFF878000A6802F4C062D5
:1041F000B2F5806F1FD1026842F4807202600868D5
:1042000020F4C06040F400700860DFF858000268D5
:1042100032204243DFF85000B2FBF0F0401C00E0D7
:10422000401E4A69520501D50028F9D14869400568
:104230000CD503207047016841F48071016005E0EE
:10424000086820F4C06040F4806008600020704777
:104250000648016841F480410160704700700040E9
:10426000807000402801002040420F00087000408C
:1042700070B5040001D1012070BD04F15C052878FF
:10428000002804D1002068702046FFF720FF206836
:10429000816921F010018161FFF7D4F90646206899
:1042A000816909070CD5FFF7CDF9801B0B28F6D3E0
:1042B000686840F00100686003202870012070BD2C
:1042C000816941F001018161FFF7BCF90646206870
:1042D0008169C9070CD4FFF7B5F9801B0B28F6D309
:1042E000686840F00100686003202870012070BDFC
:1042F000816941F00201816120684949884202D107
:104300006068484908602068217C0129816903D1DF
:1043100021F04001816102E041F0400181612068AB
:10432000617C0129816903D141F48041816102E00E
:1043300021F4804181612068A17C0129816903D138
:1043400021F48051816102E041F480518161216852
:104350008A6922F44072A06802438A6120688169F8
:1043600021F0A40181612068016921F0100101613F
:10437000E068012805D12068816941F0040181616C
:1043800019E0002817D021680228886910D040F071
:10439000800088612068016941F010010161E068D6
:1043A000032808D12068816941F02001816102E081
:1043B00040F020008861A069401EE169491E0902A1
:1043C00041EA4061206A401E01436069401E41EAA3
:1043D00000412068C161A068B0F5407F0FD1A06A9C
:1043E000401EE16A491E40EA0120216B491E40EA55
:1043F0000110616A491E40EA01402168C8602168D5
:10440000D1F8C020E06B0243C1F8C020204600F084
:1044100033FA0020A065686001202870002070BD7C
:10442000006400400065004070B400F15C02137845
:10443000012B01D0022B1CD18A6892074B684C6972
:104440000D69CE680968002909D142EAC66242EACC
:1044500005422243006C00EB8300026007E0224328
:10446000406C00EBC30045EA4675056042600020E1
:1044700004E0506840F002005060012070BC7047BA
:1044800000F15C010A78012A09D102220A70006851
:104490008269520852008261002048607047486873
:1044A00040F0040048600120704738B5044604F12C
:1044B0005C000378022B1BD12368D3F8C450AD02F3
:1044C00005D5416841F400714160012032BDD3F847
:1044D000C400C0F301452B46204600F007FA012036
:1044E00000FA05F52068C0F8CC50A565002032BD63
:1044F000416841F008014160012032BDF0B400F193
:104500005C042578022D6DD105689035402912D1C3
:104510002E6816F00F0F05D1606840F4807060605F
:10452000012064E02C68C4F30125866C05EBC5040A
:1045300006EBC40611E0AE6816F00F0F05D16068F7
:1045400040F480706060012051E0AC68C4F3012544
:10455000C66C05EBC50406EBC406346814F0804451
:104560005460376803D1C7F38A44146002E027F02F
:1045700060471760346804F00054946056F8044BA8
:1045800004F0004414613468A4B2D461346804F4C3
:104590007024D460346804F480145461346804F4E2
:1045A000001494613468C4F30664146256F8044B32
:1045B000E40F5462002402E0375D1F55641C0FF2C3
:1045C0009C37D2F80CC04FEA1C4C17F80C70BC4258
:1045D000F2D300689430402901D1056000E0856085
:1045E000002004E0606840F0080060600120F0BC3A
:1045F00070470068D0F8C40000F00700704730B47E
:1046000000F15C031C78012C01D0022C66D10468F7
:10461000A36D11F0070F01D0DD071DD511F0380F84
:1046200001D09D0718D511F4E07F01D05D0713D5A7
:1046300011F4F05F01D01D070ED511F4604F01D0C9
:10464000DD0609D511F4403F01D09D0604D511F4D3
:104650007C0F05D05D0603D4E56D45F00105E565E9
:1046600011F0070F01D0DC071DD411F0380F01D075
:104670009C0718D411F4E07F01D05C0713D411F427
:10468000F05F01D01C070ED411F4604F01D0DC069E
:1046900009D411F4403F01D09C0604D411F47C0FDE
:1046A00006D05B0604D50368DC6D44F00204DC65CB
:1046B0000B0605D50368D3F8DC401443C3F8DC408F
:1046C000CB0505D50368D3F8E0402243C3F8E020CA
:1046D0000068426D11434165002004E0586840F0D5
:1046E00002005860012030BC70472DE9F843814634
:1046F000D9F800100C6D04F4E054486D04400D6DC1
:1047000005F00705486D05400E6D06F03806486D4A
:104710000640D1F8508008F47108486D00EA080896
:104720000F6D07F46027486D0740086D400607D5F8
:10473000486D400604D540200865484600F066FBF9
:10474000D9F80020106DC0050DD5506DC0050AD5F3
:1047500002F1D8000168806801404FF48070106554
:10476000484600F054FB002C06D0D9F80000046540
:104770002146484600F04CFB002D06D0D9F8000039
:10478000056529464846FFF71CF8002E06D0D9F8E3
:10479000000006653146484600F03BFBD9F80000B2
:1047A000016D890508D5416D890505D54FF4007166
:1047B0000165484600F02EFBD9F80020106D000678
:1047C0000CD5506D000609D502F1D400016880684F
:1047D000014080201065484600F01DFBD9F800001C
:1047E000016D890408D5416D890405D54FF4005148
:1047F0000165484600F010FBD9F80000016D09047E
:1048000008D5416D090405D54FF4004101654846BE
:1048100000F003FBD9F80000016D49040BD5416D90
:10482000490408D54FF480410165D9F8600040F093
:104830008000C9F86000002F06D0D9F80000076595
:104840003946484600F0EAFAB8F1000F09D0D9F825
:104850000000C0F85080D9F8600048EA0008C9F8A4
:104860006080D9F86000002804D04846BDE8F243D3
:1048700000F0D5BABDE8F18310B4154901640268AF
:10488000D2F8803023F4F813446B43EA0443C2F8AF
:104890008030104A42640268D2F8803023F070639E
:1048A000846B43EA0463C2F880300B4A82640B4A8B
:1048B000C2640B4A02650B4A426502E000200860B0
:1048C000091D09488142F9D310BC7047000000005F
:1048D00000A4004070A40040B0A4004088A500409F
:1048E00060A6004078A6004050A7004070B40D6953
:1048F0008C6825430E684C68002C02D145EA864539
:1049000002E0354345F080450C6ACE6946EA04660C
:104910008C6926434C692643CC682643406D03EBE3
:10492000C30400EBC40005604660083000230DE0BE
:10493000D418E578A678360446EA0566657846EA2E
:1049400005262478264340F8046B1B1D03A4CD687C
:104950002D0C645DA342EBD370BC704700010203D1
:1049600004050607080C1014182030400CB430B5AC
:1049700083B00A4606A902910446002501940095D9
:1049800002AB01A9084878441E30FBF725FC019AC8
:10499000157000284EBF04460198041B204603B042
:1049A00030BC5DF80CFB00BFAFC7FFFF0A460368D1
:1049B0001968C9694906FBD5C1681846FDF767BA89
:1049C00001464FF0FF304A6812685368C3F58073A0
:1049D0004B618A69934207D0086913461BB2C05CD9
:1049E000521C02F0FF028A61704701464868006865
:1049F0004068C0F5807048618969401A00F0FF0086
:104A0000704738B504460D46E06800F009FA2846BC
:104A1000FCF7C6FB014689B22046BDE83440C5E735
:104A20000549016005494160054981600549016109
:104A30000549C16070470000240300206402002083
:104A4000C402002064010020B403002038B50446ED
:104A500001E0401CE0832046FFF7C7FF002811D08B
:104A60002046FFF7ADFF04F12201E28B8854E08B72
:104A7000014604F12202525C0A2A01D04029E8DBF7
:104A800001202077207F00282DD000202084616E17
:104A900004F1220000F0D0F904F16801228C41F801
:104AA00022000AE06D1C2584616E002000F0C4F92C
:104AB00004F16801ADB241F82500258C04F16800CD
:104AC000294650F821000028ECD1204600F0DAF900
:104AD0000020E08320770246402104F12200BDE857
:104AE000384000F0D1B931BD82B00B48816841F047
:104AF00001018160816801F0010100910099016864
:104B000041F080510160006800F0805000900098F2
:104B100002B0FFF79DBB00BF5810024038B504003B
:104B200001D1012032BD04F13C056878002804D190
:104B3000002028702046FFF771FA02206870211DBE
:104B4000206800F0F9F801202873A870E870287137
:104B50006871A871E87128726872A872E87268704A
:104B6000002032BD10B5044620680169890717D5B9
:104B7000C168890714D56FF0020101610120207717
:104B80002068806910F0030F204602D000F0AFF9D2
:104B900004E000F0ADF9204600F0ABF900202077EA
:104BA00020680169490717D5C168490714D56FF016
:104BB00004010161022020772068806910F4407FA1
:104BC000204602D000F093F904E000F091F920466D
:104BD00000F08FF90020207720680169090717D5B8
:104BE000C168090714D56FF008010161042020771E
:104BF0002068C06910F0030F204602D000F077F95A
:104C000004E000F075F9204600F073F900202077E9
:104C100020680169C90617D5C168C90614D56FF0A7
:104C200010010161082020772068C06910F4407FDE
:104C3000204602D000F05BF904E000F059F920466C
:104C400000F057F90020207720680169C90708D5CE
:104C5000C168C90705D56FF0010101612046FEF763
:104C6000FBFC20680169090608D5C168090605D55D
:104C70006FF080010161204600F03CF92068016975
:104C8000C90508D5C168090605D56FF480710161B1
:104C9000204600F030F920680169490608D5C1684E
:104CA000490605D56FF040010161204600F024F966
:104CB00020680169890608D5C168890605D56FF0A5
:104CC00020010161204600F018F920680169C9023D
:104CD00008D5C168C90205D56FF48011016120466D
:104CE00000F00CF920680169890208D5C1688902C1
:104CF00005D56FF400110161204600F000F920682D
:104D00000169490208D5C168490205D56FF48001DF
:104D10000161204600F0F4F82068016909020AD513
:104D2000C168090207D56FF4000101612046BDE8A2
:104D3000104000F0E6B810BD10B40468DFF8B030E1
:104D400098420ED0B0F1804F0BD0DFF8A8209042EF
:104D500007D0DFF8B420904203D0DFF89C209042C7
:104D600003D124F070044A68144398421AD0B0F179
:104D7000804F17D0DFF87C20904213D0DFF88820D6
:104D800090420FD0DFF8702090420BD0DFF86C20FB
:104D9000904207D0DFF86820904203D0DFF864200B
:104DA000904203D124F44074CA68144324F0800470
:104DB0004A69144304608A68C2620A68826298423F
:104DC0000FD0DFF8342090420BD0DFF83020904233
:104DD00007D0DFF82C20904203D0DFF82820904243
:104DE00001D1096901630121416110BC70470000D4
:104DF000002C01400004004000340140004001400C
:104E000000440140004801400008004070477047DE
:104E100070477047704770477047704770477047DA
:104E20005FEA000C11F8012B00F8012B12B111F808
:104E3000012BF9E76046704738B504000D460BD0EA
:104E40002946204600F05EF80444207848B90C4812
:104E500000210160002032BD09490C68002CEFD10F
:104E600032BD2946204600F05EF82118087810B1BE
:104E7000002201F8012B02480160204632BD00BF2C
:104E8000EC0400207047000062F30F2262F31F421F
:104E9000401810F0030308D0C91A1FD3DB0748BF1E
:104EA00000F8012D28BF20F8022D130030B414465D
:104EB0001546103928BF20E93C00FAD8490728BF19
:104EC00020E90C0048BF40F8042D890028BF20F8D5
:104ED000022D48BF00F8012D30BC7047C91818BF1B
:104EE00000F8012DCB0728BF00F8012D704770474F
:104EF00070477047704770477047704770477047FA
:104F00007047704770B4044600E0641C23783BB1DE
:104F10000D462A7822B115F8016BB342F9D1F4E7B6
:104F2000201A70BC704770B4044600E0641C2378FB
:104F30003BB10D462A78002AF8D015F8016BB34230
:104F4000F8D1201A70BC704780B5FEF72DFBFEE744
:104F5000FEE7FEE7FEE7FEE770477047704780B563
:104F6000FEF78CFFBDE8014000F01CB80848FDF7D3
:104F700047BF0848FDF744BF0748FFF7B6BB0648E0
:104F8000FFF7B3BB0548FFF7EDBD0548FDF700B8D7
:104F900064020020C4020020340400209804002091
:104FA0002403002002490A68886882180A60704752
:104FB0001C01002030B4002512E050F8042BD30768
:104FC00044BF4A44521E091F042942F8045BFAD226
:104FD00013468C0744BF15809B1CC90748BF1D7032
:104FE00050F8041B0029E8D130BC704710B50749C0
:104FF00079441831064C7C44163404E00A68081DD4
:10500000114488470146A142F8D110BD2C00000090
:10501000480000004EF68851CEF20001086840F4C6
:1050200070000860BFF34F8FBFF36F8F4FF00070B9
:10503000E1EE100A704700007DFFFFFF90030000C3
:105040006401002000000000BFC0FFFF98010000C5
:10505000C0000000000000200248016841F4700117
:105060000160704788ED00E00000000000000000D3
:10507000010203040607080900F00DF8002801D01A
:10508000FFF7B4FFAFF300800020AFF30080FEF71E
:10509000E4FA00F002F80120704700F001B80000C7
:1050A00007463846FCF7B4FEFBE70000054801461A
:1050B00003B4684680F30988AFF30080FFF7AAFFC6
:1050C000FFF7DAFFA5EDF5FE0148804701480047EC
:1050D00059500008AD500008000000000102030410
:1050E0002C0A0D00FFF7FEBFFFF7FEBFFFF7FEBF64
:1050F000FFF7FEBFFFF7FEBFFFF7FEBFFFF7FEBFE4
:10510000FFF7FEBFFFF7FEBFFFF7FEBFFFF7FEBFD3
:10511000FFF7FEBFFFF7FEBFFFF7FEBFFFF7FEBFC3
:10512000FFF7FEBFFFF7FEBFFFF7FEBFFFF7FEBFB3
:10513000FFF7FEBFFFF7FEBFFFF7FEBFFFF7FEBFA3
:10514000FFF7FEBFFFF7FEBFFFF7FEBFFFF7FEBF93
:10515000FFF7FEBFFFF7FEBFFFF7FEBFFFF7FEBF83
:10516000FFF7FEBFFFF7FEBFFFF7FEBFFFF7FEBF73
:10517000FFF7FEBFFFF7FEBFFFF7FEBFFFF7FEBF63
:10518000FFF7FEBFFFF7FEBFFFF7FEBFFFF7FEBF53
:10519000FFF7FEBFFFF7FEBFFFF7FEBFFFF7FEBF43
:1051A000FFF7FEBFFFF7FEBFFFF7FEBFFFF7FEBF33
:1051B000FFF7FEBFFFF7FEBFFFF7FEBFFFF7FEBF23
:1051C000FFF7FEBFFFF7FEBFFFF7FEBFFFF7FEBF13
:1051D000FFF7FEBFFFF7FEBFFFF7FEBFFFF7FEBF03
:1051E000FFF7FEBF0334040020A4000001FD00000F
:1051F00040FD000001990003E0500008C0000721B5
:105200004A00084D4A0008FC000010FD000001FCA7
:10521000001E24F400D6120008D6120008D6120090
:1052200008D6120008D6120008D6120008D61200BE
:1052300008F8FF0BD6110008D6120008D612000895
:04524000FAFFFE0073
:04000005080050ADF2
:00000001FF
