:020000040800F2
:100000006010002041990008859600088D96000830
:100010008F96000891960008939600080000000053
:10002000000000000000000000000000959600089D
:100030009796000800000000999600089B9600081B
:100040005D990008619900086599000869990008A0
:10005000A9960008AD9600086D99000871990008EE
:1000600075990008799900087D990008AF960008F5
:10007000B5960008BB960008C19600088199000853
:100080008599000800000000899900088D990008F2
:1000900091990008C7960008CD960008D3960008ED
:1000A00095990008999900089D990008A199000860
:1000B000A5990008A9990008AD990008DB960008E9
:1000C000E1960008B1990008B5990008B9990008AF
:1000D000BD990008C1990008E7960008C599000875
:1000E00009970008C9990008CD990008D19900081E
:1000F000D5990008D9990008DD9900080000000092
:1001000000000000E199000800000000E5990008E7
:10011000E999000800000000ED990008F199000835
:10012000F5990008F9990008FD990008019A00085E
:10013000059A00080000000000000000099A00086D
:100140000D9A0008119A000800000000000000004D
:10015000000000000000000000000000000000009F
:10016000000000000000000000000000159A0008D8
:10017000199A0008000000000000000000000000C4
:1001800000000000119700080000000000000000BF
:10019000000000000000000000000000000000005F
:1001A00000000000000000001D9A0008219A0008CD
:1001B000259A0008299A00082D9A000800000000DE
:1001C00000000000319A000800000000000000005C
:1001D000359A0008399A000810B586B0DFF83C4619
:1001E000DFF83C06206000206060A060E060012035
:1001F000207400206074A0740A2060610120A06156
:100200000E20E0610220206201206062A062E062B4
:1002100020631C2060630020A063E063204601F09F
:10022000E1FB002801D002F064FC00200090019066
:100230000290012003900020049040F2FF7005908E
:100240006946204601F0AAFC002801D002F051FCCA
:1002500006B010BD18B597B004460022142101A8BD
:1002600002F080FC0022442106A802F07BFC2068FA
:10027000DFF8AC15884240D14FF4805006904FF023
:100280000070129006A802F08FFC002801D002F046
:1002900030FCDFF89005C16841F00071C160C168B1
:1002A00001F0007100910099016841F001010160C5
:1002B000006800F00100009000984FF4C0500190D9
:1002C0000220029001200390032004900920059051
:1002D00001A94FF0904002F09BFD00220121152062
:1002E00002F0E1FE152002F0EDFE002201211620B1
:1002F00002F0D9FE162002F0E5FE18B010BD3CB4A5
:10030000049DDFF8244500F5C060C4F8040101290C
:1003100004D0022908D004290ED01BE004F5947003
:100320002F210170057118E004F594702B210170E4
:1003300005712D12457110E004F5947023210170B0
:1003400005712946091241712946091481712D163A
:10035000C57102E0222084F8280104F594704270EF
:1003600012128270C37004F5807036BC32E118B48A
:10037000DFF8B41400F50072C1F8042101EB80121B
:1003800001F59473DFF8A444204410F8010C002810
:1003900005D032F9260C1870001258700AE052F895
:1003A000240C1870024612125A70024612149A70E7
:1003B0000016D87001F5807012BC0BE170B50446D0
:1003C000DFF8645405F5947600220821304602F0E7
:1003D000C9FB0020C5F804013470707005F5807009
:1003E000BDE87040F6E07CB50646DFF844440020E6
:1003F000606046F24005009103462A4602213046DD
:10040000FFF77DFFDFF8200400EB861636F93E0C7F
:1004100046F26601884218D173BD94ED010AF7EEE9
:10042000000A30EE200A84ED010AD4ED030AF8EE4A
:10043000600AB4EE600AF1EE10FA06DBDFF8F403AE
:10044000DFF8F413016002F054FB2078002803D198
:1004500036F93E0CA842E0D173BD38B505460C46CE
:100460000120DFF8CC130870601C2870DFF8CC1373
:1004700048788A7840EA0220688000B246F23F025B
:10048000801A0AD0801E02D023381BD03CE00879A5
:10049000497940EA0120A88031BD95F8200005EB9C
:1004A00040000A79497942EA0122428495F8200005
:1004B000401C85F82000C0B2052840D1002085F8F6
:1004C000200031BD08794A7940EA02208A7940EA61
:1004D0000240C97940EA0160A860E96A401A02F066
:1004E00001FED74AD74B02F00FFE41EC100B85ED11
:1004F000040BDFF83C2E02EBC402D2E9002302F029
:10050000D9FEC5E9040131BD08784F2802D1087928
:10051000286331BD4B2805D10879497940EA01208B
:10052000286331BD43280AD108794A7940EA02207C
:100530008A7940EA0240C97940EA0160286331BD06
:1005400038B505460C46601C287046F26600688087
:10055000BA4908784A7840EA0220A8808878CA78A0
:1005600040EA0220E88008794A7940EA02208A7944
:1005700040EA0240C97940EA0160A860E96A401A8D
:1005800002F0B0FDAE4AAF4B02F0BEFD41EC100BE5
:1005900085ED040BDFF8982D02EBC402D2E90023AD
:1005A00002F088FEC5E90401A888C0F3C000401E1F
:1005B0008041C00F32BD10B59B4C8020C4F80401AF
:1005C0000022082104F5947002F0CCFA04F5807042
:1005D000BDE8104070B50546954C00202070606065
:1005E00016E094ED010AF7EE000A30EE200A84EDE1
:1005F000010AD4ED030AF8EE600AB4EE600AF1EEE7
:1006000010FA05DB8B48DFF8DC1C016002F071FAA0
:1006100028680068006D8005E3D4864E7068A0608D
:10062000321D0221201D02F069FF0020606015E0EC
:1006300094ED010AF7EE000A30EE200A84ED010A7B
:10064000D4ED030AF8EE600AB4EE600AF1EE10FA97
:1006500004DB4FF08140306002F04BFA286801F073
:100660008EFB0028E4D07068A060321D0221201D9E
:1006700002F044FF05F12802291D286801F0CFFA95
:10068000002803D06C48306002F033FA2868006814
:10069000006DC00406D5DFF89C0C3060BDE87040EA
:1006A00002F027BA70BD18B45F4B00F5C060C3F804
:1006B000040103F5947040240470417009128170A4
:1006C000C27003F5807012BC84E72DE9F041074643
:1006D000574C0020606046F24108024641463846C9
:1006E000FFF7E1FF15E094ED010AF7EE000A30EEA6
:1006F000200A84ED010AD4ED030AF8EE600AB4EE94
:10070000600AF1EE10FA04DB4A484B49016002F03E
:10071000F0F94548394610EB8115A5F13E062078E1
:10072000002803D1B6F900004045DCD141484168BA
:10073000A160021D0221201D02F0E0FE7088C0F3BE
:10074000C000002821D046F23F080022414638462A
:10075000FFF7A9FF20780028FCD0B6F9000040453B
:10076000F8D1B07F001D052190FBF1F101EB810173
:10077000401A05EB400030F81E0C48F21011884278
:1007800003D13846BDE8F04139E0BDE8F08170B5ED
:100790000546274C0020606046F26406024631465A
:1007A0002846FFF780FF15E094ED010AF7EE000AF6
:1007B00030EE200A84ED010AD4ED030AF8EE600A57
:1007C000B4EE600AF1EE10FA04DB1A481A4901602F
:1007D00002F08FF92078002807D11348294600EB52
:1007E000811030F93E0CB042DED112484168A16060
:1007F000021D0221201DBDE8704002F07FBE10B531
:1008000004468021FFF7EFFD2046FFF75EFF084812
:1008100000780028FBD010BD0000000098090020DF
:10082000006400404C10024000000020340400200E
:1008300038040020AC0200200000A0405801002035
:100840005D8940F50F22493F2DE9F44F2DED0C8BCA
:1008500006460C4610464078401E052800F2A48249
:10086000DFE810F006006900DC005301AE0142022F
:1008700094ED009B9FED618B9FED62AB9FED63CB91
:10088000DFF8705A9FED63BB53EC192B51EC1C0B36
:1008900002F03AFC53EC192B02F036FC80468946F4
:1008A00053EC192B51EC1A0B02F02EFC42464B462E
:1008B00002F064FE53EC182B02F060FE53EC1B2B8D
:1008C00002F022FC53EC192B02F01EFCDFF81C2A6C
:1008D000DFF8143A02F0EEFCC5E9180194ED029B32
:1008E00053EC192B51EC1C0B02F00EFC53EC192BA2
:1008F00002F00AFC8046894653EC192B51EC1A0B86
:1009000002F002FC42464B4602F038FE53EC182B34
:1009100002F034FE53EC1B2B02F0F6FB53EC192BC8
:1009200002F0F2FBDFF8C429DFF8BC3902F0C2FCA8
:10093000C5E91A0138E294ED009B9FEDCF8B9FED46
:10094000D0AB9FEDD1CBDFF8AC599FED32BB53EC70
:10095000192B51EC1C0B02F0D7FB53EC192B02F0B6
:10096000D3FB8046894653EC192B51EC1A0B02F04D
:10097000CBFB42464B4602F001FE53EC182B02F033
:10098000FDFD53EC192B02F0BFFB53EC1B2B02F0C7
:10099000BBFBDFF85829DFF8583902F08BFCC5E9BA
:1009A000180194ED029B53EC192B51EC1C0B02F037
:1009B000ABFB53EC192B02F0A7FB8046894653ECA6
:1009C000192B51EC1A0B02F09FFB42464B4602F0EA
:1009D000D5FD53EC182B02F0D1FD53EC192B02F08E
:1009E00093FB53EC1B2B02F08FFBDFF80029DFF8A1
:1009F000003902F05FFCC5E91A01D5E12ECA6C90FE
:100A000049C614C027DA5548F949D23FB8921D1B90
:100A10008178D73F0000000000408F40DFF8C45DC0
:100A2000D5E90A23D5E9080102F06EFB8046894624
:100A3000D5E90623DFF8B00DD0E9000102F064FB30
:100A400042464B4602F09AFD41EC180B94ED00AB88
:100A50009FED8F9B9FED90BB9FED91CB9FED92DB28
:100A6000DFF8905853EC1A2B51EC1D0B02F04CFBA5
:100A700053EC1A2B02F048FB8046894653EC1A2BA4
:100A800051EC1C0B02F040FB42464B4602F076FD57
:100A900053EC1B2B02F072FD53EC182B02F034FBCD
:100AA00053EC1A2B02F030FB53EC192B02F02CFB09
:100AB000C5E9080194ED02AB53EC1A2B51EC1D0B68
:100AC00002F022FB53EC1A2B02F01EFB80468946F3
:100AD00053EC1A2B51EC1C0B02F016FB42464B4612
:100AE00002F04CFD53EC1B2B02F048FD53EC182B8D
:100AF00002F00AFB53EC1A2B02F006FB53EC192B05
:100B000002F002FBC5E90A014EE194ED009B9FED66
:100B1000688B9FED69AB9FED6ACBDFF8D8579FEDEF
:100B20006ABB53EC192B51EC1C0B02F0EDFA53ECA1
:100B3000192B02F0E9FA8046894653EC192B51EC47
:100B40001A0B02F0E1FA42464B4602F017FD53EC55
:100B5000182B02F013FD53EC1B2B02F0D5FA53ECCB
:100B6000192B02F0D1FA81F00041C5E9080194ED9A
:100B7000029B53EC192B51EC1C0B02F0C5FA53EC01
:100B8000192B02F0C1FA8046894653EC192B51EC1F
:100B90001A0B02F0B9FA42464B4602F0EFFC53EC56
:100BA000182B02F0EBFC53EC1B2B02F0ADFA53ECCC
:100BB000192B02F0A9FA81F00041C5E90A01F3E01E
:100BC00094ED009B9FED428B9FED43AB9FED44CB9B
:100BD000DFF820579FED3CBB53EC192B51EC1C0B5D
:100BE00002F092FA53EC192B02F08EFA80468946F5
:100BF00053EC192B51EC1A0B02F086FA42464B4685
:100C000002F0BCFC53EC182B02F0B8FC53EC1B2B8D
:100C100002F07AFA53EC192B02F076FA81F00041D7
:100C2000C5E9080194ED029B53EC192B51EC1C0B08
:100C300002F06AFA53EC192B02F066FA80468946F4
:100C400053EC192B51EC1A0B02F05EFA42464B465C
:100C500002F094FC53EC182B02F090FC53EC1B2B8D
:100C600002F052FA53EC192B02F04EFA81F00041D7
:100C7000C5E90A0198E000BFC217265305E31240F8
:100C80005B423EE8D9ACDA3FF9A067B3EA73E1BF53
:100C900075931804564E20C0C364AA60544262C0C3
:100CA0007FD93D7958A843403BDF4F8D976EFE3F7B
:100CB0001B118C834BC711C0F6EFFACC599FF7BFBD
:100CC0004E9D47C5FF1DEF3F0000000000408F40D4
:100CD0002FA3586E693511C01FF46C567DAEF1BF5D
:100CE000FB96395D1613E83FD4E9000102F076FD6A
:100CF00000EE100A02F0A6FDB0EE409ADFF8F4759F
:100D00009FEDD28BDFF8E08ADFF8D85AD5E90A23C5
:100D1000D5E9080102F0F8F982468B46D5E90623A9
:100D2000D8E9000102F0F0F952465B4602F026FCD9
:100D300082468B4619EE100A02F0CAFD52465B4607
:100D400002F0E2F953EC182B02F0DEF9C7E90801D2
:100D5000D4E9020102F042FD00EE100A02F072FD39
:100D6000B0EE409AD5E90A23D5E9080102F0CCF9A2
:100D700082468B46D5E90623D8E9000102F0C4F982
:100D800052465B4602F0FAFB04460D4619EE100A85
:100D900002F09EFD22462B4602F0B6F953EC182BCA
:100DA00002F0B2F9C7E90A010C980078401E052844
:100DB00000F28B82DFE810F006006900CC006601CB
:100DC000C401220296ED009B9FEDA28B9FEDA3AB89
:100DD0009FEDA4CBDFF81C459FED9CBB53EC192B7A
:100DE00051EC1C0B02F090F953EC192B02F08CF92A
:100DF0008046894653EC192B51EC1A0B02F084F90A
:100E000042464B4602F0BAFB53EC182B02F0B6FBFD
:100E100053EC1B2B02F078F953EC192B02F074F908
:100E2000DFF8C829DFF8C83902F044FAC4E9140130
:100E300096ED029B53EC192B51EC1C0B02F064F95C
:100E400053EC192B02F060F906460F4653EC192BB0
:100E500051EC1A0B02F058F932463B4602F08EFB79
:100E600053EC182B02F08AFB53EC1B2B02F04CF9CD
:100E700053EC192B02F048F9DFF87029DFF87039CC
:100E800002F018FAC4E916011FE296ED009B9FEDEF
:100E9000778B9FED78AB9FED79CBDFF858449FEDD2
:100EA0006BBB53EC192B51EC1C0B02F02DF953ECDE
:100EB000192B02F029F98046894653EC192B51EC85
:100EC0001A0B02F021F942464B4602F057FB53EC55
:100ED000182B02F053FB53EC192B02F015F953ECCD
:100EE0001B2B02F011F9DFF80429DFF8043902F0B6
:100EF000E1F9C4E9140196ED029B53EC192B51EC76
:100F00001C0B02F001F953EC192B02F0FDF8064618
:100F10000F4653EC192B51EC1A0B02F0F5F8324640
:100F20003B4602F02BFB53EC182B02F027FB53EC53
:100F3000192B02F0E9F853EC1B2B02F0E5F8DFF86F
:100F4000AC28DFF8AC3802F0B5F9C4E91601BCE111
:100F5000DFF89048D4E90423D4E9020102F0D4F880
:100F600080468946D4E90023DFF87C08D0E90001F7
:100F700002F0CAF842464B4602F000FB41EC180B67
:100F800096ED00AB9FEDEC9B9FEDD2BB9FEDECCBC4
:100F90009FEDD2DBD74C53EC1A2B51EC1D0B02F01A
:100FA000B3F853EC1A2B02F0AFF88046894653ECA5
:100FB0001A2B51EC1C0B02F0A7F842464B4602F0EC
:100FC000DDFA53EC1B2B02F0D9FA53EC182B02F08C
:100FD0009BF853EC1A2B02F097F853EC192B02F004
:100FE00093F8D4E9082302F0C9FAC4E9040196EDA4
:100FF00002AB53EC1A2B51EC1D0B02F085F853ECAD
:101000001A2B02F081F806460F4653EC1A2B51ECCE
:101010001C0B02F079F832463B4602F0AFFA53EC73
:101020001B2B02F0ABFA53EC182B02F06DF853ECCB
:101030001A2B02F069F853EC192B02F065F8D4E989
:101040000A2302F09BFAC4E906013EE10000000019
:1010500000408F4026AAB706B6BA25406DCA15DEF5
:10106000E522CEBF037D224F922EF3BFC05B20410D
:10107000F1432240643BDF4F8D97EABFB84082E2E4
:10108000C798E1BF96ED009B9FED9B8B9FED9CABBE
:101090009FED9DCB974C9FEDA4BB53EC192B51ECCE
:1010A0001C0B02F031F853EC192B02F02DF880469E
:1010B000894653EC192B51EC1A0B02F025F84246E5
:1010C0004B4602F05BFA53EC182B02F057FA53EC44
:1010D0001B2B02F019F853EC192B02F015F8D4E988
:1010E000082302F04BFAC4E9040196ED029B53EC8D
:1010F000192B51EC1C0B02F007F853EC192B02F0E2
:1011000003F806460F4653EC192B51EC1A0B01F06D
:10111000FBFF32463B4602F031FA53EC182B02F04B
:101120002DFA53EC1B2B01F0EFFF53EC192B01F0C0
:10113000EBFFD4E90A2302F021FAC4E90601C4E076
:1011400096ED009B9FED728B9FED73AB9FED74CB83
:10115000684C9FED75BB53EC192B51EC1C0B01F047
:10116000D3FF53EC192B01F0CFFF8046894653EC97
:10117000192B51EC1A0B01F0C7FF42464B4602F007
:10118000FDF953EC182B02F0F9F953EC1B2B01F08D
:10119000BBFF53EC192B01F0B7FFD4E9082302F091
:1011A000EDF9C4E9040196ED029B53EC192B51ECC7
:1011B0001C0B01F0A9FF53EC192B01F0A5FF06460B
:1011C0000F4653EC192B51EC1A0B01F09DFF3246E0
:1011D0003B4602F0D3F953EC182B02F0CFF953EC55
:1011E0001B2B01F091FF53EC192B01F08DFFD4E97B
:1011F0000A2302F0C3F9C4E9060166E0D6E900015A
:1012000002F0ECFA00EE100A02F01CFBB0EE409A7D
:10121000384C9FED458BDFF8D055DFF8C875D7E91E
:101220000423D7E9020101F06FFF80468946D7E920
:101230000023D5E9000101F067FF42464B4602F06A
:101240009DF98046894619EE100A02F041FB42469C
:101250004B4601F059FF53EC182B01F055FFD4E930
:10126000082302F08BF9C4E90401D6E9020102F077
:10127000B5FA00EE100A02F0E5FAB0EE409AD7E9AE
:101280000423D7E9020101F03FFF80468946D7E9F0
:101290000023D5E9000101F037FF42464B4602F03A
:1012A0006DF906460F4619EE100A02F011FB3246A0
:1012B0003B4601F029FF53EC182B01F025FFD4E940
:1012C0000A2302F05BF9C4E90601BDEC0C8BBDE812
:1012D000F18F00BFAAF1D24D62504B4011C7BAB88E
:1012E0008D8621C000004040A59018C08274B1696D
:1012F000A590184070010020CA32C4B12EB6234018
:1013000099F04BFDBCA9B43F8481E7DEC325F3BF50
:101310009D11A5BDC1772340C53D963E7441E7BFF1
:1013200081423D7D047EE2BF0000000000408F400E
:10133000D00200200000C0403D7E6FD39F2D304082
:1013400012A5BDC1172618402DE9F84F2DED108BC1
:10135000DFF8A09499ED1C8BD9E90C0153EC182B04
:1013600002F0CAF941EC190BD9E90E2351EC180B24
:1013700002F004F941EC1A0BD9E9100153EC182BD7
:1013800002F0BAF941EC1B0BD9E9122351EC180B0E
:1013900002F0F4F841EC1C0B80214FF0904001F07A
:1013A00001FEDFF87015087099F80010DFF868B5D5
:1013B000DFF868A501280CD1002965D002F0ACFA4D
:1013C000AAF80200002089F80000012089F8010035
:1013D0005AE0002909D102F09FFAAAF80200012080
:1013E00089F80000002089F801009BED040B8AEDCC
:1013F000060B9BED148B8AED088B0BF1900453ECDC
:10140000102BD4E9000102F0B9F8CAE90A0153EC43
:10141000182BD4E9100102F0B1F8CAE90C010AF165
:1014200040020AF128010AF11800FFF70DFA99F8B5
:101430000000002828D002F06FFABAF80210401A13
:10144000AAF80400B9F80640BAF80400DFF8985387
:10145000A04213D202F066FADAE90E2301F054FE3C
:1014600006460F46204602F05DFA02460B4630461D
:10147000394601F01FFFC5E9000105E0DFF82C0542
:10148000DFF82C15C5E9000199F80100002832D0D9
:1014900002F042FABAF80210401AAAF80400B9F8A9
:1014A00006406408BAF80400A04224D2CE4D21467A
:1014B000081A01F017FED5E9002301F025FE0646C3
:1014C0000F46204602F02EFA02460B4630463946B9
:1014D00001F0F0FE41EC100B85ED000BDFF8D42499
:1014E000DFF8D43402F02CFA05D200200146C5E919
:1014F000000189F801000026DFF8E88272E099F81F
:10150000010000286DD100200146C7E90401C7E9A8
:10151000080166E009EBC60798ED08DBB24890EDDC
:1015200000EBD8E90A2351EC1D0B01F0EDFD044658
:101530000D46D8E9062351EC1E0B01F0E5FD2246CD
:101540002B4602F01BF8D7E9182301F0DDFD41EC32
:10155000180B87ED088B98ED00FBD8E90401D8E95A
:10156000022301F0D1FD04460D4653EC1F2B51EC34
:101570001E0B01F0C9FD22462B4601F0FFFF044679
:101580000D4653EC1F2B51EC1D0B01F0BDFD224607
:101590002B4601F0F3FFD7E9142301F0B5FD53EC1E
:1015A000182B01F0EBFF41EC1D0B87ED04DB99F8E4
:1015B00000000028A3D09AED04EB51EC1E0B53EC75
:1015C000182B02F0D7F901D887ED08EB9AED028BC2
:1015D00051EC180B53EC1D2B02F0CCF901D887ED20
:1015E000048B761C012E95DD9AF80000422864D009
:1015F0004C2831D0522840F0BB8000200146C9E978
:101600000601C9E90A01DBE9240153EC192B02F0B8
:10161000B1F903D800200146C9E90801DBE904015A
:1016200053EC1B2B02F0A6F903D800200146C9E9B0
:101630000401DFF88843D9E90823D4E9040101F063
:1016400063FDC9E90801D9E90423D4E9000101F0E7
:101650005BFDC9E9040195E000200146C9E90401E8
:10166000C9E9080151EC1A0B0BF19002D2E91023E1
:1016700002F080F903D800200146C9E90A0151ECC3
:101680001C0BDBE9142302F075F903D80020014696
:10169000C9E90601DFF82443D9E90A23D4E90601A0
:1016A00001F032FDC9E90A01D9E90623D4E90201B2
:1016B00001F02AFDC9E9060164E00BF19004D4E9C8
:1016C000000153EC192B02F055F904D80020014613
:1016D000C9E9080109E0D9E90823DFF8E002D0E907
:1016E000040101F011FDC9E90801DBE9040153EC33
:1016F0001B2B02F03FF904D800200146C9E9040180
:1017000009E0D9E90423DFF8B402D0E9000101F0CF
:10171000FBFCC9E9040151EC1A0BD4E9102302F0D7
:1017200029F904D800200146C9E90A0109E0D9E9EC
:101730000A23DFF88802D0E9060101F0E5FCC9E9D7
:101740000A0151EC1C0BDBE9142302F013F904D855
:1017500000200146C9E9060114E0D9E90623DFF8B3
:101760005C02D0E9020101F0CFFCC9E9060109E001
:1017700000200146C9E90401C9E90601C9E90801D7
:10178000C9E90A01002426E009F1100000EBC400B9
:10179000D0E90001DFF8282202EBC402D2E90023DD
:1017A00001F088FDDFF81C22D2E9002301F082FD60
:1017B0000022DFF8143201F0A7FCDFF8142202EB5C
:1017C000C402D2E9002301F09FFC02F0EDF80BEB1C
:1017D00084114883641C042CD6DBBDEC108BBDE85F
:1017E000F18F000010030020C0020020EA5BE674C5
:1017F000590C2540700100201CB501247FE0082011
:101800000090002301212046C0B2FEF778FD0020A1
:10181000009003464FF4B05201212046C0B2FEF7BB
:101820006EFD6C48009001234FF4B0520421204615
:10183000C0B2FEF764FD0120009000234FF4B052C7
:1018400001462046C0B2FEF75AFD40F6C410009093
:10185000002346F2650204212046C0B2FEF74FFD88
:10186000642002F0BDF834E02046C0B2FEF72DFF40
:1018700046F260025848204410F8010C0028BED0FF
:101880000A200090002301212046C0B2FEF737FD58
:101890000020009003464FF4B05201212046C0B210
:1018A000FEF72DFD4D48009001234FF4B052042166
:1018B0002046C0B2FEF723FD0120009000234FF424
:1018C000B05201462046C0B2FEF719FD642002F076
:1018D00087F84AF2BC400090052343F2010204213C
:1018E0002046C0B2FEF70BFD384800221346C0E97F
:1018F000002311462046C0B2FEF775FD641C052C7E
:10190000B2DB642002F06CF88020BDE81640FEF7E0
:1019100055BD00004602002000000020F00100201C
:1019200030B42F4A91880B46C3F3C000002814D16D
:10193000B2F844402046C0F3C00000280DD1B2F8F0
:1019400084502846C0F3C000002806D1B2F8C42055
:101950001046C0F3C000002801D0002023E0A142BF
:1019600009D1A94207D1914205D1AC4203D1944299
:1019700001D1954201D0012015E00846400A01D16D
:10198000022010E0C3F38010002801D003200AE0F9
:1019900001F00500052801D1052004E0C80701D5A4
:1019A000042000E0062030BC7047000005A3923AF6
:1019B000019D33409A9999999999B93F580200200D
:1019C000D0020020C802002000408F40C00200204A
:1019D000F002002020007A603404002010007160C2
:1019E0000000002070B5040001D1012070BD04F199
:1019F0005C052878002804D1002068702046FEF796
:101A000029FC2068816921F01001816101F084FFC7
:101A100006462068816909070CD501F07DFF801B0F
:101A20000B28F6D3686840F0010068600320287036
:101A3000012070BD816941F00101816101F06CFFFD
:101A4000064620688169C9070CD401F065FF801B38
:101A50000B28F6D3686840F0010068600320287006
:101A6000012070BD816941F002018161206849490E
:101A7000884202D16068484908602068217C0129B9
:101A8000816903D121F04001816102E041F0400110
:101A900081612068617C0129816903D141F4804121
:101AA000816102E021F4804181612068A17C0129EB
:101AB000816903D121F48051816102E041F48051B8
:101AC000816121688A6922F44072A06802438A61B8
:101AD0002068816921F0A40181612068016921F0F9
:101AE00010010161E068012805D12068816941F099
:101AF0000401816119E0002817D021680228886953
:101B000010D040F0800088612068016941F0100128
:101B10000161E068032808D12068816941F0200153
:101B2000816102E040F020008861A069401EE16907
:101B3000491E090241EA4061206A401E0143606972
:101B4000401E41EA00412068C161A068B0F5407FB5
:101B50000FD1A06A401EE16A491E40EA0120216BB4
:101B6000491E40EA0110616A491E40EA01402168AD
:101B7000C8602168D1F8C020E06B0243C1F8C020E2
:101B8000204600F03FFA0020A06568600120287020
:101B9000002070BD006400400065004070B400F19A
:101BA0005C021378012B01D0022B1CD18A689207AA
:101BB0004B684C690D69CE680968002909D142EA71
:101BC000C66242EA05422243006C00EB83000260D9
:101BD00007E02243406C00EBC30045EA4675056010
:101BE0004260002004E0506840F002005060012094
:101BF00070BC704700F15C010A78012A09D1022209
:101C00000A700068826952085200826100204860B0
:101C10007047486840F0040048600120704738B5BC
:101C2000044604F15C000378022B1BD12368D3F82F
:101C3000C450AD0205D5416841F4007141600120F6
:101C400032BDD3F8C400C0F301452B46204600F056
:101C500013FA012000FA05F52068C0F8CC50A565FC
:101C6000002032BD416841F008014160012032BDD1
:101C7000F0B400F15C042578022D6DD10568903533
:101C8000402912D12E6816F00F0F05D1606840F47C
:101C900080706060012064E02C68C4F30125866CCC
:101CA00005EBC50406EBC40611E0AE6816F00F0F95
:101CB00005D1606840F480706060012051E0AC683C
:101CC000C4F30125C66C05EBC50406EBC4063468F5
:101CD00014F080445460376803D1C7F38A44146019
:101CE00002E027F060471760346804F00054946005
:101CF00056F8044B04F0004414613468A4B2D46173
:101D0000346804F47024D460346804F4801454619A
:101D1000346804F4001494613468C4F306641462F3
:101D200056F8044BE40F5462002402E0375D1F555F
:101D3000641C0FF2B437D2F80CC04FEA1C4C17F8F1
:101D40000C70BC42F2D300689430402901D1056088
:101D500000E08560002004E0606840F008006060FA
:101D60000120F0BC704700689030402903D1006822
:101D700000F00F007047806800F00F0070470068A7
:101D8000D0F8C40000F00700704730B400F15C03E5
:101D90001C78012C01D0022C66D10468A36D11F0CF
:101DA000070F01D0DD071DD511F0380F01D09D07B9
:101DB00018D511F4E07F01D05D0713D511F4F05F61
:101DC00001D01D070ED511F4604F01D0DD0609D5F5
:101DD00011F4403F01D09D0604D511F47C0F05D0CD
:101DE0005D0603D4E56D45F00105E56511F0070FCB
:101DF00001D0DC071DD411F0380F01D09C0718D496
:101E000011F4E07F01D05C0713D411F4F05F01D02E
:101E10001C070ED411F4604F01D0DC0609D411F474
:101E2000403F01D09C0604D411F47C0F06D05B0621
:101E300004D50368DC6D44F00204DC650B0605D5AF
:101E40000368D3F8DC401443C3F8DC40CB0505D568
:101E50000368D3F8E0402243C3F8E0200068426DF5
:101E600011434165002004E0586840F002005860CA
:101E7000012030BC70472DE9F8438146D9F80010A5
:101E80000C6D04F4E054486D04400D6D05F0070539
:101E9000486D05400E6D06F03806486D0640D1F8D5
:101EA000508008F47108486D00EA08080F6D07F4C7
:101EB0006027486D0740086D400607D5486D40060D
:101EC00004D540200865484601F09EFDD9F8002061
:101ED000106DC0050DD5506DC0050AD502F1D800B2
:101EE0000168806801404FF480701065484601F039
:101EF0008CFD002C06D0D9F8000004652146484628
:101F000001F084FD002D06D0D9F8000005652946B2
:101F1000484600F02CFC002E06D0D9F800000665DB
:101F20003146484601F073FDD9F80000016D89057E
:101F300008D5416D890505D54FF400710165484606
:101F400000F00FFCD9F80020106D00060CD5506D84
:101F5000000609D502F1D4000168806801408020A4
:101F60001065484601F054FDD9F80000016D890460
:101F700008D5416D890405D54FF4005101654846E7
:101F800001F047FDD9F80000016D090408D5416D45
:101F9000090405D54FF400410165484601F03AFDBA
:101FA000D9F80000016D49040BD5416D490408D5ED
:101FB0004FF480410165D9F8600040F08000C9F815
:101FC0006000002F06D0D9F8000007653946484662
:101FD00001F021FDB8F1000F09D0D9F80000C0F8D8
:101FE0005080D9F8600048EA0008C9F86080D9F844
:101FF0006000002804D04846BDE8F24301F00CBD63
:10200000BDE8F18310B4154901640268D2F880304C
:1020100023F4F813446B43EA0443C2F88030104AB7
:1020200042640268D2F8803023F07063846B43EA24
:102030000463C2F880300B4A82640B4AC2640B4AC4
:1020400002650B4A426502E000200860091D09484C
:102050008142F9D310BC70470000000000A400408A
:1020600070A40040B0A4004088A5004060A60040D5
:1020700078A6004050A7004070B40D698C682543D5
:102080000E684C68002C02D145EA864502E03543D3
:1020900045F080450C6ACE6946EA04668C692643A1
:1020A0004C692643CC682643406D03EBC30400EB28
:1020B000C40005604660083000230DE0D418E578C0
:1020C000A678360446EA0566657846EA0526247849
:1020D000264340F8046B1B1D03A4CD682D0C645DE2
:1020E000A342EBD370BC704700010203040506074E
:1020F000080C10141820304080B501F08FFC00F05F
:102100000FF801F0A7FC01F0F5FCFEF765F801F00F
:1021100029FD01F001FE00F03EF800F015FAFCE7A1
:1021200000B593B00022382105A800F01BFD002265
:102130001421684600F016FD002001F0B9FE0120D0
:1021400005904FF48030069002200C9003200D90F3
:1021500006200E9055200F900220109011901290A2
:1021600005A801F01DFF002801D000F0C2FC0F20DF
:10217000009003200190002002900390049004211D
:10218000684602F0F9F8002801D000F0B2FC02F035
:1021900011FA13B000BD10B572B6DFF880492046C1
:1021A000D4F8A81088474FF480722169206802F0A3
:1021B0008AFA002801D000F09CFCDFF8644920680E
:1021C000FFF718FD002801D000F093FC0022A16E5B
:1021D0002068FFF7DAFD002801D000F08AFC072212
:1021E0004FF42071DFF83C09FFF7CFFD002801D044
:1021F00000F07FFC0020A060E0604FF40020206130
:1022000000206061A061E0612062606262B6FFF759
:10221000F3FA00200AE001EB80118988402904D0FC
:10222000DFF80419DFF804294A67401CDFF80019B9
:102230000428F0DB91F82000401D052290FBF2F20B
:1022400002EB8202801A01EB4000012141848021CF
:102250004FF0904000F0A6FEDFF8CC18887310BD58
:1022600070B52DED048B0446DFF8BC580021A06E3C
:1022700003F0A6F885ED100A0021E06E03F0A0F847
:1022800085ED110A0021206F03F09AF885ED120AFE
:102290000021606F03F094F8B0EE408A85ED138A58
:1022A000DFF8906896ED1A9B286C01F011FB53EC57
:1022B000192B00F029FFC6E90201686C01F008FB48
:1022C00053EC192B00F020FFC6E90401A86C01F0C3
:1022D000FFFA53EC192B00F017FFC6E9080118EEBE
:1022E000100A01F0F5FA53EC192B00F00DFFC6E9C6
:1022F0000A01A06F03F014F9401E8041C043C00FD3
:102300003070BDEC048B70BD70B52DED028BDFF825
:102310001848D4F88000401CC4F88000E06F401CCE
:10232000E067FFF7FDFAA075A07D002804D18020AA
:10233000A0740020E07400E1022800F0FE80E06F4D
:10234000062806D3002060752075FEF734F90020BA
:10235000E067607D042840F0F080207D062840F092
:10236000E680E07A002800F0D38094ED120AB5EE02
:10237000400AF1EE10FA06D194ED130AB5EE400AC8
:10238000F1EE10FA66D0DFF8AC57DFF8A467D6E9B3
:102390000401D5E9042301F0AFF9C6E90401D6E947
:1023A0001423D5E90A0101F0E9F8C6E914019FED0B
:1023B000648BD5E9022351EC180B01F0DFF801F032
:1023C0000DFA00EE100A03F0B1F810EE100A01F059
:1023D0007FFAC4E90801D5E9022351EC180B01F09A
:1023E000CDF801F0FBF900EE100A03F09FF810EEB3
:1023F000100A01F06DFAC4E90C01D5E9082351EC8B
:10240000180B01F0BBF801F0E9F900EE100A03F037
:102410008DF810EE100A01F05BFAC4E90A01D5E963
:10242000082351EC180B01F0A9F801F0D7F900EEE0
:10243000100A03F07BF810EE100A01F049FAC4E923
:102440000E0195ED080B84ED140B95ED0A0B84ED50
:10245000160B5DE0DFF8DC56DFF8D466D6E9040140
:10246000D5E9042301F048F9C6E90401D6E91423AB
:10247000D4E9160101F082F8C6E914019FED308B12
:10248000D5E9022351EC180B01F078F801F0A6F918
:1024900000EE100A03F04AF810EE100A01F018FAE4
:1024A000C4E90801D5E9022351EC180B01F066F8E4
:1024B00001F094F900EE100A03F038F810EE100A5B
:1024C00001F006FAC4E90C01D4E9142351EC180B0D
:1024D00001F054F801F082F900EE100A03F026F83A
:1024E00010EE100A01F0F4F9C4E90A01D4E914234A
:1024F00051EC180B01F042F801F070F900EE100AEF
:1025000003F014F810EE100A01F0E2F9C4E90E012C
:10251000FEF71AFF012504E02846C0B2FDF727FFA9
:102520006D1C052DF8DB00206075207505E04FF06F
:102530007E506067002060752075BDEC028B70BD19
:1025400000000060FB21F9BF2DE9F04188B0DFF801
:10255000D84501F0E1F9E066DFF8C0552846D5F826
:10256000AC108847D4F88000322805D30120607071
:102570000020C4F8800001E000206070607800282E
:1025800053D0DFF8AC0500F1C40191F81CE00EF166
:10259000040E00F18402137F1B1D00F14406377FF7
:1025A0003F1D90F820C00CF1040C4FF005089EFB75
:1025B000F8F808EB8808AEEB080E00EB4E0EBEF8FC
:1025C000E2E0CDF81CE04FF0050E93FBFEFE0EEBB3
:1025D0008E0EA3EB0E0300EB4303B3F8A230069379
:1025E000052397FBF3F303EB8303FF1A00EB470389
:1025F000B3F86230059305239CFBF3F303EB8303ED
:10260000ACEB030C00EB4C035B8C04930988039147
:10261000118802913188019180880090E37CA27C2E
:102620000FF22051E86802F0C9FFE078002806D0D8
:10263000A07CFDF7C3FE0020E070012060712079CE
:1026400000280DD0012505E0E17C2846C0B2FDF749
:10265000CAFE6D1C052DF7DB002020710120607182
:10266000A07800280BD0012505E00B212846C0B238
:10267000FDF7B9FE6D1C052DF7DB0020A070E07999
:1026800000280AD0012504E02846C0B2FEF77FF8F2
:102690006D1C052DF8DB0020E071207A00280CD09D
:1026A000012504E02846C0B2FEF7A9F86D1C052DEF
:1026B000F8DB0020207201206071A07900281AD078
:1026C0000126DFF86C5409E03046C0B2FEF75FF82F
:1026D00005EB8610383801684162761C052EF3DB65
:1026E00005F14400806A606605F1C400806A6438C0
:1026F000A0660020A071607A002808D0628BD2B258
:10270000B4F96010207CFDF7CEFF00206072A07A43
:1027100000280BD0206F0090638BDBB2B4F96020EF
:10272000617C207CFDF7EBFD0020A0726079002821
:102730000AD0012504E02846C0B2FDF7C6FF6D1C93
:10274000052DF8DB00206071607B002801D000F0CF
:10275000C0F801F0E1F8E16E401AE07308B0BDE89E
:10276000F081DFF8D4030178491C0170704770B51F
:102770000268136D5B0701D504231365DFF8A053CE
:102780002C680068226890424DD1A86E01424AD060
:10279000DFF8946305F1580305F13002696E2046B5
:1027A000FFF766FA002805D04FF08040706700F010
:1027B000A0F928E0286B00F07F01491E317000F479
:1027C000F0603083B0F5C07F09D0B0F5B06F1AD19A
:1027D000C9B2D74800EB8110426B904713E0707D7F
:1027E000401C7075307D08183075C9B2D04800EBB8
:1027F0008110826B9047012805D00120B0708020A5
:10280000B0740120F0704021C648FFF7ACFA0228EE
:1028100009D305F1580305F13002696E2868FFF706
:1028200027FA0028F5D170BD6EE510B50446B0F565
:10283000007F16D14FF400714FF0904000F0B2FBD2
:1028400000280ED1B84CFFF76BF8A075A07D0228C8
:1028500002D10120A07401E08020A0740120E0706A
:1028600010BDB4F5806F33D14FF480614FF09040CC
:1028700000F098FB00282BD1AB4CE07D002810D154
:102880000120A071E075AA4890F82010052291FB64
:10289000F2F202EB8202891A00EB4100002141842E
:1028A00010BDFFF73DF8A075A07D032802D10620DA
:1028B000E0740BE0042802D10F20E07406E0052844
:1028C00002D10020E07401E00020E07401202071BA
:1028D00010BD70B52DED0E8B82B0984C04F18005C3
:1028E000974E0120019000950346A289A22130460F
:1028F00002F0DDFE002801D000F0FBF8304603F0C6
:1029000052F82028FAD1304603F050F80428E8D0D5
:10291000032001F065F80620019000940123A289AC
:10292000A221304602F05EFF002801D000F0E1F85D
:10293000304603F038F82028FAD1304603F036F854
:102940000428E8D0032001F04BF801200190009505
:102950000346A289A621304602F0A9FE002801D034
:1029600000F0C7F8304603F01EF82028FAD13046B0
:1029700003F01CF80428E8D0032001F031F8062009
:102980000190A01D00900123A289A621304602F0EB
:1029900029FF002801D000F0ACF8304603F003F81E
:1029A0002028FAD1304603F001F80428E7D00320AC
:1029B00001F016F82078617840EA012000B200F0BA
:1029C00091FB41EC180B94ED1C9B53EC182B51EC34
:1029D000190B00F099FBC4E90401A078E17840EA02
:1029E000012000B200F07EFB41EC1A0B53EC1A2BD5
:1029F00051EC190B00F088FBC4E9060120796179DC
:102A000040EA012000B200F06DFB41EC1B0B53ECDF
:102A10001B2B51EC190B00F077FBC4E90801A079DE
:102A2000E17940EA012000B200F05CFB41EC1C0BB4
:102A300053EC1C2B51EC190B00F066FBC4E90A01A6
:102A4000207A617A40EA012000B200F04BFB41ECB1
:102A50001D0B53EC1D2B51EC190B00F055FBC4E979
:102A60000C01A07AE17A40EA012000B200F03AFBC2
:102A700041EC1E0B53EC1E2B51EC190B00F044FBE8
:102A8000C4E90E0194ED1E9B2A4C53EC182B51EC1B
:102A9000190B00F039FBC4E9020153EC1A2B51EC7D
:102AA000190B00F031FBC4E9040153EC1B2B51EC72
:102AB000190B00F029FBC4E9060153EC1C2B51EC67
:102AC000190B00F021FBC4E9080153EC1D2B51EC5C
:102AD000190B00F019FBC4E90A0153EC1E2B51EC51
:102AE000190B00F011FBC4E90C0102B0BDEC0E8B18
:102AF00070BD38B50C4C012020738020A0740620D6
:102B0000E074012505E0E17C2846C0B2FDF76BFCCE
:102B10006D1C052DF7DB72B6FEE70000A80400204F
:102B20000001002098090020380200200000C04069
:102B30000000002040030020380A0020B0030020DD
:102B40004C0400200A25642C25642C25642C256463
:102B50002C25642C25642C25642C25642C25642CC0
:102B600025640D0062F30F2262F31F4200B500BF1F
:102B7000130096469446103928BFA0E80C50FAD8A6
:102B80005FEA417C28BF0CC048BF40F8042BC9074E
:102B900028BF20F8022B48BF00F8012B00BD0268B7
:102BA000531C0360117070472DE9FC470546002453
:102BB0002646DFF850722868000369D5A046F86CF5
:102BC000C0000AD4F86C40F08050F864F86C00F053
:102BD0008050009000984FF00108DFF82C92D9F84F
:102BE000000040F48070C9F8000000F095FE8246B5
:102BF000D9F80000C00506D400F08EFEA0EB0A0054
:102C00000328F5D3032420003AD1DFF80092D9F845
:102C1000000010F4407014D0296C884211D0D9F80B
:102C2000000020F44070D9F8001041F48031C9F858
:102C30000010D9F8001021F48031C9F80010C9F84B
:102C40000000C0070FD500F067FE8246D9F80000EB
:102C5000800708D400F060FEA0EB0A0041F2893141
:102C60008842F3D30324200008D1D9F8001021F4BE
:102C70004071286C0143C9F8001002E0264600E0CC
:102C80002646B8F1010F03D1F86C20F08050F864AB
:102C90002878C00705D5F96F8908686850EA81016E
:102CA000F9672878800705D5F96F21F00C01A8682D
:102CB0000143F9672878400705D5F96F21F0300105
:102CC000E8680143F9672878000705D5F96F21F016
:102CD000C00128690143F9672878800605D5F96F96
:102CE00021F4406168690143F9672878400605D5F9
:102CF000F96F21F44051A8690143F967287800066B
:102D000005D5F96F21F44041E8690143F967286866
:102D1000C00505D5F96F21F44031286A0143F967F0
:102D20002868800505D5F96F21F44021686A0143C0
:102D3000F967286840050DD5F96F21F44011A86A9C
:102D40000143F967A86AB0F5801F03D1386840F4E1
:102D500080103860286800050DD5F96F21F4400116
:102D6000E86A0143F967E86AB0F5800F03D1386873
:102D700040F4801038602868C0040DD5F96F21F048
:102D80004071286B0143F967286BB0F1807F03D154
:102D9000386840F480103860286880040DD5F96FD9
:102DA00021F04061686B0143F967686BB0F1006F17
:102DB00003D1386840F480103860286840040DD58D
:102DC000F96F21F04061A86B0143F967A86BB0F17E
:102DD000006F03D1386840F4801038602868000420
:102DE0000DD5F96F21F04051E86B0143F967E86BAD
:102DF000B0F1805F03D1386840F4803038603046ED
:102E0000BDE8F6870C1002400070004090100240B0
:102E1000F8B502460B4600242DE04FF0060C05E005
:102E2000DFF8A4C16245F8D14FF0050C0CFA06FC9E
:102E30004CEA070C45F821C064498E68C5432E4012
:102E40005F68FF0200D506438E60CE682E405F6843
:102E5000BF0200D50643CE604E682E405F68BF03B8
:102E600000D506434E600E682E405D68ED0300D528
:102E700006430E60641C18680146E14000F0918032
:102E80000127A7403840F5D0610003258D40ED4370
:102E90005E6806F0030CBCF1010F03D006F00306D8
:102EA000022E10D196682E40D3F80CC00CFA01FC0B
:102EB0004CEA060696605668BE435F68C7F3001783
:102EC000A7403E4356601E7906F00306032E05D048
:102ED000D6682E409F688F403E43D6601E7906F02C
:102EE0000306022E15D12646F60802EB86073E6A37
:102EF0004FEA840C0CF01C0C4FF00F0E0EFA0CFE77
:102F000026EA0E06D3F810E00EFA0CFC4CEA060690
:102F10003E6216682E401D7905F0030505FA01F1A1
:102F20000E431660596811F4403FA3D028490D683C
:102F300045F001050D60096801F00101009100995B
:102F400021468908234D55F82170A60006F00C068D
:102F50004FF00F0C0CFA06FC27EA0C07B2F1904F69
:102F600002D14FF0000C61E7DFF86CC0624502D17E
:102F70004FF0010C5AE7DFF864C0624502D14FF010
:102F8000020C53E7DFF858C0624502D14FF0030C42
:102F90004CE7DFF850C062457FF442AF4FF0040CBD
:102FA00044E7F1BD006901400846401E8041C0432E
:102FB000C00F704701460C4A13680B4202D01160E3
:102FC000FFF733BC704700000014004800040140C4
:102FD000601002400800014000040048000800485A
:102FE000000C00480010004814040140374A1368E0
:102FF0004FF6FF010B40000200F4E0601843344933
:1030000008431060704731480068C0F302207047E1
:10301000010007D4012200F01F018A402D49400918
:1030200041F8202070470901020002D42A48815447
:1030300070472A4802F00F02104400F8041C704741
:1030400010B400F00700C0F10703052B00D30423E0
:10305000041D072C01D2002000E0C01E012404FA48
:1030600003F35B1E1940814004FA00F0401E10403B
:10307000084310BC704738B50446641EB4F1807F25
:103080000AD2174D6C600F214FF0FF30FFF7CBFFD6
:103090000020A86007202860B4F1807F8041C043F1
:1030A000C00F32BDA2E770B504460D461646FFF7C5
:1030B000AAFF32462946FFF7C3FF01462046BDE876
:1030C0007040B0E7A4E7D6E7FFF7AEBB0CED00E039
:1030D0000000FA0500E100E000E400E018ED00E087
:1030E00010E000E010F0004160B148BF4042B0FA8B
:1030F00080F29040D21CC2F5846241EA025202EB97
:10310000D021400570472E0030B540F2FF7C1CEA0C
:1031100011541DBF1CEA1355644565453FE0641911
:1031200081EA030C6FF35F530CF0004C43F48013FF
:10313000C90241F0004141EA505EC5021100A5FB01
:10314000020200284FF00000EEFB01204FF00001CA
:10315000E3FB052118BF42F001024018002149415C
:10316000E3FB0E01A4F580640D0302D292184041E6
:10317000494154F1010470DD450872F1004250F1FB
:10318000000051EB0451A1F5801102D441EA0C0179
:1031900030BD40F2FF7E4CEA0E51002030BD0CEAFB
:1031A0001355644518BF654581EA030C0CF0004CCB
:1031B00041D050EA410E1CBF52EA430E02E0614684
:1031C000002030BD24422C441BD15FEA050EF6D00E
:1031D000090302BF01460020AEF1140EB1FA81F5D9
:1031E000AEEB050401FA05FE0C35C5F1200100FA2D
:1031F00005F5C8404EEA000E6FF35F5343F48013A9
:103200009CE733F00043B3FA83F504BFB2FA82FEC1
:1032100075440B3D641BB5F1200E2FBF02FA0EF36F
:10322000AB40C5F1200E22FA0EFE38BF43EA0E0372
:10323000AA40641C7CE750EA410E14BF52EA430ED8
:103240006FF000014FF4001515EB430F8EBF1946C8
:1032500015EB410F9DE7B4D830BDD4F10104B4F1B2
:1032600020050FDAC4F12005520828BF42F0010200
:1032700010FA05FE01FA05F57244E2BFE04028436A
:10328000E1400FE0352C9ADCC5F1200452EA4002FF
:1032900020FA05F218BF42F0010231FA05F0A14010
:1032A0000A43002172F1004250F1000051EB0C0181
:1032B00030BD4300F0B540F2FF7581EA030C0CF01D
:1032C000004C15EA11541DBF15EA1357AC42AF422A
:1032D000E5E0BC41C1F31301C3F31303801A994124
:1032E00043F4801304D2641E0018494180185941E8
:1032F000C90241EA5051B1FBF3F603FB1611A2FBE0
:103300000675D7EBC020A94102D2761E801859411C
:10331000C90241EA5051B1FBF3FE03FB1E11A2FBAF
:103320000E75D7EBC020A94103D2AEF1010E801873
:103330005941890241EA9051760546EA8E2EB1FB49
:10334000F3F603FB1611A2FB0675D7EB8020A9410B
:1033500002D2761E80185941C90241EA50514EEA04
:10336000060EB1FBF3F603FB1611A2FB0675D7EBB5
:10337000C020A94102D2761E80185941C90241EAF3
:103380005051B1FBF3F703FB1711A2FB0735D3EB49
:10339000C020A94167F100070CBF004247F00107B8
:1033A00066F3D5274FEA1E31B80814F5806412DDA4
:1033B000BD0775F1004250EB0E5051EB045111F571
:1033C000801F5CBF41EA0C01F0BD4CF07F6141F011
:1033D000E0410020F0BDBD076D0840EA0E5041F409
:1033E0008011D4F10104B4F120060ADAC4F12006F8
:1033F0000200E04001FA06F3E1401843B2401543F1
:103400000EE0342C13DCC6F1200445EA40056D08BB
:1034100020FA06F2154321FA06F0A1400D430021DF
:1034200075F1004250F1000051EB0C01F0BD00209D
:103430005FEA0C01F0BDCFB992185B41B3FA83F794
:1034400004BFB2FA82F6BF190B3FB7F120062FBFB7
:1034500002FA06F3BB40C7F1200622FA06F638BF8F
:103460003343BA401CB1E419641E33E77F4231F0A4
:103470000041B1FA81F404BFB0FA80F6A4190B3C04
:10348000B4F120062FBF00FA06F1A140C4F12006D6
:1034900020FA06F638BF3143A0403C1B1AE7AC4285
:1034A0001ABF05EA1357AF4212E050EA41061CBFAB
:1034B00052EA4306BFE750EA4107304661461CBF67
:1034C00041EA0551F0BD52EA430C08BFC143F0BDCB
:1034D00000204FF4001616EB410F98BF16EB430F78
:1034E00008BF16EB410F24BFC14305E016EB430FA5
:1034F0000CBF61464CEA0551F0BD00009FED1E0A6D
:10350000B9B311F003030BD0D0ED000A001DB4EEE7
:10351000600AF1EE10FA48BFB0EE600A5B1EF3D10C
:10352000890826D0D0ED000AB4EE600AF1EE10FA58
:1035300048BFB0EE600A90ED011AB4EE410AF1EE18
:1035400010FA48BFB0EE410AD0ED020AB4EE600AAC
:10355000F1EE10FA48BFB0EE600A90ED031A103099
:10356000B4EE410AF1EE10FA48BFB0EE410A491E2E
:10357000D8D182ED000A7047FFFF7FFF70B491EA57
:10358000030F4FF0004540F1BF806B40841A71EB90
:10359000030604D26E40001BB141121973414FF46F
:1035A000001C1CEB410F34BF7CEB430683E00C0D89
:1035B000A4EB1356362E00F37C80012E45EAC3237C
:1035C00041DC43EA525312BFD20292025B08240547
:1035D00045EAC12141EA5051D2EBC020994125D49E
:1035E00007D1B0FA80F610FA06F162D0002020363A
:1035F00008E0B1FA81F6B140C6F1200220FA02F2E9
:103600001143B0404FEAF474B4EB465434F0010671
:103610004FEA74040AD8D6F50016760D04F000447B
:10362000F04061FA06F25040F1404840C00A40EADA
:10363000415021F0004128BF5FEA500550F10000E1
:1036400044EBD12135E0DB0A45EAC121C90AB6F1D4
:1036500020050EDD42EA0242120CC5F1200603FAF3
:1036600006F6EB4042EA06056D42984161F1000121
:103670000DE062FA06F5F240554063FA06FC82EA74
:103680000C02F3405A406D42904161EB030111F48A
:10369000801F05D1641E620502D06D004041494182
:1036A00021F48011430875F1004350F1000041EB13
:1036B000045170BC70471CEB410F15D223F000433E
:1036C00052EA43060BD04FEA4C0CBCEB410F04D836
:1036D0000C0D661E342EB7DDEBE7801A994150EAD7
:1036E000410608BF0021E4E708BF1CEB430F28BFD9
:1036F0006FF00001DDE7000070B491EA030F4FF0B6
:1037000000457FF543AF6B40841A71EB030603D28B
:10371000001BB141121973414FF4001C1CEB410F07
:1037200034BF7CEB430442E00C0DA4EB1356352E62
:103730004FDC45EAC323DB0A45EAC121C912B6F1D1
:1037400020050DDD63FA05F6EB4086EA030512421B
:1037500018BF45F00105C01851F100010CD213E06B
:1037600062FA06F5F2405540F3415A40B340F34047
:103770005A408018594107D349085FEA30005FEA90
:10378000350528BF45F0010501F58011420875F1A6
:10379000004250F1000041EB04514E0016F5001FAD
:1037A00070BC38BF70470020090D090570471CEB3D
:1037B000410F10D252EA43060BD0BCEB410F05D8A3
:1037C0000C0DAB43661E342EB6DD02E0AB43801811
:1037D000594170BC704770BC7047000001F0004256
:1037E0008B1AA3F16051B1F5801F0ADBB1F17F6F35
:1037F0001FD242EAC102C10071F1004142EB507098
:1038000070470B15C3F10903212B10D2890241EA3D
:10381000905180020128494141F0004121FA03F012
:10382000C3F12003994071F10041504170471000ED
:1038300070476FF0000013EB103F5CBF000E42EAD0
:10384000C0507047DFED1E0A20EE200AFDEEC00AD0
:10385000B5EE400A10EE900AF1EE10FA48BF401E95
:1038600000EE900AF8EEE00A30EE600ADFED150A8D
:1038700020EE200AFDEEC00A10EE900A80B2B0F5EC
:10388000007F04DBDFED100A002030EE200A014645
:1038900000EE901AF8EE600A0C4970EE600A01EB37
:1038A0008002B7EE000A01EB800030EE600A92ED74
:1038B000001AD0ED011A20EE010A00EEA10A7047AD
:1038C00083F9223E00000044000000C490880008F4
:1038D000C0F3C75181B1FF2906D0C110400721F0C4
:1038E000E04101F16051704741020CBF40F4E0013A
:1038F0006FF000410020704700F0004100020AD044
:10390000B0FA80FC00FA0CF001F16051A1EB0C510F
:1039100001EBD0214005704701480068704700BFA7
:103920005805002050B1B0FA80F18840C91CC1F59B
:103930008461090501EBD0214005704701467047BD
:1039400041EA030C50EA4C0C52EA0C0C4FF4001CF8
:1039500009D307D01CEB410F9CBF1CEB430F8B42DC
:1039600008BF824270471CEB430FFBD8994208BF47
:103970009042704741EA030C50EA4C0C52EA0C0C9E
:103980004FF4001C09D307D01CEB410F9CBF1CEB6C
:10399000430F994208BF904270471CEB410FFBD880
:1039A0008B4208BF82427047C1F30A5340F21E4265
:1039B000D31A0CDDCA0283F3070342EA505242F0E5
:1039C0000042DA4002EBE17282EAE17070476FEA8E
:1039D000E17203F2E13008B182F00040704700006C
:1039E00038B50446FFF798FF054614F1010F02D0E1
:1039F000044880680419FFF78FFF401BA042FAD3E8
:103A000031BD00BF580500207047704770477047B0
:103A100070477047704770477047000010B500242A
:103A20000B48016821F480610160016841F48071F4
:103A300001600320FFF736FB204602F055FE002808
:103A400001D0012401E002F077FE204610BD000005
:103A50000020024080B586B00022142101A8FFF7A3
:103A600081F82348016841F020010160016801F0FC
:103A7000200100910099016841F001010160016895
:103A800001F0010100910099016841F0020101601B
:103A9000006800F002000090009880200190002053
:103AA00002900120039001A94FF09040FFF7B0F978
:103AB0004FF4C06001904FF4041002900120039075
:103AC00001A94FF09040FFF7A3F90022032117202E
:103AD000FFF7E9FA1720FFF7F5FA00220321282063
:103AE000FFF7E1FA2820FFF7EDFA07B000BD00BFAD
:103AF0004C10024080B51A48016841F00401016091
:103B0000016801F0040100910099016841F0010190
:103B10000160006800F0010000900098002202217E
:103B20000B20FFF7C0FA0B20FFF7CCFA002202218E
:103B30000C20FFF7B8FA0C20FFF7C4FA002204218A
:103B40000D20FFF7B0FA0D20FFF7BCFA0022042188
:103B50000E20FFF7A8FA0E20BDE80240FFF7B2BA28
:103B60004810024010B5654C654860606548A0602B
:103B70000020E0600120206100206061A061E06120
:103B800020626062201D01F039FD002801D0FEF79F
:103B9000B0FF0021201D02F001FE002801D0FEF739
:103BA000A8FF0021201D02F023FE002803D0BDE85D
:103BB0001040FEF79EBF10BD78B597B004460022B6
:103BC00014216846FEF7CEFF0022442106A8FEF726
:103BD000C9FF20684A49884240F08D804020069005
:103BE00000200C9006A8FEF7DFFF002801D0FEF7AA
:103BF00080FF454D286840F001002860286800F0EB
:103C0000010005900598286840F0020028602868A7
:103C100000F00200059005984FF40040009012203B
:103C20000190012002900020039004200490694636
:103C30004FF09040FFF7ECF88020009012200190A8
:103C400001200290002003900420049069462F4830
:103C5000FFF7DEF8E86840F40010E860E86800F478
:103C60000010059005982A4D2A4E2E60102068609D
:103C70000020A860E8608020286100206861A861B9
:103C8000E8614FF400502862284602F0D9FD002870
:103C900001D0FEF72EFFE563AC6206F11400286642
:103CA000112068661020A8660020E866802028673A
:103CB00000206867A867E867C5F8800005F1600024
:103CC00002F0BEFD002801D0FEF713FF05F16000F1
:103CD000A063C5F88840002205211F20FFF7E3F903
:103CE0001F20FFF7EFF9002205212020FFF7DBF965
:103CF0002020FFF7E7F918B070BD0000480400204D
:103D000000540040641F70204C1002400004004822
:103D1000080700203000024010B5604C6048206069
:103D20004FF4613060600020A060E06020610C20F2
:103D300060610020A061E06120626062A0622046B4
:103D400000F08CFC002801D0FEF7D3FE00212046B5
:103D500002F06EFF002801D0FEF7CBFE00212046C6
:103D600002F089FF002801D0FEF7C3FE204602F0D2
:103D700041FF002803D0BDE81040FEF7BABE10BDD9
:103D800078B597B00446002214216846FEF7EAFE93
:103D90000022442106A8FEF7E5FE2068404988423B
:103DA0007AD1022006900020089006A8FEF7FCFEBB
:103DB000002801D0FEF79DFE3A48C16841F4003169
:103DC000C160C16801F4003105910599016841F0B5
:103DD00001010160006800F00100059005980420D1
:103DE0000090022001900020029003900720049090
:103DF00069464FF09040FFF70BF808200090022032
:103E000001900120029003900720049069464FF032
:103E10009040FEF7FDFF244D244E2E601A2068606E
:103E20000020A860E8608020286100206861A86107
:103E30002020E8614FF480502862284602F000FDFF
:103E4000002801D0FEF755FEE567AC6206F11400CC
:103E500028661B2068661020A8660020E86680207F
:103E6000286700206867A867E867C5F8800005F143
:103E7000600002F0E5FC002801D0FEF73AFE05F1F3
:103E80006000A067C5F88840002202212620FFF7C5
:103E90000AF92620FFF716F918B070BD880800202F
:103EA000004400404C100240C807002008000240B7
:103EB000DFF8D81000282BD1DFF8D4000A6802F40C
:103EC000C062B2F5806F1ED1026822F48072026077
:103ED000086820F4C06040F400700860DFF8B400A7
:103EE000026832204243DFF8B000B2FBF0F0401C21
:103EF00000E0401E4A69520501D50028F9D1486901
:103F000040052ED43AE0016821F48071016035E06B
:103F1000B0F5007F2CD1DFF878000A6802F4C062A7
:103F2000B2F5806F1FD1026842F4807202600868A7
:103F300020F4C06040F400700860DFF858000268A8
:103F400032204243DFF85000B2FBF0F0401C00E0AA
:103F5000401E4A69520501D50028F9D1486940053B
:103F60000CD503207047016841F48071016005E0C1
:103F7000086820F4C06040F480600860002070474A
:103F80000648016841F480410160704700700040BC
:103F9000807000408405002040420F0008700040FF
:103FA0002DE9F843040000F0E281DFF87056207834
:103FB000C00712D5A86800F00C00E96801F0030101
:103FC0000C2801D1032901D0082845D12868800395
:103FD00003D56068002800F0CA812078800721D5C9
:103FE000A86800F00C00E96801F003010C2801D179
:103FF000022901D0042866D12868400503D5E0686D
:10400000002800F0B481686820F0FE40216940EA91
:1040100001606860DFF81006006802F065FB0028A8
:1040200040F0A581DFF804662078000740F1848025
:1040300060690028706870D040F001007060FFF780
:104040006BFC07467068800776D4FFF765FCC01BE1
:104050000328F7D303208DE16068B0F5803F04D1D9
:10406000286840F48030286012E0B0F5A02F28685E
:1040700007D140F480202860286840F48030286010
:1040800006E020F480302860286820F48020286032
:10409000606800280BD0FFF73FFC064628688003C5
:1040A0009BD4FFF739FC801B6528F7D3D2E7FFF7D5
:1040B00033FC0646286880038FD5FFF72DFC801B54
:1040C0006528F7D3C6E7E0680028286816D040F4D2
:1040D00080702860FFF720FC06462868400505D45C
:1040E000FFF71AFC801B0328F7D3B3E7686820F0BA
:1040F000FE40216940EA0160686093E720F4807027
:104100002860FFF709FC0646286840058AD5FFF7B6
:1041100003FC801B0328F7D39CE740084000706035
:10412000FFF7FAFB07467068800705D5FFF7F4FB39
:10413000C01B0328F7D38DE72078400768D50027F8
:10414000A86DC00009D4A86D40F08050A865A86D86
:1041500000F08050009000980127DFF8D484D8F850
:104160000000C00513D4D8F8000040F48070C8F8EF
:104170000000FFF7D1FB8146D8F80000C00506D447
:10418000FFF7CAFBA0EB09000328F5D362E7A0689C
:10419000012804D1306840F00100306011E00528AA
:1041A000306807D140F004003060306840F0010012
:1041B000306006E0400840003060306820F00400C5
:1041C0003060A06800280ED0FFF7A6FB804630685C
:1041D000800717D4FFF7A0FBA0EB080041F289315C
:1041E0008842F4D336E7FFF797FB804630688007B4
:1041F00008D5FFF791FBA0EB080041F28931884216
:10420000F4D327E7012F03D1A86D20F08050A865D3
:104210002078800621D5A0690028B0680ED040F033
:104220000100B060FFF778FB0746B068800714D440
:10423000FFF772FBC01B0328F7D30BE740084000D1
:10424000B060FFF769FB0746B068800705D5FFF748
:1042500063FBC01B0328F7D3FCE6E069002800F0ED
:104260008880A96801F00C010C2955D00228286823
:1042700020F0807028603AD1FFF74EFB0646286890
:10428000800105D5FFF748FB801B0328F7D3E1E643
:10429000E868DFF8A0130840216A0843616A491EF4
:1042A00040EA0110A16A40EA0120216B4908491E39
:1042B00040EA4150616B4908491E40EA4160E16AA9
:1042C00040EAC160E860286840F080702860E868D3
:1042D00040F08070E860FFF71FFB0446286880010B
:1042E00047D4FFF719FB001B0328F7D3B2E6E868B1
:1042F00080088000E860E968DFF83C030140E9607D
:10430000FFF70AFB04462868800132D5FFF704FB5B
:10431000001B0328F7D39DE6012828D0E86800F0A9
:104320000301226A914222D100F0F001626A521E1A
:10433000B1EB021F1BD100F4FE41A26AB1EB022FC8
:1043400015D100F07841E26AB1EBC26F0FD100F4F1
:10435000C001226B5208521EB1EB425F07D100F040
:10436000C060616B4908491EB0EB416F01D001206C
:1043700000E00020BDE8F2832DE9F84304468846BA
:104380000027002C61D0DFF8B452286800F00F003D
:10439000404509D22868000948EA001028602868CA
:1043A00000F00F00404550D1DFF870622078C00760
:1043B0004DD5606803281AD13068800145D500F0DA
:1043C0000AF9DFF87C12884223D3B06810F0F00FAE
:1043D00005D0207880071CD5A068002819D1B068C6
:1043E00020F0F00040F08000B060802711E002284B
:1043F000306828D1800328D500F089F8DFF8401212
:10440000884206D3B06820F0F00040F08000B06031
:104410008027B1688908606850EA8101B160FFF7C0
:104420007BFA8146B06800F00C006168B0EB810F48
:104430000DD0FFF771FAA0EB090041F289318842F3
:10444000F0D3032061E04005D6D401205DE0206870
:10445000810715D5400703D5B06840F4E060B0602F
:104460002078000705D5B06820F4605040F4E06083
:10447000B060B16821F0F001A0680143B16005E0CF
:10448000802F03D1B06820F0F000B060286800F001
:104490000F00804514D22868000948EA00102860FF
:1044A000FFF73AFA0746286800F00F00404507D0AA
:1044B000FFF732FAC01B41F289318842F3D3C0E7DB
:1044C0002078400705D5B16821F4E061E068014338
:1044D000B1602078000706D5B06820F460502169EB
:1044E00040EAC100B06000F012F85649B268C2F369
:1044F0000312895C01F01F01C8404A4908604A481C
:104500000068BDE8F24302F0EFB8BDE8F2834E491F
:10451000086800F00C00042801D141487047086881
:1045200000F00C00082801D148487047086800F0E6
:104530000C000C281FD14A6802F003024868C0F33F
:104540000310401C032A07D1404AB2FBF0F248682E
:10455000C0F30620424306E0314AB2FBF0F248685D
:10456000C0F3062042434868C0F34160401C40004D
:10457000B2FBF0F07047002070472A48006870478F
:1045800080B5FFF7FAFF32492F4A1268C2F30222C0
:10459000895C01F01F01C84002BD80B5FFF7EDFF47
:1045A0002B49294A1268C2F3C222895C01F01F011B
:1045B000C84002BD1948016841F4002101607047FC
:1045C00010B5244C2068C00504D502F0A3FB4FF4BD
:1045D0008070606010BD20490A6802F0030208681C
:1045E000C0F30310401C032A07D1184AB2FBF0F2B3
:1045F0000868C0F30620424306E0094AB2FBF0F225
:104600000868C0F3062042430868C0F34160401CBC
:104610004000B2FBF0F070470000000000100240C4
:104620000024F400840500205C0500209010024066
:10463000007000400C809F01FFFFEEFE0020024052
:1046400001B4C404A49800080810024000366E01AA
:10465000509900081C1002400C10024038B50400AC
:1046600015D004F180056868002804D10020287066
:104670002046FFF785FB2420686020680168490810
:1046800049000160204600F0C1F9012801D1012054
:1046900032BDA06A002802D0204600F011FB20683D
:1046A000416821F4904141602068816821F02A012D
:1046B00081602068016841F0010101602046BDE889
:1046C000324000F061BB30B4034603F180008468DF
:1046D000202C22D1002901D0140001D101201DE09D
:1046E0000478012C19D0012404700020D8661868C1
:1046F000DFF81443A0420CD04068000209D51868C6
:1047000050E8004F44F08064054645E8004000282A
:10471000F5D1184630BC00F0D4BB022030BC704745
:10472000F8B504462668F1693268B36840F60F00B0
:10473000084004F15C050DD18F060BD5970601D416
:10474000DF0007D56969002900F05D812046BDE8DA
:10475000F4400847002800F08C80DFF8A8080342E6
:1047600004D1DFF8A4783A4200F083800F46FF07B7
:1047700007D5D70505D5012737622E6B46F0010610
:104780002E638E0709D51E46F60706D50226276832
:104790003E622E6B46F004062E634E0709D51E4678
:1047A000F60706D5042627683E622E6B46F0020601
:1047B0002E630E070AD5960601D4034206D00820C0
:1047C00026683062286B40F008002863080509D588
:1047D000500107D54FF4006026683062286B40F026
:1047E00020002863286B002800F00D81880608D57A
:1047F000900601D4D80004D56969002901D020466B
:104800008847286B21688968490602D410F0280F70
:1048100029D0204600F0CAFB2068806840061DD5DC
:104820002068083050E8001F21F04001206800F1A6
:10483000080242E800100028F2D1286A00280DD0B2
:10484000DFF8C8178163286A02F0D7F8002800F063
:10485000DA80286A816BBDE8F44008472046BDE84D
:10486000F24002F058BA204602F055FA00202863C0
:10487000F1BD2869012840F09280C80640F18F8080
:10488000D00640F18C80102030622068806840069D
:104890004ED5286A0068406880B2002800F0B380D6
:1048A0002988884280F2AF806880286A00680068A2
:1048B000800634D4206850E8001F21F4807102463D
:1048C00042E800100028F5D12068083050E8001FA9
:1048D00049084900206800F1080242E80010002859
:1048E000F2D12068083050E8001F21F04001206814
:1048F00000F1080242E800100028F2D12020E8620E
:1049000000202861206850E8001F21F010010246B5
:1049100042E800100028F5D1286A02F038F829880A
:104920006888091A89B22046BDE8F44002F0F4B95B
:1049300028886988411A6888002864D0084680B2AF
:10494000002860D0206850E8002F22F490720346BF
:1049500043E800200028F5D12068083050E8002FF7
:10496000DFF840030240206800F1080343E800201C
:104970000028F1D12020E8620020286168612068C9
:1049800050E8002F22F01002034643E800200028E0
:10499000F5D189B22046BDE8F44002F0BDB9C802A5
:1049A00009D5580207D54FF4801030622046BDE883
:1049B000F24002F0B2B908060AD5100601D4180276
:1049C00006D5A96900291ED02046BDE8F440084755
:1049D000480606D5500604D52046BDE8F24000F052
:1049E000AFBB080206D5500004D52046BDE8F24012
:1049F00002F094B9C80106D5002A04D52046BDE8C6
:104A0000F24002F08CB9F1BD00800040F8B50446D8
:104A1000002521680A68DFF8FC050240A06802430F
:104A20002069024360690243E06902430A60216829
:104A30004A6822F44052E06802434A60A26923684F
:104A4000DFF8CC158B4201D0206A02439E68DFF864
:104A5000C805064032439A602268D36A1B09606A1F
:104A600050EA0313D3622068DFF8B02590420CD1DE
:104A7000DFF8AC25126802F00302032A15D8DFE83C
:104A800002F00248355E012210E0DFF898259042DE
:104A90001BD1DFF88C25126812F00C024DD0042ACD
:104AA00037D0082A22D00C2A49D01022884240F060
:104AB0007F80002A06D0022A43D0042A44D0082A44
:104AC00045D047E0FFF75CFD46E0DFF85C2590420B
:104AD0000ED1DFF84C25126812F030022DD0102ACA
:104AE00017D0202A02D0302A29D0DEE70222DDE7C3
:104AF000DFF8382590420ED1DFF82425126812F035
:104B0000C0021AD0402A04D0802AEFD0C02A16D082
:104B1000CBE70422CAE78842C7D1DFF80425126830
:104B200012F4406209D0B2F5806FF2D0B2F5006F96
:104B3000DCD0B2F5406F02D0B7E72A46B6E70822CC
:104B4000B4E7DFF8EC0407E0FFF7E1FC04E04FF422
:104B5000004001E028460125002800F0988000BFB1
:104B600051A1626A31F81210B0FBF1F6304662686A
:104B700002EB4201884202D31103814201D2012596
:104B800085E0002747EA166710464008002110EB31
:104B900006207941002302F0C3F8A0F54071DFF848
:104BA000C425914202D22168C86070E001256EE000
:104BB000E069B0F5004F38D1082A15D8DFE802F0D7
:104BC00005080B140E1414141100FFF7D9FC0DE0A6
:104BD000FFF7E3FC0AE0DFF8580407E0FFF797FC73
:104BE00004E04FF4004001E02846012500284ED0A3
:104BF000D4F804102CA2636A32F81320B0FBF2F050
:104C00000A46520802EB4002B2FBF1F04FF6F07197
:104C1000A0F110028A4206D20140C0F342000143D3
:104C20002068C16033E0012531E0082A15D8DFE8AB
:104C300002F005080B140E1414141100FFF7A0FC69
:104C40000DE0FFF7AAFC0AE0DFF8E40307E0FFF756
:104C50005EFC04E04FF4004001E0284601250028F6
:104C600015D0616810A2636A32F81320B0FBF2F02D
:104C700000EB5100B0FBF1F0A0F110014FF6F07223
:104C8000914203D280B22168C86000E0012504F19E
:104C9000680001214180018000218160C1602846B7
:104CA000F2BD0000FEFFFFEF01000200040006005D
:104CB00008000A000C0010002000400080000001E5
:104CC00090F82810C90706D50268536823F400330A
:104CD000C16A0B43536090F82810890706D5026813
:104CE000536823F48033016B0B43536090F8281012
:104CF000490706D50268536823F48023416B0B43B0
:104D0000536090F82810090706D50268536823F409
:104D10000043816B0B43536090F82810C90606D5F9
:104D20000268936823F48053C16B0B43936090F83F
:104D30002810890606D50268936823F40053016C95
:104D40000B43936090F82810490611D50268536808
:104D500023F48013416C0B435360416CB1F5801F09
:104D600006D10268536823F4C003816C0B4353607F
:104D700090F82810090606D501684A6822F4002236
:104D8000C06C02434A6070477CB5044604F180055C
:104D90000020E860FEF7C0FD0646206800680007B6
:104DA0000BD56FF07E400090334600224FF4001187
:104DB000204600F01BF800280FD12068006840074B
:104DC0000DD56FF07E400090334600224FF48001F5
:104DD000204600F00BF8002801D0032076BD2020EB
:104DE0006860A8600020E066287076BD2DE9F0417B
:104DF00005460E4617469846069C2868C06930400E
:104E0000B04201D1012000E000203946884255D14E
:104E100014F1010FF1D0FEF77FFDA0EB08008442F2
:104E200001D3002C1FD1286850E8001F21F4D07155
:104E3000024642E800100028F5D12868083050E802
:104E4000001F49084900286800F1080242E80010E4
:104E50000028F2D105F1800020214160816000210D
:104E6000017003202BE0286801684907C5D5C16996
:104E70000905C2D54FF400610162286850E8001F9F
:104E800021F4D071024642E800100028F5D12868CC
:104E9000083050E8001F49084900286800F108025E
:104EA00042E800100028F2D105F180002021416085
:104EB0008160C16000210170032000E00020BDE896
:104EC000F08170B504461346A16504F15C06338099
:104ED00004F180050020E8602220A860306A0028E4
:104EE0001ED00FF25111C1620FF2DD10316A08635A
:104EF0000FF2ED10316A48630020316A8863A26DB9
:104F0000206800F12401306A01F0FBFC002807D082
:104F10001020E860002028702020A860012070BDCB
:104F2000002028702069002809D0206850E8001F60
:104F300041F48071024642E800100028F5D1206853
:104F4000083050E8001F41F00101206800F108021C
:104F500042E800100028F2D12068083050E8001F15
:104F600041F04001206800F1080242E800100028EA
:104F7000F2D1002070BD016851E8002F22F0C0027C
:104F80000B4643E800210029F5D10168083151E8BA
:104F9000002F22F40002016801F1080343E8002118
:104FA0000029F2D12021C0F884107047016851E82F
:104FB000002F22F490720B4643E800210029F5D11E
:104FC0000168083151E8002FDFF89C110A400168A0
:104FD00001F1080343E800210029F1D1C16E012944
:104FE00009D1016851E8002F22F010020B4643E876
:104FF00000210029F5D12021C0F888100021C166C8
:1050000001677047010000102001000431510008C1
:1050100000800040F369FFCFFFF4FF11003801402A
:10502000881002400044004000480040004C00400E
:105030000024F40018B4826A02F15C010068006880
:10504000800634D400204880106850E8003F23F4E4
:105050008073044644E800300028F5D11068083019
:1050600050E8003F5B085B00106800F1080444E86A
:1050700000300028F2D11068083050E8003F23F0DB
:105080004003106800F1080444E800300028F2D121
:105090002020C8620869012809D1106850E8003F43
:1050A00023F01003044644E800300028F5D10869D5
:1050B000012804D10988104614BC01F02DBE104609
:1050C00012BC01F045BF0000806A00F15C010A6972
:1050D000012A03D10988490801F01EBE01F039BF39
:1050E00070B5846A04F1840528686E68216889684F
:1050F000090607D5212805D10020A4F8560020462E
:10510000FFF739FF20688068400608D5222E06D1B7
:10511000002004F1560108812046FFF747FFA868E8
:1051200040F01000A8602046BDE8704001F0F3BDDB
:10513000806A00F1560100220A810A8001F0EBBD6D
:10514000016851E8002F22F040020B4643E800219D
:105150000029F5D12021C0F884100021416701F019
:10516000F9BE000000FD0F00FEFFFFEF38B52DED8A
:10517000028B040082B00D4600F0998010EE101AE8
:105180004A0000F0948048000016401C02D14902F9
:1051900000F08D80002CB7EE008A3CD5644200BF41
:1051A00089A1052008E0E20744BFD1ED000A28EEFE
:1051B000208A6408091D401E002C18BF0028F2D167
:1051C000684601F0C9FE009880EE080A01F0E8FE8A
:1051D00010EE101A4A0059D048000016401C01D1A8
:1051E000490253D0002C51D0684601F0B5FE00981A
:1051F000DFED6C0A20EE200A01F0D2FE10EE101A4C
:105200004A0043D048000016401C01D149023DD05D
:10521000641EE9D13AE039DD6BA10520E20744BF05
:10522000D1ED000A28EE208A6410091D401E002CD2
:1052300001DD0028F2D1684601F08EFE009820EED4
:10524000080A01F0ADFE10EE101A4A001ED0480008
:105250000016401C01D1490218D0002C16DD68460A
:1052600001F07AFE0098DFED500A20EE200A01F0EE
:1052700097FE10EE101A4A0008D048000016401C95
:1052800001D1490202D0641E002CE8DC10EE101A95
:105290004A0005D048000016401C08D1490206D13A
:1052A000AFF300801DB1286840F00100286002B013
:1052B000BDEC028B31BD00002DE9F14183B01D0032
:1052C0001CBF00202860039F8846164603A801F0F3
:1052D000C9FEC41020F00800012804F0010424D104
:1052E000009001AB03994246384601F04DFF10B9DA
:1052F0009FED2E0A15E09DED020A0128B8EEC00AC6
:105300000FDD03A9401EDFED2A0A51F8042BB0EE91
:10531000401A00EE102AB8EEC00A401E01EE200A24
:10532000F3D101982946801928E0022829D10120CB
:10533000009001AB03994246384602F001F810B9DB
:105340009FED1A0A15E09DED020A0128B8EEC00A89
:105350000FDD03A9401EDFED170A51F8042BB0EE54
:10536000401A00EE102AB8EEC00A401E01EE200AD4
:10537000F3D1019801F014FE29463046FFF7F6FEFE
:105380000AE0032808BF9FED0C0A05D004280CBFD3
:105390009FED0A0A9FED050A0CB1B1EE400A04B078
:1053A000BDE8F0811EB14F0AAEC59D74000000003B
:1053B000286B6E4E0000804D0000807FFFFFFF7F56
:1053C0000023002278E70000000020410000C842CE
:1053D00000401C4620BCBE4CCA1B0E5AAEC59D7474
:1053E0002DE9F84F84B00E4617460BB100221A6023
:1053F0000446A04601E008F1010898F8000002F018
:10540000A3F80028F7D198F800002D2816BF2B2804
:1054100018F8015B2B25002F019603D4012F01D032
:10542000252F03DB002E55D0346053E0002F0CDD18
:10543000102F04BF98F80000302802BF98F8010030
:1054400040F02000782811D10CE098F800003028B6
:1054500018BF0A270AD198F8010040F020007828E8
:1054600003D1102708F1020800E00827CDF80C80CE
:1054700001E008F1010898F800003028F9D0064E44
:105480007E4414364FF0000906F12800CDF808805C
:10549000CA468DF800000BE0044300009DF80010A0
:1054A000401ACA465FFA80FB07FB09B908F10108F8
:1054B00098F8000002F052F801463A4606F128003A
:1054C00002F056F80028E9D10399414504D101982A
:1054D00000B10460002020E00299F05DA8EB01011A
:1054E000081A002810D406DCB9EB0B0103D3B1FB7A
:1054F000F7F0504508D0AFF30080049808B10121BF
:1055000001604FF0FF3903E02D2D08BFC9F10009FC
:10551000019808B1C0F80080484605B0BDE8F08F9A
:10552000FFE700230A2200215AE700009FED1F1A1F
:10553000F5EE000A40EE010ABDEEE00AF5EE400A83
:1055400010EE100AF1EE10FA48BF401E00EE100AED
:10555000B8EEC00A30EEC00ADFED150A20EE200AD0
:10556000FDEEC00A10EE900A80B2B0F5007F04DBB9
:10557000DFED100A002030EE200A014600EE901AFE
:10558000F8EE600A0C4970EE600A01EB8002B7EE9B
:10559000000A01EB800030EE600A92ED001AD0EDB7
:1055A000011A20EE010A00EEA10A704783F9223E9B
:1055B00000000044000000C4908800080CB430B51E
:1055C00083B00A4606A9029104460025019400957D
:1055D00002AB01A9084878441E3001F0F5FF019A9A
:1055E000157000284EBF04460198041B204603B0E6
:1055F00030BC5DF80CFB00BFA7D5FFFF38B5040039
:1056000001D1012032BD04F140056878002804D1A1
:10561000002028702046FEF7CFFA2420687020680A
:105620000168490849000160606820F070602168E5
:1056300008612068816821F400418160A0682168C8
:10564000E268012A03D140F40040886002E040F49F
:1056500004408860E068022803D14FF400602168AC
:1056600048602068416841F0007141F400414160A8
:105670002068C16821F40041C1602169606901436B
:10568000A06941EA00212068C160E169206A014304
:10569000206801602068016841F00101016000207C
:1056A00068602020687000202063A87032BD2DE95A
:1056B000FC4706460D4691469A4606F14007787823
:1056C000202840F08A800A9C002C04D0DDF82C8031
:1056D0004046002804D14FF40070786001207DE03E
:1056E00030688069000478D43878012875D00120AA
:1056F0003870FEF711F9212179704021B97000212D
:1057000079607462A6F82A803549F1628349716331
:10571000718DB1F5807F04D3FF2131854FF0807802
:1057200003E0718D31854FF0007853464A46019071
:10573000192000902946304600F0EDFA002803D0E9
:1057400000203870012049E0B06B00282DD074494A
:10575000C1627448B16B48630020B16B0863B16BE0
:105760008863338D306800F128022146B06B01F068
:10577000C8F8002825D1002000904346328DD2B2CF
:105780002946304600F032FF718D308D091A71853F
:10579000002038701021304600F03CFF306801686E
:1057A00041F480410160002018E020207870002042
:1057B000B870786840F08000786000203870012070
:1057C0000CE0202078700020B870786840F010005D
:1057D000786000203870012000E00220BDE8F687E4
:1057E0000000FFFF2DE9FC4706460D4691469A460C
:1057F00006F140077878202840F08C800A9C002C25
:1058000004D0DDF82C804046002804D14FF400700D
:10581000786001207FE03068806900047AD43878AD
:10582000012877D001203870FEF776F822217970B0
:105830004021B970002179607462A6F82A80DFF8EF
:10584000F010F16235497163718DB1F5807F04D339
:10585000FF2131854FF0807803E0718D31854FF065
:10586000007853464A460190192000902946304658
:1058700000F08CFA002803D00020387001204AE0A4
:10588000F06B00282ED02849C1622648F16B48638E
:105890000020F16B0863F16B8863338D224630681A
:1058A00000F12401F06B01F02CF8002826D1DFF87C
:1058B0007C0000904346328DD2B22946304600F03B
:1058C00095FE718D308D091A718500203870102178
:1058D000304600F09FFE3068016841F400410160ED
:1058E000002018E0202078700020B870786840F020
:1058F000800078600020387001200CE02020787053
:105900000020B870786840F010007860002038708F
:10591000012000E00220BDE8F6870000ED5A0008F3
:105920004D63000811640008AD6300080024008086
:105930000000FFFF026891691268436B002B00D0E2
:105940001847704718B4026891691268CB0509D5E9
:10595000130607D5436C43F0010343644FF480738F
:105960000468E3614B0509D5130607D5436C43F082
:10597000080343644FF480630468E361890509D533
:10598000110607D5416C41F0020141644FF40071EA
:105990000268D161416C11F00B0F02D014BC00F011
:1059A0003DBC11BC704790F841007047406C704797
:1059B000000000002DE9F04105460F469046EC6AD4
:1059C00005F140063078012801D102208CE0012049
:1059D0003070B80605D55FEA886002D5284600F029
:1059E0004CFBF80636D55FEAC86033D5688D0028D1
:1059F0001FD17078282807D1B4F1007F04D139462F
:105A0000284600F0DAFB6DE0707829280DD1DFF828
:105A1000FC09844209D010202968C861284600F09A
:105A200086FC284600F071FA5CE010202968C86105
:105A300058E010202968C861706840F00400706068
:105A4000002C02D0B4F1807F4CD17168284600F060
:105A5000E5FB47E078071DD55FEA48701AD5688DE9
:105A600000280CD02868406A696A0870686A401C7F
:105A70006862288D401E2885688D401E6885688D67
:105A800000282FD1DFF8840984422BD0284600F06B
:105A90003CFA27E0380707D55FEA087004D5394695
:105AA000284600F0ADF91DE0B8071BD55FEA887005
:105AB00018D5688D00280DD0686A0078296888623A
:105AC000686A401C6862688D401E6885288D401E8B
:105AD000288507E0B4F1807F01D0002C02D1284650
