:020000040800F2
:10000000B00A0020C1670008256600082D660008B8
:100010002F66000831660008336600080000000003
:10002000000000000000000000000000356600082D
:100030003766000800000000396600083B660008CB
:10004000DD670008E1670008E5670008E967000868
:10005000ED670008F1670008F5670008F967000818
:10006000FD67000801680008056800084966000887
:100070004F660008096800080D680008116800084C
:100080001568000800000000196800081D680008D5
:1000900021680008556600085B66000825680008AE
:1000A000296800082D6800083168000835680008D4
:1000B000396800083D68000841680008616600086A
:1000C0006766000845680008496800084D68000830
:1000D00051680008556800086D66000859680008F6
:1000E0005D680008616800086568000869680008C4
:1000F0006D6800087168000875680008000000005D
:100100000000000079680008000000007D68000819
:100110008168000800000000856800088968000800
:100120008D680008916800089568000899680008C3
:100130009D6800080000000000000000A1680008A1
:10014000A5680008A9680008000000000000000081
:10015000000000000000000000000000000000009F
:10016000000000000000000000000000AD68000872
:10017000B16800080000000000000000000000005E
:1001800000000000B568000800000000000000004A
:10019000000000000000000000000000000000005F
:1001A0000000000000000000B9680008BD680008F9
:1001B000C1680008C5680008C968000800000000A0
:1001C00000000000CD6800080000000000000000F2
:1001D000D1680008D568000838B5040001D10120B5
:1001E00032BD04F140056878002804D10020287051
:1001F000204601F02CFA2420687020680168490824
:1002000049000160606820F0706021680861206822
:10021000816821F400418160A0682168E268012AB8
:1002200003D140F40040886002E040F4044088605C
:10023000E068022803D14FF400602168486020681C
:10024000416841F0007141F4004141602068C1689B
:1002500021F40041C160216960690143A06941EA5C
:1002600000212068C160E169206A014320680160C3
:100270002068016841F001010160002068602020D1
:10028000687000202063A87032BD2DE9FE4F07463C
:100290000D4692469B4607F140067078202840F0B4
:1002A000BB80DDF83080B8F1000F04D0DDF8349069
:1002B0004846002804D14FF4007070600120ACE083
:1002C0003078012800F0A8800120307001F0E2FBB6
:1002D00004460094192301224FF40041384601F0EE
:1002E00009F8002801D0012097E05B465246212002
:1002F00070704020B07000207060C7F82480A7F8AC
:100300002A90786301940E9800902946384600F0B0
:10031000C8FC002803D00020307001207DE0788DDB
:10032000B0F5807F0DD3FF203885002000904FF07E
:100330008073FF222946384601F0DEF8DDF8388068
:100340000BE07A8D3A85002000904FF00073D2B216
:100350002946384601F0D0F8F0E7224641463846B3
:1003600000F0F6FF00282BD1786A0078396888629F
:10037000786A401C7862788D401E7885388D411EE1
:100380003985788D00282AD089B2002927D1009498
:10039000434600228021384600F0ACFF002811D1EE
:1003A000788DB0F5807F0FD3FF2038850020009036
:1003B0004FF08073FF222946384601F09DF80EE089
:1003C00001202AE0012028E07A8D3A850020009063
:1003D0004FF00073D2B22946384601F08DF8788D7F
:1003E0000028BAD122464146384600F0DBFF010022
:1003F0000CD120203A68D0613A6853686E480340B7
:100400005360202070700020B07030700846401E8D
:100410008041C043C00F00E00220BDE8FE8F2DE9FF
:10042000FE4F05460E4692469B4605F14004607815
:10043000202840F0BD800C9F002F04D0DDF83490C0
:100440004846002804D14FF4007060600120B0E0FD
:100450002078012800F0AC800120207001F01AFB08
:100460008046CDF80080192301224FF40041284630
:1004700000F040FF002801D001209AE05B46524680
:10048000222060704020A070002060606F62A5F89C
:100490002A906863CDF804800E9800903146284673
:1004A00000F03AFC002803D000202070012080E0FA
:1004B000DFF8B802698DB1F5807F0BD3FF21298564
:1004C00000904FF080730A463146284601F014F838
:1004D0000E9F0AE06A8D2A8500904FF00073D2B219
:1004E0003146284601F008F8F2E7CDF800803B4697
:1004F00000220421284600F0FDFE00282CD12868A7
:10050000406A696A0870686A401C6862288D401EEB
:100510002885688D401E6885688D00282BD0288D21
:10052000002828D1CDF800803B46002280212846B3
:1005300000F0E0FE002811D1688DB0F5807F0FD368
:10054000FF202885002000904FF08073FF22314665
:10055000284600F0D1FF0EE001202AE0012028E02B
:100560006A8D2A85002000904FF00073D2B2314688
:10057000284600F0C1FF688D0028B6D142463946B2
:10058000284600F00FFF01000CD120202A68D0611E
:100590002A68536808480340536020206070002098
:1005A000A07020700846401E8041C043C00F00E08C
:1005B0000220BDE8FE8F000000E800FE2DE9FC47A8
:1005C0000746884615461E4607F1400999F801007E
:1005D000202859D10A9C002C04D0DDF82CA05046CC
:1005E000002805D14FF40070C9F8040001204CE048
:1005F00038688069000447D499F80000012843D086
:10060000012089F8000001F045FA212189F8011044
:10061000402189F802100021C9F804107C62A7F873
:100620002AA05049F96250497963798DB1F5807FEC
:1006300004D3FF2139854FF0807403E0798D39852B
:100640004FF0007433462A4601901920009041462D
:10065000384600F026FB002804D0002089F800006E
:10066000012012E00020009023463A8DD2B241468C
:10067000384600F041FF002089F80000012138468B
:1006800000F04EFF002000E00220BDE8F6872DE9D3
:10069000FC470746884615461E4607F1400999F86B
:1006A000010020285AD10A9C002C04D0DDF82CA08F
:1006B0005046002805D14FF40070C9F8040001200D
:1006C0004DE038688069000448D499F8000001289A
:1006D00044D0012089F8000001F0DCF9222189F8DA
:1006E0000110402189F802100021C9F804107C6231
:1006F000A7F82AA01B49F9621B497963798DB1F5E6
:10070000807F04D3FF2139854FF0807403E0798D19
:1007100039854FF0007433462A4601901920009025
:100720004146384600F0F8FA002804D0002089F845
:100730000000012013E0DFF83400009023463A8DDA
:10074000D2B24146384600F0D7FE002089F80000BA
:100750000221384600F0E4FE002000E00220BDE85F
:10076000F68700000000FFFFE90700080024008072
:10077000026891691268436B002B00D018477047DC
:1007800018B4026891691268CB0509D5130607D51C
:10079000436C43F0010343644FF480730468E361E6
:1007A0004B0509D5130607D5436C43F00803436492
:1007B0004FF480630468E361890509D5110607D504
:1007C000416C41F0020141644FF400710268D16153
:1007D000416C11F00B0F02D014BC00F0E5BC11BC51
:1007E000704790F841007047F8B504460E4617462A
:1007F00004F140052878012801D10220F2BD012032
:100800002870F0060CD5F8060AD510202168C861BA
:10081000686840F004006860204600F04EFD84E007
:10082000700711D578070FD526F004062068406AB6
:10083000616A0870606A401C6062208D401E2085DD
:10084000608D401E608570E0B0070FD5B8070DD5EC
:10085000606A007821688862606A401C6062208D4E
:10086000401E2085608D401E60855EE030063FD5CD
:1008700078063DD5608D00282DD0208D00282AD106
:1008800020684168C1F30901608DB0F5807F0AD30B
:10089000FF202085002000904FF08073FF2220462B
:1008A00000F02AFE41E0628D2285E06ADFF8283AF6
:1008B000984207D000200090E36AD2B2204600F0B0
:1008C0001BFE32E0002000904FF00073D2B22046B1
:1008D00000F012FE29E020684068800103D4204621
:1008E00000F0AEFA21E04021204600F05DFC1CE063
:1008F00070061AD5780618D5608D002811D12068A9
:100900004168890111D4E16ADFF8CC29914204D110
:10091000416841F48041416007E0204600F090FAD0
:1009200003E04021204600F03FFCB00605D5B806A4
:1009300003D53146204600F0EAFA00202870F2BDC7
:100940002DE9F04105460F469046EC6A05F1400658
:100950003078012801D102208CE001203070B806E7
:1009600005D55FEA886002D5284600F04CFBF80602
:1009700036D55FEAC86033D5688D00281FD17078FE
:10098000282807D1B4F1007F04D13946284600F069
:10099000DAFB6DE0707829280DD1DFF83C0984423C
:1009A00009D010202968C861284600F086FC284636
:1009B00000F071FA5CE010202968C86158E010204E
:1009C0002968C861706840F004007060002C02D093
:1009D000B4F1807F4CD17168284600F0E5FB47E018
:1009E00078071DD55FEA48701AD5688D00280CD0AD
:1009F0002868406A696A0870686A401C6862288DC5
:100A0000401E2885688D401E6885688D00282FD17E
:100A1000DFF8C40884422BD0284600F03CFA27E0D7
:100A2000380707D55FEA087004D53946284600F034
:100A3000ADF91DE0B8071BD55FEA887018D5688D41
:100A400000280DD0686A007829688862686A401CAE
:100A50006862688D401E6885288D401E288507E0E5
:100A6000B4F1807F01D0002C02D1284600F013FAA7
:100A700000203070BDE8F08138B5054605F140042E
:100A80002078012801D1022032BD01202070C80643
:100A900010D5D0060ED510202968C861606840F0D6
:100AA000040060602021284600F03AFD284600F04E
:100AB00004FC6CE0080645D5500643D5286801685B
:100AC00021F0400101602968688D00282ED0496816
:100AD000C1F30901688DB0F5807F04D3FF2028851C
:100AE0004FF080730AE0688D2885E86ADFF8E82710
:100AF000904201D0EB6A01E04FF0007300200090BB
:100B00002A8DD2B2284600F0F7FC698D288D091A8B
:100B10006985286861782229016803D141F4004180
:100B2000016034E041F48041016030E048688001B8
:100B300003D4284600F084F929E04021284600F03B
:100B400033FB24E048061BD5500619D5688D0028D4
:100B500011D128684168890119D4E96ADFF878273A
:100B6000914204D1416841F4804141600FE0284640
:100B700000F066F90BE04021284600F015FB06E086
:100B8000880604D5900602D5284600F0C0F900205A
:100B9000207032BD2DE9F843054688469146EC6A3F
:100BA000002605F140073878012801D1022076E0BF
:100BB000012038705FEA886005D55FEA896002D558
:100BC000284600F020FA5FEAC8605CD55FEAC96099
:100BD00059D519F4404F52D0E86B002807D05FEA8E
:100BE000094104D500684068002800D10126A86B9F
:100BF000002807D05FEA494104D500684068002812
:100C000000D10126012E1BD17878282807D1B4F114
:100C1000007F04D14146284600F095FA3DE07878FF
:100C200029282CD1DFF8B006844228D0102029686A
:100C3000C861284600F041FB284600F02CF92CE062
:100C400010202968C861786840F0040078607878DE
:100C5000002C02D0B4F1807F1FD1212801D0292897
:100C600002D12120286305E0222801D02A2801D1C1
:100C7000222028637968284600F096FA0DE01020BB
:100C80002968C86109E05FEA087006D55FEA097063
:100C900003D54146284600F079F800203870BDE8B9
:100CA000F2832DE9FC41044617469846089D099EAB
:100CB000DFF8CC0800904FF080734246D2B2204655
:100CC00000F01AFC32462946204600F041FB00287D
:100CD00001D001201DE0B8F1010F0CD03846000A08
:100CE0002168886232462946204600F031FB002800
:100CF00001D001200DE0FFB22068876200962B46EC
:100D000000228021204600F0F5FA401E8041C043B9
:100D1000C00FBDE8F68100002DE9FC4104461746EE
:100D20009846089D099EDFF8580800900023424627
:100D3000D2B2204600F0E0FB32462946204600F0C1
:100D400007FB002801D001201DE0B8F1010F0CD0F5
:100D50003846000A2168886232462946204600F05B
:100D6000F7FA002801D001200DE0FFB22068876269
:100D700000962B4600224021204600F0BBFA401E80
:100D80008041C043C00FBDE8F68100002DE9F0416D
:100D9000044604F140052068697801F028012829FB
:100DA00048D18669360C06F0010687693F0C07F0CA
:100DB000FE078268C2F30902D0F80C8008F0FE0832
:100DC000E068022828D107F006071046C00900F0A5
:100DD0000600874212D1A868401CA860A8680228B3
:100DE0002CD10020A86008202168C861002028704C
:100DF00031462046BDE8F04100F052BE4FF40041BC
:100E0000204600F0C9FB00202870424631462046AB
:100E1000BDE8F04100F044BE4FF40041204600F030
:100E2000BBFB002028703A4631462046BDE8F04121
:100E300000F036BE0821C16100202870BDE8F081B5
:100E400038B5044604F140050020A87068782128D0
:100E500010D12020687011202063002060630121E0
:100E6000204600F099FB002028702046BDE8324063
:100E700000F017BE202068701220206300206063FD
:100E80000221204600F088FB002028702046BDE8A3
:100E9000324000F007BE38B504462068006804F10F
:100EA00040050021A970410405D52068016821F49E
:100EB0008041016006E0000404D52068016821F447
:100EC00000410160687829280ED12820687021200F
:100ED00020630121204600F05FFB0020287020469F
:100EE000BDE8324000F0DFBD68782A280ED1282006
:100EF0006870222020630221204600F04DFB002074
:100F000028702046BDE8324000F0CEBD31BD7CB532
:100F100004460D4620202168C86104F1400670781F
:100F2000212806D10121204600F036FB1120206344
:100F300008E07078222805D10221204600F02CFB21
:100F40001220206321684A68DFF8380602404A60B0
:100F500000206063DFF88003E062E80606D5102019
:100F60002168C861706840F0040070607078602883
:100F700006D1680704D52068406AC0B20090009886
:100F8000204600F09AF970687178602901D0002835
:100F900004D071682046BDE87C4005E170782128C6
:100FA00016D12020707000202063B078402807D12F
:100FB0000020B07030702046BDE8764001F044B9A2
:100FC0000020B07030702046BDE8764000F069BD6A
:100FD0007078222816D12020707000202063B0780D
:100FE000402807D10020B07030702046BDE8764020
:100FF00001F04CB90020B07030702046BDE876405A
:1010000000F050BD73BDF8B504460E4621680F6868
:1010100004F1400568782022CA61212801D02928DE
:1010200007D148F20101204600F0B6FA21202063E2
:101030000AE0222801D02A2806D148F202012046DF
:1010400000F0AAFA222020632068416841F40041A0
:10105000416021684A68DFF82C0502404A6020465A
:1010600000F02BF978040BD52068016821F4804149
:101070000160A06B002810D00068406860850CE01B
:1010800038040AD52068016821F400410160E06B52
:10109000002802D0006840686085700710D526F0EF
:1010A00004062068406A616A0870606A401C6062D9
:1010B000208D002804D0401E2085608D401E608554
:1010C000608D002803D0686840F00400686000204C
:1010D000A8706063686800280BD06968204600F03B
:1010E00063F8687828282DD131462046BDE8F440C1
:1010F00029E0794EE06AB0420DD02046FFF7CBFEE2
:10110000E662202068700020206328702046BDE839
:10111000F24001F07FB96878222809D12020687058
:101120000020206328702046BDE8F24000F0BCBCDF
:10113000202068700020206328702046BDE8F2401F
:1011400000F0B1BCF1BD38B504466348E062002050
:10115000206304F14005202068700020A8706063BF
:10116000480712D52068406A616A0870606A401CAE
:101170006062208D002808D0401E2085608D401EB2
:101180006085686840F00400686048F2030120460A
:1011900000F002FA10202168C86100202870204663
:1011A000BDE8324001F036B938B5044604F14005D7
:1011B00068780022AA70484AE262002262856A6862
:1011C00011436960282803D0292801D02A2809D191
:1011D0000321204600F0E0F928206870DFF8A8031A
:1011E00060630BE048F20301204600F0D5F968780F
:1011F000602801D02020687000206063216BA06B04
:10120000002820D0112901D021291CD12068016893
:10121000490403D5016821F480410160A06B01F00D
:1012200077FA012833D00FF2B500A16B8863002054
:101230002870A06B01F0CDF900282CD0A06B816B39
:10124000BDE834400847E06B002820D0122901D0C7
:1012500022291CD120680168090403D5016821F402
:1012600000410160E06B01F053FA01280FD00FF24A
:101270006D00E16B886300202870E06B01F0A9F934
:10128000002808D0E06B816BBDE834400847204659
:10129000BDE8324000E031BD00F130014A7C602AF7
:1012A00006D120224A7400220A600A7401F08EBA24
:1012B00000220A600A7401F069B801688A6992071D
:1012C00001D500228A6200688169C90703D4816957
:1012D00041F00101816170470000FFFF806A816B6E
:1012E000002901D000228A63C16B002901D00022AD
:1012F0008A63D1E72DE9F04105460E4617461C46A4
:10130000DDF81880286880693040B04201D10120A2
:1013100000E000203946884217D114F1010FF1D0C6
:1013200000F0B8FBA0EB0800844201D3002CE9D107
:1013300005F14000416841F02001416020214170E9
:10134000002181700170012000E00020BDE8F081E3
:1013500070B505460C4616462868806980071FD47C
:1013600032462146284600F045F8002801D00120E9
:1013700070BD14F1010FEFD000F08CFB801B844294
:1013800001D3002CE8D105F14000416841F0200173
:10139000416020214170002181700170012070BDE9
:1013A000002070BD70B505460C4616462868806959
:1013B00080061DD432462146284600F01BF800283E
:1013C00007D100F067FB801B844204D3002CEDD1D1
:1013D00001E0012070BD05F14000416841F02001AD
:1013E000416020214170002181700170012070BD99
:1013F000002070BD2DE9F04105460C4690460026C0
:10140000286881693746C90643D51021C16105F1B5
:10141000400728688169890635D4310033D114F139
:10142000010FF6D000F036FBA0EB0800844201D398
:10143000002CEED12868416801F48041BA788369B4
:101440001B040BD5B1F5804F08D0202A06D0416887
:1014500041F48041416000F01DFB804628688069AE
:101460008006D6D400F016FBA0EB08001A28F5D3AE
:10147000786840F020007860202078700020B870F4
:1014800038700126EAE7002E01D12021C16104272E
:10149000012629688869C20505D547F001074FF480
:1014A0008072CA610126410506D547F008074FF44E
:1014B00080612A68D1610126800506D547F00207C0
:1014C0004FF400702968C8610126300011D0284609
:1014D000FFF7F3FE29684A682A4802404A6005F18E
:1014E000400041680F434760202141700021817016
:1014F00001703046BDE8F08170B4039C0068456817
:10150000224E46EA5456B543C1F3090141EA02416D
:101510001943214321F000412943416070BC7047C9
:1015200030B40022436B1C46194DAC4202D0194C1A
:10153000A34210D10B0400D5B8220B46102B01D1C9
:1015400042F09002202B01D142F06002402911D1DB
:1015500042F040020EE00B0400D5B822CB0701D5C3
:1015600042F0F2028B0701D542F0F402202901D1AA
:1015700042F02002006801680A43026030BC7047F4
:101580000020008000E800FE41090008FF63FF031F
:10159000790A0008950B00080022CB0707D54222E4
:1015A00090F8413003F02803282B00D0F2228B075B
:1015B00009D542F0440290F8413003F02803282B6B
:1015C00001D042F0B0020B0401D542F0B8020B4644
:1015D000102B01D142F09002202B01D142F02002C9
:1015E000402901D142F040020068016821EA02026C
:1015F0000260704710B5DFF88444DFF8840420608F
:10160000DFF8800460600020A0600120E06000201E
:1016100020616061A061E06120622046FEF7DCFD90
:10162000002801D000F0E8FE0021204601F0D0F8AB
:10163000002801D000F0E0FE0021204601F0F2F881
:10164000002803D0BDE8104000F0D6BE10BD18B58C
:1016500097B0044600221421684601F00BF90022DD
:10166000442106A801F006F92068DFF81414884226
:1016700056D14020069000200C9006A801F018F9E1
:10168000002801D000F0B8FEDFF8FC43206840F0ED
:1016900001002060206800F0010005900598206896
:1016A00040F002002060206800F0020005900598DC
:1016B0004FF4004000901220019001200290002081
:1016C00003900420049069464FF0904001F024FA02
:1016D00080200090122001900120029000200390B1
:1016E000042004906946DFF8A40301F015FAE068CD
:1016F00040F40010E060E06800F4001005900598E8
:10170000002202211F2001F046FB1F2001F052FBA6
:1017100000220221202001F03EFB202001F04AFBA4
:1017200018B010BD38B52DED028B84B0D34DD84C18
:10173000608B02900120019004F158000090012379
:10174000228BA2212846FEF7A0FD2846FFF749F884
:101750002428FAD02846FFF744F82228FAD0284651
:10176000FFF73FF82128FAD02846FFF73AF820285B
:10177000FAD1012001F02EFB608B0290062001902F
:1017800000940123228BA2212846FEF748FE608B9D
:1017900002900120019004F1580000900123228B57
:1017A000A0212846FEF771FD012001F013FB284619
:1017B000FFF717F82428FAD02846FFF712F8222856
:1017C000FAD02846FFF70DF82128FAD02846FFF76F
:1017D00008F82028FAD1608B029006200190A01D05
:1017E00000900123228BA0212846FEF718FE2846F0
:1017F000FEF7F7FF2428FAD02846FEF7F2FF22284A
:10180000FAD02846FEF7EDFF2128FAD02846FEF749
:10181000E8FF2028FAD1608B02900120019004F1AA
:10182000580000900123228BA6212846FEF72DFDAB
:101830002846FEF7D6FF2428FAD02846FEF7D1FF27
:101840002228FAD02846FEF7CCFF2128FAD02846D5
:10185000FEF7C7FF2028FAD1608B02900620019086
:1018600004F10C0000900123228BA6212846FEF7EC
:10187000D6FD2846FEF7B5FF2428FAD02846FEF705
:10188000B0FF2228FAD02846FEF7ABFF2128FAD075
:101890002846FEF7A6FF2028FAD1608B029001208F
:1018A000019004F1580000900123228BA4212846C6
:1018B000FEF7EBFC2846FEF794FF2428FAD02846D2
:1018C000FEF78FFF2228FAD02846FEF78AFF21284C
:1018D000FAD02846FEF785FF2028FAD1608B0290C7
:1018E0000620019004F1120000900123228BA42114
:1018F0002846FEF794FD2846FEF773FF2428FAD009
:101900002846FEF76EFF2228FAD02846FEF769FF28
:101910002128FAD02846FEF764FF2028FAD194ED5A
:10192000148B2078617840EA012000B201F066FA59
:1019300053EC182B01F074FA01F096FBE061A078EB
:10194000E17840EA012000B201F058FA53EC182B7C
:1019500001F066FA01F088FB20622079617940EAA3
:10196000012000B201F04AFA53EC182B01F058FAAA
:1019700001F07AFB6062A079E17940EA012000B2CF
:1019800001F03CFA53EC182B01F04AFA01F06CFB21
:10199000A062207A617A40EA012000B201F02EFABA
:1019A00053EC182B01F03CFA01F05EFBE062A07AE8
:1019B000E17A40EA012000B201F020FA53EC182B42
:1019C00001F02EFA01F050FB2063207B617B40EA9E
:1019D000012000B201F012FA53EC182B01F020FAAA
:1019E00001F042FB6063A07BE17B40EA012000B292
:1019F00001F004FA53EC182B01F012FA01F034FB59
:101A0000A063207C617C40EA012000B201F0F6F97D
:101A100053EC182B01F004FA01F026FBE063A07CE4
:101A2000E17C40EA012000B201F0E8F953EC182B08
:101A300001F0F6F901F018FB2064207D617D40EA99
:101A4000012000B201F0DAF953EC182B01F0E8F9AB
:101A500001F00AFB6064A07DE17D40EA012000B254
:101A600001F0CCF953EC182B01F0DAF901F0FCFA93
:101A7000A06404B0BDEC028B31BD00005C06002008
:101A8000005400409B2D80104C1002400004004880
:101A90000000002001480068704700BF18030020C4
:101AA0007047704770477047704730B50168846869
:101AB0004218416802EB5103C90703D54C4401E0C9
:101AC000491C08D19A4218BF12F9011B01D10C30F0
:101AD00030BD12F8015B002904F8015BF0D4491E07
:101AE000F7D5EFE780B501F0F3FA00F00FF801F059
:101AF0000BFB01F03DFB01F063FBFFF77BFD01F009
:101B00006FFD00F03EF800F08BF9FCE700B593B0F4
:101B10000022382105A800F0ADFE002214216846FD
:101B200000F0A8FE002001F01BFE012005904FF4FC
:101B30008030069002200C9003200D9006200E901D
:101B400055200F90022010901190129005A801F0DE
:101B50007FFE002801D000F04FFC0F2000900320F2
:101B6000019000200290039004900421684602F046
:101B70005BF8002801D000F03FFC02F073F913B0CD
:101B800000BD10B572B6DFF834482046D4F8A8106E
:101B900088474FF480722169206802F040FA0028DB
:101BA00001D000F029FCDFF81848206803F0BEF8E7
:101BB000002801D000F020FC0022A16E206803F074
:101BC00080F9002801D000F017FC07224FF42071A3
:101BD000DFF8F00703F075F9002801D000F00CFCE5
:101BE0000020A060E0604FF40020206100206061D0
:101BF000A061E0612062606262B601F0B7FC012181
:101C0000DFF8C40701F052F8DFF8C017C8700020F1
:101C1000DFF8BC1708740A20BDE8104001F0DAB8FC
:101C2000F8B52DED068BDFF8AC67306B401C3063E8
:101C300003F0FEFA41EC180B96ED089B53EC192BC0
:101C40000020DFF8941703F001FB53EC182B03F08E
:101C5000D3FB05D8D6E90A0103F0E8FBB0810EE01A
:101C600051EC190B03F0C8FB07D8D6E90A0181F043
:101C7000004103F0DBFBB08101E000203063306BFA
:101C800003F0D6FA4FF0C042DFF8503703F0DEFA27
:101C900053EC192B01F0C4F801F0E6F900EE100A3C
:101CA00003F0E0FB10EE100A03F022FCD6E90A2351
:101CB00003F0CCFA03F0BAFBB081DFF8107797EDB0
:101CC000080AD7ED090A30EE200A03F0CBFB10EE2C
:101CD000100A03F00DFCD7E91A2303F0B7FAD7E98D
:101CE0001C2303F0B3FA01F0BFF9F86397ED080A7B
:101CF00003F0B8FBB0EE408A97ED0FAA1AEE100A77
:101D000003F0F6FB04460D4618EE100A03F0F0FB54
:101D1000D7E9182303F09AFAD7E91C2303F096FABF
:101D200022462B4603F008FC01F09EF90AEE900AC9
:101D3000C7ED0EAA97ED1E8BDFF8A4469FED369BEC
:101D400097ED0D0A8AEE000A10EE100A03F0D0FBA0
:101D500053EC182B01F064F853EC192B03F076FACE
:101D6000D6E9062303F072FA03F060FB608697ED74
:101D70000C0A8AEE800A10EE100A03F0B9FB53EC4D
:101D8000182B01F04DF853EC192B03F05FFAD6E94C
:101D9000042303F05BFA03F049FBE081786A03F067
:101DA000A7FB21F00041D7E9062303F025FB01D86A
:101DB00000206086386A03F09BFB21F00041D7E9E0
:101DC000042303F019FB01D80020E0810121DFF892
:101DD000F80500F06BFFF87001280BD100200146D8
:101DE00004F10E0204E000EBC0039B00D152401C42
:101DF0000128F8DDB06B401CB0630A2809DB787954
:101E0000012806D1B878002803D001F034FB002067
:101E1000B063BDEC068BF1BD0000000000408F40B8
:101E20002DE970432DED068B82B0DFF8A845FFF752
:101E300031FE60632078002807D00FF2C051DFF830
:101E40007C0503F0D4FC00202070A078002806D088
:101E5000DFF87805407901F08DFA0020A070E07875
:101E600000280CD0012506E0DFF86005817901200B
:101E700001F092FA6D1C052DF6DB0020E070607811
:101E800000280ED0012505E00B212846C0B201F044
:101E900083FA6D1C052DF7DB0020DFF83015887004
:101EA0006070207900280AD0012504E02846C0B2DD
:101EB00001F01CFB6D1C052DF8DB00202071DFF804
:101EC0000C552878032801DD012000E00020A978C6
:101ED00001420AD0012604E03046C0B201F038FACF
:101EE000761C052EF8DB00202870A07A00280AD086
:101EF000012604E03046C0B201F024FB761C052E1A
:101F0000F8DB0020A0726079002820D001261AE0BA
:101F10003046C0B201F012FB46F26402DFF8C004A2
:101F200006EBC60100EB810030F9221C9142F5D18D
:101F300050F81C0C00F062FF05F1380202EBC602FB
:101F4000C2E90001761C052EE2DB00206071A07959
:101F500000280AD0012604E03046C0B201F0EEFAB3
:101F6000761C052EF8DB0020A071607A002800F0B6
:101F7000CC80012001F0E2FA022001F0DFFA052016
:101F800000F028FF46F26400DFF85464B6F902104E
:101F90008142FBD1B6F926108142F7D195ED080AAE
:101FA000D5ED090A30EE200A03F05CFA10EE100AB3
:101FB00003F09EFAD5E91A2303F048F9D5E91C236A
:101FC00003F044F901F050F8E86395ED080A03F0D6
:101FD00049FAB0EE408A95ED0FAA1AEE100A03F006
:101FE00087FA8046894618EE100A03F081FAD5E98F
:101FF000182303F02BF9D5E91C2303F027F94246F7
:102000004B4603F099FA01F02FF80AEE900AC5ED5D
:102010000EAA95ED1E8B9FED9B9B95ED0D0A8AEE0A
:10202000000A10EE100A03F063FA53EC182B00F0CC
:10203000F7FE53EC192B03F009F9D4E9062303F05A
:1020400005F903F0F3F9708695ED0C0A8AEE800A23
:1020500010EE100A03F04CFA53EC182B00F0E0FEDF
:1020600053EC192B03F0F2F8D4E9042303F0EEF853
:1020700003F0DCF9F081686A03F03AFA21F00041DC
:10208000D5E9062303F0B8F901D800207086286A44
:1020900003F02EFA21F00041D5E9042303F0ACF956
:1020A00001D80020F0810121C74800F0FFFDE87051
:1020B00001280BD10020014606F10E0204E000EBDE
:1020C000C0039B00D152401C0128F8DD46F2710587
:1020D000B6F93200009000232A460221084601F09A
:1020E00002F9B6F90E00009000232A4602210120D1
:1020F00001F0F9F8052000F06DFEB6F90200A842E3
:10210000FBD1B6F92600A842F7D1207A002801D0E9
:10211000FFF708FBFFF7BEFC616B401AE07102B0ED
:10212000BDEC068BBDE87083AE480178491C017098
:102130007047F8B50268136D5B0701D5042313657A
:102140009F4C256800682A6890426BD1A06E0142BE
:1021500068D09E4E04F1580304F13002616E2846A7
:1021600002F022FE0028206B09D07189884202D13A
:102170000020307000E0708100F03EF940E000F097
:102180007F01491E717000F4F0603081B0F5C07FAE
:1021900049D0B0F5B06F33D1C9B22425904F15FBAB
:1021A00001F03844C2699047707815FB00F5781942
:1021B000B0F9020046F26401884221D175788A485C
:1021C00005EBC5018900405800F018FE06EBC5027A
:1021D000D2E9102303F06EFA844A854B03F036F8F7
:1021E00000F042FF00EE100A06F1300000EB85001F
:1021F000D0ED000A80EE200A06EB850080ED080A8B
:102200004021704802F04BFE30713079012809DD21
:1022100004F1580304F13002616E206802F0C4FD3D
:102220000028F5D1F1BD3078401C3070C9B26C483F
:1022300001EBC10200EB8200026A90470128BDD089
:102240000B20B071DCE7EBE41CB56A4CA04218D15E
:102250005F49087C002809D10620019000910123E4
:102260003D22498A2046FEF712FA13BD062001904E
:1022700001F10800009001233D22898A2046FEF7E3
:1022800006FA13BD0000000000408F403EB5594CD7
:10229000A0427AD14E4D2979AA782B789FED450A34
:1022A000DFED450A287C002833D1687843EA002313
:1022B00001EE103AB8EEC11A21EE201A21EE001AF2
:1022C00085ED061AE87842EA002201EE102AB8EEFF
:1022D000C11A21EE201A21EE001A85ED071A68793D
:1022E00041EA002101EE101AB8EEC11A61EE200A8F
:1022F00020EE800A85ED080A01202874019005F17E
:102300003800009001233D22A98A2046FEF756F9A5
:1023100037BD687A43EA002301EE103AB8EEC11ADD
:1023200021EE201A21EE001A85ED091AE87A42EA18
:10233000002201EE102AB8EEC11A21EE201A21EE79
:10234000001A85ED0A1A687B41EA002101EE101A95
:10235000B8EEC11A61EE200A20EE800A85ED0B0A64
:10236000FFF798FB296B401A6863FFF793FB28631C
:10237000002028740120019005F140000090012305
:102380003D22698A2046FEF719F937BD1CB5194C64
:10239000A0420DD10E48002101740121019100F1EC
:1023A0004001009101233D22418A2046FEF706F9B3
:1023B00013BD000000003443000000386802002014
:1023C00024010020F80500200004004868000020D7
:1023D00020020020E80000200000E03FFB2119401F
:1023E00090010020AF060020980100205D8940F593
:1023F0000F22493F5C06002072B6FEE741542B4392
:102400004F4E4D41433D37304238463639373736E7
:1024100039320D007047000038B5040001D10120A9
:1024200032BD216804F12405DFF87C0381420BD220
:10243000DFF8780341181420B1FBF0F08000286227
:10244000DFF86C03E8610AE0DFF868034118142044
:10245000B1FBF0F080002862DFF85C03E861022045
:10246000687021680A686FF30E12A0680243E06882
:1024700002432069024360690243A0690243E069A4
:102480000243206A02430A60204600F065F9A06812
:10249000B0F5804F01D1002060602079696A086042
:1024A000E86AA96A4860606800280BD0052809D24C
:1024B000204600F06BF90020296B0860A86B696B5F
:1024C000486003E0002028636863A8630020A861D7
:1024D000012068700020287032BDF8B50446002540
:1024E00004F124063078012801D10220F2BD012038
:1024F00030707078012831D1022070702846B061A8
:10250000206807687F087F000760204600F003F915
:102510002168F0680028086803D040F00E000860C9
:1025200007E020F0040008602068016841F00A011B
:102530000160706A0168C90303D5016841F48071C4
:102540000160306B002803D0016841F480710160A4
:102550002068016841F00101016002E02846307006
:1025600002252846F2BD10B4002100F12402537860
:10257000022B03D004209061012123E003681C6832
:1025800024F00E041C60536A1C6824F480741C60E0
:10259000006803685B085B000360012092F820304C
:1025A00003F01F039840D3695860D06A936A58605B
:1025B000106B002806D0036823F480730360906BCF
:1025C000536B58600120507000201070084610BCFA
:1025D000704710B5002400F124025178022907D079
:1025E00004209061012050702046107001242BE0DF
:1025F00001680B6823F00E030B6001680B685B0831
:102600005B000B60516A0B6823F480730B6001213F
:1026100092F8203003F01F039940D3695960D16AC2
:10262000936A5960116B002906D00B6823F48073FC
:102630000B60916B536B59600121517021461170F1
:102640005169002900D08847204610BDF0B400F140
:102650002401CA6914680268156891F8206006F0C0
:102660001F06042303FA06F73C4214D06F0712D565
:102670001468A40603D4146824F00404146091F8C8
:10268000202002F01F029340CA695360C9680029E4
:102690003CD0F0BC0847022303FA06F73C4218D0AE
:1026A000AF0716D51468A40605D4146824F00A04EC
:1026B000146001224A7091F8202002F01F0293401A
:1026C000CA69536000220A70896800291ED0F0BCD4
:1026D0000847082303FA06F6344217D02B0715D50E
:1026E000136823F00E031360012291F8203003F0E9
:1026F0001F039A40CB695A6001228A614A70002206
:102700000A700969002901D0F0BC0847F0BC704785
:1027100090F82500704730B4046DC56C6C60446D52
:10272000002C02D0C46D856D6C60012490F844507B
:1027300005F01F05AC40056C6C60046863600368BD
:102740008468102C03D19A600068C16002E099602F
:102750000068C26030BC70470168184A124B994249
:1027600000D3203201F0FF0108391423B1FBF3F14B
:10277000436C9B0812EB83028264114AC2640122FB
:1027800001F01F0102FA01F10165704701790D4A5C
:1027900002EB810242650C4A82650122491E01F06A
:1027A0001F018A40C265704708040240F8FFFDBF60
:1027B00000000240F8FBFDBF000402400008024098
:1027C00080080240FC0802404009024070470000B7
:1027D00010B400F140025378202B20D11378012B44
:1027E00001D102201CE001231370242353700368DD
:1027F0001C68640864001C6003681C6824F480542E
:102800001C6003681C68214319600068016841F07E
:1028100001010160202050700020107000E00220B3
:1028200010BC704710B400F140025378202B1ED129
:102830001378012B01D102201AE001231370242305
:10284000537003681C68640864001C6003681C689B
:1028500024F4706444EA01241C600068016841F0BB
:1028600001010160202050700020107000E0022063
:1028700010BC704762F30F2262F31F4200B500BF25
:10288000130096469446103928BFA0E80C50FAD899
:102890005FEA417C28BF0CC048BF40F8042BC90741
:1028A00028BF20F8022B48BF00F8012B00BD000014
:1028B0002DE9FC47054600242646DFF850722868BB
:1028C000000369D5A046F86CC0000AD4F86C40F04B
:1028D0008050F864F86C00F08050009000984FF041
:1028E0000108DFF82C92D9F8000040F48070C9F894
:1028F0000000FFF7CFF88246D9F80000C00506D4E3
:10290000FFF7C8F8A0EB0A000328F5D30324200042
:102910003AD1DFF80092D9F8000010F4407014D0DA
:10292000296C884211D0D9F8000020F44070D9F801
:10293000001041F48031C9F80010D9F8001021F4DA
:102940008031C9F80010C9F80000C0070FD5FFF7A3
:10295000A1F88246D9F80000800708D4FFF79AF85A
:10296000A0EB0A0041F289318842F3D3032420000E
:1029700008D1D9F8001021F44071286C0143C9F83E
:10298000001002E0264600E02646B8F1010F03D110
:10299000F86C20F08050F8642878C00705D5F96FEE
:1029A0008908686850EA8101F9672878800705D5A9
:1029B000F96F21F00C01A8680143F96728784007F6
:1029C00005D5F96F21F03001E8680143F9672878EF
:1029D000000705D5F96F21F0C00128690143F967A7
:1029E0002878800605D5F96F21F4406168690143B4
:1029F000F9672878400605D5F96F21F44051A86998
:102A00000143F9672878000605D5F96F21F44041A4
:102A1000E8690143F9672868C00505D5F96F21F415
:102A20004031286A0143F9672868800505D5F96FA8
:102A300021F44021686A0143F967286840050DD5F3
:102A4000F96F21F44011A86A0143F967A86AB0F54B
:102A5000801F03D1386840F4801038602868000572
:102A60000DD5F96F21F44001E86A0143F967E86A7E
:102A7000B0F5800F03D1386840F4801038602868C2
:102A8000C0040DD5F96F21F04071286B0143F9673F
:102A9000286BB0F1807F03D1386840F48010386033
:102AA000286880040DD5F96F21F04061686B0143FF
:102AB000F967686BB0F1006F03D1386840F480109B
:102AC0003860286840040DD5F96F21F04061A86B8B
:102AD0000143F967A86BB0F1006F03D1386840F487
:102AE00080103860286800040DD5F96F21F040513E
:102AF000E86B0143F967E86BB0F1805F03D1386898
:102B000040F4803038603046BDE8F6870C10024053
:102B10000070004090100240F8B502460B460024B9
:102B20002DE04FF0060C05E0DFF890C16245F8D1CA
:102B30004FF0050C0CFA06FC4CEA070C45F821C0D6
:102B40005F498E68C5432E405F68FF0200D506438B
:102B50008E60CE682E405F68BF0200D50643CE600F
:102B60004E682E405F68BF0300D506434E600E6876
:102B70002E405D68ED0300D506430E60641C1868A6
:102B80000146E14000F091800127A7403840F5D090
:102B9000610003258D40ED435E6806F0030CBCF137
:102BA000010F03D006F00306022E10D196682E40C6
:102BB000D3F80CC00CFA01FC4CEA06069660566885
:102BC000BE435F68C7F30017A7403E4356601E79B7
:102BD00006F00306032E05D0D6682E409F688F406E
:102BE0003E43D6601E7906F00306022E15D1264616
:102BF000F60802EB86073E6A4FEA840C0CF01C0CC8
:102C00004FF00F0E0EFA0CFE26EA0E06D3F810E077
:102C10000EFA0CFC4CEA06063E6216682E401D7940
:102C200005F0030505FA01F10E431660596811F429
:102C3000403FA3D023490D6845F001050D600968A8
:102C400001F0010100910099214689081E4D55F8B7
:102C50002170A60006F00C064FF00F0C0CFA06FCD3
:102C600027EA0C07B2F1904F02D14FF0000C61E758
:102C7000DFF858C0624502D14FF0010C5AE7DFF887
:102C800050C0624502D14FF0020C53E7DFF844C058
:102C9000624502D14FF0030C4CE7DFF83CC06245BF
:102CA0007FF442AF4FF0040C44E7F1BD00690140EE
:102CB0000846401E8041C043C00F704700140048C2
:102CC0000004014060100240080001400004004878
:102CD00000080048000C004800100048374A1368FC
:102CE0004FF6FF010B40000200F4E0601843344946
:102CF00008431060704731480068C0F302207047F5
:102D0000010007D4012200F01F018A402D4940092B
:102D100041F8202070470901020002D42A4881545A
:102D200070472A4802F00F02104400F8041C704754
:102D300010B400F00700C0F10703052B00D30423F3
:102D4000041D072C01D2002000E0C01E012404FA5B
:102D500003F35B1E1940814004FA00F0401E10404E
:102D6000084310BC704738B50446641EB4F1807F38
:102D70000AD2174D6C600F214FF0FF30FFF7CBFFE9
:102D80000020A86007202860B4F1807F8041C04304
:102D9000C00F32BDA2E770B504460D461646FFF7D8
:102DA000AAFF32462946FFF7C3FF01462046BDE889
:102DB0007040B0E7A4E7D6E7FFF745BA0CED00E0B6
:102DC0000000FA0500E100E000E400E018ED00E09A
:102DD00010E000E038B50446FEF75CFE054614F14D
:102DE000010F02D0044880680419FEF753FE401B0F
:102DF000A042FAD331BD00BF1803002010F00041FB
:102E000060B148BF4042B0FA80F29040D21CC2F597
:102E1000846241EA025202EBD02140057047000073
:102E2000F0B540F2FF7581EA030C0CF0004C15EA96
:102E300011541DBF15EA1357AC42AF42E5E0BC4147
:102E4000C1F31301C3F31303801A994143F48013B0
:102E500004D2641E0018494180185941C90241EA50
:102E60005051B1FBF3F603FB1611A2FB0675D7EB2D
:102E7000C020A94102D2761E80185941C90241EAF8
:102E80005051B1FBF3FE03FB1E11A2FB0E75D7EBF5
:102E9000C020A94103D2AEF1010E80185941890228
:102EA00041EA9051760546EA8E2EB1FBF3F603FB1C
:102EB0001611A2FB0675D7EB8020A94102D2761E1F
:102EC00080185941C90241EA50514EEA060EB1FB41
:102ED000F3F603FB1611A2FB0675D7EBC020A94140
:102EE00002D2761E80185941C90241EA5051B1FB05
:102EF000F3F703FB1711A2FB0735D3EBC020A94161
:102F000067F100070CBF004247F0010766F3D527C1
:102F10004FEA1E31B80814F5806412DDBD0775F163
:102F2000004250EB0E5051EB045111F5801F5CBF75
:102F300041EA0C01F0BD4CF07F6141F0E04100201E
:102F4000F0BDBD076D0840EA0E5041F48011D4F188
:102F50000104B4F120060ADAC4F120060200E040C0
:102F600001FA06F3E1401843B24015430EE0342C59
:102F700013DCC6F1200445EA40056D0820FA06F28C
:102F8000154321FA06F0A1400D43002175F10042DE
:102F900050F1000051EB0C01F0BD00205FEA0C0184
:102FA000F0BDCFB992185B41B3FA83F704BFB2FA10
:102FB00082F6BF190B3FB7F120062FBF02FA06F3C6
:102FC000BB40C7F1200622FA06F638BF3343BA40A9
:102FD0001CB1E419641E33E77F4231F00041B1FABD
:102FE00081F404BFB0FA80F6A4190B3CB4F12006BA
:102FF0002FBF00FA06F1A140C4F1200620FA06F620
:1030000038BF3143A0403C1B1AE7AC421ABF05EA67
:103010001357AF4212E050EA41061CBF52EA430682
:10302000BFE750EA4107304661461CBF41EA0551FF
:10303000F0BD52EA430C08BFC143F0BD00204FF47D
:10304000001616EB410F98BF16EB430F08BF16EBA7
:10305000410F24BFC14305E016EB430F0CBF61468F
:103060004CEA0551F0BD000001F000428B1AA3F1BB
:103070006051B1F5801F0ADBB1F17F6F1FD242EAC8
:10308000C102C10071F1004142EB507070470B1555
:10309000C3F10903212B10D2890241EA9051800229
:1030A0000128494141F0004121FA03F0C3F1200316
:1030B000994071F1004150417047100070476FF026
:1030C000000013EB103F5CBF000E42EAC050704797
:1030D00010B500240B48016821F48061016001688B
:1030E00041F4807101600320FFF754FE204602F096
:1030F000F1FB002801D0012401E002F013FC20467E
:1031000010BD00000020024080B586B000221421CE
:1031100001A8FFF7AFFB1448016841F020010160EE
:10312000016801F0200100910099016841F001015E
:103130000160016801F0010100910099016841F00E
:1031400002010160006800F0020000900098012078
:103150000190002002900120039001A90348FFF78D
:10316000DBFC07B000BD00BF4C100240000400486B
:1031700080B51248016841F004010160016801F066
:10318000040100910099016841F0010101600068AB
:1031900000F0010000900098002211460B20FFF77C
:1031A000FAFD0B20FFF706FE002211460C20FFF768
:1031B000F2FD0C20BDE80240FFF7FCBD48100240C4
:1031C00010B586B0DFF8F443DFF8F4032060002088
:1031D0006060A060E0600120207400206074A07432
:1031E0000A2060610120A0610E20E06102202062BF
:1031F00001206062A062E06220631C206063002006
:10320000A063E063204601F089FC002801D0FFF7AD
:10321000F3F800200090019002900120039000201C
:10322000049040F2FF7005906946204601F052FD7F
:10323000002801D0FFF7E0F806B010BD18B597B030
:1032400004460022142101A8FFF714FB00224421A8
:1032500006A8FFF70FFB2068DFF86413884240D10F
:103260004FF4805006904FF00070129006A8FFF7C0
:103270001FFB002801D0FFF7BFF8DFF84803C16843
:1032800041F00071C160C16801F0007100910099C6
:10329000016841F001010160006800F00100009048
:1032A00000984FF4C050019002200290012003903A
:1032B000032004900920059001A94FF09040FFF7EA
:1032C0002BFC002201211520FFF765FD1520FFF7DB
:1032D00071FD002201211620FFF75DFD1620FFF78A
:1032E00069FD18B010BD3CB4049DB74C00F5C0603A
:1032F0006060012904D0022908D004290ED01BE007
:1033000004F128002F210170057118E004F1280054
:103310002B21017005712D12457110E004F1280078
:1033200023210170057129460912417129460914AA
:1033300081712D16C57102E0222084F8280004F165
:103340002800427012128270C370204636BCA0E082
:103350009D4900F500724A609C4A00EBC00302EBF5
:10336000830030F9160C01F1280210700012507021
:1033700008468EE070B50446934D05F128060022FC
:1033800008213046FFF776FA0020686034707070CC
:103390002846BDE870407CE038B5054646F240045A
:1033A0000091002322460221FFF79DFF874829460E
:1033B00001EBC10200EB820030F9220CA042F5D1F2
:1033C00031BD10B4491C017081490A784B7842EA3A
:1033D0000322428012B246F23F03D21A0AD0921E52
:1033E00002D0233A18D022E0CA78097942EA0122B1
:1033F00082801CE0774A1378CC78097944EA01246A
:10340000194600EB410004825B1C1370DBB2052BF4
:103410000DD1002010700AE0CA780B7942EA03222D
:103420004B7942EA0342897942EA0162826010BC28
:103430007047491C017046F24101418066490A7893
:103440004B7842EA032282808A78CB7842EA0322D0
:10345000C2800A794B7942EA03228B7942EA03421D
:10346000C97942EA016282608088C0F3C000401ED0
:103470008041C00F704710B5534C8020606000221F
:10348000082104F12800FFF7F5F92046BDE81040B7
:10349000FFE710B5044620680068006D8005FAD487
:1034A000206801F008FD0028FAD004F12802211D4F
:1034B000206801F050FC002801D0FEF79DFF206835
:1034C0000068006DC00400D5FEE710BD18B43E4B87
:1034D00000F5C060586003F128004024047041707A
:1034E00009128170C270184612BCD2E770B504464A
:1034F00046F2410500222946FFF7E8FF33482146FE
:1035000001EBC10200EB8200A0F12206B6F9000037
:10351000A842F3D17088C0F3C00000280DD046F255
:103520003F05002229462046FFF7D0FF2B4900E047
:103530000880B6F90000A842FAD170BD002246F218
:103540006401C3E71CB5044600200090034641F225
:10355000030201212046FFF7C6FE00212046FFF7A7
:103560001BFF80212046BDE81C4015E71CB5012447
:103570001EE02046C0B2FFF7B9FF0A2000900023EA
:1035800046F2600201212046C0B2FFF7ACFE0020E7
:103590000090034642F2010201212046C0B2FFF72B
:1035A000A2FE601C094904EBC40292008854641C0A
:1035B000052CDEDB8020BDE81640DBE6F8050020A8
:1035C000006400404C1002402401002090010020C3
:1035D0007D010020AE0600207C010020AC0600200A
:1035E00010B55A4C5A4820604FF4E130606000201A
:1035F000A060E06020610C2060614FF44070A06129
:103600000020E06120626062A062204600F07EFC43
:10361000002801D0FEF7F0FE0021204602F0BAF9A2
:10362000002801D0FEF7E8FE0021204602F0D5F97F
:10363000002801D0FEF7E0FE204602F08DF90028B8
:1036400003D0BDE81040FEF7D7BE10BD78B597B0E7
:1036500004460022142101A8FFF70CF9002244219E
:1036600006A8FFF707F92068394988426CD1022083
:1036700006900020089006A8FFF71AF9002801D04C
:10368000FEF7BAFE3348C16841F40031C160C16839
:1036900001F4003100910099016841F001010160DD
:1036A000006800F00100009000980F2001900220B7
:1036B00002900020039004900720059001A94FF08C
:1036C0009040FFF729FA244D244E2E601A2068609E
:1036D0000020A860E8608020286100206861A8615F
:1036E0002020E8614FF4805028622846FEF794FEBF
:1036F000002801D0FEF780FEE567AC6206F11400F9
:1037000028661B2068661020A8660020E8668020D6
:10371000286700206867A867E867C5F8800005F19A
:103720006000FEF779FE002801D0FEF765FE05F186
:103730006000A067C5F8884000220A212620FFF714
:103740002AFB2620FFF736FB18B070BDE8040020E6
:10375000004400404C1002402804002008000240B1
:10376000DFF8D81000282BD1DFF8D4000A6802F463
:10377000C062B2F5806F1ED1026822F480720260CE
:10378000086820F4C06040F400700860DFF8B400FE
:10379000026832204243DFF8B000B2FBF0F0401C78
:1037A00000E0401E4A69520501D50028F9D1486958
:1037B00040052ED43AE0016821F48071016035E0C3
:1037C000B0F5007F2CD1DFF878000A6802F4C062FF
:1037D000B2F5806F1FD1026842F4807202600868FF
:1037E00020F4C06040F400700860DFF85800026800
:1037F00032204243DFF85000B2FBF0F0401C00E002
:10380000401E4A69520501D50028F9D14869400592
:103810000CD503207047016841F48071016005E018
:10382000086820F4C06040F48060086000207047A1
:103830000648016841F48041016070470070004013
:10384000807000402403002040420F0008700040B8
:103850002DE9F843040000F0E281DFF8705620788B
:10386000C00712D5A86800F00C00E96801F0030158
:103870000C2801D1032901D0082845D128688003EC
:1038800003D56068002800F0CA812078800721D520
:10389000A86800F00C00E96801F003010C2801D1D0
:1038A000022901D0042866D12868400503D5E068C4
:1038B000002800F0B481686820F0FE40216940EAE9
:1038C00001606860DFF81006006802F003F8002865
:1038D00040F0A581DFF804662078000740F184807D
:1038E00060690028706870D040F001007060FEF7D9
:1038F000D1F807467068800776D4FEF7CBF8C01B76
:103900000328F7D303208DE16068B0F5803F04D130
:10391000286840F48030286012E0B0F5A02F2868B5
:1039200007D140F480202860286840F48030286067
:1039300006E020F480302860286820F48020286089
:10394000606800280BD0FEF7A5F8064628688003BB
:103950009BD4FEF79FF8801B6528F7D3D2E7FEF7CC
:1039600099F80646286880038FD5FEF793F8801BE8
:103970006528F7D3C6E7E0680028286816D040F429
:1039800080702860FEF786F806462868400505D452
:10399000FEF780F8801B0328F7D3B3E7686820F0B0
:1039A000FE40216940EA0160686093E720F480707E
:1039B0002860FEF76FF80646286840058AD5FEF7AE
:1039C00069F8801B0328F7D39CE74008400070602B
:1039D000FEF760F807467068800705D5FEF75AF8CD
:1039E000C01B0328F7D38DE72078400768D5002750
:1039F000A86DC00009D4A86D40F08050A865A86DDE
:103A000000F08050009000980127DFF8D484D8F8A7
:103A10000000C00513D4D8F8000040F48070C8F846
:103A20000000FEF737F88146D8F80000C00506D43C
:103A3000FEF730F8A0EB09000328F5D362E7A06891
:103A4000012804D1306840F00100306011E0052801
:103A5000306807D140F004003060306840F0010069
:103A6000306006E0400840003060306820F004001C
:103A70003060A06800280ED0FEF70CF88046306851
:103A8000800717D4FEF706F8A0EB080041F2893151
:103A90008842F4D336E7FDF7FDFF804630688007A3
:103AA00008D5FDF7F7FFA0EB080041F28931884205
:103AB000F4D327E7012F03D1A86D20F08050A8652B
:103AC0002078800621D5A0690028B0680ED040F08B
:103AD0000100B060FDF7DEFF0746B068800714D430
:103AE000FDF7D8FFC01B0328F7D30BE740084000C1
:103AF000B060FDF7CFFF0746B068800705D5FDF73A
:103B0000C9FFC01B0328F7D3FCE6E069002800F0DA
:103B10008880A96801F00C010C2955D0022828687A
:103B200020F0807028603AD1FDF7B4FF064628687F
:103B3000800105D5FDF7AEFF801B0328F7D3E1E632
:103B4000E868DFF8A0130840216A0843616A491E4B
:103B500040EA0110A16A40EA0120216B4908491E90
:103B600040EA4150616B4908491E40EA4160E16A00
:103B700040EAC160E860286840F080702860E8682A
:103B800040F08070E860FDF785FF044628688001FA
:103B900047D4FDF77FFF001B0328F7D3B2E6E868A0
:103BA00080088000E860E968DFF83C030140E960D4
:103BB000FDF770FF04462868800132D5FDF76AFFE3
:103BC000001B0328F7D39DE6012828D0E86800F001
:103BD0000301226A914222D100F0F001626A521E72
:103BE000B1EB021F1BD100F4FE41A26AB1EB022F20
:103BF00015D100F07841E26AB1EBC26F0FD100F449
:103C0000C001226B5208521EB1EB425F07D100F097
:103C1000C060616B4908491EB0EB416F01D00120C3
:103C200000E00020BDE8F2832DE9F8430446884611
:103C30000027002C61D0DFF8B452286800F00F0094
:103C4000404509D22868000948EA00102860286821
:103C500000F00F00404550D1DFF870622078C007B7
:103C60004DD5606803281AD13068800145D500F031
:103C70000AF9DFF87C12884223D3B06810F0F00F05
:103C800005D0207880071CD5A068002819D1B0681D
:103C900020F0F00040F08000B060802711E00228A2
:103CA000306828D1800328D500F089F8DFF8401269
:103CB000884206D3B06820F0F00040F08000B06089
:103CC0008027B1688908606850EA8101B160FDF71A
:103CD000E1FE8146B06800F00C006168B0EB810F36
:103CE0000DD0FDF7D7FEA0EB090041F289318842E3
:103CF000F0D3032061E04005D6D401205DE02068C8
:103D0000810715D5400703D5B06840F4E060B06086
:103D10002078000705D5B06820F4605040F4E060DA
:103D2000B060B16821F0F001A0680143B16005E026
:103D3000802F03D1B06820F0F000B060286800F058
:103D40000F00804514D22868000948EA0010286056
:103D5000FDF7A0FE0746286800F00F00404507D099
:103D6000FDF798FEC01B41F289318842F3D3C0E7CA
:103D70002078400705D5B16821F4E061E06801438F
:103D8000B1602078000706D5B06820F46050216942
:103D900040EAC100B06000F012F85649B268C2F3C0
:103DA0000312895C01F01F01C8404A4908604A4873
:103DB0000068BDE8F24301F08DBDBDE8F2834E49D5
:103DC000086800F00C00042801D1414870470868D9
:103DD00000F00C00082801D148487047086800F03E
:103DE0000C000C281FD14A6802F003024868C0F397
:103DF0000310401C032A07D1404AB2FBF0F2486886
:103E0000C0F30620424306E0314AB2FBF0F24868B4
:103E1000C0F3062042434868C0F34160401C4000A4
:103E2000B2FBF0F07047002070472A4800687047E6
:103E300080B5FFF7FAFF32492F4A1268C2F3022217
:103E4000895C01F01F01C84002BD80B5FFF7EDFF9E
:103E50002B49294A1268C2F3C222895C01F01F0172
:103E6000C84002BD1948016841F400210160704753
:103E700010B5244C2068C00504D501F0FDFD4FF4B9
:103E80008070606010BD20490A6802F00302086873
:103E9000C0F30310401C032A07D1184AB2FBF0F20A
:103EA0000868C0F30620424306E0094AB2FBF0F27C
:103EB0000868C0F3062042430868C0F34160401C14
:103EC0004000B2FBF0F0704700000000001002401C
:103ED0000024F400240300201C0300209010024062
:103EE000007000400C809F01FFFFEEFE00200240AA
:103EF00001B4C4044C6700080810024000366E018B
:103F0000D06700081C1002400C10024038B50400B5
:103F100015D004F180056868002804D100202870BD
:103F20002046FFF793FB2420686020680168490859
:103F300049000160204600F01BFA012801D1012050
:103F400032BDA06A002802D0204600F06BFB20683A
:103F5000416821F4904141602068816821F02A0184
:103F600081602068016841F0010101602046BDE8E0
:103F7000324000F0BBBB70B50446134604F1800527
:103F80006868202849D1002901D0180001D10120FA
:103F900070BD2878012840D001202870216504F1E7
:103FA0005406338073800020E86021206860706AC6
:103FB00000281ED0DFF8AC13C162DFF8AC03716AD1
:103FC0000863DFF8A803716A48630020716A886398
:103FD000206800F12802216D706AFEF77EFA002841
:103FE00007D01020E86000202870202068600120A1
:103FF00070BD4020216808620020287020680830C9
:1040000050E8001F41F08001206800F1080242E8FA
:1040100000100028F2D1002070BD022070BD30B425
:10402000034603F180008468202C22D1002901D0AE
:10403000140001D101201DE00478012C19D00124C5
:1040400004700020D8661868DFF81443A0420CD032
:104050004068000209D5186850E8004F44F08064B9
:10406000054645E800400028F5D1184630BC00F070
:10407000DABB022030BC7047F8B504462668F16907
:104080003268B36840F60F00084004F15C050DD1BA
:104090008F060BD5970601D4DF0007D56969002983
:1040A00000F05D812046BDE8F4400847002800F09C
:1040B0008C80DFF8B408034204D1DFF8B0783A42CC
:1040C00000F083800F46FF0707D5D70505D50127E8
:1040D00037622E6B46F001062E638E0709D51E4609
:1040E000F60706D5022627683E622E6B46F00406C8
:1040F0002E634E0709D51E46F60706D50426276807
:104100003E622E6B46F002062E630E070AD5960617
:1041100001D4034206D0082026683062286B40F0A4
:1041200008002863080509D5500107D54FF4006041
:1041300026683062286B40F020002863286B002836
:1041400000F00D81880608D5900601D4D80004D56A
:104150006969002901D020468847286B2168896851
:10416000490602D410F0280F29D0204600F0D0FBD9
:104170002068806840061DD52068083050E8001F80
:1041800021F04001206800F1080242E800100028F8
:10419000F2D1286A00280DD0DFF8D4178163286A8D
:1041A000FEF717FA002800F0DA80286A816BBDE874
:1041B000F44008472046BDE8F24001F05EBC2046CE
:1041C00001F05BFC00202863F1BD2869012840F064
:1041D0009280C80640F18F80D00640F18C8010207C
:1041E00030622068806840064ED5286A00684068C2
:1041F00080B2002800F0B3802988884280F2AF8026
:104200006880286A00680068800634D4206850E816
:10421000001F21F48071024642E800100028F5D109
:104220002068083050E8001F49084900206800F164
:10423000080242E800100028F2D12068083050E857
:10424000001F21F04001206800F1080242E8001040
:104250000028F2D12020E86200202861206850E880
:10426000001F21F01001024642E800100028F5D19D
:10427000286AFEF778F929886888091A89B22046E1
:10428000BDE8F44001F0FABB28886988411A6888C3
:10429000002864D0084680B2002860D0206850E82A
:1042A000002F22F49072034643E800200028F5D145
:1042B0002068083050E8002FDFF84C0302402068E7
:1042C00000F1080343E800200028F1D12020E86233
:1042D000002028616861206850E8002F22F0100259
:1042E000034643E800200028F5D189B22046BDE806
:1042F000F44001F0C3BBC80209D5580207D54FF4FA
:10430000801030622046BDE8F24001F0B8BB0806DC
:104310000AD5100601D4180206D5A96900291ED0B5
:104320002046BDE8F4400847480606D5500604D5A7
:104330002046BDE8F24000F0DBBB080206D5500085
:1043400004D52046BDE8F24001F09ABBC80106D56D
:10435000002A04D52046BDE8F24001F092BBF1BD31
:104360000080004099490008DF490008914A000890
:10437000F8B50446002521680A68DFF8FC0502400C
:10438000A06802432069024360690243E069024376
:104390000A6021684A6822F44052E06802434A6099
:1043A000A2692368DFF8CC158B4201D0206A024352
:1043B0009E68DFF8C805064032439A602268D36AD7
:1043C0001B09606A50EA0313D3622068DFF8B02546
:1043D00090420CD1DFF8AC25126802F00302032AE8
:1043E00015D8DFE802F00248355E012210E0DFF860
:1043F000982590421BD1DFF88C25126812F00C0230
:104400004DD0042A37D0082A22D00C2A49D01022B5
:10441000884240F07F80002A06D0022A43D0042A36
:1044200044D0082A45D047E0FFF702FD46E0DFF818
:104430005C2590420ED1DFF84C25126812F0300254
:104440002DD0102A17D0202A02D0302A29D0DEE71A
:104450000222DDE7DFF8382590420ED1DFF824256F
:10446000126812F0C0021AD0402A04D0802AEFD07D
:10447000C02A16D0CBE70422CAE78842C7D1DFF8AA
:104480000425126812F4406209D0B2F5806FF2D0B0
:10449000B2F5006FDCD0B2F5406F02D0B7E72A4624
:1044A000B6E70822B4E7DFF8EC0407E0FFF787FC83
:1044B00004E04FF4004001E028460125002800F008
:1044C000988000BF51A1626A31F81210B0FBF1F67A
:1044D0003046626802EB4201884202D311038142F6
:1044E00001D2012585E0002747EA166710464008FB
:1044F000002110EB06207941002301F0C3FAA0F55A
:104500004071DFF81026914202D22168C86070E045
:1045100001256EE0E069B0F5004F38D1082A15D8C2
:10452000DFE802F005080B140E1414141100FFF755
:104530007FFC0DE0FFF789FC0AE0DFF8580407E094
:10454000FFF73DFC04E04FF4004001E02846012560
:1045500000284ED0D4F804102CA2636A32F813203D
:10456000B0FBF2F00A46520802EB4002B2FBF1F057
:104570004FF6F071A0F110028A4206D20140C0F35A
:10458000420001432068C16033E0012531E0082A80
:1045900015D8DFE802F005080B140E1414141100EE
:1045A000FFF746FC0DE0FFF750FC0AE0DFF8E403FC
:1045B00007E0FFF704FC04E04FF4004001E0284668
:1045C0000125002815D0616810A2636A32F8132013
:1045D000B0FBF2F000EB5100B0FBF1F0A0F11001E4
:1045E0004FF6F072914203D280B22168C86000E0B9
:1045F000012504F1680001214180018000218160D2
:10460000C1602846F2BD0000FEFFFFEF010002007E
:104610000400060008000A000C0010002000400002
:104620008000000190F82810C90706D50268536879
:1046300023F40033C16A0B43536090F828108907B4
:1046400006D50268536823F48033016B0B43536033
:1046500090F82810490706D50268536823F4802390
:10466000416B0B43536090F82810090706D5026888
:10467000536823F40043816B0B43536090F8281078
:10468000C90606D50268936823F48053C16B0B43B7
:10469000936090F82810890606D50268936823F481
:1046A0000053016C0B43936090F82810490611D514
:1046B0000268536823F48013416C0B435360416CD0
:1046C000B1F5801F06D10268536823F4C003816CE2
:1046D0000B43536090F82810090606D501684A6814
:1046E00022F40022C06C02434A6070477CB5044645
:1046F00004F180050020E860FDF7CCF9064620684B
:10470000006800070BD56FF07E4000903346002212
:104710004FF40011204600F01BF800280FD120684C
:10472000006840070DD56FF07E40009033460022B0
:104730004FF48001204600F00BF8002801D0032040
:1047400076BD20206860A8600020E066287076BDF5
:104750002DE9F04105460E4617469846069C286806
:10476000C0693040B04201D1012000E0002039464C
:10477000884255D114F1010FF1D0FDF78BF9A0EB70
:104780000800844201D3002C1FD1286850E8001F84
:1047900021F4D071024642E800100028F5D12868C3
:1047A000083050E8001F49084900286800F1080255
:1047B00042E800100028F2D105F18000202141607C
:1047C00081600021017003202BE0286801684907FF
:1047D000C5D5C1690905C2D54FF4006101622868D9
:1047E00050E8001F21F4D071024642E80010002872
:1047F000F5D12868083050E8001F490849002868AA
:1048000000F1080242E800100028F2D105F1800012
:10481000202141608160C16000210170032000E01F
:104820000020BDE8F08170B504461346A16504F18F
:104830005C06338004F180050020E8602220A86037
:10484000306A00281ED00FF29D11C1620FF229209C
:10485000316A08630FF23920316A48630020316AF7
:104860008863A26D206800F12401306AFDF735FEEF
:10487000002807D01020E860002028702020A860C1
:10488000012070BD002028702069002809D0206810
:1048900050E8001F41F48071024642E800100028F1
:1048A000F5D12068083050E8001F41F00101206870
:1048B00000F1080242E800100028F2D12068083018
:1048C00050E8001F41F04001206800F1080242E872
:1048D00000100028F2D1002070BD016851E8002FBF
:1048E00022F0C0020B4643E800210029F5D10168FF
:1048F000083151E8002F22F40002016801F1080399
:1049000043E800210029F2D12021C0F8841070472B
:10491000016851E8002F22F490720B4643E8002111
:104920000029F5D10168083151E8002FDFF8E811BE
:104930000A40016801F1080343E800210029F1D190
:10494000C16E012909D1016851E8002F22F010023F
:104950000B4643E800210029F5D12021C0F888103A
:104960000021C166016770470100001020010004AA
:10497000E14A000800800040F369FFCFFFF4FF1117
:1049800000380140881002400044004000480040C8
:10499000004C00400024F4000146886A0968096858
:1049A00089061AD40021A0F856100168083151E890
:1049B000002F22F08002016801F1080343E8002182
:1049C0000029F2D1016851E8002F42F040020B4665
:1049D00043E800210029F5D1704701F06BB9806AE6
:1049E00001F069B918B4826A02F15C0100680068DC
:1049F000800634D400204880106850E8003F23F43B
:104A00008073044644E800300028F5D1106808306F
:104A100050E8003F5B085B00106800F1080444E8C0
:104A200000300028F2D11068083050E8003F23F031
:104A30004003106800F1080444E800300028F2D177
:104A40002020C8620869012809D1106850E8003F99
:104A500023F01003044644E800300028F5D108692B
:104A6000012804D10988104614BC01F007B810468B
:104A700012BC01F021B90000806A00F15C010A69F2
:104A8000012A03D10988490800F0F8BF01F015B9DF
:104A900070B5846A04F1840528686E6821688968A5
:104AA000090607D5212805D10020A4F85600204684
:104AB000FFF713FF20688068400608D5222E06D134
:104AC000002004F1560108812046FFF721FFA86865
:104AD00040F01000A8602046BDE8704000F0CDBF57
:104AE000806A00F1560100220A810A8000F0C5BFE9
:104AF000016851E8002F22F040020B4643E80021F4
:104B00000029F5D12021C0F884100021416701F06F
:104B1000D1B8000000FD0F00FEFFFFEF70B50400EC
:104B200001D1012070BD04F15C052878002804D172
:104B3000002068702046FEF781FB2068816921F023
:104B400010018161FCF7A6FF06462068816909070C
:104B50000CD5FCF79FFF801B0B28F6D3686840F04C
:104B60000100686003202870012070BD816941F058
:104B700001018161FCF78EFF064620688169C90743
:104B80000CD4FCF787FF801B0B28F6D3686840F035
:104B90000100686003202870012070BD816941F028
:104BA0000201816120684949884202D16068484910
:104BB00008602068217C0129816903D121F040012E
:104BC000816102E041F0400181612068617C01293E
:104BD000816903D141F48041816102E021F4804187
:104BE00081612068A17C0129816903D121F4805170
:104BF000816102E041F48051816121688A6922F477
:104C00004072A06802438A612068816921F0A40192
:104C100081612068016921F010010161E0680128CB
:104C200005D12068816941F00401816119E0002803
:104C300017D021680228886910D040F08000886170
:104C40002068016941F010010161E068032808D182
:104C50002068816941F02001816102E040F020007C
:104C60008861A069401EE169491E090241EA40616C
:104C7000206A401E01436069401E41EA00412068ED
:104C8000C161A068B0F5407F0FD1A06A401EE16A03
:104C9000491E40EA0120216B491E40EA0110616A69
:104CA000491E40EA01402168C8602168D1F8C0204F
:104CB000E06B0243C1F8C020204600F03FFA00201C
:104CC000A065686001202870002070BD006400406D
:104CD0000065004070B400F15C021378012B01D034
:104CE000022B1CD18A6892074B684C690D69CE680B
:104CF0000968002909D142EAC66242EA0542224314
:104D0000006C00EB8300026007E02243406C00EB84
:104D1000C30045EA467505604260002004E0506823
:104D200040F002005060012070BC704700F15C014F
:104D30000A78012A09D102220A70006882695208A1
:104D400052008261002048607047486840F00400CB
:104D500048600120704738B5044604F15C000378D0
:104D6000022B1BD12368D3F8C450AD0205D541688E
:104D700041F400714160012032BDD3F8C400C0F39A
:104D800001452B46204600F013FA012000FA05F5F4
:104D90002068C0F8CC50A565002032BD416841F0C4
:104DA00008014160012032BDF0B400F15C042578B7
:104DB000022D6DD105689035402912D12E6816F06C
:104DC0000F0F05D1606840F480706060012064E0DE
:104DD0002C68C4F30125866C05EBC50406EBC406FC
:104DE00011E0AE6816F00F0F05D1606840F48070D6
:104DF0006060012051E0AC68C4F30125C66C05EB8E
:104E0000C50406EBC406346814F080445460376867
:104E100003D1C7F38A44146002E027F060471760AB
:104E2000346804F00054946056F8044B04F00044D5
:104E300014613468A4B2D461346804F47024D4607A
:104E4000346804F480145461346804F400149461E8
:104E50003468C4F30664146256F8044BE40F5462D9
:104E6000002402E0375D1F55641C0FF2B437D2F8FE
:104E70000CC04FEA1C4C17F80C70BC42F2D300680F
:104E80009430402901D1056000E08560002004E0F5
:104E9000606840F0080060600120F0BC7047006866
:104EA0009030402903D1006800F00F0070478068FF
:104EB00000F00F0070470068D0F8C40000F0070051
:104EC000704730B400F15C031C78012C01D0022C37
:104ED00066D10468A36D11F0070F01D0DD071DD561
:104EE00011F0380F01D09D0718D511F4E07F01D0E3
:104EF0005D0713D511F4F05F01D01D070ED511F435
:104F0000604F01D0DD0609D511F4403F01D09D0668
:104F100004D511F47C0F05D05D0603D4E56D45F092
:104F20000105E56511F0070F01D0DC071DD411F074
:104F3000380F01D09C0718D411F4E07F01D05C0732
:104F400013D411F4F05F01D01C070ED411F4604F9C
:104F500001D0DC0609D411F4403F01D09C0604D4F2
:104F600011F47C0F06D05B0604D50368DC6D44F0B9
:104F70000204DC650B0605D50368D3F8DC40144356
:104F8000C3F8DC40CB0505D50368D3F8E0402243E5
:104F9000C3F8E0200068426D11434165002004E041
:104FA000586840F002005860012030BC70472DE97D
:104FB000F8438146D9F800100C6D04F4E054486DB4
:104FC00004400D6D05F00705486D05400E6D06F0B7
:104FD0003806486D0640D1F8508008F47108486DD5
:104FE00000EA08080F6D07F46027486D0740086D58
:104FF000400607D5486D400604D540200865484660
:1050000000F05CFED9F80020106DC0050DD5506D84
:10501000C0050AD502F1D8000168806801404FF44C
:1050200080701065484600F04AFE002C06D0D9F882
:10503000000004652146484600F042FE002D06D0DF
:10504000D9F80000056529464846FDF772F8002E9C
:1050500006D0D9F8000006653146484600F031FE1A
:10506000D9F80000016D890508D5416D890505D580
:105070004FF4007101654846FDF756F8D9F8002055
:10508000106D00060CD5506D000609D502F1D40054
:1050900001688068014080201065484600F012FEDB
:1050A000D9F80000016D890408D5416D890405D542
:1050B0004FF400510165484600F005FED9F80000A4
:1050C000016D090408D5416D090405D54FF400416F
:1050D0000165484600F0F8FDD9F80000016D49046B
:1050E0000BD5416D490408D54FF480410165D9F8CD
:1050F000600040F08000C9F86000002F06D0D9F8A9
:10510000000007653946484600F0DFFDB8F1000FA2
:1051100009D0D9F80000C0F85080D9F8600048EAFA
:105120000008C9F86080D9F86000002804D048461B
:10513000BDE8F24300F0CABDBDE8F18310B41549E3
:1051400001640268D2F8803023F4F813446B43EA18
:105150000443C2F88030104A42640268D2F88030BA
:1051600023F07063846B43EA0463C2F880300B4A17
:1051700082640B4AC2640B4A02650B4A426502E034
:1051800000200860091D09488142F9D310BC70470E
:105190000000000000A4004070A40040B0A4004043
:1051A00088A5004060A6004078A6004050A70040B7
:1051B00070B40D698C6825430E684C68002C02D1D0
:1051C00045EA864502E0354345F080450C6ACE69E4
:1051D00046EA04668C6926434C692643CC6826431C
:1051E000406D03EBC30400EBC4000560466008306B
:1051F00000230DE0D418E578A678360446EA056663
:10520000657846EA05262478264340F8046B1B1D82
:1052100003A4CD682D0C645DA342EBD370BC704732
:105220000001020304050607080C10141820304082
:1052300050B1B0FA80F18840C91CC1F584610905FC
:1052400001EBD021400570470146704730B540F270
:10525000FF7C1CEA11541DBF1CEA135564456545CB
:105260003FE0641981EA030C6FF35F530CF0004CCC
:1052700043F48013C90241F0004141EA505EC50287
:105280001100A5FB020200284FF00000EEFB0120F8
:105290004FF00001E3FB052118BF42F00102401866
:1052A00000214941E3FB0E01A4F580640D0302D205
:1052B00092184041494154F1010470DD450872F1F2
:1052C000004250F1000051EB0451A1F5801102D4CD
:1052D00041EA0C0130BD40F2FF7E4CEA0E51002045
:1052E00030BD0CEA1355644518BF654581EA030CCF
:1052F0000CF0004C41D050EA410E1CBF52EA430E64
:1053000002E06146002030BD24422C441BD15FEAFC
:10531000050EF6D0090302BF01460020AEF1140EBF
:10532000B1FA81F5AEEB050401FA05FE0C35C5F1C5
:10533000200100FA05F5C8404EEA000E6FF35F53F6
:1053400043F480139CE733F00043B3FA83F504BFC2
:10535000B2FA82FE75440B3D641BB5F1200E2FBFDF
:1053600002FA0EF3AB40C5F1200E22FA0EFE38BF52
:1053700043EA0E03AA40641C7CE750EA410E14BFC6
:1053800052EA430E6FF000014FF4001515EB430F86
:105390008EBF194615EB410F9DE7B4D830BDD4F14F
:1053A0000104B4F120050FDAC4F12005520828BF2A
:1053B00042F0010210FA05FE01FA05F57244E2BF5F
:1053C000E0402843E1400FE0352C9ADCC5F1200491
:1053D00052EA400220FA05F218BF42F0010231FA07
:1053E00005F0A1400A43002172F1004250F1000093
:1053F00051EB0C0130BD000041EA030C50EA4C0CAB
:1054000052EA0C0C4FF4001C09D307D01CEB410FDF
:105410009CBF1CEB430F994208BF904270471CEBA6
:10542000410FFBD88B4208BF82427047C1F30A5339
:1054300040F21E42D31A0CDDCA0283F3070342EA8C
:10544000505242F00042DA4002EBE17282EAE1702F
:1054500070476FEAE17203F2E13008B182F0004078
:1054600070470000DFED1E0A20EE200AFDEEC00AA4
:10547000B5EE400A10EE900AF1EE10FA48BF401E59
:1054800000EE900AF8EEE00A30EE600ADFED150A51
:1054900020EE200AFDEEC00A10EE900A80B2B0F5B0
:1054A000007F04DBDFED100A002030EE200A014609
:1054B00000EE901AF8EE600A0C4970EE600A01EBFB
:1054C0008002B7EE000A01EB800030EE600A92ED38
:1054D000001AD0ED011A20EE010A00EEA10A704771
:1054E00083F9223E00000044000000C4205E000852
:1054F000C0F3C75181B1FF2906D0C110400721F088
:10550000E04101F16051704741020CBF40F4E001FD
:105510006FF000410020704700F0004100020AD007
:10552000B0FA80FC00FA0CF001F16051A1EB0C51D3
:1055300001EBD0214005704770B491EA030F4FF0A2
:10554000004540F1BF806B40841A71EB030604D222
:105550006E40001BB141121973414FF4001C1CEB4B
:10556000410F34BF7CEB430683E00C0DA4EB1356D4
:10557000362E00F37C80012E45EAC32341DC43EA4A
:10558000525312BFD20292025B08240545EAC121A0
:1055900041EA5051D2EBC020994125D407D1B0FA4D
:1055A00080F610FA06F162D00020203608E0B1FA49
:1055B00081F6B140C6F1200220FA02F21143B04058
:1055C0004FEAF474B4EB465434F001064FEA740425
:1055D0000AD8D6F50016760D04F00044F04061FAC2
:1055E00006F25040F1404840C00A40EA415021F0E4
:1055F000004128BF5FEA500550F1000044EBD12183
:1056000035E0DB0A45EAC121C90AB6F120050EDD05
:1056100042EA0242120CC5F1200603FA06F6EB40FC
:1056200042EA06056D42984161F100010DE062FA1F
:1056300006F5F240554063FA06FC82EA0C02F3409C
:105640005A406D42904161EB030111F4801F05D176
:10565000641E620502D06D004041494121F4801171
:10566000430875F1004350F1000041EB045170BC58
:1056700070471CEB410F15D223F0004352EA43065A
:105680000BD04FEA4C0CBCEB410F04D80C0D661E3E
:10569000342EB7DDEBE7801A994150EA410608BF86
:1056A0000021E4E708BF1CEB430F28BF6FF00001A7
:1056B000DDE7000070B491EA030F4FF000457FF57D
:1056C00043AF6B40841A71EB030603D2001BB14158
:1056D000121973414FF4001C1CEB410F34BF7CEBDB
:1056E000430442E00C0DA4EB1356352E4FDC45EA83
:1056F000C323DB0A45EAC121C912B6F120050DDD3D
:1057000063FA05F6EB4086EA0305124218BF45F03E
:105710000105C01851F100010CD213E062FA06F540
:10572000F2405540F3415A40B340F3405A4080188C
:10573000594107D349085FEA30005FEA350528BFC1
:1057400045F0010501F58011420875F1004250F164
:10575000000041EB04514E0016F5001F70BC38BF2D
:1057600070470020090D090570471CEB410F10D24E
:1057700052EA43060BD0BCEB410F05D80C0DAB43EE
:10578000661E342EB6DD02E0AB438018594170BC72
:10579000704770BC704700000A4603681968C96901
:1057A0004906FBD5C1681846FEF7E5BB01464FF038
:1057B000FF304A6812685368C3F580734B618A6989
:1057C000934207D0086913461BB2C05C521C02F01A
:1057D000FF028A6170470146486800684068C0F56A
:1057E000807048618969401A00F0FF00704738B541
:1057F00004460D46E06800F06BFA284600F074FAA3
:10580000014689B22046BDE83440C5E7054901603C
:105810000549416005498160054901610549C1604B
:1058200070470000E80400202804002088040020BD
:10583000280300207805002038B5044601E0401C0C
:10584000E0832046FFF7C7FF002811D02046FFF76E
:10585000ADFF04F12201E28B8854E08B014604F194
:105860002202525C0D2A01D04029E8DB012020777A
:10587000207F00282DD000202084616E04F12200BA
:1058800000F04EFA04F16801228C41F822000AE08F
:105890006D1C2584616E002000F042FA04F168015D
:1058A000ADB241F82500258C04F16800294650F876
:1058B00021000028ECD1204600F058FA0020E083B7
:1058C00020770246402104F12200BDE8384000F074
:1058D0004FBA31BD70B504460025104EB06800289F
:1058E00019D04FF47A71B1FBF0F00D490968B1FBA2
:1058F000F0F0FDF760FA00280BD1102C07D22A46F1
:1059000021464FF0FF30FDF746FA746004E00125B0
:1059100002E0012500E00125284670BD18030020A3
:105920002403002082B00B48816841F001018160AE
:10593000816801F0010100910099016841F08051F6
:105940000160006800F080500090009802B0FDF700
:105950006FBF00BF5810024010B400F180010A78F8
:10596000012A01D1022013E001220A7024224A6098
:1059700002681368146864086400146000224266B8
:1059800023F0005300680360202048601046087030
:1059900010BC704770B5044604F1800528780128D2
:1059A00001D1022070BD0120287024206860206889
:1059B000066802685208520002602068826822F07D
:1059C000604211438160204600F02AF8206806609A
:1059D000202068600020287070BD70B5044604F176
:1059E00080052878012801D1022070BD012028708F
:1059F000242068602068066802685208520002602D
:105A00002068826822F0606211438160204600F0C5
:105A100007F820680660202068600020287070BDAC
:105A200030B400F16802416E002903D1012050809A
:105A3000108016E000688168490E01F00701806857
:105A4000400F00BF0FF2280307A4255CED00185C8F
:105A500095FBF0F05080605CC000595C90FBF1F069
:105A6000108030BC704700000101010307010000F5
:105A7000080402040801010170477047704770472D
:105A800070477047BBBBE1B1B2F5803F80F07E80CC
:105A9000022A1ED98C46B1FBF2F102FB11C31B0492
:105AA00043EA1043B3FBF2FC02FB1C3380B240EA32
:105AB0000343B3FBF2F002FB103240EA0C40002338
:105AC0007047022A05D98446B0FBF2F002FB10C2EF
:105AD00070474AB105D100F0010249085FEA300081
