:020000040800F2
:1000000068080020413300087D3100087F31000876
:1000100081310008833100088531000800000000AC
:100020000000000000000000000000008731000810
:1000300089310008000000008B3100088D31000874
:1000400075330008793300087D33000881330008D8
:1000500085330008893300088D3300089133000888
:1000600095330008993300089D3300089B31000840
:10007000A1310008A1330008A5330008A933000806
:10008000AD33000800000000B1330008B5330008AC
:10009000B9330008A7310008BD330008C133000898
:1000A000C5330008C9330008CD330008D133000838
:1000B000D5330008D9330008DD330008E1330008E8
:1000C000E5330008E9330008ED330008F133000898
:1000D000F5330008F9330008AD310008FD3300089E
:1000E0000134000805340008093400080D34000804
:1000F000113400081534000819340008000000000D
:10010000000000001D340008000000002134000839
:100110002534000800000000293400082D340008B0
:100120003134000835340008393400083D34000803
:1001300041340008000000000000000045340008C1
:10014000493400084D3400080000000000000000A1
:10015000000000000000000000000000000000009F
:100160000000000000000000000000005134000802
:1001700055340008000000000000000000000000EE
:1001800000000000593400080000000000000000DA
:10019000000000000000000000000000000000005F
:1001A00000000000000000005D3400086134000819
:1001B00065340008693400086D3400080000000050
:1001C0000000000071340008000000000000000082
:1001D000753400087934000810B5040008D0D4F84C
:1001E000840008B900F02CF800F01EF8012801D1B5
:1001F000012010BDA06A08B100F013F800F025F846
:10020000FFE72168886000F004F8BDE8104000F0C6
:10021000D6BB2068006840F00100216808602046D5
:100220007047204600F05EBB2420C4F8840020689C
:1002300000684008400021680860204600F008BAC5
:1002400084F88000204600F00DBE2068406820F44D
:100250009040216848602068806820F02A0070473C
:1002600010B504461346D4F88400202841D1002953
:100270002FD018002DD094F88000012839D001200B
:1002800084F880002165A4F85430A4F8563000F0BA
:10029000C2FB2120C4F88400A06FE0B1DFF8A00306
:1002A000A16FC862DFF89C03A16F0863DFF89803B1
:1002B000A16F48630020A16F8863206800F12802C5
:1002C000216DA06F00F0CEFE28B100F05BFCC4F8F9
:1002D0008400012010BD402021680862002084F8BD
:1002E000800000F09BF941F0800100F000FCF8D1A3
:1002F00010BD022010BD38B50346D3F88800202871
:100300000ED109B1100001D1012032BD93F8800057
:10031000012805D000F006F8BDE8384000F0EBBB3E
:10032000022032BD012083F880000020D8661868C2
:10033000DFF81843A0420DD018684068000209D5C4
:10034000186850E8004F054644F0806445E80040D6
:100350000028F5D1184670472020C4F888000020F6
:10036000E06670472068083050E8001F206800F100
:10037000080221F0400142E80010002870470020E8
:10038000A4F856007047206880684006704738B56A
:1003900004462068C1690268836840F60F00014284
:1003A0000FD1880602D5900602D4D80040F186808D
:1003B000206F002800F023812046216FBDE83440E3
:1003C0000847DFF85C08034204BFDFF85808024220
:1003D00074D0C80708D5D00506D5012000F010F963
:1003E00040F00100C4F88C00880708D5D80706D56E
:1003F000022000F005F940F00400C4F88C00480722
:1004000008D5D80706D5042000F0FAF840F002001D
:10041000C4F88C0008070CD5900603D4DFF8000858
:10042000034206D0082000F0EBF840F00800C4F8C2
:100430008C00080509D5500107D54FF4006000F085
:10044000DFF840F02000C4F88C00D4F88C000028BD
:1004500033D0880608D5900601D4D80004D5206F83
:1004600010B12046216F8847D4F88C002168896834
:10047000490602D410F0280F1AD0204600F0A5FB40
:10048000FFF781FF0FD5FFF76DFFFCD1E06F50B193
:100490000FF6CD0000F0B9F800280ED0E06F816BA8
:1004A000BDE8344008472046BDE8324000F06CBF4C
:1004B000204600F069FF00F0AEFA31BDE06E012881
:1004C00068D1C80666D5D00664D5102021680862B8
:1004D000FFF759FF2BD5E06F0068406880B2002815
:1004E000EBD0B4F85C108842E7DAA4F85E00E06F65
:1004F00000680068800614D400F068FCFCD100F0AD
:100500008DF84908490000F0F2FAF8D1FFF72AFF08
:10051000FCD1FFF721FF00F089F8FCD1E06F00F07B
:10052000F7FDB4F85C10B4F85E00091A2CE0B4F8DA
:100530005C00B4F85E10411A00F044FC1CBF88B2A5
:1005400000285CD0206850E8002F034622F4907207
:1005500000F060F8F6D12068083050E8002F2068DD
:1005600000F10803DFF8C006024000F053F8F2D1B2
:10057000FFF7F2FE2067206850E8002F034622F0C4
:10058000100200F047F8F6D189B22046BDE83440A9
:1005900000F0FBBEC8020AD5580208D54FF48010FF
:1005A000216808622046BDE8324000F0EFBE080630
:1005B0000AD5100601D4180206D5606FF8B120469E
:1005C000616FBDE834400847480606D5500604D59B
:1005D0002046BDE8324000F0E0BB080206D55000DE
:1005E00004D52046BDE8324000F0D1BEC80148BF66
:1005F000002A04D52046BDE8324000F0C9BE31BD16
:1006000025682862D4F88C007047E16F8863E06F3A
:1006100000F0B6BD43E8002000287047206808308D
:1006200050E8001F206800F108027047206850E879
:10063000001F024621F0100142E800100028704718
:10064000310C0008630C00080D0D0008008000400C
:1006500038B50446002520680168DFF8D005014060
:10066000A06801432069014360690143E0690143D7
:10067000206801602068416821F44051E06801432E
:1006800020684160A1692068DFF8302790421CBFD4
:10069000206A014320688268DFF824070240114382
:1006A000206881602068C16A0909606A40EA011116
:1006B0002068C1622068DFF82817884234D100F032
:1006C00003F900F0030003283DD8DFE800F0027DC5
:1006D0006C930120E169B1F5004F40F0B88060B142
:1006E000012800F0A880022800F0A880042800F06B
:1006F000A880082800F0A880CFE001F0AFF900281A
:1007000011D000F0E5F8490801EB40016068B1FB49
:10071000F0F000F0CDF8EFD202EA0001C0F34200A1
:1007200001432068C160B9E0DFF8B81688422AD1D9
:1007300000F0CAF810F00C005AD0042844D0082861
:1007400031D00C2856D010202168DFF87026914255
:10075000C0D130B102284FD0042850D0082851D041
:100760009BE001F07BF90028DDD000F0A7F8B0FB9A
:10077000F1F1626802EB4202914203D36268120314
:100780008A4242D289E0DFF8601688420DD100F03B
:100790009BF810F030002BD0102815D0202802D064
:1007A000302827D0CFE70220CEE7DFF84016884276
:1007B0000CD100F089F810F0C00019D0402803D007
:1007C0008028F0D0C028ECE70420BDE7DFF8EC1566
:1007D0008842B8D100F078F810F4406008D0B0F545
:1007E000806FF1D0B0F5006FDDD0B0F5406FD8E785
:1007F0000020A9E70820A7E7DFF8F405B5E701F036
:1008000005F9B0E74FF40040AFE700F057F8B0FB50
:10081000F1F260684008002110EB022051EB1261F8
:100820006268002301F076F9A0F54071DFF8C42575
:10083000914232D222E001F019F960E7DFF8B00509
:100840005FE701F0E3F85AE74FF4004059E740B1A1
:10085000012816D0022817D0042818D0082819D04B
:100860001BE001F0FBF8C8B100F032F800EB5100DA
:10087000B0FBF1F000F01CF80FD280B22168C86024
:100880000CE001F0F3F8EEE7DFF86405ECE701F0C7
:10089000BDF8E8E74FF40040E6E701250120A4F8A1
:1008A0006A00A4F86800002020676067284632BD0F
:1008B000A0F110014FF6F07291427047DFF8381541
:1008C000626A31F812107047DFF83005006870472F
:1008D000DFF82415626A31F81210B0FBF1F061689C
:1008E0007047000090F82810C90707D501684A68CA
:1008F00022F40032C16A0A4301684A6090F8281065
:10090000890707D501684A6822F48032016B0A43DF
:1009100001684A6090F82810490707D501684A68BD
:1009200022F48022416B0A4301684A6090F8281043
:10093000090707D501684A6822F40042816B0A431F
:1009400001684A6090F82810C90607D501688A68CE
:1009500022F48052C16B0A4301688A6090F8281023
:10096000890607D501688A6822F40052016C0A439F
:1009700001688A6090F82810490613D501684A6812
:1009800022F48012416C0A4301684A60416CB1F55F
:10099000801F07D101684A6822F4C002816C0A43B3
:1009A00001684A6090F82810090607D501684A686E
:1009B00022F40022C16C0A4300684260704738B5D7
:1009C000044600F028F801F029F90546206800687F
:1009D000000707D500F019F84FF40011204600F089
:1009E00026F858B920680068400709D500F00DF8CE
:1009F0004FF48001204600F01AF808B1032032BD00
:100A000000F00DF884F8800032BD6FF07E40009059
:100A10002B46002270470020C4F88C00704720202D
:100A2000C4F88400C4F888000020E06670472DE90F
:100A3000F04105460E4690461F46069C2868C06950
:100A40003040B0420CBF0120002040452CD114F1B1
:100A5000010FF3D001F0E2F8C01B844200D344B987
:100A600000F025F8FCD100F02CF8FCD100F036F8AD
:100A700015E0286800684007E0D52868C0690005CF
:100A8000DCD54FF400602968086200F010F8FCD152
:100A900000F017F8FCD100F021F8C5F88C00002018
:100AA00085F88000032000E00020BDE8F081286880
:100AB00050E8001F024621F4D07142E800100028DF
:100AC00070472868083050E8001F286800F10802C5
:100AD0004908490042E80010002870472020C5F866
:100AE0008400C5F888007047DFF81403014042E82D
:100AF00000100028704710B504461346A165A4F8FD
:100B00005C30FFF788FF2220C4F88800E06FE0B176
:100B10000FF25510E16FC8620FF2D910E16F086350
:100B20000FF2E910E16F48630020E16F8863A26D66
:100B3000206800F12401E06F00F094FA28B100F081
:100B400021F8C4F88800012010BD002084F880003E
:100B5000206940B1206850E8001F024641F48071CE
:100B6000FFF7C5FFF6D1FFF759FD41F00101FFF78F
:100B7000BEFFF8D1FFF752FD41F04001FFF7B7FF8C
:100B8000F8D110BD1020C4F88C00002084F880003B
:100B900020207047016851E8002F0B4622F0C00268
:100BA00043E800210029F5D10168083151E8002F00
:100BB000016801F1080322F4000243E80021002942
:100BC000F2D12021C0F884107047016851E8002F4D
:100BD0000B4622F4907243E800210029F5D1016808
:100BE000083151E8002F016801F108030E490A405D
:100BF00043E800210029F2D1C16E012909D1016821
:100C000051E8002F0B4622F0100243E80021002992
:100C1000F5D12021C0F888100021C1660167704716
:100C20000100001020010004FEFFFFEFF369FFCF79
:100C30000146886A09680968890610D40021A0F86D
:100C400056100168083151E8002F016801F10803CE
:100C500022F0800243E800210029F2D192E000F066
:100C6000E3BF806A00F0E1BF0146886A096809684D
:100C7000890636D40021A0F85E10016851E8002FE3
:100C80000B4622F4807243E800210029F5D1016867
:100C9000083151E8002F016801F1080352085200A1
:100CA00043E800210029F2D10168083151E8002F02
:100CB000016801F1080322F0400243E80021002905
:100CC000F2D12021C0F88810C16E012909D1016834
:100CD00051E8002F0B4622F0100243E800210029C2
:100CE000F5D1C16E012904BFB0F85C1000F04DBB16
:100CF00000F09CBF806AC16E012918BF00F097BF49
:100D0000B0F85C10490800F040BB000038B5846AB8
:100D100000F01EF806D5212804D1FFF730FB20464D
:100D2000FFF738FFFFF72FFB07D5222D05D1002055
:100D3000A4F85E002046FFF748FFD4F88C0040F08E
:100D40001000C4F88C002046BDE8324000F01CBB07
:100D5000D4F88400D4F8885021688968090670475F
:100D6000806A0021A0F85E10A0F8561000F00CBBBD
:100D7000016851E8002F0B4622F0800243E8002171
:100D80000029F5D1016851E8002F0B4642F04002DE
:100D900043E800210029F5D17047016851E8002F90
:100DA0000B4622F0400243E800210029F5D1202122
:100DB000C0F884100021416700F036BF0080004079
:100DC000FFF4FF11B4F85E0000287047206850E877
:100DD000001F024621F4807142E80010002870478D
:100DE000003801400044004000480040004C0040F2
:100DF0000024F40000FD0F00E432000888100240D7
:100E0000FEFF7FEF80B55948594908604FF4E13043
:100E1000486000208860C86008610C20486100209C
:100E20008861C8610862486288620846FFF7D4F9A1
:100E300008B100F0C4FF00214D4800F0E6FF08B102
:100E400000F0BDFF00214A4800F0EFFF08B100F0BC
:100E5000B6FF474800F0BAFF18B1BDE8014000F006
:100E6000AEBF01BD18B597B004461421684601F025
:100E70002BF8442106A801F027F820683B49884256
:100E800063D1022006900020089006A801F020F807
:100E900008B100F094FF3748006840F4003035494D
:100EA0000860086800F40030059005983248006832
:100EB00040F0010030490860086800F0010005902A
:100EC000059804200090022001900020029000F07C
:100ED00045F8082000900220019001200290002097
:100EE00000F03CF82548264908601A204860002098
:100EF000886000F02CF82020C861002008620846B5
:100F000000F044F808B100F05AFF1D48E067846221
:100F10001C481D4908601B20486010208860002084
:100F200000F015F8C8610862084600F02FF808B113
:100F300000F045FF1448A0678462002200212620AB
:100F400001F07EF9262001F08AF918B010BDC860C2
:100F50008020086100204861886170470390072065
:100F6000049069464FF0904001F08EB90044004073
:100F700028020020581002404C1002400800024095
:100F80009C0300201C000240FC03002010B504005C
:100F900001D1012010BD00F048F8022084F825009E
:100FA000206801686FF30E11A0680143E0680143F7
:100FB0002069014360690143A0690143E06901437D
:100FC000206A014320680160204600F0A1F9A06872
:100FD000B0F5804F04BF00206060207900F01EF85B
:100FE00038B1052805D2204600F0ABF900F00FF823
:100FF00003E000206065A065E0650020E06301205B
:1010000084F825000020FFE784F8240010BD0020AC
:10101000616D0860E06DA16D48607047A16C08606B
:10102000206DE16C4860606870472068DFF830131D
:10103000884201460AD2DFF82C0341181420B1FB84
:10104000F0F080006064DFF8200309E0DFF81C03A3
:1010500041181420B1FBF0F080006064DFF8100349
:101060002064704770B500F033F801D1022070BDE4
:1010700000F03BF827D100F03FF8206B00282068F3
:10108000006818BF40F00E0007D120F0040021686E
:1010900008602068006840F00A0021680860A06CC1
:1010A0000068C00305D5A06C006840F48070A16C96
:1010B0000860606D20B1006840F48070616D086068
:1010C00000F00CF802E084F824500225284670BD98
:1010D0000446002594F82400012870472068006821
:1010E00040F00100216808607047012084F8240066
:1010F00094F8250001287047022084F82500E56354
:101100002068006840084000266830602046E0E023
:10111000002190F82520022A03D00421C163012177
:1011200026E00268126822F00E0203681A60826CE0
:10113000126822F48072836C1A6002681268520886
:10114000520003681A60012290F8443003F01F0334
:101150009A40036C5A60026DC36C5A60426D3AB19A
:10116000126822F48072436D1A60C26D836D5A60FA
:10117000012280F82520002280F8242008467047AC
:1011800010B5002490F82510022905D00421C16370
:1011900000F027F8012422E000F094F801680968C3
:1011A0004908490002681160816C096821F4807166
:1011B000826C116000F07DF8016DC26C5160416D70
:1011C00039B1096821F48071426D1160C16D826D81
:1011D000516000F006F8816B09B1816B88472046A9
:1011E00010BD012180F8251080F82440704710B50B
:1011F000016C096802681268042300F053F814D0E7
:10120000530712D501680968890605D40168096881
:1012100021F0040102681160042100F03BF8016B29
:10122000002936D0BDE810400847022300F03AF804
:1012300019D0930717D501680968890608D4016891
:10124000096821F00A0102681160012180F8251067
:10125000022100F01FF8002180F82410C16AC1B1FA
:10126000BDE810400847082300F01CF811D0110712
:101270000FD500F027F800F01CF80121C16380F8B9
:101280002510002180F82410416B11B1BDE81040F9
:10129000084710BD90F8442002F01F029140026CF4
:1012A0005160704790F8444004F01F04A340194275
:1012B0007047012190F8442002F01F029140026C17
:1012C000516070470168096821F00E0102681160E1
:1012D000704730B5046DC56C6C60446D14B1C46D5D
:1012E000856D6C60012490F8445005F01F05AC40FA
:1012F000056C6C60046863608368102B036803D11D
:101300009A600068C16030BD99600068C26030BDFD
:101310000168134A914234BF164917490278083AC6
:101320001423B2FBF3F2436C9B0801EB830181644D
:101330001249C164012102F01F0201FA02F20265A2
:10134000704701790E4A02EB810242650D4A8265BF
:101350000122491E01F01F018A40C265704700004A
:1013600008040240F8FFFDBF00000240F8FBFDBF8B
:1013700000040240000802402008024080080240A9
:10138000FC080240400902407047704770477047B0
:10139000704730B5016884684218416802EB510318
:1013A000C90703D54C4401E0491C08D19A4218BF33
:1013B00012F9011B01D10C3030BD12F8015B00297C
:1013C00004F8015BF0D4491EF7D5EFE77CB50400C3
:1013D00070D02078C00719D500F008FA0ED101F0BE
:1013E000030103290CD06068B0F5803F2CD100F0D8
:1013F00019FA40F48030DFF8E41639E00828F2D119
:1014000000F014FA02D56068002853D020788007D5
:101410005CD500F0EBF946D101F00301022944D07C
:10142000E068002800F0FEF96CD040F4807000F015
:10143000F3F9054600F0FFF961D400F0EFFB401B23
:101440000328F7D3032076BDB0F5A02F00F0EAF90A
:1014500007D140F4802000F0C5F9086840F48030DE
:1014600006E020F4803000F0BDF9086820F4802008
:101470000860606858B100F0D1FB054600F0D6F96D
:10148000C4D400F0CBFB401B6528F7D3DAE700F0AB
:10149000C5FB054600F0CAF9B8D500F0BFFB401BFC
:1014A0006528F7D3CEE70428BAD100F0C4F903D5F4
:1014B000E068002800F0808100F0A2F9DFF8200643
:1014C000006800F0C3FF002840F076812078000714
:1014D00037D56069002800F07BF921D040F0010089
:1014E000DFF8F41500F09AF9054600F071F980076D
:1014F00027D400F093FB401B0328F6D3A2E700F0AB
:101500007FF9E3E720F4807000F086F9054600F0EB
:1015100092F9DBD500F082FB401B0328F7D391E75B
:1015200040084000DFF8B01500F078F9054600F0FB
:101530004FF9800705D500F071FB401B0328F6D357
:1015400080E72078400772D50025DFF8980500680D
:10155000C0000DD4DFF88C05006840F08050DFF843
:1015600084150860086800F08050009000980125FC
:10157000DFF874050068C00514D4DFF86C05006856
:1015800040F48070DFF8601500F048F90646DFF897
:1015900058050068C00505D400F040FB801B0328F7
:1015A000F5D34FE7A068012806D100F00DF940F00F
:1015B0000100DFF8381514E0052800F005F908D11E
:1015C00040F00400DFF824150860086840F00100CE
:1015D00007E040084000DFF814150860086820F0B4
:1015E00004000860A06860B100F018FB064600F037
:1015F000EBF8800712D400F011FB00F0FBF9F6D3F2
:1016000020E700F00BFB064600F0DEF8800705D56A
:1016100000F004FB00F0EEF9F6D313E73DB1DFF87C
:10162000C404006820F08050DFF8B8140860207807
:10163000800629D5A0690028DFF8B404006811D01D
:1016400040F00100DFF8A81400F0E8F80546DFF8E4
:10165000A0040068800717D400F0E0FA401B0328BC
:10166000F5D3EFE640084000DFF8841400F0D6F828
:101670000546DFF87C040068800705D500F0CEFA47
:10168000401B0328F5D3DDE6E069002800F09680D2
:1016900000F0A2F80C28E06962D000F0C2F820F057
:1016A000807000F09FF841D100F0B8FA054600F0D4
:1016B000C7F805D500F0B2FA401B0328F7D3C1E6FE
:1016C00000F07EF8DFF82C140840216A0843616AB4
:1016D000491E40EA0110A16A40EA0120216B490835
:1016E000491E40EA4150616B4908491E40EA416089
:1016F000E16A40EAC160DFF8DC13086000F092F8AC
:1017000040F0807000F06EF800F05AF840F0807001
:10171000DFF8C01300F082F8044600F091F84DD4D1
:1017200000F07CFA001B0328F7D38BE600F048F8A2
:1017300080088000DFF89C1308600968DFF8B803B0
:101740000140DFF89003016000F068FA044600F001
:1017500077F833D500F062FA001B0328F7D371E65F
:10176000012829D000F02CF800F00301226A9142F0
:1017700001BF00F0F001626A521EB1EB021F1BD1E3
:1017800000F4FE41A26AB1EB022F02BF00F07841E3
:10179000E26AB1EBC26F0FD100F4C001226B5208B4
:1017A000521EB1EB425F07D100F0C060616B490887
:1017B000491EB0EB416F01D0012076BD002076BDFF
:1017C000DFF8100300687047DFF8200300687047F7
:1017D000DFF8040300687047DFF8F002006800F0EB
:1017E0000C007047DFF8F41208607047DFF8DC0285
:1017F000006800F00C00DFF8DC1209680C28704764
:10180000DFF8C402006820F0FE40216940EA016070
:10181000DFF8B41208607047DFF8C012086000F00B
:10182000FDB90228DFF8B40200687047DFF8AC02A7
:10183000006880037047DFF8A40200684005704725
:10184000DFF89802006880017047F8B504460D463D
:101850000026002C54D000F0B8F807D200F0CFF8E2
:101860000860086800F00F00A84249D12078C0073E
:1018700048D56068032814D1FFF7E2FF40D500F097
:1018800005F9DFF8781288421DD3DFF840020068BE
:1018900010F0F00F10D02078800714D5A06890B910
:1018A0000AE0FFF7BEFF29D1800329D500F0AEF88A
:1018B000DFF84812884206D300F097F840F0800025
:1018C00000F080F88026DFF804020168890860686B
:1018D00040EA8101DFF8F401016000F09FF907465A
:1018E000FFF77AFF6168B0EB810F0BD000F096F93B
:1018F000C01B00F080F8F3D30320F2BD4005D5D41F
:101900000120F2BD2078800719D52078400704D542
:10191000DFF8B801006800F053F82078000703D51D
:1019200000F05EF800F04CF8DFF8A001016821F04B
:10193000F001A0680143DFF89401016005E0802E0A
:1019400003D100F052F800F03DF8DFF8B401006870
:1019500000F00F0085420DD200F051F8FFF75EFF56
:10196000064600F032F805D000F058F900F042F8D1
:10197000F7D3C1E72078400707D55448016821F420
:10198000E061E0680143514801602078000706D516
:1019900000F026F8216940EAC10000F013F800F0D9
:1019A00035F85849494A1268C2F30312895C01F0BC
:1019B0001F01C84000F00FF8BDE8F24000F046BD3E
:1019C00040F4E0604149086070474D48006800F00D
:1019D0000F00A84270474C490860414800687047B2
:1019E0003A48006820F4605070473848006820F09A
:1019F000F0007047801B41F28931884270474048AF
:101A00000068000945EA00103D4970472F4800680A
:101A100000F00C00042801D12D4870472B480068C5
:101A200000F00C00082801D13848704727480068AA
:101A300000F00C000C280CD1264801680068C0F3A7
:101A40000310401C01F0030103290CBF2F4920495A
:101A500028E0002070472C480068704780B5FFF7E9
:101A6000FAFF00F00FF8C2F3022206E080B5FFF79C
:101A7000F2FF00F007F8C2F3C222895C01F01F01F7
:101A8000C84002BD2249114A1268704711480168D6
:101A90000068C0F30310401C01F0030103290CBFD0
:101AA0001A490B49B1FBF0F10A480068C0F306205F
:101AB000414308480068C0F34160401C4000B1FB4E
:101AC000F0F07047000000000410024008100240CF
:101AD0000024F4000C100240941002400010024058
:101AE0001C0100205810024000700040901002407D
:101AF000981002400C809F01FFFFEEFE01B4C40469
:101B000000200240303300082401002000366E011E
:101B100068330008D3BBD9B1B2F5803F5BD2022A4B
:101B20001ED98C46B1FBF2F102FB11C31B0443EA40
:101B30001043B3FBF2FC02FB1C3380B240EA0343C8
:101B4000B3FBF2F002FB103240EA0C400023704776
:101B5000022A05D98446B0FBF2F002FB10C270479E
:101B60004AB105D100F0010249085FEA3000704730
:101B700000220023704700F091BC0B0002000021FE
:101B800000207047F7D3002200237047904271EB8A
:101B9000030CF2D370B5B1FA81F4B3FA83F52C1BC0
:101BA000A340C4F1200532FA05F63343A2405FF0AA
:101BB0000046E64002E05B085FEA3202841A71EBFD
:101BC000030524BF204629467641F4D302000B00CA
:101BD0003000002170BD70B5B1FA81F4B2FA82F51F
:101BE000C4F120046419B4F12006DAD3B2405FF0E6
:101BF0000044F440002502E052085FEA3303C61AAD
:101C000071EB020E24BF3046714664416D41F3D33F
:101C100002000B002000290070BD00000148006890
:101C2000704700BF600400207047704770477047DE
:101C300080B500F035FC00F00DF800F041FC00F03C
:101C40007BFC00F0A3FCFFF7DDF800F038F800F0B3
:101C500086F8FCE700B593B0382105A800F034F908
:101C60001421684600F030F9002000F019FD012031
:101C700005904FF48030069002200C9003200D90C8
:101C800006200E9055200F90022010901190129077
:101C900005A8FFF79BFB08B100F091F80F2000901A
:101CA00003200190002002900390049004216846D4
:101CB000FFF7CBFD08B100F082F813B000BD80B58E
:101CC00072B63548D0F8A81088474FF48072324871
:101CD00001690068FEF70FFB08B100F070F82F48AB
:101CE000006800F069FE08B100F069F82B48426E08
:101CF000816E006800F019FF08B100F060F8012063
:101D00002649486000208860C8604FF400200861C0
:101D1000002048618861C8610862486262B601BDFE
:101D200010B51F480468641CB4F57A7F14DB0024E6
:101D30001C49194801F0E1F81848006800F0E9FE74
:101D400050B1194A19491548006800F04AFE18B107
:101D50001749114801F0D1F81148046010BD0E4830
:101D6000D0F8AC10084700680C4A1268126890421C
:101D700000D0704780B50948806E01420AD00D4BF3
:101D80000D4A0648416E006800F054FE10B1BDE8EF
:101D9000014014E001BD00006C00002000000020A4
:101DA0005C040020503300082800002004000020BC
:101DB000103300085800002030000020B0E772B651
:101DC000FEE7000080F880100020704790F8801037
:101DD000012901D102207047012180F880102421BF
:101DE000C0F884100168096802681268520852003D
:101DF00003681A600022426621F0005102681160F7
:101E00002021C0F884100021DCE738B500F008F884
:101E100001D1022032BD00F024F820F060400EE035
:101E2000044694F880000128704738B5FFF7F8FFA2
:101E300001D1022032BD00F014F820F060600143AF
:101E400020688160204600F01CF82068056000F0E2
:101E500001F832BD2020C4F88400002084F88000FE
:101E60007047012084F880002420C4F88400206892
:101E7000056800684008400022681060206880689B
:101E8000704710B5416E11B90121012213E00168BC
:101E90008A68520E02F007028968490F084B5B5CA2
:101EA000DB00084C615C93FBF1F1054B9B5CDB00B4
:101EB000A25C93FBF2F2A0F86A10A0F8682010BDB3
:101EC0005833000860330008002201F081B8000098
:101ED000F8B5054600262868000356D50024DFF82B
:101EE00088020068C00002D400F02AF90124DFF85B
:101EF0007C02006840F48070DFF870120860FFF721
:101F00008DFE0746DFF864020068C00506D4FFF7BF
:101F100085FEC01B0328F5D3032633E000F00DF93E
:101F200010F440701CBF296C884210D000F005F9F5
:101F300020F44070DFF83812096841F48031DFF88E
:101F400030221160116821F4803111601060C007E7
:101F50000ED5FFF763FE074600F0EFF8800707D4C1
:101F6000FFF75CFEC01B41F289318842F4D3D3E70E
:101F7000DFF8FC01016821F44071286C0143DFF8AF
:101F8000F00101600CB100F0E7F82878C00708D52F
:101F900000F0BBF88908686840EA8101DFF8D401E5
:101FA00001602878800706D500F0AFF821F00C0119
:101FB000A86800F0B4F82878400706D500F0A5F826
:101FC00021F03001E86800F0AAF82878000706D56B
:101FD00000F09BF821F0C001286900F0A0F82878F3
:101FE000800606D500F091F821F44061686900F0A0
:101FF00096F82878400606D500F087F821F440517D
:10200000A86900F08CF82878000606D500F07DF865
:1020100021F44041E86900F082F82868C00506D53F
:1020200000F073F821F44031286A00F078F828684D
:10203000800506D500F069F821F44021686A00F0B7
:102040006EF8286840050CD500F05FF821F44011C7
:10205000A86A00F064F8A86AB0F5801F01D100F00A
:1020600063F8286800050CD500F04FF821F4400112
:10207000E86A00F054F8E86AB0F5800F01D100F08A
:1020800053F82868C0040CD500F03FF821F04071E7
:10209000286B00F044F8286BB0F1807F01D100F08C
:1020A00043F8286880040AD500F033F8686B00F024
:1020B00036F8686BB0F1006F01D100F035F8286890
:1020C00040040AD500F025F8A86B00F028F8A86BAA
:1020D000B0F1006F01D100F027F82868000412D594
:1020E00000F013F821F04051E86B00F018F8E86BAD
:1020F000B0F1805F07D1DFF88000006840F48030E5
:10210000DFF8741008603046F2BDDFF8680001683F
:102110007047DFF86000016821F0406170470143BB
:10212000DFF8500001607047DFF84C00006840F4B1
:102130008010DFF84410086070470D480068704751
:102140000948006840F0805007490860086800F0BE
:1021500080500090009870470348006820F080503D
:1021600001490860704700005810024000700040AC
:1021700090100240881002400C1002403A490A6850
:102180004FF6FF010A40000200F4E06010433749B7
:10219000084335490860704733480068C0F302209F
:1021A00070470000010007D4012200F01F018A409F
:1021B0002F49400941F820207047020003D409014B
:1021C0002C4A1154704709012B4A00F00F001044AB
:1021D00000F8041C704710B500F00700C0F10703B9
:1021E000052B2FBF0F23012404FA03F35B1E041DEC
:1021F000072C34BF0020C01E19408140012303FA80
:1022000000F0401E1040084310BD10B50446601E8B
:10221000B0F1807F0CD2194908600F214FF0FF30D8
:10222000FFF7CBFF0020164908600720154908601A
:10223000641EB4F1807F8041C043C00F10BD9DE794
:1022400070B504460D461646FFF7A6FF32462946EE
:10225000FFF7C1FF01462046BDE87040ADE7A1E7AA
:10226000D3E7FFF7ABBD00000CED00E00000FA057E
:1022700000E100E000E400E018ED00E014E000E020
:1022800018E000E010E000E0F8B5024600232CE082
:10229000634CA24214BF0624052400F0B7F82C4377
:1022A000604D9E0845F826405F4C00F0ABF8ED020B
:1022B00048BF04435C4D2C605C4C00F0A3F8AD02B9
:1022C00048BF0443594D2C60594C00F09BF8AD03B6
:1022D00048BF0443564D2C60564C00F093F8ED0374
:1022E00048BF0443534804605B1C0868D84000F0B2
:1022F0008380086801249C402040F5D00C7904F0CC
:102300000304012C1EBF0C7904F00304022C10D12D
:10231000946800F072F8CD68B5402C43946054681E
:1023200001259D40AC434D68C5F300159D402C43ED
:1023300054600C7904F00304032C1FD0D46800F01F
:102340005CF88D68B5402C43D4600C7904F003042C
:10235000022C13D1DC0802EB8404246ADD0802EBB2
:1023600085050F269F0007F01C07BE40B4430E6989
:102370009F0007F01C07BE4034432C62146800F035
:102380003CF80D7905F00305B5402C4314604C680A
:1023900014F4403FA8D0284C246844F00104264D92
:1023A0002C602C6804F001040094009C1D4C9D08D6
:1023B00054F825400F269D0005F00C0506FA05F59A
:1023C00024EA0505B2F1904F08BF002413D01B4C3E
:1023D000A24208BF01240ED0194CA24208BF022419
:1023E00009D0184CA24208BF032404D0164CA242C4
:1023F0007FF44EAF042450E7F1BD03255E00B540E5
:10240000AC437047246884434D6870479E0006F0D3
:102410000C06B44070470AB1816170478162704711
:102420000014004808000140080401400C04014069
:102430000404014000040140601002400004004810
:1024400000080048000C00480010004838B5044659
:1024500000250F480068B8B14FF47A700C4909683C
:10246000B0FBF1F00B490968B1FBF0F0FFF7F8FEA3
:1024700050B9102C08D2002221464FF0FF30FFF750
:10248000DFFE0548046000E00125284632BD00BF9C
:1024900020010020240100201C01002070470000C2
:1024A00010B500240320FFF7CAFE0F20FFF7CEFF70
:1024B000002814BF012400F0A5FD204610BD000037
:1024C00080B586B0142101A8FFF7FEFC184800680B
:1024D00040F0200016490860086800F020000090D5
:1024E0000098086840F001000860086800F00100EA
:1024F00000900098086840F002000860086800F04A
:1025000002000090009800224FF480710948FFF704
:1025100082FF4FF480700190012002900020039010
:10252000049001A90348FFF7AFFE07B000BD00BF4C
:102530004C1002400004004880B51348006840F089
:10254000040011490860086800F004000090009839
:10255000086840F001000860086800F00100009081
:102560000098002200210B20FFF76AFE0B20FFF7E6
:1025700076FE002200210C20FFF762FE0C20BDE851
:102580000240FFF76CBE00BF4810024080B586B025
:102590003F4840490860002048608860C860088261
:1025A00088740A204861012088610E20C8610220D9
:1025B0000862012048628862C86208631C20486380
:1025C00000208863C863084600F0F4F808B1FFF7FC
:1025D000F6FB002000900190029001200390002063
:1025E000049040F2FF70059069462A4800F0BBF95C
:1025F00008B1FFF7E4FB07B000BD18B597B004467B
:10260000142101A8FFF760FC442106A8FFF75CFC39
:1026100020681F49884239D14FF4805006904FF00E
:102620000070129006A8FFF753FC08B1FFF7C7FB34
:102630001948006840F0007017490860086800F009
:102640000070009000981548006840F001001349A0
:102650000860086800F00100009000984FF4C05036
:102660000190022002900120039003200490092091
:10267000059001A94FF09040FFF706FE00220021CF
:102680001520FFF7DDFD1520FFF7E9FD18B010BD9F
:102690000064004038030020581002404C100240F3
:1026A00090BBDFF8F800006800F4C060B0F5806F00
:1026B000DFF8EC00006820F48070DFF8E4100860B8
:1026C00060D1DFF8D800006820F4C06040F40070EA
:1026D000DFF8C8100860DFF8CC0001683220414301
:1026E000DFF8C400B1FBF0F0401C00E0401EDFF852
:1026F000BC100968490501D50028F7D1DFF8AC0006
:102700000068400535D43DE0B0F5007FDFF88C006F
:10271000006830D100F4C060B0F5806FDFF8800051
:10272000006840F48070DFF8781008602AD1DFF884
:102730006C00006820F4C06040F40070DFF85C10AA
:102740000860DFF86000016832204143DFF858007C
:10275000B1FBF0F0401C00E0401EDFF850100968AB
:10276000490501D50028F7D1DFF840000068400591
:1027700008D50320704720F4C06040F48060DFF883
:102780001C10086000207047DFF8241008607047B4
:102790000748006840F48040F6E700000070004001
:1027A000807000402401002040420F00147000405F
:1027B0000870004038B5040028D094F85C0020B9B7
:1027C00084F85D002046FFF718FF00F0BCF80546CE
:1027D00020688069000705D5FFF720FA401B0B2809
:1027E000F6D311E02068806940F00100216888611B
:1027F000FFF714FA054620688069C00708D4FFF780
:102800000DFA401B0B28F6D300F0A5F8012032BDCD
:102810002068806940F0020000F091F8DFF8E015D0
:10282000884203D16068DFF854160860207C0128D4
:10283000206880690CBF20F0400040F04000216813
:102840008861607C0128206880690CBF40F480406A
:1028500020F4804021688861A07C0128206880697C
:102860000CBF20F4805040F4805000F068F881697B
:1028700021F44071A068014320688161206880696B
:1028800020F0A40000F05BF8006920F0100021683F
:102890000861E068012804D12068806940F00400E4
:1028A00014E0A8B10228206880690DD040F08000B3
:1028B00000F045F8006940F0100021680861E06808
:1028C000032805D12068806940F0200021688861D4
:1028D000A069401EE169491E090241EA4061206A7F
:1028E000401E01436069401E41EA00412068C16109
:1028F000A068B0F5407F0FD1A06A401EE16A491E72
:1029000040EA0120216B491E40EA0110616A491E1C
:1029100040EA01402168C8602068D0F8C010E06B30
:1029200001432068C0F8C010204600F03EFA0020A5
:10293000A0652066012084F85C00002032BD21687B
:102940008861206870472068806920F01000216845
:102950008861FFF763B9206E40F001002066032014
:1029600084F85C00704790F85C20012A18BF022AA6
:1029700021D10A687AB9026C486802EB8002886843
:10298000CB68DB0643EA8073086943EA0043486981
:10299000034313600DE08B684A6942EA8372406C1E
:1029A0004B6800EBC300CB68096941EA43710160E1
:1029B000426000207047B2E090F85C1001290CD111
:1029C000022180F85C1001688969490849000268A1
:1029D00091610021016600207047016E41F0040101
:1029E000A0E038B5044694F85C0002281CD12068A9
:1029F000D0F8C400800203D5206E40F4007016E0C9
:102A00002068D0F8C400C0F301452B46204600F0F2
:102A1000F9F90120A8402168C1F8CC00012000FA92
:102A200005F5A565002032BD206E40F00800206647
:102A3000012032BDF0B590F85C40022C63D14029F2
:102A400004680BD1D4F8904014F00F0F0BD0046839
:102A5000D4F89040C4F30125846C0EE0D4F898407B
:102A600014F00F0F03D1016E41F480714EE0046841
:102A7000D4F89840C4F30125C46C482616FB0546DB
:102A8000346814F08044546034680CBFC4F38A4442
:102A900024F060441460346804F00054946056F8E4
:102AA000044B04F0004414613468A4B2D461346867
:102AB00004F47024D460346804F4801454613468DD
:102AC00004F4001494613468C4F30664146256F884
:102AD000044BE40F5462002402E0375D1F55641C70
:102AE000DFF89C73D2F80CC04FEA1C4C17F80C703E
:102AF000BC42F2D3402900680CBFC0F89450C0F823
:102B00009C500020F0BD016E41F0080101660120DB
:102B1000F0BD0068D0F8C40000F007007047016EF7
:102B200041F0020101660120704730B590F85C3039
:102B3000012B18BF022B6CD103689B6D11F0070F9E
:102B400001D0DC071DD511F0380F01D09C0718D536
:102B500011F4E07F01D05C0713D511F4F05F01D0D0
:102B60001C070ED511F4604F01D0DC0609D511F415
:102B7000403F01D09C0604D511F47C0F07D05C06C1
:102B800005D40468E46D44F001040568EC6511F0B7
:102B9000070F01D0DC071DD411F0380F01D09C07BE
:102BA00018D411F4E07F01D05C0713D411F4F05F66
:102BB00001D01C070ED411F4604F01D0DC0609D4FB
:102BC00011F4403F01D09C0604D411F47C0F07D0CF
:102BD0005B0605D50368DB6D43F002030468E3651B
:102BE0000B0606D50368D3F8DC3013430468C4F839
:102BF000DC30CB0506D50368D3F8E0301A43036810
:102C0000C3F8E0200268526D11430068416500205E
:102C100030BD016E41F002010166012030BD2DE999
:102C2000F84307463868056D406D054005F4E055EA
:102C30003868066D406D064006F007063868016D7D
:102C4000406D084000F038093868046D406D04405C
:102C500004F471043868016D406D084000F4602888
:102C60003868006D400608D53868406D400604D5C8
:102C7000402000F096F800F0E3F93868006DC005D8
:102C800010D53868406DC0050CD53868D0F8D8101C
:102C9000D0F8E0004FF480723B681A650140384676
:102CA00000F0CFF92DB1386805652946384600F0A7
:102CB000C9F92EB13868066531463846FFF753F832
:102CC000B9F1000F06D03868C0F850904946384630
:102CD00000F0B9F93868006D800509D53868406D95
:102CE000800505D54FF4007000F05BF800F0ACF9FA
:102CF0003868006D00060FD53868406D00060BD5AA
:102D00003868D0F8D410D0F8DC0080223B681A650F
:102D10000140384600F099F93868006D800409D503
:102D20003868406D800405D54FF4005000F039F844
:102D300000F08CF93868006D000409D53868406DE2
:102D4000000405D54FF4004000F02BF800F07FF9A7
:102D50003868006D40040BD53868406D400407D5D5
:102D60004FF4804039680865386E40F0800038665E
:102D7000B8F1000F06D03868C0F850804146384698
:102D800000F066F924B138680465386E04433C6687
:102D9000386E20B13846BDE8F24300F05AB9BDE8BC
:102DA000F18339680865384670473649016401681F
:102DB000D1F8801021F4F811426B41EA0241026817
:102DC000C2F88010304941640168D1F8801021F0C8
:102DD0007061826B41EA02610268C2F880102B497F
:102DE00081642B49C1642B4901652B494165254804
:102DF000002140F8041B29498842F9D3704700009C
:102E00000064004070B51C464B68002B0D698B6850
:102E100004D11D430B6845EA834504E01D430B685C
:102E20001D4345F080450B6ACE6946EA03668B690F
:102E30001E434B691E43CB681E43436D482000FB75
:102E400004342560666004F1080000230FE0D41804
:102E5000E478D518AD782D0445EA0465D418647873
:102E600045EA0425D45C254340F8045B1B1D044C53
:102E7000CD682D0C645DA342E9D370BD00650040B0
:102E80002033000800A4004070A40040B0A400401B
:102E900088A5004060A6004078A6004050A70040EA
:102EA0000A4601680968C9694906FAD5C168006817
:102EB000FDF7D6B901464FF0FF304A6812685268F4
:102EC000C2F580724A614A698B699A4207D00869E3
:102ED000B1F91820805C5A1C02F0FF028A61704729
:102EE0000146486800684068C0F5807048614869DC
:102EF0008969401A00F0FF00704738B504460D4656
:102F0000E06800F0A7F8284600F0B0F881B220464B
:102F1000BDE83440C4E70549016005494160054901
:102F20008160054901610549C160704728020020A0
:102F30009C030020FC03002028010020B802002090
:102F400038B5044601E0401CE0832046FFF7C8FF87
:102F500088B12046FFF7AEFFE18B214481F82200C3
:102F6000E08B204490F822000A2802D0E08B402811
:102F7000E9DB01202077207F40B300202084616EB0
:102F800004F1220000F07CF8218C04EB810109E0BF
:102F9000258C6D1C2584616E002000F071F8ADB2A7
:102FA00004EB85018866208C04EB8000806E00288D
:102FB000EED1204600F08AF80020E08320774021FF
:102FC00004F12200BDE8344000F082B831BD0000B9
:102FD00000B500BF130096469446103928BFA0E8FC
:102FE0000C50FAD85FEA417C28BF0CC048BF40F8BB
:102FF000042BC90728BF20F8022B48BF00F8012B7B
:1030000000BD000082B00C48006840F001000A4991
:103010000860086800F00100009000980748006808
:1030200040F0805005490860086800F0805000902A
:10303000009802B0FFF7ACBB60100240581002408D
:1030400070477047704770477047704770477047C8
:10305000704770475FEA000C11F8012B00F8012B54
:1030600012B111F8012BF9E76046704700F1010336
:1030700010F8011B11B110F8011BFBE7C01A7047D3
:1030800038B504000D460BD02946204600F023F841
:103090000444207848B90C4800210160002032BD6A
:1030A00009490C68002CEFD132BD2946204600F0BA
:1030B00023F82118087810B1002201F8012B0248EA
:1030C0000160204632BD00BF64040020704700004C
:1030D000002200F023B870B4044600E0641C23789A
:1030E0003BB10D462A7822B115F8016BB342F9D1F4
:1030F000F4E7201A70BC704770B4044600E0641C0A
:1031000023783BB10D462A78002AF8D015F8016BD8
:10311000B342F8D1201A70BC70470000401810F07C
:10312000030308D0C91A1FD3DB0748BF00F8012DDD
:1031300028BF20F8022D130030B41446154610396C
:1031400028BF20E93C00FAD8490728BF20E90C0035
:1031500048BF40F8042D890028BF20F8022D48BF41
:1031600000F8012D30BC7047C91818BF00F8012DB8
:10317000CB0728BF00F8012D70470000FEE7FEE7EF
:10318000FEE7FEE7FEE770477047704780B5FFF740
:1031900068F8BDE8014000F015B80648FEF727B80A
:1031A0000548FEF724B80548FFF739BD0448FDF788
:1031B000EEB800009C030020FC0300203803002030
:1031C00028020020034801680348006841180148AC
:1031D00001607047600400202001002030B4002509
:1031E00012E050F8042BD30744BF4A44521E091F73
:1031F000042942F8045BFAD213468C0744BF1580B9
:103200009B1CC90748BF1D7050F8041B0029E8D15A
:1032100030BC704710B5074979441831064C7C44DE
:10322000163404E00A68081D114488470146A1428B
:10323000F8D110BD2C000000480000004EF6885167
:10324000CEF20001086840F470000860BFF34F8FB1
:10325000BFF36F8F4FF00070E1EE100A704700006F
:103260007DFFFFFF40030000280100200000000058
:1032700023E1FFFF080200005C00000000000020C6
:1032800000F00DF8002801D0FFF7C4FFAFF3008075
:103290000020AFF30080FEF7CBFC00F002F8012025
:1032A000704700F001B800000746384600F002F809
:1032B000FBE7000080B5AFF30080024A1100182040
:1032C000ABBEFBE7260002000548014603B4684692
:1032D00080F30988AFF30080FFF7B0FFFFF7D0FF5E
:1032E000A5EDF5FE010002000400060008000A003A
:1032F0000C0010002000400080000001034800681E
:1033000040F47000014908607047000088ED00E05B
:1033100043414E207478206661756C740000000093
:103320000001020304050607080C101418203040A1
:103330000000000000000000010203040607080965
:103340000148804701480047FD320008C9320008A3
:1033500068656C6C6F00000001010103070100004B
:103360000804020408010101000000000102030436
:103370002C0A0D00FFF7FEBFFFF7FEBFFFF7FEBFF1
:10338000FFF7FEBFFFF7FEBFFFF7FEBFFFF7FEBF71
:10339000FFF7FEBFFFF7FEBFFFF7FEBFFFF7FEBF61
:1033A000FFF7FEBFFFF7FEBFFFF7FEBFFFF7FEBF51
:1033B000FFF7FEBFFFF7FEBFFFF7FEBFFFF7FEBF41
:1033C000FFF7FEBFFFF7FEBFFFF7FEBFFFF7FEBF31
:1033D000FFF7FEBFFFF7FEBFFFF7FEBFFFF7FEBF21
:1033E000FFF7FEBFFFF7FEBFFFF7FEBFFFF7FEBF11
:1033F000FFF7FEBFFFF7FEBFFFF7FEBFFFF7FEBF01
:10340000FFF7FEBFFFF7FEBFFFF7FEBFFFF7FEBFF0
:10341000FFF7FEBFFFF7FEBFFFF7FEBFFFF7FEBFE0
:10342000FFF7FEBFFFF7FEBFFFF7FEBFFFF7FEBFD0
:10343000FFF7FEBFFFF7FEBFFFF7FEBFFFF7FEBFC0
:10344000FFF7FEBFFFF7FEBFFFF7FEBFFFF7FEBFB0
:10345000FFF7FEBFFFF7FEBFFFF7FEBFFFF7FEBFA0
:10346000FFF7FEBFFFF7FEBFFFF7FEBFFFF7FEBF90
:10347000FFF7FEBFFFF7FEBFFFF7FEBF03380300F5
:1034800020A4000001FD000040FD000001990003A0
:1034900070330008C00008172F0008412F000810E3
:0A34A000FD000001FC000224F4000E
:04000005080032C9F4
:00000001FF
