:020000040800F2
:10000000D00E0020398500081983000821830008DC
:1000100023830008258300082783000800000000D0
:10002000000000000000000000000000298300081C
:100030002B830008000000002D8300082F83000898
:1000400055850008598500085D8500086185000810
:100050003D83000841830008658500086985000824
:100060006D850008718500087585000843830008C8
:1000700049830008798500087D850008818500088E
:100080008585000800000000898500088D8500082E
:10009000918500084F830008558300085B830008A2
:1000A00095850008998500089D850008A1850008B0
:1000B000A5850008A9850008AD850008B185000860
:1000C000B5850008B9850008BD850008C185000810
:1000D000C5850008C985000863830008CD85000830
:1000E00079830008D1850008D5850008D9850008E6
:1000F000DD850008E1850008E585000800000000B6
:1001000000000000E985000800000000ED850008FF
:10011000F185000800000000F5850008F985000859
:10012000FD8500080186000805860008098600088C
:100130000D86000800000000000000001186000885
:100140001586000819860008000000000000000065
:10015000000000000000000000000000000000009F
:100160000000000000000000000000001D860008E4
:1001700021860008000000000000000000000000D0
:100180000000000081830008000000000000000063
:10019000000000000000000000000000000000005F
:1001A00000000000000000002586000829860008E5
:1001B0002D86000831860008358600080000000002
:1001C0000000000039860008000000000000000068
:1001D0003D8600084186000810B586B0DFF89846D5
:1001E000DFF89806206000206060A060E0600120D9
:1001F000207400206074A0740A2060610120A06156
:100200000E20E0610220206201206062A062E062B4
:1002100020631C2060630020A063E063204601F09F
:10022000AFFB002801D002F036FB002000900190C7
:100230000290012003900020049040F2FF7005908E
:100240006946204601F078FC002801D002F023FB2B
:1002500006B010BD18B597B004460022142101A8BD
:1002600002F052FB0022442106A802F04DFB206858
:10027000DFF80816884240D14FF4805006904FF0C6
:100280000070129006A802F061FB002801D002F075
:1002900002FBDFF8EC05C16841F00071C160C16884
:1002A00001F0007100910099016841F001010160C5
:1002B000006800F00100009000984FF4C0500190D9
:1002C0000220029001200390022004900920059052
:1002D00001A94FF0904002F06DFC00220121152091
:1002E00002F0B3FD152002F0BFFD0022012116200F
:1002F00002F0ABFD162002F0B7FD18B010BD3CB403
:10030000049DDFF8804500F5C060C4F804010129B0
:1003100004D0022908D004290ED01BE004F5947003
:100320002F210170057118E004F594702B210170E4
:1003300005712D12457110E004F5947023210170B0
:1003400005712946091241712946091481712D163A
:10035000C57102E0222084F8280104F594704270EF
:1003600012128270C37004F5807036BC33E118B489
:10037000DFF8101500F50072C1F8042101EB8012BE
:1003800001F59473DFF80045204410F8010C0028B3
:1003900005D032F9260C1870001258700AE052F895
:1003A000240C1870024612125A70024612149A70E7
:1003B0000016D87001F5807012BC0CE170B50446CF
:1003C000DFF8C05405F5947600220821304602F08B
:1003D0009BFA0020C5F804013470707005F5807038
:1003E000BDE87040F7E07CB50646DFF8A044002089
:1003F000606046F24005009103462A4602213046DD
:10040000FFF77DFFDFF87C0400EB861636F93E0C23
:1004100046F26601884218D173BD94ED010AF7EEE9
:10042000000A30EE200A84ED010AD4ED030AF8EE4A
:10043000600AB4EE600AF1EE10FA06DBDFF8500451
:10044000DFF85014016002F026FA2078002803D16A
:1004500036F93E0CA842E0D173BD38B505460C46CE
:100460000120DFF828140870601C2870DFF82814B9
:1004700048788A7840EA0220688000B246F23F025B
:10048000801A0AD0801E02D023381BD03EE00879A3
:10049000497940EA0120A88031BD95F8200005EB9C
:1004A00040000A79497942EA0122428495F8200005
:1004B000401C85F82000C0B2052842D1002085F8F4
:1004C000200031BD08794A7940EA02208A7940EA61
:1004D0000240C97940EA0160A860E96A401A02F066
:1004E000D3FCDFF8B823DFF8B83302F0DFFC41ECCF
:1004F000100B85ED040BDFF8AC2302EBC402D2E94C
:10050000002302F0A9FDC5E9040131BD08784F2898
:1005100002D10879286331BD4B2805D10879497982
:1005200040EA0120286331BD43280AD108794A797D
:1005300040EA02208A7940EA0240C97940EA016033
:10054000286331BD38B505460C46601C287046F25C
:1005500066006880D04908784A7840EA0220A8807E
:100560008878CA7840EA0220E88008794A7940EA27
:1005700002208A7940EA0240C97940EA0160A86015
:10058000E96A401A02F080FCC44AC54B02F08EFCB6
:1005900041EC100B85ED040BC24A02EBC402D2E918
:1005A000002302F059FDC5E90401A888C0F3C0008A
:1005B000401E8041C00F32BD10B5B24C8020C4F83F
:1005C00004010022082104F5947002F09DF904F55D
:1005D0008070BDE8104070B50546AC4C002020701E
:1005E000606016E094ED010AF7EE000A30EE200A92
:1005F00084ED010AD4ED030AF8EE600AB4EE600A55
:10060000F1EE10FA05DBA248DFF8301D016002F0C0
:1006100042F928680068006D8005E3D49C4E70683C
:10062000A060321D0221201D02F03AFE0020606011
:1006300015E094ED010AF7EE000A30EE200A84ED91
:10064000010AD4ED030AF8EE600AB4EE600AF1EE96
:1006500010FA04DB4FF08140306002F01CF928688A
:1006600001F05BFB0028E4D07068A060321D02211D
:10067000201D02F015FE05F12802291D286801F051
:100680009CFA002803D08348306002F004F92868FF
:100690000068006DC00406D5DFF8EC0C3060BDE8E2
:1006A000704002F0F8B870BD18B4764B00F5C06029
:1006B000C3F8040103F594704024047041700912DA
:1006C0008170C27003F5807012BC84E72DE9F84395
:1006D00007466E4C0020606046F2410802464146E3
:1006E0003846FFF7E1FF05E06948DFF8541C016078
:1006F00002F0D1F86348394610EB8115A5F13E06AA
:10070000207800281DD1B6F90000404519D094ED9D
:10071000010AF7EE000A30EE200A84ED010AD4ED5A
:10072000030AF8EE600AB4EE600AF1EE10FAE1DBBB
:10073000002241463846FFF7B7FFB6F900004045B2
:10074000D2D1DFF84C81D8F80400A06008F104028F
:100750000221201D02F0A4FD7088C0F3C000002813
:1007600042D046F23F09002249463846FFF79CFF37
:1007700005E0DFF8CC0BC8F8000002F08CF8207818
:10078000002803D0B6F90000484519D094ED010ABD
:10079000F7EE000A30EE200A84ED010AD4ED030AD8
:1007A000F8EE600AB4EE600AF1EE10FAE7DB002220
:1007B00049463846FFF778FFB6F900004845D8D1DA
:1007C000B07F001D052190FBF1F101EB8101401A82
:1007D00005EB400030F81E0C48F21011884203D19E
:1007E0003846BDE8F24339E0BDE8F18370B505460F
:1007F000264C0020606046F26406024631462846D8
:10080000FFF752FF15E094ED010AF7EE000A30EE13
:10081000200A84ED010AD4ED030AF8EE600AB4EE72
:10082000600AF1EE10FA04DB19481A49016002F07F
:1008300032F82078002807D11248294600EB8110B1
:1008400030F93E0CB042DED111484168A160021D72
:100850000221201DBDE8704002F022BD10B5044603
:100860008021FFF7C0FD2046FFF730FF07480078E2
:100870000028FBD010BD0000A40700200064004049
:100880004C100240000000206003002064030020A0
:100890009C0200200000A040580100205D8940F526
:1008A0000F22493FC00200202DE9F44F2DED0C8BA3
:1008B00006460C4610464078401E052800F2A482E9
:1008C000DFE810F006006900DC005301AE014202CF
:1008D00094ED009B9FED618B9FED62AB9FED63CB31
:1008E000DFF8685A9FED63BB53EC192B51EC1C0BDE
:1008F00002F0DCFA53EC192B02F0D8FA8046894654
:1009000053EC192B51EC1A0B02F0D0FA42464B462D
:1009100002F006FD53EC182B02F002FD53EC1B2BEA
:1009200002F0C4FA53EC192B02F0C0FADFF8182ACF
:10093000DFF8103A02F090FBC5E9180194ED029B34
:1009400053EC192B51EC1C0B02F0B0FA53EC192BA1
:1009500002F0ACFA8046894653EC192B51EC1A0B85
:1009600002F0A4FA42464B4602F0DAFC53EC182B94
:1009700002F0D6FC53EC1B2B02F098FA53EC192B27
:1009800002F094FADFF8C029DFF8B83902F064FB0E
:10099000C5E91A0138E294ED009B9FEDCF8B9FEDE6
:1009A000D0AB9FEDD1CBDFF8A4599FED32BB53EC18
:1009B000192B51EC1C0B02F079FA53EC192B02F0B5
:1009C00075FA8046894653EC192B51EC1A0B02F04C
:1009D0006DFA42464B4602F0A3FC53EC182B02F092
:1009E0009FFC53EC192B02F061FA53EC1B2B02F025
:1009F0005DFADFF85429DFF8843D02F02DFBC5E9EC
:100A0000180194ED029B53EC192B51EC1C0B02F0D6
:100A10004DFA53EC192B02F049FA8046894653EC03
:100A2000192B51EC1A0B02F041FA42464B4602F0E8
:100A300077FC53EC182B02F073FC53EC192B02F0EB
:100A400035FA53EC1B2B02F031FADFF8FC28DFF803
:100A50002C3D02F001FBC5E91A01D5E12ECA6C90CC
:100A600049C614C027DA5548F949D23FB8921D1B30
:100A70008178D73F0000000000408F40DFF8005D24
:100A8000D5E90A23D5E9080102F010FA8046894623
:100A9000D5E90623DFF8EC0CD0E9000102F006FAF4
:100AA00042464B4602F03CFC41EC180B94ED00AB87
:100AB0009FED8F9B9FED90BB9FED91CB9FED92DBC8
:100AC000DFF8885853EC1A2B51EC1D0B02F0EEF9AD
:100AD00053EC1A2B02F0EAF98046894653EC1A2BA4
:100AE00051EC1C0B02F0E2F942464B4602F018FCB6
:100AF00053EC1B2B02F014FC53EC182B02F0D6F92C
:100B000053EC1A2B02F0D2F953EC192B02F0CEF968
:100B1000C5E9080194ED02AB53EC1A2B51EC1D0B07
:100B200002F0C4F953EC1A2B02F0C0F98046894652
:100B300053EC1A2B51EC1C0B02F0B8F942464B4611
:100B400002F0EEFB53EC1B2B02F0EAFB53EC182BEC
:100B500002F0ACF953EC1A2B02F0A8F953EC192B64
:100B600002F0A4F9C5E90A014EE194ED009B9FED66
:100B7000688B9FED69AB9FED6ACBDFF8D0579FED97
:100B80006ABB53EC192B51EC1C0B02F08FF953ECA0
:100B9000192B02F08BF98046894653EC192B51EC46
:100BA0001A0B02F083F942464B4602F0B9FB53ECB4
:100BB000182B02F0B5FB53EC1B2B02F077F953EC2A
:100BC000192B02F073F981F00041C5E9080194ED99
:100BD000029B53EC192B51EC1C0B02F067F953EC00
:100BE000192B02F063F98046894653EC192B51EC1E
:100BF0001A0B02F05BF942464B4602F091FB53ECB4
:100C0000182B02F08DFB53EC1B2B02F04FF953EC29
:100C1000192B02F04BF981F00041C5E90A01F3E01C
:100C200094ED009B9FED428B9FED43AB9FED44CB3A
:100C3000DFF818579FED3CBB53EC192B51EC1C0B04
:100C400002F034F953EC192B02F030F98046894652
:100C500053EC192B51EC1A0B02F028F942464B4683
:100C600002F05EFB53EC182B02F05AFB53EC1B2BEB
:100C700002F01CF953EC192B02F018F981F0004135
:100C8000C5E9080194ED029B53EC192B51EC1C0BA8
:100C900002F00CF953EC192B02F008F98046894652
:100CA00053EC192B51EC1A0B02F000F942464B465B
:100CB00002F036FB53EC182B02F032FB53EC1B2BEB
:100CC00002F0F4F853EC192B02F0F0F881F0004137
:100CD000C5E90A0198E000BFC217265305E3124098
:100CE0005B423EE8D9ACDA3FF9A067B3EA73E1BFF3
:100CF00075931804564E20C0C364AA60544262C063
:100D00007FD93D7958A843403BDF4F8D976EFE3F1A
:100D10001B118C834BC711C0F6EFFACC599FF7BF5C
:100D20004E9D47C5FF1DEF3F0000000000408F4073
:100D30002FA3586E693511C01FF46C567DAEF1BFFC
:100D4000FB96395D1613E83FD4E9000102F018FC68
:100D500000EE100A02F048FCB0EE409ADFF8EC75A5
:100D60009FEDD28BDFF81C8ADFF8145AD5E90A23ED
:100D7000D5E9080102F09AF882468B46D5E90623A8
:100D8000D8E9000102F092F852465B4602F0C8FA38
:100D900082468B4619EE100A02F06CFC52465B4606
:100DA00002F084F853EC182B02F080F8C7E9080130
:100DB000D4E9020102F0E4FB00EE100A02F014FC98
:100DC000B0EE409AD5E90A23D5E9080102F06EF8A1
:100DD00082468B46D5E90623D8E9000102F066F881
:100DE00052465B4602F09CFA04460D4619EE100A84
:100DF00002F040FC22462B4602F058F853EC182B28
:100E000002F054F8C7E90A010C980078401E052842
:100E100000F28B82DFE810F006006900CC0066016A
:100E2000C401220296ED009B9FEDA28B9FEDA3AB28
:100E30009FEDA4CBDFF814459FED9CBB53EC192B21
:100E400051EC1C0B02F032F853EC192B02F02EF887
:100E50008046894653EC192B51EC1A0B02F026F808
:100E600042464B4602F05CFA53EC182B02F058FA5B
:100E700053EC1B2B02F01AF853EC192B02F016F866
:100E8000DFF80429DFF8043902F0E6F8C4E91401B8
:100E900096ED029B53EC192B51EC1C0B02F006F85B
:100EA00053EC192B02F002F806460F4653EC192BAF
:100EB00051EC1A0B01F0FAFF32463B4602F030FAD1
:100EC00053EC182B02F02CFA53EC1B2B01F0EEFF25
:100ED00053EC192B01F0EAFFDFF8AC28DFF8AC384F
:100EE00002F0BAF8C4E916011FE296ED009B9FEDEF
:100EF000778B9FED78AB9FED79CBDFF850449FED7A
:100F00006BBB53EC192B51EC1C0B01F0CFFF53ECD6
:100F1000192B01F0CBFF8046894653EC192B51EC7D
:100F20001A0B01F0C3FF42464B4602F0F9F953ECAD
:100F3000182B02F0F5F953EC192B01F0B7FF53EC25
:100F40001B2B01F0B3FFDFF84028DFF8403802F038
:100F500083F8C4E9140196ED029B53EC192B51EC74
:100F60001C0B01F0A3FF53EC192B01F09FFF064669
:100F70000F4653EC192B51EC1A0B01F097FF324638
:100F80003B4602F0CDF953EC182B02F0C9F953ECB3
:100F9000192B01F08BFF53EC1B2B01F087FFDFF8BF
:100FA000E827DFF8E83702F057F8C4E91601BCE19A
:100FB000DFF8CC47D4E90423D4E9020101F076FF3D
:100FC00080468946D4E90023DFF8B807D0E900015C
:100FD00001F06CFF42464B4602F0A2F941EC180BBF
:100FE00096ED00AB9FEDE99B9FEDEABB9FEDEBCB50
:100FF0009FEDD0DBD54C53EC1A2B51EC1D0B01F0BF
:1010000055FF53EC1A2B01F051FF8046894653ECF3
:101010001A2B51EC1C0B01F049FF42464B4602F0E3
:101020007FF953EC1B2B02F07BF953EC182B01F0EA
:101030003DFF53EC1A2B01F039FF53EC192B01F053
:1010400035FFD4E9082302F06BF9C4E9040196EDF9
:1010500002AB53EC1A2B51EC1D0B01F027FF53ECA4
:101060001A2B01F023FF06460F4653EC1A2B51ECC6
:101070001C0B01F01BFF32463B4602F051F953ECCA
:101080001B2B02F04DF953EC182B01F00FFF53EC22
:101090001A2B01F00BFF53EC192B01F007FFD4E9D9
:1010A0000A2302F03DF9C4E906013EE10000000018
:1010B00000408F4026AAB706B6BA25406DCA15DE95
:1010C000E522CEBF037D224F922EF3BFC05B2041AD
:1010D000F1432240643BDF4F8D97EABFB84082E284
:1010E000C798E1BF96ED009B9FED998B9FED9AAB62
:1010F0009FED9BCB954C9FEDA2BB53EC192B51EC74
:101100001C0B01F0D3FE53EC192B01F0CFFE8046EF
:10111000894653EC192B51EC1A0B01F0C7FE4246DD
:101120004B4602F0FDF853EC182B02F0F9F853ECA3
:101130001B2B01F0BBFE53EC192B01F0B7FED4E9D9
:10114000082302F0EDF8C4E9040196ED029B53EC8C
:10115000192B51EC1C0B01F0A9FE53EC192B01F0DB
:10116000A5FE06460F4653EC192B51EC1A0B01F065
:101170009DFE32463B4602F0D3F853EC182B02F0AA
:10118000CFF853EC1B2B01F091FE53EC192B01F01F
:101190008DFED4E90A2302F0C3F8C4E90601C4E0D5
:1011A00096ED009B9FED708B9FED71AB9FED72CB29
:1011B000664C9FED73BB53EC192B51EC1C0B01F0EB
:1011C00075FE53EC192B01F071FE8046894653ECF5
:1011D000192B51EC1A0B01F069FE42464B4602F006
:1011E0009FF853EC182B02F09BF853EC1B2B01F0EB
:1011F0005DFE53EC192B01F059FED4E9082302F0EF
:101200008FF8C4E9040196ED029B53EC192B51ECC5
:101210001C0B01F04BFE53EC192B01F047FE064668
:101220000F4653EC192B51EC1A0B01F03FFE3246DE
:101230003B4602F075F853EC182B02F071F853ECB2
:101240001B2B01F033FE53EC192B01F02FFED4E9D8
:101250000A2302F065F8C4E9060166E0D6E9000158
:1012600002F08EF900EE100A02F0BEF9B0EE409ADC
:10127000364C9FED438BDFF80C55DFF80475D7E94A
:101280000423D7E9020101F011FE80468946D7E91F
:101290000023D5E9000101F009FE42464B4602F069
:1012A0003FF88046894619EE100A02F0E3F94246FB
:1012B0004B4601F0FBFD53EC182B01F0F7FDD4E990
:1012C000082302F02DF8C4E90401D6E9020102F076
:1012D00057F900EE100A02F087F9B0EE409AD7E90C
:1012E0000423D7E9020101F0E1FD80468946D7E9F0
:1012F0000023D5E9000101F0D9FD42464B4602F03A
:101300000FF806460F4619EE100A02F0B3F93246FE
:101310003B4601F0CBFD53EC182B01F0C7FDD4E99F
:101320000A2301F0FDFFC4E90601BDEC0C8BBDE80A
:10133000F18F00BF11C7BAB88D8621C000004040B0
:101340000000A040A59018C08274B169700100200F
:10135000CA32C4B12EB6234099F04BFDBCA9B43FAC
:101360008481E7DEC325F3BF9D11A5BDC17723406E
:10137000C53D963E7441E7BF81423D7D047EE2BF9C
:101380000000000000408F400000C0403D7E6FD351
:101390009F2D3040AAF1D24D62504B4012A5BDC1E5
:1013A000172618402DE9F84F2DED108BDFF8FC942F
:1013B00099ED1C8BD9E90C0153EC182B02F06EF857
:1013C00041EC190BD9E90E2351EC180B01F0A8FFE1
:1013D00041EC1A0BD9E9100153EC182B02F05EF81E
:1013E00041EC1B0BD9E9122351EC180B01F098FFCB
:1013F00041EC1C0B99F80000DFF840B5DFF840A580
:10140000DFF84015097800290CD1002864D002F0DB
:1014100055F9AAF80000002089F80000012089F899
:10142000010059E0002809D102F048F9AAF80000AB
:10143000012089F80000002089F801009BED040BD1
:101440008AED060B9BED148B8AED088B0BF1900453
:1014500053EC102BD4E9000101F062FFCAE90A0144
:1014600053EC182BD4E9100101F05AFFCAE90C0122
:101470000AF140020AF128010AF11800FFF714FAF4
:1014800099F80000002827D002F018F9BAF80010E7
:10149000401AAAF80200B9F80640BAF80200B94D9D
:1014A000A04213D202F010F9DAE90E2301F0FEFC9B
:1014B00006460F46204602F007F902460B46304624
:1014C000394601F0C9FDC5E9000105E0DFF87804FF
:1014D000DFF87814C5E9000199F80100002832D03E
:1014E00002F0ECF8BAF80010401AAAF80200B9F8B5
:1014F00006406408BAF80200A04224D2A14D214659
:10150000081A01F0C1FCD5E9002301F0CFFC064622
:101510000F46204602F0D8F802460B4630463946C0
:1015200001F09AFD41EC100B85ED000BDFF8202453
:10153000DFF8203402F0D6F805D200200146C5E9D4
:10154000000189F801000026DFF8348272E099F882
:10155000010000286DD100200146C7E90401C7E958
:10156000080166E009EBC60798ED08DB854890EDB9
:1015700000EBD8E90A2351EC1D0B01F097FC04465F
:101580000D46D8E9062351EC1E0B01F08FFC2246D4
:101590002B4601F0C5FED7E9182301F087FC41EC8A
:1015A000180B87ED088B98ED00FBD8E90401D8E90A
:1015B000022301F07BFC04460D4653EC1F2B51EC3B
:1015C0001E0B01F073FC22462B4601F0A9FE0446D7
:1015D0000D4653EC1F2B51EC1D0B01F067FC22460E
:1015E0002B4601F09DFED7E9142301F05FFC53EC7C
:1015F000182B01F095FE41EC1D0B87ED04DB99F8EB
:1016000000000028A3D09AED04EB51EC1E0B53EC24
:10161000182B02F081F801D887ED08EB9AED028BC8
:1016200051EC180B53EC1D2B02F076F801D887ED26
:10163000048B761C012E95DD80214FF0904001F047
:1016400083FBDFF81413087000285AD10BF19004C3
:10165000D4E9000153EC192B02F05EF804D8002005
:101660000146C9E9080109E0D9E90823DFF8EC02DD
:10167000D0E9040101F01AFCC9E90801DBE9040121
:1016800053EC1B2B02F048F804D800200146C9E9AE
:10169000040109E0D9E90423DFF8C002D0E9000120
:1016A00001F004FCC9E9040151EC1A0BD4E9102340
:1016B00002F032F804D800200146C9E90A0109E025
:1016C000D9E90A23DFF89402D0E9060101F0EEFB24
:1016D000C9E90A0151EC1C0BDBE9142302F01CF8E8
:1016E00004D800200146C9E9060117E0D9E906231C
:1016F000DFF86802D0E9020101F0D8FBC9E9060170
:101700000CE000200246034606E009F1100101EB5F
:10171000C001C1E90023401C0428F6DB002426E0B8
:1017200009F1100000EBC400D0E90001DFF830221D
:1017300002EBC402D2E9002301F08EFCDFF8242280
:10174000D2E9002301F088FC0022DFF81C3201F00E
:10175000ADFBDFF81C2202EBC402D2E9002301F04A
:10176000A5FB01F0F3FF0BEB84114883641C042CF0
:10177000D6DBBDEC108BBDE8F18F0000A5901840C2
:1017800000030020B0020020EA5BE674590C2540FB
:101790001CB501247FE00820009000230121204691
:1017A000C0B2FEF7ACFD0020009003464FF4B052EB
:1017B00001212046C0B2FEF7A2FD6E480090012331
:1017C0004FF4B05204212046C0B2FEF798FD01202C
:1017D000009000234FF4B05201462046C0B2FEF7FD
:1017E0008EFD40F6C4100090002346F265020421ED
:1017F0002046C0B2FEF783FD642001F0C3FF34E051
:101800002046C0B2FEF762FF46F260025A4820440A
:1018100010F8010C0028BED00A20009000230121FE
:101820002046C0B2FEF76BFD0020009003464FF447
:10183000B05201212046C0B2FEF761FD4F48009032
:1018400001234FF4B05204212046C0B2FEF757FDE9
:101850000120009000234FF4B05201462046C0B250
:10186000FEF74DFD642001F08DFF4AF2BC40009070
:10187000052343F2010204212046C0B2FEF73FFDDA
:101880003A4800221346C0E9002311462046C0B260
:10189000FEF7A9FD641C052CB2DB642001F072FF89
:1018A0008020BDE81640FEF789BD000070010020D1
:1018B00030B4224A91880B46C3F3C000002814D1EB
:1018C000B2F844402046C0F3C00000280DD1B2F861
:1018D00084502846C0F3C000002806D1B2F8C420C6
:1018E0001046C0F3C000002801D0002023E0A14230
:1018F00009D1A94207D1914205D1AC4203D194420A
:1019000001D1954201D0012015E00846400A01D1DD
:10191000022010E0C3F38010002801D003200AE069
:1019200001F00500052801D1052004E0C80701D514
:10193000042000E0062030BC7047000000000020BA
:10194000F00100203103002005A3923A019D3340AD
:101950009A9999999999B93F450200205802002017
:10196000C0020020B802002000408F40B0020020DA
:10197000E002002020007A60600300201000716007
:1019800070B5040001D1012070BD04F15C05287818
:10199000002804D1002068702046FEF75BFC206818
:1019A000816921F01001816101F088FE06462068FE
:1019B000816909070CD501F081FE801B0B28F6D345
:1019C000686840F00100686003202870012070BD45
:1019D000816941F00101816101F070FE06462068D5
:1019E0008169C9070CD401F069FE801B0B28F6D36E
:1019F000686840F00100686003202870012070BD15
:101A0000816941F00201816120684949884202D11F
:101A10006068484908602068217C0129816903D1F8
:101A200021F04001816102E041F0400181612068C4
:101A3000617C0129816903D141F48041816102E027
:101A400021F4804181612068A17C0129816903D151
:101A500021F48051816102E041F48051816121686B
:101A60008A6922F44072A06802438A612068816911
:101A700021F0A40181612068016921F01001016158
:101A8000E068012805D12068816941F00401816185
:101A900019E0002817D021680228886910D040F08A
:101AA000800088612068016941F010010161E068EF
:101AB000032808D12068816941F02001816102E09A
:101AC00040F020008861A069401EE169491E0902BA
:101AD00041EA4061206A401E01436069401E41EABC
:101AE00000412068C161A068B0F5407F0FD1A06AB5
:101AF000401EE16A491E40EA0120216B491E40EA6E
:101B00000110616A491E40EA01402168C8602168ED
:101B1000D1F8C020E06B0243C1F8C020204600F09D
:101B20003FFA0020A065686001202870002070BD89
:101B3000006400400065004070B400F15C0213785E
:101B4000012B01D0022B1CD18A6892074B684C698B
:101B50000D69CE680968002909D142EAC66242EAE5
:101B600005422243006C00EB8300026007E0224341
:101B7000406C00EBC30045EA4675056042600020FA
:101B800004E0506840F002005060012070BC7047D3
:101B900000F15C010A78012A09D102220A7000686A
:101BA000826952085200826100204860704748688C
:101BB00040F0040048600120704738B5044604F145
:101BC0005C000378022B1BD12368D3F8C450AD020C
:101BD00005D5416841F400714160012032BDD3F860
:101BE000C400C0F301452B46204600F013FA012043
:101BF00000FA05F52068C0F8CC50A565002032BD7C
:101C0000416841F008014160012032BDF0B400F1AB
:101C10005C042578022D6DD105689035402912D1DC
:101C20002E6816F00F0F05D1606840F48070606078
:101C3000012064E02C68C4F30125866C05EBC50423
:101C400006EBC40611E0AE6816F00F0F05D1606810
:101C500040F480706060012051E0AC68C4F301255D
:101C6000C66C05EBC50406EBC406346814F080446A
:101C70005460376803D1C7F38A44146002E027F048
:101C800060471760346804F00054946056F8044BC1
:101C900004F0004414613468A4B2D461346804F4DC
:101CA0007024D460346804F480145461346804F4FB
:101CB000001494613468C4F30664146256F8044B4B
:101CC000E40F5462002402E0375D1F55641C0FF2DC
:101CD000B437D2F80CC04FEA1C4C17F80C70BC4259
:101CE000F2D300689430402901D1056000E085609E
:101CF000002004E0606840F0080060600120F0BC53
:101D0000704700689030402903D1006800F00F0050
:101D10007047806800F00F0070470068D0F8C4007A
:101D200000F00700704730B400F15C031C78012C10
:101D300001D0022C66D10468A36D11F0070F01D009
:101D4000DD071DD511F0380F01D09D0718D511F40E
:101D5000E07F01D05D0713D511F4F05F01D01D07BE
:101D60000ED511F4604F01D0DD0609D511F4403FC6
:101D700001D09D0604D511F47C0F05D05D0603D477
:101D8000E56D45F00105E56511F0070F01D0DC07B1
:101D90001DD411F0380F01D09C0718D411F4E07F46
:101DA00001D05C0713D411F4F05F01D01C070ED4EE
:101DB00011F4604F01D0DC0609D411F4403F01D08A
:101DC0009C0604D411F47C0F06D05B0604D503688E
:101DD000DC6D44F00204DC650B0605D50368D3F81E
:101DE000DC401443C3F8DC40CB0505D50368D3F8C9
:101DF000E0402243C3F8E0200068426D1143416592
:101E0000002004E0586840F002005860012030BC17
:101E100070472DE9F8438146D9F800100C6D04F4A1
:101E2000E054486D04400D6D05F00705486D054010
:101E30000E6D06F03806486D0640D1F8508008F463
:101E40007108486D00EA08080F6D07F46027486DB7
:101E50000740086D400607D5486D400604D5402070
:101E60000865484601F0A2FCD9F80020106DC005B5
:101E70000DD5506DC0050AD502F1D8000168806803
:101E800001404FF480701065484601F090FC002C32
:101E900006D0D9F8000004652146484601F088FCC8
:101EA000002D06D0D9F8000005652946484600F007
:101EB0002FFC002E06D0D9F80000066531464846B2
:101EC00001F077FCD9F80000016D890508D5416D56
:101ED000890505D54FF400710165484600F013FCF3
:101EE000D9F80020106D00060CD5506D000609D5FC
:101EF00002F1D400016880680140802010654846E6
:101F000001F058FCD9F80000016D890408D5416D35
:101F1000890405D54FF400510165484601F04BFC9A
:101F2000D9F80000016D090408D5416D090405D5F3
:101F30004FF400410165484601F03EFCD9F800002D
:101F4000016D49040BD5416D490408D54FF480411A
:101F50000165D9F8600040F08000C9F86000002FEA
:101F600006D0D9F8000007653946484601F025FC3F
:101F7000B8F1000F09D0D9F80000C0F85080D9F8A6
:101F8000600048EA0008C9F86080D9F860000028BD
:101F900004D04846BDE8F24301F010BCBDE8F1832F
:101FA00010B4154901640268D2F8803023F4F813A4
:101FB000446B43EA0443C2F88030104A426402682A
:101FC000D2F8803023F07063846B43EA0463C2F874
:101FD00080300B4A82640B4AC2640B4A02650B4A8A
:101FE000426502E000200860091D09488142F9D3DA
:101FF00010BC70470000000000A4004070A4004026
:10200000B0A4004088A5004060A6004078A600402B
:1020100050A7004070B40D698C6825430E684C6869
:10202000002C02D145EA864502E0354345F0804563
:102030000C6ACE6946EA04668C6926434C692643DD
:10204000CC682643406D03EBC30400EBC40005607D
:102050004660083000230DE0D418E578A6783604F1
:1020600046EA0566657846EA05262478264340F860
:10207000046B1B1D03A4CD682D0C645DA342EBD340
:1020800070BC70470001020304050607080C101419
:102090001820304080B501F093FB00F012F801F0F9
:1020A000ABFB01F0EFFBFEF797F801F013FC00F03B
:1020B00043F882A1DFF8080801F005FD00F020FADE
:1020C000FCE700B593B00022382105A800F01CFC05
:1020D00000221421684600F017FC002001F068FD82
:1020E000012005904FF48030069002200C900320D0
:1020F0000D9006200E9055200F9002201090119008
:10210000129005A801F0CCFD002801D000F0C3FB1F
:102110000F20009003200190002002900390049073
:102120000421684601F0A8FF002801D000F0B3FBAD
:1021300002F0C0F813B000BD10B572B6DFF88047EA
:102140002046D4F8A810884720680068816841F0CC
:10215000010181604FF480722169206802F087F9E3
:10216000002801D000F097FBDFF858472068FFF700
:102170000FFD002801D000F08EFB0022A16E206828
:10218000FFF7D1FD002801D000F085FB07224FF4B6
:102190002071DFF83407FFF7C6FD002801D000F0FA
:1021A0007AFB0020A060E0604FF400202061002056
:1021B0006061A061E0612062606262B6FFF7E8FAE8
:1021C00000200AE001EB80118988402904D0DFF863
:1021D000FC16DFF8FC264A66401CDFF8F8160428D7
:1021E000F0DB91F82000401D052290FBF2F202EB9B
:1021F0008202801A01EB40000121418480214FF0CE
:10220000904000F0A1FDDFF8C416487310BD70B512
:102210002DED028B0446002515E006EBC5060021D6
:1022200004EB8500806E03F017F810EE100A01F041
:1022300021FAC6E902010022DFF89C3600F00CFF0B
:10224000C6E902016D1CDFF89466042DE5DB96ED0E
:102250000A8BDFF88C56D6E9022351EC180B00F0FC
:1022600025FEC5E90001D6E9042351EC180B00F066
:102270001DFEC5E90201D6E9062351EC180B00F05A
:1022800015FEC5E90601D6E9082351EC180B00F04C
:102290000DFEC5E90801A06F03F08EF8401E8041D5
:1022A000C043C00F3070E06F03F086F8401E8041DD
:1022B000C043C00F7070BDEC028B70BD733B00005B
:1022C00070B52DED028BDFF80446206F401C2067AF
:1022D000E06E401CE066FFF7EBFA6075607D002859
:1022E00004D1802060740020A07401E1022800F075
:1022F000FF80E06EA17D884206D300202075E07447
:10230000FEF75AF90020E066207D042840F0F080B6
:10231000E07C062840F0E680E07A002800F0D380D8
:10232000DFF8B855D5E906230020014603F04AF846
:1023300004D1D5E9082303F045F866D0DFF8A055AD
:10234000DFF89065D6E90423D5E9020100F0E8FF43
:10235000C6E90401D6E91401D5E9082301F09EF885
:10236000C6E914019FED648BD5E9002351EC180BED
:1023700000F0D6FF01F004F900EE100A03F032F885
:1023800010EE100A01F076F9C4E90801D5E900233E
:1023900051EC180B00F0C4FF01F0F2F800EE100A47
:1023A00003F020F810EE100A01F064F9C4E90C0102
:1023B000D5E9062351EC180B00F0B2FF01F0E0F86C
:1023C00000EE100A03F00EF810EE100A01F052F9B8
:1023D000C4E90A01D5E9062351EC180B00F0A0FF6F
:1023E00001F0CEF800EE100A02F0FCFF10EE100A29
:1023F00001F040F9C4E90E0195ED060B84ED100BD8
:1024000095ED080B84ED120B5DE0DFF8D454DFF896
:10241000C464D6E90401D5E9022301F03FF8C6E916
:102420000401D6E91423D4E9120100F079FFC6E9CA
:1024300014019FED318BD5E9002351EC180B00F00E
:102440006FFF01F09DF800EE100A02F0CBFF10EED6
:10245000100A01F00FF9C4E90801D5E9002351EC95
:10246000180B00F05DFF01F08BF800EE100A02F08F
:10247000B9FF10EE100A01F0FDF8C4E90C01D4E92F
:10248000102351EC180B00F04BFF01F079F800EE2F
:10249000100A02F0A7FF10EE100A01F0EBF8C4E9F1
:1024A0000A01D4E9102351EC180B00F039FF01F0B8
:1024B00067F800EE100A02F095FF10EE100A01F026
:1024C000D9F8C4E90E01FEF76DFF012504E02846A6
:1024D000C0B2FDF74CFF6D1C052DF8DB0020207508
:1024E000E07405E04FF07E50606600202075E074D7
:1024F000BDEC028B70BD000000000060FB21F9BF45
:102500002DE9F04188B0DFF8C44301F0D7F8E06569
:10251000DFF8AC532846D5F8AC108847206F322836
:1025200004D3012060700020206701E0002060706B
:102530006078002853D0DFF89C0300F1C40191F8C3
:102540001CE00EF1040E00F18402137F1B1D00F14C
:102550004406377F3F1D90F820C00CF1040C4FF06B
:1025600005089EFBF8F808EB8808AEEB080E00EBB8
:102570004E0EBEF8E2E0CDF81CE04FF0050E93FBE6
:10258000FEFE0EEB8E0EA3EB0E0300EB4303B3F83F
:10259000A2300693052397FBF3F303EB8303FF1AA3
:1025A00000EB4703B3F86230059305239CFBF3F37C
:1025B00003EB8303ACEB030C00EB4C035B8C049349
:1025C00009880391118802913188019180880090D7
:1025D000A37C627C0FF21031E86802F04BFFE078D8
:1025E000002806D0607CFDF7E9FE0020E0700120A5
:1025F0006071207900280BD0012505E0A17C2846D8
:10260000C0B2FDF7F0FE6D1C052DF7DB0020207138
:10261000A07800280BD0012505E00B212846C0B288
:10262000FDF7E1FE6D1C052DF7DB0020A070E079C1
:1026300000280AD0012504E02846C0B2FEF7D6F8EB
:102640006D1C052DF8DB0020E071207A00280CD0ED
:10265000012504E02846C0B2FEF700F96D1C052DE7
:10266000F8DB0020207201206071A079002819D0C9
:102670000126984D09E03046C0B2FEF7B7F805EBE9
:102680008610383801684162761C052EF3DB05F1AF
:102690004400806A606505F1C400806A6438A06502
:1026A0000020A071607A002808D0628BD2B2B4F901
:1026B0005010E07BFDF7F8FF00206072A07A002840
:1026C0000BD0206E0090638BDBB2B4F95020217CDC
:1026D000E07BFDF714FE0020A072607900280AD08C
:1026E000012504E02846C0B2FDF7F0FF6D1C052D62
:1026F000F8DB0020607100F0E1FFE16D401AA0738B
:1027000008B0BDE8F08177480178491C0170704736
:1027100070B50268136D5B0701D504231365694D1D
:102720002C680068226890424CD1A86E014249D0C2
:10273000664E05F1580305F13002696E2046FFF739
:1027400065FA002805D04FF08040706600F0A3F8CD
:1027500028E0286B00F07F01491E317000F4F06022
:102760003083B0F5C07F09D0B0F5B06F1AD1C9B2CF
:10277000584800EB8110426B904713E0307D401CBD
:102780003075F07C0818F074C9B2524800EB811023
:10279000826B9047012805D00120B07080207074B2
:1027A0000120F07040214848FFF7ABFA022809D316
:1027B00005F1580305F13002696E2868FFF726FA23
:1027C0000028F5D170BD7BE510B50446B0F5007F5B
:1027D00016D14FF400714FF0904000F0B5FA002888
:1027E0000ED13A4CFFF764F86075607D022802D183
:1027F0000120607401E0802060740120E07010BD51
:10280000B4F5806F33D14FF480614FF0904000F009
:102810009BFA00282BD12D4CE07D002810D10120FF
:10282000A071E0752B4890F82010052291FBF2F280
:1028300002EB8202891A00EB41000021418410BDA5
:10284000FFF736F86075607D032802D10620A0747A
:102850000BE0042802D10F20A07406E0052802D165
:102860000020A07401E00020A0740120207110BDA0
:1028700010B5134C0121204601F034F91C202168C9
:10288000096808621148016F491C01672068BDE8AA
:10289000104001F019BE38B50C4C01202073802087
:1028A00060740620A074012505E0A17C2846C0B212
:1028B000FDF799FD6D1C052DF7DB72B6FEE70000F4
:1028C0007403002000010020A4070020380200202B
:1028D0000000C040000000200000594030030020EC
:1028E00010080020A80800200A25642C25642C2547
:1028F000642C25642C25642C25642C25642C2564EB
:102900002C25642C25640D0062F30F2262F31F4214
:1029100000B500BF130096469446103928BFA0E8C2
:102920000C50FAD85FEA417C28BF0CC048BF40F881
:10293000042BC90728BF20F8022B48BF00F8012B41
:1029400000BD0268531C0360117070472DE9FC47FD
:10295000054600242646DFF850722868000369D532
:10296000A046F86CC0000AD4F86C40F08050F864BF
:10297000F86C00F08050009000984FF00108DFF8EC
:102980002C92D9F8000040F48070C9F8000000F0E3
:1029900095FE8246D9F80000C00506D400F08EFEF0
:1029A000A0EB0A000328F5D3032420003AD1DFF876
:1029B0000092D9F8000010F4407014D0296C8842BD
:1029C00011D0D9F8000020F44070D9F8001041F47B
:1029D0008031C9F80010D9F8001021F48031C9F80D
:1029E0000010C9F80000C0070FD500F067FE82464E
:1029F000D9F80000800708D400F060FEA0EB0A00C0
:102A000041F289318842F3D30324200008D1D9F858
:102A1000001021F44071286C0143C9F8001002E055
:102A2000264600E02646B8F1010F03D1F86C20F0ED
:102A30008050F8642878C00705D5F96F8908686860
:102A400050EA8101F9672878800705D5F96F21F0F0
:102A50000C01A8680143F9672878400705D5F96F8C
:102A600021F03001E8680143F9672878000705D5AF
:102A7000F96F21F0C00128690143F96728788006C1
:102A800005D5F96F21F4406168690143F967287839
:102A9000400605D5F96F21F44051A8690143F96753
:102AA0002878000605D5F96F21F44041E869014313
:102AB000F9672868C00505D5F96F21F44031286A07
:102AC0000143F9672868800505D5F96F21F4402195
:102AD000686A0143F967286840050DD5F96F21F44C
:102AE0004011A86A0143F967A86AB0F5801F03D1B5
:102AF000386840F480103860286800050DD5F96FFB
:102B000021F44001E86A0143F967E86AB0F5800FF3
:102B100003D1386840F4801038602868C0040DD5AF
:102B2000F96F21F04071286B0143F967286BB0F110
:102B3000807F03D1386840F48010386028688004B2
:102B40000DD5F96F21F04061686B0143F967686B3F
:102B5000B0F1006F03D1386840F480103860286805
:102B600040040DD5F96F21F04061A86B0143F9676E
:102B7000A86BB0F1006F03D1386840F48010386062
:102B8000286800040DD5F96F21F04051E86B01432E
:102B9000F967E86BB0F1805F03D1386840F48030AA
:102BA00038603046BDE8F6870C10024000700040E7
:102BB00090100240F8B502460B4600242DE04FF07D
:102BC000060C05E0DFF8A4C16245F8D14FF0050C12
:102BD0000CFA06FC4CEA070C45F821C064498E68E3
:102BE000C5432E405F68FF0200D506438E60CE6865
:102BF0002E405F68BF0200D50643CE604E682E406F
:102C00005F68BF0300D506434E600E682E405D68C6
:102C1000ED0300D506430E60641C18680146E140D0
:102C200000F091800127A7403840F5D061000325CE
:102C30008D40ED435E6806F0030CBCF1010F03D03C
:102C400006F00306022E10D196682E40D3F80CC071
:102C50000CFA01FC4CEA060696605668BE435F68B3
:102C6000C7F30017A7403E4356601E7906F00306DF
:102C7000032E05D0D6682E409F688F403E43D66015
:102C80001E7906F00306022E15D12646F60802EB41
:102C900086073E6A4FEA840C0CF01C0C4FF00F0EB6
:102CA0000EFA0CFE26EA0E06D3F810E00EFA0CFC23
:102CB0004CEA06063E6216682E401D7905F00305B3
:102CC00005FA01F10E431660596811F4403FA3D094
:102CD00028490D6845F001050D60096801F0010102
:102CE0000091009921468908234D55F82170A600CE
:102CF00006F00C064FF00F0C0CFA06FC27EA0C0746
:102D0000B2F1904F02D14FF0000C61E7DFF86CC0D8
:102D1000624502D14FF0010C5AE7DFF864C062450A
:102D200002D14FF0020C53E7DFF858C0624502D1E0
:102D30004FF0030C4CE7DFF850C062457FF442AF20
:102D40004FF0040C44E7F1BD006901400846401E05
:102D50008041C043C00F704701460C4A13680B42C4
:102D600002D01160FFF730BD70470000001400482A
:102D700000040140601002400800014000040048C7
:102D800000080048000C00480010004814040140EE
:102D9000374A13684FF6FF010B40000200F4E06071
:102DA0001843344908431060704731480068C0F345
:102DB00002207047010007D4012200F01F018A4061
:102DC0002D49400941F8202070470901020002D432
:102DD0002A48815470472A4802F00F02104400F834
:102DE000041C704710B400F00700C0F10703052B66
:102DF00000D30423041D072C01D2002000E0C01ED4
:102E0000012404FA03F35B1E1940814004FA00F028
:102E1000401E1040084310BC704738B50446641E7D
:102E2000B4F1807F0AD2174D6C600F214FF0FF3054
:102E3000FFF7CBFF0020A86007202860B4F1807F57
:102E40008041C043C00F32BDA2E770B504460D46B5
:102E50001646FFF7AAFF32462946FFF7C3FF014691
:102E60002046BDE87040B0E7A4E7D6E7FFF7ABBC6B
:102E70000CED00E00000FA0500E100E000E400E0F5
:102E800018ED00E010E000E010F0004160B148BF34
:102E90004042B0FA80F29040D21CC2F5846241EA0E
:102EA000025202EBD021400570472E0030B540F2AF
:102EB000FF7C1CEA11541DBF1CEA1355644565458F
:102EC0003FE0641981EA030C6FF35F530CF0004C90
:102ED00043F48013C90241F0004141EA505EC5024B
:102EE0001100A5FB020200284FF00000EEFB0120BC
:102EF0004FF00001E3FB052118BF42F0010240182A
:102F000000214941E3FB0E01A4F580640D0302D2C8
:102F100092184041494154F1010470DD450872F1B5
:102F2000004250F1000051EB0451A1F5801102D490
:102F300041EA0C0130BD40F2FF7E4CEA0E51002008
:102F400030BD0CEA1355644518BF654581EA030C92
:102F50000CF0004C41D050EA410E1CBF52EA430E27
:102F600002E06146002030BD24422C441BD15FEAC0
:102F7000050EF6D0090302BF01460020AEF1140E83
:102F8000B1FA81F5AEEB050401FA05FE0C35C5F189
:102F9000200100FA05F5C8404EEA000E6FF35F53BA
:102FA00043F480139CE733F00043B3FA83F504BF86
:102FB000B2FA82FE75440B3D641BB5F1200E2FBFA3
:102FC00002FA0EF3AB40C5F1200E22FA0EFE38BF16
:102FD00043EA0E03AA40641C7CE750EA410E14BF8A
:102FE00052EA430E6FF000014FF4001515EB430F4A
:102FF0008EBF194615EB410F9DE7B4D830BDD4F113
:103000000104B4F120050FDAC4F12005520828BFED
:1030100042F0010210FA05FE01FA05F57244E2BF22
:10302000E0402843E1400FE0352C9ADCC5F1200454
:1030300052EA400220FA05F218BF42F0010231FACA
:1030400005F0A1400A43002172F1004250F1000056
:1030500051EB0C0130BD4300F0B540F2FF7581EA41
:10306000030C0CF0004C15EA11541DBF15EA135760
:10307000AC42AF42E5E0BC41C1F31301C3F313031B
:10308000801A994143F4801304D2641E0018494108
:1030900080185941C90241EA5051B1FBF3F603FBD4
:1030A0001611A2FB0675D7EBC020A94102D2761EED
:1030B00080185941C90241EA5051B1FBF3FE03FBAC
:1030C0001E11A2FB0E75D7EBC020A94103D2AEF1B1
:1030D000010E80185941890241EA9051760546EA6D
:1030E0008E2EB1FBF3F603FB1611A2FB0675D7EB90
:1030F0008020A94102D2761E80185941C90241EAB6
:1031000050514EEA060EB1FBF3F603FB1611A2FB7B
:103110000675D7EBC020A94102D2761E801859410E
:10312000C90241EA5051B1FBF3F703FB1711A2FBAF
:103130000735D3EBC020A94167F100070CBF00425F
:1031400047F0010766F3D5274FEA1E31B80814F59A
:10315000806412DDBD0775F1004250EB0E5051EB5B
:10316000045111F5801F5CBF41EA0C01F0BD4CF029
:103170007F6141F0E0410020F0BDBD076D0840EAED
:103180000E5041F48011D4F10104B4F120060ADAA2
:10319000C4F120060200E04001FA06F3E1401843C2
:1031A000B24015430EE0342C13DCC6F1200445EA8E
:1031B00040056D0820FA06F2154321FA06F0A140F9
:1031C0000D43002175F1004250F1000051EB0C015C
:1031D000F0BD00205FEA0C01F0BDCFB992185B4151
:1031E000B3FA83F704BFB2FA82F6BF190B3FB7F107
:1031F00020062FBF02FA06F3BB40C7F1200622FAD1
:1032000006F638BF3343BA401CB1E419641E33E7F5
:103210007F4231F00041B1FA81F404BFB0FA80F688
:10322000A4190B3CB4F120062FBF00FA06F1A1400F
:10323000C4F1200620FA06F638BF3143A0403C1BFB
:103240001AE7AC421ABF05EA1357AF4212E050EA40
:1032500041061CBF52EA4306BFE750EA4107304629
:1032600061461CBF41EA0551F0BD52EA430C08BF5C
:10327000C143F0BD00204FF4001616EB410F98BF7C
:1032800016EB430F08BF16EB410F24BFC14305E007
:1032900016EB430F0CBF61464CEA0551F0BD000030
:1032A0009FED1E0AB9B311F003030BD0D0ED000A55
:1032B000001DB4EE600AF1EE10FA48BFB0EE600AED
:1032C0005B1EF3D1890826D0D0ED000AB4EE600A67
:1032D000F1EE10FA48BFB0EE600A90ED011AB4EEBC
:1032E000410AF1EE10FA48BFB0EE410AD0ED020AF1
:1032F000B4EE600AF1EE10FA48BFB0EE600A90ED4D
:10330000031A1030B4EE410AF1EE10FA48BFB0EEE5
:10331000410A491ED8D182ED000A7047FFFF7FFFA6
:1033200070B491EA030F4FF0004540F1BF806B404D
:10333000841A71EB030604D26E40001BB1411219CE
:1033400073414FF4001C1CEB410F34BF7CEB430670
:1033500083E00C0DA4EB1356362E00F37C80012E77
:1033600045EAC32341DC43EA525312BFD202920220
:103370005B08240545EAC12141EA5051D2EBC02047
:10338000994125D407D1B0FA80F610FA06F162D03F
:103390000020203608E0B1FA81F6B140C6F12002E3
:1033A00020FA02F21143B0404FEAF474B4EB4654F1
:1033B00034F001064FEA74040AD8D6F50016760DEB
:1033C00004F00044F04061FA06F25040F1404840F9
:1033D000C00A40EA415021F0004128BF5FEA500591
:1033E00050F1000044EBD12135E0DB0A45EAC12170
:1033F000C90AB6F120050EDD42EA0242120CC5F1FF
:10340000200603FA06F6EB4042EA06056D429841B3
:1034100061F100010DE062FA06F5F240554063FAF1
:1034200006FC82EA0C02F3405A406D42904161EB87
:10343000030111F4801F05D1641E620502D06D00E6
:103440004041494121F48011430875F1004350F196
:10345000000041EB045170BC70471CEB410F15D2CA
:1034600023F0004352EA43060BD04FEA4C0CBCEB6E
:10347000410F04D80C0D661E342EB7DDEBE7801A21
:10348000994150EA410608BF0021E4E708BF1CEB60
:10349000430F28BF6FF00001DDE7000070B491EA30
:1034A000030F4FF000457FF543AF6B40841A71EB7B
:1034B000030603D2001BB141121973414FF4001CE3
:1034C0001CEB410F34BF7CEB430442E00C0DA4EB3A
:1034D0001356352E4FDC45EAC323DB0A45EAC121EA
:1034E000C912B6F120050DDD63FA05F6EB4086EA58
:1034F0000305124218BF45F00105C01851F1000143
:103500000CD213E062FA06F5F2405540F3415A40FE
:10351000B340F3405A408018594107D349085FEA45
:1035200030005FEA350528BF45F0010501F580113F
:10353000420875F1004250F1000041EB04514E0089
:1035400016F5001F70BC38BF70470020090D090533
:1035500070471CEB410F10D252EA43060BD0BCEB74
:10356000410F05D80C0DAB43661E342EB6DD02E0CC
:10357000AB438018594170BC704770BC7047000065
:1035800001F000428B1AA3F16051B1F5801F0ADBF4
:10359000B1F17F6F1FD242EAC102C10071F1004157
:1035A00042EB507070470B15C3F10903212B10D269
:1035B000890241EA905180020128494141F00041CD
:1035C00021FA03F0C3F12003994071F10041504109
:1035D0007047100070476FF0000013EB103F5CBFA6
:1035E000000E42EAC0507047DFED1E0A20EE200AAE
:1035F000FDEEC00AB5EE400A10EE900AF1EE10FAA8
:1036000048BF401E00EE900AF8EEE00A30EE600A75
:10361000DFED150A20EE200AFDEEC00A10EE900A3A
:1036200080B2B0F5007F04DBDFED100A002030EE41
:10363000200A014600EE901AF8EE600A0C4970EE7E
:10364000600A01EB8002B7EE000A01EB800030EE69
:10365000600A92ED001AD0ED011A20EE010A00EE88
:10366000A10A704783F9223E00000044000000C414
:10367000B0760008C0F3C75181B1FF2906D0C11050
:10368000400721F0E04101F16051704741020CBF59
:1036900040F4E0016FF000410020704700F000416D
:1036A00000020AD0B0FA80FC00FA0CF001F160517F
:1036B000A1EB0C5101EBD021400570470148006897
:1036C000704700BF2404002050B1B0FA80F1884058
:1036D000C91CC1F58461090501EBD0214005704783
:1036E0000146704741EA030C50EA4C0C52EA0C0CBC
:1036F0004FF4001C09D307D01CEB410F9CBF1CEBFF
:10370000430F8B4208BF824270471CEB430FFBD82C
:10371000994208BF9042704741EA030C50EA4C0CB2
:1037200052EA0C0C4FF4001C09D307D01CEB410FDC
:103730009CBF1CEB430F994208BF904270471CEBA3
:10374000410FFBD88B4208BF82427047C1F30A5336
:1037500040F21E42D31A0CDDCA0283F3070342EA89
:10376000505242F00042DA4002EBE17282EAE1702C
:1037700070476FEAE17203F2E13008B182F0004075
:103780007047000038B50446FFF798FF054614F16E
:10379000010F02D0044880680419FFF78FFF401B17
:1037A000A042FAD331BD00BF240400207047704707
:1037B0007047704770477047704770477047000008
:1037C00010B500240B48016821F480610160016894
:1037D00041F4807101600320FFF736FB204601F0C1
:1037E00069FE002801D0012401E001F08BFE204693
:1037F00010BD00000020024080B586B000221421D8
:1038000001A8FFF781F81E48016841F0200101601E
:10381000016801F0200100910099016841F0010167
:103820000160006800F00100009000988020019085
:10383000002002900120039001A94FF09040FFF773
:10384000B9F94FF4C06001904FF4041002900120C8
:10385000039001A94FF09040FFF7ACF9002203213B
:103860001720FFF7F2FA1720FFF7FEFA00220321D4
:103870002820FFF7EAFA2820FFF7F6FA07B000BD84
:103880004C10024080B51248016841F0040101600B
:10389000016801F0040100910099016841F0010103
:1038A0000160006800F001000090009800220221F1
:1038B0000B20FFF7CAFA0B20FFF7D6FA00220221ED
:1038C0000C20FFF7C2FA0C20BDE80240FFF7CCBA8B
:1038D0004810024010B5614C614820604FF4E1206F
:1038E00060600020A060E06020610C20606100202A
:1038F000A061E06120626062A062204600F02EFDBF
:10390000002801D0FEF7C7FF0021204601F04CFE41
:10391000002801D0FEF7BFFF4FF02061204601F0E4
:1039200066FE002801D0FEF7B6FF204601F01CFE1F
:10393000002803D0BDE81040FEF7ADBF10BD78B53C
:1039400097B00446002214216846FEF7DDFF0022EE
:10395000442106A8FEF7D8FF2068414988427BD160
:10396000022006900020089006A8FEF7EFFF00282E
:1039700001D0FEF790FF3B48C16841F40031C160BF
:10398000C16801F4003105910599016841F0010118
:103990000160006800F00100059005980420009087
:1039A00002200190002002900390072004906946B5
:1039B0004FF09040FFF7FEF80820009002200190A1
:1039C00001200290022003900720049069464FF0E6
:1039D0009040FFF7EFF8244D244E2E601A206860C7
:1039E0000020A860E8608020286100206861A8614C
:1039F0002020E8614FF400502862284601F046FE7E
:103A0000002801D0FEF747FFE567AC6206F114001D
:103A100028661B2068661020A8660020E8668020C3
:103A2000286700206867A867E867C5F8800005F187
:103A3000600001F02BFE002801D0FEF72CFF05F1FD
:103A40006000A067C5F88840002202212620FFF709
:103A5000FCF92620FFF708FA18B070BD9406002084
:103A6000004400404C100240D405002008000240F1
:103A70000A4603681968C9694906FBD5C168184632
:103A800000F0A1BC01464FF0FF304A68126853684D
:103A9000C3F580734B618A69934207D00869134666
:103AA0001BB2C05C521C02F0FF028A6170470146E3
:103AB000486800684068C0F5807048618969401AAC
:103AC00000F0FF00704738B504460D46E06801F08D
:103AD000B5FF284601F0BEFF014689B22046BDE889
:103AE0003440C5E781694161704705490160054976
:103AF000416005498160054901610549C160704720
:103B000094060020D405002034060020D4040020B0
:103B10002407002038B5044601E0401CE08320461D
:103B2000FFF7C5FF002811D02046FFF7ABFF04F1D7
:103B30002201E28B8854E08B014604F12202525CA0
:103B40003B2A01D04029E8DB01202077207F002894
:103B50002DD000202084616E04F1220001F096FF38
:103B600004F16801228C41F822000AE06D1C2584D2
:103B7000616E002001F08AFF04F16801ADB241F8E6
:103B80002500258C04F16800294650F82100002802
:103B9000ECD12046FEF73BFB0020E0832077024675
:103BA000402104F12200BDE8384001F095BF31BD4D
:103BB000DFF8D81000282BD1DFF8D4000A6802F40F
:103BC000C062B2F5806F1ED1026822F4807202607A
:103BD000086820F4C06040F400700860DFF8B400AA
:103BE000026832204243DFF8B000B2FBF0F0401C24
:103BF00000E0401E4A69520501D50028F9D1486904
:103C000040052ED43AE0016821F48071016035E06E
:103C1000B0F5007F2CD1DFF878000A6802F4C062AA
:103C2000B2F5806F1FD1026842F4807202600868AA
:103C300020F4C06040F400700860DFF858000268AB
:103C400032204243DFF85000B2FBF0F0401C00E0AD
:103C5000401E4A69520501D50028F9D1486940053E
:103C60000CD503207047016841F48071016005E0C4
:103C7000086820F4C06040F480600860002070474D
:103C80000648016841F480410160704700700040BF
:103C9000807000405004002040420F000870004037
:103CA0002DE9F843040000F0E281DFF87056207837
:103CB000C00712D5A86800F00C00E96801F0030104
:103CC0000C2801D1032901D0082845D12868800398
:103CD00003D56068002800F0CA812078800721D5CC
:103CE000A86800F00C00E96801F003010C2801D17C
:103CF000022901D0042866D12868400503D5E06870
:103D0000002800F0B481686820F0FE40216940EA94
:103D100001606860DFF81006006801F0CBFB002846
:103D200040F0A581DFF804662078000740F1848028
:103D300060690028706870D040F001007060FFF783
:103D4000BDFC07467068800776D4FFF7B7FCC01B40
:103D50000328F7D303208DE16068B0F5803F04D1DC
:103D6000286840F48030286012E0B0F5A02F286861
:103D700007D140F480202860286840F48030286013
:103D800006E020F480302860286820F48020286035
:103D9000606800280BD0FFF791FC06462868800376
:103DA0009BD4FFF78BFC801B6528F7D3D2E7FFF786
:103DB00085FC0646286880038FD5FFF77FFC801BB3
:103DC0006528F7D3C6E7E0680028286816D040F4D5
:103DD00080702860FFF772FC06462868400505D40D
:103DE000FFF76CFC801B0328F7D3B3E7686820F06B
:103DF000FE40216940EA0160686093E720F480702A
:103E00002860FFF75BFC0646286840058AD5FFF767
:103E100055FC801B0328F7D39CE7400840007060E6
:103E2000FFF74CFC07467068800705D5FFF746FC96
:103E3000C01B0328F7D38DE72078400768D50027FB
:103E4000A86DC00009D4A86D40F08050A865A86D89
:103E500000F08050009000980127DFF8D484D8F853
:103E60000000C00513D4D8F8000040F48070C8F8F2
:103E70000000FFF723FC8146D8F80000C00506D4F7
:103E8000FFF71CFCA0EB09000328F5D362E7A0684C
:103E9000012804D1306840F00100306011E00528AD
:103EA000306807D140F004003060306840F0010015
:103EB000306006E0400840003060306820F00400C8
:103EC0003060A06800280ED0FFF7F8FB804630680D
:103ED000800717D4FFF7F2FBA0EB080041F289310D
:103EE0008842F4D336E7FFF7E9FB80463068800765
:103EF00008D5FFF7E3FBA0EB080041F289318842C7
:103F0000F4D327E7012F03D1A86D20F08050A865D6
:103F10002078800621D5A0690028B0680ED040F036
:103F20000100B060FFF7CAFB0746B068800714D4F1
:103F3000FFF7C4FBC01B0328F7D30BE74008400082
:103F4000B060FFF7BBFB0746B068800705D5FFF7F9
:103F5000B5FBC01B0328F7D3FCE6E069002800F09E
:103F60008880A96801F00C010C2955D00228286826
:103F700020F0807028603AD1FFF7A0FB0646286841
:103F8000800105D5FFF79AFB801B0328F7D3E1E6F4
:103F9000E868DFF8A0130840216A0843616A491EF7
:103FA00040EA0110A16A40EA0120216B4908491E3C
:103FB00040EA4150616B4908491E40EA4160E16AAC
:103FC00040EAC160E860286840F080702860E868D6
:103FD00040F08070E860FFF771FB044628688001BC
:103FE00047D4FFF76BFB001B0328F7D3B2E6E86862
:103FF00080088000E860E968DFF83C030140E96080
:10400000FFF75CFB04462868800132D5FFF756FBBA
:10401000001B0328F7D39DE6012828D0E86800F0AC
:104020000301226A914222D100F0F001626A521E1D
:10403000B1EB021F1BD100F4FE41A26AB1EB022FCB
:1040400015D100F07841E26AB1EBC26F0FD100F4F4
:10405000C001226B5208521EB1EB425F07D100F043
:10406000C060616B4908491EB0EB416F01D001206F
:1040700000E00020BDE8F2832DE9F84304468846BD
:104080000027002C61D0DFF8B452286800F00F0040
:10409000404509D22868000948EA001028602868CD
:1040A00000F00F00404550D1DFF870622078C00763
:1040B0004DD5606803281AD13068800145D500F0DD
:1040C0000AF9DFF87C12884223D3B06810F0F00FB1
:1040D00005D0207880071CD5A068002819D1B068C9
:1040E00020F0F00040F08000B060802711E002284E
:1040F000306828D1800328D500F089F8DFF8401215
:10410000884206D3B06820F0F00040F08000B06034
:104110008027B1688908606850EA8101B160FFF7C3
:10412000CDFA8146B06800F00C006168B0EB810FF9
:104130000DD0FFF7C3FAA0EB090041F289318842A4
:10414000F0D3032061E04005D6D401205DE0206873
:10415000810715D5400703D5B06840F4E060B06032
:104160002078000705D5B06820F4605040F4E06086
:10417000B060B16821F0F001A0680143B16005E0D2
:10418000802F03D1B06820F0F000B060286800F004
:104190000F00804514D22868000948EA0010286002
:1041A000FFF78CFA0746286800F00F00404507D05B
:1041B000FFF784FAC01B41F289318842F3D3C0E78C
:1041C0002078400705D5B16821F4E061E06801433B
:1041D000B1602078000706D5B06820F460502169EE
:1041E00040EAC100B06000F012F85649B268C2F36C
:1041F0000312895C01F01F01C8404A4908604A481F
:104200000068BDE8F24301F055B9BDE8F2834E49BC
:10421000086800F00C00042801D141487047086884
:1042200000F00C00082801D148487047086800F0E9
:104230000C000C281FD14A6802F003024868C0F342
:104240000310401C032A07D1404AB2FBF0F2486831
:10425000C0F30620424306E0314AB2FBF0F2486860
:10426000C0F3062042434868C0F34160401C400050
:10427000B2FBF0F07047002070472A480068704792
:1042800080B5FFF7FAFF32492F4A1268C2F30222C3
:10429000895C01F01F01C84002BD80B5FFF7EDFF4A
:1042A0002B49294A1268C2F3C222895C01F01F011E
:1042B000C84002BD1948016841F4002101607047FF
:1042C00010B5244C2068C00504D501F038FC4FF42B
:1042D0008070606010BD20490A6802F0030208681F
:1042E000C0F30310401C032A07D1184AB2FBF0F2B6
:1042F0000868C0F30620424306E0094AB2FBF0F228
:104300000868C0F3062042430868C0F34160401CBF
:104310004000B2FBF0F070470000000000100240C7
:104320000024F400500400202804002090100240D3
:10433000007000400C809F01FFFFEEFE0020024055
:1043400001B4C4049C8400080810024000366E01C9
:10435000488500081C1002400C10024038B50400CB
:1043600015D004F180056868002804D10020287069
:104370002046FFF7E4FA24206860206801684908B5
:1043800049000160204600F067FA012801D10120B0
:1043900032BDA06A002802D0204600F0B7FB20689A
:1043A000416821F4904141602068816821F02A0130
:1043B00081602068016841F0010101602046BDE88C
:1043C000324000F007BC70B50446134604F1800586
:1043D0006868202849D1002901D0180001D10120A6
:1043E00070BD2878012840D001202870216504F193
:1043F0005406338073800020E86021206860706A72
:1044000000281ED0DFF84414C162DFF84404716A4A
:104410000863DFF84004716A48630020716A8863AA
:10442000206800F12802216D706A01F090F90028DF
:1044300007D01020E860002028702020686001204C
:1044400070BD402021680862002028702068083074
:1044500050E8001F41F08001206800F1080242E8A6
:1044600000100028F2D1002070BD022070BD30B4D1
:10447000034603F180008468202C22D1002901D05A
:10448000140001D101201DE00478012C19D0012471
:1044900004700020D8661868DFF8AC43A0420CD046
:1044A0004068000209D5186850E8004F44F0806465
:1044B000054645E800400028F5D1184630BC00F01C
:1044C00026BC022030BC704710B4014601F18002C6
:1044D0001078012801D1022040E0012010705068BE
:1044E00021280CD10868083050E8003F43F08003D1
:1044F000086800F1080444E800300028F2D1906810
:10450000222829D108200B6818620869002809D0E0
:10451000086850E8003F43F48073044644E80030E4
:104520000028F5D10868083050E8003F43F0010347
:10453000086800F1080444E800300028F2D1086857
:10454000083050E8003F43F04003086800F10804D9
:1045500044E800300028F2D10020107010BC7047F1
:10456000F8B504462668F1693268B36840F60F0072
:10457000084004F15C050DD18F060BD5970601D4D8
:10458000DF0007D56969002900F05D812046BDE89C
:10459000F4400847002800F08C80DFF8B40803429C
:1045A00004D1DFF8B0783A4200F083800F46FF076D
:1045B00007D5D70505D5012737622E6B46F00106D2
:1045C0002E638E0709D51E46F60706D502262768F4
:1045D0003E622E6B46F004062E634E0709D51E463A
:1045E000F60706D5042627683E622E6B46F00206C3
:1045F0002E630E070AD5960601D4034206D0082082
:1046000026683062286B40F008002863080509D549
:10461000500107D54FF4006026683062286B40F0E7
:1046200020002863286B002800F00D81880608D53B
:10463000900601D4D80004D56969002901D020462C
:104640008847286B21688968490602D410F0280F32
:1046500029D0204600F0D0FB2068806840061DD598
:104660002068083050E8001F21F04001206800F168
:10467000080242E800100028F2D1286A00280DD074
:10468000DFF8D4178163286A01F0DDF8002800F014
:10469000DA80286A816BBDE8F44008472046BDE80F
:1046A000F240FEF7E5B82046FEF7E2F80020286366
:1046B000F1BD2869012840F09280C80640F18F8042
:1046C000D00640F18C80102030622068806840065F
:1046D0004ED5286A0068406880B2002800F0B38098
:1046E0002988884280F2AF806880286A0068006864
:1046F000800634D4206850E8001F21F480710246FF
:1047000042E800100028F5D12068083050E8001F6A
:1047100049084900206800F1080242E8001000281A
:10472000F2D12068083050E8001F21F040012068D5
:1047300000F1080242E800100028F2D12020E862CF
:1047400000202861206850E8001F21F01001024677
:1047500042E800100028F5D1286A01F03EF82988C7
:104760006888091A89B22046BDE8F44001F0E8B92A
:1047700028886988411A6888002864D0084680B271
:10478000002860D0206850E8002F22F49072034681
:1047900043E800200028F5D12068083050E8002FB9
:1047A000DFF84C030240206800F1080343E80020D2
:1047B0000028F1D12020E86200202861686120688B
:1047C00050E8002F22F01002034643E800200028A2
:1047D000F5D189B22046BDE8F44001F0B1B9C80274
:1047E00009D5580207D54FF4801030622046BDE845
:1047F000F24001F0A6B908060AD5100601D4180245
:1048000006D5A96900291ED02046BDE8F440084716
:10481000480606D5500604D52046BDE8F24000F013
:10482000DBBB080206D5500004D52046BDE8F240A7
:1048300001F088B9C80106D5002A04D52046BDE894
:10484000F24001F080B9F1BD00800040814E0008C7
:10485000C74E0008794F0008F8B5044600252168C6
:104860000A68DFF8FC050240A068024320690243A1
:1048700060690243E06902430A6021684A6822F4E1
:104880004052E06802434A60A2692368DFF8CC1511
:104890008B4201D0206A02439E68DFF8C8050640BB
:1048A00032439A602268D36A1B09606A50EA031394
:1048B000D3622068DFF8B02590420CD1DFF8AC2538
:1048C000126802F00302032A15D8DFE802F002485A
:1048D000355E012210E0DFF8982590421BD1DFF809
:1048E0008C25126812F00C024DD0042A37D0082A09
:1048F00022D00C2A49D01022884240F07F80002A22
:1049000006D0022A43D0042A44D0082A45D047E0E2
:10491000FFF7B6FC46E0DFF85C2590420ED1DFF8E9
:104920004C25126812F030022DD0102A17D0202A00
:1049300002D0302A29D0DEE70222DDE7DFF8382571
:1049400090420ED1DFF82425126812F0C0021AD06E
:10495000402A04D0802AEFD0C02A16D0CBE7042208
:10496000CAE78842C7D1DFF80425126812F4406212
:1049700009D0B2F5806FF2D0B2F5006FDCD0B2F59D
:10498000406F02D0B7E72A46B6E70822B4E7DFF85F
:10499000EC0407E0FFF73BFC04E04FF4004001E0CB
:1049A00028460125002800F0988000BF51A1626AC6
:1049B00031F81210B0FBF1F63046626802EB4201AA
:1049C000884202D31103814201D2012585E00027EC
:1049D00047EA166710464008002110EB062079418F
:1049E000002301F0B1F8A0F54071DFF810269142E4
:1049F00002D22168C86070E001256EE0E069B0F580
:104A0000004F38D1082A15D8DFE802F005080B144A
:104A10000E1414141100FFF733FC0DE0FFF73DFCFA
:104A20000AE0DFF8580407E0FFF7F1FB04E04FF479
:104A3000004001E02846012500284ED0D4F804109B
:104A40002CA2636A32F81320B0FBF2F00A46520837
:104A500002EB4002B2FBF1F04FF6F071A0F1100250
:104A60008A4206D20140C0F3420001432068C1607F
:104A700033E0012531E0082A15D8DFE802F0050807
:104A80000B140E1414141100FFF7FAFB0DE0FFF7DE
:104A900004FC0AE0DFF8E40307E0FFF7B8FB04E0FA
:104AA0004FF4004001E028460125002815D0616838
:104AB00010A2636A32F81320B0FBF2F000EB510051
:104AC000B0FBF1F0A0F110014FF6F072914203D269
:104AD00080B22168C86000E0012504F1680001216E
:104AE0004180018000218160C1602846F2BD000044
:104AF000FEFFFFEF010002000400060008000A00AC
:104B00000C001000200040008000000190F82810E8
:104B1000C90706D50268536823F40033C16A0B4302
:104B2000536090F82810890706D50268536823F46B
:104B30008033016B0B43536090F82810490706D56A
:104B40000268536823F48023416B0B43536090F851
:104B50002810090706D50268536823F40043816BC7
:104B60000B43536090F82810C90606D50268936875
:104B700023F48053C16B0B43936090F8281089068F
:104B800006D50268936823F40053016C0B439360CD
:104B900090F82810490611D50268536823F4801351
:104BA000416C0B435360416CB1F5801F06D1026824
:104BB000536823F4C003816C0B43536090F82810B2
:104BC000090606D501684A6822F40022C06C024337
:104BD0004A6070477CB5044604F180050020E86017
:104BE000FEF76CFD06462068006800070BD56FF0E5
:104BF0007E400090334600224FF40011204600F022
:104C00001BF800280FD12068006840070DD56FF011
:104C10007E400090334600224FF48001204600F091
:104C20000BF8002801D0032076BD20206860A86022
:104C30000020E066287076BD2DE9F04105460E465D
:104C400017469846069C2868C0693040B04201D19A
:104C5000012000E000203946884255D114F1010FAF
:104C6000F1D0FEF72BFDA0EB0800844201D3002C0D
:104C70001FD1286850E8001F21F4D071024642E895
:104C800000100028F5D12868083050E8001F4908B6
:104C90004900286800F1080242E800100028F2D11B
:104CA00005F1800020214160816000210170032016
:104CB0002BE0286801684907C5D5C1690905C2D537
:104CC0004FF400610162286850E8001F21F4D071A0
:104CD000024642E800100028F5D12868083050E864
:104CE000001F49084900286800F1080242E8001046
:104CF0000028F2D105F18000202141608160C1606F
:104D000000210170032000E00020BDE8F08170B5B3
:104D100004461346A16504F15C06338004F1800566
:104D20000020E8602220A860306A00281ED00FF220
:104D30009D11C1620FF22920316A08630FF23920F8
:104D4000316A48630020316A8863A26D206800F1EF
:104D50002401306A00F0FBFC002807D01020E86036
:104D6000002028702020A860012070BD002028703D
:104D70002069002809D0206850E8001F41F48071A4
:104D8000024642E800100028F5D12068083050E8BB
:104D9000001F41F00101206800F1080242E8001004
:104DA0000028F2D12068083050E8001F41F040018F
:104DB000206800F1080242E800100028F2D100202B
:104DC00070BD016851E8002F22F0C0020B4643E895
:104DD00000210029F5D10168083151E8002F22F4A3
:104DE0000002016801F1080343E800210029F2D123
:104DF0002021C0F884107047016851E8002F22F488
:104E000090720B4643E800210029F5D10168083172
:104E100051E8002FDFF8E8110A40016801F10803AA
:104E200043E800210029F1D1C16E012909D10168AF
:104E300051E8002F22F010020B4643E80021002920
:104E4000F5D12021C0F888100021C16601677047A4
:104E50000100001020010004C94F0008008000403C
:104E6000F369FFCFFFF4FF110038014088100240C2
:104E70000044004000480040004C00400024F40082
:104E80000146886A0968096889061AD40021A0F8D1
:104E900056100168083151E8002F22F080020168A5
:104EA00001F1080343E800210029F2D1016851E82B
:104EB000002F42F040020B4643E800210029F5D1C3
:104EC000704700F059BF806A00F057BF18B4826A7B
:104ED00002F15C0100680068800634D4002048803C
:104EE000106850E8003F23F48073044644E8003023
:104EF0000028F5D11068083050E8003F5B085B00DF
:104F0000106800F1080444E800300028F2D110686D
:104F1000083050E8003F23F04003106800F1080417
:104F200044E800300028F2D12020C8620869012836
:104F300009D1106850E8003F23F01003044644E80C
:104F400000300028F5D10869012804D109881046ED
:104F500014BC00F0F5BD104612BC00F00FBF0000FD
:104F6000806A00F15C010A69012A03D109884908B5
:104F700000F0E6BD00F003BF70B5846A04F184055B
:104F800028686E6821688968090607D5212805D137
:104F90000020A4F856002046FFF713FF2068806821
:104FA000400608D5222E06D1002004F156010881C2
:104FB0002046FFF721FFA86840F01000A8602046B7
:104FC000BDE87040FDF754BC806A00F15601002234
:104FD0000A810A80FDF74CBC016851E8002F22F0DD
:104FE00040020B4643E800210029F5D12021C0F8FA
:104FF00084100021416700F0BFBE000000FD0F00DB
:10500000FEFFFFEF38B52DED028B040082B00D4698
:1050100000F0998010EE101A4A0000F094804800C9
:105020000016401C02D1490200F08D80002CB7EE22
:10503000008A3CD5644200BF89A1052008E0E20750
:1050400044BFD1ED000A28EE208A6408091D401EE5
:10505000002C18BF0028F2D1684600F091FE00989D
:1050600080EE080A00F0B0FE10EE101A4A0059D087
:1050700048000016401C01D1490253D0002C51D0E9
:10508000684600F07DFE0098DFED6C0A20EE200AF5
:1050900000F09AFE10EE101A4A0043D048000016A5
:1050A000401C01D149023DD0641EE9D13AE039DD0E
:1050B0006BA10520E20744BFD1ED000A28EE208A4B
:1050C0006410091D401E002C01DD0028F2D1684645
:1050D00000F056FE009820EE080A00F075FE10EE73
:1050E000101A4A001ED048000016401C01D1490287
:1050F00018D0002C16DD684600F042FE0098DFED67
:10510000500A20EE200A00F05FFE10EE101A4A004E
:1051100008D048000016401C01D1490202D0641E8C
:10512000002CE8DC10EE101A4A0005D048000016EA
:10513000401C08D1490206D1AFF300801DB1286898
:1051400040F00100286002B0BDEC028B31BD0000D0
:105150002DE9F14183B01D001CBF00202860039F92
:105160008846164603A800F091FEC41020F00800FF
:10517000012804F0010424D1009001AB03994246B8
:10518000384600F015FF10B99FED2E0A15E09DED91
:10519000020A0128B8EEC00A0FDD03A9401EDFEDA8
:1051A0002A0A51F8042BB0EE401A00EE102AB8EE8D
:1051B000C00A401E01EE200AF3D101982946801949
:1051C00028E0022829D10120009001AB0399424632
:1051D000384600F0C9FF10B99FED1A0A15E09DEDA1
:1051E000020A0128B8EEC00A0FDD03A9401EDFED58
:1051F000170A51F8042BB0EE401A00EE102AB8EE50
:10520000C00A401E01EE200AF3D1019800F0DCFD37
:1052100029463046FFF7F6FE0AE0032808BF9FED57
:105220000C0A05D004280CBF9FED0A0A9FED050A61
:105230000CB1B1EE400A04B0BDE8F0811EB14F0AD6
:10524000AEC59D7400000000286B6E4E0000804DBE
:105250000000807FFFFFFF7F0023002278E700002F
:10526000000020410000C84200401C4620BCBE4C4B
:10527000CA1B0E5AAEC59D742DE9F84F84B00E4678
:1052800017460BB100221A600446A04601E008F15F
:10529000010898F8000001F06BF80028F7D198F8A1
:1052A00000002D2816BF2B2818F8015B2B25002F96
:1052B000019603D4012F01D0252F03DB002E55D0FA
:1052C000346053E0002F0CDD102F04BF98F800006D
:1052D000302802BF98F8010040F02000782811D152
:1052E0000CE098F80000302818BF0A270AD198F877
:1052F000010040F02000782803D1102708F10208AF
:1053000000E00827CDF80C8001E008F1010898F8CA
:1053100000003028F9D0064E7E4414364FF00009C4
:1053200006F12800CDF80880CA468DF800000BE091
:10533000643000009DF80010401ACA465FFA80FBF6
:1053400007FB09B908F1010898F8000001F01AF804
:1053500001463A4606F1280001F01EF80028E9D17E
:105360000399414504D1019800B10460002020E078
:105370000299F05DA8EB0101081A002810D406DCA0
:10538000B9EB0B0103D3B1FBF7F0504508D0AFF3F5
:105390000080049808B1012101604FF0FF3903E05B
:1053A0002D2D08BFC9F10009019808B1C0F800808F
:1053B000484605B0BDE8F08FFFE700230A22002130
:1053C0005AE70000904205D1994204D041EA030C0B
:1053D00050EA4C0C70474FF4001C1CEB410F38BFD7
:1053E000894270479FED1F1AF5EE000A40EE010A50
:1053F000BDEEE00AF5EE400A10EE100AF1EE10FAEA
:1054000048BF401E00EE100AB8EEC00A30EEC00AD7
:10541000DFED150A20EE200AFDEEC00A10EE900A1C
:1054200080B2B0F5007F04DBDFED100A002030EE23
:10543000200A014600EE901AF8EE600A0C4970EE60
:10544000600A01EB8002B7EE000A01EB800030EE4B
:10545000600A92ED001AD0ED011A20EE010A00EE6A
:10546000A10A704783F9223E00000044000000C4F6
:10547000B07600080CB430B583B00A4606A9029194
:10548000044600250194009502AB01A90848784420
:105490001E3000F0ADFF019A157000284EBF044683
:1054A0000198041B204603B030BC5DF80CFB00BF24
:1054B00093D4FFFF70B504460025104EB068002855
:1054C00019D04FF47A71B1FBF0F00D490968B1FBC6
:1054D000F0F0FDF7CAFC00280BD1102C07D22A46A9
:1054E00021464FF0FF30FDF7B0FC746004E0012569
:1054F00002E0012500E00125284670BD24040020BB
:105500005004002080B51748816841F00101816096
:10551000816801F0010100910099016841F080511A
:105520000160006800F08050009000980022114651
:105530000420FDF78AFC0420FDF796FC00221146AA
:105540000520FDF782FC0520FDF78EFC00220521D9
:105550005120FDF77AFC5120FDF786FCBDE80140A3
:10556000FEF78EBB5810024010B500F18004217880
:10557000012901D1022010BD012121702421616087
:1055800001680A680B685B085B000B604FF0005114
:10559000416642F0005201680A6000F04BF820209A
:1055A00060600020207010BD70B5044604F18005D5
:1055B0002878012801D1022070BD01202870242004
:1055C000686020680668026852085200026020681D
:1055D000826822F0604211438160204600F02AF880
:1055E00020680660202068600020287070BD70B5BB
:1055F000044604F180052878012801D1022070BDFD
:10560000012028702420686020680668026852081B
:10561000520002602068826822F06062114381605B
:10562000204600F007F8206806602020686000200F
:10563000287070BD30B400F16802416E002903D1BA
:1056400001205080108016E000688168490E01F04A
:1056500007018068400F00BF0FF2280307A4255CF4
:10566000ED00185C95FBF0F05080605CC000595C68
:1056700090FBF1F0108030BC704700000101010385
:1056800007010000080402040801010138B5040004
:1056900001D1012032BD216804F12405DFF878032F
:1056A00081420BD2DFF8740341181420B1FBF0F0F3
:1056B00080002862DFF86803E8610AE0DFF864032D
:1056C00041181420B1FBF0F080002862DFF8580385
:1056D000E8610220687021680A686FF30E12A06802
:1056E0000243E06802432069024360690243A06903
:1056F0000243E0690243206A02430A60204600F048
:1057000062F9A068B0F5804F01D100206060207977
:10571000696A0860E86AA96A4860606800280BD076
:10572000052809D2204600F068F90020296B08609E
:10573000A86B696B486003E0002028636863A86376
:105740000020A861012068700020287032BDF8B5E3
:105750000446002504F124063078012801D10220F6
:10576000F2BD012030707078012831D102207070B4
:105770002846B061206807687F087F0007602046E0
:1057800000F000F92168F0680028086803D040F0B4
:105790000E00086007E020F004000860206801683F
:1057A00041F00A010160706A0168C90303D501680C
:1057B00041F480710160306B002803D0016841F42E
:1057C000807101602068016841F00101016002E020
:1057D0002846307002252846F2BD10B4002100F1A1
:1057E00024025378022B03D004209061012123E08E
:1057F00003681C6824F00E041C60536A1C6824F4BF
:1058000080741C60006803685B085B000360012013
:1058100092F8203003F01F039840D3695860D06A93
:10582000936A5860106B002806D0036823F48073D5
:105830000360906B536B5860012050700020107013
:10584000084610BC704710B5002400F124025178BE
:10585000022907D00420906101205070204610706A
:1058600001242BE001680B6823F00E030B60016834
:105870000B685B085B000B60516A0B6823F4807354
:105880000B60012192F8203003F01F039940D36987
:105890005960D16A936A5960116B002906D00B6870
:1058A00023F480730B60916B536B5960012151702D
:1058B000214611705169002900D08847204610BD4B
:1058C000F0B400F12401CA6914680268156891F8FF
:1058D000206006F01F06042303FA06F73C4214D0AA
:1058E0006F0712D51468A40603D4146824F00404C6
:1058F000146091F8202002F01F029340CA6953609F
:10590000C96800293CD0F0BC0847022303FA06F717
:105910003C4218D0AF0716D51468A40605D4146805
:1059200024F00A04146001224A7091F8202002F049
:105930001F029340CA69536000220A7089680029D7
:105940001ED0F0BC0847082303FA06F6344217D0ED
:105950002B0715D5136823F00E031360012291F86D
:10596000203003F01F039A40CB695A6001228A61FC
:105970004A7000220A700969002901D0F0BC08476A
:10598000F0BC704730B4046DC56C6C60446D002C85
:1059900002D0C46D856D6C60012490F8445005F010
:1059A0001F05AC40056C6C60046863600368846824
:1059B000102C03D19A600068C16002E09960006811
:1059C000C26030BC70470168184A134B994200D33B
:1059D000203201F0FF0108391423B1FBF3F1436CCD
:1059E0009B0812EB83028264114AC264012201F017
:1059F0001F0102FA01F10165704701790D4A02EBBE
:105A0000810242650C4A82650122491E01F01F0194
:105A10008A40C2657047000008040240F8FFFDBFDD
:105A200000000240F8FBFDBF0004024000080240F5
:105A300080080240FC080240400902405FEA000C76
:105A400011F8012B00F8012B12B111F8012BF9E725
:105A50006046704700F10103810704D010F8011B74
:105A6000820781B1FAD10268A2F10131914311F0AC
:105A7000803104BF50F8042FF6E709BAB1FA81F17A
:105A800000EBD100401CC01A7047000038B504007C
:105A90000D460BD02946204601F041FC04442078F5
:105AA00048B90C4800210160002032BD09490C684A
:105AB000002CEFD132BD2946204601F041FC2118CF
:105AC000087810B1002201F8012B0248016020463D
:105AD00032BD00BFA008002062F30F2262F31F4214
