:020000040800F2
:10000000B80A0020E95C00084D5B0008555B000859
:10001000575B0008595B00085B5B000800000000AC
:100020000000000000000000000000005D5B000810
:100030005F5B000800000000615B0008635B000874
:10004000055D0008095D00080D5D0008115D0008F0
:10005000155D0008195D00081D5D0008215D0008A0
:10006000255D0008295D00082D5D0008715B000812
:10007000775B0008315D0008355D0008395D0008D8
:100080003D5D000800000000415D0008455D00087E
:10009000495D00087D5B0008835B00084D5D00083A
:1000A000515D0008555D0008595D00085D5D000860
:1000B000615D0008655D0008695D0008895B0008F6
:1000C0008F5B00086D5D0008715D0008755D0008BC
:1000D000795D00087D5D0008955B0008815D000882
:1000E000855D0008895D00088D5D0008915D000850
:1000F000955D0008995D00089D5D00080000000006
:1001000000000000A15D000800000000A55D0008DF
:10011000A95D000800000000AD5D0008B15D0008A9
:10012000B55D0008B95D0008BD5D0008C15D00084F
:10013000C55D00080000000000000000C95D000867
:10014000CD5D0008D15D0008000000000000000047
:10015000000000000000000000000000000000009F
:10016000000000000000000000000000D55D000855
:10017000D95D000800000000000000000000000041
:1001800000000000DD5D000800000000000000002D
:10019000000000000000000000000000000000005F
:1001A0000000000000000000E15D0008E55D0008BF
:1001B000E95D0008ED5D0008F15D00080000000049
:1001C00000000000F55D00080000000000000000D5
:1001D000F95D0008FD5D000838B5040001D101207B
:1001E00032BD04F140056878002804D10020287051
:1001F000204600F0B5FE2420687020680168490898
:1002000049000160606820F0706021680861206822
:10021000816821F400418160A0682168E268012AB8
:1002200003D140F40040886002E040F4044088605C
:10023000E068022803D14FF400602168486020681C
:10024000416841F0007141F4004141602068C1689B
:1002500021F40041C160216960690143A06941EA5C
:1002600000212068C160E169206A014320680160C3
:100270002068016841F001010160002068602020D1
:10028000687000202063A87032BD2DE9FE4F07463C
:100290000D4692469B4607F140067078202840F0B4
:1002A000BB80DDF83080B8F1000F04D0DDF8349069
:1002B0004846002804D14FF4007070600120ACE083
:1002C0003078012800F0A8800120307000F038FF5D
:1002D00004460094192301224FF40041384600F0EF
:1002E000C9FC002801D0012097E05B46524621203E
:1002F00070704020B07000207060C7F82480A7F8AC
:100300002A90786301940E9800902946384600F0B0
:100310002FFA002803D00020307001207DE0788D76
:10032000B0F5807F0DD3FF203885002000904FF07E
:100330008073FF222946384600F09EFDDDF83880A4
:100340000BE07A8D3A85002000904FF00073D2B216
:100350002946384600F090FDF0E7224641463846EF
:1003600000F0B6FC00282BD1786A007839688862E2
:10037000786A401C7862788D401E7885388D411EE1
:100380003985788D00282AD089B2002927D1009498
:10039000434600228021384600F06CFC002811D131
:1003A000788DB0F5807F0FD3FF2038850020009036
:1003B0004FF08073FF222946384600F05DFD0EE0C5
:1003C00001202AE0012028E07A8D3A850020009063
:1003D0004FF00073D2B22946384600F04DFD788DBB
:1003E0000028BAD122464146384600F09BFC010065
:1003F0000CD120203A68D0613A6853686E480340B7
:100400005360202070700020B07030700846401E8D
:100410008041C043C00F00E00220BDE8FE8F2DE9FF
:10042000FE4F05460E4692469B4605F14004607815
:10043000202840F0BD800C9F002F04D0DDF83490C0
:100440004846002804D14FF4007060600120B0E0FD
:100450002078012800F0AC800120207000F070FEB0
:100460008046CDF80080192301224FF40041284630
:1004700000F000FC002801D001209AE05B465246C3
:10048000222060704020A070002060606F62A5F89C
:100490002A906863CDF804800E9800903146284673
:1004A00000F0A1F9002803D000202070012080E096
:1004B000DFF80801698DB1F5807F0BD3FF21298515
:1004C00000904FF080730A463146284600F0D4FC75
:1004D0000E9F0AE06A8D2A8500904FF00073D2B219
:1004E0003146284600F0C8FCF2E7CDF800803B46D4
:1004F00000220421284600F0BDFB00282CD12868EA
:10050000406A696A0870686A401C6862288D401EEB
:100510002885688D401E6885688D00282BD0288D21
:10052000002828D1CDF800803B46002280212846B3
:1005300000F0A0FB002811D1688DB0F5807F0FD3AB
:10054000FF202885002000904FF08073FF22314665
:10055000284600F091FC0EE001202AE0012028E06E
:100560006A8D2A85002000904FF00073D2B2314688
:10057000284600F081FC688D0028B6D142463946F5
:10058000284600F0CFFB01000CD120202A68D06162
:100590002A68536808480340536020206070002098
:1005A000A07020700846401E8041C043C00F00E08C
:1005B0000220BDE8FE8F000000E800FE002400805D
:1005C000026891691268436B002B00D0184770478E
:1005D00018B4026891691268CB0509D5130607D5CE
:1005E000436C43F0010343644FF480730468E36198
:1005F0004B0509D5130607D5436C43F00803436444
:100600004FF480630468E361890509D5110607D5B5
:10061000416C41F0020141644FF400710268D16104
:10062000416C11F00B0F02D014BC00F07DBA11BC6C
:10063000704790F8410070472DE9F04105460F469C
:100640009046EC6A05F140063078012801D102207D
:100650008CE001203070B80605D55FEA886002D5CD
:10066000284600F090F9F80636D55FEAC86033D521
:10067000688D00281FD17078282807D1B4F1007F39
:1006800004D13946284600F01EFA6DE0707829281A
:100690000DD1DFF8C405844209D010202968C86153
:1006A000284600F0CAFA284600F031F95CE0102034
:1006B0002968C86158E010202968C861706840F056
:1006C00004007060002C02D0B4F1807F4CD17168BE
:1006D000284600F029FA47E078071DD55FEA487000
:1006E0001AD5688D00280CD02868406A696A08709D
:1006F000686A401C6862288D401E2885688D401EEF
:100700006885688D00282FD1DFF84C0584422BD0F6
:10071000284600F0FCF827E0380707D55FEA0870A4
:1007200004D53946284600F098F81DE0B8071BD5D7
:100730005FEA887018D5688D00280DD0686A007847
:1007400029688862686A401C6862688D401E6885F6
:10075000288D401E288507E0B4F1807F01D0002C51
:1007600002D1284600F0D3F800203070BDE8F081B7
:100770002DE9FC41044617469846089D099EDFF87E
:10078000200700904FF080734246D2B2204600F01E
:1007900073FB32462946204600F09AFA002801D021
:1007A00001201DE0B8F1010F0CD03846000A216885
:1007B000886232462946204600F08AFA002801D095
:1007C00001200DE0FFB22068876200962B460022D0
:1007D0008021204600F04EFA401E8041C043C00FE9
:1007E000BDE8F68100002DE9FC4104461746984615
:1007F000089D099EDFF8A806009000234246D2B269
:10080000204600F039FB32462946204600F060FAC7
:10081000002801D001201DE0B8F1010F0CD03846AE
:10082000000A2168886232462946204600F050FAC4
:10083000002801D001200DE0FFB2206887620096F9
:100840002B4600224021204600F014FA401E804131
:10085000C043C00FBDE8F68100002DE9F041044619
:1008600004F140052068697801F02801282948D161
:100870008669360C06F0010687693F0C07F0FE0713
:100880008268C2F30902D0F80C8008F0FE08E06824
:10089000022828D107F006071046C00900F006001C
:1008A000874212D1A868401CA860A86802282CD1F1
:1008B0000020A86008202168C86100202870314607
:1008C0002046BDE8F04100F041BC4FF40041204615
:1008D00000F0EEFA00202870424631462046BDE87E
:1008E000F04100F033BC4FF40041204600F0E0FA44
:1008F000002028703A4631462046BDE8F04100F01D
:1009000025BC0821C16100202870BDE8F08138B500
:1009100004462068006804F140050021A9704104E4
:1009200005D52068016821F48041016006E00004DB
:1009300004D52068016821F4004101606878292805
:100940000ED128206870212020630121204600F06C
:10095000AFFA002028702046BDE8324000F0F7BB17
:1009600068782A280ED1282068702220206302216E
:10097000204600F09DFA002028702046BDE8324055
:1009800000F0E6BB31BDF8B504460E4621680F689D
:1009900004F1400568782022CA61212801D0292865
:1009A00007D148F20101204600F082FA212020639D
:1009B0000AE0222801D02A2806D148F20201204666
:1009C00000F076FA222020632068416841F400415B
:1009D000416021684A68DFF8CC0402404A60204642
:1009E00000F02BF978040BD52068016821F48041D0
:1009F0000160A06B002810D00068406860850CE0A2
:100A000038040AD52068016821F400410160E06BD8
:100A1000002802D0006840686085700710D526F075
:100A200004062068406A616A0870606A401C60625F
:100A3000208D002804D0401E2085608D401E6085DA
:100A4000608D002803D0686840F0040068600020D2
:100A5000A8706063686800280BD06968204600F0C1
:100A600063F8687828282DD131462046BDE8F44047
:100A700029E0794EE06AB0420DD02046FFF747FFEB
:100A8000E662202068700020206328702046BDE8C0
:100A9000F24000F05EBB6878222809D120206870FF
:100AA0000020206328702046BDE8F24000F050BBD3
:100AB000202068700020206328702046BDE8F240A6
:100AC00000F045BBF1BD38B504466348E062002044
:100AD000206304F14005202068700020A870606346
:100AE000480712D52068406A616A0870606A401C35
:100AF0006062208D002808D0401E2085608D401E39
:100B00006085686840F00400686048F20301204690
:100B100000F0CEF910202168C8610020287020461E
:100B2000BDE8324000F015BB38B5044604F140057D
:100B300068780022AA70484AE262002262856A68E8
:100B400011436960282803D0292801D02A2809D117
:100B50000321204600F0ACF928206870DFF8480334
:100B600060630BE048F20301204600F0A1F96878C9
:100B7000602801D02020687000206063216BA06B8A
:100B8000002820D0112901D021291CD1206801681A
:100B9000490403D5016821F480410160A06B00F095
:100BA00055FC012833D00FF2B500A16B88630020FB
:100BB0002870A06B00F0ABFB00282CD0A06B816BE1
:100BC000BDE834400847E06B002820D0122901D04E
:100BD00022291CD120680168090403D5016821F489
:100BE00000410160E06B00F031FC01280FD00FF2F2
:100BF0006D00E16B886300202870E06B00F087FBDC
:100C0000002808D0E06B816BBDE8344008472046DF
:100C1000BDE8324000E031BD00F130014A7C602A7D
:100C200006D120224A7400220A600A7400F06CBCCB
:100C300000220A600A7400F072BE01688A69920795
:100C400001D500228A6200688169C90703D48169DD
:100C500041F00101816170470000FFFF806A816BF4
:100C6000002901D000228A63C16B002901D0002233
:100C70008A63D1E72DE9F04105460E4617461C462A
:100C8000DDF81880286880693040B04201D1012029
:100C900000E000203946884217D114F1010FF1D04D
:100CA00000F04EFAA0EB0800844201D3002CE9D1F9
:100CB00005F14000416841F0200141602021417070
:100CC000002181700170012000E00020BDE8F0816A
:100CD00070B505460C4616462868806980071FD403
:100CE00032462146284600F045F8002801D0012070
:100CF00070BD14F1010FEFD000F022FA801B844286
:100D000001D3002CE8D105F14000416841F02001F9
:100D1000416020214170002181700170012070BD6F
:100D2000002070BD70B505460C46164628688069DF
:100D300080061DD432462146284600F01BF80028C4
:100D400007D100F0FDF9801B844204D3002CEDD1C3
:100D500001E0012070BD05F14000416841F0200133
:100D6000416020214170002181700170012070BD1F
:100D7000002070BD2DE9F04105460C469046002646
:100D8000286881693746C90643D51021C16105F13C
:100D9000400728688169890635D4310033D114F1C0
:100DA000010FF6D000F0CCF9A0EB0800844201D38B
:100DB000002CEED12868416801F48041BA7883693B
:100DC0001B040BD5B1F5804F08D0202A06D041680E
:100DD00041F48041416000F0B3F9804628688069A1
:100DE0008006D6D400F0ACF9A0EB08001A28F5D3A1
:100DF000786840F020007860202078700020B8707B
:100E000038700126EAE7002E01D12021C1610427B4
:100E1000012629688869C20505D547F001074FF406
:100E20008072CA610126410506D547F008074FF4D4
:100E300080612A68D1610126800506D547F0020746
:100E40004FF400702968C8610126300011D028468F
:100E5000FFF7F3FE29684A68124802404A6005F12C
:100E6000400041680F43476020214170002181709C
:100E700001703046BDE8F08170B4039C006845689D
:100E80000A4E46EA5456B543C1F3090141EA02410C
:100E90001943214321F000412943416070BC704750
:100EA0000020008000E800FE39060008FF63FF0311
:100EB0000022CB0707D5422290F8413003F02803E7
:100EC000282B00D0F2228B0709D542F0440290F87B
:100ED000413003F02803282B01D042F0B0020B046C
:100EE00001D542F0B8020B46102B01D142F090021E
:100EF000202B01D142F02002402901D142F04002D2
:100F00000068016821EA02020260704710B5864C51
:100F100086482060864860600020A0600120E06074
:100F2000002020616061A061E06120622046FFF73F
:100F300053F9002801D000F0F3FC0021204600F016
:100F4000FDFC002801D000F0EBFC0021204600F061
:100F50001FFD002803D0BDE8104000F0E1BC10BD2B
:100F600018B597B0044600221421684600F038FDF9
:100F70000022442106A800F033FD20686B49884216
:100F800054D14020069000200C9006A800F046FDA9
:100F9000002801D000F0C4FC664C206840F001003D
:100FA0002060206800F0010005900598206840F05E
:100FB00002002060206800F00200059005984FF4C0
:100FC0000040009012200190012002900020039028
:100FD0000420049069464FF0904000F053FE8020BA
:100FE0000090122001900120029000200390042024
:100FF00004906946504800F045FEE06840F4001057
:10100000E060E06800F400100590059800220221DD
:101010001F2000F076FF1F2000F082FF0022022137
:10102000202000F06EFF202000F07AFF18B010BDE5
:1010300038B52DED028B84B03B4D404C608B029057
:101040000120019004F1580000900123228BA0217F
:101050002846FFF71AF9012000F072FF2846FFF733
:10106000E8FA2428FAD02846FFF7E3FA2228FAD033
:101070002846FFF7DEFA2128FAD02846FFF7D9FAEA
:101080002028FAD1608B029006200190A01D0090CC
:101090000123228BA0212846FFF7C1F92846FFF73C
:1010A000C8FA2428FAD02846FFF7C3FA2228FAD033
:1010B0002846FFF7BEFA2128FAD02846FFF7B9FAEA
:1010C0002028FAD194ED148BA079E17940EA01202F
:1010D00000B200F049FF53EC182B00F057FF01F06D
:1010E00079F8A062207A617A40EA012000B200F02B
:1010F0003BFF53EC182B00F049FF01F06BF8E06266
:10110000A07AE17A40EA012000B200F02DFF53EC12
:10111000182B00F03BFF01F05DF8206304B0BDEC3C
:10112000028B31BD0000000060060020005400402A
:101130009B2D80104C10024000040048300000201D
:1011400001480068704700BF1C03002070477047CB
:101150007047704738B5040001D1012032BD2168C5
:1011600004F12405DFF87C0381420BD2DFF8780319
:1011700041181420B1FBF0F080002862DFF86C0306
:10118000E8610AE0DFF8680341181420B1FBF0F0D1
:1011900080002862DFF85C03E86102206870216843
:1011A0000A686FF30E12A0680243E06802432069E8
:1011B000024360690243A0690243E0690243206A76
:1011C00002430A60204600F065F9A068B0F5804F40
:1011D00001D1002060602079696A0860E86AA96A24
:1011E0004860606800280BD0052809D2204600F02E
:1011F0006BF90020296B0860A86B696B486003E0FD
:10120000002028636863A8630020A861012068703B
:101210000020287032BDF8B50446002504F12406EC
:101220003078012801D10220F2BD012030707078A1
:10123000012831D1022070702846B061206807680B
:101240007F087F000760204600F003F92168F068FE
:101250000028086803D040F00E00086007E020F086
:10126000040008602068016841F00A010160706AAA
:101270000168C90303D5016841F480710160306BD6
:10128000002803D0016841F4807101602068016882
:1012900041F00101016002E0284630700225284635
:1012A000F2BD10B4002100F124025378022B03D0C8
:1012B00004209061012123E003681C6824F00E04DF
:1012C0001C60536A1C6824F480741C600068036806
:1012D0005B085B000360012092F8203003F01F03DD
:1012E0009840D3695860D06A936A5860106B0028A0
:1012F00006D0036823F480730360906B536B5860CF
:101300000120507000201070084610BC704710B5C6
:10131000002400F124025178022907D004209061B2
:10132000012050702046107001242BE001680B68EA
:1013300023F00E030B6001680B685B085B000B6019
:10134000516A0B6823F480730B60012192F82030FE
:1013500003F01F039940D3695960D16A936A5960B9
:10136000116B002906D00B6823F480730B60916B1E
:10137000536B596001215170214611705169002948
:1013800000D08847204610BDF0B400F12401CA699E
:1013900014680268156891F8206006F01F0604239F
:1013A00003FA06F73C4214D06F0712D51468A4065E
:1013B00003D4146824F00404146091F8202002F08F
:1013C0001F029340CA695360C96800293CD0F0BC31
:1013D0000847022303FA06F73C4218D0AF0716D598
:1013E0001468A40605D4146824F00A0414600122C9
:1013F0004A7091F8202002F01F029340CA6953609E
:1014000000220A70896800291ED0F0BC0847082312
:1014100003FA06F6344217D02B0715D5136823F0CC
:101420000E031360012291F8203003F01F039A404D
:10143000CB695A6001228A614A7000220A700969E8
:10144000002901D0F0BC0847F0BC704790F8250097
:10145000704730B4046DC56C6C60446D002C02D0D4
:10146000C46D856D6C60012490F8445005F01F0533
:10147000AC40056C6C600468636003688468102C81
:1014800003D19A600068C16002E099600068C260A0
:1014900030BC70470168184A124B994200D3203281
:1014A00001F0FF0108391423B1FBF3F1436C9B08F1
:1014B00012EB83028264114AC264012201F01F010F
:1014C00002FA01F10165704701790D4A02EB8102D0
:1014D00042650C4A82650122491E01F01F018A40C3
:1014E000C265704708040240F8FFFDBF00000240DB
:1014F000F8FBFDBF000402400008024080080240E3
:10150000FC080240400902407047000080B500F02E
:1015100095FE00F00FF800F0ADFE00F0DFFE00F0E9
:1015200005FFFFF7F3FC01F0B5FA00F03EF800F01C
:1015300097F8FCE700B593B00022382105A800F029
:101540004FFA00221421684600F04AFA002001F008
:1015500071FB012005904FF48030069002200C9022
:1015600003200D9006200E9055200F900220109021
:101570001190129005A801F0D5FB002801D000F0D1
:10158000CFF90F20009003200190002002900390DB
:1015900004900421684601F0B1FD002801D000F05C
:1015A000BFF901F0C9FE13B000BD10B572B6DFF887
:1015B00040432046D4F8A81088474FF48072216930
:1015C000206801F096FF002801D000F0A9F9DFF8AB
:1015D0002443206802F014FE002801D000F0A0F996
:1015E0000022A16E206802F0D6FE002801D000F093
:1015F00097F907224FF42071DFF8FC0202F0CBFECE
:10160000002801D000F08CF90020A060E0604FF4C9
:101610000020206100206061A061E06120626062C2
:1016200062B601F0DAF90121DFF8D00200F0F4FB34
:10163000DFF8CC12087010BD10B5DFF8C84204F115
:10164000380001F05DF8206E401C2066052806DB9E
:10165000A07B012803D100F0CAFF0020206610BD46
:1016600038B5DFF8A042FFF76BFDA065A04D2078EC
:10167000002806D00FF2AC21284603F06EF80020B7
:1016800020702846D5F8AC108847A078002804D0F0
:10169000A07B00F026FF0020A070E07800280BD08F
:1016A000012505E0E17B2846C0B200F02DFF6D1C4E
:1016B000052DF7DB0020E070607800280BD00125B5
:1016C00005E00B212846C0B200F01EFF6D1C052D61
:1016D000F7DB00206070207900280AD0012504E0A3
:1016E0002846C0B200F0C0FF6D1C052DF8DB0020BD
:1016F0002071A07900280AD0012504E02846C0B254
:1017000000F0E5FF6D1C052DF8DB0020A071E079ED
:1017100000280AD0012504E02846C0B200F0DBFF13
:101720006D1C052DF8DB0020E071607900281FD0CA
:10173000012519E02846C0B200F0C9FF46F2640254
:10174000714805EBC50100EB810030F9221C914284
:10175000F6D150F81C0C00F007FC04F1100202EB6B
:10176000C502C2E900016D1C052DE3DB002060719C
:10177000207A002808D0628AD2B2B4F91410207BF3
:1017800000F061FF00202072607A00280BD0E06D2D
:101790000090638ADBB2B4F91420617B207B00F0F7
:1017A00058FE00206072607C042811D1207C0B2838
:1017B0000CD1012504E02846C0B200F080FE6D1C6B
:1017C000052DF8DB00206074207401E000F0A8F81B
:1017D000A07A002801D0FFF72BFCFFF7B1FCA16D28
:1017E000401AE07231BD49480178491C01707047C8
:1017F000F8B50268136D5B0701D5042313653D4CF2
:10180000256800682A6890425BD1A06E014258D0DA
:1018100004F1580304F13002616E284602F02EFDF7
:10182000002802D000F07CF83BE0206B00F07F0144
:10183000491E374D297000F4F0606880B0F5C07F14
:1018400040D0B0F5B06F2CD1C9B224262E4F16FB74
:1018500001F03844C2699047B81C297816FB01F69C
:10186000805F46F2640188421BD12E78254800EB48
:10187000C607254806EBC60100EB8100806800F032
:1018800073FBD7E9062303F097F8224A224B03F0B3
:1018900005F905EBC602D2E9022300F077FBC7E9A0
:1018A0000E014021144802F064FD022809D304F11E
:1018B000580304F13002616E206802F0DFFC00285A
:1018C000F5D1F1BD0F4E707C401C7074C9B2307CF4
:1018D00010EB410030740C4801EBC10200EB8200B8
:1018E000026A90470128C0D00B20F073D9E70000AE
:1018F0006C02002070010020FC050020000400485C
:10190000B3060020C0000020DC010020B406002047
:10191000980000205D8940F50F22493F8CE6704712
:1019200072B6FEE741542B434F4E4D41433D373095
:10193000423846363937373639320D0010B400F1A7
:1019400040025378202B20D11378012B01D10220A3
:101950001CE0012313702423537003681C6864087F
:1019600064001C6003681C6824F480541C600368D5
:101970001C68214319600068016841F001010160A1
:10198000202050700020107000E0022010BC704732
:1019900010B400F140025378202B1ED11378012B94
:1019A00001D102201AE0012313702423537003682D
:1019B0001C68640864001C6003681C6824F470647C
:1019C00044EA01241C600068016841F001010160E3
:1019D000202050700020107000E0022010BC7047E2
:1019E00062F30F2262F31F4200B500BF1300964658
:1019F0009446103928BFA0E80C50FAD85FEA417C21
:101A000028BF0CC048BF40F8042BC90728BF20F8E6
:101A1000022B48BF00F8012B00BD00002DE9FC4758
:101A2000054600242646DFF850722868000369D571
:101A3000A046F86CC0000AD4F86C40F08050F864FE
:101A4000F86C00F08050009000984FF00108DFF82B
:101A50002C92D9F8000040F48070C9F80000FFF71C
:101A60006FFB8246D9F80000C00506D4FFF768FB7B
:101A7000A0EB0A000328F5D3032420003AD1DFF8B5
:101A80000092D9F8000010F4407014D0296C8842FC
:101A900011D0D9F8000020F44070D9F8001041F4BA
:101AA0008031C9F80010D9F8001021F48031C9F84C
:101AB0000010C9F80000C0070FD5FFF741FB8246B0
:101AC000D9F80000800708D4FFF73AFBA0EB0A0022
:101AD00041F289318842F3D30324200008D1D9F898
:101AE000001021F44071286C0143C9F8001002E095
:101AF000264600E02646B8F1010F03D1F86C20F02D
:101B00008050F8642878C00705D5F96F890868689F
:101B100050EA8101F9672878800705D5F96F21F02F
:101B20000C01A8680143F9672878400705D5F96FCB
:101B300021F03001E8680143F9672878000705D5EE
:101B4000F96F21F0C00128690143F9672878800600
:101B500005D5F96F21F4406168690143F967287878
:101B6000400605D5F96F21F44051A8690143F96792
:101B70002878000605D5F96F21F44041E869014352
:101B8000F9672868C00505D5F96F21F44031286A46
:101B90000143F9672868800505D5F96F21F44021D4
:101BA000686A0143F967286840050DD5F96F21F48B
:101BB0004011A86A0143F967A86AB0F5801F03D1F4
:101BC000386840F480103860286800050DD5F96F3A
:101BD00021F44001E86A0143F967E86AB0F5800F33
:101BE00003D1386840F4801038602868C0040DD5EF
:101BF000F96F21F04071286B0143F967286BB0F150
:101C0000807F03D1386840F48010386028688004F1
:101C10000DD5F96F21F04061686B0143F967686B7E
:101C2000B0F1006F03D1386840F480103860286844
:101C300040040DD5F96F21F04061A86B0143F967AD
:101C4000A86BB0F1006F03D1386840F480103860A1
:101C5000286800040DD5F96F21F04051E86B01436D
:101C6000F967E86BB0F1805F03D1386840F48030E9
:101C700038603046BDE8F6870C1002400070004026
:101C800090100240F8B502460B4600242DE04FF0BC
:101C9000060C05E0DFF890C16245F8D14FF0050C65
:101CA0000CFA06FC4CEA070C45F821C05F498E6827
:101CB000C5432E405F68FF0200D506438E60CE68A4
:101CC0002E405F68BF0200D50643CE604E682E40AE
:101CD0005F68BF0300D506434E600E682E405D6806
:101CE000ED0300D506430E60641C18680146E14010
:101CF00000F091800127A7403840F5D0610003250E
:101D00008D40ED435E6806F0030CBCF1010F03D07B
:101D100006F00306022E10D196682E40D3F80CC0B0
:101D20000CFA01FC4CEA060696605668BE435F68F2
:101D3000C7F30017A7403E4356601E7906F003061E
:101D4000032E05D0D6682E409F688F403E43D66054
:101D50001E7906F00306022E15D12646F60802EB80
:101D600086073E6A4FEA840C0CF01C0C4FF00F0EF5
:101D70000EFA0CFE26EA0E06D3F810E00EFA0CFC62
:101D80004CEA06063E6216682E401D7905F00305F2
:101D900005FA01F10E431660596811F4403FA3D0D3
:101DA00023490D6845F001050D60096801F0010146
:101DB00000910099214689081E4D55F82170A60012
:101DC00006F00C064FF00F0C0CFA06FC27EA0C0785
:101DD000B2F1904F02D14FF0000C61E7DFF858C02C
:101DE000624502D14FF0010C5AE7DFF850C062455E
:101DF00002D14FF0020C53E7DFF844C0624502D134
:101E00004FF0030C4CE7DFF83CC062457FF442AF73
:101E10004FF0040C44E7F1BD006901400846401E44
:101E20008041C043C00F70470014004800040140C7
:101E3000601002400800014000040048000800480B
:101E4000000C004800100048374A13684FF6FF01A5
:101E50000B40000200F4E06018433449084310606E
:101E6000704731480068C0F302207047010007D472
:101E7000012200F01F018A402D49400941F820202D
:101E800070470901020002D42A48815470472A4849
:101E900002F00F02104400F8041C704710B400F068
:101EA0000700C0F10703052B00D30423041D072CF2
:101EB00001D2002000E0C01E012404FA03F35B1EDF
:101EC0001940814004FA00F0401E1040084310BC45
:101ED000704738B50446641EB4F1807F0AD2174DAE
:101EE0006C600F214FF0FF30FFF7CBFF0020A860A0
:101EF00007202860B4F1807F8041C043C00F32BD0D
:101F0000A2E770B504460D461646FFF7AAFF324613
:101F10002946FFF7C3FF01462046BDE87040B0E701
:101F2000A4E7D6E7FFF7FABC0CED00E00000FA05E5
:101F300000E100E000E400E018ED00E010E000E067
:101F400038B50446FFF7FCF8054614F1010F02D03E
:101F5000044880680419FFF7F3F8401BA042FAD345
:101F600031BD00BF1C03002010F0004160B148BF2C
:101F70004042B0FA80F29040D21CC2F5846241EA3D
:101F8000025202EBD021400570470000F0B540F24C
:101F9000FF7581EA030C0CF0004C15EA11541DBFCB
:101FA00015EA1357AC42AF42E5E0BC41C1F313015F
:101FB000C3F31303801A994143F4801304D2641EBF
:101FC0000018494180185941C90241EA5051B1FBFA
:101FD000F3F603FB1611A2FB0675D7EBC020A9414F
:101FE00002D2761E80185941C90241EA5051B1FB14
:101FF000F3FE03FB1E11A2FB0E75D7EBC020A94117
:1020000003D2AEF1010E80185941890241EA905184
:10201000760546EA8E2EB1FBF3F603FB1611A2FB02
:102020000675D7EB8020A94102D2761E801859414F
:10203000C90241EA50514EEA060EB1FBF3F603FB2A
:102040001611A2FB0675D7EBC020A94102D2761E5D
:1020500080185941C90241EA5051B1FBF3F703FB23
:102060001711A2FB0735D3EBC020A94167F1000788
:102070000CBF004247F0010766F3D5274FEA1E3137
:10208000B80814F5806412DDBD0775F1004250EB0D
:102090000E5051EB045111F5801F5CBF41EA0C0159
:1020A000F0BD4CF07F6141F0E0410020F0BDBD0784
:1020B0006D0840EA0E5041F48011D4F10104B4F1EE
:1020C00020060ADAC4F120060200E04001FA06F315
:1020D000E1401843B24015430EE0342C13DCC6F146
:1020E000200445EA40056D0820FA06F2154321FA5E
:1020F00006F0A1400D43002175F1004250F10000AF
:1021000051EB0C01F0BD00205FEA0C01F0BDCFB92E
:1021100092185B41B3FA83F704BFB2FA82F6BF1993
:102120000B3FB7F120062FBF02FA06F3BB40C7F101
:10213000200622FA06F638BF3343BA401CB1E41930
:10214000641E33E77F4231F00041B1FA81F404BFED
:10215000B0FA80F6A4190B3CB4F120062FBF00FAA8
:1021600006F1A140C4F1200620FA06F638BF31433B
:10217000A0403C1B1AE7AC421ABF05EA1357AF4216
:1021800012E050EA41061CBF52EA4306BFE750EA9C
:102190004107304661461CBF41EA0551F0BD52EA95
:1021A000430C08BFC143F0BD00204FF4001616EBEE
:1021B000410F98BF16EB430F08BF16EB410F24BF2A
:1021C000C14305E016EB430F0CBF61464CEA0551D5
:1021D000F0BD000001F000428B1AA3F16051B1F58F
:1021E000801F0ADBB1F17F6F1FD242EAC102C1003A
:1021F00071F1004142EB507070470B15C3F10903B8
:10220000212B10D2890241EA9051800201284941D4
:1022100041F0004121FA03F0C3F12003994071F12C
:10222000004150417047100070476FF0000013EB01
:10223000103F5CBF000E42EAC050704710B500244A
:102240000B48016821F480610160016841F48071EC
:1022500001600320FFF754FE204602F0F5FC002841
:1022600001D0012401E002F017FD204610BD00005E
:102270000020024080B586B00022142101A8FFF79B
:10228000AFFB1448016841F020010160016801F0D2
:10229000200100910099016841F00101016001688D
:1022A00001F0010100910099016841F00201016013
:1022B000006800F0020000900098012001900020CA
:1022C00002900120039001A90348FFF7DBFC07B04F
:1022D00000BD00BF4C1002400004004880B5124809
:1022E000016841F004010160016801F004010091FE
:1022F0000099016841F001010160006800F00100EF
:1023000000900098002211460B20FFF7FAFD0B20E9
:10231000FFF706FE002211460C20FFF7F2FD0C200D
:10232000BDE80240FFF7FCBD4810024010B586B082
:10233000DFF8FC46DFF8FC06206000206060A0604B
:10234000E0600120207400206074A0740A206061A5
:102350000120A0610E20E061022020620120606265
:10236000A062E06220631C2060630020A063E06341
:10237000204601F03DFE002801D0FFF7D1FA0020F1
:10238000009001900290012003900020049040F200
:10239000FF7005906946204601F006FF002801D035
:1023A000FFF7BEFA06B010BD18B597B0044600227C
:1023B000142101A8FFF714FB0022442106A8FFF70F
:1023C0000FFB2068DFF86C16884240D14FF4805034
:1023D00006904FF00070129006A8FFF71FFB002830
:1023E00001D0FFF79DFADFF89806C16841F000714F
:1023F000C160C16801F0007100910099016841F06D
:1024000001010160006800F00100009000984FF4A5
:10241000C0500190022002900120039003200490FC
:102420000920059001A94FF09040FFF72BFC0022F6
:1024300001211520FFF765FD1520FFF771FD002232
:1024400001211620FFF75DFD1620FFF769FD18B08A
:1024500010BD3CB4049DDFF8E84500F5C060606045
:10246000012904D0022908D004290ED01BE004F170
:1024700028002F210170057118E004F128002B219C
:10248000017005712D12457110E004F1280023211F
:10249000017005712946091241712946091481719B
:1024A0002D16C57102E0222084F8280004F12800CE
:1024B000427012128270C370204636BCA6E0DFF86C
:1024C000801500F500724A6000EBC00201EB82004B
:1024D000B0F9560001F12802107000125070084641
:1024E00094E070B50446DFF8585505F1280600223F
:1024F00008213046FFF774FA00206860347070706D
:102500002846BDE8704081E038B5054646F24004F3
:102510000091002322460221FFF79BFFDFF82005F0
:10252000294601EBC10200EB8200B0F94A00A0424B
:10253000F4D131BD10B4491C0170DFF8FC140A78E5
:102540004B7842EA0322428012B246F23F03D21A8B
:102550000AD0921E02D0233A19D023E0CA78097912
:1025600042EA012282801DE0DFF818251378CC783A
:10257000097944EA0124194600EB410004825B1CFE
:102580001370DBB2052B0DD1002010700AE0CA7861
:102590000B7942EA03224B7942EA0342897942EA03
:1025A0000162826010BC7047491C017046F2410113
:1025B0004180DFF8D4140A784B7842EA0322828003
:1025C0008A78CB7842EA0322C2800A794B7942EAC0
:1025D00003228B7942EA0342C97942EA01628260AE
:1025E0008088C0F3C000401E8041C00F704710B506
:1025F000DFF84C44802060600022082104F12800AC
:10260000FFF7EEF92046BDE81040FFE710B504469D
:1026100020680068006D8005FAD4206801F0B5FEDE
:102620000028FAD004F12802211D206801F0FDFDE8
:10263000002801D0FFF774F920680068006DC0041D
:1026400000D5FEE710BD18B4DFF8F43300F5C06024
:10265000586003F128004024047041700912817011
:10266000C270184612BCD1E7F8B50446002646F2FF
:10267000410532462946FFF7E6FF06E0761CDFF803
:10268000BC03864201D3FFF74BF9DFF8B4032146C0
:1026900001EBC10200EB820000F14A07B7F900002C
:1026A000A842EBD17888C0F3C00000280ED046F2D3
:1026B0003F05002229462046FFF7C5FFDFF8CC136F
:1026C00000E00880B7F90000A842FAD1F1BD00226D
:1026D00046F26401B7E71CB50446002000900346AB
:1026E00041F2030201212046FFF7B3FE00212046FC
:1026F000FFF70AFF80212046BDE81C4004E70000E8
:102700002DE9F84F2DED0A8B82B004460121CD480A
:10271000FFF782FBCC49087001280BD1002001464D
:10272000CA4A042880F2548100EBC0039B00D152B6
:10273000401CF6E7D4E90023D4E9020102F07EF858
:10274000FFF748FD00EE100A02F0C0FAC04DC14F7D
:10275000DFF8049310EE100A02F0FEFAD9E9002324
:1027600002F09CF9D7E9002302F098F9C5E90201CB
:10277000D4E90001FFF72EFD00EE100A02F0A6FAE0
:10278000B0EE409AD4E90001FFF724FD00EE100AF4
:1027900002F09CFAF0EE409A95ED02AB9FEDAF8B04
:1027A000DFF8C0B219EE100A02F0D6FADBE9002316
:1027B00002F074F9D7E9002302F070F953EC1A2BF8
:1027C00002F03CF8CDE9000119EE900A02F0C4FADB
:1027D00053EC182B02F062F9A74AD2E9002302F069
:1027E0005DF9DDE9002302F029F841EC1B0B85EDD2
:1027F00000BB964EA64890ED00CBDFF86CA29FED93
:102800009B9BDFF8708251EC1A0BD8E90223FFF78B
:10281000BDFB53EC1C2BFFF7B9FB53EC192B02F05B
:102820003DF9DAE9022302F039F902F0B9FAB0848D
:1028300051EC1B0BD8E90023FFF7A8FB53EC1C2B32
:10284000FFF7A4FB53EC192B02F028F9DAE9002377
:1028500002F024F902F0A4FA3080D4E90423D4E988
:10286000060101F0EBFFFFF7B5FC00EE100A02F0E5
:102870002DFA10EE100A02F06FFA02460B46D9E963
:10288000000102F00BF9D7E9002302F007F9C5E9CE
:102890000601D4E90401FFF79DFC00EE100A02F0E6
:1028A00015FAB0EE40AAD4E90401FFF793FC00EE5C
:1028B000100A02F00BFAF0EE40AA95ED06BB1AEEF4
:1028C000100A02F049FA02460B46DBE9000102F069
:1028D000E5F802460B46D7E9000102F0DFF853ECB9
:1028E0001B2B01F0ABFFCDE900011AEE900A02F0BC
:1028F00033FA53EC182B02F0D1F85F4AD2E90023E7
:1029000002F0CCF8DDE9002301F098FF41EC180B50
:1029100085ED048B594F5E4890ED00AB51EC1B0BDD
:10292000D8E90623FFF732FB53EC1A2BFFF72EFBF7
:1029300053EC192B02F0B2F8DAE9062302F0AEF8F4
:1029400002F02EFAB88451EC180BD8E90423FFF7F3
:102950001DFB53EC1A2BFFF719FB53EC192B02F05C
:102960009DF8DAE9042302F099F802F019FA3880A8
:10297000D4E9000121F0004195ED088B53EC182BB0
:1029800002F02AFA01D800203080D4E9020121F0B7
:10299000004195ED0A9B53EC192B02F01DFA01D86A
:1029A0000020B084D4E9040121F0004153EC182B3D
:1029B00002F012FA01D800203880D4E9060121F093
:1029C000004153EC192B02F007FA01D80020B8841B
:1029D00002B0BDEC0A8BBDE8F18F1CB5012420E0EC
:1029E0002046C0B2FFF740FE0A200090002346F2C6
:1029F000600201212046C0B2FFF72BFD00200090AD
:102A0000034642F2010201212046C0B2FFF721FD38
:102A1000601C0B4904EBC40201EB820181F86C00DD
:102A2000641C052CDCDB8020BDE8164059E5000065
:102A3000FC05002000640040C9010020C0C62D0034
:102A40007001002000040048B3060020EA010020C5
:102A5000000000203801002030010020F6285C8FA3
:102A6000C2E1774028010020500100200000000052
:102A700000408F40A00000204001002032020020D2
:102A80004C100240B2060020C8010020B006002011
:102A90004801002010B5624C624820604FF4E130DC
:102AA00060600020A060E06020610C2060614FF455
:102AB0004070A0610020E06120626062A062204658
:102AC00000F08EFC002801D0FEF72AFF00212046EE
:102AD00002F0BAF9002801D0FEF722FF00212046BB
:102AE00002F0D5F9002801D0FEF71AFF204602F0C7
:102AF0008DF9002803D0BDE81040FEF711BF10BDCE
:102B000078B597B00446002214216846FEF768FFA6
:102B10000022442106A8FEF763FF2068414988424D
:102B20007BD1022006900020089006A8FEF776FFD1
:102B3000002801D0FEF7F4FE3B48C16841F40031A3
:102B4000C160C16801F4003105910599016841F047
:102B500001010160006800F0010005900598072060
:102B60000090022001900020029003900720049022
:102B700069464FF09040FFF785F80820009002204A
:102B800001900120029000200390072004906946E4
:102B90004FF09040FFF776F8244D254E2E601A2016
:102BA00068600020A860E8608020286100206861DB
:102BB000A8612020E8614FF4805028622846FEF783
:102BC000C9FA002801D0FEF7ABFEE567AC6206F15A
:102BD000140028661B2068661020A8660020E8669E
:102BE0008020286700206867A867E867C5F880002C
:102BF00005F16000FEF7AEFA002801D0FEF790FE66
:102C000005F16000A067C5F8884000220A2126204F
:102C1000FFF777F92620FFF783F918B070BD0000A1
:102C2000EC040020004400404C1002402C04002022
:102C300008000240DFF8D81000282BD1DFF8D400BC
:102C40000A6802F4C062B2F5806F1ED1026822F4F5
:102C500080720260086820F4C06040F40070086070
:102C6000DFF8B400026832204243DFF8B000B2FB64
:102C7000F0F0401C00E0401E4A69520501D50028D2
:102C8000F9D1486940052ED43AE0016821F48071F9
:102C9000016035E0B0F5007F2CD1DFF878000A68DC
:102CA00002F4C062B2F5806F1FD1026842F48072F4
:102CB0000260086820F4C06040F400700860DFF82B
:102CC0005800026832204243DFF85000B2FBF0F0B7
:102CD000401C00E0401E4A69520501D50028F9D188
:102CE000486940050CD503207047016841F48071A4
:102CF000016005E0086820F4C06040F4806008606E
:102D0000002070470648016841F480410160704727
:102D100000700040807000402803002040420F00F7
:102D2000087000402DE9F843040000F0E281DFF86C
:102D300070562078C00712D5A86800F00C00E9682A
:102D400001F003010C2801D1032901D0082845D145
:102D50002868800303D56068002800F0CA812078C5
:102D6000800721D5A86800F00C00E96801F0030194
:102D70000C2801D1022901D0042866D12868400519
:102D800003D5E068002800F0B481686820F0FE40B8
:102D9000216940EA01606860DFF81006006801F010
:102DA00053FF002840F0A581DFF804662078000773
:102DB00040F1848060690028706870D040F00100A4
:102DC0007060FEF7BDF907467068800776D4FEF79D
:102DD000B7F9C01B0328F7D303208DE16068B0F575
:102DE000803F04D1286840F48030286012E0B0F5BC
:102DF000A02F286807D140F480202860286840F47C
:102E00008030286006E020F480302860286820F4B4
:102E100080202860606800280BD0FEF791F90646F4
:102E2000286880039BD4FEF78BF9801B6528F7D3B5
:102E3000D2E7FEF785F90646286880038FD5FEF7AE
:102E40007FF9801B6528F7D3C6E7E068002828686B
:102E500016D040F480702860FEF772F906462868A4
:102E6000400505D4FEF76CF9801B0328F7D3B3E7C0
:102E7000686820F0FE40216940EA0160686093E7DD
:102E800020F480702860FEF75BF90646286840054C
:102E90008AD5FEF755F9801B0328F7D39CE7400835
:102EA00040007060FEF74CF907467068800705D552
:102EB000FEF746F9C01B0328F7D38DE720784007BB
:102EC00068D50027A86DC00009D4A86D40F08050D7
:102ED000A865A86D00F08050009000980127DFF8E9
:102EE000D484D8F80000C00513D4D8F8000040F40A
:102EF0008070C8F80000FEF723F98146D8F800007A
:102F0000C00506D4FEF71CF9A0EB09000328F5D391
:102F100062E7A068012804D1306840F00100306009
:102F200011E00528306807D140F0040030603068B7
:102F300040F00100306006E040084000306030683A
:102F400020F004003060A06800280ED0FEF7F8F8EA
:102F500080463068800717D4FEF7F2F8A0EB08002F
:102F600041F289318842F4D336E7FEF7E9F880462A
:102F70003068800708D5FEF7E3F8A0EB080041F2BF
:102F800089318842F4D327E7012F03D1A86D20F0BF
:102F90008050A8652078800621D5A0690028B068F7
:102FA0000ED040F00100B060FEF7CAF80746B068E6
:102FB000800714D4FEF7C4F8C01B0328F7D30BE72F
:102FC00040084000B060FEF7BBF80746B0688007D5
:102FD00005D5FEF7B5F8C01B0328F7D3FCE6E0697A
:102FE000002800F08880A96801F00C010C2955D058
:102FF0000228286820F0807028603AD1FEF7A0F8F7
:1030000006462868800105D5FEF79AF8801B03283C
:10301000F7D3E1E6E868DFF8A0130840216A084327
:10302000616A491E40EA0110A16A40EA0120216B51
:103030004908491E40EA4150616B4908491E40EA6F
:103040004160E16A40EAC160E860286840F0807051
:103050002860E86840F08070E860FEF771F8044688
:103060002868800147D4FEF76BF8001B0328F7D3CC
:10307000B2E6E86880088000E860E968DFF83C03B1
:103080000140E960FEF75CF804462868800132D50B
:10309000FEF756F8001B0328F7D39DE6012828D039
:1030A000E86800F00301226A914222D100F0F001A9
:1030B000626A521EB1EB021F1BD100F4FE41A26AEC
:1030C000B1EB022F15D100F07841E26AB1EBC26F8B
:1030D0000FD100F4C001226B5208521EB1EB425FC7
:1030E00007D100F0C060616B4908491EB0EB416F29
:1030F00001D0012000E00020BDE8F2832DE9F84373
:10310000044688460027002C61D0DFF8B4522868B6
:1031100000F00F00404509D22868000948EA001075
:103120002860286800F00F00404550D1DFF8706239
:103130002078C0074DD5606803281AD13068800117
:1031400045D500F00AF9DFF87C12884223D3B06835
:1031500010F0F00F05D0207880071CD5A06800285B
:1031600019D1B06820F0F00040F08000B0608027F6
:1031700011E00228306828D1800328D500F089F8B2
:10318000DFF84012884206D3B06820F0F00040F02B
:103190008000B0608027B1688908606850EA8101CA
:1031A000B160FDF7CDFF8146B06800F00C006168AA
:1031B000B0EB810F0DD0FDF7C3FFA0EB090041F28A
:1031C00089318842F0D3032061E04005D6D4012044
:1031D0005DE02068810715D5400703D5B06840F44D
:1031E000E060B0602078000705D5B06820F460503A
:1031F00040F4E060B060B16821F0F001A0680143E4
:10320000B16005E0802F03D1B06820F0F000B0601D
:10321000286800F00F00804514D22868000948EAA9
:1032200000102860FDF78CFF0746286800F00F00AB
:10323000404507D0FDF784FFC01B41F28931884229
:10324000F3D3C0E72078400705D5B16821F4E061E9
:10325000E0680143B1602078000706D5B06820F42B
:103260006050216940EAC100B06000F012F8564990
:10327000B268C2F30312895C01F01F01C8404A49D9
:1032800008604A480068BDE8F24301F0DDBCBDE8D3
:10329000F2834E49086800F00C00042801D141482F
:1032A0007047086800F00C00082801D148487047B2
:1032B000086800F00C000C281FD14A6802F00302D5
:1032C0004868C0F30310401C032A07D1404AB2FBF0
:1032D000F0F24868C0F30620424306E0314AB2FBF0
:1032E000F0F24868C0F3062042434868C0F34160EA
:1032F000401C4000B2FBF0F07047002070472A48A5
:103300000068704780B5FFF7FAFF32492F4A12680C
:10331000C2F30222895C01F01F01C84002BD80B5E2
:10332000FFF7EDFF2B49294A1268C2F3C222895CDC
:1033300001F01F01C84002BD1948016841F4002195
:103340000160704710B5244C2068C00504D501F019
:10335000EDFD4FF48070606010BD20490A6802F0F6
:1033600003020868C0F30310401C032A07D1184A5F
:10337000B2FBF0F20868C0F30620424306E0094AB7
:10338000B2FBF0F20868C0F3062042430868C0F3BD
:103390004160401C4000B2FBF0F0704700000000AC
:1033A000001002400024F400280300202003002025
:1033B00090100240007000400C809F01FFFFEEFE65
:1033C0000020024001B4C404745C000808100240EC
:1033D00000366E01F85C00081C1002400C10024020
:1033E00038B5040015D004F180056868002804D1C0
:1033F000002028702046FFF783FB242068602068A7
:103400000168490849000160204600F01BFA0128C4
:1034100001D1012032BDA06A002802D0204600F070
:103420006BFB2068416821F490414160206881680D
:1034300021F02A0181602068016841F001010160EA
:103440002046BDE8324000F0BBBB70B504461346D1
:1034500004F180056868202849D1002901D01800AE
:1034600001D1012070BD2878012840D001202870AA
:10347000216504F15406338073800020E860212028
:103480006860706A00281ED0DFF8AC13C162DFF8F4
:10349000AC03716A0863DFF8A803716A486300200F
:1034A000716A8863206800F12802216D706AFDF757
:1034B000B2FE002807D01020E860002028702020ED
:1034C0006860012070BD40202168086200202870DB
:1034D0002068083050E8001F41F08001206800F1AA
:1034E000080242E800100028F2D1002070BD02203E
:1034F00070BD30B4034603F180008468202C22D1D3
:10350000002901D0140001D101201DE00478012C14
:1035100019D0012404700020D8661868DFF814431D
:10352000A0420CD04068000209D5186850E8004F4E
:1035300044F08064054645E800400028F5D118466F
:1035400030BC00F0DABB022030BC7047F8B504464E
:103550002668F1693268B36840F60F00084004F14C
:103560005C050DD18F060BD5970601D4DF0007D57A
:103570006969002900F05D812046BDE8F4400847F4
:10358000002800F08C80DFF8B408034204D1DFF893
:10359000B0783A4200F083800F46FF0707D5D70581
:1035A00005D5012737622E6B46F001062E638E0784
:1035B00009D51E46F60706D5022627683E622E6B01
:1035C00046F004062E634E0709D51E46F60706D5BB
:1035D000042627683E622E6B46F002062E630E0715
:1035E0000AD5960601D4034206D008202668306228
:1035F000286B40F008002863080509D5500107D55D
:103600004FF4006026683062286B40F02000286389
:10361000286B002800F00D81880608D5900601D49B
:10362000D80004D56969002901D020468847286B55
:1036300021688968490602D410F0280F29D0204655
:1036400000F0D0FB2068806840061DD52068083057
:1036500050E8001F21F04001206800F1080242E814
:1036600000100028F2D1286A00280DD0DFF8D41706
:103670008163286AFDF74BFE002800F0DA80286A93
:10368000816BBDE8F44008472046BDE8F24001F0F8
:103690004EBC204601F04BFC00202863F1BD286998
:1036A000012840F09280C80640F18F80D00640F19A
:1036B0008C80102030622068806840064ED5286AD1
:1036C0000068406880B2002800F0B38029888842F2
:1036D00080F2AF806880286A00680068800634D471
:1036E000206850E8001F21F48071024642E8001073
:1036F0000028F5D12068083050E8001F490849002B
:10370000206800F1080242E800100028F2D1206889
:10371000083050E8001F21F04001206800F1080245
:1037200042E800100028F2D12020E8620020286141
:10373000206850E8001F21F01001024642E8001006
:103740000028F5D1286AFDF7ACFD29886888091A98
:1037500089B22046BDE8F44001F0EABB28886988B8
:10376000411A6888002864D0084680B2002860D0DA
:10377000206850E8002F22F49072034643E80020AE
:103780000028F5D12068083050E8002FDFF84C03FE
:103790000240206800F1080343E800200028F1D12E
:1037A0002020E862002028616861206850E8002F2E
:1037B00022F01002034643E800200028F5D189B228
:1037C0002046BDE8F44001F0B3BBC80209D5580259
:1037D00007D54FF4801030622046BDE8F24001F07A
:1037E000A8BB08060AD5100601D4180206D5A96997
:1037F00000291ED02046BDE8F4400847480606D5FB
:10380000500604D52046BDE8F24000F0DBBB0802BC
:1038100006D5500004D52046BDE8F24001F08ABB31
:10382000C80106D5002A04D52046BDE8F24001F0C3
:1038300082BBF1BD008000406D3E0008B33E000831
:10384000653F0008F8B50446002521680A68DFF8DE
:10385000FC050240A06802432069024360690243FC
:10386000E06902430A6021684A6822F44052E06835
:1038700002434A60A2692368DFF8CC158B4201D06D
:10388000206A02439E68DFF8C805064032439A600A
:103890002268D36A1B09606A50EA0313D362206866
:1038A000DFF8B02590420CD1DFF8AC25126802F0A9
:1038B0000302032A15D8DFE802F00248355E012230
:1038C00010E0DFF8982590421BD1DFF88C251268B4
:1038D00012F00C024DD0042A37D0082A22D00C2A2C
:1038E00049D01022884240F07F80002A06D0022A68
:1038F00043D0042A44D0082A45D047E0FFF702FD10
:1039000046E0DFF85C2590420ED1DFF84C251268C6
:1039100012F030022DD0102A17D0202A02D0302ADF
:1039200029D0DEE70222DDE7DFF8382590420ED10C
:10393000DFF82425126812F0C0021AD0402A04D001
:10394000802AEFD0C02A16D0CBE70422CAE78842EB
:10395000C7D1DFF80425126812F4406209D0B2F52D
:10396000806FF2D0B2F5006FDCD0B2F5406F02D0BC
:10397000B7E72A46B6E70822B4E7DFF8EC0407E029
:10398000FFF787FC04E04FF4004001E028460125E2
:10399000002800F0988000BF51A1626A31F812102F
:1039A000B0FBF1F63046626802EB4201884202D376
:1039B0001103814201D2012585E0002747EA1667FD
:1039C00010464008002110EB06207941002301F049
:1039D000B3FAA0F54071DFF81026914202D22168B7
:1039E000C86070E001256EE0E069B0F5004F38D1A5
:1039F000082A15D8DFE802F005080B140E14141479
:103A00001100FFF77FFC0DE0FFF789FC0AE0DFF80B
:103A1000580407E0FFF73DFC04E04FF4004001E0EC
:103A20002846012500284ED0D4F804102CA2636A41
:103A300032F81320B0FBF2F00A46520802EB4002C3
:103A4000B2FBF1F04FF6F071A0F110028A4206D2FB
:103A50000140C0F3420001432068C16033E001250A
:103A600031E0082A15D8DFE802F005080B140E141F
:103A700014141100FFF746FC0DE0FFF750FC0AE0BC
:103A8000DFF8E40307E0FFF704FC04E04FF4004034
:103A900001E028460125002815D0616810A2636A5C
:103AA00032F81320B0FBF2F000EB5100B0FBF1F064
:103AB000A0F110014FF6F072914203D280B221685A
:103AC000C86000E0012504F1680001214180018007
:103AD00000218160C1602846F2BD0000FEFFFFEFBB
:103AE000010002000400060008000A000C0010009B
:103AF000200040008000000190F82810C90706D57A
:103B00000268536823F40033C16A0B43536090F892
:103B10002810890706D50268536823F48033016BA7
:103B20000B43536090F82810490706D50268536884
:103B300023F48023416B0B43536090F8281009074E
:103B400006D50268536823F40043816B0B4353602E
:103B500090F82810C90606D50268936823F48053AC
:103B6000C16B0B43936090F82810890606D5026854
:103B7000936823F40053016C0B43936090F8281072
:103B8000490611D50268536823F48013416C0B4336
:103B90005360416CB1F5801F06D10268536823F46D
:103BA000C003816C0B43536090F82810090606D5BA
:103BB00001684A6822F40022C06C02434A607047E0
:103BC0007CB5044604F180050020E860FDF7B8FAF2
:103BD00006462068006800070BD56FF07E40009015
:103BE000334600224FF40011204600F01BF8002855
:103BF0000FD12068006840070DD56FF07E4000901F
:103C0000334600224FF48001204600F00BF80028D4
:103C100001D0032076BD20206860A8600020E06607
:103C2000287076BD2DE9F04105460E4617469846A8
:103C3000069C2868C0693040B04201D1012000E0F4
:103C400000203946884255D114F1010FF1D0FDF71B
:103C500077FAA0EB0800844201D3002C1FD128681A
:103C600050E8001F21F4D071024642E800100028FD
:103C7000F5D12868083050E8001F49084900286835
:103C800000F1080242E800100028F2D105F180009E
:103C90002021416081600021017003202BE0286811
:103CA00001684907C5D5C1690905C2D54FF400614E
:103CB0000162286850E8001F21F4D071024642E8F2
:103CC00000100028F5D12868083050E8001F490886
:103CD0004900286800F1080242E800100028F2D1EB
:103CE00005F18000202141608160C16000210170E8
:103CF000032000E00020BDE8F08170B504461346C3
:103D0000A16504F15C06338004F180050020E860C1
:103D10002220A860306A00281ED00FF29D11C162D7
:103D20000FF22920316A08630FF23920316A4863A3
:103D30000020316A8863A26D206800F12401306A96
:103D4000FDF769FA002807D01020E86000202870ED
:103D50002020A860012070BD002028702069002864
:103D600009D0206850E8001F41F48071024642E803
:103D700000100028F5D12068083050E8001F41F0FD
:103D80000101206800F1080242E800100028F2D189
:103D90002068083050E8001F41F04001206800F121
:103DA000080242E800100028F2D1002070BD01682E
:103DB00051E8002F22F0C0020B4643E80021002901
:103DC000F5D10168083151E8002F22F400020168A2
:103DD00001F1080343E800210029F2D12021C0F8B5
:103DE00084107047016851E8002F22F490720B464E
:103DF00043E800210029F5D10168083151E8002F7E
:103E0000DFF8E8110A40016801F1080343E80021E6
:103E10000029F1D1C16E012909D1016851E8002FB3
:103E200022F010020B4643E800210029F5D12021A1
:103E3000C0F888100021C1660167704701000010BA
:103E400020010004B53F000800800040F369FFCF67
:103E5000FFF4FF1100380140881002400044004088
:103E600000480040004C00400024F4000146886AED
:103E70000968096889061AD40021A0F8561001685B
:103E8000083151E8002F22F08002016801F1080397
:103E900043E800210029F2D1016851E8002F42F0E7
:103EA00040020B4643E800210029F5D1704701F09C
:103EB0005BB9806A01F059B918B4826A02F15C01F9
:103EC00000680068800634D400204880106850E8FC
:103ED000003F23F48073044644E800300028F5D105
:103EE0001068083050E8003F5B085B00106800F184
:103EF000080444E800300028F2D11068083050E887
:103F0000003F23F04003106800F1080444E800304B
:103F10000028F2D12020C8620869012809D1106860
:103F200050E8003F23F01003044644E80030002826
:103F3000F5D10869012804D10988104614BC00F0A5
:103F4000F7BF104612BC01F011B90000806A00F101
:103F50005C010A69012A03D10988490800F0E8BF19
:103F600001F005B970B5846A04F1840528686E68AB
:103F700021688968090607D5212805D10020A4F801
:103F800056002046FFF713FF20688068400608D5DA
:103F9000222E06D1002004F1560108812046FFF7A9
:103FA00021FFA86840F01000A8602046BDE87040DE
:103FB00000F0BDBF806A00F1560100220A810A802C
:103FC00000F0B5BF016851E8002F22F040020B4617
:103FD00043E800210029F5D12021C0F884100021F8
:103FE000416701F0C1B8000000FD0F00FEFFFFEFC8
:103FF00070B5040001D1012070BD04F15C05287882
:10400000002804D1002068702046FEF7CDF9206812
:10401000816921F010018161FDF792F80646206860
:10402000816909070CD5FDF78BF8801B0B28F6D3A7
:10403000686840F00100686003202870012070BDAE
:10404000816941F001018161FDF77AF80646206837
:104050008169C9070CD4FDF773F8801B0B28F6D3D0
:10406000686840F00100686003202870012070BD7E
:10407000816941F00201816120684949884202D189
:104080006068484908602068217C0129816903D162
:1040900021F04001816102E041F04001816120682E
:1040A000617C0129816903D141F48041816102E091
:1040B00021F4804181612068A17C0129816903D1BB
:1040C00021F48051816102E041F4805181612168D5
:1040D0008A6922F44072A06802438A61206881697B
:1040E00021F0A40181612068016921F010010161C2
:1040F000E068012805D12068816941F004018161EF
:1041000019E0002817D021680228886910D040F0F3
:10411000800088612068016941F010010161E06858
:10412000032808D12068816941F02001816102E003
:1041300040F020008861A069401EE169491E090223
:1041400041EA4061206A401E01436069401E41EA25
:1041500000412068C161A068B0F5407F0FD1A06A1E
:10416000401EE16A491E40EA0120216B491E40EAD7
:104170000110616A491E40EA01402168C860216857
:10418000D1F8C020E06B0243C1F8C020204600F007
:104190003FFA0020A065686001202870002070BDF3
:1041A000006400400065004070B400F15C021378C8
:1041B000012B01D0022B1CD18A6892074B684C69F5
:1041C0000D69CE680968002909D142EAC66242EA4F
:1041D00005422243006C00EB8300026007E02243AB
:1041E000406C00EBC30045EA467505604260002064
:1041F00004E0506840F002005060012070BC70473D
:1042000000F15C010A78012A09D102220A700068D3
:1042100082695208520082610020486070474868F5
:1042200040F0040048600120704738B5044604F1AE
:104230005C000378022B1BD12368D3F8C450AD0275
:1042400005D5416841F400714160012032BDD3F8C9
:10425000C400C0F301452B46204600F013FA0120AC
:1042600000FA05F52068C0F8CC50A565002032BDE5
:10427000416841F008014160012032BDF0B400F115
:104280005C042578022D6DD105689035402912D146
:104290002E6816F00F0F05D1606840F480706060E2
:1042A000012064E02C68C4F30125866C05EBC5048D
:1042B00006EBC40611E0AE6816F00F0F05D160687A
:1042C00040F480706060012051E0AC68C4F30125C7
:1042D000C66C05EBC50406EBC406346814F08044D4
:1042E0005460376803D1C7F38A44146002E027F0B2
:1042F00060471760346804F00054946056F8044B2B
:1043000004F0004414613468A4B2D461346804F445
:104310007024D460346804F480145461346804F464
:10432000001494613468C4F30664146256F8044BB4
:10433000E40F5462002402E0375D1F55641C0FF245
:10434000B437D2F80CC04FEA1C4C17F80C70BC42C2
:10435000F2D300689430402901D1056000E0856007
:10436000002004E0606840F0080060600120F0BCBC
:10437000704700689030402903D1006800F00F00BA
:104380007047806800F00F0070470068D0F8C400E4
:1043900000F00700704730B400F15C031C78012C7A
:1043A00001D0022C66D10468A36D11F0070F01D073
:1043B000DD071DD511F0380F01D09D0718D511F478
:1043C000E07F01D05D0713D511F4F05F01D01D0728
:1043D0000ED511F4604F01D0DD0609D511F4403F30
:1043E00001D09D0604D511F47C0F05D05D0603D4E1
:1043F000E56D45F00105E56511F0070F01D0DC071B
:104400001DD411F0380F01D09C0718D411F4E07FAF
:1044100001D05C0713D411F4F05F01D01C070ED457
:1044200011F4604F01D0DC0609D411F4403F01D0F3
:104430009C0604D411F47C0F06D05B0604D50368F7
:10444000DC6D44F00204DC650B0605D50368D3F887
:10445000DC401443C3F8DC40CB0505D50368D3F832
:10446000E0402243C3F8E0200068426D11434165FB
:10447000002004E0586840F002005860012030BC81
:1044800070472DE9F8438146D9F800100C6D04F40B
:10449000E054486D04400D6D05F00705486D05407A
:1044A0000E6D06F03806486D0640D1F8508008F4CD
:1044B0007108486D00EA08080F6D07F46027486D21
:1044C0000740086D400607D5486D400604D54020DA
:1044D0000865484600F04CFED9F80020106DC00574
:1044E0000DD5506DC0050AD502F1D800016880686D
:1044F00001404FF480701065484600F03AFE002CF1
:1045000006D0D9F8000004652146484600F032FE86
:10451000002D06D0D9F80000056529464846FDF76C
:1045200067F9002E06D0D9F80000066531464846E6
:1045300000F021FED9F80000016D890508D5416D14
:10454000890505D54FF4007101654846FDF74BF923
:10455000D9F80020106D00060CD5506D000609D565
:1045600002F1D4000168806801408020106548464F
:1045700000F002FED9F80000016D890408D5416DF4
:10458000890405D54FF400510165484600F0F5FD5A
:10459000D9F80000016D090408D5416D090405D55D
:1045A0004FF400410165484600F0E8FDD9F80000ED
:1045B000016D49040BD5416D490408D54FF4804184
:1045C0000165D9F8600040F08000C9F86000002F54
:1045D00006D0D9F8000007653946484600F0CFFDFF
:1045E000B8F1000F09D0D9F80000C0F85080D9F810
:1045F000600048EA0008C9F86080D9F86000002827
:1046000004D04846BDE8F24300F0BABDBDE8F183EE
:1046100010B4154901640268D2F8803023F4F8130D
:10462000446B43EA0443C2F88030104A4264026893
:10463000D2F8803023F07063846B43EA0463C2F8DD
:1046400080300B4A82640B4AC2640B4A02650B4AF3
:10465000426502E000200860091D09488142F9D343
:1046600010BC70470000000000A4004070A400408F
:10467000B0A4004088A5004060A6004078A6004095
:1046800050A7004070B40D698C6825430E684C68D3
:10469000002C02D145EA864502E0354345F08045CD
:1046A0000C6ACE6946EA04668C6926434C69264347
:1046B000CC682643406D03EBC30400EBC4000560E7
:1046C0004660083000230DE0D418E578A67836045B
:1046D00046EA0566657846EA05262478264340F8CA
:1046E000046B1B1D03A4CD682D0C645DA342EBD3AA
:1046F00070BC70470001020304050607080C101483
:10470000182030400A4603681968C9694906FBD574
:10471000C1681846FEF799BE01464FF0FF304A685F
:1047200012685368C3F580734B618A69934207D05E
:10473000086913461BB2C05C521C02F0FF028A617A
:1047400070470146486800684068C0F5807048615D
:104750008969401A00F0FF00704738B504460D46DD
:10476000E06800F00FFD284600F018FD014689B210
:104770002046BDE83440C5E7054901600549416070
:1047800005498160054901610549C1607047000024
:10479000EC0400202C0400208C0400202C030020BA
:1047A0007C05002038B5044601E0401CE08320462B
:1047B000FFF7C7FF002811D02046FFF7ADFF04F137
:1047C0002201E28B8854E08B014604F12202525C04
:1047D0000D2A01D04029E8DB01202077207F002826
:1047E0002AD000202084616E04F1220000F0F2FC47
:1047F00004F16801228C41F822000AE06D1C258436
:10480000616E002000F0E6FC04F16801ADB241F8F1
:104810002500258C04F16800294650F82100002865
:10482000ECD10020E08320770246402104F12200F1
:10483000BDE8384000F0F4BC31BD000070B491EA2E
:10484000030F4FF0004540F1BF806B40841A71EBBD
:10485000030604D26E40001BB141121973414FF49C
:10486000001C1CEB410F34BF7CEB430683E00C0DB6
:10487000A4EB1356362E00F37C80012E45EAC323A9
:1048800041DC43EA525312BFD20292025B08240574
:1048900045EAC12141EA5051D2EBC020994125D4CB
:1048A00007D1B0FA80F610FA06F162D00020203667
:1048B00008E0B1FA81F6B140C6F1200220FA02F216
:1048C0001143B0404FEAF474B4EB465434F001069F
:1048D0004FEA74040AD8D6F50016760D04F00044A9
:1048E000F04061FA06F25040F1404840C00A40EA08
:1048F000415021F0004128BF5FEA500550F100000F
:1049000044EBD12135E0DB0A45EAC121C90AB6F101
:1049100020050EDD42EA0242120CC5F1200603FA20
:1049200006F6EB4042EA06056D42984161F100014E
:104930000DE062FA06F5F240554063FA06FC82EAA1
:104940000C02F3405A406D42904161EB030111F4B7
:10495000801F05D1641E620502D06D0040414941AF
:1049600021F48011430875F1004350F1000041EB40
:10497000045170BC70471CEB410F15D223F000436B
:1049800052EA43060BD04FEA4C0CBCEB410F04D863
:104990000C0D661E342EB7DDEBE7801A994150EA04
:1049A000410608BF0021E4E708BF1CEB430F28BF06
:1049B0006FF00001DDE7000070B491EA030F4FF0E3
:1049C00000457FF543AF6B40841A71EB030603D2B9
:1049D000001BB141121973414FF4001C1CEB410F35
:1049E00034BF7CEB430442E00C0DA4EB1356352E90
:1049F0004FDC45EAC323DB0A45EAC121C912B6F1FF
:104A000020050DDD63FA05F6EB4086EA0305124248
:104A100018BF45F00105C01851F100010CD213E098
:104A200062FA06F5F2405540F3415A40B340F34074
:104A30005A408018594107D349085FEA30005FEABD
:104A4000350528BF45F0010501F58011420875F1D3
:104A5000004250F1000041EB04514E0016F5001FDA
:104A600070BC38BF70470020090D090570471CEB6A
:104A7000410F10D252EA43060BD0BCEB410F05D8D0
:104A80000C0DAB43661E342EB6DD02E0AB4380183E
:104A9000594170BC704770BC7047000030B540F29F
:104AA000FF7C1CEA11541DBF1CEA13556445654583
:104AB0003FE0641981EA030C6FF35F530CF0004C84
:104AC00043F48013C90241F0004141EA505EC5023F
:104AD0001100A5FB020200284FF00000EEFB0120B0
:104AE0004FF00001E3FB052118BF42F0010240181E
:104AF00000214941E3FB0E01A4F580640D0302D2BD
:104B000092184041494154F1010470DD450872F1A9
:104B1000004250F1000051EB0451A1F5801102D484
:104B200041EA0C0130BD40F2FF7E4CEA0E510020FC
:104B300030BD0CEA1355644518BF654581EA030C86
:104B40000CF0004C41D050EA410E1CBF52EA430E1B
:104B500002E06146002030BD24422C441BD15FEAB4
:104B6000050EF6D0090302BF01460020AEF1140E77
:104B7000B1FA81F5AEEB050401FA05FE0C35C5F17D
:104B8000200100FA05F5C8404EEA000E6FF35F53AE
:104B900043F480139CE733F00043B3FA83F504BF7A
:104BA000B2FA82FE75440B3D641BB5F1200E2FBF97
:104BB00002FA0EF3AB40C5F1200E22FA0EFE38BF0A
:104BC00043EA0E03AA40641C7CE750EA410E14BF7E
:104BD00052EA430E6FF000014FF4001515EB430F3E
:104BE0008EBF194615EB410F9DE7B4D830BDD4F107
:104BF0000104B4F120050FDAC4F12005520828BFE2
:104C000042F0010210FA05FE01FA05F57244E2BF16
:104C1000E0402843E1400FE0352C9ADCC5F1200448
:104C200052EA400220FA05F218BF42F0010231FABE
:104C300005F0A1400A43002172F1004250F100004A
:104C400051EB0C0130BD000070B504460025104E3C
:104C5000B068002819D04FF47A71B1FBF0F00D491B
:104C60000968B1FBF0F0FDF75CF900280BD1102CBE
:104C700007D22A4621464FF0FF30FDF742F9746013
:104C800004E0012502E0012500E00125284670BD71
:104C90001C0300202803002082B00B48816841F0EB
:104CA00001018160816801F00101009100990168B2
:104CB00041F080510160006800F080500090009841
:104CC00002B0FEF71FB800BF58100240DFED1E0A09
:104CD00020EE200AFDEEC00AB5EE400A10EE900A62
:104CE000F1EE10FA48BF401E00EE900AF8EEE00A1E
:104CF00030EE600ADFED150A20EE200AFDEEC00A54
:104D000010EE900A80B2B0F5007F04DBDFED100AF0
:104D1000002030EE200A014600EE901AF8EE600AFC
:104D20000C4970EE600A01EB8002B7EE000A01EB5D
:104D3000800030EE600A92ED001AD0ED011A20EEEC
:104D4000010A00EEA10A704783F9223E00000044E8
:104D5000000000C4D0520008C0F3C75181B1FF2940
:104D600006D0C110400721F0E04101F160517047C9
:104D700041020CBF40F4E0016FF000410020704799
:104D800000F0004100020AD0B0FA80FC00FA0CF0FA
:104D900001F16051A1EB0C5101EBD02140057047AE
:104DA000C1F30A5340F21E42D31A0CDDCA0283F348
:104DB000070342EA505242F00042DA4002EBE1724D
:104DC00082EAE17070476FEAE17203F2E13008B104
:104DD00082F000407047000041EA030C50EA4C0C9E
:104DE00052EA0C0C4FF4001C09D307D01CEB410F06
:104DF0009CBF1CEB430F994208BF904270471CEBCD
:104E0000410FFBD88B4208BF8242704710B400F1BB
:104E100080010A78012A01D1022013E001220A70E0
:104E200024224A60026813681468640864001460ED
:104E30000022426623F0005300680360202048608F
:104E40001046087010BC704770B5044604F1800528
:104E50002878012801D1022070BD0120287024206B
:104E60006860206806680268520852000260206884
:104E7000826822F0604211438160204600F02AF8E7
:104E800020680660202068600020287070BD70B522
:104E9000044604F180052878012801D1022070BD64
:104EA0000120287024206860206806680268520883
:104EB000520002602068826822F0606211438160C3
:104EC000204600F007F82068066020206860002077
:104ED000287070BD30B400F16802416E002903D122
:104EE00001205080108016E000688168490E01F0B2
:104EF00007018068400F00BF0FF2280307A4255C5C
:104F0000ED00185C95FBF0F05080605CC000595CCF
:104F100090FBF1F0108030BC7047000001010103EC
:104F200007010000080402040801010170477047EE
:104F30007047704770477047BBBBE1B1B2F5803F27
:104F400080F07E80022A1ED98C46B1FBF2F102FB72
:104F500011C31B0443EA1043B3FBF2FC02FB1C33F6
:104F600080B240EA0343B3FBF2F002FB103240EAA6
:104F70000C4000237047022A05D98446B0FBF2F0AA
:104F800002FB10C270474AB105D100F00102490886
:104F90005FEA3000704700220023704700F074B9C8
:104FA0000B000200002100207047904271EB030CBF
:104FB000F6D3B3F5803F2FD2F0B5B3FA83F7B1FA49
:104FC00081F4A7F10F0E3D1B5340CEF1200602FAEB
:104FD0000EF2F3415340B5F10F0746D80F3C2C4475
:104FE0004140C4F12006A040F1414140B1FBF3F63D
:104FF00003FB1611A2FB0645001BA94102D2761E37
:105000008018594180EA010221FA0EF362FA0EF289
:1050100000215A403046F0BD30B4B1FBF3FC03FB35
:105020001C11A2FB0C45001BA94103D2ACF1010CE1
:105030008018594130BC02460B466046002170473B
:10504000B2F1807F65D3F0B5B2FA82F7B1FA81F49C
:10505000C7F10F063D1B22FA06F307F1110EF241CC
:1050600020355A40B5F10F07B8D94140C4F12006A8
:10507000A040F1414140B1FBF3FC03FB1C11A2FB3A
:105080000C45001BA94103D2BCF1010C8018594109
:105090000F2F12D30F3FC90341EA5041B1FBF3F682
:1050A00003FB1611A2FB0645D4EBC030A94102D286
:1050B000761E8018594146EACC3C07B34140C7F1FF
:1050C0002006B840F1414140B1FBF3F603FB161155
:1050D000A2FB0645001BA94102D2761E8018594149
:1050E00080EA010221FA0EF3C7F1200462FA0EF2FF
:1050F0000CFA07F05A402CFA04F13043F0BD80EA74
:10510000010221FA0EF3002162FA0EF260465A40C3
:10511000F0BD8C46B1FBF2F102FB11C31B0243EA66
:105120001063B3FBF2FC02FB1C331B024CEA0020B1
:1051300043EA1063B3FBF2FC02FB1C331B024CEA94
:10514000002043EA1063B3FBF2FC02FB1C331B029A
:105150004CEA002043EA1063B3FBF2FC02FB1C3272
:105160004CEA002000237047704770477047704733
:105170007047704770477047704770477047704777
:10518000704700005FEA000C11F8012B00F8012BBA
:1051900012B111F8012BF9E76046704700F10103E5
:1051A000810704D010F8011B820781B1FAD102688F
:1051B000A2F10131914311F0803104BF50F8042F66
:1051C000F6E709BAB1FA81F100EBD100401CC01A30
:1051D0007047000038B504000D460BD02946204624
:1051E00000F053F80444207848B90C4800210160CD
:1051F000002032BD09490C68002CEFD132BD294690
:10520000204600F053F82118087810B1002201F868
:10521000012B02480160204632BD00BFAC060020D1
:1052200062F30F2262F31F42401810F0030308D00C
:10523000C91A1FD3DB0748BF00F8012D28BF20F88B
:10524000022D130030B414461546103928BF20E94A
:105250003C00FAD8490728BF20E90C0048BF40F8B5
:10526000042D890028BF20F8022D48BF00F8012D29
:1052700030BC7047C91818BF00F8012DCB0728BFF4
:1052800000F8012D70470000704770B4044600E03C
:10529000641C23783BB10D462A7822B115F8016BC6
:1052A000B342F9D1F4E7201A70BC704770B40446D9
:1052B00000E0641C23783BB10D462A78002AF8D020
:1052C00015F8016BB342F8D1201A70BC704700008A
:1052D00000000000920E493CB10AC93C2BC3163DA8
:1052E0002EFB483D752B7B3D04A9963D80B6AF3D16
:1052F00036BDC83D2FBCE13D73B2FA3D87CF093EB4
:105300008340163EB5AB223EA2102F3ECF6E3B3EF1
:10531000C2C5473E0115543E135C603E7F9A6C3E09
:10532000CCCF783EC07D823E938E883E229A8E3EC0
:1053300032A0943E86A09A3EE59AA03E128FA63EE9
:10534000D47CAC3EEF63B23E2A44B83E491DBE3E1B
:1053500015EFC33E53B9C93ECA7BCF3E4136D53E59
:1053600080E8DA3E4F92E03E7533E63EBBCBEB3E43
:10537000EA5AF13ECBE0F63E275DFC3EE4E7003F13
:105380003D9C033F824B063F9BF5083F6B9A0B3FCA
:10539000DA390E3FCDD3103F2A68133FD9F6153FB7
:1053A000C07F183FC6021B3FD17F1D3FCBF61F3F7A
:1053B0009967223F25D2243F5636273F1594293F2F
:1053C0004AEB2B3FDE3B2E3FBB85303FC9C8323F07
:1053D000F304353F233A373F4268393F3B8F3B3F29
:1053E000F9AE3D3F67C73F3F70D8413F01E2433FC1
:1053F00003E4453F65DE473F12D1493FF8BB4B3FD1
:10540000029F4D3F207A4F3F3D4D513F4918533F3A
:1054100031DB543FE595563F5348583F6AF2593FB8
:105420001A945B3F532D5D3F05BE5E3F2146603FB2
:1054300097C5613F5A3C633F59AA643F880F663F56
:10544000D86B673F3CBF683FA7096A3F0C4B6B3F77
:105450005E836C3F93B26D3F9ED86E3F73F56F3F96
:105460000809713F5213723F4714733FDD0B743FBD
:105470000BFA743FC6DE753F07BA763FC58B773FA0
:10548000F853783F9812793F9DC7793F02737A3F6E
:10549000BE147B3FCDAC7B3F283B7C3FC9BF7C3FEC
:1054A000AC3A7D3FCCAB7D3F23137E3FB0707E3F57
:1054B0006DC47E3F580E7F3F6D4E7F3FAB847F3F74
:1054C0000FB17F3F97D37F3F43EC7F3F11FB7F3F7F
:1054D0000000803F11FB7F3F43EC7F3F97D37F3F2E
:1054E0000FB17F3FAB847F3F6D4E7F3F580E7F3FB4
:1054F0006DC47E3FB0707E3F23137E3FCCAB7D3FBB
:10550000AC3A7D3FC9BF7C3F283B7C3FCDAC7B3F65
:10551000BE147B3F02737A3F9DC7793F9812793F53
:10552000F853783FC58B773F07BA763FC6DE753FA5
:105530000BFA743FDD0B743F4714733F5213723FF5
:105540000809713F73F56F3F9ED86E3F93B26D3F70
:105550005E836C3F0C4B6B3FA7096A3F3CBF683FC3
:10556000D86B673F880F663F59AA643F5A3C633F38
:1055700097C5613F2146603F05BE5E3F532D5D3FAD
:105580001A945B3F6AF2593F5348583FE595563F9E
:1055900031DB543F4918533F3D4D513F207A4F3F37
:1055A000029F4D3FF8BB4B3F12D1493F65DE473F5D
:1055B00003E4453F01E2433F70D8413F67C73F3FA7
:1055C000F9AE3D3F3B8F3B3F4268393F233A373F7F
:1055D000F304353FC9C8323FBB85303FDE3B2E3F29
:1055E0004AEB2B3F1594293F5636273F25D2243FBF
:1055F0009967223FCBF61F3FD17F1D3FC6021B3F5D
:10560000C07F183FD9F6153F2A68133FCDD3103F0E
:10561000DA390E3F6B9A0B3F9BF5083F824B063FF2
:105620003D9C033FE4E7003F275DFC3ECBE0F63EB8
:10563000EA5AF13EBBCBEB3E7533E63E4F92E03E7D
:1056400080E8DA3E4136D53ECA7BCF3E53B9C93EEB
:1056500015EFC33E491DBE3E2A44B83EEF63B23E3D
:10566000D47CAC3E128FA63EE59AA03E86A09A3E20
:1056700032A0943E229A8E3E938E883EC07D823E1A
:10568000CCCF783E7F9A6C3E135C603E0115543E51
:10569000C2C5473ECF6E3B3EA2102F3EB5AB223E69
:1056A0008340163E87CF093E73B2FA3D2FBCE13DE1
:1056B00036BDC83D80B6AF3D04A9963D752B7B3DF8
:1056C0002EFB483D2BC3163DB10AC93C920E493C06
:1056D00000000000920E49BCB10AC9BC2BC316BD24
:1056E0002EFB48BD752B7BBD04A996BD80B6AFBD12
:1056F00036BDC8BD2FBCE1BD73B2FABD87CF09BEB0
:10570000834016BEB5AB22BEA2102FBECF6E3BBEED
:10571000C2C547BE011554BE135C60BE7F9A6CBE05
:10572000CCCF78BEC07D82BE938E88BE229A8EBEBC
:1057300032A094BE86A09ABEE59AA0BE128FA6BEE5
:10574000D47CACBEEF63B2BE2A44B8BE491DBEBE17
:1057500015EFC3BE53B9C9BECA7BCFBE4136D5BE55
:1057600080E8DABE4F92E0BE7533E6BEBBCBEBBE3F
:10577000EA5AF1BECBE0F6BE275DFCBEE4E700BF0F
:105780003D9C03BF824B06BF9BF508BF6B9A0BBFC6
:10579000DA390EBFCDD310BF2A6813BFD9F615BFB3
:1057A000C07F18BFC6021BBFD17F1DBFCBF61FBF76
:1057B000996722BF25D224BF563627BF159429BF2B
:1057C0004AEB2BBFDE3B2EBFBB8530BFC9C832BF03
:1057D000F30435BF233A37BF426839BF3B8F3BBF25
:1057E000F9AE3DBF67C73FBF70D841BF01E243BFBD
:1057F00003E445BF65DE47BF12D149BFF8BB4BBFCD
:10580000029F4DBF207A4FBF3D4D51BF491853BF36
:1058100031DB54BFE59556BF534858BF6AF259BFB4
:105820001A945BBF532D5DBF05BE5EBF214660BFAE
:1058300097C561BF5A3C63BF59AA64BF880F66BF52
:10584000D86B67BF3CBF68BFA7096ABF0C4B6BBF73
:105850005E836CBF93B26DBF9ED86EBF73F56FBF92
:10586000080971BF521372BF471473BFDD0B74BFB9
:105870000BFA74BFC6DE75BF07BA76BFC58B77BF9C
:10588000F85378BF981279BF9DC779BF02737ABF6A
:10589000BE147BBFCDAC7BBF283B7CBFC9BF7CBFE8
:1058A000AC3A7DBFCCAB7DBF23137EBFB0707EBF53
:1058B0006DC47EBF580E7FBF6D4E7FBFAB847FBF70
:1058C0000FB17FBF97D37FBF43EC7FBF11FB7FBF7B
:1058D000000080BF11FB7FBF43EC7FBF97D37FBF2A
:1058E0000FB17FBFAB847FBF6D4E7FBF580E7FBFB0
:1058F0006DC47EBFB0707EBF23137EBFCCAB7DBFB7
:10590000AC3A7DBFC9BF7CBF283B7CBFCDAC7BBF61
:10591000BE147BBF02737ABF9DC779BF981279BF4F
:10592000F85378BFC58B77BF07BA76BFC6DE75BFA1
:105930000BFA74BFDD0B74BF471473BF521372BFF1
:10594000080971BF73F56FBF9ED86EBF93B26DBF6C
:105950005E836CBF0C4B6BBFA7096ABF3CBF68BFBF
:10596000D86B67BF880F66BF59AA64BF5A3C63BF34
:1059700097C561BF214660BF05BE5EBF532D5DBFA9
:105980001A945BBF6AF259BF534858BFE59556BF9A
:1059900031DB54BF491853BF3D4D51BF207A4FBF33
:1059A000029F4DBFF8BB4BBF12D149BF65DE47BF59
:1059B00003E445BF01E243BF70D841BF67C73FBFA3
:1059C000F9AE3DBF3B8F3BBF426839BF233A37BF7B
:1059D000F30435BFC9C832BFBB8530BFDE3B2EBF25
:1059E0004AEB2BBF159429BF563627BF25D224BFBB
:1059F000996722BFCBF61FBFD17F1DBFC6021BBF59
:105A0000C07F18BFD9F615BF2A6813BFCDD310BF0A
:105A1000DA390EBF6B9A0BBF9BF508BF824B06BFEE
:105A20003D9C03BFE4E700BF275DFCBECBE0F6BEB4
:105A3000EA5AF1BEBBCBEBBE7533E6BE4F92E0BE79
:105A400080E8DABE4136D5BECA7BCFBE53B9C9BEE7
:105A500015EFC3BE491DBEBE2A44B8BEEF63B2BE39
:105A6000D47CACBE128FA6BEE59AA0BE86A09ABE1C
:105A700032A094BE229A8EBE938E88BEC07D82BE16
:105A8000CCCF78BE7F9A6CBE135C60BE011554BE4D
:105A9000C2C547BECF6E3BBEA2102FBEB5AB22BE65
:105AA000834016BE87CF09BE73B2FABD2FBCE1BDDD
:105AB00036BDC8BD80B6AFBD04A996BD752B7BBDF4
:105AC0002EFB48BD2BC316BDB10AC9BC920E49BC02
:105AD00000000080F0B40246106895681318506802
