:020000040800F2
:10000000A8080020354D0008854B0008874B0008E4
:10001000894B00088B4B00088D4B00080000000046
:100020000000000000000000000000008F4B0008EE
:10003000914B000800000000934B0008954B00080E
:10004000614D0008654D0008694D00086D4D0008C0
:10005000714D0008754D0008794D00087D4D000870
:10006000814D0008854D0008894D0008A34B00080C
:10007000A94B00088D4D0008914D0008954D0008D2
:10008000994D0008000000009D4D0008A14D00089A
:10009000A54D0008AF4B0008A94D0008AD4D000864
:1000A000B14D0008B54D0008B94D0008BD4D000820
:1000B000C14D0008C54D0008C94D0008CD4D0008D0
:1000C000D14D0008D54D0008D94D0008DD4D000880
:1000D000E14D0008E54D0008B54B0008E94D00086A
:1000E000ED4D0008F14D0008F54D0008F94D0008F0
:1000F000FD4D0008014E0008054E000800000000FC
:1001000000000000094E0008000000000D4E00082D
:10011000114E000800000000154E0008194E00089E
:100120001D4E0008214E0008254E0008294E0008EB
:100130002D4E00080000000000000000314E0008B5
:10014000354E0008394E0008000000000000000095
:10015000000000000000000000000000000000009F
:100160000000000000000000000000003D4E0008FC
:10017000414E0008000000000000000000000000E8
:1001800000000000454E00080000000000000000D4
:10019000000000000000000000000000000000005F
:1001A0000000000000000000494E00084D4E00080D
:1001B000514E0008554E0008594E0008000000003E
:1001C000000000005D4E000800000000000000007C
:1001D000614E0008654E00082DE9F14FB0B092461F
:1001E00004910DF142013A9A2B9199464A700020F0
:1001F0000AE01AF8011B0498309A904700280490EE
:1002000000F06B860D98401C0D909AF8000050B1DC
:100210002528EED1002100220791089209910A9227
:100220000B910C9204E00D9800F059BE41F00101D1
:100230001AF8010F2028F9D023280CD02B2804D03D
:100240002D2805D0302809D00BE041F00201EFE75E
:1002500041F00401ECE741F00801E9E741F0100149
:10026000E6E72A280FD1D9F8002052F8040BC9F884
:10027000002000280F9003D540420F9041F0040168
:100280000AF1010A14E00F92DFF8583C0AE00F98D7
:10029000984205DA00EB800402EB4402303A0F92F8
:1002A0000AF1010A9AF80020A2F130000A28EED3E0
:1002B0009AF800002E2803D04FF0FF320E9229E06A
:1002C0001AF8010F2A2809D1D9F8000050F8042B98
:1002D000C9F800000E920AF1010A1BE02D280CBF9C
:1002E0000AF1010A002000220E92DFF8F84B0BE021
:1002F00040B90E9AA24205DA02EB820503EB4503F0
:10030000303B0E930AF1010A9AF80030A3F1300253
:100310000A2AEDD3ADF840100FF6CC309AF8001051
:1003200000F00EFF08B11AF8010B8DF842009DF89D
:100330004200682805D19AF8000068280CD1622193
:1003400006E06C2804BF9AF800006C2804D17121E3
:100350008DF842100AF1010A12A806901AF801BBA2
:10036000BBF125012CD01C3900F0D781091F0229CF
:1003700040F2D381133900F0E284093900F0CD81D5
:10038000891E00F07785491E00F02485491E022948
:1003900040F2C381091F00F01D85491F00F0328122
:1003A000491E00F0CC84491E00F0D880C91E0DD033
:1003B000891E00F0C484C91E00F0C18400F065BD30
:1003C00025238DF84830012100F06ABDD9F80000DE
:1003D00050F8044BC9F80000002C059440F0AB80A5
:1003E0002B994878002800F0A1804FF0FF340FF6D9
:1003F000003000F0B5FE201A40F06F8500F051BDCE
:1004000001236A4602A9304600F042FE002840F06F
:1004100064856D1EF4D13096079D12AF75B1309E84
:1004200017F8012B02A9304600F022FE002801D463
:100430006D1EF5D10028309640F04F850A9D302082
:10044000002D8DF800000CDD309E01236A4602A9C4
:10045000304600F01DFE002840F03F856D1EF4D1AF
:100460003096059F089D75B1309E17F8012B02A9A3
:10047000304600F0FDFD002801D46D1EF5D10028A6
:10048000309640F02A850B9D3020002D8DF800001D
:100490000CDD309E01236A4602A9304600F0F8FDCB
:1004A000002840F01A856D1EF4D130960598089901
:1004B000099D471875B1309E17F8012B02A93046E7
:1004C00000F0D6FD002801D46D1EF5D1002830962D
:1004D00040F003850C9D3020002D8DF800000CDDD0
:1004E000309E01236A4602A9304600F0D1FD002863
:1004F00040F0F3846D1EF4D130969DF84000410722
:100500007FF583AE2020002C8DF800007FF77DAEB4
:10051000309D01236A4602A9284600F0B9FD002853
:1005200040F0DB84641EF4D130956EE60FF6C030E7
:10053000059000F0B6BC0E9D002D04D5204600F0BD
:100540002FFE044607E02A46204600F033FE00282E
:1005500014BF041B2C46089400F0A3BCD9F800106B
:1005600051F8040BC9F8001020F00004002121F01C
:10057000FF3512ABCDE902450593DDE9022306996B
:100580003C2413B90AB90E98A8B102F00F05303512
:10059000641EEEB23A2E08DA120942EA03721B090F
:1005A0000D5508BF002A02D105E02735F4E705986C
:1005B0000D19A842E9D308190590C4F13C020E9820
:1005C000089282420ADABDF84010821A4FF6EF70A4
:1005D00001400A92ADF8401000F063BC002840F1E1
:1005E00060849DF8400000F01400102840F0598409
:1005F0000F9B07990A985B1A1B1A9A1A002A40F354
:1006000050849AE32B99487820B14FF0FF340FF6CD
:10061000B020EEE69DF84200622860D0682817D02E
:100620006A283FD06C2806D0712847D074282CD077
:100630007A281DD062E0D9F8001051F8040BC9F8EF
:100640000010002866D14FF0FF340FF68C20D0E662
:10065000D9F8001051F8040BC9F8001020B94FF078
:10066000FF340FF67420C4E60D99018000F019BC28
:10067000D9F8001051F8040BC9F80010002849D12E
:100680004FF0FF340FF65020B3E6D9F8001051F8C0
:10069000040BC9F8001000283CD14FF0FF340FF6CE
:1006A0003820A6E6D9F8001051F8040BC9F800105C
:1006B00080B94FF0FF340FF620209AE6D9F80010E9
:1006C00051F8040BC9F8001020B94FF0FF340FF6B1
:1006D00008208EE60D9AD317C0E90023E1E3D9F88C
:1006E000001051F8040BC9F8001020B94FF0FF3486
:1006F0000FF6E4107DE60D990170D2E3D9F80010F1
:1007000051F8040BC9F8001020B94FF0FF340FF670
:10071000C8106EE60D990160C3E3D9F80020D21D20
:1007200022F00702C9F80020D2E900010832C9F816
:100730000020CDE90201C80F02D007982D210AE060
:10074000BDF84000810702D507982B2103E0C007C0
:1007500005D50798202112AA1154401C079012A811
:100760000799DDE9024543184BF020006128059305
:1007700021AE0BD00E98002802D506200E9005E081
:1007800001BF4BF02000672801210E91DDE9020135
:1007900048004015401C0A460DD109030BD0ABF1AF
:1007A000610703201A2F089002D20FF648110DE0BE
:1007B0000FF644110AE070B912030CD1ABF16107D6
:1007C00003201A2F08901CD30FF634110322184669
:1007D00000F01CFD65E3DDE902016A4600F06AFDF8
:1007E000CDE902014BF02000612811D1059830219C
:1007F0000170821CBBF1610F05920CBF782158215A
:1008000002E00FF6F801E1E741700798801C0790BD
:10081000DDE9020120F0000231F0004308BF002AA8
:1008200002D10025002445E14BF02008B8F1610F0A
:1008300040F095800E98002847BF21210191401C6F
:100840000190019F7F1C2046294600220023DDE9FC
:10085000024500F067FD00998DF8842038BF85F0CF
:100860000045091F002F00910DF1850034DD06467B
:10087000204629460022002300F06EFD2BD21C22C8
:1008800000F084FD04460D4600F01EFEFF1F002F01
:10089000804609DD00F034FE02460B46204629461C
:1008A00000F0F6FE04460D46F01D0721B8F1000FDA
:1008B0000CDD491E5EBF08F00F0200F8012D4FEA63
:1008C0002818F3D502E0002200F8012D491EFAD5C0
:1008D000C61D002FCCDC30460DF18501401A019970
:1008E00005468842C8BF0D46002D0DF185062FD460
:1008F000854206DA0DF18500415D0829A8BF0F2069
:1009000000DA0020294621AA0A4400E06D1E12F8F0
:100910000139491E8342F9D00F2804D10DF1850019
:10092000425C521C4254002904D50098001D21AE9F
:100930006D1C0090681E0BD431180A783032D3B287
:100940003A2BA4BF5A443A3A401E01F80129F4D583
:100950000E98002840F1AD80691E0E91A9E0009923
:10096000DFF8FC2647F29750414391FBF2F20092E8
:1009700025F00045C2F10702002A04DD2046294681
:1009800000F04AFB0BE052420020DFF8D81600F0DE
:1009900043FB02460B462046294600F0EBFE044688
:1009A000B8F1660F0E9806BF009F0A3706273F185A
:1009B000142FC8BF142730208DF884000D460DF188
:1009C000850000E03046002F35DD064620462946EA
:1009D00000F0F4FF01460A4606F1080304200A2647
:1009E000B2FBF6F606EB860EA2EB4E02303203F8AF
:1009F000012C0A22B6FBF2F202EB820EA6EB4E06A7
:100A00003036401E03F8026DE9D1083F002F03F194
:100A10000806D7DD084600F0E3FF02460B462046F5
:100A2000294600F035FE0022DFF83C3600F0E6FFF4
:100A300004460D46CAE70DF18501401A0DF1850601
:100A400004E00099491E401E0091761C317830293F
:100A5000F7D0B8F1660F02D10099491C04E0B8F153
:100A6000650F0CBF012100210E9D4D19A842B8BF92
:100A7000451E002D1DD4854204DA705D3428C8BFA0
:100A8000392000DC30202946721E531800E06D1E0C
:100A900013F80149491E8442F9D0392802D1705C0B
:100AA000401C7054002904D50098401C16466D1C4B
:100AB0000090009C01F078F8406A0778DDF83880F3
:100AC00028B2002802DC01250FF238664BF0200026
:100AD000662808BF641C16D0672846D120B210F1E2
:100AE000040F48DB404546DA9DF84000641C0107CE
:100AF00003D428B24045D8BF804620B2B8EB0008E6
:100B000048BF4FF000080FFA84FBBBF1000F00F361
:100B1000B5800898411C0891302205990A54B8F113
:100B2000000F03DC9DF84000010704D50898411C24
:100B3000089105990F5418EB0B0FB8BFC8F10004CA
:100B400024B260420B90A0442AB29045B8BF4546FB
:100B5000059B08982DB209952A463146184400F0A5
:100B600055FBA8EB05000C90D2E0BBF1610F17D14B
:100B70004FF0700B19E028B2404504DA9DF84010A0
:100B80000A0758BF8046B8F1010848BF4FF0000877
:100B9000BBF1670F14BF4FF0450B4FF0650B04E03E
:100BA000BBF1410F08BF4FF0500B0898411C089152
:100BB000B8F1000F059916F8012B0A5403DC9DF8D3
:100BC000400001071AD50898411C0891B8F1000FA0
:100BD00005990F5412DD6D1E28B280450598089BBB
:100BE000B8BF45462AB23146184400F00FFB0899B9
:100BF0002DB269180891A8EB05000B90059808998B
:100C0000084421B2002980F800B003D42B2242709E
:100C1000821C04E02D2242700C46821C644200219A
:100C20002CAB20460AE004460A2094FBF0F000EBCF
:100C30008005A4EB450403F8014B491C00B20028D1
:100C4000F1DC012906DC4BF02000652804BF3020D0
:100C500002F8010B00292CAB08D1302002F8010B5F
:100C600006E0491E585C303002F8010B0029F8DC20
:100C7000059908980844121A099249E028B221B24D
:100C800088421CDA0598089B2AB23146184400F0C5
:100C9000BDFA08992DB269180891ABEB0500B8F1BF
:100CA000000F0B9003DC9DF84000020704D5059867
:100CB00047540999491C0991CDF8308028E00598DE
:100CC000089B22B23146184400F0A0FA08982D1B68
:100CD0005844B8F1000F089003DC9DF840100A0753
:100CE00003D5411C089105990F5428B280450598F9
:100CF000089BB8BF45462AB206EB0B01184400F02A
:100D000085FA08982DB228180890A8EB05000B90DA
:100D10009DF8400000F01400102840F0C280079AAF
:100D200008990B988A18099982180C988A188218C1
:100D30000F98824280F2B580821A0A92B1E09DF843
:100D40004200622808D068280ED06A2814D06C2887
:100D50001FD0712810D01CE0D9F8001051F8040BF6
:100D6000C9F80010C0B21AE0D9F8001051F8040B0D
:100D7000C9F8001080B212E0D9F80020D21D22F08C
:100D80000702C9F80020D2E900010832C9F80020A2
:100D900006E0D9F8001051F8040BC9F80010002142
:100DA000CDE902019DF8400001075AD5DDE9022393
:100DB000002B08BF002A54D04BF02000782850D1D7
:100DC000079812A930220A54401C431C079301F8CB
:100DD00000B046E09DF84200622808D068280ED096
:100DE0006A2814D06C281FD0712810D01CE0D9F8C4
:100DF000001051F8040BC9F8001040B21AE0D9F8FD
:100E0000001051F8040BC9F8001000B212E0D9F834
:100E10000020D21D22F00702C9F80020D2E900010B
:100E20000832C9F8002006E0D9F8001051F8040B88
:100E3000C9F80010C117CDE90201002902D50798B1
:100E40002D210AE0BDF84000810702D507982B212B
:100E500003E0C00705D50798202112AA1154401CB1
:100E6000079012A807990144059102A8594600F07D
:100E70004DF816E001200790D9F8000050F8041B47
:100E8000C9F800008DF848100BE025210122BBF1C4
:100E9000000F8DF84810079203D08DF849B0022159
:100EA00007910F9A07980A990C9C121A0898521ADF
:100EB0000B99121A0998521A121A9DF84000141B25
:100EC00041073FF5A9AA2020002C8DF800007FF7EC
:100ED000A3AA309E2546FFF793BA4FF0FF3031B0FA
:100EE000BDE8F08FCBCCCC0C686A6C747A4C0000F7
:100EF0007072696E74665F733A2062616420257354
:100F000020617267756D656E740000002DE9FC4309
:100F100004466F29256908BF082605D041F0200046
:100F2000782814BF0A2610263C27D4E90023642918
:100F300018BF69299046994605D1002B03D5D8F1F1
:100F4000000869EB4909B9F1000F08BFB8F1000FBB
:100F50000CD1206B50B9082E3AD194F83800010713
:100F600036D530203B2785F83B0031E08DF8001066
:100F7000404649463246F31700F01AFE3032D0B2EE
:100F80007F1E3A2801970EDAEA5540464946324616
:100F9000F31700F00DFE80465FEA010908BFB8F1C3
:100FA000000F05D108E09DF800001218513AEBE758
:100FB000E068E9198842DBD3082E09D194F838009B
:100FC000010705D5E85D302802D07F1E3020E855A6
:100FD000C7F13C02A261E919E160206B824208DAA4
:100FE000821A22624FF6EF70218F01402187BDE8FF
:100FF000F38300280ED594F8380000F01400102870
:1010000008D1636B6169206A5B1A1B1A9A1A002A5D
:10101000C8BF2262BDE8F3832DE9D04306460F46E0
:1010200014464FF00008DFF8449012E0E00707D5BF
:1010300042464B463046394600F0E0FC06460F4635
:101040004046494642464B4600F0D8FC6410804674
:101050008946002CEAD130463946BDE8D0830000ED
:10106000A08601000000F03F84D797410000244093
:1010700010B503460C461146A0689847A06020B101
:10108000E06A401CE062002010BD4FF0FF3010BD50
:10109000F8B505460E4617461C4600205CB117F809
:1010A000011BB068A847B06030B1F06A401CF06224
:1010B0000020641EF3D1F2BD4FF0FF30F2BD0000FE
:1010C0007072696E74665F733A20256E206469736E
:1010D000616C6C6F776564007072696E74663A203B
:1010E00062616420256E20617267756D656E7400A3
:1010F000000000006E616E004E414E00696E660099
:10110000494E4600300030B5016884684218416895
:1011100002EB5103C90703D54C4401E0491C08D137
:101120009A4218BF12F9011B01D10C3030BD12F8E0
:10113000015B002904F8015BF0D4491EF7D5EFE705
:10114000C9B202788A421AB11CBF10F8012FF9E720
:1011500018BF002070470268531C0360117070476D
:1011600080B500B906A005490B681BB122220021F9
:10117000984701E000F09FFD222002BDA00400205E
:10118000636F6E73747261696E742068616E646CF3
:1011900065723A20626164206D65737361676500F2
:1011A00000F1010310F8011B11B110F8011BFBE75E
:1011B000C01A7047C9B2830706D0521E22D310F856
:1011C000013B9942F7D11FE0083A13D302F1040220
:1011D00041EA012141EA014150F8043B121F21BFBD
:1011E0004B40A3F1013C2CEA030C1CF0803FF3D0F0
:1011F000C9B2001F083210F8013B521E28BF91EA05
:10120000030FF8D818BF0120401E704762B38B0748
:1012100008D0521E11F8013B00F8013B00F0248079
:101220008B07F6D1830740F0208000BF103A07D328
:1012300030B4B1E83810103AA0E83810F9D230BC18
:10124000530724BFB1E80810A0E8081044BF51F8C4
:10125000043B40F8043BD20724BF31F8022B20F8AE
:10126000022B44BF0B7803707047121F17D35B002B
:1012700009D151F8043B20F8023B1B0C121F20F847
:10128000023BF6D20BE051F8043B00F8013B1B0A8D
:1012900020F8023B1B0C121F00F8013BF3D238BFB1
:1012A000121D521E24BF11F8013B00F8013BF8D873
:1012B00070472E0010B5144600F002F8226010BDF1
:1012C000C1F30A5343B14A0012F5001F28D2A3F21A
:1012D000FE32A1EB0251704750EA410C20D001F0E0
:1012E000004C31EA0C01B1FA81F204BFB0FA80F38C
:1012F000D2180B3AB2F120032CBF00FA03F191404F
:1013000041EA0C013EBFC2F1200C20FA0CF3194354
:101310009040524240F2FD33D21A01EB0351704724
:101320000022704741EA030C50EA4C0C52EA0C0CC4
:101330004FF4001C09D307D01CEB410F9CBF1CEBE2
:10134000430F8B4208BF824270471CEB430FFBD810
:10135000994208BF9042704741EA030C50EA4C0C96
:1013600052EA0C0C4FF4001C09D307D01CEB410FC0
:101370009CBF1CEB430F994208BF904270471CEB87
:10138000410FFBD88B4208BF82427047124254D4AF
:1013900040F2FF7C1CEA11530FD0634531D09B18FB
:1013A00063453CBF01EB0251704701F0004141EA47
:1013B0000C510020AFF30080704750EA410320D069
:1013C00001F0004C91EA0C011CD0B1FA81F30B3B07
:1013D0009A420DD9D21A994051EA0C01C3F1200C5E
:1013E00020FA0CFC61449840531C40F2FF7CD7E784
:1013F000914041EA0C01C2F1200C20FA0CF3194390
:1014000090407047B0FA80F31533202BE0D3202AA8
:10141000EED3203A203B9A4209D9D21A00FA03F1BE
:1014200041EA0C010020531C40F2FF7CB8E700FAAF
:1014300002F141EA0C0100207047524240F2FF7C69
:101440001CEA11530DD06345DBD0B2EB030C3CBF5B
:10145000A1EB025170470CF1010221EA035141F462
:10146000801150EA410CCCD001F0004C352A27DC29
:1014700030B481EA0C01B2F1200309DAC2F1200391
:10148000044601FA03F5D0402843D1409C400CE0CB
:10149000C3F12002450020FA03F418BF44F0010410
:1014A00021FA03F091400C43002174F1004550F102
:1014B000000051EB0C01244230BC7FF47BAF70473D
:1014C0006146002076E70000C1F30A5340F21E4255
:1014D000D31A0CDDCA0283F3070342EA505242F0EA
:1014E0000042DA4002EBE17282EAE17070476FEA93
:1014F000E17203F2E13008B182F000407047000071
:1015000010F0004160B148BF4042B0FA80F2904014
:10151000D21CC2F5846241EA025202EBD02140059E
:1015200070470000841A71EB030604D26E40001B62
:10153000B141121973414FF4001C1CEB410F34BF31
:101540007CEB430683E00C0DA4EB1356362E00F320
:101550007C80012E45EAC32341DC43EA525312BF8B
:10156000D20292025B08240545EAC12141EA5051AA
:10157000D2EBC020994125D407D1B0FA80F610FAF9
:1015800006F162D00020203608E0B1FA81F6B140C1
:10159000C6F1200220FA02F21143B0404FEAF4747F
:1015A000B4EB465434F001064FEA74040AD8D6F579
:1015B0000016760D04F00044F04061FA06F2504047
:1015C000F1404840C00A40EA415021F0004128BFA4
:1015D0005FEA500550F1000044EBD12135E0DB0A11
:1015E00045EAC121C90AB6F120050EDD42EA0242F0
:1015F000120CC5F1200603FA06F6EB4042EA060596
:101600006D42984161F100010DE062FA06F5F24089
:10161000554063FA06FC82EA0C02F3405A406D42E0
:10162000904161EB030111F4801F05D1641E620536
:1016300002D06D004041494121F48011430875F109
:10164000004350F1000041EB045170BC70471CEBAB
:10165000410F15D223F0004352EA43060BD04FEA64
:101660004C0CBCEB410F04D80C0D661E342EB7DDBC
:10167000EBE7801A994150EA410608BF0021E4E7F0
:1016800008BF1CEB430F28BF6FF00001DDE700002F
:1016900070B491EA030F4FF000457FF543AF6B4004
:1016A000841A71EB030603D2001BB1411219734176
:1016B0004FF4001C1CEB410F34BF7CEB430442E0B1
:1016C0000C0DA4EB1356352E4FDC45EAC323DB0A81
:1016D00045EAC121C912B6F120050DDD63FA05F610
:1016E000EB4086EA0305124218BF45F00105C01819
:1016F00051F100010CD213E062FA06F5F2405540B8
:10170000F3415A40B340F3405A408018594107D33F
:1017100049085FEA30005FEA350528BF45F001055A
:1017200001F58011420875F1004250F1000041EBD3
:1017300004514E0016F5001F70BC38BF70470020E2
:10174000090D090570471CEB410F10D252EA430600
:101750000BD0BCEB410F05D80C0DAB43661E342EED
:10176000B6DD02E0AB438018594170BC704770BCD5
:1017700070470000F0B540F2FF7581EA030C0CF0F1
:10178000004C15EA11541DBF15EA1357AC42AF4285
:10179000E5E0BC41C1F31301C3F31303801A99417F
:1017A00043F4801304D2641E001849418018594143
:1017B000C90241EA5051B1FBF3F603FB1611A2FB3B
:1017C0000675D7EBC020A94102D2761E8018594178
:1017D000C90241EA5051B1FBF3FE03FB1E11A2FB0B
:1017E0000E75D7EBC020A94103D2AEF1010E8018CF
:1017F0005941890241EA9051760546EA8E2EB1FBA5
:10180000F3F603FB1611A2FB0675D7EB8020A94166
:1018100002D2761E80185941C90241EA50514EEA5F
:10182000060EB1FBF3F603FB1611A2FB0675D7EB10
:10183000C020A94102D2761E80185941C90241EA4E
:101840005051B1FBF3F703FB1711A2FB0735D3EBA4
:10185000C020A94167F100070CBF004247F0010713
:1018600066F3D5274FEA1E31B80814F5806412DDFF
:10187000BD0775F1004250EB0E5051EB045111F5CC
:10188000801F5CBF41EA0C01F0BD4CF07F6141F06C
:10189000E0410020F0BDBD076D0840EA0E5041F464
:1018A0008011D4F10104B4F120060ADAC4F1200653
:1018B0000200E04001FA06F3E1401843B24015434C
:1018C0000EE0342C13DCC6F1200445EA40056D0817
:1018D00020FA06F2154321FA06F0A1400D4300213B
:1018E00075F1004250F1000051EB0C01F0BD0020F9
:1018F0005FEA0C01F0BDCFB992185B41B3FA83F7F0
:1019000004BFB2FA82F6BF190B3FB7F120062FBF12
:1019100002FA06F3BB40C7F1200622FA06F638BFEA
:101920003343BA401CB1E419641E33E77F4231F0FF
:101930000041B1FA81F404BFB0FA80F6A4190B3C5F
:10194000B4F120062FBF00FA06F1A140C4F1200631
:1019500020FA06F638BF3143A0403C1B1AE7AC42E0
:101960001ABF05EA1357AF4212E050EA41061CBF06
:1019700052EA4306BFE750EA4107304661461CBFC2
:1019800041EA0551F0BD52EA430C08BFC143F0BD26
:1019900000204FF4001616EB410F98BF16EB430FD3
:1019A00008BF16EB410F24BFC14305E016EB430F00
:1019B0000CBF61464CEA0551F0BD0000400D40F2FD
:1019C0001E4C40EAC120BCEB115C40F0004003D447
:1019D0008CF30701C84070476FEAE1707047000060
:1019E00050B1B0FA80F18840C91CC1F58461090585
:1019F00001EBD021400570470146704730B540F2F9
:101A0000FF7C1CEA11541DBF1CEA13556445654553
:101A10003FE0641981EA030C6FF35F530CF0004C54
:101A200043F48013C90241F0004141EA505EC5020F
:101A30001100A5FB020200284FF00000EEFB012080
:101A40004FF00001E3FB052118BF42F001024018EE
:101A500000214941E3FB0E01A4F580640D0302D28D
:101A600092184041494154F1010470DD450872F17A
:101A7000004250F1000051EB0451A1F5801102D455
:101A800041EA0C0130BD40F2FF7E4CEA0E510020CD
:101A900030BD0CEA1355644518BF654581EA030C57
:101AA0000CF0004C41D050EA410E1CBF52EA430EEC
:101AB00002E06146002030BD24422C441BD15FEA85
:101AC000050EF6D0090302BF01460020AEF1140E48
:101AD000B1FA81F5AEEB050401FA05FE0C35C5F14E
:101AE000200100FA05F5C8404EEA000E6FF35F537F
:101AF00043F480139CE733F00043B3FA83F504BF4B
:101B0000B2FA82FE75440B3D641BB5F1200E2FBF67
:101B100002FA0EF3AB40C5F1200E22FA0EFE38BFDA
:101B200043EA0E03AA40641C7CE750EA410E14BF4E
:101B300052EA430E6FF000014FF4001515EB430F0E
:101B40008EBF194615EB410F9DE7B4D830BDD4F1D7
:101B50000104B4F120050FDAC4F12005520828BFB2
:101B600042F0010210FA05FE01FA05F57244E2BFE7
:101B7000E0402843E1400FE0352C9ADCC5F1200419
:101B800052EA400220FA05F218BF42F0010231FA8F
:101B900005F0A1400A43002172F1004250F100001B
:101BA00051EB0C0130BD00000048704728010020B7
:101BB000D3BBD9B1B2F5803F5BD2022A1ED98C4685
:101BC000B1FBF2F102FB11C31B0443EA1043B3FB68
:101BD000F2FC02FB1C3380B240EA0343B3FBF2F099
:101BE00002FB103240EA0C4000237047022A05D95C
:101BF0008446B0FBF2F002FB10C270474AB105D137
:101C000000F0010249085FEA30007047002200231B
:101C1000704700F053B80B0002000021002070470D
:101C2000F7D3002200237047904271EB030CF2D3EC
:101C300070B5B1FA81F4B3FA83F52C1BA340C4F15B
:101C4000200532FA05F63343A2405FF00046E64035
:101C500002E05B085FEA3202841A71EB030524BFDD
:101C6000204629467641F4D302000B0030000021C3
:101C700070BD70B5B1FA81F4B2FA82F5C4F12004F6
:101C80006419B4F12006DAD3B2405FF00044F440A6
:101C9000002502E052085FEA3303C61A71EB020E18
:101CA00024BF3046714664416D41F3D302000B00FE
:101CB0002000290070BD012000F002B8704700002C
:101CC00080B5AFF30080024A11001820ABBEFBE7DD
:101CD0002600020010B5040008D0D4F8840008B92A
:101CE00000F02CF800F01EF8012801D1012010BDF1
:101CF000A06A08B100F013F800F025F8FFE72168AA
:101D0000886000F004F8BDE8104000F0D6BB206801
:101D1000006840F0010021680860204670472046B6
:101D200000F05EBB2420C4F88400206800684008EE
:101D3000400021680860204600F008BA84F880005E
:101D4000204600F00DBE2068406820F490402168D5
:101D500048602068806820F02A00704710B504466B
:101D60001346D4F88400202841D100292FD0180030
:101D70002DD094F88000012839D0012084F880000B
:101D80002165A4F85430A4F8563000F0C2FB21209D
:101D9000C4F88400A06FE0B1DFF8A003A16FC862AF
:101DA000DFF89C03A16F0863DFF89803A16F486315
:101DB0000020A16F8863206800F12802216DA06FC8
:101DC00000F0CEFE28B100F05BFCC4F884000120D6
:101DD00010BD402021680862002084F8800000F0D7
:101DE0009BF941F0800100F000FCF8D110BD022009
:101DF00010BD38B50346D3F8880020280ED109B1AC
:101E0000100001D1012032BD93F88000012805D0D7
:101E100000F006F8BDE8384000F0EBBB022032BD10
:101E2000012083F880000020D8661868DFF8184386
:101E3000A0420DD018684068000209D5186850E823
:101E4000004F054644F0806445E800400028F5D185
:101E5000184670472020C4F888000020E0667047CC
:101E60002068083050E8001F206800F1080221F0C7
:101E7000400142E80010002870470020A4F85600F6
:101E80007047206880684006704738B5044620686F
:101E9000C1690268836840F60F0001420FD18806CD
:101EA00002D5900602D4D80040F18680206F002829
:101EB00000F023812046216FBDE834400847DFF859
:101EC0005C08034204BFDFF85808024274D0C80718
:101ED00008D5D00506D5012000F010F940F001002A
:101EE000C4F88C00880708D5D80706D5022000F072
:101EF00005F940F00400C4F88C00480708D5D8075D
:101F000006D5042000F0FAF840F00200C4F88C0076
:101F100008070CD5900603D4DFF80008034206D06A
:101F2000082000F0EBF840F00800C4F88C00080529
:101F300009D5500107D54FF4006000F0DFF840F0FC
:101F40002000C4F88C00D4F88C00002833D0880618
:101F500008D5900601D4D80004D5206F10B12046D2
:101F6000216F8847D4F88C0021688968490602D41B
:101F700010F0280F1AD0204600F0A5FBFFF781FFD4
:101F80000FD5FFF76DFFFCD1E06F50B10FF6CD001C
:101F900000F0B9F800280ED0E06F816BBDE8344046
:101FA00008472046BDE8324000F06CBF204600F0F4
:101FB00069FF00F0AEFA31BDE06E012868D1C806B5
:101FC00066D5D00664D5102021680862FFF759FF56
:101FD0002BD5E06F0068406880B20028EBD0B4F8E1
:101FE0005C108842E7DAA4F85E00E06F00680068E1
:101FF000800614D400F068FCFCD100F08DF849088C
:10200000490000F0F2FAF8D1FFF72AFFFCD1FFF700
:1020100021FF00F089F8FCD1E06F00F0F7FDB4F883
:102020005C10B4F85E00091A2CE0B4F85C00B4F857
:102030005E10411A00F044FC1CBF88B200285CD03E
:10204000206850E8002F034622F4907200F060F8F8
:10205000F6D12068083050E8002F206800F108030E
:10206000DFF8C006024000F053F8F2D1FFF7F2FEAD
:102070002067206850E8002F034622F0100200F08D
:1020800047F8F6D189B22046BDE8344000F0FBBEE7
:10209000C8020AD5580208D54FF48010216808629A
:1020A0002046BDE8324000F0EFBE08060AD5100613
:1020B00001D4180206D5606FF8B12046616FBDE803
:1020C00034400847480606D5500604D52046BDE8EA
:1020D000324000F0E0BB080206D5500004D520468F
:1020E000BDE8324000F0D1BEC80148BF002A04D587
:1020F0002046BDE8324000F0C9BE31BD25682862E7
:10210000D4F88C007047E16F8863E06F00F0B6BDD3
:1021100043E80020002870472068083050E8001F7E
:10212000206800F108027047206850E8001F02464E
:1021300021F0100142E80010002870472D27000808
:102140005F270008092800080080004038B50446D1
:10215000002520680168DFF8D0050140A068014330
:102160002069014360690143E0690143206801601F
:102170002068416821F44051E068014320684160D3
:10218000A1692068DFF8302790421CBF206A014314
:1021900020688268DFF824070240114320688160CC
:1021A0002068C16A0909606A40EA01112068C162B9
:1021B0002068DFF82817884234D100F003F900F0D6
:1021C000030003283DD8DFE800F0027D6C93012076
:1021D000E169B1F5004F40F0B88060B1012800F02E
:1021E000A880022800F0A880042800F0A880082811
:1021F00000F0A880CFE001F093F9002811D000F0A2
:10220000E5F8490801EB40016068B1FBF0F000F02F
:10221000CDF8EFD202EA0001C0F34200014320688A
:10222000C160B9E0DFF8B81688422AD100F0CAF8D8
:1022300010F00C005AD0042844D0082831D00C28C3
:1022400056D010202168DFF870269142C0D130B1FD
:1022500002284FD0042850D0082851D09BE001F02C
:102260005FF90028DDD000F0A7F8B0FBF1F162685B
:1022700002EB4202914203D3626812038A4242D2C5
:1022800089E0DFF8601688420DD100F09BF810F06D
:1022900030002BD0102815D0202802D0302827D08D
:1022A000CFE70220CEE7DFF8401688420CD100F0DD
:1022B00089F810F0C00019D0402803D08028F0D051
:1022C000C028ECE70420BDE7DFF8EC158842B8D160
:1022D00000F078F810F4406008D0B0F5806FF1D0CD
:1022E000B0F5006FDDD0B0F5406FD8E70020A9E76A
:1022F0000820A7E7DFF8F405B5E701F0E9F8B0E753
:102300004FF40040AFE700F057F8B0FBF1F260681F
:102310004008002110EB022051EB1261626800239B
:10232000FFF746FCA0F54071DFF8C425914232D298
:1023300022E001F0FDF860E7DFF8B0055FE701F0AB
:10234000C7F85AE74FF4004059E740B1012816D0CA
:10235000022817D0042818D0082819D01BE001F053
:10236000DFF8C8B100F032F800EB5100B0FBF1F03B
:1023700000F01CF80FD280B22168C8600CE001F0B8
:10238000D7F8EEE7DFF86405ECE701F0A1F8E8E73D
:102390004FF40040E6E701250120A4F86A00A4F804
:1023A0006800002020676067284632BDA0F1100158
:1023B0004FF6F07291427047DFF83815626A31F8D3
:1023C00012107047DFF8300500687047DFF82415F9
:1023D000626A31F81210B0FBF1F0616870470000DA
:1023E00090F82810C90707D501684A6822F400321E
:1023F000C16A0A4301684A6090F82810890707D526
:1024000001684A6822F48032016B0A4301684A601D
:1024100090F82810490707D501684A6822F48022FD
:10242000416B0A4301684A6090F82810090707D5F4
:1024300001684A6822F40042816B0A4301684A60DD
:1024400090F82810C90607D501688A6822F48052DE
:10245000C16B0A4301688A6090F82810890607D585
:1024600001688A6822F40052016C0A4301688A609C
:1024700090F82810490613D501684A6822F48012A2
:10248000416C0A4301684A60416CB1F5801F07D175
:1024900001684A6822F4C002816C0A4301684A60FC
:1024A00090F82810090607D501684A6822F400222E
:1024B000C16C0A4300684260704738B5044600F0BA
:1024C00028F801F089F8054620680068000707D55C
:1024D00000F019F84FF40011204600F026F858B922
:1024E00020680068400709D500F00DF84FF480011E
:1024F000204600F01AF808B1032032BD00F00DF8B4
:1025000084F8800032BD6FF07E4000902B460022A0
:1025100070470020C4F88C0070472020C4F8840065
:10252000C4F888000020E06670472DE9F0410546B8
:102530000E4690461F46069C2868C0693040B0424F
:102540000CBF0120002040452CD114F1010FF3D025
:1025500001F042F8C01B844200D344B900F025F8D2
:10256000FCD100F02CF8FCD100F036F815E028681A
:1025700000684007E0D52868C0690005DCD54FF445
:1025800000602968086200F010F8FCD100F017F82C
:10259000FCD100F021F8C5F88C00002085F88000FF
:1025A000032000E00020BDE8F081286850E8001F0B
:1025B000024621F4D07142E80010002870472868D4
:1025C000083050E8001F286800F108024908490057
:1025D00042E80010002870472020C5F88400C5F8A4
:1025E00088007047DFF81403014042E8001000281B
:1025F000704710B504461346A165A4F85C30FFF798
:1026000088FF2220C4F88800E06FE0B10FF2551077
:10261000E16FC8620FF2D910E16F08630FF2E910A1
:10262000E16F48630020E16F8863A26D206800F1CC
:102630002401E06F00F094FA28B100F021F8C4F80A
:102640008800012010BD002084F88000206940B17E
:10265000206850E8001F024641F48071FFF7C5FF73
:10266000F6D1FFF759FD41F00101FFF7BEFFF8D1A8
:10267000FFF752FD41F04001FFF7B7FFF8D110BD61
:102680001020C4F88C00002084F8800020207047BF
:10269000016851E8002F0B4622F0C00243E80021F8
:1026A0000029F5D10168083151E8002F016801F1D6
:1026B000080322F4000243E800210029F2D120217E
:1026C000C0F884107047016851E8002F0B4622F4CF
:1026D000907243E800210029F5D10168083151E8E2
:1026E000002F016801F108030E490A4043E8002168
:1026F0000029F2D1C16E012909D1016851E8002FEA
:102700000B4622F0100243E800210029F5D12021D8
:10271000C0F888100021C1660167704701000010F1
:1027200020010004FEFFFFEFF369FFCF0146886A36
:1027300009680968890610D40021A0F856100168BC
:10274000083151E8002F016801F1080322F08002EE
:1027500043E800210029F2D192E000F043BF806AF3
:1027600000F041BF0146886A09680968890636D4C5
:102770000021A0F85E10016851E8002F0B4622F4FA
:10278000807243E800210029F5D10168083151E841
:10279000002F016801F108035208520043E80021AC
:1027A0000029F2D10168083151E8002F016801F1D8
:1027B000080322F0400243E800210029F2D1202141
:1027C000C0F88810C16E012909D1016851E8002FB5
:1027D0000B4622F0100243E800210029F5D1C16E1A
:1027E000012904BFB0F85C1000F04DBB00F0FCBE46
:1027F000806AC16E012918BF00F0F7BEB0F85C1006
:10280000490800F040BB000038B5846A00F01EF8AB
:1028100006D5212804D1FFF730FB2046FFF738FF0B
:10282000FFF72FFB07D5222D05D10020A4F85E006D
:102830002046FFF748FFD4F88C0040F01000C4F8A1
:102840008C002046BDE8324000F01CBBD4F8840068
:10285000D4F888502168896809067047806A002189
:10286000A0F85E10A0F8561000F00CBB016851E80B
:10287000002F0B4622F0800243E800210029F5D109
:10288000016851E8002F0B4642F0400243E8002166
:102890000029F5D17047016851E8002F0B4622F05E
:1028A000400243E800210029F5D12021C0F884101E
:1028B0000021416700F096BE00800040FFF4FF1148
:1028C000B4F85E0000287047206850E8001F0246F8
:1028D00021F4807142E80010002870470038014060
:1028E0000044004000480040004C00400024F40038
:1028F00000FD0F00D84C000888100240FEFF7FEF5B
:1029000080B55948594908604FF4E13048600020CB
:102910008860C86008610C20486100208861C86137
:102920000862486288620846FFF7D4F908B100F0EF
:1029300036FF00214D4800F058FF08B100F02FFF8E
:1029400000214A4800F061FF08B100F028FF474825
:1029500000F02CFF18B1BDE8014000F020BF01BD20
:1029600018B597B004461421684600F09DFF442135
:1029700006A800F099FF20683B49884263D10220F5
:1029800006900020089006A800F092FF08B100F021
:1029900006FF3748006840F4003035490860086891
:1029A00000F40030059005983248006840F00100BE
:1029B00030490860086800F001000590059804207F
:1029C0000090022001900020029000F045F80820BD
:1029D00000900220019001200290002000F03CF8BD
:1029E0002548264908601A2048600020886000F0C9
:1029F0002CF82020C86100200862084600F044F846
:102A000008B100F0CCFE1D48E06784621C481D49F7
:102A100008601B20486010208860002000F015F836
:102A2000C8610862084600F02FF808B100F0B7FE50
:102A30001448A067846200220021262001F0F0F8EB
:102A4000262001F0FCF818B010BDC8608020086195
:102A50000020486188617047039007200490694610
:102A60004FF0904001F000B90044004060020020A7
:102A7000581002404C10024008000240D4030020CD
:102A80001C0002403404002010B5040001D10120D4
:102A900010BD00F048F8022084F825002068016885
:102AA0006FF30E11A0680143E06801432069014300
:102AB00060690143A0690143E0690143206A014361
:102AC00020680160204600F0A1F9A068B0F5804FB1
:102AD00004BF00206060207900F01EF838B105289E
:102AE00005D2204600F0ABF900F00FF803E000201B
:102AF0006065A065E0650020E063012084F82500A2
:102B00000020FFE784F8240010BD0020616D0860FC
:102B1000E06DA16D48607047A16C0860206DE16CAC
:102B20004860606870472068DFF8301388420146CB
:102B30000AD2DFF82C0341181420B1FBF0F080001A
:102B40006064DFF8200309E0DFF81C03411814205B
:102B5000B1FBF0F080006064DFF810032064704780
:102B600070B500F033F801D1022070BD00F03BF8E1
:102B700027D100F03FF8206B00282068006818BFBC
:102B800040F00E0007D120F00400216808602068A2
:102B9000006840F00A0021680860A06C0068C0036B
:102BA00005D5A06C006840F48070A16C0860606D71
:102BB00020B1006840F48070616D086000F00CF88E
:102BC00002E084F824500225284670BD0446002502
:102BD00094F82400012870472068006840F0010044
:102BE000216808607047012084F8240094F82500CB
:102BF00001287047022084F82500E56320680068FA
:102C000040084000266830602046E0E0002190F84F
:102C10002520022A03D00421C163012126E0026895
:102C2000126822F00E0203681A60826C126822F4A5
:102C30008072836C1A60026812685208520003683E
:102C40001A60012290F8443003F01F039A40036C8D
:102C50005A60026DC36C5A60426D3AB1126822F438
:102C60008072436D1A60C26D836D5A60012280F8D4
:102C70002520002280F824200846704710B5002443
:102C800090F82510022905D00421C16300F027F82F
:102C9000012422E000F094F801680968490849001D
:102CA00002681160816C096821F48071826C116086
:102CB00000F07DF8016DC26C5160416D39B1096859
:102CC00021F48071426D1160C16D826D516000F020
:102CD00006F8816B09B1816B8847204610BD012140
:102CE00080F8251080F82440704710B5016C096801
:102CF00002681268042300F053F814D0530712D569
:102D000001680968890605D40168096821F0040191
:102D100002681160042100F03BF8016B002936D0F5
:102D2000BDE810400847022300F03AF819D0930795
:102D300017D501680968890608D40168096821F077
:102D40000A0102681160012180F82510022100F0BB
:102D50001FF8002180F82410C16AC1B1BDE81040FD
:102D60000847082300F01CF811D011070FD500F018
:102D700027F800F01CF80121C16380F8251000211C
:102D800080F82410416B11B1BDE81040084710BD18
:102D900090F8442002F01F029140026C516070478D
:102DA00090F8444004F01F04A340194270470121E9
:102DB00090F8442002F01F029140026C516070476D
:102DC0000168096821F00E0102681160704730B592
:102DD000046DC56C6C60446D14B1C46D856D6C6020
:102DE000012490F8445005F01F05AC40056C6C6060
:102DF000046863608368102B036803D19A600068DD
:102E0000C16030BD99600068C26030BD0168134A7E
:102E1000914234BF164917490278083A1423B2FB8D
:102E2000F3F2436C9B0801EB830181641249C16496
:102E3000012102F01F0201FA02F2026570470179D6
:102E40000E4A02EB810242650D4A82650122491E4B
:102E500001F01F018A40C26570470000080402406B
:102E6000F8FFFDBF00000240F8FBFDBF0004024078
:102E7000000802402008024080080240FC0802408E
:102E80004009024070477047704770477047000024
:102E90007CB5040070D02078C00719D500F008FA7E
:102EA0000ED101F0030103290CD06068B0F5803F1A
:102EB0002CD100F019FA40F48030DFF8E41639E044
:102EC0000828F2D100F014FA02D56068002853D027
:102ED000207880075CD500F0EBF946D101F00301C2
:102EE000022944D0E068002800F0FEF96CD040F4DC
:102EF000807000F0F3F9054600F0FFF961D400F0AE
:102F00006BFB401B0328F7D3032076BDB0F5A02F41
:102F100000F0EAF907D140F4802000F0C5F9086814
:102F200040F4803006E020F4803000F0BDF90868FD
:102F300020F480200860606858B100F04DFB054621
:102F400000F0D6F9C4D400F047FB401B6528F7D346
:102F5000DAE700F041FB054600F0CAF9B8D500F009
:102F60003BFB401B6528F7D3CEE70428BAD100F01D
:102F7000C4F903D5E068002800F0808100F0A2F9D0
:102F8000DFF82006006800F051FF002840F076814D
:102F90002078000737D56069002800F07BF921D040
:102FA00040F00100DFF8F41500F09AF9054600F052
:102FB00071F9800727D400F00FFB401B0328F6D3DC
:102FC000A2E700F07FF9E3E720F4807000F086F9D3
:102FD000054600F092F9DBD500F0FEFA401B03280D
:102FE000F7D391E740084000DFF8B01500F078F91A
:102FF000054600F04FF9800705D500F0EDFA401BBB
:103000000328F6D380E72078400772D50025DFF843
:1030100098050068C0000DD4DFF88C05006840F00A
:103020008050DFF884150860086800F08050009038
:1030300000980125DFF874050068C00514D4DFF896
:103040006C05006840F48070DFF8601500F048F906
:103050000646DFF858050068C00505D400F0BCFA44
:10306000801B0328F5D34FE7A068012806D100F0A4
:103070000DF940F00100DFF8381514E0052800F0E4
:1030800005F908D140F00400DFF82415086008684D
:1030900040F0010007E040084000DFF81415086028
:1030A000086820F004000860A06860B100F094FA9D
:1030B000064600F0EBF8800712D400F08DFA00F01D
:1030C000FBF9F6D320E700F087FA064600F0DEF8B9
:1030D000800705D500F080FA00F0EEF9F6D313E78B
:1030E0003DB1DFF8C404006820F08050DFF8B81468
:1030F00008602078800629D5A0690028DFF8B4048C
:10310000006811D040F00100DFF8A81400F0E8F8E2
:103110000546DFF8A0040068800717D400F05CFAC9
:10312000401B0328F5D3EFE640084000DFF8841485
:1031300000F0D6F80546DFF87C040068800705D566
:1031400000F04AFA401B0328F5D3DDE6E0690028C9
:1031500000F0968000F0A2F80C28E06962D000F040
:10316000C2F820F0807000F09FF841D100F034FAEE
:10317000054600F0C7F805D500F02EFA401B0328DD
:10318000F7D3C1E600F07EF8DFF82C140840216A7E
:103190000843616A491E40EA0110A16A40EA012021
:1031A000216B4908491E40EA4150616B4908491E9C
:1031B00040EA4160E16A40EAC160DFF8DC13086080
:1031C00000F092F840F0807000F06EF800F05AF8CD
:1031D00040F08070DFF8C01300F082F8044600F081
:1031E00091F84DD400F0F8F9001B0328F7D38BE6D3
:1031F00000F048F880088000DFF89C130860096838
:10320000DFF8B8030140DFF89003016000F0E4F953
:10321000044600F077F833D500F0DEF9001B0328F0
:10322000F7D371E6012829D000F02CF800F0030153
:10323000226A914201BF00F0F001626A521EB1EBB6
:10324000021F1BD100F4FE41A26AB1EB022F02BFA4
:1032500000F07841E26AB1EBC26F0FD100F4C00117
:10326000226B5208521EB1EB425F07D100F0C060E2
:10327000616B4908491EB0EB416F01D0012076BD5A
:10328000002076BDDFF8100300687047DFF82003E8
:1032900000687047DFF8040300687047DFF8F00249
:1032A000006800F00C007047DFF8F4120860704707
:1032B000DFF8DC02006800F00C00DFF8DC120968BF
:1032C0000C287047DFF8C402006820F0FE40216936
:1032D00040EA0160DFF8B41208607047DFF8C012FE
:1032E000086000F079B90228DFF8B402006870477E
:1032F000DFF8AC02006880037047DFF8A4020068C2
:1033000040057047DFF89802006880017047F8B503
:1033100004460D460026002C54D000F0B8F807D221
:1033200000F0CFF80860086800F00F00A84249D10B
:103330002078C00748D56068032814D1FFF7E2FF62
:1033400040D500F005F9DFF8781288421DD3DFF888
:103350004002006810F0F00F10D02078800714D5DC
:10336000A06890B90AE0FFF7BEFF29D1800329D5F4
:1033700000F0AEF8DFF84812884206D300F097F864
:1033800040F0800000F080F88026DFF80402016839
:103390008908606840EA8101DFF8F401016000F00B
:1033A0001BF90746FFF77AFF6168B0EB810F0BD07E
:1033B00000F012F9C01B00F080F8F3D30320F2BD37
:1033C0004005D5D40120F2BD2078800719D520789A
:1033D000400704D5DFF8B801006800F053F8207802
:1033E000000703D500F05EF800F04CF8DFF8A0010C
:1033F000016821F0F001A0680143DFF89401016049
:1034000005E0802E03D100F052F800F03DF8DFF81F
:10341000B401006800F00F0085420DD200F051F8B1
:10342000FFF75EFF064600F032F805D000F0D4F852
:1034300000F042F8F7D3C1E72078400707D5544899
:10344000016821F4E061E06801435148016020789F
:10345000000706D500F026F8216940EAC10000F017
:1034600013F800F035F85849494A1268C2F30312BC
:10347000895C01F01F01C84000F00FF8BDE8F24080
:1034800000F0D4BC40F4E0604149086070474D480A
:10349000006800F00F00A84270474C49086041489E
:1034A000006870473A48006820F460507047384818
:1034B000006820F0F0007047801B41F2893188429B
:1034C000704740480068000945EA00103D497047D0
:1034D0002F48006800F00C00042801D12D487047E7
:1034E0002B48006800F00C00082801D138487047CC
:1034F0002748006800F00C000C280CD12648016811
:103500000068C0F30310401C01F0030103290CBF45
:103510002F49204928E0002070472C480068704758
:1035200080B5FFF7FAFF00F00FF8C2F3022206E0C1
:1035300080B5FFF7F2FF00F007F8C2F3C222895C02
:1035400001F01F01C84002BD2249114A12687047AC
:10355000114801680068C0F30310401C01F003012A
:1035600003290CBF1A490B49B1FBF0F10A48006866
:10357000C0F30620414308480068C0F34160401C86
:103580004000B1FBF0F07047000000000410024062
:10359000081002400024F4000C1002409410024075
:1035A000001002401C010020581002400070004032
:1035B00090100240981002400C809F01FFFFEEFE29
:1035C00001B4C40400200240244D0008240100205E
:1035D00000366E01544D000801480068704700BF76
:1035E00098040020704770477047704780B500F01E
:1035F00045FC00F00DF800F051FC00F08BFC00F0F1
:10360000B3FCFFF77DF900F038F800F096F8FCE71E
:1036100000B593B0382105A800F046F9142168469A
:1036200000F042F9002000F029FD012005904FF440
:103630008030069002200C9003200D9006200E9002
:1036400055200F90022010901190129005A8FFF7BE
:103650001FFC08B100F0A3F80F2000900320019098
:10366000002002900390049004216846FFF74FFE6B
:1036700008B100F094F813B000BD80B572B63E48B2
:10368000D0F8A81088474FF480723B480169006861
:10369000FEF7AFFB08B100F082F83848006800F090
:1036A00079FE08B100F07BF83448426E816E006804
:1036B00000F029FF08B100F072F800202F4988605F
:1036C000C8604FF400200861002048618861C8612B
:1036D0000862486262B601BD10B529480468641CDE
:1036E000B4F5FA7F26DB00242448426821A1224851
:1036F000C06801F0C3F82048C068FDF751FD81B2F1
:103700001D4801F0DBF81D48006800F0F0FE0028BD
:103710001EBF1C48007800280CD01B4A1B491748C4
:10372000006800F04CFE18B11949134801F0F3F895
:1037300014490C701248046010BD0F48D0F8AC104A
:10374000084700680D4A12681268904200D070471E
:1037500080B50A48806E01420AD00E4B0E4A0748D7
:10376000416E006800F054FE10B1BDE8014016E063
:1037700001BD000025640A006C000020000000204C
:1037800094040020A404002028000020040000204D
:10379000044D000858000020300000209CE772B65D
:1037A000FEE7000080F880100020704790F880103D
:1037B000012901D102207047012180F880102421C5
:1037C000C0F8841001680968026812685208520043
:1037D00003681A600022426621F0005102681160FD
:1037E0002021C0F884100021DCE738B500F008F88B
:1037F00001D1022032BD00F024F820F060400EE03C
:10380000044694F880000128704738B5FFF7F8FFA8
:1038100001D1022032BD00F014F820F060600143B5
:1038200020688160204600F01CF82068056000F0E8
:1038300001F832BD2020C4F88400002084F8800004
:103840007047012084F880002420C4F88400206898
:1038500005680068400840002268106020688068A1
:10386000704710B5416E11B90121012213E00168C2
:103870008A68520E02F007028968490F084B5B5CA8
:10388000DB00084C615C93FBF1F1054B9B5CDB00BA
:10389000A25C93FBF2F2A0F86A10A0F8682010BDB9
:1038A000444D00084C4D0008002201F09FB8000074
:1038B000F8B5054600262868000356D50024DFF831
:1038C00088020068C00002D400F02AF90124DFF861
:1038D0007C02006840F48070DFF870120860FFF727
:1038E0007BFE0746DFF864020068C00506D4FFF7D8
:1038F00073FEC01B0328F5D3032633E000F00DF957
:1039000010F440701CBF296C884210D000F005F9FB
:1039100020F44070DFF83812096841F48031DFF894
:1039200030221160116821F4803111601060C007ED
:103930000ED5FFF751FE074600F0EFF8800707D4D9
:10394000FFF74AFEC01B41F289318842F4D3D3E726
:10395000DFF8FC01016821F44071286C0143DFF8B5
:10396000F00101600CB100F0E7F82878C00708D535
:1039700000F0BBF88908686840EA8101DFF8D401EB
:1039800001602878800706D500F0AFF821F00C011F
:10399000A86800F0B4F82878400706D500F0A5F82C
:1039A00021F03001E86800F0AAF82878000706D571
:1039B00000F09BF821F0C001286900F0A0F82878F9
:1039C000800606D500F091F821F44061686900F0A6
:1039D00096F82878400606D500F087F821F4405183
:1039E000A86900F08CF82878000606D500F07DF86C
:1039F00021F44041E86900F082F82868C00506D546
:103A000000F073F821F44031286A00F078F8286853
:103A1000800506D500F069F821F44021686A00F0BD
:103A20006EF8286840050CD500F05FF821F44011CD
:103A3000A86A00F064F8A86AB0F5801F01D100F010
:103A400063F8286800050CD500F04FF821F4400118
:103A5000E86A00F054F8E86AB0F5800F01D100F090
:103A600053F82868C0040CD500F03FF821F04071ED
:103A7000286B00F044F8286BB0F1807F01D100F092
:103A800043F8286880040AD500F033F8686B00F02A
:103A900036F8686BB0F1006F01D100F035F8286896
:103AA00040040AD500F025F8A86B00F028F8A86BB0
:103AB000B0F1006F01D100F027F82868000412D59A
:103AC00000F013F821F04051E86B00F018F8E86BB3
:103AD000B0F1805F07D1DFF88000006840F48030EB
:103AE000DFF8741008603046F2BDDFF86800016846
:103AF0007047DFF86000016821F0406170470143C2
:103B0000DFF8500001607047DFF84C00006840F4B7
:103B10008010DFF84410086070470D480068704757
:103B20000948006840F0805007490860086800F0C4
:103B300080500090009870470348006820F0805043
:103B400001490860704700005810024000700040B2
:103B500090100240881002400C1002403A490A6856
:103B60004FF6FF010A40000200F4E06010433749BD
:103B7000084335490860704733480068C0F30220A5
:103B800070470000010007D4012200F01F018A40A5
:103B90002F49400941F820207047020003D4090151
:103BA0002C4A1154704709012B4A00F00F001044B1
:103BB00000F8041C704710B500F00700C0F10703BF
:103BC000052B2FBF0F23012404FA03F35B1E041DF2
:103BD000072C34BF0020C01E19408140012303FA86
:103BE00000F0401E1040084310BD10B50446601E92
:103BF000B0F1807F0CD2194908600F214FF0FF30DF
:103C0000FFF7CBFF00201649086007201549086020
:103C1000641EB4F1807F8041C043C00F10BD9DE79A
:103C200070B504460D461646FFF7A6FF32462946F4
:103C3000FFF7C1FF01462046BDE87040ADE7A1E7B0
:103C4000D3E7FFF7ABBD00000CED00E00000FA0584
:103C500000E100E000E400E018ED00E014E000E026
:103C600018E000E010E000E0F8B5024600232CE088
:103C7000634CA24214BF0624052400F0B7F82C437D
:103C8000604D9E0845F826405F4C00F0ABF8ED0211
:103C900048BF04435C4D2C605C4C00F0A3F8AD02BF
:103CA00048BF0443594D2C60594C00F09BF8AD03BC
:103CB00048BF0443564D2C60564C00F093F8ED037A
:103CC00048BF0443534804605B1C0868D84000F0B8
:103CD0008380086801249C402040F5D00C7904F0D2
:103CE0000304012C1EBF0C7904F00304022C10D134
:103CF000946800F072F8CD68B5402C439460546825
:103D000001259D40AC434D68C5F300159D402C43F3
:103D100054600C7904F00304032C1FD0D46800F025
:103D20005CF88D68B5402C43D4600C7904F0030432
:103D3000022C13D1DC0802EB8404246ADD0802EBB8
:103D400085050F269F0007F01C07BE40B4430E698F
:103D50009F0007F01C07BE4034432C62146800F03B
:103D60003CF80D7905F00305B5402C4314604C6810
:103D700014F4403FA8D0284C246844F00104264D98
:103D80002C602C6804F001040094009C1D4C9D08DC
:103D900054F825400F269D0005F00C0506FA05F5A0
:103DA00024EA0505B2F1904F08BF002413D01B4C44
:103DB000A24208BF01240ED0194CA24208BF02241F
:103DC00009D0184CA24208BF032404D0164CA242CA
:103DD0007FF44EAF042450E7F1BD03255E00B540EB
:103DE000AC437047246884434D6870479E0006F0DA
:103DF0000C06B44070470AB1816170478162704718
:103E00000014004808000140080401400C0401406F
:103E10000404014000040140601002400004004816
:103E200000080048000C00480010004838B504465F
:103E300000250F480068B8B14FF47A700C49096842
:103E4000B0FBF1F00B490968B1FBF0F0FFF7F8FEA9
:103E500050B9102C08D2002221464FF0FF30FFF756
:103E6000DFFE0548046000E00125284632BD00BFA2
:103E700020010020240100201C01002010B5002496
:103E80000320FFF7CCFE0F20FFF7D0FF002814BF60
:103E9000012400F0C5FD204610BD000080B586B0AD
:103EA000142101A8FFF700FD1848006840F0200029
:103EB00016490860086800F0200000900098086823
:103EC00040F001000860086800F0010000900098D0
:103ED000086840F002000860086800F002000090E6
:103EE000009800224FF480710948FFF784FF4FF4D7
:103EF000807001900120029000200390049001A99D
:103F00000348FFF7B1FE07B000BD00BF4C100240F0
:103F10000004004880B51348006840F004001149CF
:103F20000860086800F0040000900098086840F0FD
:103F300001000860086800F001000090009800226D
:103F400000210B20FFF76CFE0B20FFF778FE00220C
:103F500000210C20FFF764FE0C20BDE80240FFF7B3
:103F60006EBE00BF4810024080B586B03F48404951
:103F70000860002048608860C860088288740A2051
:103F80004861012088610E20C8610220086201207A
:103F900048628862C86208631C2048630020886306
:103FA000C863084600F0F4F808B1FFF7F8FB0020FA
:103FB000009001900290012003900020049040F2B4
:103FC000FF70059069462A4800F0BBF908B1FFF779
:103FD000E6FB07B000BD18B597B00446142101A850
:103FE000FFF762FC442106A8FFF75EFC20681F492A
:103FF000884239D14FF4805006904FF000701290F3
:1040000006A8FFF755FC08B1FFF7C9FB194800687F
:1040100040F0007017490860086800F000700090D8
:1040200000981548006840F00100134908600868CE
:1040300000F00100009000984FF4C0500190022061
:10404000029001200390032004900920059001A90B
:104050004FF09040FFF708FE002200211520FFF7E7
:10406000DFFD1520FFF7EBFD18B010BD0064004028
:1040700070030020581002404C10024090BBDFF843
:10408000F800006800F4C060B0F5806FDFF8EC0065
:10409000006820F48070DFF8E410086060D1DFF879
:1040A000D800006820F4C06040F40070DFF8C81049
:1040B0000860DFF8CC00016832204143DFF8C4001B
:1040C000B1FBF0F0401C00E0401EDFF8BC100968B6
:1040D000490501D50028F7D1DFF8AC00006840059C
:1040E00035D43DE0B0F5007FDFF88C00006830D1BA
:1040F00000F4C060B0F5806FDFF88000006840F425
:104100008070DFF8781008602AD1DFF86C00006852
:1041100020F4C06040F40070DFF85C100860DFF845
:104120006000016832204143DFF85800B1FBF0F035
:10413000401C00E0401EDFF850100968490501D519
:104140000028F7D1DFF840000068400508D50320BB
:10415000704720F4C06040F48060DFF81C100860F5
:1041600000207047DFF82410086070470748006897
:1041700040F48040F6E7000000700040807000408E
:104180002401002040420F001470004008700040DD
:1041900038B5040028D094F85C0020B984F85D009C
:1041A0002046FFF718FF00F0BCF80546206880693C
:1041B000000705D5FFF710FA401B0B28F6D311E0D6
:1041C0002068806940F0010021688861FFF704FAE7
:1041D000054620688069C00708D4FFF7FDF9401B39
:1041E0000B28F6D300F0A5F8012032BD20688069C5
:1041F00040F0020000F091F8DFF8E015884203D1AA
:104200006068DFF854160860207C01282068806907
:104210000CBF20F0400040F0400021688861607CC5
:104220000128206880690CBF40F4804020F4804061
:1042300021688861A07C0128206880690CBF20F477
:10424000805040F4805000F068F8816921F440719A
:10425000A0680143206881612068806920F0A40083
:1042600000F05BF8006920F0100021680861E06848
:10427000012804D12068806940F0040014E0A8B14E
:104280000228206880690DD040F0800000F045F8D9
:10429000006940F0100021680861E068032805D13A
:1042A0002068806940F0200021688861A069401E74
:1042B000E169491E090241EA4061206A401E01434A
:1042C0006069401E41EA00412068C161A068B0F504
:1042D000407F0FD1A06A401EE16A491E40EA0120DA
:1042E000216B491E40EA0110616A491E40EA014003
:1042F0002168C8602068D0F8C010E06B01432068D6
:10430000C0F8C010204600F03EFA0020A0652066EC
:10431000012084F85C00002032BD2168886120689B
:1043200070472068806920F0100021688861FFF7DD
:1043300053B9206E40F001002066032084F85C0031
:10434000704790F85C20012A18BF022A21D10A6820
:104350007AB9026C486802EB80028868CB68DB0699
:1043600043EA8073086943EA0043486903431360E2
:104370000DE08B684A6942EA8372406C4B6800EB3F
:10438000C300CB68096941EA4371016042600020C3
:104390007047B2E090F85C1001290CD1022180F83E
:1043A0005C1001688969490849000268916100212F
:1043B000016600207047016E41F00401A0E038B5AD
:1043C000044694F85C0002281CD12068D0F8C40090
:1043D000800203D5206E40F4007016E02068D0F80B
:1043E000C400C0F301452B46204600F0F9F9012036
:1043F000A8402168C1F8CC00012000FA05F5A565A8
:10440000002032BD206E40F008002066012032BD41
:10441000F0B590F85C40022C63D1402904680BD1C0
:10442000D4F8904014F00F0F0BD00468D4F89040EB
:10443000C4F30125846C0EE0D4F8984014F00F0FFB
:1044400003D1016E41F480714EE00468D4F89840C5
:10445000C4F30125C46C482616FB0546346814F0E5
:104460008044546034680CBFC4F38A4424F0604430
:104470001460346804F00054946056F8044B04F05F
:10448000004414613468A4B2D461346804F4702424
:10449000D460346804F480145461346804F4001463
:1044A00094613468C4F30664146256F8044BE40F54
:1044B0005462002402E0375D1F55641CDFF89C73D2
:1044C000D2F80CC04FEA1C4C17F80C70BC42F2D367
:1044D000402900680CBFC0F89450C0F89C500020E0
:1044E000F0BD016E41F0080101660120F0BD0068D9
:1044F000D0F8C40000F007007047016E41F00201DF
:1045000001660120704730B590F85C30012B18BF70
:10451000022B6CD103689B6D11F0070F01D0DC07F3
:104520001DD511F0380F01D09C0718D511F4E07F8C
:1045300001D05C0713D511F4F05F01D01C070ED534
:1045400011F4604F01D0DC0609D511F4403F01D0D1
:104550009C0604D511F47C0F07D05C0605D40468D2
:10456000E46D44F001040568EC6511F0070F01D01B
:10457000DC071DD411F0380F01D09C0718D411F4BA
:10458000E07F01D05C0713D411F4F05F01D01C0769
:104590000ED411F4604F01D0DC0609D411F4403F71
:1045A00001D09C0604D411F47C0F07D05B0605D51E
:1045B0000368DB6D43F002030468E3650B0606D570
:1045C0000368D3F8DC3013430468C4F8DC30CB054F
:1045D00006D50368D3F8E0301A430368C3F8E02037
:1045E0000268526D114300684165002030BD016EC4
:1045F00041F002010166012030BD2DE9F843074674
:104600003868056D406D054005F4E0553868066D65
:10461000406D064006F007063868016D406D0840A1
:1046200000F038093868046D406D044004F47104EA
:104630003868016D406D084000F460283868006DEE
:10464000400608D53868406D400604D5402000F08B
:1046500096F800F003FA3868006DC00510D5386888
:10466000406DC0050CD53868D0F8D810D0F8E000FF
:104670004FF480723B681A650140384600F0EFF94C
:104680002DB1386805652946384600F0E9F92EB1A4
:104690003868066531463846FFF753F8B9F1000F20
:1046A00006D03868C0F850904946384600F0D9F92D
:1046B0003868006D800509D53868406D800505D5DE
:1046C0004FF4007000F05BF800F0CCF93868006D32
:1046D00000060FD53868406D00060BD53868D0F855
:1046E000D410D0F8DC0080223B681A6501403846BF
:1046F00000F0B9F93868006D800409D53868406D5C
:10470000800405D54FF4005000F039F800F0ACF902
:104710003868006D000409D53868406D000405D57F
:104720004FF4004000F02BF800F09FF93868006D5E
:1047300040040BD53868406D400407D54FF48040E5
:1047400039680865386E40F080003866B8F1000FAF
:1047500006D03868C0F850804146384600F086F9E7
:1047600024B138680465386E04433C66386E20B165
:104770003846BDE8F24300F07AB9BDE8F183396804
:10478000086538467047364901640168D1F88010E1
:1047900021F4F811426B41EA02410268C2F880102C
:1047A000304941640168D1F8801021F07061826B5A
:1047B00041EA02610268C2F880102B4981642B49EA
:1047C000C1642B4901652B4941652548002140F80A
:1047D000041B29498842F9D3704700000064004057
:1047E00070B51C464B68002B0D698B6804D11D43C6
:1047F0000B6845EA834504E01D430B681D4345F003
:1048000080450B6ACE6946EA03668B691E434B6995
:104810001E43CB681E43436D482000FB04342560D3
:10482000666004F1080000230FE0D418E478D5187E
:10483000AD782D0445EA0465D418647845EA04256A
:10484000D45C254340F8045B1B1D044CCD682D0C43
:10485000645DA342E9D370BD00650040144D0008BB
:1048600000A4004070A40040B0A4004088A500400F
:1048700060A6004078A6004050A700400CB430B5B8
:1048800083B00A4606A902910446002501940095CA
:1048900002AB01A9084878441E30FBF79DFC019A41
:1048A000157000284EBF04460198041B204603B033
:1048B00030BC5DF80CFB00BF9FC8FFFF0A460168D3
:1048C0000968C9694906FAD5C1680068FDF746BAA2
:1048D00001464FF0FF304A6812685268C2F5807294
:1048E0004A614A698B699A4207D00869B1F9182070
:1048F000805C5A1C02F0FF028A61704701464868DA
:1049000000684068C0F58070486148698969401A4C
:1049100000F0FF00704738B504460D46E06800F02F
:10492000A7F82846FCF73CFC81B22046BDE834409D
:10493000C4E70549016005494160054981600549B1
:1049400001610549C160704760020020D403002066
:104950003404002060010020F002002038B5044635
:1049600001E0401CE0832046FFF7C8FF88B12046E5
:10497000FFF7AEFFE18B214481F82200E08B204459
:1049800090F822000A2802D0E08B4028E9DB0120C1
:104990002077207F40B300202084616E04F1220044
:1049A00000F072F8218C04EB810109E0258C6D1C6C
:1049B0002584616E002000F067F8ADB204EB85013C
:1049C0008866208C04EB8000806E0028EED12046A3
:1049D00000F080F80020E0832077402104F12200DD
:1049E000BDE8344000F078B831BD000000B500BF2C
:1049F000130096469446103928BFA0E80C50FAD808
:104A00005FEA417C28BF0CC048BF40F8042BC907AF
:104A100028BF20F8022B48BF00F8012B00BD000082
:104A200082B00C48006840F001000A49086008683C
:104A300000F00100009000980748006840F08050A6
:104A400005490860086800F080500090009802B0A6
:104A5000FFF78CBB6010024058100240704770474F
:104A6000704770477047704770477047704770478E
:104A70005FEA000C11F8012B00F8012B12B111F8BC
:104A8000012BF9E76046704738B504000D460BD09E
:104A90002946204600F023F80444207848B90C4801
:104AA00000210160002032BD09490C68002CEFD1C3
:104AB00032BD2946204600F023F82118087810B1AD
:104AC000002201F8012B02480160204632BD00BFE0
:104AD0009C04002070470000002200F023B870B44E
:104AE000044600E0641C23783BB10D462A7822B1CD
:104AF00015F8016BB342F9D1F4E7201A70BC704786
:104B000070B4044600E0641C23783BB10D462A785B
:104B1000002AF8D015F8016BB342F8D1201A70BC06
:104B200070470000401810F0030308D0C91A1FD3C3
:104B3000DB0748BF00F8012D28BF20F8022D130025
:104B400030B414461546103928BF20E93C00FAD885
:104B5000490728BF20E90C0048BF40F8042D890010
:104B600028BF20F8022D48BF00F8012D30BC704747
:104B7000C91818BF00F8012DCB0728BF00F8012D78
:104B800070470000FEE7FEE7FEE7FEE7FEE770473E
:104B90007047704780B5FFF754F8BDE8014000F05A
:104BA00015B80648FEF7A1B80548FEF79EB80548B7
:104BB000FFF723BD0448FDF768B90000D4030020C7
:104BC00034040020700300206002002003480168C4
:104BD00003480068411801480160704798040020AC
:104BE0002001002030B4002512E050F8042BD30738
:104BF00044BF4A44521E091F042942F8045BFAD2FA
:104C000013468C0744BF15809B1CC90748BF1D7005
:104C100050F8041B0029E8D130BC704710B5074993
:104C200079441831064C7C44163404E00A68081DA7
:104C3000114488470146A142F8D110BD2C00000064
:104C4000480000004EF68851CEF20001086840F49A
:104C500070000860BFF34F8FBFF36F8F4FF000708D
:104C6000E1EE100A704700007DFFFFFF48030000DF
:104C700060010020000000008FC4FFFFEC01000075
:104C8000BA0000000000002000F00DF8002801D05C
:104C9000FFF7C4FFAFF300800020AFF30080FEF702
:104CA000A5FC00F002F80120704700F001B80000F8
:104CB00007463846FDF704F8FBE7000005480146C3
:104CC00003B4684680F30988AFF30080FFF7BAFFAA
:104CD000FFF7DAFFA5EDF5FE010002000400060073
:104CE00008000A000C0010002000400080000001B5
:104CF0000348006840F470000149086070470000F4
:104D000088ED00E043414E207478206661756C7434
:104D1000000000000001020304050607080C10143F
:104D200018203040000000000000000001020304D1
:104D3000060708090148804701480047F14C000870
:104D4000BD4C000801010103070100000804020432
:104D50000801010100000000010203042C0A0D00FB
:104D6000FFF7FEBFFFF7FEBFFFF7FEBFFFF7FEBF77
:104D7000FFF7FEBFFFF7FEBFFFF7FEBFFFF7FEBF67
:104D8000FFF7FEBFFFF7FEBFFFF7FEBFFFF7FEBF57
:104D9000FFF7FEBFFFF7FEBFFFF7FEBFFFF7FEBF47
:104DA000FFF7FEBFFFF7FEBFFFF7FEBFFFF7FEBF37
:104DB000FFF7FEBFFFF7FEBFFFF7FEBFFFF7FEBF27
:104DC000FFF7FEBFFFF7FEBFFFF7FEBFFFF7FEBF17
:104DD000FFF7FEBFFFF7FEBFFFF7FEBFFFF7FEBF07
:104DE000FFF7FEBFFFF7FEBFFFF7FEBFFFF7FEBFF7
:104DF000FFF7FEBFFFF7FEBFFFF7FEBFFFF7FEBFE7
:104E0000FFF7FEBFFFF7FEBFFFF7FEBFFFF7FEBFD6
:104E1000FFF7FEBFFFF7FEBFFFF7FEBFFFF7FEBFC6
:104E2000FFF7FEBFFFF7FEBFFFF7FEBFFFF7FEBFB6
:104E3000FFF7FEBFFFF7FEBFFFF7FEBFFFF7FEBFA6
:104E4000FFF7FEBFFFF7FEBFFFF7FEBFFFF7FEBF96
:104E5000FFF7FEBFFFF7FEBFFFF7FEBFFFF7FEBF86
:104E6000FFF7FEBFFFF7FEBF0370030020A40000A2
:104E700001FD000040FD0000019900035C4D0008A9
:104E8000C00008334900085D49000810FD0000011A
:104E9000FC001E24F400C6140008C6140008C61442
:104EA0000008C6140008C6140008C6140008C6147A
:104EB0000008F8FF0BB2120008C6140008C6140060
:054EC00008FAFFFE00EE
:0400000508004CBDE6
:00000001FF
