:020000040800F2
:1000000070080020C13B0008E9390008F1390008F8
:10001000F3390008F5390008F7390008000000003E
:10002000000000000000000000000000F939000896
:10003000FB39000800000000FD390008FF39000806
:10004000ED3B0008F13B0008F53B0008F93B0008D8
:10005000FD3B0008013C0008053C0008093C000885
:100060000D3C0008113C0008153C00080B3A000844
:10007000153A0008193C00081D3C0008213C000806
:10008000253C000800000000293C00082D3C000829
:10009000313C00081F3A0008353C0008393C000894
:1000A0003D3C0008413C0008453C0008493C000834
:1000B0004D3C0008513C0008553C0008593C0008E4
:1000C0005D3C0008613C0008653C0008693C000894
:1000D0006D3C0008713C0008293A0008753C000896
:1000E000793C00087D3C0008813C0008853C000804
:1000F000893C00088D3C0008913C0008000000008D
:1001000000000000953C000800000000993C000839
:100110009D3C000800000000A13C0008A53C000830
:10012000A93C0008AD3C0008B13C0008B53C000803
:10013000B93C00080000000000000000BD3C0008C1
:10014000C13C0008C53C00080000000000000000A1
:10015000000000000000000000000000000000009F
:10016000000000000000000000000000C93C000882
:10017000CD3C00080000000000000000000000006E
:1001800000000000D13C000800000000000000005A
:10019000000000000000000000000000000000005F
:1001A0000000000000000000D53C0008D93C000819
:1001B000DD3C0008E13C0008E53C000800000000D0
:1001C00000000000E93C0008000000000000000002
:1001D000ED3C0008F13C000810B50400002C01D1F2
:1001E000012037E0A0690028FFD1D4F8840000285E
:1001F00005D1002084F88000200000F091FE24202A
:10020000C4F8840020680068400840002168086045
:10021000200000F02FFA012801D101201AE0A06A85
:10022000002802D0200000F0F1FB2068406830F484
:100230009040216848602068806830F02A0021687A
:1002400088602068006850F0010021680860200084
:1002500000F049FC10BD70B505000C001600D5F883
:100260008400202851D1002C03D0300080B2002817
:1002700001D101204AE095F88000012801D1022037
:1002800044E0012085F880002C65A5F85460A5F8AD
:1002900056600020C5F88C002120C5F88400A86FA6
:1002A000002824D0DFF8C003A96FC862DFF8BC03C0
:1002B000A96F0863DFF8B803A96F48630020A96F2E
:1002C000886333009BB2286810F12802296DA86F5B
:1002D00000F03CFF00280AD01020C5F88C00002058
:1002E00085F880002020C5F8840001200EE0402021
:1002F00029680862002085F880002868806850F02E
:10030000800029688860002000E0022070BD70B580
:1003100005000C001600D5F88800202828D1002CF4
:1003200003D0300080B2002801D1012021E095F8EF
:100330008000012801D102201BE0012085F8800007
:100340000020E8662868DFF81C13884209D0286876
:100350004068000205D52868006850F08060296870
:100360000860320092B22100280000F052FC00E048
:10037000022070BD2DE9F04706003068C76930687B
:10038000D0F800803068D0F8089040F60F043C4068
:10039000002C0ED1B8060CD55FEA886002D45FEA63
:1003A000C90006D5306F002802D03000316F884771
:1003B00056E1002C00F0A180DFF8480619EA000F92
:1003C00005D1DFF8440618EA000F00F096803800E7
:1003D000C0070BD55FEAC85008D501203168086214
:1003E000D6F88C0050F00100C6F88C00B8070BD589
:1003F0004846C00708D5022031680862D6F88C004C
:1004000050F00400C6F88C0078070BD54846C007AA
:1004100008D5042031680862D6F88C0050F002003C
:10042000C6F88C00380710D55FEA886004D4DFF87E
:10043000D40519EA000F08D0082031680862D6F800
:100440008C0050F00800C6F88C0038050CD55FEA27
:10045000481009D54FF4006031680862D6F88C0066
:1004600050F02000C6F88C00D6F88C00002843D04D
:10047000B8060BD55FEA886002D45FEAC90005D5EB
:10048000306F002802D03000316F8847D6F88C00DA
:10049000050030688068400602D415F0280F25D08A
:1004A000300000F012FC3068806840061AD53068D1
:1004B000806830F0400031688860F06F00280DD00F
:1004C000DFF84408F16F8863F06F00F0DAFE00286F
:1004D00012D0F06FF16F896B88470DE0300000F0AB
:1004E000F9FF09E0300000F0F5FF05E0300000F012
:1004F000F1FF0020C6F88C00B2E0F06E012878D140
:10050000F80676D55FEAC86073D5102031680862B6
:100510003068806840063ED5F06F0068D0F804A0CF
:10052000504680B2002835D05046B6F85C1080B2F4
:1005300088422FD2A6F85EA0F06F0068006880069F
:100540001FD43068006830F480703168086030680B
:10055000806840084000316888603068806830F00A
:100560004000316888602020C6F888000020F066CE
:100570003068006830F0100031680860F06F00F0FB
:1005800044FEB6F85C10B6F85E00091A89B2300075
:1005900000F0A1FF64E0B6F85C00B6F85EA0B0EB36
:1005A0000A0AB6F85E00002822D0504680B2002821
:1005B0001ED03068006830F4907031680860306890
:1005C0008168DFF83C040140306881602020C6F873
:1005D00088000020F066002030673068006830F046
:1005E000100031680860514689B2300000F073FF96
:1005F00036E0F8020AD55FEA492007D55FF480109B
:1006000031680862300000F067FF29E038060CD539
:100610005FEA086002D45FEA092006D5706F0028FF
:1006200002D03000716F88471AE0780606D55FEA7D
:10063000486003D5300000F019FC11E0380206D5FF
:100640005FEA480003D5300000F047FF08E0F801FA
:1006500006D5B8F1000F03D5300000F03FFFFFE7EB
:10066000BDE8F087008000402D0D0008630D0008F4
:10067000010E00082DE9F84F040000262068DFF87D
:100680008C168842FFD0A16820690143606901434C
:10069000E069014320680268DFF8740602400A43FB
:1006A000206802602068426832F44052E0680243E9
:1006B00020684260D4F818802068DFF85026904205
:1006C00002D0206A50EA080820688168DFF84406F2
:1006D000014058EA0101206881602068C16A090967
:1006E0000901606A01432068C1622068DFF82816AA
:1006F000884216D1DFF82406006810F003000028B5
:1007000005D0022805D006D3032806D007E001272C
:100710007FE002277DE004277BE0082779E01027AF
:1007200077E02068DFF8F815884217D1DFF8EC058C
:10073000006810F00C00002806D0042808D0082813
:1007400004D00C2806D007E0002762E0022760E012
:1007500004275EE008275CE010275AE02068DFF8F5
:10076000C415884217D1DFF8B405006810F03000D6
:10077000002806D0102808D0202804D0302806D021
:1007800007E0002745E0022743E0042741E008276F
:100790003FE010273DE02068DFF88C15884217D134
:1007A000DFF87805006810F0C000002806D0402867
:1007B00008D0802804D0C02806D007E0002728E011
:1007C000022726E0042724E0082722E0102720E063
:1007D0002068DFF8381588421AD1DFF84005006834
:1007E00010F44060002809D0B0F5806F0AD0B0F551
:1007F000006F05D0B0F5406F06D007E0002708E095
:10080000022706E0042704E0082702E0102700E0A2
:1008100010272068DFF8F414884255D13800C0B2A0
:10082000002806D0022808D0042809D008280BD0B8
:100830000DE001F079FA81460DE0DFF854960AE008
:1008400001F02BFA814606E04FF4004903E05FF027
:10085000000901200600B9F1000F00F0C380DFF8A5
:100860003406616A30F81100B9FBF0F08246616825
:10087000032041438A4505D361684FF480504143CA
:10088000514502D201200600ACE0DFF80806616A9B
:1008900030F81100B9FBF0F24FF480736068400843
:1008A0000021E3FB02016268002301F0BDFA0500AC
:1008B000B5F5407F05D3B5F5801F02D22068C5602D
:1008C00090E0012006008DE0E069B0F5004F4AD1CC
:1008D0003800C0B2002808D001280AD002280CD065
:1008E00004280DD008280FD011E001F01DFA814630
:1008F00011E001F026FA81460DE0DFF894950AE058
:1009000001F0CBF9814606E04FF4004903E05FF0C7
:10091000000901200600B9F1000F63D0DFF874056B
:10092000616A30F81100B9FBF0F06168490811EB19
:1009300040016068B1FBF0F080B20500102D0FD3CC
:10094000B5F5803F0CD24FF6F07129402800C0F376
:10095000420001438B46584680B22168C86041E09E
:10096000012006003EE03800C0B2002808D001286F
:100970000AD002280CD004280DD008280FD011E08E
:1009800001F0D2F9814611E001F0DBF981460DE07A
:10099000DFF8FC940AE001F080F9814606E04FF4AC
:1009A000004903E05FF0000901200600B9F1000FE3
:1009B00018D0DFF8E004616A30F81100B9FBF0F0FC
:1009C000616810EB51006168B0FBF1F080B2050086
:1009D000102D05D3B5F5803F02D22068C56001E037
:1009E000012006000120A4F86A000120A4F8680094
:1009F00000202067002060673000C0B2BDE8F28FA1
:100A0000FEFFFFEF010000102001000490F8281005
:100A1000C90707D501684A6832F40032C16A0A433F
:100A200001684A6090F82810890707D501684A686C
:100A300032F48032016B0A4301684A6090F8281052
:100A4000490707D501684A6832F48022416B0A439E
:100A500001684A6090F82810090707D501684A68BC
:100A600032F40042816B0A4301684A6090F8281012
:100A7000C90607D501688A6832F48052C16B0A43FF
:100A800001688A6090F82810890607D501688A688D
:100A900032F40052016C0A4301688A6090F8281011
:100AA000490613D501684A6832F48012416C0A4342
:100AB00001684A60416CB1F5801F07D101684A683E
:100AC00032F4C002816C0A4301684A6090F8281031
:100AD000090607D501684A6832F40022C16C0A434E
:100AE00001684A60704738B504000020C4F88C00E3
:100AF00001F0B2FA05002068006800070DD57FF00C
:100B00007E4000902B0000225FF40011200000F0D6
:100B100023F8002801D003201DE02068006840076A
:100B20000DD57FF07E4000902B0000225FF4800105
:100B3000200000F011F8002801D003200BE0202055
:100B4000C4F884002020C4F888000020E06600205B
:100B500084F88000002032BD2DE9F04105000E0030
:100B600090461F00069C2868C0693040B04201D101
:100B7000012000E000204146C9B2884246D114F16C
:100B8000010FF0D001F068FAC01B844201D3002CA1
:100B900016D12868006830F4D07029680860286889
:100BA000806840084000296888602020C5F88400DB
:100BB0002020C5F88800002085F88000032026E06A
:100BC000286800684007CED52868C0690005CAD5E6
:100BD0004FF40060296808622868006830F4D0701B
:100BE0002968086028688068400840002968886093
:100BF0002020C5F884002020C5F888002020C5F8F2
:100C00008C00002085F88000032000E00020BDE873
:100C1000F08170B504000D001600A565A4F85C60B5
:100C20000020C4F88C002220C4F88800E06F00285F
:100C300024D00FF23D10E16FC8620FF2A110E16FF6
:100C400008630FF2BD10E16F48630020E16F886315
:100C500033009BB2A26D206810F12401E06F00F018
:100C600075FA00280AD01020C4F88C00002084F8FF
:100C700080002020C4F88400012015E0002084F8C2
:100C800080002068006850F4807021680860206847
:100C9000806850F00100216888602068806850F00A
:100CA000400021688860002070BD0168096831F04B
:100CB000C001026811600168896831F400010268AE
:100CC00091602021C0F8841070470168096831F4F0
:100CD00090710268116001688A68DFF8BC110A40EF
:100CE00001688A60C16E012905D10168096831F087
:100CF0001001026811602021C0F888100021C1662F
:100D00000021016770470000530E0008008000407A
:100D1000F369FFCFFFF4FF11003801408810024053
:100D20000044004000480040004C004038B504003A
:100D3000A56A2068006880060FD40020A5F8560038
:100D40002868806830F0800029688860286800681A
:100D500050F040002968086002E0280001F082F9A4
:100D600031BD38B50400A56A280001F07CF931BD19
:100D700038B50400A56A20680068800620D40020E9
:100D8000A5F85E002868006830F480702968086063
:100D90002868806840084000296888602868806862
:100DA00030F04000296888602020C5F88800E86E8F
:100DB000012805D12868006830F010002968086013
:100DC000E86E012805D1B5F85C10280000F083FB1F
:100DD00002E0280001F048F931BD000038B50400F8
:100DE000A56AE86E012807D1B5F85C10490889B2F8
:100DF000280000F070FB02E0280001F036F931BD58
:100E0000F8B50400A56AD5F88460D5F8887028681C
:100E10008068000607D5212E05D10020A5F85600D0
:100E20002800FFF742FF28688068400607D5222F78
:100E300005D10020A5F85E002800FFF746FFD5F891
:100E40008C0050F01000C5F88C00280000F042FB28
:100E5000F1BD38B50400A56A0020A5F85E000020A9
:100E6000A5F85600280000F035FB31BD10B5040090
:100E70002068006830F04000216808602020C4F835
:100E8000840000206067200001F0ECF810BD000035
:100E90000024F400643B0008FEFFFFEF80B56D48BE
:100EA0006D4908605FF4E1306B49486000206A4991
:100EB000886000206849C8600020674908610C20EC
:100EC0006549486100206449886100206249C86121
:100ED00000206149086200205F49486200205E49A5
:100EE00088625D48FFF778F9002801D001F0CCF95D
:100EF0000021594801F0EDF9002801D001F0C4F9B2
:100F00000021554801F010FA002801D001F0BCF989
:100F1000514801F0BBF9002801D001F0B5F901BD3D
:100F200038B586B00400142100226D46280001F077
:100F300063FA20684749884240F08A804748006841
:100F400050F40030454908604448006810F400300F
:100F5000059005984248006850F00100404908603B
:100F60003F48006810F001000590059804200090AB
:100F7000022001900020029000200390072004909E
:100F800069465FF0904001F06BFA08200090022063
:100F900001900120029000200390072004906946F0
:100FA0005FF0904001F05CFA2E482F4908601A204B
:100FB0002D49486000202C49886000202A49C860DB
:100FC00080202949086100202749486100202649DE
:100FD000886120202449C8610020234908622248F2
:100FE00000F048F8002801D001F04EF91E48E067F3
:100FF0001D4884621D481E4908601B201C4948602A
:1010000010201B49886000201949C86080201849B9
:1010100008610020164948610020154988610020B8
:101020001349C861002012490862114800F022F8F3
:10103000002801D001F028F90D48A0670C4884620F
:1010400000220021262001F08BFB262001F09AFBD4
:1010500007B030BD00440040280200205810024074
:101060004C100240080002409C0300201C0002407B
:10107000FC03002038B50400002C01D1012064E0FD
:101080002068DFF8281488420CD22168DFF8200499
:1010900041181420B1FBF0F080006064DFF8140404
:1010A00020640BE02168DFF8100441181420B1FB24
:1010B000F0F080006064DFF804042064022084F80B
:1010C0002500206805686FF30E15A0680543E068E9
:1010D00005432069054360690543A0690543E0694C
:1010E0000543206A054320680560200000F0AEF942
:1010F000A068B0F5804F01D100206060207900F039
:10110000FF00A16C0860206DE16C486060680028F9
:101110000CD06068052809D2200000F0B5F9002045
:10112000616D0860E06DA16D486005E000206065BC
:101130000020A0650020E0650020E063012084F825
:101140002500002084F82400002032BD2DE9F04164
:1011500004000D0016001F005FF0000894F8240042
:10116000012801D102204EE0012084F8240094F8E7
:101170002500012840D1022084F825000020E063EA
:101180002068006840084000216808603B00320089
:101190002900200000F038F9206B002806D02068D4
:1011A000006850F00E00216808600BE020680068BD
:1011B00030F00400216808602068006850F00A00E0
:1011C00021680860A06C0068C00305D5A06C0068A9
:1011D00050F48070A16C0860606D002805D0606DCF
:1011E000006850F48070616D08602068006850F0FD
:1011F00001002168086004E0002084F82400022037
:1012000080464046C0B2BDE8F0810200002092F85E
:101210002510022904D00421D1630121080028E00F
:101220001168096831F00E0113681960916C096842
:1012300031F48071936C196011680968490849009C
:1012400013681960012192F8443013F01F0399408C
:10125000136C5960116DD36C5960516D002908D021
:10126000516D096831F48071536D1960D16D936DC2
:101270005960012182F82510002182F82410C0B2A3
:10128000704738B50400002594F8250002280AD0DC
:101290000420E063012084F82500002084F8240065
:1012A0000120050034E02068006830F00E0021685D
:1012B0000860206800684008400021680860A06C51
:1012C000006830F48070A16C0860012094F844102C
:1012D00011F01F018840216C4860206DE16C48606E
:1012E000606D002808D0606D006830F48070616D1A
:1012F0000860E06DA16D4860012084F825000020A1
:1013000084F82400A06B002802D02000A16B88473D
:101310002800C0B232BD70B50400206C056820689A
:101320000668042094F8441011F01F01884005421B
:101330001AD0700718D520680068800605D4206888
:10134000006830F0040021680860042094F844101C
:1013500011F01F018840216C4860206B002852D09A
:101360002000216B88474EE0022094F8441011F0D1
:101370001F018840054220D0B0071ED520680068B4
:10138000800608D42068006830F00A0021680860F0
:10139000012084F82500022094F8441011F01F0168
:1013A0008840216C4860002084F82400E06A00280E
:1013B00029D02000E16A884725E0082094F84410ED
:1013C00011F01F01884005421DD030071BD5206851
:1013D000006830F00E0021680860012094F8441085
:1013E00011F01F018840216C48600120E06301205A
:1013F00084F82500002084F82400606B002802D0C7
:101400002000616B884770BD30B4046DC56C6C60A2
:10141000446D002C02D0C46D856D6C60012490F881
:10142000445015F01F05AC40056C6C6004686360A7
:101430008468102C04D10468A2600468E16003E0B1
:101440000468A1600468E26030BC704730B4016891
:10145000164A914201D21A4C00E01A4C220001783F
:1014600001F0FF0108391423B1FBF3F3416C890843
:1014700012EB810181641449C164012513F01F013D
:101480008D40056530BC7047017901F0FF010F4ABE
:1014900012EB810242650E4A8265012211F1FF03BF
:1014A00013F01F039A40C265704700000804024011
:1014B000F8FFFDBF00000240F8FBFDBF0004024042
:1014C000000802402008024080080240FC08024058
:1014D000400902407047704770477047704730B509
:1014E000016884684218416802EB5103C90703D5BB
:1014F0004C4401E0491C08D19A4218BF12F9011B63
:1015000001D10C3030BD12F8015B002904F8015BF9
:10151000F0D4491EF7D5EFE72DE9FC410400002C7B
:1015200001D10120A3E22078C0076ED5DFF8AC0816
:10153000006810F00C000600DFF8B008006810F03A
:10154000030007000C2E01D1032F01D0082E09D172
:10155000DFF880080068800357D56068002854D100
:10156000012084E26068B0F5803F08D1DFF86408AC
:10157000006850F48030DFF85C18086024E0606890
:10158000B0F5A02F10D1DFF84C08006850F480208F
:10159000DFF840180860DFF83C08006850F480303D
:1015A000DFF8301808600FE0DFF82808006830F432
:1015B0008030DFF820180860DFF81808006830F481
:1015C0008020DFF810180860606800280ED000F056
:1015D00043FD0500DFF8FC070068800315D400F028
:1015E0003BFD401B6528F5D3032040E200F034FDAD
:1015F0000500DFF8E0070068800306D500F02CFD49
:10160000401B6528F5D3032031E2207880076CD594
:10161000DFF8C807006810F00C000600DFF8CC0700
:10162000006810F0030007000C2E01D1022F01D03A
:10163000042E1DD1DFF89C070068400504D5E06842
:10164000002801D1012012E2DFF88C07006830F099
:10165000FE40216950EA0160DFF87C170860DFF87E
:101660008807006801F0B0F800283ED00120FEE1B4
:10167000E068002822D0DFF85C07006850F4807032
:10168000DFF85017086000F0E7FC0500DFF84407BA
:101690000068400506D400F0DFFC401B0328F5D3AA
:1016A0000320E4E1DFF83007006830F0FE402169F4
:1016B00050EA0160DFF82017086016E0DFF8140731
:1016C000006830F48070DFF80C17086000F0C4FC8C
:1016D0000500DFF800070068400506D500F0BCFCF7
:1016E000401B0328F5D30320C1E12078000730D543
:1016F0006069002816D0DFF8FC06006850F0010091
:10170000DFF8F016086000F0A7FC0500DFF8E4063B
:10171000006880071DD400F09FFC401B0328F5D310
:101720000320A4E1DFF8CC06006840084000DFF8A1
:10173000C416086000F090FC0500DFF8B8060068E9
:10174000800706D500F088FC401B0328F5D3032052
:101750008DE12078400740F195805FF00008DFF8C8
:1017600098060068C00010D4DFF88C06006850F0BE
:101770008050DFF884160860DFF87C06006810F0FF
:1017800080500090009801208046DFF870060068C5
:10179000C00516D4DFF86406006850F48070DFF8E6
:1017A0005C16086000F058FC0500DFF85006006881
:1017B000C00506D400F050FC401B0328F5D30320DD
:1017C00055E1A068012808D1DFF83406006850F020
:1017D0000100DFF82C16086023E0A068052810D16E
:1017E000DFF81C06006850F00400DFF814160860EB
:1017F000DFF80C06006850F00100DFF804160860FE
:101800000FE0DFF8FC05006840084000DFF8F01545
:101810000860DFF8EC05006830F00400DFF8E01540
:101820000860A068002810D000F016FC0500DFF862
:10183000D0050068800719D400F00EFC401B41F26F
:1018400089318842F3D3032011E100F005FC050043
:10185000DFF8AC050068800708D500F0FDFB401BF1
:1018600041F289318842F3D3032000E14046C0B2FF
:10187000012807D1DFF88005006830F08050DFF8DC
:10188000781508602078800630D5A069002816D029
:10189000DFF87005006850F00100DFF86815086097
:1018A00000F0DAFB0500DFF85C05006880071DD456
:1018B00000F0D2FB401B0328F5D30320D7E0DFF86C
:1018C0004405006840084000DFF83815086000F063
:1018D000C3FB0500DFF82C050068800706D500F083
:1018E000BBFB401B0328F5D30320C0E0E0690028C0
:1018F00000F0BC80DFF8E404006810F00C000C2855
:1019000000F08180E069022855D1DFF8C804006842
:1019100030F08070DFF8BC14086000F09DFB80465A
:10192000DFF8B0040068800107D500F095FBB0EB4C
:1019300008000328F4D3032099E0DFF8B00401681D
:10194000DFF8C4040140206A0143606A401E51EA86
:101950000011A06A51EA0021206B4008401E51EAA4
:101960004051606B4008401E51EA4061E06A51EA14
:10197000C061DFF878040160DFF85804006850F0B7
:101980008070DFF850140860DFF86004006850F0E1
:101990008070DFF85814086000F05EFB0500DFF887
:1019A00034040068800161D400F056FB401B03281A
:1019B000F5D303205BE0DFF81C04006830F0807092
:1019C000DFF810140860DFF8240400688008800045
:1019D000DFF818140860DFF814040168DFF82C043D
:1019E0000140DFF80804016000F036FB0500DFF875
:1019F000E4030068800139D500F02EFB401B03286A
:101A0000F5D3032033E0E069012801D101202EE065
:101A1000DFF8D8030068070017F00300216A884246
:101A200022D117F0F000616A491EB0EB011F1BD1F3
:101A300017F4FE40A16AB0EB012F15D117F07840E2
:101A4000E16AB0EBC16F0FD117F4C000216B4908F8
:101A5000491EB0EB415F07D117F0C060616B4908C8
:101A6000491EB0EB416F01D0012000E00020BDE82D
:101A7000F6812DE9F04104000D005FF00008002C14
:101A800001D1012007E1DFF88803006810F00F00A2
:101A9000A84211D2DFF8780300680009000128434A
:101AA000DFF86C130860DFF86803006810F00F00BF
:101AB000A84201D00120EEE02078C0076CD5606814
:101AC000032826D1DFF80C030068800101D401202F
:101AD000E1E000F056F90700DFF8380387423CD315
:101AE000DFF8F802006810F0F00F05D020788007CA
:101AF00033D5A068002830D1DFF8E002006830F06C
:101B0000F00050F08000DFF8D4120860802080469A
:101B100023E06068022806D1DFF8B802006880037D
:101B200008D40120B7E0DFF8AC020068400501D41A
:101B30000120B0E000F0B1F80700DFF8D8028742DA
:101B40000BD3DFF89802006830F0F00050F080000E
:101B5000DFF88812086080208046DFF88002016884
:101B60008908890060680143DFF87002016000F0B5
:101B700073FA0600DFF86402006810F00C00616878
:101B8000B0EB810F08D000F067FA801B41F2893179
:101B90008842EFD303207EE02078800722D520788A
:101BA000400707D5DFF83402006850F4E060DFF842
:101BB0002C1208602078000709D5DFF820020068A1
:101BC00030F4605050F4E060DFF810120860DFF885
:101BD0000C02016831F0F001A0680143DFF8FC015C
:101BE00001600AE0B8F1800F07D1DFF8F00100686A
:101BF00030F0F000DFF8E4110860DFF8140200684C
:101C000010F00F0085421BD2DFF8040200680009C3
:101C100000012843DFF8F811086000F01DFA060003
:101C2000DFF8EC01006810F00F00A84208D000F0C7
:101C300013FA801B41F289318842F1D303202AE054
:101C40002078400709D5DFF89401016831F4E0619C
:101C5000E0680143DFF8840101602078000708D5BF
:101C60005E48006830F46050216950EAC1005B4969
:101C7000086000F012F8DFF8A011584A1268C2F3A9
:101C80000312895C11F01F01C8405649086056488C
:101C9000006800F099FDBDE8F08130B44F4800685D
:101CA00010F00C00042801D14D4838E04B48006882
:101CB00010F00C00082801D1584830E0474800686F
:101CC00010F00C000C2829D14848006810F00300DF
:101CD000020046480068C0F30310401C0400032AB9
:101CE00009D14E48B0FBF4F540480068C0F3062027
:101CF0004543290008E03A48B0FBF4F53B4800684A
:101D0000C0F306204543290038480068C0F341600D
:101D1000401C40000300B1FBF3F000E0002030BCA9
:101D2000704730480068704780B5FFF7FAFF3C49BC
:101D30002A4A1268C2F30222895C11F01F01C840CE
:101D400002BD80B5FFF7EDFF3549244A1268C2F3A2
:101D5000C222895C11F01F01C84002BD1D48006805
:101D600050F400201B490860704780B52D4800687A
:101D7000C00505D500F05AFD4FF480701C4908607D
:101D800001BD10B41948016811F00301174800683B
:101D9000C0F30312521C032908D12048B0FBF2F310
:101DA00012480068C0F30620434307E00C48B0FB2C
:101DB000F2F30E480068C0F3062043430B48006866
:101DC000C0F34160401C4400B3FBF4F010BC70470A
:101DD0000000000000100240041002400810024001
:101DE0000024F400240100201C0100200C100240FB
:101DF0002010024094100240581002400070004031
:101E000090100240981002400C809F01FFFFEEFEF0
:101E10000020024001B4C404B03B000800366E014B
:101E2000E03B00081C100240BBBBE1B1B2F5803FB3
:101E300080F07E80022A1ED98C46B1FBF2F102FBB3
:101E400011C31B0443EA1043B3FBF2FC02FB1C3337
:101E500080B240EA0343B3FBF2F002FB103240EAE7
:101E60000C4000237047022A05D98446B0FBF2F0EB
:101E700002FB10C270474AB105D100F001024908C7
:101E80005FEA3000704700220023704700F0D0BCAA
:101E90000B000200002100207047904271EB030C00
:101EA000F6D3B3F5803F2FD2F0B5B3FA83F7B1FA8A
:101EB00081F4A7F10F0E3D1B5340CEF1200602FA2C
:101EC0000EF2F3415340B5F10F0746D80F3C2C44B6
:101ED0004140C4F12006A040F1414140B1FBF3F67E
:101EE00003FB1611A2FB0645001BA94102D2761E78
:101EF0008018594180EA010221FA0EF362FA0EF2CB
:101F000000215A403046F0BD30B4B1FBF3FC03FB76
:101F10001C11A2FB0C45001BA94103D2ACF1010C22
:101F20008018594130BC02460B466046002170477C
:101F3000B2F1807F65D3F0B5B2FA82F7B1FA81F4DD
:101F4000C7F10F063D1B22FA06F307F1110EF2410D
:101F500020355A40B5F10F07B8D94140C4F12006E9
:101F6000A040F1414140B1FBF3FC03FB1C11A2FB7B
:101F70000C45001BA94103D2BCF1010C801859414A
:101F80000F2F12D30F3FC90341EA5041B1FBF3F6C3
:101F900003FB1611A2FB0645D4EBC030A94102D2C7
:101FA000761E8018594146EACC3C07B34140C7F140
:101FB0002006B840F1414140B1FBF3F603FB161196
:101FC000A2FB0645001BA94102D2761E801859418A
:101FD00080EA010221FA0EF3C7F1200462FA0EF240
:101FE0000CFA07F05A402CFA04F13043F0BD80EAB5
:101FF000010221FA0EF3002162FA0EF260465A4005
:10200000F0BD8C46B1FBF2F102FB11C31B0243EAA7
:102010001063B3FBF2FC02FB1C331B024CEA0020F2
:1020200043EA1063B3FBF2FC02FB1C331B024CEAD5
:10203000002043EA1063B3FBF2FC02FB1C331B02DB
:102040004CEA002043EA1063B3FBF2FC02FB1C32B3
:102050004CEA00200023704701480068704700BF29
:1020600064040020704770477047704780B500F0E7
:10207000E1FB00F00DF800F0EFFB00F019FC00F0C0
:102080005DFCFEF70BFF00F05AF800F0C4F8FCE727
:1020900010B5A4B03821002205AC200000F0ACF946
:1020A000142100226C46200000F0A6F944210022F1
:1020B00013AC200000F0A0F94FF4007000F0DCFC3D
:1020C000012005905FF48030069002200C900320E0
:1020D0000D9003200E9020200F90022010900220DF
:1020E00011900220129005A8FFF716FA002801D0DF
:1020F00000F0CAF80F200090032001900020029009
:10210000002003900020049003216846FFF7B1FCF3
:10211000002801D000F0B8F841F20200139000202E
:1021200015905FF000701F9013A800F047FD002885
:1021300001D000F0A9F8FFF711FE24B010BD80B562
:1021400072B646484549D1F8A81088474FF48072C6
:102150004248016941480068FEF7D9F8002801D0DB
:1021600000F092F83E48006801F010F8002801D015
:1021700000F08AF83A48426E3948816E3848006863
:1021800001F0E5F8002801D000F07EF80120344984
:10219000486000203249886000203149C8605FF4FF
:1021A00000202F49086100202D49486100202C495A
:1021B000886100202A49C86100202949086200205E
:1021C0002749486262B601BD80B526480068401CB8
:1021D0002449086023480068B0F57A7F1ADB0020A4
:1021E000204908601E48006801F0AAF81E490860EE
:1021F0001B48006801F0A4F800280BD01B4A1C49BA
:102200001748006800F0DAFF002803D01949134886
:1022100001F0DBFA01BD80B510481049D1F8AC10CF
:10222000884701BD704738B504000D0020680C498F
:102230000968096888420FD10948806E05420BD0B1
:102240000D4B0E4A0648416E0548006800F0E7FF56
:10225000002801D000F018F831BD00006C0000200B
:10226000000000205C040020600400202800002002
:1022700004000020903B000858000020300000209F
:1022800080B5FFF7A1FF01BD72B6FEE7010091F82E
:102290008000012801D102201AE0012081F880008D
:1022A0002420C1F8840008680268086800684008B3
:1022B00040000B68186032F0005200204866086841
:1022C00002602020C1F88400002081F880000020F6
:1022D000704770B504000D0094F88000012801D10A
:1022E000022020E0012084F880002420C4F884002B
:1022F000206806682068006840084000216808607F
:102300002068806820F060402843216888602000B1
:1023100000F035F8206806602020C4F88400002012
:1023200084F88000002070BD70B504000D0094F8A2
:102330008000012801D1022020E0012084F88000E3
:102340002420C4F8840020680668206800684008DB
:102350004000216808602068806830F06060284391
:1023600021688860200000F00AF8206806602020BC
:10237000C4F88400002084F88000002070BDF0B410
:10238000416E002906D10121A0F86A100121A0F8B0
:1023900068102BE008210A0008210B0001688968F9
:1023A000490E11F007010C0001688968490F0D0002
:1023B0001E00F6B20E492F00FFB2C95D4E430D4913
:1023C0002F00FFB2C95D96FBF1F1A0F86A1016006C
:1023D000F6B207492700FFB2C95D4E430549270001
:1023E000FFB2C95D96FBF1F1A0F86810F0BC704730
:1023F000D03B0008D83B000862F30F2262F31F4273
:10240000401810F0030308D0C91A1FD3DB0748BFD8
:1024100000F8012D28BF20F8022D130030B4144617
:102420001546103928BF20E93C00FAD8490728BFD3
:1024300020E90C0048BF40F8042D890028BF20F88F
:10244000022D48BF00F8012D30BC7047C91818BFD5
:1024500000F8012DCB0728BF00F8012D70470000C0
:10246000F8B4030000250868E840002800F0D78091
:1024700008680126AE4030400200002A00F0CD80FE
:102480004868012808D04868022805D04868112803
:1024900002D04868122818D19E6803272800C0B2CD
:1024A00040008740BE43CF682800C0B2400087404C
:1024B0003E439E6058680127AF40B8434F68C7F35A
:1024C0000017AF40384304005C60DE680327280033
:1024D000C0B240008740BE438F682800C0B24000B1
:1024E00087403E43DE604868022802D048681228D0
:1024F00018D12800C00803EB8000046A0F2715F0EC
:102500000700C0B280008740BC430F6915F0070088
:10251000C0B2800087403C4326002800C00803EB7F
:1025200080000662186803272C00E4B2640017FAE2
:1025300004F430EA04040F7917F003072800C0B24E
:10254000400087403C431C604868C00065D53B485C
:10255000006850F00100394E30603848006810F0D3
:1025600001000090009836482E00B60850F826600A
:102570000F2715F00300C0B280008740BE43B3F1BF
:10258000904F01D1002419E02E48834201D101244B
:1025900014E02D48834201D102240FE02B488342EE
:1025A00001D103240AE02A48834201D1042405E032
:1025B0002848834201D1052400E0062415F00300D9
:1025C000C0B28000844026431D482C00A40840F877
:1025D00024602148006890434C68E40300D5104310
:1025E0001D4C20601D4C246894434E68B60300D5F2
:1025F00014431A4804601A48006890434E68F60273
:1026000000D51043164C2060164C246894434E6845
:10261000B60200D51443134804606D1C23E7F1BCD7
:1026200070471300DBB2002B03D00B009BB2836119
:1026300002E00B009BB28362704700006010024012
:10264000080001400004004800080048000C004851
:102650000010004800140048000401400404014038
:10266000080401400C04014010F00703DFF83811A2
:102670000A684FF6FF010A4052EA0322DFF82C11E4
:102680000A43DFF824110A607047DFF81C01006874
:10269000C0F3022070470000010049B2002909D4AC
:1026A000012210F01F018A40414903005BB25B091F
:1026B00041F82320704710B4020052B2002A05D41A
:1026C0000A013C4B040064B21A5508E00A013A4B77
:1026D000040064B214F00F04234403F8042C10BC6B
:1026E000704770B4030013F00704D4F10700052805
:1026F00001D3042001E0D4F10700251D072D01D2EC
:10270000002500E0E51E012616FA00F0401E0140FB
:10271000A940012010FA05F56D1E2A40114308005A
:1027200070BC704710B50400601EB0F1807F01D30B
:1027300001200EE0601E214908600F215FF0FF308C
:10274000FFF7B9FF00201E49086007201D490860F7
:10275000002010BD10B504002000FFF785FF10BD5C
:10276000F8B504000D001600FFF78FFF07003200D8
:1027700029003800FFF7B5FF0100200040B2FFF745
:102780009AFFF1BD10B50400200040B2FFF784FFAE
:1027900010BD10B504002000FFF7C4FF10BD80B5C8
:1027A000FFF76EFD01BD00000CED00E00000FA0532
:1027B00000E100E000E400E018ED00E014E000E0DB
:1027C00018E000E010E000E038B5040000251448EF
:1027D000006800281ED04FF47A7011490968B0FBD8
:1027E000F1F010490968B1FBF0F0FFF7D2FF0028C3
:1027F0000DD1102C08D2002221005FF0FF30FFF72E
:10280000AFFF0948046007E00120050004E0012053
:10281000050001E0012005002800C0B232BD00BF64
:1028200020010020240100201C010020704700002E
:102830007047000010B500240320FFF78BFF002035
:10284000FFF7C2FF002802D00120040001E001F0E0
:1028500031F82000C0B210BD80B51448006850F0B7
:102860000400124908601148006810F0040000904C
:1028700000980E48006850F001000C4908600B48B1
:10288000006810F0010000900098002200210B2049
:10289000FFF766FF0B20FFF775FF002200210C20D9
:1028A000FFF75EFF0C20FFF76DFF01BD48100240EF
:1028B00010B586B01421002201AC2000FFF79CFD6A
:1028C0001C48006850F020001A4908601948006848
:1028D00010F02000009000981648006850F00100A9
:1028E000144908601348006810F001000090009837
:1028F0001048006850F002000E4908600D4800685A
:1029000010F002000090009800224FF480710A48F5
:10291000FFF787FE4FF480700190012002900020A5
:1029200003900020049001A90348FFF799FD06B029
:1029300010BD00BF4C1002400004004880B586B0B6
:1029400049484A49086000204849486000204749F2
:10295000886000204549C860002044490874002070
:102960004249487400204149887408203F49486121
:1029700001203E4988610D203C49C86102203B4945
:1029800008620120394948620120384988620120E3
:102990003649C8620120354908631C203349486321
:1029A00000203249886300203049C8632F4800F076
:1029B000B1FA002801D0FFF767FC0020009000204A
:1029C000019000200290012003900020049040F22A
:1029D000FF7005906946254800F0A0FB002801D053
:1029E000FFF752FC07B000BD38B586B004001421D3
:1029F000002201AD2800FFF7FFFC20681A49884239
:102A00002FD11B48006850F0007019490860184821
:102A1000006810F00070009000981648006850F0B0
:102A20000100144908601348006810F0010000908C
:102A300000984FF4C05001900220029001200390B2
:102A4000032004900920059001A95FF09040FFF752
:102A500007FD002200211520FFF782FE1520FFF759
:102A600091FE07B030BD0000006400403803002034
:102A7000581002404C1002400200002A3DD1DFF8FD
:102A80002401006810F4C060B0F5806F2CD1DFF82D
:102A90001801006830F48070DFF80C311860DFF83E
:102AA0000401006830F4C06050F40070DFF8F430C6
:102AB0001860DFF8F800036832204343DFF8F000C5
:102AC000B3FBF0F0401C0100DFF8E80000684005AF
:102AD00003D5002901D0491EF6E7DFF8D8000068C9
:102AE000400555D5032054E0DFF8BC00006830F401
:102AF0008070DFF8B43018604AE0B2F5007F3DD155
:102B0000DFF8A000006810F4C060B0F5806F2CD131
:102B1000DFF89400006850F48070DFF88C301860A3
:102B2000DFF88000006830F4C06050F40070DFF817
:102B300074301860DFF87400036832204343DFF814
:102B40007000B3FBF0F0401C0100DFF86800006883
:102B5000400503D5002901D0491EF6E7DFF85400EF
:102B60000068400514D5032013E0DFF83C0000683E
:102B700050F48070DFF83030186009E0DFF824008E
:102B8000006830F4C06050F48060DFF818301860DE
:102B9000002070470848006850F4804006490860EB
:102BA0007047000000700040807000402401002049
:102BB00040420F0014700040087000402DE9F843B7
:102BC000050000275FF000082868000340F18880B6
:102BD0005FF00009DFF828030068C00010D4DFF8B8
:102BE0002003006850F08050DFF814130860DFF80D
:102BF0001003006810F0805000900098012081467A
:102C0000DFF80003006850F48070DFF8F812086005
:102C1000FFF722FA0600DFF8EC020068C00506D4D0
:102C2000FFF71AFA801B0328F5D3032007003800AA
:102C3000C0B2002847D1DFF8D002006810F440701D
:102C40000400002C1BD0286C844218D0DFF8B80296
:102C5000006830F440700400DFF8AC02006850F403
:102C60008030DFF8A4120860DFF89C02006830F4BE
:102C70008030DFF894120860DFF88C020460E0070F
:102C800010D5FFF7E9F90600DFF87C02006880073D
:102C900008D4FFF7E1F9801B41F289318842F3D370
:102CA000032007003800C0B200280AD1DFF858021C
:102CB000016831F44071286C0143DFF84C02016077
:102CC00002E0B84600E0B8464846C0B2012807D145
:102CD000DFF82C02006830F08050DFF82412086022
:102CE0002878C00709D5DFF824020168890889001F
:102CF00068680143DFF8140201602878800709D56D
:102D0000DFF80802016831F00C01A8680143DFF820
:102D1000FC0101602878400709D5DFF8F00101685F
:102D200031F03001E8680143DFF8E0010160287804
:102D3000000709D5DFF8D401016831F0C001286926
:102D40000143DFF8C80101602878800609D5DFF863
:102D5000BC01016831F4406168690143DFF8AC01EE
:102D600001602878400609D5DFF8A001016831F438
:102D70004051A8690143DFF89401016028780006FA
:102D800009D5DFF88801016831F44041E869014361
:102D9000DFF8780101602868C00509D5DFF86C010B
:102DA000016831F44031286A0143DFF860010160B5
:102DB0002868800509D5DFF85401016831F4402105
:102DC000686A0143DFF8440101602868400515D5B1
:102DD000DFF83801016831F44011A86A0143DFF8D7
:102DE0002C010160A86AB0F5801F07D1DFF820012F
:102DF000006850F48010DFF818110860286800059A
:102E000015D5DFF80801016831F44001E86A014393
:102E1000DFF8F8000160E86AB0F5800F07D1DFF84D
:102E2000F000006850F48010DFF8E41008602868B3
:102E3000C00415D5DFF8D400016831F04071286B6B
:102E40000143DFF8C8000160286BB0F1807F07D133
:102E5000DFF8BC00006850F48010DFF8B4100860A0
:102E60002868800415D5DFF8A400016831F04061BE
:102E7000686B0143DFF894000160686BB0F1006F8C
:102E800007D1DFF88C00006850F48010DFF8801064
:102E900008602868400415D5DFF87000016831F03B
:102EA0004061A86B0143DFF864000160A86BB0F1DA
:102EB000006F07D1DFF85800006850F48010DFF889
:102EC000501008602868000415D5DFF8400001683C
:102ED00031F04051E86B0143DFF830000160E86BEE
:102EE000B0F1805F07D1DFF82800006850F480302F
:102EF000DFF81C1008604046C0B2BDE8F283000055
:102F000058100240007000409010024088100240AB
:102F10000C10024070B50400002C01D10120FCE02F
:102F20002068DFF814148842A068B0F5407F94F858
:102F30005C00002805D1002084F85D002000FFF728
:102F400053FD2068806930F0100021688861FFF728
:102F500083F805002068806900070DD5FFF77CF82D
:102F6000401B0B28F6D3206E50F001002066032092
:102F700084F85C000120D0E02068806950F00100F6
:102F800021688861FFF768F8060020688069C0073B
:102F90000DD4FFF761F8801B0B28F6D3206E50F09C
:102FA00001002066032084F85C000120B5E0206861
:102FB000806950F00200216888612068DFF878138A
:102FC000884203D16068DFF874130860207C012810
:102FD00006D12068806930F040002168886105E0F2
:102FE0002068806950F0400021688861607C012879
:102FF00006D12068806950F480402168886105E02E
:103000002068806930F4804021688861A07C0128B4
:1030100006D12068806930F480502168886105E01D
:103020002068806950F48050216888612068816937
:1030300031F44071A0680143206881612068806993
:1030400030F0A400216888612068006930F0100029
:1030500021680861E068012806D12068806950F085
:1030600004002168886121E0E06800281ED0E06843
:10307000022815D02068806950F08000216888619E
:103080002068006950F0100021680861E06803289A
:103090000CD12068806950F020002168886105E02B
:1030A0002068806950F0200021688861A069401E76
:1030B000E169491E090251EA4061206A401E01434C
:1030C0006069401E51EA00412068C161A068B0F506
:1030D000407F0FD1A06A401EE16A491E50EA0120DC
:1030E000216B491E50EA0110616A491E50EA0140F5
:1030F0002168C8602068D0F8C010E06B01432068E8
:10310000C0F8C010200000F0A4FA0020A065002044
:103110002066012084F85C00002070BD70B40200BD
:1031200092F85C402000C0B2012803D02000C0B259
:10313000022824D1086800280FD18868CD68ED06E0
:1031400055EA8075086955EA004548690543166CDB
:10315000486816EB800635600FE0C8680D6955EACF
:10316000407588684E6956EA80763300506C4E6828
:1031700010EBC6000560061D3360002004E0106EF1
:1031800050F002001066012070BC7047010091F8F9
:103190005C0001280CD1022081F85C00086880697D
:1031A000400840000A68906100200866002004E0A2
:1031B000086E50F00400086601207047F8B504005E
:1031C0000D00160068680028FFD094F85C00022803
:1031D0001FD12068D0F8C400800205D5206E50F4BD
:1031E00000702066012019E02068D0F8C400C0F308
:1031F00001473B0032002900200000F05BFA01206B
:10320000B8402168C1F8CC000120B840A06500207A
:1032100004E0206E50F0080020660120F2BD2DE988
:10322000F041040094F85C502800C0B202287BD121
:10323000402915D12068D0F8900010F00F0F05D16B
:10324000206E50F480702066012072E02068D0F873
:103250009000C0F30126A06C482707FB060714E086
:103260002068D0F8980010F00F0F05D1206E50F4B0
:103270008070206601205CE02068D0F89800C0F3E0
:103280000126E06C482707FB0607386810F08040ED
:1032900050605068002804D13868C0F38A4010603C
:1032A00003E0386820F060401060386810F000508B
:1032B0009060386810F000401061381D0768BFB298
:1032C000D761076817F47027D760076817F480176D
:1032D0005761076817F4001797610768C7F3066717
:1032E00017620768FF0F5762071DBC465FF0000EAC
:1032F000DFF85404D2F80C805FEA184810F8080090
:10330000864506D21CF80E0003F80E001EF1010ED1
:10331000EEE7402903D12068C0F8946002E02068FD
:10332000C0F89C60002004E0206E50F00800206689
:103330000120BDE8F081000000640040006500400D
:1033400001000868D0F8C40010F00700704770B49E
:10335000030093F85C4011F4C07F2000C0B2012844
:1033600003D02000C0B202286CD11868856D11F01E
:10337000070F01D0E8071DD511F0380F01D0A807BD
:1033800018D511F4E07F01D0680713D511F4F05F70
:1033900001D028070ED511F4604F01D0E80609D5F9
:1033A00011F4403F01D0A80604D511F47C0F07D0DA
:1033B000680605D41868C06D50F001001E68F065FD
:1033C00011F0070F01D0E8071DD411F0380F01D01C
:1033D000A80718D411F4E07F01D0680713D411F4C2
:1033E000F05F01D028070ED411F4604F01D0E80639
:1033F00009D411F4403F01D0A80604D411F47C0F85
:1034000007D0680605D51868C06D50F002001E6828
:10341000F065080606D51868D0F8DC0010431E6871
:10342000C6F8DC00C80506D51868D0F8E0001043DF
:103430001E68C6F8E0001868406D08431E68706595
:10344000002004E0186E50F002001866012070BCE5
:1034500070472DE9F84F8146D9F80000046D14F447
:10346000E054D9F80000406D0440D9F80000056D23
:1034700015F00705D9F80000406D0540D9F80000A7
:10348000066D16F03806D9F80000406D0640D9F8F0
:103490000000076D17F47107D9F80000406D074070
:1034A000D9F80000D0F8508018F46028D9F800004E
:1034B000406D10EA0808D9F80000006D40060BD5F1
:1034C000D9F80000406D400606D54020D9F800101C
:1034D0000865484600F00EFAD9F80000006DC005F6
:1034E00017D5D9F80000406DC00512D5D9F80000F5
:1034F000D0F8D810D9F80000D0F8E00001408B4691
:103500004FF48070D9F8001008655946484600F01D
:10351000F2F9002C06D0D9F80000046521004846D5
:1035200000F0EAF9002D06D0D9F800000565290061
:103530004846FEF778FE002E06D0D9F80000066552
:103540003100484600F0D9F9D9F80000006D800537
:103550000CD5D9F80000406D800507D54FF40070F8
:10356000D9F800100865484600F0C8F9D9F80000FD
:10357000006D000616D5D9F80000406D000611D583
:10358000D9F80000D0F8D410D9F80000D0F8DC0049
:1035900001408A468020D9F8001008655146484607
:1035A00000F0ADF9D9F80000006D80040CD5D9F811
:1035B0000000406D800407D54FF40050D9F800108A
:1035C0000865484600F09CF9D9F80000006D000439
:1035D0000CD5D9F80000406D000407D54FF4004029
:1035E000D9F800100865484600F08BF9D9F80000BA
:1035F000006D40040FD5D9F80000406D40040AD595
:103600004FF48040D9F800100865D9F8600050F0F8
:103610008000C9F86000B8F1000F07D0D9F80000A9
:10362000C0F850804146484600F06CF9002F07D0A2
:10363000D9F800000765D9F860003843C9F8600080
:10364000D9F86000002802D0484600F05CF9BDE8D7
:10365000F18F3E4901640268D2F8802032F4F812FA
:10366000436B52EA03420368C3F8802011F17002F1
:1036700042640268D2F8802032F07062836B52EAB2
:1036800003620368C3F8802011F1B002826411F56F
:10369000C472C26411F51872026511F51E7242659A
:1036A0000A0011F554739A4203D200231360121DCD
:1036B000F7E77047F0B54C68002C06D10D698C68AF
:1036C00025430C6855EA844506E00D698C6825435E
:1036D0000C68254355F080450C6ACE6956EA0466AD
:1036E0008C6926434C692643CC682643476D4824A1
:1036F00004FB03742560241D2660271D5FF0000C69
:10370000114CD1F80CE05FEA1E4E14F80E40A445AF
:1037100019D202EB0C04E47802EB0C0E9EF802E0E6
:103720005FEA0E4E5EEA046E02EB0C0464785EEA19
:10373000042E12F80C4054EA0E0EC7F800E03F1DAC
:103740001CF1040CDCE7F0BDA03B000800A4004025
:1037500038B504000D0020680068C0694006FAD53D
:103760002A0092B2E1682068FCF775FD31BD30B4E3
:1037700001005FF0FF3000224B681B685C68D4F5E5
:1037800080744C614C698D69AC420BD08C6922000D
:103790000C6915002DB2645D20008C69641C04F076
:1037A000FF048C6100B230BC704710B401000022ED
:1037B000486803685868D0F5807048614C6988692A
:1037C000201A00F0FF0010BC704738B504000D004F
:1037D0002900E06800F098F8280000F0A1F8010046
:1037E00089B22000FFF7B4FF31BD054901600549EA
:1037F000416005498160054901610549C160704723
:10380000280200209C030020FC0300202801002047
:10381000B8020020F8B504002000FFF7C6FF00281A
:1038200016D02000FFF7A3FFE18B214481F822008E
:10383000E08B204490F822000A2802D0E08B402838
:1038400002DB0120207703E0E08B401CE083E3E70C
:10385000207F00282CD000202084616E14F12200EB
:1038600000F07AF8218C04EB81018866208C04EB4F
:103870008000806E00280BD0258C6D1C2584616E25
:10388000002000F069F8ADB204EB85018866EDE731
:103890002000FEF7C7FC0020E083002020774025B1
:1038A000002614F12207320029003800FEF7A4FD9B
:1038B000F1BD000080B50D48006850F001000B49D3
:1038C00008600A48006810F001000090009808485D
:1038D000006850F08050064908600548006810F004
:1038E000805000900098FFF755F901BD601002402C
:1038F00058100240704770477047704770477047D4
:1039000070477047704770475FEA000C11F8012B51
:1039100000F8012B12B111F8012BF9E7604670474E
:1039200000F10103810704D010F8011B820781B167
:10393000FAD10268A2F10131914311F0803104BF44
:1039400050F8042FF6E709BAB1FA81F100EBD10083
:10395000401CC01A7047000038B504000D460BD05B
:103960002946204600F01EF80444207848B90C4847
:1039700000210160002032BD09490C68002CEFD104
:1039800032BD2946204600F01EF82118087810B1F3
:10399000002201F8012B02480160204632BD00BF21
:1039A0006804002070B4044600E0641C23783BB136
:1039B0000D462A7822B115F8016BB342F9D1F4E72C
:1039C000201A70BC704770B4044600E0641C237871
:1039D0003BB10D462A78002AF8D015F8016BB342A6
:1039E000F8D1201A70BC704780B5FEF7BEF9FEE72B
:1039F000FEE7FEE7FEE7FEE770477047704780B5D9
:103A0000FEF7CDFE00F01EF801BD80B50948FDF7B8
:103A100082FC01BD80B50848FDF77DFC01BD80B585
:103A20000648FFF716FD01BD80B50548FCF7A2FC6E
:103A300001BD00009C030020FC030020380300208F
:103A40002802002003480168034800684118014823
:103A500001607047640400202001002030B400257C
:103A600012E050F8042BD30744BF4A44521E091FEA
:103A7000042942F8045BFAD213468C0744BF158030
:103A80009B1CC90748BF1D7050F8041B0029E8D1D2
:103A900030BC704710B5074979441831064C7C4456
:103AA000163404E00A68081D114488470146A14203
:103AB000F8D110BD2C000000480000004EF68851DF
:103AC000CEF20001086840F470000860BFF34F8F29
:103AD000BFF36F8F4FF00070E1EE100A70470000E7
:103AE0007DFFFFFF440300002801002000000000CC
:103AF000EFD9FFFF000200005C0000000000002082
:103B000000F00DF8002801D0FFF7C4FFAFF30080EC
:103B10000020AFF30080FEF7A9FA00F002F80120C0
:103B2000704700F001B800000746384600F002F880
:103B3000FBE7000080B5AFF30080024A11001820B7
:103B4000ABBEFBE7260002000548014603B4684609
:103B500080F30988AFF30080FFF7B0FFFFF7D0FFD5
:103B6000A5EDF5FE010002000400060008000A00B1
:103B70000C00100020004000800000010348006895
:103B800050F47000014908607047000088ED00E0C3
:103B900043414E207478206661756C74000000000B
:103BA0000001020304050607080C10141820304019
:103BB00000000000000000000102030406070809DD
:103BC00001488047014800477D3B0008493B000809
:103BD00001010103070100000804020408010101BA
:103BE00000000000010203042C0A0D00FFF7FEBFD5
:103BF000FFF7FEBFFFF7FEBFFFF7FEBFFFF7FEBFF9
:103C0000FFF7FEBFFFF7FEBFFFF7FEBFFFF7FEBFE8
:103C1000FFF7FEBFFFF7FEBFFFF7FEBFFFF7FEBFD8
:103C2000FFF7FEBFFFF7FEBFFFF7FEBFFFF7FEBFC8
:103C3000FFF7FEBFFFF7FEBFFFF7FEBFFFF7FEBFB8
:103C4000FFF7FEBFFFF7FEBFFFF7FEBFFFF7FEBFA8
:103C5000FFF7FEBFFFF7FEBFFFF7FEBFFFF7FEBF98
:103C6000FFF7FEBFFFF7FEBFFFF7FEBFFFF7FEBF88
:103C7000FFF7FEBFFFF7FEBFFFF7FEBFFFF7FEBF78
:103C8000FFF7FEBFFFF7FEBFFFF7FEBFFFF7FEBF68
:103C9000FFF7FEBFFFF7FEBFFFF7FEBFFFF7FEBF58
:103CA000FFF7FEBFFFF7FEBFFFF7FEBFFFF7FEBF48
:103CB000FFF7FEBFFFF7FEBFFFF7FEBFFFF7FEBF38
:103CC000FFF7FEBFFFF7FEBFFFF7FEBFFFF7FEBF28
:103CD000FFF7FEBFFFF7FEBFFFF7FEBFFFF7FEBF18
:103CE000FFF7FEBFFFF7FEBFFFF7FEBFFFF7FEBF08
:103CF000FFF7FEBF0338030020A4000001FD000011
:103D000040FD000001990003E83B0008C00008EBFB
:103D10003700081538000810FD000001FC000224DF
:023D2000F400AD
:0400000508003B496B
:00000001FF
