:020000040800F2
:1000000008600020597D0008397B0008417B00080A
:10001000437B0008457B0008477B00080000000088
:10002000000000000000000000000000497B000804
:100030004B7B0008000000004D7B00084F7B000850
:10004000757D0008797D00087D7D0008817D0008B0
:100050005D7B0008617B0008857D0008897D0008C4
:100060008D7D0008917D0008957D0008637B000868
:10007000697B0008997D00089D7D0008A17D00082E
:10008000A57D000800000000A97D0008AD7D0008E6
:10009000B17D00086F7B0008757B00087B7B000842
:1000A000B57D0008B97D0008BD7D0008C17D000850
:1000B000C57D0008C97D0008CD7D0008D17D000800
:1000C000D57D0008D97D0008DD7D0008E17D0008B0
:1000D000E57D0008E97D0008837B0008ED7D0008D0
:1000E000997B0008F17D0008F57D0008F97D000886
:1000F000FD7D0008017E0008057E0008000000006C
:1001000000000000097E0008000000000D7E0008CD
:10011000117E000800000000157E0008197E00080E
:100120001D7E0008217E0008257E0008297E00082B
:100130002D7E00080000000000000000317E000855
:10014000357E0008397E0008000000000000000035
:10015000000000000000000000000000000000009F
:100160000000000000000000000000003D7E0008CC
:10017000417E0008000000000000000000000000B8
:1001800000000000A17B000800000000000000004B
:10019000000000000000000000000000000000005F
:1001A0000000000000000000457E0008497E0008B5
:1001B0004D7E0008517E0008557E000800000000BA
:1001C00000000000597E0008000000000000000050
:1001D0005D7E0008617E00082DE9F14FB0B09246C7
:1001E00004910DF142013A9A2B9199464A700020F0
:1001F0000AE01AF8011B0498309A904700280490EE
:1002000000F06B860D98401C0D909AF8000050B1DC
:100210002528EED1002100220791089209910A9227
:100220000B910C9204E00D9800F059BE41F00101D1
:100230001AF8010F2028F9D023280CD02B2804D03D
:100240002D2805D0302809D00BE041F00201EFE75E
:1002500041F00401ECE741F00801E9E741F0100149
:10026000E6E72A280FD1D9F8002052F8040BC9F884
:10027000002000280F9003D540420F9041F0040168
:100280000AF1010A14E00F92DFF8583C0AE00F98D7
:10029000984205DA00EB800402EB4402303A0F92F8
:1002A0000AF1010A9AF80020A2F130000A28EED3E0
:1002B0009AF800002E2803D04FF0FF320E9229E06A
:1002C0001AF8010F2A2809D1D9F8000050F8042B98
:1002D000C9F800000E920AF1010A1BE02D280CBF9C
:1002E0000AF1010A002000220E92DFF8F84B0BE021
:1002F00040B90E9AA24205DA02EB820503EB4503F0
:10030000303B0E930AF1010A9AF80030A3F1300253
:100310000A2AEDD3ADF840100FF6CC309AF8001051
:1003200000F0F6FE08B11AF8010B8DF842009DF8B6
:100330004200682805D19AF8000068280CD1622193
:1003400006E06C2804BF9AF800006C2804D17121E3
:100350008DF842100AF1010A12A806901AF801BBA2
:10036000BBF125012CD01C3900F0D781091F0229CF
:1003700040F2D381133900F0E284093900F0CD81D5
:10038000891E00F07785491E00F02485491E022948
:1003900040F2C381091F00F01D85491F00F0328122
:1003A000491E00F0CC84491E00F0D880C91E0DD033
:1003B000891E00F0C484C91E00F0C18400F065BD30
:1003C00025238DF84830012100F06ABDD9F80000DE
:1003D00050F8044BC9F80000002C059440F0AB80A5
:1003E0002B994878002800F0A1804FF0FF340FF6D9
:1003F000003000F099FE201A40F06F8500F051BDEA
:1004000001236A4602A9304600F042FE002840F06F
:1004100064856D1EF4D13096079D12AF75B1309E84
:1004200017F8012B02A9304600F022FE002801D463
:100430006D1EF5D10028309640F04F850A9D302082
:10044000002D8DF800000CDD309E01236A4602A9C4
:10045000304600F01DFE002840F03F856D1EF4D1AF
:100460003096059F089D75B1309E17F8012B02A9A3
:10047000304600F0FDFD002801D46D1EF5D10028A6
:10048000309640F02A850B9D3020002D8DF800001D
:100490000CDD309E01236A4602A9304600F0F8FDCB
:1004A000002840F01A856D1EF4D130960598089901
:1004B000099D471875B1309E17F8012B02A93046E7
:1004C00000F0D6FD002801D46D1EF5D1002830962D
:1004D00040F003850C9D3020002D8DF800000CDDD0
:1004E000309E01236A4602A9304600F0D1FD002863
:1004F00040F0F3846D1EF4D130969DF84000410722
:100500007FF583AE2020002C8DF800007FF77DAEB4
:10051000309D01236A4602A9284600F0B9FD002853
:1005200040F0DB84641EF4D130956EE60FF6C030E7
:10053000059000F0B6BC0E9D002D04D5204600F0BD
:1005400013FE044607E02A46204600F029FE002854
:1005500014BF041B2C46089400F0A3BCD9F800106B
:1005600051F8040BC9F8001020F00004002121F01C
:10057000FF3512ABCDE902450593DDE9022306996B
:100580003C2413B90AB90E98A8B102F00F05303512
:10059000641EEEB23A2E08DA120942EA03721B090F
:1005A0000D5508BF002A02D105E02735F4E705986C
:1005B0000D19A842E9D308190590C4F13C020E9820
:1005C000089282420ADABDF84010821A4FF6EF70A4
:1005D00001400A92ADF8401000F063BC002840F1E1
:1005E00060849DF8400000F01400102840F0598409
:1005F0000F9B07990A985B1A1B1A9A1A002A40F354
:1006000050849AE32B99487820B14FF0FF340FF6CD
:10061000B020EEE69DF84200622860D0682817D02E
:100620006A283FD06C2806D0712847D074282CD077
:100630007A281DD062E0D9F8001051F8040BC9F8EF
:100640000010002866D14FF0FF340FF68C20D0E662
:10065000D9F8001051F8040BC9F8001020B94FF078
:10066000FF340FF67420C4E60D99018000F019BC28
:10067000D9F8001051F8040BC9F80010002849D12E
:100680004FF0FF340FF65020B3E6D9F8001051F8C0
:10069000040BC9F8001000283CD14FF0FF340FF6CE
:1006A0003820A6E6D9F8001051F8040BC9F800105C
:1006B00080B94FF0FF340FF620209AE6D9F80010E9
:1006C00051F8040BC9F8001020B94FF0FF340FF6B1
:1006D00008208EE60D9AD317C0E90023E1E3D9F88C
:1006E000001051F8040BC9F8001020B94FF0FF3486
:1006F0000FF6E4107DE60D990170D2E3D9F80010F1
:1007000051F8040BC9F8001020B94FF0FF340FF670
:10071000C8106EE60D990160C3E3D9F80020D21D20
:1007200022F00702C9F80020D2E900010832C9F816
:100730000020CDE90201C80F02D007982D210AE060
:10074000BDF84000810702D507982B2103E0C007C0
:1007500005D50798202112AA1154401C079012A811
:100760000799DDE9024543184BF020006128059305
:1007700021AE0BD00E98002802D506200E9005E081
:1007800001BF4BF02000672801210E91DDE9020135
:1007900048004015401C0A460DD109030BD0ABF1AF
:1007A000610703201A2F089002D20FF648110DE0BE
:1007B0000FF644110AE070B912030CD1ABF16107D6
:1007C00003201A2F08901CD30FF634110322184669
:1007D00000F012FD65E3DDE902016A4600F060FD0C
:1007E000CDE902014BF02000612811D1059830219C
:1007F0000170821CBBF1610F05920CBF782158215A
:1008000002E00FF6F801E1E741700798801C0790BD
:10081000DDE9020120F0000231F0004308BF002AA8
:1008200002D10025002445E14BF02008B8F1610F0A
:1008300040F095800E98002847BF21210191401C6F
:100840000190019F7F1C2046294600220023DDE9FC
:10085000024500F05DFD00998DF8842038BF85F0D9
:100860000045091F002F00910DF1850034DD06467B
:10087000204629460022002300F064FD2BD21C22D2
:1008800000F07AFD04460D4600F014FEFF1F002F15
:10089000804609DD00F02AFE02460B462046294626
:1008A00000F0F4FE04460D46F01D0721B8F1000FDC
:1008B0000CDD491E5EBF08F00F0200F8012D4FEA63
:1008C0002818F3D502E0002200F8012D491EFAD5C0
:1008D000C61D002FCCDC30460DF18501401A019970
:1008E00005468842C8BF0D46002D0DF185062FD460
:1008F000854206DA0DF18500415D0829A8BF0F2069
:1009000000DA0020294621AA0A4400E06D1E12F8F0
:100910000139491E8342F9D00F2804D10DF1850019
:10092000425C521C4254002904D50098001D21AE9F
:100930006D1C0090681E0BD431180A783032D3B287
:100940003A2BA4BF5A443A3A401E01F80129F4D583
:100950000E98002840F1AD80691E0E91A9E0009923
:10096000DFF8FC2647F29750414391FBF2F20092E8
:1009700025F00045C2F10702002A04DD2046294681
:1009800000F04AFB0BE052420020DFF8D81600F0DE
:1009900043FB02460B462046294600F0E9FE04468A
:1009A000B8F1660F0E9806BF009F0A3706273F185A
:1009B000142FC8BF142730208DF884000D460DF188
:1009C000850000E03046002F35DD064620462946EA
:1009D00000F0F2FF01460A4606F1080304200A2649
:1009E000B2FBF6F606EB860EA2EB4E02303203F8AF
:1009F000012C0A22B6FBF2F202EB820EA6EB4E06A7
:100A00003036401E03F8026DE9D1083F002F03F194
:100A10000806D7DD084600F0E1FF02460B462046F7
:100A2000294600F033FE0022DFF83C3600F0E4FFF8
:100A300004460D46CAE70DF18501401A0DF1850601
:100A400004E00099491E401E0091761C317830293F
:100A5000F7D0B8F1660F02D10099491C04E0B8F153
:100A6000650F0CBF012100210E9D4D19A842B8BF92
:100A7000451E002D1DD4854204DA705D3428C8BFA0
:100A8000392000DC30202946721E531800E06D1E0C
:100A900013F80149491E8442F9D0392802D1705C0B
:100AA000401C7054002904D50098401C16466D1C4B
:100AB0000090009C01F096F8406A0778DDF83880D5
:100AC00028B2002802DC01250FF238664BF0200026
:100AD000662808BF641C16D0672846D120B210F1E2
:100AE000040F48DB404546DA9DF84000641C0107CE
:100AF00003D428B24045D8BF804620B2B8EB0008E6
:100B000048BF4FF000080FFA84FBBBF1000F00F361
:100B1000B5800898411C0891302205990A54B8F113
:100B2000000F03DC9DF84000010704D50898411C24
:100B3000089105990F5418EB0B0FB8BFC8F10004CA
:100B400024B260420B90A0442AB29045B8BF4546FB
:100B5000059B08982DB209952A463146184400F0A5
:100B60004BFBA8EB05000C90D2E0BBF1610F17D155
:100B70004FF0700B19E028B2404504DA9DF84010A0
:100B80000A0758BF8046B8F1010848BF4FF0000877
:100B9000BBF1670F14BF4FF0450B4FF0650B04E03E
:100BA000BBF1410F08BF4FF0500B0898411C089152
:100BB000B8F1000F059916F8012B0A5403DC9DF8D3
:100BC000400001071AD50898411C0891B8F1000FA0
:100BD00005990F5412DD6D1E28B280450598089BBB
:100BE000B8BF45462AB23146184400F005FB0899C3
:100BF0002DB269180891A8EB05000B90059808998B
:100C0000084421B2002980F800B003D42B2242709E
:100C1000821C04E02D2242700C46821C644200219A
:100C20002CAB20460AE004460A2094FBF0F000EBCF
:100C30008005A4EB450403F8014B491C00B20028D1
:100C4000F1DC012906DC4BF02000652804BF3020D0
:100C500002F8010B00292CAB08D1302002F8010B5F
:100C600006E0491E585C303002F8010B0029F8DC20
:100C7000059908980844121A099249E028B221B24D
:100C800088421CDA0598089B2AB23146184400F0C5
:100C9000B3FA08992DB269180891ABEB0500B8F1C9
:100CA000000F0B9003DC9DF84000020704D5059867
:100CB00047540999491C0991CDF8308028E00598DE
:100CC000089B22B23146184400F096FA08982D1B72
:100CD0005844B8F1000F089003DC9DF840100A0753
:100CE00003D5411C089105990F5428B280450598F9
:100CF000089BB8BF45462AB206EB0B01184400F02A
:100D00007BFA08982DB228180890A8EB05000B90E4
:100D10009DF8400000F01400102840F0C280079AAF
:100D200008990B988A18099982180C988A188218C1
:100D30000F98824280F2B580821A0A92B1E09DF843
:100D40004200622808D068280ED06A2814D06C2887
:100D50001FD0712810D01CE0D9F8001051F8040BF6
:100D6000C9F80010C0B21AE0D9F8001051F8040B0D
:100D7000C9F8001080B212E0D9F80020D21D22F08C
:100D80000702C9F80020D2E900010832C9F80020A2
:100D900006E0D9F8001051F8040BC9F80010002142
:100DA000CDE902019DF8400001075AD5DDE9022393
:100DB000002B08BF002A54D04BF02000782850D1D7
:100DC000079812A930220A54401C431C079301F8CB
:100DD00000B046E09DF84200622808D068280ED096
:100DE0006A2814D06C281FD0712810D01CE0D9F8C4
:100DF000001051F8040BC9F8001040B21AE0D9F8FD
:100E0000001051F8040BC9F8001000B212E0D9F834
:100E10000020D21D22F00702C9F80020D2E900010B
:100E20000832C9F8002006E0D9F8001051F8040B88
:100E3000C9F80010C117CDE90201002902D50798B1
:100E40002D210AE0BDF84000810702D507982B212B
:100E500003E0C00705D50798202112AA1154401CB1
:100E6000079012A807990144059102A8594600F07D
:100E70004DF816E001200790D9F8000050F8041B47
:100E8000C9F800008DF848100BE025210122BBF1C4
:100E9000000F8DF84810079203D08DF849B0022159
:100EA00007910F9A07980A990C9C121A0898521ADF
:100EB0000B99121A0998521A121A9DF84000141B25
:100EC00041073FF5A9AA2020002C8DF800007FF7EC
:100ED000A3AA309E2546FFF793BA4FF0FF3031B0FA
:100EE000BDE8F08FCBCCCC0C686A6C747A4C0000F7
:100EF0007072696E74665F733A2062616420257354
:100F000020617267756D656E740000002DE9FC4309
:100F100004466F29256908BF082605D041F0200046
:100F2000782814BF0A2610263C27D4E90023642918
:100F300018BF69299046994605D1002B03D5D8F1F1
:100F4000000869EB4909B9F1000F08BFB8F1000FBB
:100F50000CD1206B50B9082E3AD194F83800010713
:100F600036D530203B2785F83B0031E08DF8001066
:100F7000404649463246F31700F03AFE3032D0B2CE
:100F80007F1E3A2801970EDAEA5540464946324616
:100F9000F31700F02DFE80465FEA010908BFB8F1A3
:100FA000000F05D108E09DF800001218513AEBE758
:100FB000E068E9198842DBD3082E09D194F838009B
:100FC000010705D5E85D302802D07F1E3020E855A6
:100FD000C7F13C02A261E919E160206B824208DAA4
:100FE000821A22624FF6EF70218F01402187BDE8FF
:100FF000F38300280ED594F8380000F01400102870
:1010000008D1636B6169206A5B1A1B1A9A1A002A5D
:10101000C8BF2262BDE8F3832DE9D04306460F46E0
:1010200014464FF00008DFF8449012E0E00707D5BF
:1010300042464B463046394600F0DEFC06460F4637
:101040004046494642464B4600F0D6FC6410804676
:101050008946002CEAD130463946BDE8D0830000ED
:10106000A08601000000F03F84D797410000244093
:1010700010B503460C461146A0689847A06020B101
:10108000E06A401CE062002010BD4FF0FF3010BD50
:10109000F8B505460E4617461C4600205CB117F809
:1010A000011BB068A847B06030B1F06A401CF06224
:1010B0000020641EF3D1F2BD4FF0FF30F2BD0000FE
:1010C0007072696E74665F733A20256E206469736E
:1010D000616C6C6F776564007072696E74663A203B
:1010E00062616420256E20617267756D656E7400A3
:1010F000000000006E616E004E414E00696E660099
:10110000494E460030000268531C0360117070475E
:10111000C9B202788A421AB11CBF10F8012FF9E750
:1011200018BF002070472E0080B500B906A0054901
:101130000B681BB122220021984701E000F070FEED
:10114000222002BDDC560020636F6E7374726169E9
:101150006E742068616E646C65723A20626164200E
:101160006D6573736167650000F10103810704D049
:1011700010F8011B820781B1FAD10268A2F1013196
:10118000914311F0803104BF50F8042FF6E709BAFB
:10119000B1FA81F100EBD100401CC01A7047430046
:1011A000C9B2830706D0521E22D310F8013B9942E0
:1011B000F7D11FE0083A13D302F1040241EA0121FA
:1011C00041EA014150F8043B121F21BF4B40A3F1FB
:1011D000013C2CEA030C1CF0803FF3D0C9B2001F85
:1011E000083210F8013B521E28BF91EA030FF8D8CD
:1011F00018BF0120401E704762B38B0708D0521EF3
:1012000011F8013B00F8013B00F024808B07F6D178
:10121000830740F0208000BF103A07D330B4B1E814
:101220003810103AA0E83810F9D230BC530724BF68
:10123000B1E80810A0E8081044BF51F8043B40F89A
:10124000043BD20724BF31F8022B20F8022B44BF05
:101250000B7803707047121F17D35B0009D151F848
:10126000043B20F8023B1B0C121F20F8023BF6D275
:101270000BE051F8043B00F8013B1B0A20F8023B4D
:101280001B0C121F00F8013BF3D238BF121D521E77
:1012900024BF11F8013B00F8013BF8D8704700006B
:1012A00010B5144600F002F8226010BDC1F30A53D5
:1012B00043B14A0012F5001F28D2A3F2FE32A1EB7F
:1012C0000251704750EA410C20D001F0004C31EA45
:1012D0000C01B1FA81F204BFB0FA80F3D2180B3AD4
:1012E000B2F120032CBF00FA03F1914041EA0C0156
:1012F0003EBFC2F1200C20FA0CF319439040524239
:1013000040F2FD33D21A01EB0351704700227047BF
:1013100041EA030C50EA4C0C52EA0C0C4FF4001C4E
:1013200009D307D01CEB410F9CBF1CEB430F8B4232
:1013300008BF824270471CEB430FFBD8994208BF9D
:101340009042704741EA030C50EA4C0C52EA0C0CF4
:101350004FF4001C09D307D01CEB410F9CBF1CEBC2
:10136000430F994208BF904270471CEB410FFBD8D6
:101370008B4208BF82427047124254D440F2FF7C35
:101380001CEA11530FD0634531D09B1863453CBF15
:1013900001EB0251704701F0004141EA0C5100207D
:1013A000AFF30080704750EA410320D001F0004CB9
:1013B00091EA0C011CD0B1FA81F30B3B9A420DD992
:1013C000D21A994051EA0C01C3F1200C20FA0CFC0E
:1013D00061449840531C40F2FF7CD7E7914041EABA
:1013E0000C01C2F1200C20FA0CF319439040704715
:1013F000B0FA80F31533202BE0D3202AEED3203A25
:10140000203B9A4209D9D21A00FA03F141EA0C01B1
:101410000020531C40F2FF7CB8E700FA02F141EAD9
:101420000C0100207047524240F2FF7C1CEA11532D
:101430000DD06345DBD0B2EB030C3CBFA1EB0251F6
:1014400070470CF1010221EA035141F4801150EA86
:10145000410CCCD001F0004C352A27DC30B481EAB5
:101460000C01B2F1200309DAC2F12003044601FAAB
:1014700003F5D0402843D1409C400CE0C3F120024A
:10148000450020FA03F418BF44F0010421FA03F0E8
:1014900091400C43002174F1004550F1000051EBE4
:1014A0000C01244230BC7FF47BAF704761460020C2
:1014B00076E70000C1F30A5340F21E42D31A0CDD56
:1014C000CA0283F3070342EA505242F00042DA4074
:1014D00002EBE17282EAE17070476FEAE17203F2B7
:1014E000E13008B182F000407047000010F0004188
:1014F00060B148BF4042B0FA80F29040D21CC2F5C1
:10150000846241EA025202EBD0214005704700009C
:1015100070B491EA030F4FF0004540F1BF806B407B
:10152000841A71EB030604D26E40001BB1411219FC
:1015300073414FF4001C1CEB410F34BF7CEB43069E
:1015400083E00C0DA4EB1356362E00F37C80012EA5
:1015500045EAC32341DC43EA525312BFD20292024E
:101560005B08240545EAC12141EA5051D2EBC02075
:10157000994125D407D1B0FA80F610FA06F162D06D
:101580000020203608E0B1FA81F6B140C6F1200211
:1015900020FA02F21143B0404FEAF474B4EB46541F
:1015A00034F001064FEA74040AD8D6F50016760D19
:1015B00004F00044F04061FA06F25040F140484027
:1015C000C00A40EA415021F0004128BF5FEA5005BF
:1015D00050F1000044EBD12135E0DB0A45EAC1219E
:1015E000C90AB6F120050EDD42EA0242120CC5F12D
:1015F000200603FA06F6EB4042EA06056D429841E2
:1016000061F100010DE062FA06F5F240554063FA1F
:1016100006FC82EA0C02F3405A406D42904161EBB5
:10162000030111F4801F05D1641E620502D06D0014
:101630004041494121F48011430875F1004350F1C4
:10164000000041EB045170BC70471CEB410F15D2F8
:1016500023F0004352EA43060BD04FEA4C0CBCEB9C
:10166000410F04D80C0D661E342EB7DDEBE7801A4F
:10167000994150EA410608BF0021E4E708BF1CEB8E
:10168000430F28BF6FF00001DDE7000070B491EA5E
:10169000030F4FF000457FF543AF6B40841A71EBA9
:1016A000030603D2001BB141121973414FF4001C11
:1016B0001CEB410F34BF7CEB430442E00C0DA4EB68
:1016C0001356352E4FDC45EAC323DB0A45EAC12118
:1016D000C912B6F120050DDD63FA05F6EB4086EA86
:1016E0000305124218BF45F00105C01851F1000171
:1016F0000CD213E062FA06F5F2405540F3415A402D
:10170000B340F3405A408018594107D349085FEA73
:1017100030005FEA350528BF45F0010501F580116D
:10172000420875F1004250F1000041EB04514E00B7
:1017300016F5001F70BC38BF70470020090D090561
:1017400070471CEB410F10D252EA43060BD0BCEBA2
:10175000410F05D80C0DAB43661E342EB6DD02E0FA
:10176000AB438018594170BC704770BC7047000093
:10177000F0B540F2FF7581EA030C0CF0004C15EA5D
:1017800011541DBF15EA1357AC42AF42E5E0BC410E
:10179000C1F31301C3F31303801A994143F4801377
:1017A00004D2641E0018494180185941C90241EA17
:1017B0005051B1FBF3F603FB1611A2FB0675D7EBF4
:1017C000C020A94102D2761E80185941C90241EABF
:1017D0005051B1FBF3FE03FB1E11A2FB0E75D7EBBC
:1017E000C020A94103D2AEF1010E801859418902EF
:1017F00041EA9051760546EA8E2EB1FBF3F603FBE3
:101800001611A2FB0675D7EB8020A94102D2761EE5
:1018100080185941C90241EA50514EEA060EB1FB07
:10182000F3F603FB1611A2FB0675D7EBC020A94106
:1018300002D2761E80185941C90241EA5051B1FBCB
:10184000F3F703FB1711A2FB0735D3EBC020A94127
:1018500067F100070CBF004247F0010766F3D52788
:101860004FEA1E31B80814F5806412DDBD0775F12A
:10187000004250EB0E5051EB045111F5801F5CBF3C
:1018800041EA0C01F0BD4CF07F6141F0E0410020E5
:10189000F0BDBD076D0840EA0E5041F48011D4F14F
:1018A0000104B4F120060ADAC4F120060200E04087
:1018B00001FA06F3E1401843B24015430EE0342C20
:1018C00013DCC6F1200445EA40056D0820FA06F253
:1018D000154321FA06F0A1400D43002175F10042A5
:1018E00050F1000051EB0C01F0BD00205FEA0C014B
:1018F000F0BDCFB992185B41B3FA83F704BFB2FAD7
:1019000082F6BF190B3FB7F120062FBF02FA06F38C
:10191000BB40C7F1200622FA06F638BF3343BA406F
:101920001CB1E419641E33E77F4231F00041B1FA83
:1019300081F404BFB0FA80F6A4190B3CB4F1200680
:101940002FBF00FA06F1A140C4F1200620FA06F6E6
:1019500038BF3143A0403C1B1AE7AC421ABF05EA2E
:101960001357AF4212E050EA41061CBF52EA430649
:10197000BFE750EA4107304661461CBF41EA0551C6
:10198000F0BD52EA430C08BFC143F0BD00204FF444
:10199000001616EB410F98BF16EB430F08BF16EB6E
:1019A000410F24BFC14305E016EB430F0CBF614656
:1019B0004CEA0551F0BD0000400D40F21E4C40EADB
:1019C000C120BCEB115C40F0004003D48CF3070154
:1019D000C84070476FEAE1707047000050B1B0FA3C
:1019E00080F18840C91CC1F58461090501EBD02153
:1019F000400570470146704730B540F2FF7C1CEA55
:101A000011541DBF1CEA1355644565453FE0641938
:101A100081EA030C6FF35F530CF0004C43F4801326
:101A2000C90241F0004141EA505EC5021100A5FB28
:101A3000020200284FF00000EEFB01204FF00001F1
:101A4000E3FB052118BF42F0010240180021494183
:101A5000E3FB0E01A4F580640D0302D2921840410D
:101A6000494154F1010470DD450872F1004250F122
:101A7000000051EB0451A1F5801102D441EA0C01A0
:101A800030BD40F2FF7E4CEA0E51002030BD0CEA22
:101A90001355644518BF654581EA030C0CF0004CF2
:101AA00041D050EA410E1CBF52EA430E02E06146AB
:101AB000002030BD24422C441BD15FEA050EF6D035
:101AC000090302BF01460020AEF1140EB1FA81F500
:101AD000AEEB050401FA05FE0C35C5F1200100FA54
:101AE00005F5C8404EEA000E6FF35F5343F48013D0
:101AF0009CE733F00043B3FA83F504BFB2FA82FEE9
:101B000075440B3D641BB5F1200E2FBF02FA0EF396
:101B1000AB40C5F1200E22FA0EFE38BF43EA0E0399
:101B2000AA40641C7CE750EA410E14BF52EA430EFF
:101B30006FF000014FF4001515EB430F8EBF1946EF
:101B400015EB410F9DE7B4D830BDD4F10104B4F1D9
:101B500020050FDAC4F12005520828BF42F0010227
:101B600010FA05FE01FA05F57244E2BFE040284391
:101B7000E1400FE0352C9ADCC5F1200452EA400226
:101B800020FA05F218BF42F0010231FA05F0A14037
:101B90000A43002172F1004250F1000051EB0C01A8
:101BA00030BD0000613807E005E0A0F161011A29AD
:101BB00001D20120704741381A288041C00F704778
:101BC000A0F10901052901D3202801D10120704786
:101BD00000207047A0F141011A2938BF203070471A
:101BE000014870470148704728530020F0520020F8
:101BF000BBBBE1B1B2F5803F80F07E80022A1ED9E6
:101C00008C46B1FBF2F102FB11C31B0443EA104303
:101C1000B3FBF2FC02FB1C3380B240EA0343B3FB8C
:101C2000F2F002FB103240EA0C4000237047022A17
:101C300005D98446B0FBF2F002FB10C270474AB1EE
:101C400005D100F0010249085FEA30007047002228
:101C50000023704700F0E8B80B00020000210020CC
:101C60007047904271EB030CF6D3B3F5803F2FD24F
:101C7000F0B5B3FA83F7B1FA81F4A7F10F0E3D1B6B
:101C80005340CEF1200602FA0EF2F3415340B5F173
:101C90000F0746D80F3C2C444140C4F12006A04019
:101CA000F1414140B1FBF3F603FB1611A2FB0645DF
:101CB000001BA94102D2761E8018594180EA010218
:101CC00021FA0EF362FA0EF200215A403046F0BDBE
:101CD00030B4B1FBF3FC03FB1C11A2FB0C45001B51
:101CE000A94103D2ACF1010C8018594130BC024625
:101CF0000B46604600217047B2F1807F65D3F0B596
:101D0000B2FA82F7B1FA81F4C7F10F063D1B22FA4D
:101D100006F307F1110EF24120355A40B5F10F07D5
:101D2000B8D94140C4F12006A040F1414140B1FB87
:101D3000F3FC03FB1C11A2FB0C45001BA94103D2C1
:101D4000BCF1010C801859410F2F12D30F3FC9036A
:101D500041EA5041B1FBF3F603FB1611A2FB064525
:101D6000D4EBC030A94102D2761E8018594146EA10
:101D7000CC3C07B34140C7F12006B840F141414097
:101D8000B1FBF3F603FB1611A2FB0645001BA941AC
:101D900002D2761E8018594180EA010221FA0EF320
:101DA000C7F1200462FA0EF20CFA07F05A402CFA3E
:101DB00004F13043F0BD80EA010221FA0EF3002164
:101DC00062FA0EF260465A40F0BD8C46B1FBF2F169
:101DD00002FB11C31B0243EA1063B3FBF2FC02FBDC
:101DE0001C331B024CEA002043EA1063B3FBF2FCF5
:101DF00002FB1C331B024CEA002043EA1063B3FBD6
:101E0000F2FC02FB1C331B024CEA002043EA106385
:101E1000B3FBF2FC02FB1C324CEA002000237047AB
:101E2000012000F003B800007047000080B5AFF358
:101E30000080024A11001820ABBEFBE7260002001A
:101E400010B586B0DFF89446DFF8940620600020D5
:101E50006060A060E0600120207400206074A074C5
:101E60000A2060610120A0610E20E0610220206252
:101E700001206062A062E06220631C206063002099
:101E8000A063E063204600F0BDFE002801D001F011
:101E900042FE00200090019002900120039000205B
:101EA000049040F2FF7005906946204600F086FFDE
:101EB000002801D001F02FFE06B010BD18B597B074
:101EC00004460022142101A801F05CFE00224421F6
:101ED00006A801F057FE2068DFF80416884240D1BA
:101EE0004FF4805006904FF00070129006A801F059
:101EF00067FE002801D001F00EFEDFF8E805C1689A
:101F000041F00071C160C16801F000710091009959
:101F1000016841F001010160006800F001000090DB
:101F200000984FF4C05001900220029001200390CD
:101F3000022004900920059001A94FF0904001F083
:101F400073FF00220121152002F0B9F8152002F0DC
:101F5000C5F800220121162002F0B1F8162002F087
:101F6000BDF818B010BD3CB4049DDFF87C4500F509
:101F7000C060C4F80401012904D0022908D0042952
:101F80000ED01BE004F594702F210170057118E04C
:101F900004F594702B21017005712D12457110E02C
:101FA00004F59470232101700571294609124171CD
:101FB0002946091481712D16C57102E0222084F88A
:101FC000280104F59470427012128270C37004F5F7
:101FD000807036BC33E118B4DFF80C1500F50072E0
:101FE000C1F8042101EB801201F59473DFF8FC4481
:101FF0002044C078002805D032F9260C1870001251
:1020000058700AE052F8240C1870024612125A70E6
:10201000024612149A700016D87001F5807012BC36
:102020000DE170B50446DFF8C05405F59476002242
:102030000821304601F0A6FD0020C5F804013470E7
:10204000707005F58070BDE87040F8E07CB506461C
:10205000DFF89C440020606046F240050091034692
:102060002A4602213046FFF77EFFDFF87C0400EBB2
:10207000861636F93E0C43F2A101884218D173BD91
:1020800094ED010AF7EE000A30EE200A84ED010A11
:10209000D4ED030AF8EE600AB4EE600AF1EE10FA2D
:1020A00006DBDFF85004DFF85014016001F033FD67
:1020B0002078002803D136F93E0CA842E0D173BD48
:1020C00038B505460C460120DFF824140870601C62
:1020D0002870DFF8281448788A7840EA022068805F
:1020E00000B246F23F02801A0AD0801E02D0233886
:1020F0001BD03EE00879497940EA0120A88031BD33
:1021000095F8200005EB40000A79497942EA01225E
:10211000428495F82000401C85F82000C0B20528B4
:1021200042D1002085F8200031BD08794A7940EA83
:1021300002208A7940EA0240C97940EA0160A86039
:10214000E96A401AFFF7D2F9DFF8B423DFF8B433B5
:10215000FFF752FC41EC100B85ED040BDFF8A823D0
:1021600002EBC402D2E90023FFF702FBC5E9040138
:1021700031BD08784F2802D10879286331BD4B283A
:1021800005D10879497940EA0120286331BD432807
:102190000AD108794A7940EA02208A7940EA024065
:1021A000C97940EA0160286331BD38B505460C465F
:1021B000601C287043F2A1006880D04908784A78F2
:1021C00040EA0220A8808878CA7840EA0220E880A5
:1021D00008794A7940EA02208A7940EA0240C979BE
:1021E00040EA0160A860E96A401AFFF77FF9C74A30
:1021F000D2E91C23FFF7BCFA41EC100B85ED040B70
:10220000C14A02EBC402D2E90023FFF7B1FAC5E9E3
:102210000401A888C0F3C000401E8041C00F32BD39
:1022200010B5B14C8020C4F804010022082104F547
:10223000947001F0A7FC04F58070BDE8104070B503
:102240000546AB4C00202070606015E094ED010A5B
:10225000F7EE000A30EE200A84ED010AD4ED030AFD
:10226000F8EE600AB4EE600AF1EE10FA04DBA14861
:10227000A749016001F04FFC28680068006D8005E7
:10228000E4D49C4E7068A060321D0221201D01F034
:1022900035FF0020606015E094ED010AF7EE000ABA
:1022A00030EE200A84ED010AD4ED030AF8EE600A4C
:1022B000B4EE600AF1EE10FA04DB4FF081403060BA
:1022C00001F029FC286800F06AFE0028E4D070685C
:1022D000A060321D0221201D01F010FF05F128022F
:1022E000291D286800F0ABFD002803D0824830602B
:1022F00001F011FC28680068006DC00406D5DFF805
:1023000014023060BDE8704001F005BC70BD18B427
:10231000754B00F5C060C3F8040103F594704024C8
:102320000470417009128170C27003F5807012BC94
:1023300085E72DE9F84307466D4C0020606046F2C2
:102340004108024641463846FFF7E1FF04E069488C
:102350006949016001F0DFFB6348394610EB8115E4
:10236000A5F13E06207800281DD1B6F900004045B1
:1023700019D094ED010AF7EE000A30EE200A84ED40
:10238000010AD4ED030AF8EE600AB4EE600AF1EE39
:1023900010FAE1DB002241463846FFF7B8FFB6F9F4
:1023A00000004045D3D1DFF84C81D8F80400A0608C
:1023B00008F104020221201D01F0A0FE7088C0F384
:1023C000C000002841D046F23F0900224946384665
:1023D000FFF79DFF04E04848C8F8000001F09BFBB0
:1023E0002078002803D0B6F90000484519D094EDB4
:1023F000010AF7EE000A30EE200A84ED010AD4ED5E
:10240000030AF8EE600AB4EE600AF1EE10FAE7DBB8
:10241000002249463846FFF77AFFB6F900004845E2
:10242000D9D1B07F001D052190FBF1F101EB8101B5
:10243000401A05EB400030F81E0C48F2101188429B
:1024400003D13846BDE8F24339E0BDE8F18370B509
:102450000546274C0020606046F26406024631467D
:102460002846FFF754FF15E094ED010AF7EE000A45
:1024700030EE200A84ED010AD4ED030AF8EE600A7A
:10248000B4EE600AF1EE10FA04DB1A481A49016052
:1024900001F041FB2078002807D11348294600EBC2
:1024A000811030F93E0CB042DED112484168A16083
:1024B000021D0221201DBDE8704001F01FBE10B5B5
:1024C00004468021FFF7C2FD2046FFF732FF08488F
:1024D00000780028FBD010BD00000000405600200E
:1024E000006400404C10024000000020F001002079
:1024F000D0030020240300200000A0405801002049
:102500005D8940F50F22493F38030020700100200B
:10251000000040400000C040F8B52DED0C8BE54CAC
:1025200094ED1AABD4E90A0153EC1A2BFFF7AEF87D
:1025300041EC180BD4E90C2351EC1A0BFEF7E8FF21
:1025400041EC190BD4E90E0153EC1A2BFFF79EF85E
:1025500041EC1A0B80214FF0904001F02FFDDFF885
:1025600060130870DFF85C53002840F0F880E878CA
:10257000002800F0FE80DFF850030078002800F00B
:10258000B7802878002806D101F0F8FDA880012046
:10259000287000206870DFF88C65D6E904234FF0BE
:1025A000C040DFF82813FEF7B3FF01F0EDFDA8638C
:1025B000D6E9240101F0E8FDE86305F1400105F1E9
:1025C000380001F015FE9FEDBCCB686C01F016FFE2
:1025D00053EC1C2BFFF710FAD5E90C23FFF70CFA8C
:1025E00041EC1B0B85ED06BB286C01F007FF53EC9B
:1025F0001C2BFFF701FAD5E90A23FFF7FDF953EC8D
:102600001B2BFEF785FF41EC1C0B85ED02CB96EDF5
:1026100024DB51EC180B53EC1D2BFEF779FE06D38F
:1026200051EC1D0B53EC192BFEF772FE04D2002067
:102630000146C5E9060109E053EC1B2BDFF89002C7
:10264000D0E90401FFF7D8F9C5E9060196ED048B3E
:1026500051EC1A0B53EC182BFEF75AFE06D351EC33
:10266000180B53EC1A2BFEF753FE04D20020014640
:10267000C5E9020109E053EC1C2BDFF85402D0E954
:102680000001FFF7B9F9C5E902012878002870D0E8
:102690000120687001F072FDA988401AE880608806
:1026A000EE88B04221D3FFF799F941EC180B304680
:1026B000FFF794F941EC190B53EC192BD5E9020102
:1026C000FFF79AF953EC182BFFF752F8C5E902010E
:1026D00053EC192BD5E90601FFF78EF953EC182BB3
:1026E000FFF746F8C5E9060143E00020287040E006
:1026F000687800283DD001F041FDA988401AE880A3
:1027000060884008EE88864233D20746BF1BFFF739
:1027100065F941EC180B3846FEF7E8FED5E90223CF
:10272000FFF76AF953EC182BFFF722F8C5E902010D
:102730003846FEF7DBFED5E90623FFF75DF953ECDB
:10274000182BFFF715F8C5E90601C82E11DA00208D
:102750000146C5E90201C5E90601687009E00020EB
:102760000146C5E90201C5E90601C5E90401C5E95B
:102770000801002651E002284ED105EBC600D0E941
:102780001201DFF8982302EBC602D2E90023FEF71C
:10279000EFFFDFF88C23DFF81C34FEF7E9FF00229F
:1027A000DFF81434FFF728F9DFF8102402EBC60233
:1027B000D2E90023FFF720F9FEF77CFEDFF864136F
:1027C00001EB8611488327E00128D4D105EBC60030
:1027D000D0E90201DFF8442302EBC602D2E900236C
:1027E000FEF7C6FFDFF83823DFF8C833FEF7C0FF77
:1027F0000022DFF8C433FFF7FFF8DFF8C02302EB55
:10280000C602D2E90023FFF7F7F8FEF753FEDFF820
:10281000141301EB86114883761C042E46DADFF888
:10282000B00000EBC600D0E90001DFF89423DFF828
:102830009433FEF787FD0DD804F1080000EBC600C5
:1028400000221346C0E9002305EBC600C0E90223BD
:10285000C0E91223A8780028B6D104F1080000EBE3
:10286000C600D0E90001DFF8B42202EBC602D2E9CB
:102870000023FEF77DFFDFF8A822DFF83833FEF7EC
:1028800077FF0022DFF83033FFF7B6F8DFF82C23AC
:1028900002EBC602D2E90023FFF7AEF8FEF70AFE0C
:1028A000DFF8801201EB86114883B5E7BDEC0C8B95
:1028B000F1BD0000700100200000000000408F40CA
:1028C000CD0200205802002079030020FB21F9BF2F
:1028D000E00200207CB58020FFF7A3FB642001F01C
:1028E000B1FD0125B84CC7E0032D79D143F2A10613
:1028F000B64800900123324604210320FFF733FB42
:10290000B34800900223324604210320FFF72BFB3B
:10291000B04800900323324604211846FFF723FBFA
:10292000AD480090022343F2A00204210320FFF7E8
:102930001AFB55E008200090002301212846C0B270
:10294000FFF711FB0020009003464FF4B052012125
:102950002846C0B2FFF707FBA048009001234FF4C0
:10296000B05204212846C0B2FFF7FDFA01200090C2
:1029700000234FF4B05201462846C0B2FFF7F3FAE5
:102980004FF47A600090002346F265020421284645
:10299000C0B2FFF7E8FA012DA6D143F2A106904894
:1029A00000900123324604211846FFF7DCFA8D48D7
:1029B00000900223324604210120FFF7D4FA8A480E
:1029C00000900323324604210120FFF7CCFA874808
:1029D0000090022343F2A00204210120FFF7C3FA72
:1029E000642001F02FFD0020009003464FF4D052E8
:1029F00001212846C0B2FFF7B6FA7D4800900123B6
:102A00004FF4D05204212846C0B2FFF7ACFA7948FF
:102A1000009002234FF4D05204212846C0B2FFF7A1
:102A2000A2FA7548009003234FF4D052042128469F
:102A3000C0B2FFF798FA0320009000234FF4D05261
:102A400001212846C0B2FFF78EFA642001F0FAFC9B
:102A500049F6D0500090052343F201020421284694
:102A6000C0B2FFF780FA00200146C4E918012846E9
:102A7000C0B2FFF7EBFA6D1C052D49DA2846C0B24B
:102A8000FFF757FC46F260026019C07800283FF457
:102A900051AF0A200090002301212846C0B2FFF761
:102AA00062FA0020009003464FF4B05201212846FC
:102AB000C0B2FFF758FA5148009001234FF4B052CA
:102AC00004212846C0B2FFF74EFA012000900023EF
:102AD0004FF4B05201462846C0B2FFF744FA012D28
:102AE00009D142480090022343F2A00204210120B0
:102AF000FFF739FA74E7032D7FF472AF3648009080
:102B0000022343F2A00204210320FFF72CFA67E717
:102B10006420BDE8764001F095BC00003803002039
:102B200079E926310000002030B4354A91880B46FF
:102B3000C3F3C000002814D1B2F844402046C0F3CB
:102B4000C00000280DD1B2F884502846C0F3C00060
:102B5000002806D1B2F8C4201046C0F3C0000028F7
:102B600001D0002023E0A14209D1A94207D191421E
:102B700005D1AC4203D1944201D1954201D001204C
:102B800015E00846400A01D1022010E0C3F380108E
:102B9000002801D003200AE001F00500052801D13A
:102BA000052004E0C80701D5042000E0062030BC61
:102BB0007047000008E0644000408F405803002048
:102BC0009B9999999999F13FF00100204EF9820063
:102BD000E5B1BF0C83B9010050383A0020007A609B
:102BE000C0818200AE73700CC0C301002B030900CA
:102BF000100041601001D23020006460100071604C
:102C00000000002070B5040001D1012070BD04F166
:102C10005C052878002804D1002068702046FFF762
:102C20004DF92068816921F01001816101F0A6FA57
:102C300006462068816909070CD501F09FFA801BC0
:102C40000B28F6D3686840F0010068600320287004
:102C5000012070BD816941F00101816101F08EFAAE
:102C6000064620688169C9070CD401F087FA801BE9
:102C70000B28F6D3686840F00100686003202870D4
:102C8000012070BD816941F00201816120684949DC
:102C9000884202D16068484908602068217C012987
:102CA000816903D121F04001816102E041F04001DE
:102CB00081612068617C0129816903D141F48041EF
:102CC000816102E021F4804181612068A17C0129B9
:102CD000816903D121F48051816102E041F4805186
:102CE000816121688A6922F44072A06802438A6186
:102CF0002068816921F0A40181612068016921F0C7
:102D000010010161E068012805D12068816941F066
:102D10000401816119E0002817D021680228886920
:102D200010D040F0800088612068016941F01001F6
:102D30000161E068032808D12068816941F0200121
:102D4000816102E040F020008861A069401EE169D5
:102D5000491E090241EA4061206A401E0143606940
:102D6000401E41EA00412068C161A068B0F5407F83
:102D70000FD1A06A401EE16A491E40EA0120216B82
:102D8000491E40EA0110616A491E40EA014021687B
:102D9000C8602168D1F8C020E06B0243C1F8C020B0
:102DA000204600F03FFA0020A065686001202870EE
:102DB000002070BD006400400065004070B400F168
:102DC0005C021378012B01D0022B1CD18A68920778
:102DD0004B684C690D69CE680968002909D142EA3F
:102DE000C66242EA05422243006C00EB83000260A7
:102DF00007E02243406C00EBC30045EA46750560DE
:102E00004260002004E0506840F002005060012061
:102E100070BC704700F15C010A78012A09D10222D6
:102E20000A7000688269520852008261002048607E
:102E30007047486840F0040048600120704738B58A
:102E4000044604F15C000378022B1BD12368D3F8FD
:102E5000C450AD0205D5416841F4007141600120C4
:102E600032BDD3F8C400C0F301452B46204600F024
:102E700013FA012000FA05F52068C0F8CC50A565CA
:102E8000002032BD416841F008014160012032BD9F
:102E9000F0B400F15C042578022D6DD10568903501
:102EA000402912D12E6816F00F0F05D1606840F44A
:102EB00080706060012064E02C68C4F30125866C9A
:102EC00005EBC50406EBC40611E0AE6816F00F0F63
:102ED00005D1606840F480706060012051E0AC680A
:102EE000C4F30125C66C05EBC50406EBC4063468C3
:102EF00014F080445460376803D1C7F38A441460E7
:102F000002E027F060471760346804F000549460D2
:102F100056F8044B04F0004414613468A4B2D46140
:102F2000346804F47024D460346804F48014546168
:102F3000346804F4001494613468C4F306641462C1
:102F400056F8044BE40F5462002402E0375D1F552D
:102F5000641C0FF2B437D2F80CC04FEA1C4C17F8BF
:102F60000C70BC42F2D300689430402901D1056056
:102F700000E08560002004E0606840F008006060C8
:102F80000120F0BC704700689030402903D10068F0
:102F900000F00F007047806800F00F007047006875
:102FA000D0F8C40000F00700704730B400F15C03B3
:102FB0001C78012C01D0022C66D10468A36D11F09D
:102FC000070F01D0DD071DD511F0380F01D09D0787
:102FD00018D511F4E07F01D05D0713D511F4F05F2F
:102FE00001D01D070ED511F4604F01D0DD0609D5C3
:102FF00011F4403F01D09D0604D511F47C0F05D09B
:103000005D0603D4E56D45F00105E56511F0070F98
:1030100001D0DC071DD411F0380F01D09C0718D463
:1030200011F4E07F01D05C0713D411F4F05F01D0FC
:103030001C070ED411F4604F01D0DC0609D411F442
:10304000403F01D09C0604D411F47C0F06D05B06EF
:1030500004D50368DC6D44F00204DC650B0605D57D
:103060000368D3F8DC401443C3F8DC40CB0505D536
:103070000368D3F8E0402243C3F8E0200068426DC3
:1030800011434165002004E0586840F00200586098
:10309000012030BC70472DE9F8438146D9F8001073
:1030A0000C6D04F4E054486D04400D6D05F0070507
:1030B000486D05400E6D06F03806486D0640D1F8A3
:1030C000508008F47108486D00EA08080F6D07F495
:1030D0006027486D0740086D400607D5486D4006DB
:1030E00004D540200865484601F0C0F9D9F8002011
:1030F000106DC0050DD5506DC0050AD502F1D80080
:103100000168806801404FF480701065484601F006
:10311000AEF9002C06D0D9F80000046521464846D7
:1031200001F0A6F9002D06D0D9F800000565294662
:10313000484600F026FC002E06D0D9F800000665AF
:103140003146484601F095F9D9F80000016D89052E
:1031500008D5416D890505D54FF4007101654846D4
:1031600000F00AFCD9F80020106D00060CD5506D57
:10317000000609D502F1D400016880680140802072
:103180001065484601F076F9D9F80000016D890410
:1031900008D5416D890405D54FF4005101654846B5
:1031A00001F069F9D9F80000016D090408D5416DF5
:1031B000090405D54FF400410165484601F05CF96A
:1031C000D9F80000016D49040BD5416D490408D5BB
:1031D0004FF480410165D9F8600040F08000C9F8E3
:1031E0006000002F06D0D9F8000007653946484630
:1031F00001F043F9B8F1000F09D0D9F80000C0F888
:103200005080D9F8600048EA0008C9F86080D9F811
:103210006000002804D04846BDE8F24301F02EB912
:10322000BDE8F18310B4154901640268D2F880301A
:1032300023F4F813446B43EA0443C2F88030104A85
:1032400042640268D2F8803023F07063846B43EAF2
:103250000463C2F880300B4A82640B4AC2640B4A92
:1032600002650B4A426502E000200860091D09481A
:103270008142F9D310BC70470000000000A4004058
:1032800070A40040B0A4004088A5004060A60040A3
:1032900078A6004050A7004070B40D698C682543A3
:1032A0000E684C68002C02D145EA864502E03543A1
:1032B00045F080450C6ACE6946EA04668C6926436F
:1032C0004C692643CC682643406D03EBC30400EBF6
:1032D000C40005604660083000230DE0D418E5788E
:1032E000A678360446EA0566657846EA0526247817
:1032F000264340F8046B1B1D03A4CD682D0C645DB0
:10330000A342EBD370BC704700010203040506071B
:10331000080C10141820304080B501F0B1F800F00E
:1033200012F801F0C9F801F00DF9FEF789FD01F07E
:1033300031F900F043F881A1DFF8040801F023FA25
:1033400000F01AFAFCE700B593B00022382105A876
:1033500000F018FC00221421684600F013FC002045
:1033600001F086FA012005904FF48030069002208B
:103370000C9003200D9006200E9055200F900220F7
:1033800010901190129005A801F0EAFA002801D0DF
:1033900000F0C1FB0F20009003200190002002905C
:1033A000039004900421684601F0C6FC002801D077
:1033B00000F0B1FB01F0DEFD13B000BD10B572B638
:1033C000DFF87C472046D4F8A810884720680068BA
:1033D000816841F0010181604FF4807221692068A9
:1033E00001F0A5FE002801D000F095FBDFF854475E
:1033F0002068FFF70FFD002801D000F08CFB0022B1
:10340000A16E2068FFF7D1FD002801D000F083FBFA
:1034100007224FF42071DFF83007FFF7C6FD0028C0
:1034200001D000F078FB0020A060E0604FF40020A5
:10343000206100206061A061E0612062606262B68C
:10344000FFF748FA00200AE001EB80118988402943
:1034500004D0DFF8F816DFF8F8264A66401CDFF8DB
:10346000F4160428F0DB91F82000401D052290FBA3
:10347000F2F202EB8202801A01EB4000012141844A
:1034800080214FF0904000F099FDDFF8C01648739E
:1034900010BD70B52DED028B0446002515E006EB3E
:1034A000C506002104EB8500806E02F035FD10EEAC
:1034B000100A00F0A3FFC6E90C010022DFF89836DD
:1034C000FEF756F9C6E90C016D1CDFF89066042D75
:1034D000E5DB96ED148BD6E90C2351EC180BFEF7C7
:1034E0008BFAC6E90201D6E90E2351EC180BFEF760
:1034F00083FAC6E90401D6E9102351EC180BFEF754
:103500007BFAC6E90801D6E9122351EC180BFEF745
:1035100073FAC6E90A01A06F02F0AEFD401E8041B9
:10352000C043C00F3070E06F02F0A6FD401E804126
:10353000C043C00F7070BDEC028B70BD733B0000C8
:1035400070B52DED028BDFF80446206F401C20671C
:10355000E06E401CE066FFF7E7FA6075607D0028CA
:1035600004D1802060740020A074FDE0022800F0E7
:10357000FB80E06EA17D884206D300202075E074B8
:10358000FEF74EFE0020E066207D042840F0EC802F
:10359000E07C062840F0E280E07A002800F0CF804E
:1035A000DFF8B855D5E910230020014602F06AFD86
:1035B00004D1D5E9122302F065FD64D0DFF89465EB
:1035C000D6E90401D5E90423FEF760F8C6E9040151
:1035D000D6E91423D5E90A01FDF79AFFC6E91401DB
:1035E0009FED638BD5E9022351EC180BFDF790FF9B
:1035F00000F0CAFD00EE100A02F054FD10EE100AB1
:1036000000F0FCFEC4E90801D5E9022351EC180BD7
:10361000FDF77EFF00F0B8FD00EE100A02F042FD5B
:1036200010EE100A00F0EAFEC4E90C01D5E9082307
:1036300051EC180BFDF76CFF00F0A6FD00EE100A30
:1036400002F030FD10EE100A00F0D8FEC4E90A01C5
:10365000D5E9082351EC180BFDF75AFF00F094FD53
:1036600000EE100A02F01EFD10EE100A00F0C6FE79
:10367000C4E90E0195ED080B84ED100B95ED0A0BD6
:1036800084ED120B5BE0DFF8CC64D6E90401D5E9E8
:103690000423FDF7FBFFC6E90401D6E91423D4E9AE
:1036A0001201FDF735FFC6E914019FED318BD5E915
:1036B000022351EC180BFDF72BFF00F065FD00EE27
:1036C000100A02F0EFFC10EE100A00F097FEC4E9B9
:1036D0000801D5E9022351EC180BFDF719FF00F0A2
:1036E00053FD00EE100A02F0DDFC10EE100A00F0AF
:1036F00085FEC4E90C01D4E9102351EC180BFDF749
:1037000007FF00F041FD00EE100A02F0CBFC10EEC6
:10371000100A00F073FEC4E90A01D4E9102351EC49
:10372000180BFDF7F5FE00F02FFD00EE100A02F079
:10373000B9FC10EE100A00F061FEC4E90E01FEF7BC
:10374000EBFE012504E02846C0B2FEF744FC6D1CE8
:10375000052DF8DB00202075E07405E04FF07E5069
:10376000606600202075E074BDEC028B70BD000027
:1037700000000060FB21F9BF2DE9F04188B0DFF8BF
:10378000CC4300F0FBFCE065DFF8B4532846D5F8E5
:10379000AC108847206F322804D3012060700020CD
:1037A000206701E0002060706078002853D0DFF8C7
:1037B000A40300F1C40191F81CE00EF1040E00F125
:1037C0008402137F1B1D00F14406377F3F1D90F8D4
:1037D00020C00CF1040C4FF005089EFBF8F808EB34
:1037E0008808AEEB080E00EB4E0EBEF8E2E0CDF816
:1037F0001CE04FF0050E93FBFEFE0EEB8E0EA3EBCE
:103800000E0300EB4303B3F8A2300693052397FBA6
:10381000F3F303EB8303FF1A00EB4703B3F86230C3
:10382000059305239CFBF3F303EB8303ACEB030C41
:1038300000EB4C035B8C049309880391118802917F
:103840003188019180880090A37C627C0FF2143152
:10385000E86802F06FFCE078002806D0607CFEF794
:10386000E0FB0020E07001206071207900280BD07F
:10387000012505E0A17C2846C0B2FEF7E7FB6D1CE0
:10388000052DF7DB00202071A07800280BD0012542
:1038900005E00B212846C0B2FEF7D8FB6D1C052DB4
:1038A000F7DB0020A070E07900280AD0012504E0B1
:1038B0002846C0B2FEF7CBFD6D1C052DF8DB0020BD
:1038C000E071207A00280CD0012504E02846C0B21F
:1038D000FEF7F5FD6D1C052DF8DB002020720120A0
:1038E0006071A079002816D001269A4D09E0304673
:1038F000C0B2FEF7ACFD05EB8610383801684162B6
:10390000761C052EF3DBE86A606505F18400806AA9
:10391000A0650020A071607A002808D0628BD2B226
:10392000B4F95010E07BFEF7F2FC00206072A07A40
:1039300000280BD0206E0090638BDBB2B4F95020CE
:10394000217CE07BFEF70FFB0020A072607900284D
:103950000AD0012504E02846C0B2FEF7EAFC6D1C3F
:10396000052DF8DB0020607100F008FCE16D401AC5
:10397000A07308B0BDE8F08179480178491C017056
:10398000704770B50268136D5B0701D5042313659A
:103990006C4D2C6800682268904253D1A86E014299
:1039A00050D06A4E05F1580305F13002696E204689
:1039B000FFF76EFA002805D04FF08040706600F0E7
:1039C000AAF82FE0286B00F07F01491E317000F447
:1039D000F0603083B0F5C07F09D0B0F5B06F21D171
:1039E000C9B25C4800EB8110426B90471AE0307D11
:1039F000401C3075F07C0818F074C9B2554800EBD3
:103A00008110826B904701280CD00120B07080207B
:103A100070740120F070307800EE100AB8EE400AA1
:103A200086ED190A40214848FFF7ADFA022809D36C
:103A300005F1580305F13002696E2868FFF728FA8E
:103A40000028F5D170BD7BE510B50446B0F5007FC8
:103A500016D14FF400714FF0904000F0AFFA0028FB
:103A60000ED13A4CFFF760F86075607D022802D1F4
:103A70000120607401E0802060740120E07010BDBE
:103A8000B4F5806F33D14FF480614FF0904000F077
:103A900095FA00282BD12D4CE07D002810D1012073
:103AA000A071E0752B4890F82010052291FBF2F2EE
:103AB00002EB8202891A00EB41000021418410BD13
:103AC000FFF732F86075607D032802D10620A074EC
:103AD0000BE0042802D10F20A07406E0052802D1D3
:103AE0000020A07401E00020A0740120207110BD0E
:103AF00010B5134C0121204600F054FE1C20216813
:103B0000096808621148016F491C01672068BDE817
:103B1000104001F039BB38B50C4C012020738020D7
:103B200060740620A074012505E0A17C2846C0B27F
:103B3000FEF78CFA6D1C052DF7DB72B6FEE7000070
:103B4000E00300200001002040560020C0020020B9
:103B50000000C04000000020000059407803002011
:103B6000E05600200A25642C25642C25642C25644D
:103B70002C25642C25642C25642C25642C25642C90
:103B800025640D0062F30F2262F31F4200B500BFEF
:103B9000130096469446103928BFA0E80C50FAD876
:103BA0005FEA417C28BF0CC048BF40F8042BC9071E
:103BB00028BF20F8022B48BF00F8012B00BD0000F1
:103BC0002DE9FC47054600242646DFF85072286898
:103BD000000369D5A046F86CC0000AD4F86C40F028
:103BE0008050F864F86C00F08050009000984FF01E
:103BF0000108DFF82C92D9F8000040F48070C9F871
:103C0000000000F0BBFA8246D9F80000C00506D4D7
:103C100000F0B4FAA0EB0A000328F5D30324200037
:103C20003AD1DFF80092D9F8000010F4407014D0B7
:103C3000296C884211D0D9F8000020F44070D9F8DE
:103C4000001041F48031C9F80010D9F8001021F4B7
:103C50008031C9F80010C9F80000C0070FD500F086
:103C60008DFA8246D9F80000800708D400F086FA61
:103C7000A0EB0A0041F289318842F3D303242000EB
:103C800008D1D9F8001021F44071286C0143C9F81B
:103C9000001002E0264600E02646B8F1010F03D1ED
:103CA000F86C20F08050F8642878C00705D5F96FCB
:103CB0008908686850EA8101F9672878800705D586
:103CC000F96F21F00C01A8680143F96728784007D3
:103CD00005D5F96F21F03001E8680143F9672878CC
:103CE000000705D5F96F21F0C00128690143F96784
:103CF0002878800605D5F96F21F440616869014391
:103D0000F9672878400605D5F96F21F44051A86974
:103D10000143F9672878000605D5F96F21F4404181
:103D2000E8690143F9672868C00505D5F96F21F4F2
:103D30004031286A0143F9672868800505D5F96F85
:103D400021F44021686A0143F967286840050DD5D0
:103D5000F96F21F44011A86A0143F967A86AB0F528
:103D6000801F03D1386840F480103860286800054F
:103D70000DD5F96F21F44001E86A0143F967E86A5B
:103D8000B0F5800F03D1386840F48010386028689F
:103D9000C0040DD5F96F21F04071286B0143F9671C
:103DA000286BB0F1807F03D1386840F48010386010
:103DB000286880040DD5F96F21F04061686B0143DC
:103DC000F967686BB0F1006F03D1386840F4801078
:103DD0003860286840040DD5F96F21F04061A86B68
:103DE0000143F967A86BB0F1006F03D1386840F464
:103DF00080103860286800040DD5F96F21F040511B
:103E0000E86B0143F967E86BB0F1805F03D1386874
:103E100040F4803038603046BDE8F6870C10024030
:103E20000070004090100240F8B502460B46002496
:103E30002DE04FF0060C05E0DFF8A4C16245F8D193
:103E40004FF0050C0CFA06FC4CEA070C45F821C0B3
:103E500064498E68C5432E405F68FF0200D5064363
:103E60008E60CE682E405F68BF0200D50643CE60EC
:103E70004E682E405F68BF0300D506434E600E6853
:103E80002E405D68ED0300D506430E60641C186883
:103E90000146E14000F091800127A7403840F5D06D
:103EA000610003258D40ED435E6806F0030CBCF114
:103EB000010F03D006F00306022E10D196682E40A3
:103EC000D3F80CC00CFA01FC4CEA06069660566862
:103ED000BE435F68C7F30017A7403E4356601E7994
:103EE00006F00306032E05D0D6682E409F688F404B
:103EF0003E43D6601E7906F00306022E15D12646F3
:103F0000F60802EB86073E6A4FEA840C0CF01C0CA4
:103F10004FF00F0E0EFA0CFE26EA0E06D3F810E054
:103F20000EFA0CFC4CEA06063E6216682E401D791D
:103F300005F0030505FA01F10E431660596811F406
:103F4000403FA3D028490D6845F001050D60096880
:103F500001F001010091009921468908234D55F88F
:103F60002170A60006F00C064FF00F0C0CFA06FCB0
:103F700027EA0C07B2F1904F02D14FF0000C61E735
:103F8000DFF86CC0624502D14FF0010C5AE7DFF850
:103F900064C0624502D14FF0020C53E7DFF858C00D
:103FA000624502D14FF0030C4CE7DFF850C0624588
:103FB0007FF442AF4FF0040C44E7F1BD00690140CB
:103FC0000846401E8041C043C00F704701460C4A5E
:103FD00013680B4202D01160FFF736BD7047000036
:103FE0000014004800040140601002400800014035
:103FF0000004004800080048000C00480010004879
:1040000014040140374A13684FF6FF010B400002C9
:1040100000F4E060184334490843106070473148A9
:104020000068C0F302207047010007D4012200F0AD
:104030001F018A402D49400941F82020704709019D
:10404000020002D42A48815470472A4802F00F0225
:10405000104400F8041C704710B400F00700C0F1D1
:104060000703052B00D30423041D072C01D20020D5
:1040700000E0C01E012404FA03F35B1E19408140D6
:1040800004FA00F0401E1040084310BC704738B5D9
:104090000446641EB4F1807F0AD2174D6C600F2174
:1040A0004FF0FF30FFF7CBFF0020A860072028600B
:1040B000B4F1807F8041C043C00F32BDA2E770B52C
:1040C00004460D461646FFF7AAFF32462946FFF77B
:1040D000C3FF01462046BDE87040B0E7A4E7D6E73D
:1040E000FFF7B1BC0CED00E00000FA0500E100E0D4
:1040F00000E400E018ED00E010E000E09FED1E0A93
:10410000B9B311F003030BD0D0ED000A001DB4EEDB
:10411000600AF1EE10FA48BFB0EE600A5B1EF3D100
:10412000890826D0D0ED000AB4EE600AF1EE10FA4C
:1041300048BFB0EE600A90ED011AB4EE410AF1EE0C
:1041400010FA48BFB0EE410AD0ED020AB4EE600AA0
:10415000F1EE10FA48BFB0EE600A90ED031A10308D
:10416000B4EE410AF1EE10FA48BFB0EE410A491E22
:10417000D8D182ED000A7047FFFF7FFF0148006839
:10418000704700BF9004002001F000428B1AA3F199
:104190006051B1F5801F0ADBB1F17F6F1FD242EA97
:1041A000C102C10071F1004142EB507070470B1524
:1041B000C3F10903212B10D2890241EA90518002F8
:1041C0000128494141F0004121FA03F0C3F12003E5
:1041D000994071F1004150417047100070476FF0F5
:1041E000000013EB103F5CBF000E42EAC050704766
:1041F000F8B52DED0A8B0C469FED780AD0ED010A3B
:104200009FED771AC0EE810A20EE80AAD0ED000A59
:1042100070EE810A9FED731AC0EE810A20EE800ACB
:104220009FED711BB0EE418AF0EE618A10EE100A2C
:1042300000F0E4F841EC100BB0EE481AF0EE681A0A
:1042400001F098FF9FED6A1B01F0B6FFB0EE40BA97
:10425000F0EE60BA1AEE100A00F0D0F841EC100B44
:10426000B0EE481AF0EE681A01F084FF9FED601B73
:1042700001F0A2FFB0EE40AAF0EE60AA51EC1B0BD9
:10428000FFF782FF0CEE100AF0EE4CCA51EC1A0B4D
:10429000FFF77AFF00EE100AF0EE401A5648426827
:1042A000FDEEE10A10EE903ABDEEEC1A11EE105A56
:1042B000002B41D441888E1E9E423DDB002D3BD415
:1042C0000688B61EAE4237DB01FB053602EB8607D9
:1042D00097ED002A171D07EB8606D6ED002A6E1C07
:1042E00001FB063102EB810696ED003A03EE903AAF
:1042F000F8EEE33A71EEE33A01EE905AF8EEE11A85
:104300003CEEE14A72EEC24AF0EE421A44EEA31AC3
:1043100073EE424A44EE841A32EE622A32EE432AA7
:10432000121D02EB8101D1ED002A32EE222A22EE8B
:10433000232A42EE041A01E0DFED271AC4ED001A29
:10434000C268002B41D441898E1E9E423DDB002D68
:104350003BD40089801EA84237DB01FB053002EB0D
:104360008006D6ED000A161D06EB800090ED001ABF
:10437000681C01FB003102EB8100D0ED001A02EE57
:10438000103AB8EEC22A30EE422A00EE105AB8EEC9
:10439000C00A7CEE402A31EE603AB0EE600A03EECD
:1043A000020A31EEE03A03EE220A70EEC10A70EE24
:1043B000E10A101D00EB810090ED001A70EE810AF9
:1043C00060EE820A00EEA20A01E09FED030A84ED8E
:1043D000010ABDEC0A8BF1BD000000000000444260
:1043E000920A064080926A400000000000004940A6
:1043F0000000000000000000E0520020C0F3C751A0
:1044000081B1FF2906D0C110400721F0E04101F140
:104410006051704741020CBF40F4E0016FF0004171
:104420000020704700F0004100020AD0B0FA80FC82
:1044300000FA0CF001F16051A1EB0C5101EBD0211D
:104440004005704738B50446FFF798FE054614F15D
:10445000010F02D0044880680419FFF78FFE401B4B
:10446000A042FAD331BD00BF9004002070477047CE
:10447000704770477047704770477047704700003B
:1044800010B500240B48016821F4806101600168C7
:1044900041F4807101600320FFF710FE204601F017
:1044A000ADFE002801D0012401E001F0CFFE20463E
:1044B00010BD00000020024080B586B0002214210B
:1044C00001A8FFF75FFB1E48016841F02001016071
:1044D000016801F0200100910099016841F001019B
:1044E0000160006800F001000090009880200190B9
:1044F000002002900120039001A94FF09040FFF7A7
:1045000093FC4FF4C06001904FF40410029001201E
:10451000039001A94FF09040FFF786FC0022032191
:104520001720FFF7CCFD1720FFF7D8FD002203214D
:104530002820FFF7C4FD2820FFF7D0FD07B000BDFD
:104540004C10024080B51248016841F0040101603E
:10455000016801F0040100910099016841F0010136
:104560000160006800F00100009000980022022124
:104570000B20FFF7A4FD0B20FFF7B0FD0022022166
:104580000C20FFF79CFD0C20BDE80240FFF7A6BD04
:104590004810024010B5614C614820604FF4E120A2
:1045A00060600020A060E06020610C20606100205D
:1045B000A061E06120626062A062204600F02EFDF2
:1045C000002801D0FFF7A7FA0021204601F090FE55
:1045D000002801D0FFF79FFA4FF02061204601F03C
:1045E000AAFE002801D0FFF796FA204601F060FEEF
:1045F000002803D0BDE81040FFF78DBA10BD78B594
:1046000097B00446002214216846FFF7BBFA002247
:10461000442106A8FFF7B6FA2068414988427BD1B9
:10462000022006900020089006A8FFF7C9FA00288B
:1046300001D0FFF770FA3B48C16841F40031C16016
:10464000C16801F4003105910599016841F001014B
:104650000160006800F001000590059804200090BA
:1046600002200190002002900390072004906946E8
:104670004FF09040FFF7D8FB0820009002200190F7
:1046800001200290022003900720049069464FF019
:104690009040FFF7C9FB244D244E2E601A2068601D
:1046A0000020A860E8608020286100206861A8617F
:1046B0002020E8614FF400502862284601F08AFE6D
:1046C000002801D0FFF727FAE567AC6206F1140075
:1046D00028661B2068661020A8660020E8668020F7
:1046E000286700206867A867E867C5F8800005F1BB
:1046F000600001F06FFE002801D0FFF70CFA05F111
:104700006000A067C5F88840002202212620FFF73C
:10471000D6FC2620FFF7E2FC18B070BD3055002013
:10472000004400404C100240705400200800024039
:104730000A4603681968C9694906FBD5C168184665
:1047400000F0A1BC01464FF0FF304A681268536880
:10475000C3F580734B618A69934207D00869134699
:104760001BB2C05C521C02F0FF028A617047014616
:10477000486800684068C0F5807048618969401ADF
:1047800000F0FF00704738B504460D46E06801F0C0
:10479000F9FF2846FCF7E8FC014689B22046BDE84F
:1047A0003440C5E7816941617047054901600549A9
:1047B000416005498160054901610549C160704753
:1047C0003055002070540020D05400207053002039
:1047D000C055002038B5044601E0401CE083204667
:1047E000FFF7C5FF002811D02046FFF7ABFF04F10B
:1047F0002201E28B8854E08B014604F12202525CD4
:104800003B2A01D04029E8DB01202077207F0028C7
:104810002DD000202084616E04F1220001F0BEFF43
:1048200004F16801228C41F822000AE06D1C258405
:10483000616E002001F0B2FF04F16801ADB241F8F1
:104840002500258C04F16800294650F82100002835
:10485000ECD12046FEF71DFE0020E08320770246C3
:10486000402104F12200BDE8384001F0BDBF31BD58
:10487000DFF8D81000282BD1DFF8D4000A6802F442
:10488000C062B2F5806F1ED1026822F480720260AD
:10489000086820F4C06040F400700860DFF8B400DD
:1048A000026832204243DFF8B000B2FBF0F0401C57
:1048B00000E0401E4A69520501D50028F9D1486937
:1048C00040052ED43AE0016821F48071016035E0A2
:1048D000B0F5007F2CD1DFF878000A6802F4C062DE
:1048E000B2F5806F1FD1026842F4807202600868DE
:1048F00020F4C06040F400700860DFF858000268DF
:1049000032204243DFF85000B2FBF0F0401C00E0E0
:10491000401E4A69520501D50028F9D14869400571
:104920000CD503207047016841F48071016005E0F7
:10493000086820F4C06040F4806008600020704780
:104940000648016841F480410160704700700040F2
:1049500080700040BC04002040420F0008700040FE
:104960002DE9F843040000F0E281DFF8705620786A
:10497000C00712D5A86800F00C00E96801F0030137
:104980000C2801D1032901D0082845D128688003CB
:1049900003D56068002800F0CA812078800721D5FF
:1049A000A86800F00C00E96801F003010C2801D1AF
:1049B000022901D0042866D12868400503D5E068A3
:1049C000002800F0B481686820F0FE40216940EAC8
:1049D00001606860DFF81006006801F00FFC002835
:1049E00040F0A581DFF804662078000740F184805C
:1049F00060690028706870D040F001007060FFF7B7
:104A0000BDFB07467068800776D4FFF7B7FBC01B75
:104A10000328F7D303208DE16068B0F5803F04D10F
:104A2000286840F48030286012E0B0F5A02F286894
:104A300007D140F480202860286840F48030286046
:104A400006E020F480302860286820F48020286068
:104A5000606800280BD0FFF791FB064628688003AA
:104A60009BD4FFF78BFB801B6528F7D3D2E7FFF7BA
:104A700085FB0646286880038FD5FFF77FFB801BE8
:104A80006528F7D3C6E7E0680028286816D040F408
:104A900080702860FFF772FB06462868400505D441
:104AA000FFF76CFB801B0328F7D3B3E7686820F09F
:104AB000FE40216940EA0160686093E720F480705D
:104AC0002860FFF75BFB0646286840058AD5FFF79C
:104AD00055FB801B0328F7D39CE74008400070601B
:104AE000FFF74CFB07467068800705D5FFF746FBCC
:104AF000C01B0328F7D38DE72078400768D500272F
:104B0000A86DC00009D4A86D40F08050A865A86DBC
:104B100000F08050009000980127DFF8D484D8F886
:104B20000000C00513D4D8F8000040F48070C8F825
:104B30000000FFF723FB8146D8F80000C00506D42B
:104B4000FFF71CFBA0EB09000328F5D362E7A06880
:104B5000012804D1306840F00100306011E00528E0
:104B6000306807D140F004003060306840F0010048
:104B7000306006E0400840003060306820F00400FB
:104B80003060A06800280ED0FFF7F8FA8046306841
:104B9000800717D4FFF7F2FAA0EB080041F2893141
:104BA0008842F4D336E7FFF7E9FA80463068800799
:104BB00008D5FFF7E3FAA0EB080041F289318842FB
:104BC000F4D327E7012F03D1A86D20F08050A8650A
:104BD0002078800621D5A0690028B0680ED040F06A
:104BE0000100B060FFF7CAFA0746B068800714D426
:104BF000FFF7C4FAC01B0328F7D30BE740084000B7
:104C0000B060FFF7BBFA0746B068800705D5FFF72D
:104C1000B5FAC01B0328F7D3FCE6E069002800F0D2
:104C20008880A96801F00C010C2955D00228286859
:104C300020F0807028603AD1FFF7A0FA0646286875
:104C4000800105D5FFF79AFA801B0328F7D3E1E628
:104C5000E868DFF8A0130840216A0843616A491E2A
:104C600040EA0110A16A40EA0120216B4908491E6F
:104C700040EA4150616B4908491E40EA4160E16ADF
:104C800040EAC160E860286840F080702860E86809
:104C900040F08070E860FFF771FA044628688001F0
:104CA00047D4FFF76BFA001B0328F7D3B2E6E86896
:104CB00080088000E860E968DFF83C030140E960B3
:104CC000FFF75CFA04462868800132D5FFF756FAF0
:104CD000001B0328F7D39DE6012828D0E86800F0E0
:104CE0000301226A914222D100F0F001626A521E51
:104CF000B1EB021F1BD100F4FE41A26AB1EB022FFF
:104D000015D100F07841E26AB1EBC26F0FD100F427
:104D1000C001226B5208521EB1EB425F07D100F076
:104D2000C060616B4908491EB0EB416F01D00120A2
:104D300000E00020BDE8F2832DE9F84304468846F0
:104D40000027002C61D0DFF8B452286800F00F0073
:104D5000404509D22868000948EA00102860286800
:104D600000F00F00404550D1DFF870622078C00796
:104D70004DD5606803281AD13068800145D500F010
:104D80000AF9DFF87C12884223D3B06810F0F00FE4
:104D900005D0207880071CD5A068002819D1B068FC
:104DA00020F0F00040F08000B060802711E0022881
:104DB000306828D1800328D500F089F8DFF8401248
:104DC000884206D3B06820F0F00040F08000B06068
:104DD0008027B1688908606850EA8101B160FFF7F7
:104DE000CDF98146B06800F00C006168B0EB810F2E
:104DF0000DD0FFF7C3F9A0EB090041F289318842D9
:104E0000F0D3032061E04005D6D401205DE02068A6
:104E1000810715D5400703D5B06840F4E060B06065
:104E20002078000705D5B06820F4605040F4E060B9
:104E3000B060B16821F0F001A0680143B16005E005
:104E4000802F03D1B06820F0F000B060286800F037
:104E50000F00804514D22868000948EA0010286035
:104E6000FFF78CF90746286800F00F00404507D08F
:104E7000FFF784F9C01B41F289318842F3D3C0E7C0
:104E80002078400705D5B16821F4E061E06801436E
:104E9000B1602078000706D5B06820F46050216921
:104EA00040EAC100B06000F012F85649B268C2F39F
:104EB0000312895C01F01F01C8404A4908604A4852
:104EC0000068BDE8F24301F099B9BDE8F2834E49AC
:104ED000086800F00C00042801D1414870470868B8
:104EE00000F00C00082801D148487047086800F01D
:104EF0000C000C281FD14A6802F003024868C0F376
:104F00000310401C032A07D1404AB2FBF0F2486864
:104F1000C0F30620424306E0314AB2FBF0F2486893
:104F2000C0F3062042434868C0F34160401C400083
:104F3000B2FBF0F07047002070472A4800687047C5
:104F400080B5FFF7FAFF32492F4A1268C2F30222F6
:104F5000895C01F01F01C84002BD80B5FFF7EDFF7D
:104F60002B49294A1268C2F3C222895C01F01F0151
:104F7000C84002BD1948016841F400210160704732
:104F800010B5244C2068C00504D501F060FC4FF436
:104F90008070606010BD20490A6802F00302086852
:104FA000C0F30310401C032A07D1184AB2FBF0F2E9
:104FB0000868C0F30620424306E0094AB2FBF0F25B
:104FC0000868C0F3062042430868C0F34160401CF3
:104FD0004000B2FBF0F070470000000000100240FB
:104FE0000024F400BC04002094040020901002402F
:104FF000007000400C809F01FFFFEEFE0020024089
:1050000001B4C404BC7C00080810024000366E01E4
:10501000687D00081C1002400C10024038B50400E6
:1050200015D004F180056868002804D1002028709C
:105030002046FFF7E4FA24206860206801684908E8
:1050400049000160204600F067FA012801D10120E3
:1050500032BDA06A002802D0204600F0B7FB2068CD
:10506000416821F4904141602068816821F02A0163
:1050700081602068016841F0010101602046BDE8BF
:10508000324000F007BC70B50446134604F18005B9
:105090006868202849D1002901D0180001D10120D9
:1050A00070BD2878012840D001202870216504F1C6
:1050B0005406338073800020E86021206860706AA5
:1050C00000281ED0DFF84414C162DFF84404716A7E
:1050D0000863DFF84004716A48630020716A8863DE
:1050E000206800F12802216D706A01F0D4F90028CF
:1050F00007D01020E8600020287020206860012080
:1051000070BD4020216808620020287020680830A7
:1051100050E8001F41F08001206800F1080242E8D9
:1051200000100028F2D1002070BD022070BD30B404
:10513000034603F180008468202C22D1002901D08D
:10514000140001D101201DE00478012C19D00124A4
:1051500004700020D8661868DFF8AC43A0420CD079
:105160004068000209D5186850E8004F44F0806498
:10517000054645E800400028F5D1184630BC00F04F
:1051800026BC022030BC704710B4014601F18002F9
:105190001078012801D1022040E0012010705068F1
:1051A00021280CD10868083050E8003F43F0800304
:1051B000086800F1080444E800300028F2D1906843
:1051C000222829D108200B6818620869002809D014
:1051D000086850E8003F43F48073044644E8003018
:1051E0000028F5D10868083050E8003F43F001037B
:1051F000086800F1080444E800300028F2D108688B
:10520000083050E8003F43F04003086800F108040C
:1052100044E800300028F2D10020107010BC704724
:10522000F8B504462668F1693268B36840F60F00A5
:10523000084004F15C050DD18F060BD5970601D40B
:10524000DF0007D56969002900F05D812046BDE8CF
:10525000F4400847002800F08C80DFF8B4080342CF
:1052600004D1DFF8B0783A4200F083800F46FF07A0
:1052700007D5D70505D5012737622E6B46F0010605
:105280002E638E0709D51E46F60706D50226276827
:105290003E622E6B46F004062E634E0709D51E466D
:1052A000F60706D5042627683E622E6B46F00206F6
:1052B0002E630E070AD5960601D4034206D00820B5
:1052C00026683062286B40F008002863080509D57D
:1052D000500107D54FF4006026683062286B40F01B
:1052E00020002863286B002800F00D81880608D56F
:1052F000900601D4D80004D56969002901D0204660
:105300008847286B21688968490602D410F0280F65
:1053100029D0204600F0D0FB2068806840061DD5CB
:105320002068083050E8001F21F04001206800F19B
:10533000080242E800100028F2D1286A00280DD0A7
:10534000DFF8D4178163286A01F021F9002800F002
:10535000DA80286A816BBDE8F44008472046BDE842
:10536000F240FEF7C5BB2046FEF7C2FB00202863D3
:10537000F1BD2869012840F09280C80640F18F8075
:10538000D00640F18C801020306220688068400692
:105390004ED5286A0068406880B2002800F0B380CB
:1053A0002988884280F2AF806880286A0068006897
:1053B000800634D4206850E8001F21F48071024632
:1053C00042E800100028F5D12068083050E8001F9E
:1053D00049084900206800F1080242E8001000284E
:1053E000F2D12068083050E8001F21F04001206809
:1053F00000F1080242E800100028F2D12020E86203
:1054000000202861206850E8001F21F010010246AA
:1054100042E800100028F5D1286A01F082F82988B6
:105420006888091A89B22046BDE8F44001F010BA34
:1054300028886988411A6888002864D0084680B2A4
:10544000002860D0206850E8002F22F490720346B4
:1054500043E800200028F5D12068083050E8002FEC
:10546000DFF84C030240206800F1080343E8002005
:105470000028F1D12020E8620020286168612068BE
:1054800050E8002F22F01002034643E800200028D5
:10549000F5D189B22046BDE8F44001F0D9B9C8027F
:1054A00009D5580207D54FF4801030622046BDE878
:1054B000F24001F0CEB908060AD5100601D4180250
:1054C00006D5A96900291ED02046BDE8F44008474A
:1054D000480606D5500604D52046BDE8F24000F047
:1054E000DBBB080206D5500004D52046BDE8F240DB
:1054F00001F0B0B9C80106D5002A04D52046BDE8A0
:10550000F24001F0A8B9F1BD00800040415B000805
:10551000875B0008395C0008F8B50446002521685F
:105520000A68DFF8FC050240A068024320690243D4
:1055300060690243E06902430A6021684A6822F414
:105540004052E06802434A60A2692368DFF8CC1544
:105550008B4201D0206A02439E68DFF8C8050640EE
:1055600032439A602268D36A1B09606A50EA0313C7
:10557000D3622068DFF8B02590420CD1DFF8AC256B
:10558000126802F00302032A15D8DFE802F002488D
:10559000355E012210E0DFF8982590421BD1DFF83C
:1055A0008C25126812F00C024DD0042A37D0082A3C
:1055B00022D00C2A49D01022884240F07F80002A55
:1055C00006D0022A43D0042A44D0082A45D047E016
:1055D000FFF7B6FC46E0DFF85C2590420ED1DFF81D
:1055E0004C25126812F030022DD0102A17D0202A34
:1055F00002D0302A29D0DEE70222DDE7DFF83825A5
:1056000090420ED1DFF82425126812F0C0021AD0A1
:10561000402A04D0802AEFD0C02A16D0CBE704223B
:10562000CAE78842C7D1DFF80425126812F4406245
:1056300009D0B2F5806FF2D0B2F5006FDCD0B2F5D0
:10564000406F02D0B7E72A46B6E70822B4E7DFF892
:10565000EC0407E0FFF73BFC04E04FF4004001E0FE
:1056600028460125002800F0988000BF51A1626AF9
:1056700031F81210B0FBF1F63046626802EB4201DD
:10568000884202D31103814201D2012585E000271F
:1056900047EA166710464008002110EB06207941C2
:1056A0000023FCF7A5FAA0F54071DFF8102691421F
:1056B00002D22168C86070E001256EE0E069B0F5B3
:1056C000004F38D1082A15D8DFE802F005080B147E
:1056D0000E1414141100FFF733FC0DE0FFF73DFC2E
:1056E0000AE0DFF8580407E0FFF7F1FB04E04FF4AD
:1056F000004001E02846012500284ED0D4F80410CF
:105700002CA2636A32F81320B0FBF2F00A4652086A
:1057100002EB4002B2FBF1F04FF6F071A0F1100283
:105720008A4206D20140C0F3420001432068C160B2
:1057300033E0012531E0082A15D8DFE802F005083A
:105740000B140E1414141100FFF7FAFB0DE0FFF711
:1057500004FC0AE0DFF8E40307E0FFF7B8FB04E02D
:105760004FF4004001E028460125002815D061686B
:1057700010A2636A32F81320B0FBF2F000EB510084
:10578000B0FBF1F0A0F110014FF6F072914203D29C
:1057900080B22168C86000E0012504F168000121A1
:1057A0004180018000218160C1602846F2BD000077
:1057B000FEFFFFEF010002000400060008000A00DF
:1057C0000C001000200040008000000190F828101C
:1057D000C90706D50268536823F40033C16A0B4336
:1057E000536090F82810890706D50268536823F49F
:1057F0008033016B0B43536090F82810490706D59E
:105800000268536823F48023416B0B43536090F884
:105810002810090706D50268536823F40043816BFA
:105820000B43536090F82810C90606D502689368A8
:1058300023F48053C16B0B43936090F828108906C2
:1058400006D50268936823F40053016C0B43936000
:1058500090F82810490611D50268536823F4801384
:10586000416C0B435360416CB1F5801F06D1026857
:10587000536823F4C003816C0B43536090F82810E5
:10588000090606D501684A6822F40022C06C02436A
:105890004A6070477CB5044604F180050020E8604A
:1058A000FEF76CFC06462068006800070BD56FF019
:1058B0007E400090334600224FF40011204600F055
:1058C0001BF800280FD12068006840070DD56FF045
:1058D0007E400090334600224FF48001204600F0C5
:1058E0000BF8002801D0032076BD20206860A86056
:1058F0000020E066287076BD2DE9F04105460E4691
:1059000017469846069C2868C0693040B04201D1CD
:10591000012000E000203946884255D114F1010FE2
:10592000F1D0FEF72BFCA0EB0800844201D3002C41
:105930001FD1286850E8001F21F4D071024642E8C8
:1059400000100028F5D12868083050E8001F4908E9
:105950004900286800F1080242E800100028F2D14E
:1059600005F1800020214160816000210170032049
:105970002BE0286801684907C5D5C1690905C2D56A
:105980004FF400610162286850E8001F21F4D071D3
:10599000024642E800100028F5D12868083050E897
:1059A000001F49084900286800F1080242E8001079
:1059B0000028F2D105F18000202141608160C160A2
:1059C00000210170032000E00020BDE8F08170B5E7
:1059D00004461346A16504F15C06338004F180059A
:1059E0000020E8602220A860306A00281ED00FF254
:1059F0009D11C1620FF22920316A08630FF239202C
:105A0000316A48630020316A8863A26D206800F122
:105A10002401306A00F03FFD002807D01020E86024
:105A2000002028702020A860012070BD0020287070
:105A30002069002809D0206850E8001F41F48071D7
:105A4000024642E800100028F5D12068083050E8EE
:105A5000001F41F00101206800F1080242E8001037
:105A60000028F2D12068083050E8001F41F04001C2
:105A7000206800F1080242E800100028F2D100205E
:105A800070BD016851E8002F22F0C0020B4643E8C8
:105A900000210029F5D10168083151E8002F22F4D6
:105AA0000002016801F1080343E800210029F2D156
:105AB0002021C0F884107047016851E8002F22F4BB
:105AC00090720B4643E800210029F5D101680831A6
:105AD00051E8002FDFF8E8110A40016801F10803DE
